:100000000C9491010C94C2010C94C2010C94C20195
:100010000C94C2010C94C2010C94C2010C94C20154
:100020000C94C2010C94F40B0C94F40B0C94F40B90
:100030000C94C2010C942E040C94C2010C94C201C5
:100040000C94C2010C9476080C94C2010C94C20169
:100050000C94C2010C94C2010C94C2010C94511274
:100060000C94C2010C94AD050C9483050C94C20150
:100070000C94C2010C94C2010C94C2010C94C201F4
:100080000C94C2010C94C2010C94C2010C94C201E4
:100090000C94C2010C94C2010C94C2010C94FE0B8E
:1000A0000C94C2010C94C2010C94C2010C94C201C4
:1000B0000C94C2010C94C2010C94C2010C94D7059B
:1000C0000C94C2010C94C2010C94C2010C94590509
:1000D0000C942F050C94C2010C9405050C94DB04C0
:1000E0000C94C201620767076C0776078007F9075F
:1000F0008A0792079A07A407AE07B807C707D10770
:10010000F907DB07E507EF078111841173117711F8
:100110007D11BB1188118C11921196119A11A011A9
:10012000A411A811BB11AE11B211B6110C94A411F7
:100130000C94D1070C9409020C941F030C949E1C80
:100140000C94F9070C94B6110C949A1C0C94BB11E6
:100150000C9484110C94170A0C94AE070C9462074B
:100160000C9451090C949A070C9492070C942C024D
:100170000C94B8070C9496110C9473110C949A116A
:100180000C94C7070C94A8110C9481110C94A4072B
:100190000C94CC020C94F2090C94C5010C943A0214
:1001A0000C9492110C94EF070C940F0A0C94470ACC
:1001B0000C94E5070C9418020C948A070C948C118B
:1001C0000C9467070C9477110C941E030C94A011E7
:1001D0000C9480070C94B2110C94000A0C94AE118C
:1001E0000C9488110C946C070C947D110C94DB0713
:1001F0000C94F1090C9476070C9485020000200001
:100200002300260029002C002F00320000010000EE
:100210000301060109010200002200250028002B2D
:10022000002E003100340002010000050108010B1E
:100230000105050505070508080808020202020A6B
:100240000A08080404040401010101010101010379
:1002500003030303030303040707070C0C0C0C0C34
:100260000C0C0C0202020206060606060606060B27
:100270000B0B0B0B0B0B0B0102102020080810209E
:100280004010204080020102010804020101020422
:1002900008102040808040201008040201800402E1
:1002A0000180402010080402010804020101020438
:1002B0000810204080010204081020408000000A3D
:1002C0000B02090C0D0E08070304010000000000DA
:1002D000000000000000000000000000000000001E
:1002E00000000000000000000012111000000000DB
:1002F00000000000000000000000000000000000FE
:1003000000000000002100240027002A002D0030FA
:1003100000330001010000040107010A01009E1CD6
:100320009A1C11241FBECFEFD1E2DEBFCDBF00E08B
:100330000CBF13E0A0E0B2E0E0E8F7E400E00BBFA0
:1003400002C007900D92A235B107D9F728E0A2E5C7
:10035000B3E001C01D92A538B207E1F711E0C0E992
:10036000D1E000E006C021970109802FFE010E9424
:100370002A20CF38D10780E00807A9F70E949B12F6
:100380000C94AE230C9400000895CF92DF92EF926C
:10039000FF920F931F93CF93DF936C017A018B0130
:1003A000C0E0D0E0CE15DF0589F0D8016D918D0158
:1003B000D601ED91FC910190F081E02DC6011995D7
:1003C000892B11F47E0102C02196ECCFC701DF9189
:1003D000CF911F910F91FF90EF90DF90CF900895F4
:1003E000FC01A089B1898C91A689B78982FD0FC0D3
:1003F0009C91818D8F5F8F73228D821749F0218DA3
:10040000DF01A20FB11D5D969C93818F08958C91A1
:100410000895FC01538D448D252F30E0842F90E00A
:10042000821B930B541710F0CF96089501970895EF
:10043000FC01918D828D981761F0828DDF01A80FEC
:10044000B11D5D968C91928D9F5F9F73928F90E00E
:1004500008958FEF9FEF0895FC01918D828D98177D
:1004600031F0828DE80FF11D858D90E008958FEFBA
:100470009FEF0895FC01918D228D892F90E0805C83
:100480009F4F821B91098F739927089586E294E00C
:100490000E943A0221E0892B09F420E0822F08957E
:1004A00083EC94E00E943A0221E0892B09F420E0D9
:1004B000822F089580E695E00E943A0221E0892B80
:1004C00009F420E0822F0895FC01848DDF01A80F3C
:1004D000B11DA35ABF4F2C91848D90E001968F736C
:1004E0009927848FA689B7892C93A089B1898C918B
:1004F00080648C93938D848D981306C00288F38951
:10050000E02D80818F7D80830895EF92FF920F937D
:100510001F93CF93DF93EC0181E0888F9B8D8C8DAF
:10052000981305C0E889F989808185FD24C0F62EDD
:100530000B8D10E00F5F1F4F0F731127E02E8C8D76
:10054000E8120CC00FB607FCFACFE889F989808160
:1005500085FFF5CFCE010E946402F1CF8B8DFE01A5
:10056000E80FF11DE35AFF4FF0820B8FEA89FB89F8
:100570008081806207C0EE89FF896083E889F989FC
:1005800080818064808381E090E0DF91CF911F9132
:100590000F91FF90EF900895CF93DF93EC01888D3A
:1005A0008823C9F0EA89FB89808185FD05C0A88977
:1005B000B9898C9186FD0FC00FB607FCF5CF8081FD
:1005C00085FFF2CFA889B9898C9185FFEDCFCE0147
:1005D0000E946402E7CFDF91CF910895E0E0F0E060
:1005E000199480E090E0892B21F00E945A02811139
:1005F00019C080E090E0892B41F080E090E0892BE9
:1006000021F00E940000811110C00E94500281114F
:100610000FC080E090E0892B81F00E94460281119A
:100620000AC008950E940000E4CF0E940000EDCFB0
:100630000E94EE02EECF0C9400000895089580E031
:1006400090E008950E9499230F931F93CF93DF9317
:100650008C01EB01FC01808191810097B1F06881F0
:1006600079816115710579F0428153812C813D8139
:100670004217530740F00E94A7238C819D81F80107
:100680009583848313C00E94182288819981F80180
:10069000918380838A819B81938382838C819D81D6
:1006A00095838483198218821B821A821D821C8280
:1006B000DF91CF911F910F9108950F931F93CF93C7
:1006C000DF93EC0188819981009729F02A813B8191
:1006D0002617370788F48B016F5F7F4F0E94B02287
:1006E000009761F0998388831B830A832C813D8165
:1006F000232B11F4FC01108281E001C080E0DF9126
:10070000CF911F910F910895EF92FF920F931F9336
:10071000CF93DF93EC017B018A01BA010E945D0354
:100720002881398181110DC02115310519F0C901C8
:100730000E941822198218821D821C821B821A8232
:1007400006C01D830C83B701C9010E94A723CE01F7
:10075000DF91CF911F910F91FF90EF900895FC01D1
:10076000808191810C941822FC01118210821382E5
:100770001282158214826115710551F0FB010190FE
:100780000020E9F73197AF01461B570B0C94840307
:100790000895BF92CF92DF92EF92FF920F931F9333
:1007A000CF93DF937C016B01EA01890124173507A0
:1007B00020F48D2FE901042F182F6AE173E0C7019F
:1007C0000E94B403D60114968D919C911597C81779
:1007D000D907C8F58017910708F48C01D601ED916F
:1007E000FC911197E00FF11FB08010824D915C9148
:1007F000BA016C0F7D1F6115710561F0FB0101905D
:100800000020E9F73197AF01461B570BC7010E9443
:10081000840313C0F70180819181009711F00E9439
:100820001822D70111961C921E9215961C921E92A8
:10083000149713961C921E921297D601ED91FC917B
:10084000E00FF11FB082C701DF91CF911F910F918F
:10085000FF90EF90DF90CF90BF9008951F920F927E
:100860000FB60F9211240BB60F922F933F934F9315
:100870005F936F937F938F939F93AF93BF93EF9308
:10088000FF938091700390917103A0917203B091D6
:100890007303892B8A2B8B2B59F180916F03E09185
:1008A0006D03F0916E03908189278083809170039E
:1008B00090917103A0917203B091730318161906F9
:1008C0001A061B060CF056C08091700390917103BC
:1008D000A0917203B09173030197A109B1098093AC
:1008E000700390937103A0937203B093730342C09B
:1008F00080910002E6E1F2E0E4919FEF9093000224
:10090000E230C9F050F4EE2399F0E13081F5909196
:100910006F009D7F90936F002AC0E43019F1E0F0E2
:10092000E53029F5909173009D7F909373001FC06F
:1009300010926E001CC0909170009D7F909370008B
:1009400091E09093B0009091B100987F9460909363
:10095000B1001092B3000BC0909171009D7F9093F5
:10096000710005C0909172009D7F9093720060E0CD
:100970000E94300DFF91EF91BF91AF919F918F91A8
:100980007F916F915F914F913F912F910F900BBE8F
:100990000F900FBE0F901F901895DC01ED91FC9108
:1009A000DB0114964D915C9115976D917C910280BD
:1009B000F381E02D19941F920F920FB60F9211241C
:1009C0000BB60F922F933F934F935F936F937F9349
:1009D0008F939F93AF93BF93EF93FF9386E294E03F
:1009E0000E946402FF91EF91BF91AF919F918F910F
:1009F0007F916F915F914F913F912F910F900BBE1F
:100A00000F900FBE0F901F9018951F920F920FB668
:100A10000F9211240BB60F922F933F934F935F9336
:100A20006F937F938F939F93AF93BF93EF93FF93B6
:100A300086E294E00E94F001FF91EF91BF91AF91A7
:100A40009F918F917F916F915F914F913F912F91E6
:100A50000F900BBE0F900FBE0F901F9018951F9216
:100A60000F920FB60F9211240BB60F922F933F9354
:100A70004F935F936F937F938F939F93AF93BF93A6
:100A8000EF93FF9383EC94E00E946402FF91EF9157
:100A9000BF91AF919F918F917F916F915F914F9196
:100AA0003F912F910F900BBE0F900FBE0F901F9094
:100AB00018951F920F920FB60F9211240BB60F923A
:100AC0002F933F934F935F936F937F938F939F9356
:100AD000AF93BF93EF93FF9383EC94E00E94F001F8
:100AE000FF91EF91BF91AF919F918F917F916F9106
:100AF0005F914F913F912F910F900BBE0F900FBEC2
:100B00000F901F9018951F920F920FB60F921124FD
:100B10000BB60F922F933F934F935F936F937F93F7
:100B20008F939F93AF93BF93EF93FF9380E695E0EE
:100B30000E946402FF91EF91BF91AF919F918F91BD
:100B40007F916F915F914F913F912F910F900BBECD
:100B50000F900FBE0F901F9018951F920F920FB617
:100B60000F9211240BB60F922F933F934F935F93E5
:100B70006F937F938F939F93AF93BF93EF93FF9365
:100B800080E695E00E94F001FF91EF91BF91AF9157
:100B90009F918F917F916F915F914F913F912F9195
:100BA0000F900BBE0F900FBE0F901F9018951F92C5
:100BB0000F920FB60F9211240BB60F922F933F9303
:100BC0004F935F936F937F938F939F93AF93BF9355
:100BD000CF93DF93EF93FF932091FE0530E0F9016F
:100BE000E354FD4F8491F901E958FD4FD491F90187
:100BF000EF5CFD4FC491CC23A1F081110E946611DE
:100C0000EC2FF0E0EE0FFF1FE450FE4FA591B491E2
:100C1000EC91ED2331E020E009F430E0832F922FB6
:100C200002C080E090E020910206309103062F5F21
:100C30003F4F30930306209302062091010625368C
:100C400018F026E02093FD052091FD052430D9F110
:100C500028F4223069F02330D9F060C0253009F43F
:100C600053C0263009F05AC021E02093CE0653C06D
:100C7000009709F053C020910206309103062436F4
:100C8000310508F443C01092CE06109201061DC033
:100C90008130910509F042C0E091010621E02E0F5C
:100CA00020930106F0E02091020630910306EE0F3A
:100CB000FF1FE350FA4F30872783109203061092EC
:100CC000020624E029C00097B9F4E091010621E072
:100CD0002E0F20930106F0E02091020630910306CA
:100CE000EE0FFF1FE350FA4F308727831092030661
:100CF0001092020623E010C02091020630910306F4
:100D00002536310558F007C0009741F410920306CC
:100D10001092020603C025E02093FD0520910006F5
:100D20002223B9F0892B51F48091FF05882321F00B
:100D30008091FF0561E009C02F9A0BC08091FF05EB
:100D4000882331F08091FF0560E00E94300D01C0E2
:100D50002F98FF91EF91DF91CF91BF91AF919F912C
:100D60008F917F916F915F914F913F912F910F9054
:100D70000BBE0F900FBE0F901F901895CF92DF9271
:100D8000EF92FF92CF93DF93EC01072E000C880BBC
:100D9000990B0E94961E6B017C0120E030E040E43C
:100DA0005FE30E94F51E20E030E048E452E40E9438
:100DB000D6200E944821C617D707D4F020E030E0A3
:100DC00040EA5FE3C701B6010E94F51E20E030E073
:100DD00048E452E40E94D62020E030E040E85FE39F
:100DE0000E946A200E94482121E06C177D070CF4C4
:100DF00020E0822F90E0DF91CF91FF90EF90DF9085
:100E0000CF9008958F929F92AF92BF92CF92DF9230
:100E1000EF92FF920F931F93CF93DF93EC016A0140
:100E20007B0120E030E04FE753E4C701B6010E94A8
:100E3000F51E4B015C0120E030E0A9010E947E21FB
:100E400018161CF4C501B40103C0C501B4019058C3
:100E50000E9448218B0120E030E0A901C701B601C2
:100E60000E947E21181614F460E001C061E08981BF
:100E70000E94300D0F3F110509F014F4112702C034
:100E80000FEF10E0C88161E08C2F0E94BC110115AA
:100E9000110509F4B1C00F3F110509F4AFC0EC2FE3
:100EA000F0E0E354FD4FE4914E2F50E0FA0131970A
:100EB000E231F10508F09DC08827EE58FF4F8F4FB3
:100EC0000C942A2084B5806884BD07BDA7C084B572
:100ED000806284BD08BDA2C080918000806880933C
:100EE0008000109389000093880098C08091800052
:100EF00080628093800010938B0000938A008EC0E4
:100F00008091800088608093800010938D00009312
:100F10008C0084C08091B00080688093B000009302
:100F2000B3007CC08091B00080628093B0000093D9
:100F3000B40074C0809190008068809390001093FA
:100F40009900009398006AC080919000806280931D
:100F5000900010939B0000939A0060C080919000D5
:100F600088608093900010939D0000939C0056C071
:100F70008091A00080688093A0008091A0008F7B6A
:100F80008093A0001093A9000093A80047C080910F
:100F9000A00080628093A0001093AB000093AA0091
:100FA0003DC08091A00088608093A0001093AD00A8
:100FB0000093AC0033C080912001806880932001B1
:100FC000109329010093280129C08091200180629B
:100FD0008093200110932B0100932A011FC0809160
:100FE000200188608093200110932D0100932C0133
:100FF00015C00038110514F460E001C061E08C2FC9
:10100000DF91CF911F910F91FF90EF90DF90CF90E4
:10101000BF90AF909F908F900C94300DDF91CF9147
:101020001F910F91FF90EF90DF90CF90BF90AF9006
:101030009F908F9008951F93CF93DF93EC01162F0D
:1010400088818C3008F04DC061E0812F0E94BC1176
:10105000E88195E09E9FF0011124E153F94F1F7341
:101060008081807C182B10831382E8819E9FF00181
:101070001124E153F94F148288816CE00E941E20F4
:101080009CE0899FA001112420E030E095E0B901A7
:10109000640F751F969FF001979FF00D1124E15387
:1010A000F94F608166FD13C02F5F3F4F2C30310533
:1010B00071F781110CC01092800082E08093810052
:1010C000109285001092840086BB80936F00E881A7
:1010D00085E0E89FF0011124E153F94F808180649D
:1010E00080838881DF91CF911F9108951F920F9285
:1010F0000FB60F9211240BB60F922F933F934F937D
:101100005F936F937F938F939F93AF93BF93EF936F
:10111000FF9380916C0387FF05C0109285001092A9
:10112000840016C020916C03022E000C330B8091BA
:101130000B0790E0281739075CF430916C0325E029
:101140003203F0011124E153F94F808186FD15C06F
:1011500080916C038F5F80936C0320916C03022E4F
:10116000000C330B80910B0790E02817390794F49B
:1011700080916C038C302CF10DC030916C033203E4
:10118000F0011124E153F94F808160E08F730E94D8
:10119000300DDECF809184009091850084349C498D
:1011A00018F480E49CE905C080918400909185004A
:1011B000049690938900809388008FEF80936C034E
:1011C0002AC0409184005091850030916C0325E045
:1011D0003203F0011124E153F94F81819281840F90
:1011E000951F909389008093880030916C0332039F
:1011F000F0011124E153F94F808186FF0CC030913A
:101200006C033203F0011124E153F94F808161E056
:101210008F730E94300DFF91EF91BF91AF919F911D
:101220008F917F916F915F914F913F912F910F908F
:101230000BBE0F900FBE0F901F9018958EBD000033
:101240000DB407FEFDCF8EB50895FC01248131E079
:101250003093E603209308041092E70310920904E8
:101260008485682B8AE194E00E94470A0C940F0F52
:101270000F931F93CF938C01C62F0E9425096C2FCB
:101280006460C8010E9425096C2F6B7FC8010E9411
:10129000250983EC90E00197F1F7CF911F910F9111
:1012A00008950F931F93CF938C01C62F607F6160C9
:1012B0000E94380980E1C89FB00111246160C80113
:1012C0000E94380981E090E0CF911F910F9108951D
:1012D0000F931F93CF938C01C62F607F0E94380914
:1012E00080E1C89FB0011124C801CF911F910F91D7
:1012F0000C943809CF93DF93CDB7DEB728970FB69C
:10130000F894DEBF0FBECDBF9C0188E0E9E5F2E0B6
:10131000DE01119601900D928A95E1F7F901808521
:10132000841710F44FEF480FFE013196E40FF11DC2
:10133000E40FF11D9081690F6068C90128960FB60E
:10134000F894DEBF0FBECDBFDF91CF910C9468093A
:10135000CF93DF93EC0161E00E9468098BE39FE18A
:101360000197F1F78985882339F040E060E0CE01EC
:10137000DF91CF910C947A09DF91CF91089585ED9B
:101380008093BC008091BC0084FDFCCF1092E503EB
:10139000089540919803262F30E0240F311D21320B
:1013A0003105DCF42091E5032430C9F4FC0180E030
:1013B00090E0861758F4309198032191DC01AA58E7
:1013C000BC4FA30FB11D2C930196F3CF80919803CE
:1013D000680F6093980380E0089581E0089582E0AB
:1013E0000895089581E090E0309175032091740391
:1013F000321710F480E090E091958195910908955D
:101400008091750390917403891730F48F5F8093F6
:10141000750380E090E008958FEF9FEF089580912D
:10142000740390E020917503821B91090895CF9277
:10143000DF92EF92FF920F931F93CF93DF937C0184
:10144000262F972F8A018091E603882391F0C62FDB
:10145000D72F6E01C40ED51ECC15DD0571F0699134
:10146000D701ED91FC910190F081E02DC701199514
:10147000F3CF642F822F0E94C909C801DF91CF9159
:101480001F910F91FF90EF90DF90CF900895CF9331
:10149000DF931F92CDB7DEB769832091E603222345
:1014A000D1F020910904203240F021E030E0FC012D
:1014B0003383228380E090E015C08091E703E82F1A
:1014C000F0E0E851FC4F998190838F5F8093E703B0
:1014D0008093090405C061E0CE0101960E94C9090C
:1014E00081E090E00F90DF91CF91089560916B08BB
:1014F00070E083E798E00E941B086AEA81E00E949E
:10150000B30F64EF71E080E090E00C941712CF937A
:10151000DF93C2E6D8E0698570E083E798E00E9437
:101520001B0865E581E00E94B30F64EF71E080E085
:1015300090E00E941712688570E082E798E00E94B0
:101540001B0860E080E00E94B30F64EF71E080E070
:1015500090E00E941712688570E082E798E00E9490
:101560001B086BE780E00E94B30F64EF71E080E03E
:1015700090E0DF91CF910C94171240917107509138
:101580007207609173077091740770588AE598E04C
:101590000E94020740917107509172076091730792
:1015A000709174078CE598E00E94020764EF71E087
:1015B00080E090E00E9417124091710750917207ED
:1015C000609173077091740770588CE598E00E94E1
:1015D00002070E94B310892BE1F70E94B310029713
:1015E000E1F740E050E0BA018AE598E00E94020786
:1015F00040E050E060E070E88CE598E00C94020771
:101600001F93CF93DF93EC0111E080916407811168
:10161000DEC0409165075091660760916707709141
:1016200068078AE598E00E94020740916907509197
:101630006A0760916B0770916C0770588CE598E0B1
:101640000E9402070E94B3108230910599F4109213
:10165000750780916D0790916E07A0916F07B0910B
:1016600070078093690790936A07A0936B07B09304
:101670006C071DC08430910519F510927507809193
:10168000710790917207A0917307B09174078093CE
:10169000690790936A07A0936B07B0936C078091DA
:1016A0006D0790916E07A0916F07B09170078093BE
:1016B000650790936607A0936707B0936807A5CF67
:1016C00081309105D9F41092750780916D07909142
:1016D0006E07A0916F07B091700780936907909390
:1016E0006A07A0936B07B0936C0780917107909184
:1016F0007207A0917307B0917407D9CF079709F0CB
:1017000084CF80917507811180CF109375078091E8
:1017100076079091770701969093770780937607E5
:101720008C179D0709F071CF81E00E94DE101C1616
:101730001D06D4F5C130D10511F50E94760A0E942C
:10174000BD0A81E00E94DE104DEC5CEC6CEC7DE3A8
:101750008AE598E00E9402074DEC5CEC6CEC7DEBB6
:101760008CE598E00E9402076CE271E080E090E076
:101770000E94171282E090E00E94000B46CFC23018
:10178000D105B9F40E94870A68E873E180E090E02F
:101790000E9417120E94760A0E94870A68E873E185
:1017A00080E090E00E9417120E94760A0E94EB0BE4
:1017B0002CCF0E94870A0E94BD0A80E00E94DE10A2
:1017C0001093640710927707109276071ECFDF916F
:1017D000CF911F9108950E94BD0A81E00E94DE1002
:1017E00083E090E00C94000B1F920F920FB60F92C3
:1017F00011240F900FBE0F901F9018951F920F92FB
:101800000FB60F9211240BB60F922F933F934F9365
:101810005F936F937F938F939F93AF93BF93EF9358
:10182000FF938091B900887F803609F49CC068F5E9
:10183000883209F45BC090F4803109F454C038F464
:10184000882309F4F6C0883009F44DC0F6C0883109
:1018500009F44CC0803209F45DC0EFC0803409F453
:1018600068C048F4803309F455C0883309F0E5C0F6
:101870008093E303D8C0803509F44FC0883509F45C
:101880005DC0883409F0D9C0D6C0883909F4C7C012
:10189000A8F4883709F467C038F4883609F463C0BF
:1018A000803709F460C0C9C0883809F4B8C08039ED
:1018B00009F45FC0803809F0C0C05BC0803B09F408
:1018C00086C038F4803A09F466C0883A09F47FC0CB
:1018D000B4C0803C09F4A7C0883C09F4A4C0883B8C
:1018E00009F48AC0AAC08091C00310C09091E2039D
:1018F0008091E103981770F5E091E20381E08E0F8B
:101900008093E203F0E0EF53FC4F80818093BB00B3
:1019100085EC86C08093E3038EC0E091E20381E012
:101920008E0F8093E2038091BB00F0E0EF53FC4FF9
:1019300080839091E2038091E1036EC0E091E20325
:1019400081E08E0F8093E2038091BB00F0E0EF53C3
:10195000FC4F80838091E40381116DC081E080930E
:10196000BF0384EA61C083E08093E5031092BC0367
:10197000CFCF8091BC03803208F051C0E091BC030E
:1019800081E08E0F8093BC038091BB00F0E0E456B1
:10199000FC4F8083BDCF85EC8093BC001092E503A3
:1019A0008091BC03803230F4E091BC03F0E0E45657
:1019B000FC4F10826091BC0370E0E0919A03F091BB
:1019C0009B038CE993E019951092BC0336C084E028
:1019D0008093E5031092990310929803E091960387
:1019E000F0919703199580919803811105C081E0CA
:1019F0008093980310927603E091990381E08E0F13
:101A000080939903F0E0EA58FC4F80818093BB00FB
:101A10009091990380919803981708F479CF85E8FD
:101A20008093BC000AC085EC8093BC001092E50353
:101A300004C01092E3030E94BF09FF91EF91BF9190
:101A4000AF919F918F917F916F915F914F913F9156
:101A50002F910F900BBE0F900FBE0F901F901895F7
:101A60001F93CF93DF93282F30E0F901E354FD4F0C
:101A70008491F901E958FD4FD491F901EF5CFD4FD4
:101A8000C491CC23C9F0162F81110E946611EC2F4E
:101A9000F0E0EE0FFF1FE95EFD4FA591B4918FB707
:101AA000F894111105C09C91ED2FE095E92302C037
:101AB000EC91ED2BEC938FBFDF91CF911F910895A7
:101AC0001092E50381E08093E4031092BF0361E08C
:101AD00084E10E94300D61E085E10E94300DE9EB68
:101AE000F0E080818E7F808380818D7F808388E499
:101AF0008093B80085E48093BC000895009769F056
:101B0000FC0101900020E9F73197AF01481B590B08
:101B1000BC0180E695E00C94C50180E090E008955A
:101B2000BF92CF92DF92EF92FF920F931F93CF93CA
:101B3000DF93CDB7DEB72C970FB6F894DEBF0FBE9C
:101B4000CDBF8C01FC01C4806AE173E0CE01079631
:101B50000E94B403D12C84E1E82EF12C94E1B92E3B
:101B60008091820790E02C2D30E0B701681B790B43
:101B70004D2D50E062177307ACF59A012C5E3F4F74
:101B8000281B390BB801CE0101960E94C903BE0182
:101B90006F5F7F4FCE0107960E942403CE0101960E
:101BA0000E94AF03BE01695F7F4F80917F079091D4
:101BB00080070E94CD04809182079B2D981BD90E2F
:101BC000409181074F5F4370409381078451C80E55
:101BD00060E080917F07909180070E947A091092BF
:101BE0008207BECFF80124813581B801CE0101966C
:101BF0000E94C903BE016F5F7F4FCE0107960E940E
:101C00002403CE0101960E94AF03BE01695F7F4F9E
:101C100080917F07909180070E94CD0420918207D8
:101C20008B859C85820F911D809382076AE173E00A
:101C3000CE0101960E94B403F0908207F3E1FF15F4
:101C4000C8F00D811E810F5F1F4FB801CE010196B4
:101C50000E945D03882361F029813A818D819E81F4
:101C600066E173E0820F931F0E94A7231E830D83FA
:101C7000F394E4CFBE016F5F7F4F80917F07909117
:101C800080070E94CD044091810760918207809176
:101C90007F07909180070E947A09CE0101960E94E9
:101CA000AF03CE0107960E94AF032C960FB6F894AF
:101CB000DEBF0FBECDBFDF91CF911F910F91FF907F
:101CC000EF90DF90CF90BF9008958F929F92AF9248
:101CD000BF92CF92DF92EF92FF920F931F93CF9319
:101CE000DF93FC01C081D18120911604309117044B
:101CF000C217D3070CF04BC09E01220F331FE09197
:101D00001404F0911504E20FF31F80809180C170DC
:101D1000DD27F1E0CF27209719F404E610E002C098
:101D20000CE91FEF7A015B016C01040F151FB8016C
:101D3000C4010E94BE06892B99F40E0D1F1DB80127
:101D4000C4010E94BE06892B71F4B8016E0D7F1D7F
:101D5000C4010E94BE06892BE9F023E030E005C0F3
:101D600021E030E002C022E030E0F5018081918185
:101D70000196821793073CF0F50111821082F6015B
:101D800080819181019691838083CE0105C081E09D
:101D900090E002C08FEF9FEFDF91CF911F910F91E5
:101DA000FF90EF90DF90CF90BF90AF909F908F907B
:101DB0000895E0E6F5E0A089B18982E08C93A485DE
:101DC000B5851C92A685B7858FEC8C93108EA4895F
:101DD000B58986E08C93A289B3898C9180618C93BC
:101DE000A289B3898C9188608C93A289B3898C91E4
:101DF00080688C930288F389E02D80818F7D8083B9
:101E00000895CF93DF930E947E0DEC0188E193E06B
:101E10000E947E0D8C0F9D1FDF91CF910895209120
:101E2000090490910804213208F04AC08091E5032A
:101E30008111FCCF32E03093E50331E03093E403CD
:101E40003FEF3093E3031092E2032093E103A8EE07
:101E5000B3E041EC53E0FA013E2F341B321718F483
:101E60003D913193F9CF1092C0032091C003990F97
:101E7000922B9093C0039091BF03913061F4109224
:101E8000BF039091C0039093BB009091BC0093FD61
:101E9000F8CF95EC01C095EE9093BC009091E503CE
:101EA0009230E1F39091E3039F3F79F08091E30357
:101EB000803241F08091E303803331F084E005C04B
:101EC00081E003C082E001C083E01092E70310923A
:101ED00009041092E6030895EF92FF921F93CF93A7
:101EE000DF931F92CDB7DEB7162F91E4E92E98E06D
:101EF000F92ED7011C969C911C9721E02093E603B4
:101F0000909308041092E703109209041A960D901A
:101F1000BC91A02DED91FC9111970190F081E02DE5
:101F2000682FCD0179831995F70182859385DC01AE
:101F3000ED91FC910190F081E02D7981672F199549
:101F4000F70182859385DC01ED91FC910190F08190
:101F5000E02D612F19950F90DF91CF911F91FF9088
:101F6000EF900C940F0FCF92DF92EF92FF92CF93EE
:101F7000DF93823018F08BE193E00AC090916C08F7
:101F8000691720F090916D08961750F48DE293E058
:101F9000DF91CF91FF90EF90DF90CF900C94010FE5
:101FA000E82FF0E0EE59F74FC089CC3008F072C04E
:101FB000262F30E0D0E085E08C9FF0018D9FF00D62
:101FC0001124E153F94F8381283C31059CF528E821
:101FD00030E06901C81AD10887FDD394CC0CDD1C10
:101FE000CC0CDD1C0D2C000CEE08FF08848128E5CC
:101FF00032E0281B310987FD3395220F331F220F52
:10200000331FC901330FAA0BBB0B9C01AD012C1967
:102010003D094E095F09A62FB0E00E94D21F24EBB4
:1020200030E040E050E00E94B31FC20ED31EE41E19
:10203000F51E1EC048E850E06A01C81AD10887FDA5
:10204000D394CC0CDD1CCC0CDD1C2C153D0584F090
:10205000448188E592E0841B910947FD9395880FA0
:10206000991F880F991F69018C159D050CF46C014F
:102070008FB7F89495E09C9FF0019D9FF00D11247F
:10208000E153F94F96E0C91AD108CC0CDD1CD2827D
:10209000C1828FBFDF91CF91FF90EF90DF90CF9003
:1020A00008950C947E0DCF93DF93CDB7DEB72C97B8
:1020B0000FB6F894DEBF0FBECDBF80917F07909121
:1020C00080070E94A809109282071092810740E0C1
:1020D00060E080917F07909180070E947A0980914B
:1020E00001029091020224E1289FB001299F700D06
:1020F00011246D5F7D4FCE0107960E94B4031A82B2
:1021000019821C821B821E821D826F817885611557
:10211000710531F04B855C85CE0101960E948403E8
:10212000CE0101960E94900DCE0101960E94AF0350
:10213000CE0107960E94AF03209101023091020266
:1021400044E1429FC001439F900D11248D5F9D4F3C
:102150000E9451102C960FB6F894DEBF0FBECDBF73
:10216000DF91CF910895CF93DF9382E40E94F8111D
:1021700031E020E0409110075091110748175907AE
:102180000CF430E0C32FD22F81E40E94F81120918B
:102190000E0730910F07281739070CF022968FE3AE
:1021A0000E94F81120910C0730910D07281739076C
:1021B0000CF02496CE01DF91CF9108950F931F93D9
:1021C000CF93DF93C82F83EE92E00E9451108AE4F0
:1021D00093E00E9451106091710770917207809195
:1021E000730790917407CC2331F00E944821EB01D2
:1021F00000E010E005C00E9448218B01C0E0D0E063
:102200004091710750917207609173077091740744
:102210008AE598E00E940207409171075091720789
:10222000609173077091740770588CE598E00E9474
:1022300002076EE571E080E090E00E941712B8019D
:10224000110F880B990B0E94961EAB01BC018AE509
:1022500098E00E940207BE01DD0F880B990B0E94D7
:10226000961EAB01BC0170588CE598E00E940207F5
:102270000E94B3100797E1F7DF91CF911F910F9163
:1022800008953FB7F89480917D0890917E08A091C1
:102290007F08B091800826B5A89B05C02F3F19F094
:1022A0000196A11DB11D3FBFBA2FA92F982F8827D6
:1022B000820F911DA11DB11DBC01CD0142E0660F31
:1022C000771F881F991F4A95D1F7089590E0FC0168
:1022D0003197E231F10508F04EC08827EC57FF4FE7
:1022E0008F4F0C942A20809180008F7703C08091BB
:1022F00080008F7D80938000089580918000877F8B
:10230000F9CF84B58F7702C084B58F7D84BD0895E1
:102310008091B0008F7703C08091B0008F7D809353
:10232000B0000895809190008F7707C08091900051
:102330008F7D03C080919000877F809390000895E7
:102340008091A0008F7707C08091A0008F7D03C08F
:102350008091A000877F8093A00008958091200144
:102360008F7707C0809120018F7D03C0809120016D
:10237000877F809320010895CF93DF9390E0FC0145
:10238000E958FD4F2491FC01EF5CFD4F84918823B7
:1023900061F190E0880F991FFC01ED5FFC4FC59142
:1023A000D491FC01E95EFD4FA591B491611109C082
:1023B0009FB7F8948881209582238883EC912E23FF
:1023C0000BC0623061F49FB7F8943881822F8095FA
:1023D00083238883EC912E2B2C939FBF06C08FB74D
:1023E000F894E8812E2B28838FBFDF91CF91089539
:1023F000863308F0865390917B00282F2870977FB2
:10240000922B90937B008770806480937C008091F6
:102410007A00806480937A0080917A0086FDFCCFF8
:10242000809178002091790090E0922B08958F920E
:102430009F92AF92BF92CF92DF92EF92FF926B0189
:102440007C010E9441114B015C01C114D104E104E3
:10245000F104F1F00E944111DC01CB0188199909C6
:10246000AA09BB09883E9340A105B10570F321E09C
:10247000C21AD108E108F10888EE880E83E0981EA0
:10248000A11CB11CC114D104E104F10419F7DDCF82
:10249000FF90EF90DF90CF90BF90AF909F908F9084
:1024A00008951F920F920FB60F9211242F933F930E
:1024B0008F939F93AF93BF938091790890917A08FF
:1024C000A0917B08B0917C083091780823E0230F1D
:1024D0002D3720F40196A11DB11D05C026E8230F5C
:1024E0000296A11DB11D20937808809379089093DE
:1024F0007A08A0937B08B0937C0880917D08909126
:102500007E08A0917F08B09180080196A11DB11DA1
:1025100080937D0890937E08A0937F08B0938008F5
:10252000BF91AF919F918F913F912F910F900FBECF
:102530000F901F901895CF93DF93CDB7DEB72C97F0
:102540000FB6F894DEBF0FBECDBF789484B582601D
:1025500084BD84B5816084BD85B5826085BD85B547
:10256000816085BD80916E00816080936E001092C5
:102570008100809181008260809381008091810040
:1025800081608093810080918000816080938000D1
:102590008091B10084608093B1008091B00081602F
:1025A0008093B0008091910082608093910080912F
:1025B0009100816080939100809190008160809370
:1025C00090008091A10082608093A1008091A10081
:1025D00081608093A1008091A00081608093A00021
:1025E000809121018260809321018091210181608D
:1025F000809321018091200181608093200180914E
:102600007A00846080937A0080917A00826080935F
:102610007A0080917A00816080937A0080917A00BC
:10262000806880937A001092C1000E94D90E0E94A7
:10263000D90E61E0809142080E94BC1160E0809157
:1026400042080E94300D60E0809141080E94BC1158
:102650008AE194E090934C0880934B0810927503A4
:10266000109274031092E703109209040E94600D07
:1026700080E090E1A0E0B0E080934E0890934F0896
:10268000A0935008B09351088AE090E0A0E0B0E039
:102690008093520890935308A0935408B093550820
:1026A00080E090E0A0E0B0E4809356089093570853
:1026B000A0935808B093590860E070E185E00E944B
:1026C0006C0F6FE979E380E00E946C0F0EE518E073
:1026D000A12CB12CC12CD12C86E6282E82E0382EDC
:1026E0009BEC892E97E0992E2BE8622E7724739429
:1026F00096012F5B374F2901D90114969C911497AD
:1027000012968C91F501EF5BF74F7F01818F928FCD
:1027100061E00E94BC1161E0D7015A968C910E9441
:10272000BC11F20190858681D8018C93F701968FB8
:1027300061E00E94BC1160E0D7015E968C910E941E
:10274000BC1161E0F80180810E94300DFFB6F89461
:1027500080915203811126C0F1019491ECEAF2E0DC
:102760008491E92FF0E0EE0FFF1FED5FFC4FA59184
:10277000B4919C91892321F461E085E30E94300D9E
:1027800061E085E30E94BC118CB580618CBD8CB585
:1027900080648CBD61E084E30E94BC1161E083E34E
:1027A0000E94BC11809152038F5F80935203FFBE41
:1027B000C4010197F1F760E0D8018C910E94300DBF
:1027C00088E80E941E0983E00E941E0961E0F8016A
:1027D00080810E94300DC4010197F1F760E0D801BB
:1027E0008C910E94300D88E90E941E0980E00E94B1
:1027F0001E0980E00E941E0980E00E941E0980E000
:102800000E941E0961E0F80180810E94300DC30121
:102810000197F1F760E0D8018C910E94300D80EEB5
:102820000E941E0961E0F80180810E94300DF2E0F3
:10283000AF0EB11C0E5F1F4FCA94CD2821F0CC24DF
:10284000C394D12C55CF06E618E074E0F72EF00EB5
:1028500060E0D8018D918D010E94BC11F012F8CF7B
:1028600055E7E52E58E0F52E00E718E062E0D62E99
:10287000D00EF8013697608170E0C80102960E9480
:102880001B08F80191918F0133978081F7013197EF
:102890008083D7019C9360E00E94BC1161E0F70146
:1028A00080810E94BC1160E0D7018C910E94300DA4
:1028B000B2E0EB0EF11CD012DCCFF89410922001A4
:1028C00089E08093210180E293E090932901809335
:1028D0002801109225011092240182E08093730058
:1028E00078948093FD05109201068091FE0560E0CA
:1028F0000E94BC1100917F07109180071092750310
:10290000109274031092E703109209040E94600D64
:10291000F80115828385823010F098E09583D80104
:1029200018968C9362E370E080E090E00E941712AA
:10293000F8016485C8010E94250968EE73E080E013
:1029400090E00E94171260E3C8010E9438094BE42E
:10295000E42E46E4F42EC7010197F1F760E3C801C5
:102960000E943809C7010197F1F760E3C8010E948E
:10297000380983E592E00197F1F760E2C8010E940F
:102980003809D80115966C916062C8010E946809E7
:1029900084E0F80186836CE0C8010E946809C801E0
:1029A0000E94A80982E0D80117968C9366E0C801BE
:1029B0000E94680962E0C8010E9468098BE39FE1F8
:1029C0000197F1F780917F079091800728E0FC0143
:1029D000248760E00E94250940E060E080917F0745
:1029E000909180070E947A0980917F0790918007DB
:1029F000DC0116966C911697262F216016962C9363
:102A000069600E9468090E94531060916B0870E031
:102A100083E798E00E941B0865E581E00E94B30F00
:102A200060916A0870E082E798E00E941B086BE7FB
:102A300080E00E94B30F60E177E280E090E00E94C6
:102A4000171283EE92E00E94511086EE92E00E94EF
:102A5000511060E177E280E090E00E9417128FE36E
:102A60000E94F8114C0181E40E94F8115C0182E49B
:102A70000E94F8117C0183EE92E00E94511086EFD3
:102A800092E00E94511060E177E280E090E00E94C5
:102A900017128FE30E94F8116C0181E40E94F81173
:102AA0008C0182E40E94F811B4016C0D7D1D77FF4A
:102AB00002C06F5F7F4F7595679570930D076093A8
:102AC0000C07A501400F511F57FF02C04F5F5F4F1A
:102AD0005595479550930F0740930E078E0D9F1DF8
:102AE00097FD019695958795909311078093100710
:102AF00083EE92E00E94511085E093E00E94511015
:102B000068E873E180E090E00E94171203E0202E55
:102B1000312C44244A94542C3201E4E0F6E0F09342
:102B20001504E09314048091010690E0909317043B
:102B3000809316048091CE0690E0909319048093C0
:102B400018048091FD05853009F02AC4809106069D
:102B500090910706885891098D35910588F48091E8
:102B60000106843041F4809108069091090680970F
:102B7000479708F40CC280910106843408F0EEC136
:102B8000809101068A3108F44FC08091040690912B
:102B90000506843F914068F41092130410921204C9
:102BA00040920E0450920F0460921004709211042F
:102BB00059C0809106069091070685974B97A0F51E
:102BC000EAE0F6E082E090E0C12CD12C7601AC0185
:102BD0004F5F5F4F2091010630E0421753075CF4CE
:102BE000DF0112972D913C91275031092730310593
:102BF00008F411C2CA010197959587959093130423
:102C0000809312040C972CF4109213041092120467
:102C10000BC0C0920E04D0920F04E0921004F09208
:102C2000110484E090E095C1809101068A3108F496
:102C30004CC080910406909105068032934008F4C0
:102C4000ABCF8091060690910706C697869708F449
:102C5000FFC13BC0C0920E04D0920F04E09210045A
:102C6000F09211048BE090E074C1208131812552F3
:102C700031092B31310508F0FBC1CC0CDD1CEE1CF9
:102C8000FF1C6894C0F802963496AC014F5F5F4F0A
:102C90002091010630E04217530754F4DF011297E8
:102CA0002D913C912C5031092B303105F0F2CA01A5
:102CB00001979595879590931304809312040C9730
:102CC0004CF6109213041092120480910106823285
:102CD00008F44DC080910606909107060697079765
:102CE00008F045C0EAE0F6E082E090E0C12CD12C8B
:102CF00076019C012F5F3F4F4091010650E0241761
:102D00003507E4F4DF0112974D915C9111974E5114
:102D100051094731510508F0B8C1CC0CDD1CEE1C3F
:102D2000FF1C6894C0F8408151813496435051098A
:102D30004530510510F40296DCCFC90101979595F5
:102D40008795909313048093120440972CF410926B
:102D50001304109212040BC0C0920E04D0920F0400
:102D6000E0921004F09211048CE090E0F2C01C821A
:102D70001B82E1E0F0E0FA83E983809101068D3067
:102D800008F46BC049E753E0BE016D5F7F4FCE0191
:102D900001960E94650E892B09F05FC049E753E058
:102DA000BE016D5F7F4FCE0101960E94650E0197B7
:102DB00009F053C049E753E0BE016D5F7F4FCE017C
:102DC00001960E94650E892B09F047C0812C912C39
:102DD000540100E010E08091010690E029813A81E1
:102DE000281739075CF549E753E0BE016D5F7F4F57
:102DF000CE0101960E94650E7C0149E753E0BE01B9
:102E00006D5F7F4FCE0101960E94650EF1E0EF16D7
:102E1000F10449F4892B09F5880C991CAA1CBB1CE8
:102E2000689480F808C0EF28C1F40197B1F4880CC9
:102E3000991CAA1CBB1C0F5F1F4FCDCF109313040E
:102E40000093120480920E0490920F04A09210043A
:102E5000B092110421E030E023C21C821B8281E089
:102E600090E09A8389838091160490911704181634
:102E700019060CF055C0E0911404F091150482E09D
:102E800090E09A8389838281938189974E9708F095
:102E900047C03A822982848195810B970A9708F06E
:102EA0003FC04CEB51E0BE016D5F7F4FCE010196FC
:102EB0000E94650E892BA1F54CEB51E0BE016D5FC0
:102EC0007F4FCE0101960E94650E019749F5812C36
:102ED000912C540100E010E029813A818091160480
:102EE000909117042817390734F54CEB51E0BE01D7
:102EF0006D5F7F4FCE0101960E94650E6C0103301D
:102F0000110509F0CFC04CEB51E0BE016D5F7F4F62
:102F1000CE0101960E94650EC816D90609F4C2C0FA
:102F2000E0911404F091150482819381C6978697ED
:102F300008F4EEC043C1109313040093120480926E
:102F40000E0490920F04A0921004B092110482E03B
:102F500090E090930B0480930A04BFC1809108060F
:102F600090910906825491098E9708F009CE80E06D
:102F700090E040E050E0BA01FC01E65FF94F2081AB
:102F800031812950310929303105B0F0F9CD8091D6
:102F90000A0690910B060997099708F0ECCD10925C
:102FA00013041092120440920E0450920F04609287
:102FB000100470921104FDC1FC01E45FF94F2081FF
:102FC00031812751310922313105C0F4440F551F99
:102FD000661F771F416004968038910569F620E2EC
:102FE00030E0309313042093120440930E04509366
:102FF0000F046093100470931104DBC120813181B0
:10300000265031092730310508F0BACD440F551F3D
:10301000661F771FE0CF20813181235131092F3086
:10302000310548F4CC0CDD1CEE1CFF1C6894C0F884
:1030300002963496CCCD208131812A503109293035
:10304000310508F0F1CDCC0CDD1CEE1CFF1CF0CFDF
:103050008091080690910906C697869708F035CEAC
:10306000ECE0F6E083E090E0C12CD12C76010DCEAF
:10307000208131812C5031092A30310508F025CECC
:10308000CC0CDD1CEE1CFF1CFECD4D915C914C5018
:1030900051094B30510508F06ACECC0CDD1CEE1CFA
:1030A000FF1C41CE4CEB51E0BE016D5F7F4FCE0166
:1030B00001960E94650E7C010330110569F44CEB0A
:1030C00051E0BE016D5F7F4FCE0101960E94650EFB
:1030D000E816F90609F024CFC114D10459F4EA9492
:1030E000EF2809F01DCF880C991CAA1CBB1C689402
:1030F00080F80BC0CA94CD2809F012CFEF2809F050
:103100000FCF880C991CAA1CBB1C0F5F1F4FE4CE6D
:10311000848195814B97459708F050C0DF01169642
:103120007F0126ECE20EF11C20E030E040E050E0B0
:1031300060E070E080E090E00D911C9111970950E3
:10314000110908301105D0F512960D911C911397B5
:10315000015111090D30110560F112960D911C916C
:103160001397045011090530110540F501E00E9444
:1031700032201496AE15BF05F9F620930E04309355
:103180000F04409310045093110400E20E944D205C
:1031900020930C0430930D0485E090E090930B0491
:1031A00080930A0480E390E09093130480931204C8
:1031B00094C001E00E9432202160DBCF80910106A3
:1031C000893340F082819381895791098335910534
:1031D00008F40BC280910106823209F4EFC08281AB
:1031E0009381895791098335910508F479C28281C9
:1031F00093818C549109C59708F0E7C0809101062E
:10320000843031F4848195818097479708F44DC0CC
:1032100080910106843408F4D8C084819581895452
:103220009109C39708F0D1C09F012A5F3F4FBF01AA
:103230006A577F4FC12CD12C7601D9014D915C91F9
:10324000495051094930510508F0BFC0D9011296C3
:103250004D915C911397465151094131510508F048
:10326000A4C2D701C601880F991FAA1FBB1F6C01FA
:103270007D016894C0F82C5F3F4F26173707E9F6A9
:10328000E0E2F0E0F0931304E0931204C0920E0425
:10329000D0920F04E0921004F092110427E030E085
:1032A00030930B0420930A0418C0868197810997F4
:1032B000099708F0ADCF10921304109212044092B7
:1032C0000E0450920F046092100470921104E7E013
:1032D000F0E0F0930B04E0930A0482E08093FD0594
:1032E0001092010680910E0490910F04A091100499
:1032F000B0911104863CEFEC9E07E4E0AE07E6E6F1
:10330000BE07F1F08A3FEFEC9E07E4E0AE07E6E689
:10331000BE0729F1863DFFEC9F07F4E0AF07F6E614
:10332000BF0741F1863E2FEC920724E0A20726E674
:10333000B20701F1863F9F4CA440B64669F01AC01F
:10334000809101029091020201968430910561F50D
:1033500010920202109201020E9453100BC0809141
:103360000102909102020197F8F430920202209239
:103370000102F2CF1092640781E090E00E94000BFE
:103380001092640769E170E080E090E00E941712FB
:103390000E94F102C2CB82E08093FD0510920106EB
:1033A00080E090E0DC01C6CF90930202809301029E
:1033B000D3CF30920B0420920A048FCF8281938165
:1033C0000A97099708F470C10ACF809101068634E4
:1033D00060F1828193810C970B9708F4F5C125C0A9
:1033E000D90112966D917C9113976E5171096731D5
:1033F000710508F021C2D701C601880F991FAA1FC5
:10340000BB1F6C017D016894C0F84E5F5F4F2C5F5D
:103410003F4F4534510509F4F2C1D9016D917C91BA
:103420006C5071096B307105D8F2809101068835B6
:1034300080F182819381855891098B35910508F43B
:103440000BC227C0BC016F5F7F4FD8014D915C91CB
:103450001197475051094730510508F00CC2220F0F
:10346000331F216002960C5F1F4F4091010650E010
:1034700044505109841795070CF005C2A801425029
:103480005109DA014D915C9149505109483051057B
:10349000C8F2809101068032E1F48281938106971F
:1034A0000697B8F4848195810997099790F49F0154
:1034B0002A5F3F4FBF01625C7F4FC12CD12C760148
:1034C000D9014D915C91465051094630510508F49F
:1034D000F6C1209116043091170438872F832630C7
:1034E00031050CF458CF8F010A5F1F4F83E090E045
:1034F0009E838D8395ECC92E9DE9D92E9CE1E92E02
:1035000091E8F92ED8016D917C91F8013497A08053
:10351000B18080E090E00E94941E69877A878B8753
:103520009C87B50180E090E00E94941E4B015C01F5
:103530002DEC3CEC4CE45FE30E94F51E9B01AC01DA
:1035400069857A858B859C850E948F1E87FD19C0B1
:103550002DEC3CEC4CE45FE369857A858B859C859A
:103560000E94F51E9B01AC01C501B4010E948F1E93
:10357000E82F880FFF0BEE27FF0FEE1FFF27319676
:1035800002C0E0E0F0E0A701960163E971E080E0AD
:1035900091E00E940E206F01FF0FEE08FF08C62683
:1035A000D726E826F926ED81FE813196FE83ED834C
:1035B0000E5F1F4F2F813885E217F30709F0A2CF66
:1035C000C0920E04D0920F04E0921004F092110405
:1035D00080E290E09093130480931204AFEFBFEF6A
:1035E000B0930B04A0930A0478CE84819581CA9786
:1035F000899708F0EFCD9F012A5F3F4FC12CD12C56
:10360000760143E050E0D9016D917C916A507109D7
:103610006930710508F0DECDD90112966D917C916B
:103620001397665171096131710570F5D701C601B3
:10363000880F991FAA1FBB1F6C017D016894C0F8F9
:103640004E5F5F4F2C5F3F4F4B335105E1F69F01BB
:103650002A583F4FD9012D913C912A5031092930E8
:10366000310508F0B7CD2CE130E0309313042093FE
:103670001204C0920E04D0920F04E0921004F09253
:1036800011048AE090E065CCD90112966D917C918D
:103690001397665071096730710508F09BCDCC0C0B
:1036A000DD1CEE1CFF1CCCCF20910106CF01820F48
:1036B000911D820F911DDC0112978D919C910A97AB
:1036C000099708F08CCD10921304109212044092C6
:1036D0000E0450920F04609210047092110462C0A4
:1036E00080910106813208F482CD84819581CA9748
:1036F000899708F07CCD9F012A5F3F4FC12CD12CC8
:10370000760143E050E0D9016D917C916A507109D6
:103710006930710508F06BCDD90112966D917C91DD
:103720001397665171096131710560F5D701C601C2
:10373000880F991FAA1FBB1F6C017D016894C0F8F8
:103740004E5F5F4F2C5F3F4F43325105E1F69F01C3
:103750002A5B3F4FD9012D913C912A5031092930E4
:10376000310508F044CDE0E1F0E0F0931304E0937C
:103770001204C0920E04D0920F04E0921004F09252
:10378000110410C0D90112966D917C911397665067
:1037900071096730710508F02ACDCC0CDD1CEE1CD8
:1037A000FF1CCECF26E030E07BCD12964D915C9190
:1037B0001397465051094730510508F006CECC0CFE
:1037C000DD1CEE1CFF1C57CD84819581099709975C
:1037D00008F02BCE868197818C974F9708F025CEE5
:1037E0008085918589974D9708F01FCE9F01265FB0
:1037F0003F4FC12CD12C760145E050E00ECE9F0109
:1038000026573F4FD9012D913C912C5031092B3037
:10381000310508F00ACEE0E2F0E0F0931304E09303
:103820001204C0920E04D0920F04E0921004F092A1
:10383000110488E090E08DCBD90112966D917C91B6
:103840001397695071096930710508F0EECDCC0C01
:10385000DD1CEE1CFF1CD9CD848195818254910919
:103860008E9708F016CE8F01045C1F4F8DE190E01B
:1038700020E030E0FACD4D915C9148515109423140
:103880005105D0F0CB01019795958795909313043E
:10389000809312048A970CF4FCCDC901330FAA0B54
:1038A000BB0B80930E0490930F04A0931004B0936D
:1038B000110489E090E04DCB220F331FD3CDD90105
:1038C00012964D915C91139749515109433151051D
:1038D00008F5D701C601880F991FAA1FBB1F6C01ED
:1038E0007D016894C0F82C5F3F4F2617370709F019
:1038F000E7CD2EE030E03093130420931204C09201
:103900000E04D0920F04E0921004F09211048FE0A4
:1039100090E01FCBD90112964D915C9113974950BD
:1039200051094930510508F0D4CDCC0CDD1CEE1CFA
:10393000FF1CD9CF88E797E00C94AF0310921D04C9
:1039400010921C0488EE93E0A0E0B0E080931E0487
:1039500090931F04A0932004B093210427EB32E03E
:1039600030931B0420931A04109229041092280407
:1039700080932A0490932B04A0932C04B0932D04DD
:1039800029EC32E0309327042093260445E351E0EC
:10399000509333044093320444E351E05093350490
:1039A0004093340440E351E050933704409336048D
:1039B00041E351E0509339044093380442E351E02D
:1039C00050933B0440933A0446E351E050933D0446
:1039D00040933C0410923F04109240041092410422
:1039E000109242041092C6041092C5048093C7043A
:1039F0009093C804A093C904B093CA043093C4043C
:103A00002093C30445ED50E05093D0044093CF047D
:103A100044ED50E05093D2044093D10440ED50E087
:103A20005093D4044093D30441ED50E05093D60416
:103A30004093D50442ED50E05093D8044093D7040E
:103A400046ED50E05093DA044093D9041092DC0420
:103A50001092DD041092DE041092DF0410926305D0
:103A6000109262058093640590936505A0936605A6
:103A7000B0936705309361052093600585EC90E075
:103A800090936D0580936C0584EC90E090936F05A6
:103A900080936E0580EC90E09093710580937005A3
:103AA00081EC90E0909373058093720582EC90E036
:103AB000909375058093740586EC90E0909377055C
:103AC000809376051092790510927A0510927B0505
:103AD00010927C0586E38093620887E380936308F5
:103AE00088E38093640889E3809365088BE1809381
:103AF00066088DE1809367088AE1809368088CE10D
:103B00008093690884E080936A0887E080936B085B
:103B100010926C0884EB80936D0886E180936E08A8
:103B200088E180936F0887E18093700889E1809332
:103B30007108E0910B07EC3020F08FEF8093720852
:103B400010C081E08E0F80930B07E093720825E090
:103B5000E29FF0011124E153F94F88EB9BE092833F
:103B60008183E0910B07EC3020F08FEF8093730896
:103B700010C081E08E0F80930B07E093730885E0FF
:103B8000E89FF0011124E153F94F88EB9BE0928309
:103B900081838CE08093410884E28093420886E030
:103BA0008093430885E0809344088FE18093450823
:103BB0008EE18093460883E28093470882E28093F7
:103BC000480885E48093490884E480934A0880E4A7
:103BD00080934D0810925208109253081092540886
:103BE00010925508109256081092570810925808D3
:103BF00010925908E3E8F7E08FEF9FEFDC011282A3
:103C0000138214821582168217821086118683878A
:103C10009487A587B6878787908BA18BB28B1286F6
:103C200011821082739628E0E134F20741F78DE0AB
:103C300090E00E948321FC01138212828BED92E0BE
:103C400091838083118687E2848384E1828784E084
:103C500083871486F0938007E0937F071092810793
:103C60001092820785E28093FE05109200066AE1B9
:103C700073E088E797E00E94B40388EC90E09093AB
:103C80000D0780930C0790930F0780930E0782E82F
:103C900090E0909311078093100782E5E1E6F2E04F
:103CA000A2E1B7E001900D928A95E1F710926407C6
:103CB0008091710790917207A0917307B09174077A
:103CC0008093650790936607A0936707B093680792
:103CD0008093690790936A07A0936B07B0936C0772
:103CE00088EB9EE1A5E0BEE380936D0790936E079D
:103CF000A0936F07B09370078DEC9CECACECBDE328
:103D00008093710790937207A0937307B093740721
:103D100010927507109277071092760708950E9407
:103D2000D11E08F481E00895E89409C097FB3EF4A1
:103D300090958095709561957F4F8F4F9F4F9923F8
:103D4000A9F0F92F96E9BB279395F6958795779576
:103D50006795B795F111F8CFFAF4BB0F11F460FF36
:103D60001BC06F5F7F4F8F4F9F4F16C0882311F08E
:103D700096E911C0772321F09EE8872F762F05C0A2
:103D8000662371F096E8862F70E060E02AF09A953D
:103D9000660F771F881FDAF7880F9695879597F932
:103DA0000895990F0008550FAA0BE0E8FEEF1616CC
:103DB0001706E807F907C0F012161306E407F5071F
:103DC00098F0621B730B840B950B39F40A2661F093
:103DD000232B242B252B21F408950A2609F4A14036
:103DE000A6958FEF811D811D08950E94081F0C94D8
:103DF000791F0E946B1F38F00E94721F20F09523DC
:103E000011F00C94621F0C94681F11240C94AD1FC8
:103E10000E948A1F70F3959FC1F3950F50E0551FC4
:103E2000629FF001729FBB27F00DB11D639FAA270F
:103E3000F00DB11DAA1F649F6627B00DA11D661F5E
:103E4000829F2227B00DA11D621F739FB00DA11D7F
:103E5000621F839FA00D611D221F749F3327A00D39
:103E6000611D231F849F600D211D822F762F6A2FD5
:103E700011249F5750409AF0F1F088234AF0EE0F3A
:103E8000FF1FBB1F661F771F881F91505040A9F767
:103E90009E3F510580F00C94621F0C94AD1F5F3F54
:103EA000E4F3983ED4F3869577956795B795F795A3
:103EB000E7959F5FC1F7FE2B880F911D969587951B
:103EC00097F9089597F99F6780E870E060E008959A
:103ED0009FEF80EC089500240A9416161706180622
:103EE0000906089500240A941216130614060506FE
:103EF0000895092E0394000C11F4882352F0BB0F8F
:103F000040F4BF2B11F460FF04C06F5F7F4F8F4FF1
:103F10009F4F089557FD9058440F551F59F05F3F2C
:103F200071F04795880F97FB991F61F09F3F79F0DB
:103F300087950895121613061406551FF2CF46955D
:103F4000F1DF08C0161617061806991FF1CF8695DF
:103F50007105610508940895E894BB2766277727C3
:103F6000CB0197F90895052E97FB1EF400940E944B
:103F7000CA1F57FD07D00E94DD1F07FC03D04EF477
:103F80000C94CA1F50954095309521953F4F4F4F47
:103F90005F4F089590958095709561957F4F8F4FF5
:103FA0009F4F08950E94FF1FA59F900DB49F900DF5
:103FB000A49F800D911D11240895A1E21A2EAA1B21
:103FC000BB1BFD010DC0AA1FBB1FEE1FFF1FA217C9
:103FD000B307E407F50720F0A21BB30BE40BF50BC6
:103FE000661F771F881F991F1A9469F7609570954F
:103FF000809590959B01AC01BD01CF010895A29FD2
:10400000B001B39FC001A39F700D811D1124911DAC
:10401000B29F700D811D1124911D0895DB018F93B6
:104020009F930E94D21FBF91AF91A29F800D911DBF
:10403000A39F900DB29F900D11240895991B79E0D4
:1040400004C0991F961708F0961B881F7A95C9F728
:1040500080950895EE0FFF1F881F8BBF0790F69184
:10406000E02D19940F93083090F0982F872F762F1A
:10407000652F542F432F322F22270850F4CF220FC1
:10408000331F441F551F661F771F881F991F0A95EE
:10409000B2F70F91089597FB10F8169400080F934C
:1040A000083098F00850232F342F452F562F672FB4
:1040B000782F892F902DF4CF059497958795779534
:1040C000679557954795379527950A95AAF70F91C4
:1040D00008955058BB27AA270E9481200C94791F6D
:1040E0000E946B1F38F00E94721F20F039F49F3F2E
:1040F00019F426F40C94681F0EF4E095E7FB0C9479
:10410000621FE92F0E948A1F58F3BA1762077307CC
:104110008407950720F079F4A6F50C94AC1F0EF4F3
:10412000E0950B2EBA2FA02D0B01B90190010C01C7
:10413000CA01A0011124FF27591B99F0593F50F4DF
:10414000503E68F11A16F040A22F232F342F442737
:10415000585FF3CF469537952795A795F04053952F
:10416000C9F77EF41F16BA0B620B730B840BBAF0FF
:104170009150A1F0FF0FBB1F661F771F881FC2F76A
:104180000EC0BA0F621F731F841F48F4879577957E
:104190006795B795F7959E3F08F0B0CF9395880F38
:1041A00008F09927EE0F9795879508950E94EA20C9
:1041B0000C94791F0E94721F58F00E946B1F40F0F0
:1041C00029F45F3F29F00C94621F51110C94AD1F2C
:1041D0000C94681F0E948A1F68F39923B1F355233A
:1041E00091F3951B550BBB27AA276217730784070A
:1041F00038F09F5F5F4F220F331F441FAA1FA9F3A0
:1042000035D00E2E3AF0E0E832D091505040E6958D
:10421000001CCAF72BD0FE2F29D0660F771F881FEE
:10422000BB1F261737074807AB07B0E809F0BB0BE1
:10423000802DBF01FF2793585F4F3AF09E3F5105F5
:1042400078F00C94621F0C94AD1F5F3FE4F3983E2E
:10425000D4F3869577956795B795F7959F5FC9F7DE
:10426000880F911D9695879597F90895E1E0660F5F
:10427000771F881FBB1F621773078407BA0720F0D8
:10428000621B730B840BBA0BEE1F88F7E095089541
:104290000E944F216894B1110C94AD1F08950E94A3
:1042A000921F88F09F5798F0B92F9927B751B0F017
:1042B000E1F0660F771F881F991F1AF0BA95C9F7AA
:1042C00014C0B13091F00E94AC1FB1E008950C947D
:1042D000AC1F672F782F8827B85F39F0B93FCCF330
:1042E000869577956795B395D9F73EF49095809527
:1042F000709561957F4F8F4F9F4F08950E94D11EFB
:1043000008F48FEF0895CF93DF938230910510F476
:1043100082E090E0E0918308F091840820E030E0B2
:10432000C0E0D0E0309711F1408151814817590722
:10433000C0F04817590761F482819381209719F0E2
:104340009B838A832BC0909384088093830826C024
:104350002115310519F04217530718F49A01BE01CF
:10436000DF01EF010280F381E02DDCCF2115310563
:1043700009F1281B390B2430310590F412968D91E8
:104380009C9113976115710521F0FB019383828342
:1043900004C09093840880938308FD01329644C042
:1043A000FD01E20FF31F81939193225031092D9368
:1043B0003C933AC02091810830918208232B41F42C
:1043C0002091550230915602309382082093810843
:1043D00020915302309154022115310541F42DB73B
:1043E0003EB74091570250915802241B350BE09183
:1043F0008108F0918208E217F307A0F42E1B3F0B0F
:104400002817390778F0AC014E5F5F4F2417350746
:1044100048F04E0F5F1F50938208409381088193AC
:10442000919302C0E0E0F0E0CF01DF91CF910895D9
:104430000F931F93CF93DF93009709F48CC0FC0177
:10444000329713821282009183081091840801151B
:10445000110581F420813181820F931F2091810801
:10446000309182082817390779F5F0938208E09394
:10447000810871C0D80140E050E0AE17BF0750F48A
:1044800012962D913C911397AD012115310509F13B
:10449000D901F3CF9D01DA013383228360817181D9
:1044A000860F971F8217930769F4EC0128813981E1
:1044B000260F371F2E5F3F4F318320838A819B81D8
:1044C00093838283452B29F4F0938408E093830837
:1044D00042C01396FC93EE931297ED0149915991C6
:1044E0009E01240F351FE217F30771F4808191813B
:1044F000840F951F029611969C938E9382819381CF
:1045000013969C938E931297E0E0F0E0D8011296F8
:104510008D919C911397009719F0F8018C01F6CFBB
:104520008D919C9198012E5F3F4F820F931F209198
:104530008108309182082817390769F4309729F4E7
:10454000109284081092830802C013821282109382
:10455000820800938108DF91CF911F910F910895F8
:104560006F927F928F929F92AF92BF92CF92DF9283
:10457000EF92FF920F931F93CF93DF93EC0100977D
:1045800089F4CB01DF91CF911F910F91FF90EF90B4
:10459000DF90CF90BF90AF909F908F907F906F9063
:1045A0000C948321FC01E60FF71F9C012250310976
:1045B000E217F30708F4ACC0D9010D911C911197D3
:1045C00006171707B0F00530110508F49FC0C801A1
:1045D00004978617970708F499C002501109061B23
:1045E000170B019311936D937C93CF010E941822B6
:1045F0008DC05B01A01AB10A4C01800E911EA091E2
:104600008308B091840840E050E0E12CF12C109731
:1046100009F44AC0A815B905D1F56D907C901197A1
:10462000630182E0C80ED11CCA14DB0480F1A3012F
:104630004A195B096A0182E0C80ED11C1296BC902F
:1046400012971396AC91B5E0CB16D10440F0B2822C
:10465000A38351834083D9016D937C930AC00E5F7D
:104660001F4FC301800F911FF90191838083EB2DB0
:10467000FA2FE114F10431F0D7011396FC93EE9375
:10468000129744C0F0938408E09383083FC08D9153
:104690009C9111974817590708F4AC017D011296B7
:1046A0000D90BC91A02DB3CF80918108909182088C
:1046B00088159905E1F446175707C8F4809153020D
:1046C00090915402009741F48DB79EB740915702E4
:1046D00050915802841B950BE817F907C8F4F09322
:1046E0008208E0938108F901718360830FC0CB01D8
:1046F0000E9483217C01009759F0A801BE010E940D
:104700009E23CE010E941822C70104C0CE0102C020
:1047100080E090E0DF91CF911F910F91FF90EF909B
:10472000DF90CF90BF90AF909F908F907F906F90D1
:10473000089581E090E0F8940C94AE23FB01DC0135
:1047400002C001900D9241505040D8F70895FB01EE
:10475000DC0101900D920020E1F7089511E0C0E91D
:10476000D1E000E006C0802FFE010E942A202196A1
:10477000011DC139D10780E00807A9F7F894FFCFE0
:10478000FF000042757267657200000000000000C3
:1047900000000000000000436865657365204275F5
:1047A0007267657200000000000000416C6C2042DE
:1047B0007572676572000000000000000000005381
:1047C000657475700000000000000000000000002B
:1047D0000000000000850820000000400014005484
:1047E0000000004275726765720000000000000062
:1047F0000000000000000043686565736520427595
:104800007267657200000000000000416C6C20427D
:104810007572676572000000000000000000005320
:1048200065747570000000000000000000000000CA
:1048300000000000000000470A170A1F03F1090FDB
:104840000A000AF209000000008502C5010902CC35
:10485000023A0218022C02000000005109C5011F93
:10486000031E030A0D00526F626F7420737572206D
:10487000626C616E6300526F626F74207375722098
:104880006E6F69720043616C6962726174696F6E08
:104890002066696E690020000D0A00496E76616C21
:1048A000696420736572766F2069642100536572B4
:1048B000766F20616E676C65206973206F75742058
:1048C0006F662072616E67652100746F75726E6528
:0248D0000000E6
:00000001FF
