:100000000C9491010C94C2010C94C2010C94C20195
:100010000C94C2010C94C2010C94C2010C94C20154
:100020000C94C2010C94D90B0C94D90B0C94D90BE1
:100030000C94C2010C942E040C94C2010C94C201C5
:100040000C94C2010C9476080C94C2010C94C20169
:100050000C94C2010C94C2010C94C2010C94AC1219
:100060000C94C2010C94AD050C9483050C94C20150
:100070000C94C2010C94C2010C94C2010C94C201F4
:100080000C94C2010C94C2010C94C2010C94C201E4
:100090000C94C2010C94C2010C94C2010C94E30BA9
:1000A0000C94C2010C94C2010C94C2010C94C201C4
:1000B0000C94C2010C94C2010C94C2010C94D7059B
:1000C0000C94C2010C94C2010C94C2010C94590509
:1000D0000C942F050C94C2010C9405050C94DB04C0
:1000E0000C94C201620767076C0776078007F9075F
:1000F0008A0792079A07A407AE07B807C707D10770
:10010000F907DB07E507EF07300D330D220D260D4C
:100110002C0D6A0D370D3B0D410D450D490D4F0D51
:10012000530D570D6A0D5D0D610D650D0C94A407FF
:100130000C943B0D0C94610D0C946A0D0C94E50726
:100140000C9409020C941F030C94470A0C94AE07FC
:100150000C940F0A0C94C5010C9476070C941E03A2
:100160000C943A020C944F0D0C9418020C94300D20
:100170000C9467070C942C0D0C9485020C942C02A3
:100180000C94570D0C94450D0C948A070C94C707DA
:100190000C94F2090C9451090C9462070C94EF072B
:1001A0000C949A070C94650D0C94F9070C94920723
:1001B0000C9480070C94000A0C94410D0C94220DB1
:1001C0000C940E1D0C94DB070C94330D0C94370D1E
:1001D0000C94F1090C94530D0C94D1070C94CC029F
:1001E0000C94170A0C940A1D0C946C070C94490D7E
:1001F0000C94260D0C94B8070C945D0D00002000A3
:100200002300260029002C002F00320000010000EE
:100210000301060109010200002100240027002A31
:10022000002D003000330001010000040107010A25
:100230000100002200250028002B002E0031003490
:100240000002010000050108010B01050505050775
:100250000508080808020202020A0A080804040441
:10026000040101010101010101030303030303036D
:1002700003040707070C0C0C0C0C0C0C0C020202FC
:100280000206060606060606060B0B0B0B0B0B0BEF
:100290000B0102102020080810204010204080028E
:1002A00001020108040201010204081020408080BC
:1002B0004020100804020180040201804020100840
:1002C0000402010804020101020408102040800118
:1002D0000204081020408000000A0B02090C0D0ED9
:1002E00008070304010000000000000000000000F7
:1002F00000000000000000000000000000000000FE
:1003000000000012111000000000000000000000BA
:1003100000000000000000000000000000000E1DB2
:100320000A1D11241FBECFEFD1E2DEBFCDBF00E01A
:100330000CBF12E0A0E0B2E0EEE4F8E400E00BBF96
:1003400002C007900D92A83FB107D9F727E0A8EFA8
:10035000B2E001C01D92A93DB207E1F711E0C0E98A
:10036000D1E000E006C021970109802FFE010E9424
:100370009120CF38D10780E00807A9F70E94F61234
:100380000C9415240C9400000895CF92DF92EF9204
:10039000FF920F931F93CF93DF936C017A018B0130
:1003A000C0E0D0E0CE15DF0589F0D8016D918D0158
:1003B000D601ED91FC910190F081E02DC6011995D7
:1003C000892B11F47E0102C02196ECCFC701DF9189
:1003D000CF911F910F91FF90EF90DF90CF900895F4
:1003E000FC01A089B1898C91A689B78982FD0FC0D3
:1003F0009C91818D8F5F8F73228D821749F0218DA3
:10040000DF01A20FB11D5D969C93818F08958C91A1
:100410000895FC01538D448D252F30E0842F90E00A
:10042000821B930B541710F0CF96089501970895EF
:10043000FC01918D828D981761F0828DDF01A80FEC
:10044000B11D5D968C91928D9F5F9F73928F90E00E
:1004500008958FEF9FEF0895FC01918D828D98177D
:1004600031F0828DE80FF11D858D90E008958FEFBA
:100470009FEF0895FC01918D228D892F90E0805C83
:100480009F4F821B91098F73992708958CEC93E0FD
:100490000E943A0221E0892B09F420E0822F08957E
:1004A00089E694E00E943A0221E0892B09F420E0D9
:1004B000822F089586E095E00E943A0221E0892B80
:1004C00009F420E0822F0895FC01848DDF01A80F3C
:1004D000B11DA35ABF4F2C91848D90E001968F736C
:1004E0009927848FA689B7892C93A089B1898C918B
:1004F00080648C93938D848D981306C00288F38951
:10050000E02D80818F7D80830895EF92FF920F937D
:100510001F93CF93DF93EC0181E0888F9B8D8C8DAF
:10052000981305C0E889F989808185FD24C0F62EDD
:100530000B8D10E00F5F1F4F0F731127E02E8C8D76
:10054000E8120CC00FB607FCFACFE889F989808160
:1005500085FFF5CFCE010E946402F1CF8B8DFE01A5
:10056000E80FF11DE35AFF4FF0820B8FEA89FB89F8
:100570008081806207C0EE89FF896083E889F989FC
:1005800080818064808381E090E0DF91CF911F9132
:100590000F91FF90EF900895CF93DF93EC01888D3A
:1005A0008823C9F0EA89FB89808185FD05C0A88977
:1005B000B9898C9186FD0FC00FB607FCF5CF8081FD
:1005C00085FFF2CFA889B9898C9185FFEDCFCE0147
:1005D0000E946402E7CFDF91CF910895E0E0F0E060
:1005E000199480E090E0892B21F00E945A02811139
:1005F00019C080E090E0892B41F080E090E0892BE9
:1006000021F00E940000811110C00E94500281114F
:100610000FC080E090E0892B81F00E94460281119A
:100620000AC008950E940000E4CF0E940000EDCFB0
:100630000E94EE02EECF0C9400000895089580E031
:1006400090E008950E9400240F931F93CF93DF93AF
:100650008C01EB01FC01808191810097B1F06881F0
:1006600079816115710579F0428153812C813D8139
:100670004217530740F00E940E248C819D81F8019F
:100680009583848313C00E947F2288819981F80119
:10069000918380838A819B81938382838C819D81D6
:1006A00095838483198218821B821A821D821C8280
:1006B000DF91CF911F910F9108950F931F93CF93C7
:1006C000DF93EC0188819981009729F02A813B8191
:1006D0002617370788F48B016F5F7F4F0E9417231F
:1006E000009761F0998388831B830A832C813D8165
:1006F000232B11F4FC01108281E001C080E0DF9126
:10070000CF911F910F910895EF92FF920F931F9336
:10071000CF93DF93EC017B018A01BA010E945D0354
:100720002881398181110DC02115310519F0C901C8
:100730000E947F22198218821D821C821B821A82CB
:1007400006C01D830C83B701C9010E940E24CE018F
:10075000DF91CF911F910F91FF90EF900895FC01D1
:10076000808191810C947F22FC011182108213827E
:100770001282158214826115710551F0FB010190FE
:100780000020E9F73197AF01461B570B0C94840307
:100790000895BF92CF92DF92EF92FF920F931F9333
:1007A000CF93DF937C016B01EA01890124173507A0
:1007B00020F48D2FE901042F182F65E972E0C7019D
:1007C0000E94B403D60114968D919C911597C81779
:1007D000D907C8F58017910708F48C01D601ED916F
:1007E000FC911197E00FF11FB08010824D915C9148
:1007F000BA016C0F7D1F6115710561F0FB0101905D
:100800000020E9F73197AF01461B570BC7010E9443
:10081000840313C0F70180819181009711F00E9439
:100820007F22D70111961C921E9215961C921E9241
:10083000149713961C921E921297D601ED91FC917B
:10084000E00FF11FB082C701DF91CF911F910F918F
:10085000FF90EF90DF90CF90BF9008951F920F927E
:100860000FB60F9211240BB60F922F933F934F9315
:100870005F936F937F938F939F93AF93BF93EF9308
:10088000FF938091160390911703A0911803B091E4
:100890001903892B8A2B8B2B59F180911503E09139
:1008A0001303F091140390818927808380911603AC
:1008B00090911703A0911803B09119031816190607
:1008C0001A061B060CF056C0809116039091170370
:1008D000A0911803B09119030197A109B109809360
:1008E000160390931703A0931803B093190342C003
:1008F00080910002E6E1F2E0E4919FEF9093000224
:10090000E230C9F050F4EE2399F0E13081F5909196
:100910006F009D7F90936F002AC0E43019F1E0F0E2
:10092000E53029F5909173009D7F909373001FC06F
:1009300010926E001CC0909170009D7F909370008B
:1009400091E09093B0009091B100987F9460909363
:10095000B1001092B3000BC0909171009D7F9093F5
:10096000710005C0909172009D7F9093720060E0CD
:100970000E946B0DFF91EF91BF91AF919F918F916D
:100980007F916F915F914F913F912F910F900BBE8F
:100990000F900FBE0F901F901895DC01ED91FC9108
:1009A000DB0114964D915C9115976D917C910280BD
:1009B000F381E02D19941F920F920FB60F9211241C
:1009C0000BB60F922F933F934F935F936F937F9349
:1009D0008F939F93AF93BF93EF93FF938CEC93E030
:1009E0000E946402FF91EF91BF91AF919F918F910F
:1009F0007F916F915F914F913F912F910F900BBE1F
:100A00000F900FBE0F901F9018951F920F920FB668
:100A10000F9211240BB60F922F933F934F935F9336
:100A20006F937F938F939F93AF93BF93EF93FF93B6
:100A30008CEC93E00E94F001FF91EF91BF91AF9198
:100A40009F918F917F916F915F914F913F912F91E6
:100A50000F900BBE0F900FBE0F901F9018951F9216
:100A60000F920FB60F9211240BB60F922F933F9354
:100A70004F935F936F937F938F939F93AF93BF93A6
:100A8000EF93FF9389E694E00E946402FF91EF9157
:100A9000BF91AF919F918F917F916F915F914F9196
:100AA0003F912F910F900BBE0F900FBE0F901F9094
:100AB00018951F920F920FB60F9211240BB60F923A
:100AC0002F933F934F935F936F937F938F939F9356
:100AD000AF93BF93EF93FF9389E694E00E94F001F8
:100AE000FF91EF91BF91AF919F918F917F916F9106
:100AF0005F914F913F912F910F900BBE0F900FBEC2
:100B00000F901F9018951F920F920FB60F921124FD
:100B10000BB60F922F933F934F935F936F937F93F7
:100B20008F939F93AF93BF93EF93FF9386E095E0EE
:100B30000E946402FF91EF91BF91AF919F918F91BD
:100B40007F916F915F914F913F912F910F900BBECD
:100B50000F900FBE0F901F9018951F920F920FB617
:100B60000F9211240BB60F922F933F934F935F93E5
:100B70006F937F938F939F93AF93BF93EF93FF9365
:100B800086E095E00E94F001FF91EF91BF91AF9157
:100B90009F918F917F916F915F914F913F912F9195
:100BA0000F900BBE0F900FBE0F901F9018951F92C5
:100BB0000F920FB60F9211240BB60F922F933F9303
:100BC0004F935F936F937F938F939F93AF93BF9355
:100BD000CF93DF93EF93FF932091A40530E0F901C9
:100BE000E952FD4F8491F901EF56FD4FD491F9017F
:100BF000E55BFD4FC491CC23A1F081110E94150D3E
:100C0000EC2FF0E0EE0FFF1FE450FE4FA591B491E2
:100C1000EC91ED2331E020E009F430E0832F922FB6
:100C200002C080E090E02091A8053091A9052F5FD7
:100C30003F4F3093A9052093A8052091A70525369D
:100C400018F026E02093A3052091A3052430D9F1C4
:100C500028F4223069F02330D9F060C0253009F43F
:100C600053C0263009F05AC021E02093740653C0C7
:100C7000009709F053C02091A8053091A9052436AA
:100C8000310508F443C0109274061092A7051DC0E8
:100C90008130910509F042C0E091A70521E02E0FB7
:100CA0002093A705F0E02091A8053091A905EE0F4B
:100CB000FF1FED55FA4F308727831092A905109238
:100CC000A80524E029C00097B9F4E091A70521E028
:100CD0002E0F2093A705F0E02091A8053091A905DB
:100CE000EE0FFF1FED55FA4F308727831092A905AD
:100CF0001092A80523E010C02091A8053091A90505
:100D00002536310558F007C0009741F41092A90527
:100D10001092A80503C025E02093A3052091A60505
:100D20002223B9F0892B51F48091A505882321F065
:100D30008091A50561E009C02F9A0BC08091A5059F
:100D4000882331F08091A50560E00E946B0D01C001
:100D50002F98FF91EF91DF91CF91BF91AF919F912C
:100D60008F917F916F915F914F913F912F910F9054
:100D70000BBE0F900FBE0F901F901895CF92DF9271
:100D8000EF92FF92CF93DF93EC01072E000C880BBC
:100D9000990B0E94FD1E6B017C0120E030E040E4D5
:100DA0005FE30E945C1F20E030E048E452E40E94D0
:100DB0003D210E94AF21C617D707D4F020E030E0D4
:100DC00040EA5FE3C701B6010E945C1F20E030E00B
:100DD00048E452E40E943D2120E030E040E85FE337
:100DE0000E94D1200E94AF2121E06C177D070CF4F6
:100DF00020E0822F90E0DF91CF91FF90EF90DF9085
:100E0000CF9008958F929F92AF92BF92CF92DF9230
:100E1000EF92FF920F931F93CF93DF93EC016A0140
:100E20007B0120E030E04FE753E4C701B6010E94A8
:100E30005C1F4B015C0120E030E0A9010E94E5212C
:100E400018161CF4C501B40103C0C501B4019058C3
:100E50000E94AF218B0120E030E0A901C701B6015B
:100E60000E94E521181614F460E001C061E0898158
:100E70000E946B0D0F3F110509F014F4112702C0F9
:100E80000FEF10E0C88161E08C2F0E94B90D0115B1
:100E9000110509F4B1C00F3F110509F4AFC0EC2FE3
:100EA000F0E0E952FD4FE4914E2F50E0FA01319706
:100EB000E231F10508F09DC08827EE58FF4F8F4FB3
:100EC0000C94912084B5806884BD07BDA7C084B50B
:100ED000806284BD08BDA2C080918000806880933C
:100EE0008000109389000093880098C08091800052
:100EF00080628093800010938B0000938A008EC0E4
:100F00008091800088608093800010938D00009312
:100F10008C0084C08091B00080688093B000009302
:100F2000B3007CC08091B00080628093B0000093D9
:100F3000B40074C0809190008068809390001093FA
:100F40009900009398006AC080919000806280931D
:100F5000900010939B0000939A0060C080919000D5
:100F600088608093900010939D0000939C0056C071
:100F70008091A00080688093A0008091A0008F7B6A
:100F80008093A0001093A9000093A80047C080910F
:100F9000A00080628093A0001093AB000093AA0091
:100FA0003DC08091A00088608093A0001093AD00A8
:100FB0000093AC0033C080912001806880932001B1
:100FC000109329010093280129C08091200180629B
:100FD0008093200110932B0100932A011FC0809160
:100FE000200188608093200110932D0100932C0133
:100FF00015C00038110514F460E001C061E08C2FC9
:10100000DF91CF911F910F91FF90EF90DF90CF90E4
:10101000BF90AF909F908F900C946B0DDF91CF910C
:101020001F910F91FF90EF90DF90CF90BF90AF9006
:101030009F908F9008951F93CF93DF93EC01162F0D
:1010400088818C3008F04DC061E0812F0E94B90D7D
:10105000E88195E09E9FF0011124EB58F94F1F7332
:101060008081807C182B10831382E8819E9FF00181
:101070001124EB58F94F148288816CE00E9485207E
:101080009CE0899FA001112420E030E095E0B901A7
:10109000640F751F969FF001979FF00D1124EB5878
:1010A000F94F608166FD13C02F5F3F4F2C30310533
:1010B00071F781110CC01092800082E08093810052
:1010C000109285001092840086BB80936F00E881A7
:1010D00085E0E89FF0011124EB58F94F808180648E
:1010E00080838881DF91CF911F9108951F920F9285
:1010F0000FB60F9211240BB60F922F933F934F937D
:101100005F936F937F938F939F93AF93BF93EF936F
:10111000FF938091120387FF05C010928500109203
:10112000840016C020911203022E000C330B809114
:10113000B10690E0281739075CF43091120325E0DE
:101140003203F0011124EB58F94F808186FD15C060
:10115000809112038F5F8093120320911203022E5D
:10116000000C330B8091B10690E02817390794F4F6
:10117000809112038C302CF10DC030911203320398
:10118000F0011124EB58F94F808160E08F730E94C9
:101190006B0DDECF809184009091850084349C4952
:1011A00018F480E49CE905C080918400909185004A
:1011B000049690938900809388008FEF80931203A8
:1011C0002AC040918400509185003091120325E09F
:1011D0003203F0011124EB58F94F81819281840F81
:1011E000951F9093890080938800309112033203F9
:1011F000F0011124EB58F94F808186FF0CC030912B
:1012000012033203F0011124EB58F94F808161E0A1
:101210008F730E946B0DFF91EF91BF91AF919F91E2
:101220008F917F916F915F914F913F912F910F908F
:101230000BBE0F900FBE0F901F9018958EBD000033
:101240000DB407FEFDCF8EB50895FC01248131E079
:1012500030938C032093AE0310928D031092AF0352
:101260008485682B80EC93E00E94470A0C94860FDB
:101270000F931F93CF938C01C62F0E9425096C2FCB
:101280006460C8010E9425096C2F6B7FC8010E9411
:10129000250983EC90E00197F1F7CF911F910F9111
:1012A00008950F931F93CF938C01C62F607F6160C9
:1012B0000E94380980E1C89FB00111246160C80113
:1012C0000E94380981E090E0CF911F910F9108951D
:1012D0000F931F93CF938C01C62F607F0E94380914
:1012E00080E1C89FB0011124C801CF911F910F91D7
:1012F0000C943809CF93DF93CDB7DEB728970FB69C
:10130000F894DEBF0FBECDBF9C0188E0E9E5F2E0B6
:10131000DE01119601900D928A95E1F7F901808521
:10132000841710F44FEF480FFE013196E40FF11DC2
:10133000E40FF11D9081690F6068C90128960FB60E
:10134000F894DEBF0FBECDBFDF91CF910C9468093A
:10135000CF93DF93EC0161E00E9468098BE39FE18A
:101360000197F1F78985882339F040E060E0CE01EC
:10137000DF91CF910C947A09DF91CF91089585ED9B
:101380008093BC008091BC0084FDFCCF10928B0345
:10139000089540913E03262F30E0240F311D213265
:1013A0003105DCF420918B032430C9F4FC0180E08A
:1013B00090E0861758F430913E032191DC01A45E41
:1013C000BC4FA30FB11D2C930196F3CF80913E0328
:1013D000680F60933E0380E0089581E0089582E005
:1013E0000895089581E090E030911B0320911A0345
:1013F000321710F480E090E091958195910908955D
:1014000080911B0390911A03891730F48F5F8093AA
:101410001B0380E090E008958FEF9FEF0895809187
:101420001A0390E020911B03821B91090895CF922B
:10143000DF92EF92FF920F931F93CF93DF937C0184
:10144000262F972F8A0180918C03882391F0C62F35
:10145000D72F6E01C40ED51ECC15DD0571F0699134
:10146000D701ED91FC910190F081E02DC701199514
:10147000F3CF642F822F0E94C909C801DF91CF9159
:101480001F910F91FF90EF90DF90CF900895CF9331
:10149000DF931F92CDB7DEB7698320918C0322239F
:1014A000D1F02091AF03203240F021E030E0FC0188
:1014B0003383228380E090E015C080918D03E82F74
:1014C000F0E0E257FC4F998190838F5F80938D030A
:1014D0008093AF0305C061E0CE0101960E94C90967
:1014E00081E090E00F90DF91CF9108956091BF0768
:1014F00070E087EC97E00E941B086AEA81E00E9496
:101500002A1064EF71E080E090E00C947212CF93A7
:10151000DF93C6EBD7E0698570E087EC97E00E9427
:101520001B0865E581E00E942A1064EF71E080E00D
:1015300090E00E947212688570E086EC97E00E944D
:101540001B0860E080E00E942A1064EF71E080E0F8
:1015500090E00E947212688570E086EC97E00E942D
:101560001B086BE780E00E942A1064EF71E080E0C6
:1015700090E0DF91CF910C9472124091C50650918A
:10158000C6066091C7067091C80670588EEA97E04B
:101590000E9402074091C5065091C6066091C70699
:1015A0007091C80680EB97E00E94020764EF71E03B
:1015B00080E090E00E9472124091C5065091C606EC
:1015C0006091C7067091C806705880EB97E00E9442
:1015D00002070E942811892BE1F70E942811029727
:1015E000E1F740E050E0BA018EEA97E00E9402077E
:1015F00040E050E060E070E880EB97E00C94020778
:101600001F93CF93DF93EC0111E08091B806811115
:10161000C3C04091B9065091BA066091BB06709163
:10162000BC068EEA97E00E9402074091BD065091E9
:10163000BE066091BF067091C006705880EB97E0BF
:101640000E9402070E9428118230910599F410929D
:10165000C9068091C1069091C206A091C306B091BF
:10166000C4068093BD069093BE06A093BF06B093B8
:10167000C00620C08430910551F38130910519F5E1
:101680001092C9068091C1069091C206A091C3062E
:10169000B091C4068093BD069093BE06A093BF068A
:1016A000B093C0068091C5069091C606A091C7066A
:1016B000B091C8068093B9069093BA06A093BB0672
:1016C000B093BC06A2CF079709F09FCF8091C906BF
:1016D00081119BCF1093C9068091CA069091CB06C9
:1016E00001969093CB068093CA068C179D0709F04C
:1016F0008CCF81E00E945311C630D105D4F1C630A1
:10170000D10511F50E94760A0E94BD0A81E00E946F
:1017100053114DEC5CEC6CEC7DE38EEA97E00E949B
:1017200002074DEC5CEC6CEC7DEB80EB97E00E94EB
:1017300002076CE271E080E090E00E94721287E0A4
:1017400090E00E94000B61CFC730D105B9F40E9430
:10175000870A68E873E180E090E00E9472120E94BC
:10176000760A0E94870A68E873E180E090E00E94B0
:1017700072120E94760A0E94D00B47CF0E94870AFD
:101780000E94BD0A80E00E9453111093B806109287
:10179000CB061092CA0639CFDF91CF911F910895E1
:1017A0000E94BD0A81E00E94531188E090E00C94F1
:1017B000000B1F920F920FB60F9211240F900FBEC5
:1017C0000F901F9018951F920F920FB60F92112431
:1017D0000BB60F922F933F934F935F936F937F932B
:1017E0008F939F93AF93BF93EF93FF938091B90033
:1017F000887F803609F49CC068F5883209F45BC0A4
:1018000090F4803109F454C038F4882309F4F6C008
:10181000883009F44DC0F6C0883109F44CC08032DC
:1018200009F45DC0EFC0803409F468C048F4803327
:1018300009F455C0883309F0E5C080938903D8C006
:10184000803509F44FC0883509F45DC0883409F04B
:10185000D9C0D6C0883909F4C7C0A8F4883709F4BC
:1018600067C038F4883609F463C0803709F460C073
:10187000C9C0883809F4B8C0803909F45FC080381D
:1018800009F0C0C05BC0803B09F486C038F4803AE0
:1018900009F466C0883A09F47FC0B4C0803C09F4FA
:1018A000A7C0883C09F4A4C0883B09F48AC0AAC038
:1018B0008091660310C090918803809187039817E8
:1018C00070F5E091880381E08E0F80938803F0E04B
:1018D000E959FC4F80818093BB0085EC86C08093E2
:1018E00089038EC0E091880381E08E0F8093880386
:1018F0008091BB00F0E0E959FC4F80839091880310
:10190000809187036EC0E091880381E08E0F809301
:1019100088038091BB00F0E0E959FC4F80838091FF
:101920008A0381116DC081E08093650384EA61C000
:1019300083E080938B0310926203CFCF8091620388
:10194000803208F051C0E091620381E08E0F8093F5
:1019500062038091BB00F0E0EE5BFC4F8083BDCF63
:1019600085EC8093BC0010928B03809162038032DF
:1019700030F4E0916203F0E0EE5BFC4F1082609186
:10198000620370E0E0914003F091410382E493E050
:1019900019951092620336C084E080938B031092F5
:1019A0003F0310923E03E0913C03F0913D031995F3
:1019B00080913E03811105C081E080933E03109227
:1019C0001C03E0913F0381E08E0F80933F03F0E022
:1019D000E45EFC4F80818093BB0090913F03809137
:1019E0003E03981708F479CF85E88093BC000AC0BD
:1019F00085EC8093BC0010928B0304C01092890385
:101A00000E94BF09FF91EF91BF91AF919F918F917C
:101A10007F916F915F914F913F912F910F900BBEEE
:101A20000F900FBE0F901F90189590E0FC0131971A
:101A3000E231F10508F04EC08827EC57FF4F8F4F79
:101A40000C949120809180008F7703C0809180005A
:101A50008F7D80938000089580918000877FF9CFEB
:101A600084B58F7702C084B58F7D84BD0895809141
:101A7000B0008F7703C08091B0008F7D8093B0005D
:101A80000895809190008F7707C0809190008F7D9E
:101A900003C080919000877F80939000089580918B
:101AA000A0008F7707C08091A0008F7D03C0809138
:101AB000A000877F8093A0000895809120018F77F8
:101AC00007C0809120018F7D03C080912001877F16
:101AD0008093200108951F93CF93DF93282F30E048
:101AE000F901E952FD4F8491F901EF56FD4FD49170
:101AF000F901E55BFD4FC491CC23C9F0162F81118C
:101B00000E94150DEC2FF0E0EE0FFF1FEF5CFD4F74
:101B1000A591B4918FB7F894111105C09C91ED2F48
:101B2000E095E92302C0EC91ED2BEC938FBFDF91A0
:101B3000CF911F91089510928B0381E080938A03C7
:101B40001092650361E084E10E946B0D61E085E124
:101B50000E946B0DE9EBF0E080818E7F80838081B5
:101B60008D7F808388E48093B80085E48093BC00F7
:101B70000895CF93DF9390E0FC01EF56FD4F249141
:101B8000FC01E55BFD4F8491882361F190E0880FB3
:101B9000991FFC01E95EFD4FC591D491FC01EF5CFA
:101BA000FD4FA591B491611109C09FB7F894888148
:101BB000209582238883EC912E230BC0623061F440
:101BC0009FB7F8943881822F809583238883EC9186
:101BD0002E2B2C939FBF06C08FB7F894E8812E2B35
:101BE00028838FBFDF91CF910895009769F0FC01A2
:101BF00001900020E9F73197AF01481B590BBC0158
:101C000086E095E00C94C50180E090E00895BF92D5
:101C1000CF92DF92EF92FF920F931F93CF93DF93B8
:101C2000CDB7DEB72C970FB6F894DEBF0FBECDBF91
:101C30008C01FC01C48065E972E0CE0107960E9428
:101C4000B403D12C84E1E82EF12C94E1B92E8091DB
:101C5000D60690E02C2D30E0B701681B790B4D2D96
:101C600050E062177307ACF59A012C5E3F4F281BBA
:101C7000390BB801CE0101960E94C903BE016F5F06
:101C80007F4FCE0107960E942403CE0101960E9449
:101C9000AF03BE01695F7F4F8091D3069091D40658
:101CA0000E94CD048091D6069B2D981BD90E4091A1
:101CB000D5064F5F43704093D5068451C80E60E04F
:101CC0008091D3069091D4060E947A091092D6068C
:101CD000BECFF80124813581B801CE0101960E9462
:101CE000C903BE016F5F7F4FCE0107960E94240398
:101CF000CE0101960E94AF03BE01695F7F4F8091C4
:101D0000D3069091D4060E94CD042091D6068B85EF
:101D10009C85820F911D8093D60665E972E0CE0105
:101D200001960E94B403F090D606F3E1FF15C8F0C7
:101D30000D811E810F5F1F4FB801CE0101960E94D9
:101D40005D03882361F029813A818D819E8161E95B
:101D500072E0820F931F0E940E241E830D83F39462
:101D6000E4CFBE016F5F7F4F8091D3069091D40680
:101D70000E94CD044091D5066091D6068091D3068D
:101D80009091D4060E947A09CE0101960E94AF0379
:101D9000CE0107960E94AF032C960FB6F894DEBFD3
:101DA0000FBECDBFDF91CF911F910F91FF90EF90AC
:101DB000DF90CF90BF9008958F929F92AF92BF9285
:101DC000CF92DF92EF92FF920F931F93CF93DF9307
:101DD000FC01C081D1812091BC033091BD03C217A9
:101DE000D3070CF04BC09E01220F331FE091BA03C2
:101DF000F091BB03E20FF31F80809180C170DD275B
:101E0000F1E0CF27209719F404E610E002C00CE9B6
:101E10001FEF7A015B016C01040F151FB801C401AB
:101E20000E94BE06892B99F40E0D1F1DB801C40136
:101E30000E94BE06892B71F4B8016E0D7F1DC4018E
:101E40000E94BE06892BE9F023E030E005C021E0C6
:101E500030E002C022E030E0F501808191810196FE
:101E6000821793073CF0F50111821082F601808100
:101E70009181019691838083CE0105C081E090E03D
:101E800002C08FEF9FEFDF91CF911F910F91FF90D5
:101E9000EF90DF90CF90BF90AF909F908F9008957C
:101EA000E6E0F5E0A089B18982E08C93A485B58550
:101EB0001C92A685B7858FEC8C93108EA489B5896A
:101EC00086E08C93A289B3898C9180618C93A289DE
:101ED000B3898C9188608C93A289B3898C91806836
:101EE0008C930288F389E02D80818F7D8083089513
:101EF000CF93DF930E94F50DEC0183E992E00E94FD
:101F0000F50D8C0F9D1FDF91CF9108952091AF03A8
:101F10009091AE03213208F04AC080918B03811169
:101F2000FCCF32E030938B0331E030938A033FEFF4
:101F3000309389031092880320938703AEE8B3E0BF
:101F400047E653E0FA013E2F341B321718F43D9157
:101F50003193F9CF1092660320916603990F922B6B
:101F60009093660390916503913061F4109265033C
:101F7000909166039093BB009091BC0093FDF8CFC5
:101F800095EC01C095EE9093BC0090918B0392303C
:101F9000E1F3909189039F3F79F08091890380322A
:101FA00041F080918903803331F084E005C081E005
:101FB00003C082E001C083E010928D031092AF0352
:101FC00010928C030895EF92FF921F93CF93DF93AB
:101FD0001F92CDB7DEB7162F95E9E92E97E0F92EBF
:101FE000D7011C969C911C9721E020938C03909321
:101FF000AE0310928D031092AF031A960D90BC9110
:10200000A02DED91FC9111970190F081E02D682FAA
:10201000CD0179831995F70182859385DC01ED91D6
:10202000FC910190F081E02D7981672F1995F701DE
:1020300082859385DC01ED91FC910190F081E02D8A
:10204000612F19950F90DF91CF911F91FF90EF9025
:102050000C94860FCF92DF92EF92FF92CF93DF9393
:10206000823018F086E992E00AC09091C0076917A3
:1020700020F09091C107961750F488EA92E0DF9122
:10208000CF91FF90EF90DF90CF900C94780FE82FD6
:10209000F0E0EA54F84FC089CC3008F072C0262F27
:1020A00030E0D0E085E08C9FF0018D9FF00D112491
:1020B000EB58F94F8381283C31059CF528E830E046
:1020C0006901C81AD10887FDD394CC0CDD1CCC0C57
:1020D000DD1C0D2C000CEE08FF08848128E532E0A1
:1020E000281B310987FD3395220F331F220F331F21
:1020F000C901330FAA0BBB0B9C01AD012C193D0983
:102100004E095F09A62FB0E00E94392024EB30E091
:1021100040E050E00E941A20C20ED31EE41EF51EBD
:102120001EC048E850E06A01C81AD10887FDD39460
:10213000CC0CDD1CCC0CDD1C2C153D0584F0448141
:1021400088E592E0841B910947FD9395880F991FBC
:10215000880F991F69018C159D050CF46C018FB7D0
:10216000F89495E09C9FF0019D9FF00D1124EB5891
:10217000F94F96E0C91AD108CC0CDD1CD282C1827D
:102180008FBFDF91CF91FF90EF90DF90CF900895B8
:10219000CF93DF93CDB7DEB72C970FB6F894DEBFA1
:1021A0000FBECDBF8091D3069091D4060E94A8099E
:1021B0001092D6061092D50640E060E08091D306DA
:1021C0009091D4060E947A098091010290910202B6
:1021D00024E1289FB001299F700D11246D5F7D4F70
:1021E000CE0107960E94B4031A8219821C821B82B8
:1021F0001E821D826F8178856115710531F04B85D6
:102200005C85CE0101960E948403CE0101960E9456
:10221000070ECE0101960E94AF03CE0107960E94E1
:10222000AF03209101023091020244E1429FC001BC
:10223000439F900D11248D5F9D4F0E94F50D2C96AC
:102240000FB6F894DEBF0FBECDBFDF91CF910895DA
:10225000CF93DF9382E40E94531231E020E040915B
:10226000B6065091B706481759070CF430E0C32F53
:10227000D22F81E40E9453122091B4063091B5060A
:10228000281739070CF022968FE30E9453122091F1
:10229000B2063091B306281739070CF02496CE0108
:1022A000DF91CF9108950F931F93CF93DF938823EE
:1022B00071F06091C5067091C6068091C706909135
:1022C000C8060E94AF21EB0100E010E00DC0609154
:1022D000C5067091C6068091C7069091C8060E94F7
:1022E000AF218B01C0E0D0E04091C5065091C606F9
:1022F0006091C7067091C8068EEA97E00E940207B7
:102300004091C5065091C6066091C7067091C806F7
:10231000705880EB97E00E9402076EE571E080E064
:1023200090E00E947212B801110F880B990B0E9465
:10233000FD1EAB01BC018EEA97E00E940207BE01C0
:10234000DD0F880B990B0E94FD1EAB01BC0170587C
:1023500080EB97E00E9402070E9428110297E1F7A4
:10236000DF91CF911F910F910895AF92BF92CF92BD
:10237000DF92EF92FF920F931F93CF93DF9385EC41
:1023800092E00E94F50D88EC92E00E94F50D60E16C
:1023900077E280E090E00E9472128FE30E94531275
:1023A0005C0181E40E9453126C0182E40E9453128A
:1023B0008C0185EC92E00E94F50D88ED92E00E9480
:1023C000F50D60E177E280E090E00E9472128FE309
:1023D0000E9453127C0181E40E945312EC0182E4BA
:1023E0000E945312B5016E0D7F1D77FF02C06F5F13
:1023F0007F4F759567957093B3066093B206A601FB
:102400004C0F5D1F57FF02C04F5F5F4F55954795BB
:102410005093B5064093B406800F911F97FD019627
:10242000959587959093B7068093B60685EC92E0D4
:102430000E94F50D87EE92E00E94F50D68E97AE3BF
:1024400080E090E0DF91CF911F910F91FF90EF908E
:10245000DF90CF90BF90AF900C9472123FB7F8947A
:102460008091D1079091D207A091D307B091D40762
:1024700026B5A89B05C02F3F19F00196A11DB11DDF
:102480003FBFBA2FA92F982F8827820F911DA11D1A
:10249000B11DBC01CD0142E0660F771F881F991F57
:1024A0004A95D1F70895863308F0865390917B00C2
:1024B000282F2870977F922B90937B0087708064E1
:1024C00080937C0080917A00806480937A00809170
:1024D0007A0086FDFCCF809178002091790090E011
:1024E000922B08958F929F92AF92BF92CF92DF92DC
:1024F000EF92FF926B017C010E942E124B015C0156
:10250000C114D104E104F104F1F00E942E12DC01A7
:10251000CB0188199909AA09BB09883E9340A105F6
:10252000B10570F321E0C21AD108E108F10888EE84
:10253000880E83E0981EA11CB11CC114D104E104D3
:10254000F10419F7DDCFFF90EF90DF90CF90BF90AF
:10255000AF909F908F9008951F920F920FB60F9299
:1025600011242F933F938F939F93AF93BF938091A9
:10257000CD079091CE07A091CF07B091D0073091B1
:10258000CC0723E0230F2D3720F40196A11DB11DA8
:1025900005C026E8230F0296A11DB11D2093CC078C
:1025A0008093CD079093CE07A093CF07B093D00729
:1025B0008091D1079091D207A091D307B091D40711
:1025C0000196A11DB11D8093D1079093D207A093CE
:1025D000D307B093D407BF91AF919F918F913F9153
:1025E0002F910F900FBE0F901F901895CF93DF93F0
:1025F000CDB7DEB72E970FB6F894DEBF0FBECDBFB6
:10260000789484B5826084BD84B5816084BD85B5CD
:10261000826085BD85B5816085BD80916E008160D9
:1026200080936E001092810080918100826080937F
:102630008100809181008160809381008091800081
:102640008160809380008091B10084608093B100AC
:102650008091B00081608093B00080919100826091
:10266000809391008091910081608093910080918E
:1026700090008160809390008091A100826080939F
:10268000A1008091A10081608093A1008091A000B1
:1026900081608093A000809121018260809321015C
:1026A00080912101816080932101809120018160CE
:1026B0008093200180917A00846080937A008091D9
:1026C0007A00826080937A0080917A0081608093A2
:1026D0007A0080917A00806880937A001092C1001D
:1026E0000E94500F0E94500F61E0809196070E9457
:1026F000B90D60E0809196070E946B0D60E08091BB
:1027000095070E94B90D80EC93E09093A007809309
:102710009F0710921B0310921A0310928D031092C0
:10272000AF030E949B0D80E090E1A0E0B0E08093B9
:10273000A2079093A307A093A407B093A5078AE0EC
:1027400090E0A0E0B0E08093A6079093A707A09345
:10275000A807B093A90780E090E0A0E0B0E48093E0
:10276000AA079093AB07A093AC07B093AD0760E0C6
:1027700070E185E00E94E30F6FE979E380E00E9459
:10278000E30F02EB17E0A12CB12CC12CD12CE0E817
:102790002E2EE2E03E2EFBEC8F2EF7E09F2EABE8D4
:1027A0006A2E7724739496012B56384F2901D9014C
:1027B00014969C91149712968C91F501EB56F84F54
:1027C0007F01818F928F61E00E94B90D61E0D70196
:1027D0005A968C910E94B90DF20190858681D8019C
:1027E0008C93F701968F61E00E94B90D60E0D701EC
:1027F0005E968C910E94B90D61E0F80180810E9483
:102800006B0DFFB6F8948091F802811126C0F1019A
:102810009491E6ECF2E08491E92FF0E0EE0FFF1FD7
:10282000E95EFD4FA591B4919C91892321F461E06B
:1028300085E30E946B0D61E085E30E94B90D8CB5C4
:1028400080618CBD8CB580648CBD61E084E30E94A6
:10285000B90D61E083E30E94B90D8091F8028F5FAA
:102860008093F802FFBEC4010197F1F760E0D80140
:102870008C910E946B0D88E80E941E0983E00E94E3
:102880001E0961E0F80180810E946B0DC40101976F
:10289000F1F760E0D8018C910E946B0D88E90E94ED
:1028A0001E0980E00E941E0980E00E941E0980E04F
:1028B0000E941E0980E00E941E0961E0F8018081EB
:1028C0000E946B0DC3010197F1F760E0D8018C9174
:1028D0000E946B0D80EE0E941E0961E0F80180816C
:1028E0000E946B0DF2E0AF0EB11C0E5F1F4FCA9439
:1028F000CD2821F0CC24C394D12C55CF0AEB17E07E
:1029000054E0F52EF00E60E0D8018D918D010E940B
:10291000B90DF012F8CF39ECE32E37E0F32E04ECCA
:1029200017E042E0D42ED00EF8013697608170E0B7
:10293000C80102960E941B08F80191918F013397FC
:102940008081F70131978083D7019C9360E00E94DA
:10295000B90D61E0F70180810E94B90D60E0D701F7
:102960008C910E946B0DB2E0EB0EF11CD012DCCF0B
:10297000F8941092200189E08093210180E293E095
:10298000909329018093280110922501109224012F
:1029900082E08093730078948093A3051092A7053A
:1029A0008091A40560E00E94B90D0091D3061091BA
:1029B000D40610921B0310921A0310928D031092EA
:1029C000AF030E949B0DF80115828385823010F0C1
:1029D00098E09583D80118968C9362E370E080E0CC
:1029E00090E00E947212F8016485C8010E942509D6
:1029F00068EE73E080E090E00E94721260E3C8012C
:102A00000E9438098BE4E82E86E4F82EC70101976E
:102A1000F1F760E3C8010E943809C7010197F1F797
:102A200060E3C8010E94380983E592E00197F1F75D
:102A300060E2C8010E943809D80115966C91606265
:102A4000C8010E94680984E0F80186836CE0C8012F
:102A50000E946809C8010E94A80982E0D80117965F
:102A60008C9366E0C8010E94680962E0C8010E9478
:102A700068098BE39FE10197F1F78091D30690916C
:102A8000D40628E0FC01248760E00E94250940E08C
:102A900060E08091D3069091D4060E947A098091DB
:102AA000D3069091D406DC0116966C911697262FCA
:102AB000216016962C9369600E9468090E94C810D4
:102AC0006091BF0770E087EC97E00E941B0865E506
:102AD00081E00E942A106091BE0770E086EC97E0CA
:102AE0000E941B086BE780E00E942A1060E177E2F9
:102AF00080E090E00E9472120E94B51193E0292EAE
:102B0000312C44244A94542C32010E94B511EAEA33
:102B1000F5E0F093BB03E093BA038091A70590E042
:102B20009093BD038093BC038091740690E09093D2
:102B3000BF038093BE038091A305853009F087C44D
:102B40008091AC059091AD05885891098D3591051E
:102B500088F48091A705843041F48091AE0590916E
:102B6000AF058097479708F4FAC18091A705843490
:102B700008F0DCC18091A7058A3108F44FC080912C
:102B8000AA059091AB05843F914068F41092B90377
:102B90001092B8034092B4035092B5036092B6030A
:102BA0007092B70359C08091AC059091AD0585979F
:102BB0004B97A0F5E0EBF5E082E090E0C12CD12C42
:102BC0007601AC014F5F5F4F2091A70530E04217BF
:102BD00053075CF4DF0112972D913C912750310986
:102BE0002730310508F4FFC1CA01019795958795F3
:102BF0009093B9038093B8030C972CF41092B90307
:102C00001092B8030BC0C092B403D092B503E09207
:102C1000B603F092B70384E090E008C38091A70563
:102C20008A3108F44CC08091AA059091AB0580329E
:102C3000934008F4ABCF8091AC059091AD05C69759
:102C4000869708F4EDC13BC0C092B403D092B5039F
:102C5000E092B603F092B7038BE090E0E7C22081E8
:102C60003181255231092B31310508F0E9C1CC0CF5
:102C7000DD1CEE1CFF1C6894C0F802963496AC0173
:102C80004F5F5F4F2091A70530E04217530754F480
:102C9000DF0112972D913C912C5031092B303105D9
:102CA000F0F2CA010197959587959093B9038093A7
:102CB000B8030C974CF61092B9031092B8038091A8
:102CC000A705823208F44DC08091AC059091AD0506
:102CD0000697079708F045C0E0EBF5E082E090E04A
:102CE000C12CD12C76019C012F5F3F4F4091A7054D
:102CF00050E024173507E4F4DF0112974D915C9101
:102D000011974E5151094731510508F0A6C1CC0C1D
:102D1000DD1CEE1CFF1C6894C0F840815181349684
:102D2000435051094530510510F40296DCCFC901DA
:102D30000197959587959093B9038093B803409731
:102D40002CF41092B9031092B8030BC0C092B403D4
:102D5000D092B503E092B603F092B7038CE090E016
:102D600065C21C821B8281E090E09A8389838091F6
:102D7000A7058D3008F46BC049E753E0BE016D5FD5
:102D80007F4FCE0101960E94DC0E892B09F05FC0B7
:102D900049E753E0BE016D5F7F4FCE0101960E946F
:102DA000DC0E019709F053C049E753E0BE016D5FA7
:102DB0007F4FCE0101960E94DC0E892B09F047C09F
:102DC000812C912C540100E010E08091A70590E047
:102DD00029813A81281739075CF549E753E0BE019C
:102DE0006D5F7F4FCE0101960E94DC0E7C0149E7AA
:102DF00053E0BE016D5F7F4FCE0101960E94DC0E55
:102E0000B1E0EB16F10449F4892B09F5880C991C03
:102E1000AA1CBB1C689480F808C0EF28C1F4019775
:102E2000B1F4880C991CAA1CBB1C0F5F1F4FCDCF9F
:102E30001093B9030093B8038092B4039092B50342
:102E4000A092B603B092B70381E090E0EFC11C827C
:102E50001B8281E090E09A8389838091BC039091EA
:102E6000BD03181619060CF056C0E091BA03F09194
:102E7000BB0382E090E09A83898382819381899762
:102E80004E9708F048C03A822982848195810B9739
:102E90000A9708F040C04CEB51E0BE016D5F7F4FD8
:102EA000CE0101960E94DC0E892BA9F54CEB51E076
:102EB000BE016D5F7F4FCE0101960E94DC0E01972F
:102EC00051F5812C912C540100E010E029813A81C8
:102ED0008091BC039091BD03281739070CF000C105
:102EE0004CEB51E0BE016D5F7F4FCE0101960E9419
:102EF000DC0E6C010330110509F0BCC04CEB51E055
:102F0000BE016D5F7F4FCE0101960E94DC0EC81698
:102F1000D90609F4AFC0E091BA03F091BB038281F6
:102F20009381C697869708F4EAC085C18091AE0563
:102F30009091AF05825491098E9708F01BCE80E0E6
:102F400090E040E050E0BA01FC01E055FA4F2081EA
:102F500031812950310929303105B0F00BCE8091F3
:102F6000B0059091B1050997099708F0FECD109230
:102F7000B9031092B8034092B4035092B503609223
:102F8000B6037092B70379C2FC01EE54FA4F208168
:102F900031812751310922313105C0F4440F551FC9
:102FA000661F771F416004968038910569F620E21C
:102FB00030E03093B9032093B8034093B4035093A7
:102FC000B5036093B6037093B70357C22081318174
:102FD000265031092730310508F0CCCD440F551F5C
:102FE000661F771FE0CF20813181235131092F30B7
:102FF000310548F4CC0CDD1CEE1CFF1C6894C0F8B5
:1030000002963496DECD208131812A503109293053
:10301000310508F003CECC0CDD1CEE1CFF1CF0CFFC
:103020008091AE059091AF05C697869708F047CE80
:10303000E2EBF5E083E090E0C12CD12C76011FCECD
:10304000208131812C5031092A30310508F037CEEA
:10305000CC0CDD1CEE1CFF1C10CE4D915C914C5035
:1030600051094B30510508F07CCECC0CDD1CEE1C18
:10307000FF1C53CE4CEB51E0BE016D5F7F4FCE0184
:1030800001960E94DC0E7C010330110569F44CEBC3
:1030900051E0BE016D5F7F4FCE0101960E94DC0EB4
:1030A000E816F90609F037CFC114D10459F4EA94AF
:1030B000EF2809F030CF880C991CAA1CBB1C68941F
:1030C00080F80BC0CA94CD2809F025CFEF2809F06D
:1030D00022CF880C991CAA1CBB1C0F5F1F4FF6CE79
:1030E0001093B9030093B8038092B4039092B50390
:1030F000A092B603B092B70382E090E097C08481BB
:1031000095814B97459708F096C0DF0116967F0191
:1031100026ECE20EF11C20E030E040E050E060E000
:1031200070E080E090E00D911C9111970950110919
:103130000830110508F07FC012960D911C9113976D
:10314000015111090D30110568F112960D911C9174
:103150001397045011090530110508F06CC001E007
:103160000E9499201496AE15BF05E9F62093B4038A
:103170003093B5034093B6035093B70300E20E9427
:10318000B4202093B2033093B30385E090E0909392
:10319000B1038093B00380E390E09093B9038093F0
:1031A000B8038CC001E00E9499202160DBCFA80108
:1031B00042505109DA014D915C9149505109483012
:1031C000510508F0A7C1BC016F5F7F4FD8014D9139
:1031D0005C911197475051094730510508F0D3C30E
:1031E000220F331F216002960C5F1F4F4091A705ED
:1031F00050E04450510984179507CCF201979595FA
:1032000087959093B9038093B8038A970CF482C191
:10321000C901330FAA0BBB0B8093B4039093B50382
:10322000A093B603B093B70389E090E09093B10305
:103230008093B00343C08091A705893340F0828119
:103240009381895791098335910508F40FC28091C4
:10325000A705823209F416C18281938189579109A9
:103260008335910508F47DC2828193818C54910944
:10327000C59708F013C18091A705843009F009C1F2
:10328000848195818097479708F003C18681978153
:103290000997099708F0FDC01092B9031092B8037E
:1032A0004092B4035092B5036092B6037092B70394
:1032B000E7E0F0E0F093B103E093B00382E08093A5
:1032C000A3051092A7058091B4039091B503A09136
:1032D000B603B091B703863CEFEC9E07E4E0AE077F
:1032E000E6E6BE0709F4B7C08A3FEFEC9E07E4E0CC
:1032F000AE07E6E6BE07C1F0863DFFEC9F07F4E0AF
:10330000AF07F6E6BF0709F494C0863E2FEC92079C
:1033100024E0A20726E6B20709F48BC0863F9F4C43
:10332000A440B64679F085C08091010290910202D6
:10333000019708F09DC030920202209201020E9483
:10334000C81077C00E94C8108091010290910202BB
:10335000009769F08130910519F1029709F43FC097
:10336000ED81FE81E230F105D9F03397C1F1109281
:10337000B80681E090E00E94000B1092B80686E04B
:1033800090E00E94000B1092B80681E090E00E944D
:10339000000B1092B80621E030E03E832D8349C037
:1033A0001092B80681E090E00E94000B1092B806DF
:1033B00086E090E00E94000B1092B80682E090E058
:1033C0000E94000B1092B80681E090E00E94000B72
:1033D0001092B80682E090E09E838D832AC01092FE
:1033E000B80681E090E00E94000B1092B80686E0DB
:1033F00090E00E94000B1092B80682E090E00E94DC
:10340000000B1092B80685E090E00E94000B10922D
:10341000B80684E090E00E94000B1092B80681E0AC
:1034200090E00E94000B1092B806A3E0B0E0BE83CB
:10343000AD8369E170E080E090E00E9472120E942A
:10344000F10263CB82E08093A3051092A70580E090
:1034500090E0DC0163CF809101029091020201961D
:103460008430910529F4109202021092010267CF74
:10347000909302028093010262CF3092B1032092B6
:10348000B0031CCF828193810A97099708F44DC13C
:10349000E3CE8091A705843408F0C8C18091A705C8
:1034A000863460F1828193810C970B9708F414C2E3
:1034B00025C0D90112966D917C9113976E517109B7
:1034C0006731710508F040C2D701C601880F991F06
:1034D000AA1FBB1F6C017D016894C0F84E5F5F4F4F
:1034E0002C5F3F4F4534510509F411C2D9016D914C
:1034F0007C916C5071096B307105D8F28091A705F1
:10350000883540F082819381855891098B359105EA
:1035100008F42AC28091A7058032E1F48281938168
:1035200006970697B8F4848195810997099790F4D6
:103530009F012A5F3F4FBF01625C7F4FC12CD12C9E
:103540007601D9014D915C914650510946305105A3
:1035500008F425C22091BC033091BD033A87298726
:10356000263031050CF46ECF8F010A5F1F4F83E0C8
:1035700090E098878F8395ECC92E9DE9D92E9CE128
:10358000E92E91E8F92ED8016D917C91F8013497DC
:10359000A080B18080E090E00E94FB1E6B877C875A
:1035A0008D879E87B50180E090E00E94FB1E4B0155
:1035B0005C012DEC3CEC4CE45FE30E945C1F9B0142
:1035C000AC016B857C858D859E850E94F61E87FDEE
:1035D00019C02DEC3CEC4CE45FE36B857C858D855C
:1035E0009E850E945C1F9B01AC01C501B4010E9435
:1035F000F61EE82F880FFF0BEE27FF0FEE1FFF27A9
:10360000319602C0E0E0F0E0A701960163E971E0C5
:1036100080E091E00E9475206F01FF0FEE08FF0827
:10362000C626D726E826F926EF81F8853196F88751
:10363000EF830E5F1F4F29853A85E217F30709F0E4
:10364000A2CFC092B403D092B503E092B603F09239
:10365000B70380E290E09093B9038093B803AFEF93
:10366000BFEFB093B103A093B00328CE84819581BE
:10367000CA97899708F0EBCD9F012A5F3F4FC12C75
:10368000D12C760143E050E0D9016D917C916A50D4
:1036900071096930710508F0DACDD90112966D9182
:1036A0007C911397665171096131710570F5D701ED
:1036B000C601880F991FAA1FBB1F6C017D0168946A
:1036C000C0F84E5F5F4F2C5F3F4F4B335105E1F623
:1036D0009F012A583F4FD9012D913C912A50310921
:1036E0002930310508F0B3CD2CE130E03093B90337
:1036F0002093B803C092B403D092B503E092B6030E
:10370000F092B7038AE090E091CDD90112966D91C5
:103710007C911397665071096730710508F097CD59
:10372000CC0CDD1CEE1CFF1CCCCF2091A705CF01DB
:10373000820F911D820F911DDC0112978D919C913A
:103740000A97099708F088CD1092B9031092B80330
:103750004092B4035092B5036092B6037092B703DF
:1037600062C08091A705813208F47ECD8481958165
:10377000CA97899708F078CD9F012A5F3F4FC12CE7
:10378000D12C760143E050E0D9016D917C916A50D3
:1037900071096930710508F067CDD90112966D91F4
:1037A0007C911397665171096131710560F5D701FC
:1037B000C601880F991FAA1FBB1F6C017D01689469
:1037C000C0F84E5F5F4F2C5F3F4F43325105E1F62B
:1037D0009F012A5B3F4FD9012D913C912A5031091D
:1037E0002930310508F040CDE0E1F0E0F093B90375
:1037F000E093B803C092B403D092B503E092B6034D
:10380000F092B70310C0D90112966D917C91139775
:10381000665071096730710508F026CDCC0CDD1CAF
:10382000EE1CFF1CCECF86E090E000CD8481958118
:1038300089549109C39708F031CE9F012A5F3F4F09
:10384000BF016A577F4FC12CD12C7601D9014D9110
:103850005C91495051094930510508F01FCED901FA
:1038600012964D915C911397465151094131510582
:1038700040F112964D915C91139746505109473093
:10388000510508F00BCECC0CDD1CEE1CFF1C2C5F90
:103890003F4F26173707D1F6E0E2F0E0F093B90387
:1038A000E093B803C092B403D092B503E092B6039C
:1038B000F092B70327E030E03093B1032093B003D8
:1038C000FDCCD701C601880F991FAA1FBB1F6C0131
:1038D0007D016894C0F8DBCF8481958109970997B1
:1038E00008F00CCE868197818C974F9708F006CE12
:1038F0008085918589974D9708F000CE9F01265FBE
:103900003F4FC12CD12C760145E050E0EFCD9F0117
:1039100026573F4FD9012D913C912C5031092B3026
:10392000310508F0EBCDE0E2F0E0F093B903E0936D
:10393000B803C092B403D092B503E092B603F092FC
:10394000B70388E090E072CCD90112966D917C911A
:103950001397695071096930710508F0CFCDCC0C0F
:10396000DD1CEE1CFF1CBACD848195818254910927
:103970008E9708F0CFCD8F01045C1F4F8DE190E052
:1039800020E030E033CC4D915C91485151094231F7
:10399000510510F0CB0132CC220F331F24CCD901BA
:1039A00012964D915C91139749515109433151053C
:1039B00008F5D701C601880F991FAA1FBB1F6C010C
:1039C0007D016894C0F82C5F3F4F2617370709F038
:1039D000B8CD2EE030E03093B9032093B803C09205
:1039E000B403D092B503E092B603F092B7038FE030
:1039F00090E01CCCD90112964D915C9113974950DF
:103A000051094930510508F0A5CDCC0CDD1CEE1C48
:103A1000FF1CD9CF8CEC96E00C94AF031092C3033B
:103A20001092C20388EE93E0A0E0B0E08093C4035C
:103A30009093C503A093C603B093C70325E632E075
:103A40003093C1032093C0031092CF031092CE0392
:103A50008093D0039093D103A093D203B093D30368
:103A600027E732E03093CD032093CC0345E351E0C8
:103A70005093D9034093D80344E351E05093DB03C0
:103A80004093DA0340E351E05093DD034093DC03BD
:103A900041E351E05093DF034093DE0342E351E002
:103AA0005093E1034093E00346E351E05093E30376
:103AB0004093E2031092E5031092E6031092E703AD
:103AC0001092E80310926C0410926B0480936D04C2
:103AD00090936E04A0936F04B093700430936A04C3
:103AE0002093690445ED50E05093760440937504AB
:103AF00044ED50E0509378044093770440ED50E05B
:103B000050937A044093790441ED50E050937C0443
:103B100040937B0442ED50E050937E0440937D043B
:103B200046ED50E05093800440937F04109282044D
:103B30001092830410928404109285041092090557
:103B40001092080580930A0590930B05A0930C052D
:103B5000B0930D05309307052093060585EC90E0A2
:103B6000909313058093120584EC90E090931505D3
:103B70008093140580EC90E09093170580931605D0
:103B800081EC90E0909319058093180582EC90E009
:103B900090931B0580931A0586EC90E090931D0589
:103BA00080931C0510921F0510922005109221058C
:103BB0001092220586E38093B60787E38093B707C8
:103BC00088E38093B80789E38093B9078BE18093FA
:103BD000BA078DE18093BB078AE18093BC078CE133
:103BE0008093BD0784E08093BE0787E08093BF0782
:103BF0001092C00784EB8093C10786E18093C207CF
:103C000088E18093C30787E18093C40789E18093AB
:103C1000C507E091B106EC3020F08FEF8093C60726
:103C200010C081E08E0F8093B106E093C60725E0B7
:103C3000E29FF0011124EB58F94F88EB9BE092834F
:103C40008183E091B106EC3020F08FEF8093C707BD
:103C500010C081E08E0F8093B106E093C70785E026
:103C6000E89FF0011124EB58F94F88EB9BE0928319
:103C700081838CE08093950784E28093960786E0A9
:103C80008093970785E0809398078FE18093990749
:103C90008EE180939A0783E280939B0782E2809370
:103CA0009C0785E480939D0784E480939E0780E4CD
:103CB0008093A1071092A6071092A7071092A80759
:103CC0001092A9071092AA071092AB071092AC07A6
:103CD0001092AD07E7EDF6E08FEF9FEFDC01128267
:103CE00013821482158216821782108611868387AA
:103CF0009487A587B6878787908BA18BB28B128616
:103D000011821082739627E0E539F20741F78DE0C2
:103D100090E00E94EA21FC011382128289E892E07D
:103D200091838083118687E2848384E1828784E0A3
:103D300083871486F093D406E093D3061092D506B9
:103D40001092D60685E28093A4051092A60565E937
:103D500072E08CEC96E00E94B40388EC90E09093C3
:103D6000B3068093B2069093B5068093B40682E8BA
:103D700090E09093B7068093B6061092B8068091B3
:103D8000C5069091C606A091C706B091C80680935B
:103D9000B9069093BA06A093BB06B093BC06809375
:103DA000BD069093BE06A093BF06B093C00688EBF5
:103DB0009EE1A5E0BEE38093C1069093C206A09366
:103DC000C306B093C4068DEC9CECACECBDE38093D1
:103DD000C5069093C606A093C706B093C806109276
:103DE000C9061092CB061092CA0608950E94381F89
:103DF00008F481E00895E89409C097FB3EF490959B
:103E00008095709561957F4F8F4F9F4F9923A9F0B3
:103E1000F92F96E9BB279395F69587957795679542
:103E2000B795F111F8CFFAF4BB0F11F460FF1BC086
:103E30006F5F7F4F8F4F9F4F16C0882311F096E919
:103E400011C0772321F09EE8872F762F05C06623C7
:103E500071F096E8862F70E060E02AF09A95660F80
:103E6000771F881FDAF7880F9695879597F9089539
:103E7000990F0008550FAA0BE0E8FEEF161617067B
:103E8000E807F907C0F012161306E407F50798F0E3
:103E9000621B730B840B950B39F40A2661F0232BFC
:103EA000242B252B21F408950A2609F4A140A69578
:103EB0008FEF811D811D08950E946F1F0C94E01FDC
:103EC0000E94D21F38F00E94D91F20F0952311F0D4
:103ED0000C94C91F0C94CF1F11240C9414200E9421
:103EE000F11F70F3959FC1F3950F50E0551F629F2E
:103EF000F001729FBB27F00DB11D639FAA27F00D43
:103F0000B11DAA1F649F6627B00DA11D661F829F69
:103F10002227B00DA11D621F739FB00DA11D621F4E
:103F2000839FA00D611D221F749F3327A00D611D6B
:103F3000231F849F600D211D822F762F6A2F11244D
:103F40009F5750409AF0F1F088234AF0EE0FFF1F80
:103F5000BB1F661F771F881F91505040A9F79E3FD7
:103F6000510580F00C94C91F0C9414205F3FE4F3BA
:103F7000983ED4F3869577956795B795F795E7952D
:103F80009F5FC1F7FE2B880F911D9695879597F936
:103F9000089597F99F6780E870E060E008959FEFCB
:103FA00080EC089500240A941616170618060906D0
:103FB000089500240A94121613061406050608959F
:103FC000092E0394000C11F4882352F0BB0F40F427
:103FD000BF2B11F460FF04C06F5F7F4F8F4F9F4F67
:103FE000089557FD9058440F551F59F05F3F71F0E9
:103FF0004795880F97FB991F61F09F3F79F0879550
:104000000895121613061406551FF2CF4695F1DFD8
:1040100008C0161617061806991FF1CF8695710568
:10402000610508940895E894BB2766277727CB019C
:1040300097F90895052E97FB1EF400940E943120F5
:1040400057FD07D00E94442007FC03D04EF40C9487
:10405000312050954095309521953F4F4F4F5F4F00
:10406000089590958095709561957F4F8F4F9F4FE4
:1040700008950E946620A59F900DB49F900DA49F67
:10408000800D911D11240895A1E21A2EAA1BBB1BBD
:10409000FD010DC0AA1FBB1FEE1FFF1FA217B30714
:1040A000E407F50720F0A21BB30BE40BF50B661F2A
:1040B000771F881F991F1A9469F7609570958095EE
:1040C00090959B01AC01BD01CF010895A29FB00165
:1040D000B39FC001A39F700D811D1124911DB29F3C
:1040E000700D811D1124911D0895DB018F939F9305
:1040F0000E943920BF91AF91A29F800D911DA39F77
:10410000900DB29F900D11240895991B79E004C081
:10411000991F961708F0961B881F7A95C9F7809506
:104120000895EE0FFF1F881F8BBF0790F691E02DBB
:1041300019940F93083090F0982F872F762F652FC2
:10414000542F432F322F22270850F4CF220F331F32
:10415000441F551F661F771F881F991F0A95B2F7C6
:104160000F91089597FB10F8169400080F930830EC
:1041700098F00850232F342F452F562F672F782F74
:10418000892F902DF4CF059497958795779567950E
:1041900057954795379527950A95AAF70F91089552
:1041A0005058BB27AA270E94E8200C94E01F0E94C9
:1041B000D21F38F00E94D91F20F039F49F3F19F424
:1041C00026F40C94CF1F0EF4E095E7FB0C94C91F66
:1041D000E92F0E94F11F58F3BA176207730784078B
:1041E000950720F079F4A6F50C9413200EF4E095D1
:1041F0000B2EBA2FA02D0B01B90190010C01CA01A1
:10420000A0011124FF27591B99F0593F50F4503E4B
:1042100068F11A16F040A22F232F342F4427585F3D
:10422000F3CF469537952795A795F0405395C9F755
:104230007EF41F16BA0B620B730B840BBAF091500D
:10424000A1F0FF0FBB1F661F771F881FC2F70EC0AC
:10425000BA0F621F731F841F48F48795779567957F
:10426000B795F7959E3F08F0B0CF9395880F08F06B
:104270009927EE0F9795879508950E9451210C94E8
:10428000E01F0E94D91F58F00E94D21F40F029F46D
:104290005F3F29F00C94C91F51110C9414200C9409
:1042A000CF1F0E94F11F68F39923B1F3552391F3B7
:1042B000951B550BBB27AA2762177307840738F095
:1042C0009F5F5F4F220F331F441FAA1FA9F335D0F2
:1042D0000E2E3AF0E0E832D091505040E695001CA6
:1042E000CAF72BD0FE2F29D0660F771F881FBB1F60
:1042F000261737074807AB07B0E809F0BB0B802D3E
:10430000BF01FF2793585F4F3AF09E3F510578F069
:104310000C94C91F0C9414205F3FE4F3983ED4F32F
:10432000869577956795B795F7959F5FC9F7880F3D
:10433000911D9695879597F90895E1E0660F771F8F
:10434000881FBB1F621773078407BA0720F0621B20
:10435000730B840BBA0BEE1F88F7E09508950E944B
:10436000B6216894B1110C94142008950E94F91F8D
:1043700088F09F5798F0B92F9927B751B0F0E1F026
:10438000660F771F881F991F1AF0BA95C9F714C0D6
:10439000B13091F00E941320B1E008950C941320E5
:1043A000672F782F8827B85F39F0B93FCCF386950F
:1043B00077956795B395D9F73EF49095809570956C
:1043C00061957F4F8F4F9F4F08950E94381F08F4CB
:1043D0008FEF0895CF93DF938230910510F482E040
:1043E00090E0E091D707F091D80720E030E0C0E0FE
:1043F000D0E0309711F14081518148175907C0F042
:104400004817590761F482819381209719F09B83A3
:104410008A832BC09093D8078093D70726C0211595
:10442000310519F04217530718F49A01BE01DF0154
:10443000EF010280F381E02DDCCF2115310509F178
:10444000281B390B2430310590F412968D919C91E4
:1044500013976115710521F0FB019383828304C0DA
:104460009093D8078093D707FD01329644C0FD0191
:10447000E20FF31F81939193225031092D933C93C6
:104480003AC02091D5073091D607232B41F42091D3
:104490005502309156023093D6072093D5072091CC
:1044A0005302309154022115310541F42DB73EB726
:1044B0004091570250915802241B350BE091D507CB
:1044C000F091D607E217F307A0F42E1B3F0B281735
:1044D000390778F0AC014E5F5F4F2417350748F07D
:1044E0004E0F5F1F5093D6074093D507819391934A
:1044F00002C0E0E0F0E0CF01DF91CF9108950F938B
:104500001F93CF93DF93009709F48CC0FC0132977F
:10451000138212820091D7071091D8070115110557
:1045200081F420813181820F931F2091D507309132
:10453000D6072817390779F5F093D607E093D50702
:1045400071C0D80140E050E0AE17BF0750F412969A
:104550002D913C911397AD012115310509F1D90138
:10456000F3CF9D01DA013383228360817181860F4D
:10457000971F8217930769F4EC0128813981260F70
:10458000371F2E5F3F4F318320838A819B81938326
:104590008283452B29F4F093D807E093D70742C0D4
:1045A0001396FC93EE931297ED01499159919E0158
:1045B000240F351FE217F30771F480819181840F76
:1045C000951F029611969C938E93828193811396E8
:1045D0009C938E931297E0E0F0E0D80112968D91B3
:1045E0009C911397009719F0F8018C01F6CF8D91EB
:1045F0009C9198012E5F3F4F820F931F2091D5070A
:104600003091D6072817390769F4309729F41092AA
:10461000D8071092D70702C0138212821093D607D0
:104620000093D507DF91CF911F910F9108956F925D
:104630007F928F929F92AF92BF92CF92DF92EF9232
:10464000FF920F931F93CF93DF93EC01009789F4B0
:10465000CB01DF91CF911F910F91FF90EF90DF90F1
:10466000CF90BF90AF909F908F907F906F900C9461
:10467000EA21FC01E60FF71F9C0122503109E217E5
:10468000F30708F4ACC0D9010D911C9111970617DE
:104690001707B0F00530110508F49FC0C801049752
:1046A0008617970708F499C002501109061B170BCB
:1046B000019311936D937C93CF010E947F228DC053
:1046C0005B01A01AB10A4C01800E911EA091D70780
:1046D000B091D80740E050E0E12CF12C109709F49C
:1046E0004AC0A815B905D1F56D907C90119763016A
:1046F00082E0C80ED11CCA14DB0480F1A3014A1960
:104700005B096A0182E0C80ED11C1296BC90129718
:104710001396AC91B5E0CB16D10440F0B282A383DE
:1047200051834083D9016D937C930AC00E5F1F4F64
:10473000C301800F911FF90191838083EB2DFA2F24
:10474000E114F10431F0D7011396FC93EE93129724
:1047500044C0F093D807E093D7073FC08D919C9158
:1047600011974817590708F4AC017D0112960D9076
:10477000BC91A02DB3CF8091D5079091D607881515
:104780009905E1F446175707C8F4809153029091B8
:104790005402009741F48DB79EB740915702509153
:1047A0005802841B950BE817F907C8F4F093D60755
:1047B000E093D507F901718360830FC0CB010E949C
:1047C000EA217C01009759F0A801BE010E9405244E
:1047D000CE010E947F22C70104C0CE0102C080E04A
:1047E00090E0DF91CF911F910F91FF90EF90DF90BC
:1047F000CF90BF90AF909F908F907F906F900895D3
:1048000081E090E0F8940C941524FB01DC0102C0D7
:1048100001900D9241505040D8F70895FB01DC0102
:1048200001900D920020E1F7089511E0C0E9D1E078
:1048300000E006C0802FFE010E9491202196011DFC
:0E484000C139D10780E00807A9F7F894FFCF2F
:10484E00FF000042757267657200000000000000F4
:10485E000000000000000043686565736520427526
:10486E007267657200000000000000416C6C20420F
:10487E0075726765720000000000000000000053B2
:10488E00657475700000000000000000000000005C
:10489E000000000000D90720000000400014005462
:1048AE000000000000470A170A1F03F1090F0A0053
:1048BE000AF209000000008502C5010902CC023A85
:1048CE000218022C02000000005109C5011F031E30
:1048DE000320000D0A00496E76616C6964207365D1
:1048EE0072766F2069642100536572766F20616E57
:1048FE00676C65206973206F7574206F6620726116
:10490E006E676521000A0D00526F626F7420737519
:10491E007220626C616E6300526F626F74207375E9
:10492E0072206E6F69720043616C696272617469A4
:08493E006F6E2066696E6900CE
:00000001FF
