:100000000C9491010C94C2010C94C2010C94C20195
:100010000C94C2010C94C2010C94C2010C94C20154
:100020000C94C2010C94D90B0C94D90B0C94D90BE1
:100030000C94C2010C942E040C94C2010C94C201C5
:100040000C94C2010C9476080C94C2010C94C20169
:100050000C94C2010C94C2010C94C2010C94331292
:100060000C94C2010C94AD050C9483050C94C20150
:100070000C94C2010C94C2010C94C2010C94C201F4
:100080000C94C2010C94C2010C94C2010C94C201E4
:100090000C94C2010C94C2010C94C2010C94E30BA9
:1000A0000C94C2010C94C2010C94C2010C94C201C4
:1000B0000C94C2010C94C2010C94C2010C94D7059B
:1000C0000C94C2010C94C2010C94C2010C94590509
:1000D0000C942F050C94C2010C9405050C94DB04C0
:1000E0000C94C201620767076C0776078007F9075F
:1000F0008A0792079A07A407AE07B807C707D10770
:10010000F907DB07E507EF07631166115511591170
:100110005F119D116A116E11741178117C11821199
:1001200086118A119D119011941198110C948611C9
:100130000C94D1070C9409020C941F030C94801C9E
:100140000C94F9070C9498110C947C1C0C949D1140
:100150000C9466110C94170A0C94AE070C94620769
:100160000C9451090C949A070C9492070C942C024D
:100170000C94B8070C9478110C9455110C947C11C4
:100180000C94C7070C948A110C9463110C94A40767
:100190000C94CC020C94F2090C94C5010C943A0214
:1001A0000C9474110C94EF070C940F0A0C94470AEA
:1001B0000C94E5070C9418020C948A070C946E11A9
:1001C0000C9467070C9459110C941E030C94821123
:1001D0000C9480070C9494110C94000A0C949011C8
:1001E0000C946A110C946C070C945F110C94DB074F
:1001F0000C94F1090C9476070C9485020000200001
:100200002300260029002C002F00320000010000EE
:100210000301060109010200002200250028002B2D
:10022000002E003100340002010000050108010B1E
:100230000105050505070508080808020202020A6B
:100240000A08080404040401010101010101010379
:1002500003030303030303040707070C0C0C0C0C34
:100260000C0C0C0202020206060606060606060B27
:100270000B0B0B0B0B0B0B0102102020080810209E
:100280004010204080020102010804020101020422
:1002900008102040808040201008040201800402E1
:1002A0000180402010080402010804020101020438
:1002B0000810204080010204081020408000000A3D
:1002C0000B02090C0D0E08070304010000000000DA
:1002D000000000000000000000000000000000001E
:1002E00000000000000000000012111000000000DB
:1002F00000000000000000000000000000000000FE
:1003000000000000002100240027002A002D0030FA
:1003100000330001010000040107010A0100801CF4
:100320007C1C11241FBECFEFD1E2DEBFCDBF00E0A9
:100330000CBF13E0A0E0B2E0E4E4F7E400E00BBFA0
:1003400002C007900D92AA34B107D9F728E0AAE4B9
:10035000B3E001C01D92AD37B207E1F711E0C0E98B
:10036000D1E000E006C021970109802FFE010E9424
:100370000C20CF38D10780E00807A9F70E947D1232
:100380000C9490230C9400000895CF92DF92EF928A
:10039000FF920F931F93CF93DF936C017A018B0130
:1003A000C0E0D0E0CE15DF0589F0D8016D918D0158
:1003B000D601ED91FC910190F081E02DC6011995D7
:1003C000892B11F47E0102C02196ECCFC701DF9189
:1003D000CF911F910F91FF90EF90DF90CF900895F4
:1003E000FC01A089B1898C91A689B78982FD0FC0D3
:1003F0009C91818D8F5F8F73228D821749F0218DA3
:10040000DF01A20FB11D5D969C93818F08958C91A1
:100410000895FC01538D448D252F30E0842F90E00A
:10042000821B930B541710F0CF96089501970895EF
:10043000FC01918D828D981761F0828DDF01A80FEC
:10044000B11D5D968C91928D9F5F9F73928F90E00E
:1004500008958FEF9FEF0895FC01918D828D98177D
:1004600031F0828DE80FF11D858D90E008958FEFBA
:100470009FEF0895FC01918D228D892F90E0805C83
:100480009F4F821B91098F73992708958EE194E005
:100490000E943A0221E0892B09F420E0822F08957E
:1004A0008BEB94E00E943A0221E0892B09F420E0D2
:1004B000822F089588E595E00E943A0221E0892B79
:1004C00009F420E0822F0895FC01848DDF01A80F3C
:1004D000B11DA35ABF4F2C91848D90E001968F736C
:1004E0009927848FA689B7892C93A089B1898C918B
:1004F00080648C93938D848D981306C00288F38951
:10050000E02D80818F7D80830895EF92FF920F937D
:100510001F93CF93DF93EC0181E0888F9B8D8C8DAF
:10052000981305C0E889F989808185FD24C0F62EDD
:100530000B8D10E00F5F1F4F0F731127E02E8C8D76
:10054000E8120CC00FB607FCFACFE889F989808160
:1005500085FFF5CFCE010E946402F1CF8B8DFE01A5
:10056000E80FF11DE35AFF4FF0820B8FEA89FB89F8
:100570008081806207C0EE89FF896083E889F989FC
:1005800080818064808381E090E0DF91CF911F9132
:100590000F91FF90EF900895CF93DF93EC01888D3A
:1005A0008823C9F0EA89FB89808185FD05C0A88977
:1005B000B9898C9186FD0FC00FB607FCF5CF8081FD
:1005C00085FFF2CFA889B9898C9185FFEDCFCE0147
:1005D0000E946402E7CFDF91CF910895E0E0F0E060
:1005E000199480E090E0892B21F00E945A02811139
:1005F00019C080E090E0892B41F080E090E0892BE9
:1006000021F00E940000811110C00E94500281114F
:100610000FC080E090E0892B81F00E94460281119A
:100620000AC008950E940000E4CF0E940000EDCFB0
:100630000E94EE02EECF0C9400000895089580E031
:1006400090E008950E947B230F931F93CF93DF9335
:100650008C01EB01FC01808191810097B1F06881F0
:1006600079816115710579F0428153812C813D8139
:100670004217530740F00E9489238C819D81F80125
:100680009583848313C00E94FA2188819981F8019F
:10069000918380838A819B81938382838C819D81D6
:1006A00095838483198218821B821A821D821C8280
:1006B000DF91CF911F910F9108950F931F93CF93C7
:1006C000DF93EC0188819981009729F02A813B8191
:1006D0002617370788F48B016F5F7F4F0E949222A5
:1006E000009761F0998388831B830A832C813D8165
:1006F000232B11F4FC01108281E001C080E0DF9126
:10070000CF911F910F910895EF92FF920F931F9336
:10071000CF93DF93EC017B018A01BA010E945D0354
:100720002881398181110DC02115310519F0C901C8
:100730000E94FA21198218821D821C821B821A8251
:1007400006C01D830C83B701C9010E948923CE0115
:10075000DF91CF911F910F91FF90EF900895FC01D1
:10076000808191810C94FA21FC0111821082138204
:100770001282158214826115710551F0FB010190FE
:100780000020E9F73197AF01461B570B0C94840307
:100790000895BF92CF92DF92EF92FF920F931F9333
:1007A000CF93DF937C016B01EA01890124173507A0
:1007B00020F48D2FE901042F182F6AE173E0C7019F
:1007C0000E94B403D60114968D919C911597C81779
:1007D000D907C8F58017910708F48C01D601ED916F
:1007E000FC911197E00FF11FB08010824D915C9148
:1007F000BA016C0F7D1F6115710561F0FB0101905D
:100800000020E9F73197AF01461B570BC7010E9443
:10081000840313C0F70180819181009711F00E9439
:10082000FA21D70111961C921E9215961C921E92C7
:10083000149713961C921E921297D601ED91FC917B
:10084000E00FF11FB082C701DF91CF911F910F918F
:10085000FF90EF90DF90CF90BF9008951F920F927E
:100860000FB60F9211240BB60F922F933F934F9315
:100870005F936F937F938F939F93AF93BF93EF9308
:10088000FF938091680390916903A0916A03B091EE
:100890006B03892B8A2B8B2B59F180916703E09195
:1008A0006503F091660390818927808380916803B6
:1008B00090916903A0916A03B0916B031816190611
:1008C0001A061B060CF056C08091680390916903CC
:1008D000A0916A03B0916B030197A109B1098093BC
:1008E000680390936903A0936A03B0936B0342C0BB
:1008F00080910002E6E1F2E0E4919FEF9093000224
:10090000E230C9F050F4EE2399F0E13081F5909196
:100910006F009D7F90936F002AC0E43019F1E0F0E2
:10092000E53029F5909173009D7F909373001FC06F
:1009300010926E001CC0909170009D7F909370008B
:1009400091E09093B0009091B100987F9460909363
:10095000B1001092B3000BC0909171009D7F9093F5
:10096000710005C0909172009D7F9093720060E0CD
:100970000E94150DFF91EF91BF91AF919F918F91C3
:100980007F916F915F914F913F912F910F900BBE8F
:100990000F900FBE0F901F901895DC01ED91FC9108
:1009A000DB0114964D915C9115976D917C910280BD
:1009B000F381E02D19941F920F920FB60F9211241C
:1009C0000BB60F922F933F934F935F936F937F9349
:1009D0008F939F93AF93BF93EF93FF938EE194E038
:1009E0000E946402FF91EF91BF91AF919F918F910F
:1009F0007F916F915F914F913F912F910F900BBE1F
:100A00000F900FBE0F901F9018951F920F920FB668
:100A10000F9211240BB60F922F933F934F935F9336
:100A20006F937F938F939F93AF93BF93EF93FF93B6
:100A30008EE194E00E94F001FF91EF91BF91AF91A0
:100A40009F918F917F916F915F914F913F912F91E6
:100A50000F900BBE0F900FBE0F901F9018951F9216
:100A60000F920FB60F9211240BB60F922F933F9354
:100A70004F935F936F937F938F939F93AF93BF93A6
:100A8000EF93FF938BEB94E00E946402FF91EF9150
:100A9000BF91AF919F918F917F916F915F914F9196
:100AA0003F912F910F900BBE0F900FBE0F901F9094
:100AB00018951F920F920FB60F9211240BB60F923A
:100AC0002F933F934F935F936F937F938F939F9356
:100AD000AF93BF93EF93FF938BEB94E00E94F001F1
:100AE000FF91EF91BF91AF919F918F917F916F9106
:100AF0005F914F913F912F910F900BBE0F900FBEC2
:100B00000F901F9018951F920F920FB60F921124FD
:100B10000BB60F922F933F934F935F936F937F93F7
:100B20008F939F93AF93BF93EF93FF9388E595E0E7
:100B30000E946402FF91EF91BF91AF919F918F91BD
:100B40007F916F915F914F913F912F910F900BBECD
:100B50000F900FBE0F901F9018951F920F920FB617
:100B60000F9211240BB60F922F933F934F935F93E5
:100B70006F937F938F939F93AF93BF93EF93FF9365
:100B800088E595E00E94F001FF91EF91BF91AF9150
:100B90009F918F917F916F915F914F913F912F9195
:100BA0000F900BBE0F900FBE0F901F9018951F92C5
:100BB0000F920FB60F9211240BB60F922F933F9303
:100BC0004F935F936F937F938F939F93AF93BF9355
:100BD000CF93DF93EF93FF932091F60530E0F90177
:100BE000E354FD4F8491F901E958FD4FD491F90187
:100BF000EF5CFD4FC491CC23A1F081110E944811FC
:100C0000EC2FF0E0EE0FFF1FE450FE4FA591B491E2
:100C1000EC91ED2331E020E009F430E0832F922FB6
:100C200002C080E090E02091FA053091FB052F5F33
:100C30003F4F3093FB052093FA052091F9052536A7
:100C400018F026E02093F5052091F5052430D9F120
:100C500028F4223069F02330D9F060C0253009F43F
:100C600053C0263009F05AC021E02093C60653C075
:100C7000009709F053C02091FA053091FB05243606
:100C8000310508F443C01092C6061092F9051DC044
:100C90008130910509F042C0E091F90521E02E0F65
:100CA0002093F905F0E02091FA053091FB05EE0F55
:100CB000FF1FEB50FA4F308727831092FB051092ED
:100CC000FA0524E029C00097B9F4E091F90521E084
:100CD0002E0F2093F905F0E02091FA053091FB05E5
:100CE000EE0FFF1FEB50FA4F308727831092FB0562
:100CF0001092FA0523E010C02091FA053091FB050F
:100D00002536310558F007C0009741F41092FB05D5
:100D10001092FA0503C025E02093F5052091F8050F
:100D20002223B9F0892B51F48091F705882321F013
:100D30008091F70561E009C02F9A0BC08091F705FB
:100D4000882331F08091F70560E00E94150D01C005
:100D50002F98FF91EF91DF91CF91BF91AF919F912C
:100D60008F917F916F915F914F913F912F910F9054
:100D70000BBE0F900FBE0F901F901895CF92DF9271
:100D8000EF92FF92CF93DF93EC01072E000C880BBC
:100D9000990B0E94781E6B017C0120E030E040E45A
:100DA0005FE30E94D71E20E030E048E452E40E9456
:100DB000B8200E942A21C617D707D4F020E030E0DF
:100DC00040EA5FE3C701B6010E94D71E20E030E091
:100DD00048E452E40E94B82020E030E040E85FE3BD
:100DE0000E944C200E942A2121E06C177D070CF400
:100DF00020E0822F90E0DF91CF91FF90EF90DF9085
:100E0000CF9008958F929F92AF92BF92CF92DF9230
:100E1000EF92FF920F931F93CF93DF93EC016A0140
:100E20007B0120E030E04FE753E4C701B6010E94A8
:100E3000D71E4B015C0120E030E0A9010E94602137
:100E400018161CF4C501B40103C0C501B4019058C3
:100E50000E942A218B0120E030E0A901C701B601E0
:100E60000E946021181614F460E001C061E08981DD
:100E70000E94150D0F3F110509F014F4112702C04F
:100E80000FEF10E0C88161E08C2F0E949E110115C8
:100E9000110509F4B1C00F3F110509F4AFC0EC2FE3
:100EA000F0E0E354FD4FE4914E2F50E0FA0131970A
:100EB000E231F10508F09DC08827EE58FF4F8F4FB3
:100EC0000C940C2084B5806884BD07BDA7C084B590
:100ED000806284BD08BDA2C080918000806880933C
:100EE0008000109389000093880098C08091800052
:100EF00080628093800010938B0000938A008EC0E4
:100F00008091800088608093800010938D00009312
:100F10008C0084C08091B00080688093B000009302
:100F2000B3007CC08091B00080628093B0000093D9
:100F3000B40074C0809190008068809390001093FA
:100F40009900009398006AC080919000806280931D
:100F5000900010939B0000939A0060C080919000D5
:100F600088608093900010939D0000939C0056C071
:100F70008091A00080688093A0008091A0008F7B6A
:100F80008093A0001093A9000093A80047C080910F
:100F9000A00080628093A0001093AB000093AA0091
:100FA0003DC08091A00088608093A0001093AD00A8
:100FB0000093AC0033C080912001806880932001B1
:100FC000109329010093280129C08091200180629B
:100FD0008093200110932B0100932A011FC0809160
:100FE000200188608093200110932D0100932C0133
:100FF00015C00038110514F460E001C061E08C2FC9
:10100000DF91CF911F910F91FF90EF90DF90CF90E4
:10101000BF90AF909F908F900C94150DDF91CF9162
:101020001F910F91FF90EF90DF90CF90BF90AF9006
:101030009F908F9008951F93CF93DF93EC01162F0D
:1010400088818C3008F04DC061E0812F0E949E1194
:10105000E88195E09E9FF0011124E953F94F1F7339
:101060008081807C182B10831382E8819E9FF00181
:101070001124E953F94F148288816CE00E9400200A
:101080009CE0899FA001112420E030E095E0B901A7
:10109000640F751F969FF001979FF00D1124E9537F
:1010A000F94F608166FD13C02F5F3F4F2C30310533
:1010B00071F781110CC01092800082E08093810052
:1010C000109285001092840086BB80936F00E881A7
:1010D00085E0E89FF0011124E953F94F8081806495
:1010E00080838881DF91CF911F9108951F920F9285
:1010F0000FB60F9211240BB60F922F933F934F937D
:101100005F936F937F938F939F93AF93BF93EF936F
:10111000FF938091640387FF05C0109285001092B1
:10112000840016C020916403022E000C330B8091C2
:10113000030790E0281739075CF43091640325E039
:101140003203F0011124E953F94F808186FD15C067
:10115000809164038F5F8093640320916403022E67
:10116000000C330B8091030790E02817390794F4A3
:10117000809164038C302CF10DC0309164033203F4
:10118000F0011124E953F94F808160E08F730E94D0
:10119000150DDECF809184009091850084349C49A8
:1011A00018F480E49CE905C080918400909185004A
:1011B000049690938900809388008FEF8093640356
:1011C0002AC040918400509185003091640325E04D
:1011D0003203F0011124E953F94F81819281840F88
:1011E000951F9093890080938800309164033203A7
:1011F000F0011124E953F94F808186FF0CC0309132
:1012000064033203F0011124E953F94F808161E056
:101210008F730E94150DFF91EF91BF91AF919F9138
:101220008F917F916F915F914F913F912F910F908F
:101230000BBE0F900FBE0F901F9018958EBD000033
:101240000DB407FEFDCF8EB50895FC01248131E079
:101250003093DE03209300041092DF031092010408
:101260008485682B82E194E00E94470A0C94F40E76
:101270000F931F93CF938C01C62F0E9425096C2FCB
:101280006460C8010E9425096C2F6B7FC8010E9411
:10129000250983EC90E00197F1F7CF911F910F9111
:1012A00008950F931F93CF938C01C62F607F6160C9
:1012B0000E94380980E1C89FB00111246160C80113
:1012C0000E94380981E090E0CF911F910F9108951D
:1012D0000F931F93CF938C01C62F607F0E94380914
:1012E00080E1C89FB0011124C801CF911F910F91D7
:1012F0000C943809CF93DF93CDB7DEB728970FB69C
:10130000F894DEBF0FBECDBF9C0188E0E9E5F2E0B6
:10131000DE01119601900D928A95E1F7F901808521
:10132000841710F44FEF480FFE013196E40FF11DC2
:10133000E40FF11D9081690F6068C90128960FB60E
:10134000F894DEBF0FBECDBFDF91CF910C9468093A
:10135000CF93DF93EC0161E00E9468098BE39FE18A
:101360000197F1F78985882339F040E060E0CE01EC
:10137000DF91CF910C947A09DF91CF91089585ED9B
:101380008093BC008091BC0084FDFCCF1092DD03F3
:10139000089540919003262F30E0240F311D213213
:1013A0003105DCF42091DD032430C9F4FC0180E038
:1013B00090E0861758F4309190032191DC01A259F6
:1013C000BC4FA30FB11D2C930196F3CF80919003D6
:1013D000680F6093900380E0089581E0089582E0B3
:1013E0000895089581E090E030916D0320916C03A1
:1013F000321710F480E090E091958195910908955D
:1014000080916D0390916C03891730F48F5F809306
:101410006D0380E090E008958FEF9FEF0895809135
:101420006C0390E020916D03821B91090895CF9287
:10143000DF92EF92FF920F931F93CF93DF937C0184
:10144000262F972F8A018091DE03882391F0C62FE3
:10145000D72F6E01C40ED51ECC15DD0571F0699134
:10146000D701ED91FC910190F081E02DC701199514
:10147000F3CF642F822F0E94C909C801DF91CF9159
:101480001F910F91FF90EF90DF90CF900895CF9331
:10149000DF931F92CDB7DEB769832091DE0322234D
:1014A000D1F020910104203240F021E030E0FC0135
:1014B0003383228380E090E015C08091DF03E82F22
:1014C000F0E0E052FC4F998190838F5F8093DF03BF
:1014D0008093010405C061E0CE0101960E94C90914
:1014E00081E090E00F90DF91CF91089560916308C3
:1014F00070E08BE698E00E941B086AEA81E00E9497
:10150000980F64EF71E080E090E00C94F911CF93B4
:10151000DF93CAE5D8E0698570E08BE698E00E9429
:101520001B0865E581E00E94980F64EF71E080E0A0
:1015300090E00E94F911688570E08AE698E00E94C8
:101540001B0860E080E00E94980F64EF71E080E08B
:1015500090E00E94F911688570E08AE698E00E94A8
:101560001B086BE780E00E94980F64EF71E080E059
:1015700090E0DF91CF910C94F9114091690750915F
:101580006A0760916B0770916C07705882E598E06C
:101590000E9402074091690750916A0760916B07AA
:1015A00070916C0784E598E00E94020764EF71E097
:1015B00080E090E00E94F9114091690750916A071C
:1015C00060916B0770916C07705884E598E00E94F9
:1015D00002070E949610892BE1F70E94961002974D
:1015E000E1F740E050E0BA0182E598E00E9402078E
:1015F00040E050E060E070E884E598E00C94020779
:101600001F93CF93DF93EC0111E080915C07811170
:10161000C3C040915D0750915E0760915F07709174
:10162000600782E598E00E940207409161075091AF
:1016300062076091630770916407705884E598E0D1
:101640000E9402070E9496108230910599F4109230
:101650006D078091650790916607A0916707B0912B
:1016600068078093610790936207A0936307B09324
:10167000640720C08430910551F38130910519F53C
:1016800010926D078091650790916607A09167079A
:10169000B09168078093610790936207A0936307F6
:1016A000B09364078091690790916A07A0916B07D6
:1016B000B0916C0780935D0790935E07A0935F07DE
:1016C000B0936007A2CF079709F09FCF80916D0775
:1016D00081119BCF10936D0780916E0790916F07DA
:1016E000019690936F0780936E078C179D0709F002
:1016F0008CCF81E00E94C1101C161D06D4F5C130AC
:10170000D10511F50E94760A0E94BD0A81E00E946F
:10171000C1104DEC5CEC6CEC7DE382E598E00E943E
:1017200002074DEC5CEC6CEC7DEB84E598E00E94EC
:1017300002076CE271E080E090E00E94F91182E023
:1017400090E00E94000B61CFC230D105B9F40E9435
:10175000870A68E873E180E090E00E94F9110E9436
:10176000760A0E94870A68E873E180E090E00E94B0
:10177000F9110E94760A0E94D00B47CF0E94870A77
:101780000E94BD0A80E00E94C11010935C07109275
:101790006F0710926E0739CFDF91CF911F91089597
:1017A0000E94BD0A81E00E94C11083E090E00C9489
:1017B000000B1F920F920FB60F9211240F900FBEC5
:1017C0000F901F9018951F920F920FB60F92112431
:1017D0000BB60F922F933F934F935F936F937F932B
:1017E0008F939F93AF93BF93EF93FF938091B90033
:1017F000887F803609F49CC068F5883209F45BC0A4
:1018000090F4803109F454C038F4882309F4F6C008
:10181000883009F44DC0F6C0883109F44CC08032DC
:1018200009F45DC0EFC0803409F468C048F4803327
:1018300009F455C0883309F0E5C08093DB03D8C0B4
:10184000803509F44FC0883509F45DC0883409F04B
:10185000D9C0D6C0883909F4C7C0A8F4883709F4BC
:1018600067C038F4883609F463C0803709F460C073
:10187000C9C0883809F4B8C0803909F45FC080381D
:1018800009F0C0C05BC0803B09F486C038F4803AE0
:1018900009F466C0883A09F47FC0B4C0803C09F4FA
:1018A000A7C0883C09F4A4C0883B09F48AC0AAC038
:1018B0008091B80310C09091DA038091D9039817F2
:1018C00070F5E091DA0381E08E0F8093DA03F0E0A7
:1018D000E754FC4F80818093BB0085EC86C08093E9
:1018E000DB038EC0E091DA0381E08E0F8093DA0390
:1018F0008091BB00F0E0E754FC4F80839091DA03C5
:101900008091D9036EC0E091DA0381E08E0F80935D
:10191000DA038091BB00F0E0E754FC4F80838091B4
:10192000DC0381116DC081E08093B70384EA61C05C
:1019300083E08093DD031092B403CFCF8091B40392
:10194000803208F051C0E091B40381E08E0F8093A3
:10195000B4038091BB00F0E0EC56FC4F8083BDCF18
:1019600085EC8093BC001092DD038091B40380323B
:1019700030F4E091B403F0E0EC56FC4F108260913B
:10198000B40370E0E0919203F091930384E993E053
:1019900019951092B40336C084E08093DD03109251
:1019A000910310929003E0918E03F0918F031995AB
:1019B00080919003811105C081E080939003109283
:1019C0006E03E091910381E08E0F80939103F0E02C
:1019D000E259FC4F80818093BB00909191038091EC
:1019E0009003981708F479CF85E88093BC000AC06B
:1019F00085EC8093BC001092DD0304C01092DB03E1
:101A00000E94BF09FF91EF91BF91AF919F918F917C
:101A10007F916F915F914F913F912F910F900BBEEE
:101A20000F900FBE0F901F9018951F93CF93DF93C9
:101A3000282F30E0F901E354FD4F8491F901E95872
:101A4000FD4FD491F901EF5CFD4FC491CC23C9F057
:101A5000162F81110E944811EC2FF0E0EE0FFF1FAE
:101A6000E95EFD4FA591B4918FB7F894111105C0AF
:101A70009C91ED2FE095E92302C0EC91ED2BEC93C6
:101A80008FBFDF91CF911F9108951092DD0381E008
:101A90008093DC031092B70361E084E10E94150D8E
:101AA00061E085E10E94150DE9EBF0E080818E7F19
:101AB000808380818D7F808388E48093B80085E473
:101AC0008093BC000895BF92CF92DF92EF92FF9275
:101AD0000F931F93CF93DF93CDB7DEB72C970FB63D
:101AE000F894DEBF0FBECDBF8C01FC01C4806AE15B
:101AF00073E0CE0107960E94B403D12C84E1E82E56
:101B0000F12C94E1B92E80917A0790E02C2D30E0F1
:101B1000B701681B790B4D2D50E062177307ACF5C8
:101B20009A012C5E3F4F281B390BB801CE0101965C
:101B30000E94C903BE016F5F7F4FCE0107960E94CE
:101B40002403CE0101960E94AF03BE01695F7F4F5F
:101B500080917707909178070E94CD0480917A0751
:101B60009B2D981BD90E409179074F5F437040938E
:101B700079078451C80E60E08091770790917807CB
:101B80000E947A0910927A07BECFF801248135812C
:101B9000B801CE0101960E94C903BE016F5F7F4F5D
:101BA000CE0107960E942403CE0101960E94AF0346
:101BB000BE01695F7F4F80917707909178070E94FF
:101BC000CD0420917A078B859C85820F911D80938F
:101BD0007A076AE173E0CE0101960E94B403F090A7
:101BE0007A07F3E1FF15C8F00D811E810F5F1F4FCB
:101BF000B801CE0101960E945D03882361F029811E
:101C00003A818D819E8166E173E0820F931F0E946D
:101C100089231E830D83F394E4CFBE016F5F7F4F52
:101C200080917707909178070E94CD0440917907C1
:101C300060917A0780917707909178070E947A09DE
:101C4000CE0101960E94AF03CE0107960E94AF031A
:101C50002C960FB6F894DEBF0FBECDBFDF91CF91AB
:101C60001F910F91FF90EF90DF90CF90BF9008955C
:101C70008F929F92AF92BF92CF92DF92EF92FF929C
:101C80000F931F93CF93DF93FC01C081D1812091EB
:101C90000E0430910F04C217D3070CF04BC09E0105
:101CA000220F331FE0910C04F0910D04E20FF31F9B
:101CB00080809180C170DD27F1E0CF27209719F453
:101CC00004E610E002C00CE91FEF7A015B016C0131
:101CD000040F151FB801C4010E94BE06892B99F498
:101CE0000E0D1F1DB801C4010E94BE06892B71F4A0
:101CF000B8016E0D7F1DC4010E94BE06892BE9F05C
:101D000023E030E005C021E030E002C022E030E016
:101D1000F501808191810196821793073CF0F501CE
:101D200011821082F60180819181019691838083D6
:101D3000CE0105C081E090E002C08FEF9FEFDF9100
:101D4000CF911F910F91FF90EF90DF90CF90BF90B8
:101D5000AF909F908F900895E8E5F5E0A089B18954
:101D600082E08C93A485B5851C92A685B7858FECFF
:101D70008C93108EA489B58986E08C93A289B3894F
:101D80008C9180618C93A289B3898C9188608C93AB
:101D9000A289B3898C9180688C930288F389E02DA5
:101DA00080818F7D80830895009769F0FC01019008
:101DB0000020E9F73197AF01481B590BBC0188E5BA
:101DC00095E00C94C50180E090E00895CF93DF93F7
:101DD0000E94D40EEC0188E193E00E94D40E8C0F97
:101DE0009D1FDF91CF9108952091010490910004EF
:101DF000213208F04AC08091DD038111FCCF32E02E
:101E00003093DD0331E03093DC033FEF3093DB03AD
:101E10001092DA032093D903A0EEB3E049EB53E02C
:101E2000FA013E2F341B321718F43D913193F9CF4C
:101E30001092B8032091B803990F922B9093B80396
:101E40009091B703913061F41092B7039091B80369
:101E50009093BB009091BC0093FDF8CF95EC01C02E
:101E600095EE9093BC009091DD039230E1F3909158
:101E7000DB039F3F79F08091DB03803241F080915A
:101E8000DB03803331F084E005C081E003C082E0F1
:101E900001C083E01092DF03109201041092DE0370
:101EA0000895EF92FF921F93CF93DF931F92CDB7C8
:101EB000DEB7162F99E3E92E98E0F92ED7011C968C
:101EC0009C911C9721E02093DE03909300041092D4
:101ED000DF03109201041A960D90BC91A02DED9194
:101EE000FC9111970190F081E02D682FCD0179834D
:101EF0001995F70182859385DC01ED91FC910190A4
:101F0000F081E02D7981672F1995F70182859385FE
:101F1000DC01ED91FC910190F081E02D612F19958C
:101F20000F90DF91CF911F91FF90EF900C94F40EE2
:101F3000CF92DF92EF92FF92CF93DF93823018F02F
:101F40008BE193E00AC090916408691720F09091AA
:101F50006508961750F48DE293E0DF91CF91FF90E2
:101F6000EF90DF90CF900C94E60EE82FF0E0E65A69
:101F7000F74FC089CC3008F072C0262F30E0D0E097
:101F800085E08C9FF0018D9FF00D1124E953F94FEE
:101F90008381283C31059CF528E830E06901C81AA6
:101FA000D10887FDD394CC0CDD1CCC0CDD1C0D2C92
:101FB000000CEE08FF08848128E532E0281B310977
:101FC00087FD3395220F331F220F331FC901330FB3
:101FD000AA0BBB0B9C01AD012C193D094E095F09F1
:101FE000A62FB0E00E94B41F24EB30E040E050E0A8
:101FF0000E94951FC20ED31EE41EF51E1EC048E8A7
:1020000050E06A01C81AD10887FDD394CC0CDD1CBE
:10201000CC0CDD1C2C153D0584F0448188E592E054
:10202000841B910947FD9395880F991F880F991F6D
:1020300069018C159D050CF46C018FB7F89495E03F
:102040009C9FF0019D9FF00D1124E953F94F96E0FC
:10205000C91AD108CC0CDD1CD282C1828FBFDF919E
:10206000CF91FF90EF90DF90CF900895CF93DF93C3
:10207000CDB7DEB72C970FB6F894DEBF0FBECDBF3D
:1020800080917707909178070E94A80910927A07AB
:102090001092790740E060E080917707909178078F
:1020A0000E947A09809101029091020224E1289F06
:1020B000B001299F700D11246D5F7D4FCE010796F1
:1020C0000E94B4031A8219821C821B821E821D8206
:1020D0006F8178856115710531F04B855C85CE0186
:1020E00001960E948403CE0101960E94630DCE01E9
:1020F00001960E94AF03CE0107960E94AF03209184
:1021000001023091020244E1429FC001439F900DC1
:1021100011248D5F9D4F0E94D40E2C960FB6F8941B
:10212000DEBF0FBECDBFDF91CF910895CF93DF9378
:1021300082E40E94DA1131E020E0409108075091DA
:102140000907481759070CF430E0C32FD22F81E458
:102150000E94DA11209106073091070728173907E6
:102160000CF022968FE30E94DA112091040730913F
:102170000507281739070CF02496CE01DF91CF917F
:1021800008950F931F93CF93DF93882371F060918D
:10219000690770916A0780916B0790916C070E94A4
:1021A0002A21EB0100E010E00DC0609169077091F9
:1021B0006A0780916B0790916C070E942A218B011E
:1021C000C0E0D0E04091690750916A0760916B07C9
:1021D00070916C0782E598E00E94020740916907C0
:1021E00050916A0760916B0770916C07705884E595
:1021F00098E00E9402076EE571E080E090E00E94A6
:10220000F911B801110F880B990B0E94781EAB01D0
:10221000BC0182E598E00E940207BE01DD0F880B39
:10222000990B0E94781EAB01BC01705884E598E0C0
:102230000E9402070E9496100797E1F7DF91CF9165
:102240001F910F9108953FB7F89480917508909170
:102250007608A0917708B091780826B5A89B05C0AC
:102260002F3F19F00196A11DB11D3FBFBA2FA92F15
:10227000982F8827820F911DA11DB11DBC01CD0192
:1022800042E0660F771F881F991F4A95D1F708957E
:1022900090E0FC013197E231F10508F04EC088274B
:1022A000EC57FF4F8F4F0C940C20809180008F775C
:1022B00003C0809180008F7D80938000089580917D
:1022C0008000877FF9CF84B58F7702C084B58F7D7A
:1022D00084BD08958091B0008F7703C08091B000D5
:1022E0008F7D8093B0000895809190008F7707C014
:1022F000809190008F7D03C080919000877F8093B4
:10230000900008958091A0008F7707C08091A00071
:102310008F7D03C08091A000877F8093A0000895E7
:10232000809120018F7707C0809120018F7D03C0AD
:1023300080912001877F809320010895CF93DF93C0
:1023400090E0FC01E958FD4F2491FC01EF5CFD4F4A
:102350008491882361F190E0880F991FFC01ED5F63
:10236000FC4FC591D491FC01E95EFD4FA591B4915C
:10237000611109C09FB7F8948881209582238883D2
:10238000EC912E230BC0623061F49FB7F894388132
:10239000822F809583238883EC912E2B2C939FBFD3
:1023A00006C08FB7F894E8812E2B28838FBFDF916A
:1023B000CF910895863308F0865390917B00282FA3
:1023C0002870977F922B90937B0087708064809316
:1023D0007C0080917A00806480937A0080917A00FA
:1023E00086FDFCCF809178002091790090E0922BBF
:1023F00008958F929F92AF92BF92CF92DF92EF9209
:10240000FF926B017C010E9423114B015C01C114FE
:10241000D104E104F104F1F00E942311DC01CB01AD
:1024200088199909AA09BB09883E9340A105B105FD
:1024300070F321E0C21AD108E108F10888EE880E95
:1024400083E0981EA11CB11CC114D104E104F10465
:1024500019F7DDCFFF90EF90DF90CF90BF90AF9056
:102460009F908F9008951F920F920FB60F92112494
:102470002F933F938F939F93AF93BF938091710856
:1024800090917208A0917308B0917408309170080F
:1024900023E0230F2D3720F40196A11DB11D05C0A7
:1024A00026E8230F0296A11DB11D2093700880938A
:1024B000710890937208A0937308B0937408809188
:1024C000750890917608A0917708B09178080196E8
:1024D000A11DB11D8093750890937608A09377088D
:1024E000B0937808BF91AF919F918F913F912F91B9
:1024F0000F900FBE0F901F901895CF93DF93CDB71D
:10250000DEB72C970FB6F894DEBF0FBECDBF789420
:1025100084B5826084BD84B5816084BD85B58260E8
:1025200085BD85B5816085BD80916E008160809399
:102530006E00109281008091810082608093810002
:102540008091810081608093810080918000816012
:10255000809380008091B10084608093B10080916D
:10256000B00081608093B000809191008260809380
:102570009100809191008160809391008091900002
:102580008160809390008091A10082608093A1007F
:102590008091A10081608093A1008091A000816062
:1025A0008093A0008091210182608093210180911D
:1025B00021018160809321018091200181608093BD
:1025C000200180917A00846080937A0080917A0063
:1025D000826080937A0080917A00816080937A0093
:1025E00080917A00806880937A001092C1000E94E6
:1025F000AC0E0E94AC0E61E080913A080E949E11E0
:1026000060E080913A080E94150D60E080913908E1
:102610000E949E1182E194E09093440880934308C5
:1026200010926D0310926C031092DF03109201045C
:102630000E94450D80E090E1A0E0B0E08093460864
:1026400090934708A0934808B09349088AE090E027
:10265000A0E0B0E080934A0890934B08A0934C0808
:10266000B0934D0880E090E0A0E0B0E480934E0885
:1026700090934F08A0935008B093510860E070E128
:1026800085E00E94510F6FE979E380E00E94510FCD
:1026900006E518E0A12CB12CC12CD12C86E6282E01
:1026A00082E0382E9BEC892E97E0992E2BE8622E43
:1026B000772473949601275C374F2901D90114962A
:1026C0009C91149712968C91F501E75CF74F7F016E
:1026D000818F928F61E00E949E1161E0D7015A962E
:1026E0008C910E949E11F20190858681D8018C9375
:1026F000F701968F61E00E949E1160E0D7015E961F
:102700008C910E949E1161E0F80180810E94150D5C
:10271000FFB6F89480914A03811126C0F10194918B
:10272000ECEAF2E08491E92FF0E0EE0FFF1FED5F9D
:10273000FC4FA591B4919C91892321F461E085E33C
:102740000E94150D61E085E30E949E118CB58061A9
:102750008CBD8CB580648CBD61E084E30E949E11C9
:1027600061E083E30E949E1180914A038F5F809312
:102770004A03FFBEC4010197F1F760E0D8018C91D4
:102780000E94150D88E80E941E0983E00E941E0920
:1027900061E0F80180810E94150DC4010197F1F7F5
:1027A00060E0D8018C910E94150D88E90E941E09F5
:1027B00080E00E941E0980E00E941E0980E00E94C5
:1027C0001E0980E00E941E0961E0F80180810E94DC
:1027D000150DC3010197F1F760E0D8018C910E94BB
:1027E000150D80EE0E941E0961E0F80180810E94B3
:1027F000150DF2E0AF0EB11C0E5F1F4FCA94CD282D
:1028000021F0CC24C394D12C55CF0EE518E074E010
:10281000F72EF00E60E0D8018D918D010E949E117F
:10282000F012F8CF5DE6E52E58E0F52E08E618E048
:1028300062E0D62ED00EF8013697608170E0C801B4
:1028400002960E941B08F80191918F0133978081B5
:10285000F70131978083D7019C9360E00E949E111D
:1028600061E0F70180810E949E1160E0D7018C91A8
:102870000E94150DB2E0EB0EF11CD012DCCFF894E3
:102880001092200189E08093210180E293E09093EF
:10289000290180932801109225011092240182E0E1
:1028A0008093730078948093F5051092F9058091D8
:1028B000F60560E00E949E1100917707109178075D
:1028C00010926D0310926C031092DF0310920104BA
:1028D0000E94450DF80115828385823010F098E042
:1028E0009583D80118968C9362E370E080E090E0C5
:1028F0000E94F911F8016485C8010E94250968EE5B
:1029000073E080E090E00E94F91160E3C8010E944A
:1029100038094BE4E42E46E4F42EC7010197F1F7A1
:1029200060E3C8010E943809C7010197F1F760E32D
:10293000C8010E94380983E592E00197F1F760E24F
:10294000C8010E943809D80115966C916062C801CF
:102950000E94680984E0F80186836CE0C8010E9447
:102960006809C8010E94A80982E0D80117968C93D3
:1029700066E0C8010E94680962E0C8010E94680917
:102980008BE39FE10197F1F78091770790917807AA
:1029900028E0FC01248760E00E94250940E060E017
:1029A00080917707909178070E947A098091770744
:1029B00090917807DC0116966C911697262F21606E
:1029C00016962C9369600E9468090E9436106091E7
:1029D000630870E08BE698E00E941B0865E581E0E3
:1029E0000E94980F6091620870E08AE698E00E9469
:1029F0001B086BE780E00E94980F60E177E280E0BF
:102A000090E00E94F91183EE92E00E94D40E86EECF
:102A100092E00E94D40E60E177E280E090E00E94B4
:102A2000F9118FE30E94DA114C0181E40E94DA115E
:102A30005C0182E40E94DA117C0183EE92E00E9444
:102A4000D40E86EF92E00E94D40E60E177E280E03F
:102A500090E00E94F9118FE30E94DA116C0181E489
:102A60000E94DA118C0182E40E94DA11B4016C0D2B
:102A70007D1D77FF02C06F5F7F4F759567957093DF
:102A8000050760930407A501400F511F57FF02C0BF
:102A90004F5F5F4F55954795509307074093060743
:102AA0008E0D9F1D97FD019695958795909309072B
:102AB0008093080783EE92E00E94D40E85E093E0B5
:102AC0000E94D40E68E873E180E090E00E94F91162
:102AD00003E0202E312C44244A94542C3201ECEF94
:102AE000F5E0F0930D04E0930C048091F90590E07B
:102AF00090930F0480930E048091C60690E090930B
:102B00001104809310048091F505853009F02AC4E2
:102B10008091FE059091FF05885891098D359105AA
:102B200088F48091F905843041F4809100069091F9
:102B300001068097479708F40CC28091F905843408
:102B400008F0EEC18091F9058A3108F44FC08091F8
:102B5000FC059091FD05843F914068F410920B04B0
:102B600010920A04409206045092070460920804EE
:102B70007092090459C08091FE059091FF058597D8
:102B80004B97A0F5E2E0F6E082E090E0C12CD12C7A
:102B90007601AC014F5F5F4F2091F90530E042179D
:102BA00053075CF4DF0112972D913C9127503109B6
:102BB0002730310508F411C2CA0101979595879510
:102BC00090930B0480930A040C972CF410920B043E
:102BD00010920A040BC0C0920604D0920704E0923F
:102BE0000804F092090484E090E095C18091F90511
:102BF0008A3108F44CC08091FC059091FD0580322B
:102C0000934008F4ABCF8091FE059091FF05C697E5
:102C1000869708F4FFC13BC0C0920604D092070417
:102C2000E0920804F09209048BE090E074C12081E6
:102C30003181255231092B31310508F0FBC1CC0C13
:102C4000DD1CEE1CFF1C6894C0F802963496AC01A3
:102C50004F5F5F4F2091F90530E04217530754F45E
:102C6000DF0112972D913C912C5031092B30310509
:102C7000F0F2CA0101979595879590930B04809384
:102C80000A040C974CF610920B0410920A048091DF
:102C9000F905823208F44DC08091FE059091FF0540
:102CA0000697079708F045C0E2E0F6E082E090E082
:102CB000C12CD12C76019C012F5F3F4F4091F9052B
:102CC00050E024173507E4F4DF0112974D915C9131
:102CD00011974E5151094731510508F0B8C1CC0C3C
:102CE000DD1CEE1CFF1C6894C0F8408151813496B5
:102CF000435051094530510510F40296DCCFC9010B
:102D000001979595879590930B0480930A044097BB
:102D10002CF410920B0410920A040BC0C09206040B
:102D2000D0920704E0920804F09209048CE090E04D
:102D3000F2C01C821B82E1E0F0E0FA83E98380911B
:102D4000F9058D3008F46BC049E753E0BE016D5FB3
:102D50007F4FCE0101960E94380E892B09F05FC08B
:102D600049E753E0BE016D5F7F4FCE0101960E949F
:102D7000380E019709F053C049E753E0BE016D5F7B
:102D80007F4FCE0101960E94380E892B09F047C073
:102D9000812C912C540100E010E08091F90590E025
:102DA00029813A81281739075CF549E753E0BE01CC
:102DB0006D5F7F4FCE0101960E94380E7C0149E77E
:102DC00053E0BE016D5F7F4FCE0101960E94380E29
:102DD000F1E0EF16F10449F4892B09F5880C991CF0
:102DE000AA1CBB1C689480F808C0EF28C1F40197A6
:102DF000B1F4880C991CAA1CBB1C0F5F1F4FCDCFD0
:102E000010930B0400930A04809206049092070426
:102E1000A0920804B092090421E030E023C21C8291
:102E20001B8281E090E09A83898380910E049091C7
:102E30000F04181619060CF055C0E0910C04F0911F
:102E40000D0482E090E09A8389838281938189973F
:102E50004E9708F047C03A822982848195810B976A
:102E60000A9708F03FC04CEB51E0BE016D5F7F4F09
:102E7000CE0101960E94380E892BA1F54CEB51E052
:102E8000BE016D5F7F4FCE0101960E94380E019703
:102E900049F5812C912C540100E010E029813A8100
:102EA00080910E0490910F042817390734F54CEBEC
:102EB00051E0BE016D5F7F4FCE0101960E94380E3A
:102EC0006C010330110509F0CFC04CEB51E0BE019D
:102ED0006D5F7F4FCE0101960E94380EC816D9064D
:102EE00009F4C2C0E0910C04F0910D048281938139
:102EF000C697869708F4EEC043C110930B04009365
:102F00000A048092060490920704A0920804B092EA
:102F1000090482E090E09093030480930204BFC10F
:102F20008091000690910106825491098E9708F0D5
:102F300009CE80E090E040E050E0BA01FC01EE5F95
:102F4000F94F208131812950310929303105B0F004
:102F5000F9CD80910206909103060997099708F030
:102F6000ECCD10920B0410920A0440920604509289
:102F700007046092080470920904FDC1FC01EC5F33
:102F8000F94F208131812751310922313105C0F4B7
:102F9000440F551F661F771F4160049680389105C6
:102FA00069F620E230E030930B0420930A0440934A
:102FB0000604509307046093080470930904DBC16E
:102FC00020813181265031092730310508F0BACDF2
:102FD000440F551F661F771FE0CF20813181235199
:102FE00031092F30310548F4CC0CDD1CEE1CFF1CE0
:102FF0006894C0F802963496CCCD208131812A5055
:1030000031092930310508F0F1CDCC0CDD1CEE1C66
:10301000FF1CF0CF8091000690910106C69786971D
:1030200008F035CEE4E0F6E083E090E0C12CD12C4E
:1030300076010DCE208131812C5031092A303105A5
:1030400008F025CECC0CDD1CEE1CFF1CFECD4D91F6
:103050005C914C5051094B30510508F06ACECC0CB4
:10306000DD1CEE1CFF1C41CE4CEB51E0BE016D5F40
:103070007F4FCE0101960E94380E7C01033011056E
:1030800069F44CEB51E0BE016D5F7F4FCE010196BC
:103090000E94380EE816F90609F024CFC114D104B5
:1030A00059F4EA94EF2809F01DCF880C991CAA1C4A
:1030B000BB1C689480F80BC0CA94CD2809F012CFCD
:1030C000EF2809F00FCF880C991CAA1CBB1C0F5FBE
:1030D0001F4FE4CE848195814B97459708F050C0EF
:1030E000DF0116967F0126ECE20EF11C20E030E0B5
:1030F00040E050E060E070E080E090E00D911C91D5
:1031000011970950110908301105D0F512960D914B
:103110001C911397015111090D30110560F11296A0
:103120000D911C911397045011090530110540F5BC
:1031300001E00E9414201496AE15BF05F9F6209305
:10314000060430930704409308045093090400E2F6
:103150000E942F20209304043093050485E090E022
:10316000909303048093020480E390E090930B0417
:1031700080930A0494C001E00E9414202160DBCFF8
:103180008091F905893340F08281938189579109B3
:103190008335910508F40BC28091F905823209F458
:1031A000EFC082819381895791098335910508F495
:1031B00079C2828193818C549109C59708F0E7C048
:1031C0008091F905843031F4848195818097479707
:1031D00008F44DC08091F905843408F4D8C0848186
:1031E000958189549109C39708F0D1C09F012A5F46
:1031F0003F4FBF016A577F4FC12CD12C7601D901B7
:103200004D915C91495051094930510508F0BFC0BA
:10321000D90112964D915C91139746515109413154
:10322000510508F0A4C2D701C601880F991FAA1F33
:10323000BB1F6C017D016894C0F82C5F3F4F2617BF
:103240003707E9F6E0E2F0E0F0930B04E0930A04BC
:10325000C0920604D0920704E0920804F092090498
:1032600027E030E0309303042093020418C08681E5
:1032700097810997099708F0ADCF10920B0410922F
:103280000A04409206045092070460920804709267
:103290000904E7E0F0E0F0930304E093020482E025
:1032A0008093F5051092F90580910604909107042A
:1032B000A0910804B0910904863CEFEC9E07E4E07D
:1032C000AE07E6E6BE07F1F08A3FEFEC9E07E4E0CA
:1032D000AE07E6E6BE0729F1863DFFEC9F07F4E066
:1032E000AF07F6E6BF0741F1863E2FEC920724E0D8
:1032F000A20726E6B20701F1863F9F4CA440B646DE
:1033000069F01AC080910102909102020196843006
:10331000910561F510920202109201020E9436108E
:103320000BC080910102909102020197F8F4309253
:10333000020220920102F2CF10925C0781E090E03D
:103340000E94000B10925C0769E170E080E090E061
:103350000E94F9110E94F102C2CB82E08093F50530
:103360001092F90580E090E0DC01C6CF9093020254
:1033700080930102D3CF30920304209202048FCFB6
:10338000828193810A97099708F470C10ACF8091CE
:10339000F905863460F1828193810C970B9708F4CC
:1033A000F5C125C0D90112966D917C9113976E518C
:1033B00071096731710508F021C2D701C601880F74
:1033C000991FAA1FBB1F6C017D016894C0F84E5F56
:1033D0005F4F2C5F3F4F4534510509F4F2C1D901CD
:1033E0006D917C916C5071096B307105D8F28091B0
:1033F000F905883580F182819381855891098B3553
:10340000910508F40BC227C0BC016F5F7F4FD80144
:103410004D915C911197475051094730510508F083
:103420000CC2220F331F216002960C5F1F4F409188
:10343000F90550E044505109841795070CF005C276
:10344000A80142505109DA014D915C91495051094E
:1034500048305105C8F28091F9058032E1F482814B
:10346000938106970697B8F4848195810997099707
:1034700090F49F012A5F3F4FBF01625C7F4FC12CD8
:10348000D12C7601D9014D915C91465051094630BD
:10349000510508F4F6C120910E0430910F043887CD
:1034A0002F83263031050CF458CF8F010A5F1F4F50
:1034B00083E090E09E838D8395ECC92E9DE9D92E03
:1034C0009CE1E92E91E8F92ED8016D917C91F801EB
:1034D0003497A080B18080E090E00E94761E6987DA
:1034E0007A878B879C87B50180E090E00E94761EEA
:1034F0004B015C012DEC3CEC4CE45FE30E94D71ED9
:103500009B01AC0169857A858B859C850E94711E23
:1035100087FD19C02DEC3CEC4CE45FE369857A85AE
:103520008B859C850E94D71E9B01AC01C501B4010F
:103530000E94711EE82F880FFF0BEE27FF0FEE1F72
:10354000FF27319602C0E0E0F0E0A701960163E9B1
:1035500071E080E091E00E94F01F6F01FF0FEE0824
:10356000FF08C626D726E826F926ED81FE8131968A
:10357000FE83ED830E5F1F4F2F813885E217F3071F
:1035800009F0A2CFC0920604D0920704E09208048A
:10359000F092090480E290E090930B0480930A0477
:1035A000AFEFBFEFB0930304A093020478CE848101
:1035B0009581CA97899708F0EFCD9F012A5F3F4F09
:1035C000C12CD12C760143E050E0D9016D917C9162
:1035D0006A5071096930710508F0DECDD901129683
:1035E0006D917C911397665171096131710570F588
:1035F000D701C601880F991FAA1FBB1F6C017D014F
:103600006894C0F84E5F5F4F2C5F3F4F4B335105BE
:10361000E1F69F012A583F4FD9012D913C912A5044
:1036200031092930310508F0B7CD2CE130E0309375
:103630000B0420930A04C0920604D0920704E0927F
:103640000804F09209048AE090E065CCD901129652
:103650006D917C911397665071096730710508F080
:103660009BCDCC0CDD1CEE1CFF1CCCCF2091F905B2
:10367000CF01820F911D820F911DDC0112978D9158
:103680009C910A97099708F08CCD10920B04109228
:103690000A04409206045092070460920804709253
:1036A000090462C08091F905813208F482CD8481D9
:1036B0009581CA97899708F07CCD9F012A5F3F4F7B
:1036C000C12CD12C760143E050E0D9016D917C9161
:1036D0006A5071096930710508F06BCDD9011296F5
:1036E0006D917C911397665171096131710560F597
:1036F000D701C601880F991FAA1FBB1F6C017D014E
:103700006894C0F84E5F5F4F2C5F3F4F43325105C6
:10371000E1F69F012A5B3F4FD9012D913C912A5040
:1037200031092930310508F044CDE0E1F0E0F093B3
:103730000B04E0930A04C0920604D0920704E092BE
:103740000804F092090410C0D90112966D917C9181
:103750001397665071096730710508F02ACDCC0CBB
:10376000DD1CEE1CFF1CCECF26E030E07BCD129698
:103770004D915C911397465051094730510508F01F
:1037800006CECC0CDD1CEE1CFF1C57CD8481958130
:103790000997099708F02BCE868197818C974F97D0
:1037A00008F025CE8085918589974D9708F01FCE2A
:1037B0009F01265F3F4FC12CD12C760145E050E0A0
:1037C0000ECE9F0126573F4FD9012D913C912C5091
:1037D00031092B30310508F00ACEE0E2F0E0F09339
:1037E0000B04E0930A04C0920604D0920704E0920E
:1037F0000804F092090488E090E08DCBD90112967C
:103800006D917C911397695071096930710508F0C9
:10381000EECDCC0CDD1CEE1CFF1CD9CD8481958136
:10382000825491098E9708F016CE8F01045C1F4FC9
:103830008DE190E020E030E0FACD4D915C9148516F
:10384000510942315105D0F0CB01019795958795EB
:1038500090930B0480930A048A970CF4FCCDC90161
:10386000330FAA0BBB0B8093060490930704A0931D
:103870000804B093090489E090E04DCB220F331F78
:10388000D3CDD90112964D915C91139749515109AD
:103890004331510508F5D701C601880F991FAA1FAA
:1038A000BB1F6C017D016894C0F82C5F3F4F261749
:1038B000370709F0E7CD2EE030E030930B0420937A
:1038C0000A04C0920604D0920704E0920804F09221
:1038D00009048FE090E01FCBD90112964D915C91C5
:1038E0001397495051094930510508F0D4CDCC0CFB
:1038F000DD1CEE1CFF1CD9CF80E797E00C94AF03D2
:10390000109215041092140488EE93E0A0E0B0E049
:103910008093160490931704A0931804B09319048D
:1039200027EB32E030931304209312041092210409
:10393000109220048093220490932304A0932404E3
:10394000B093250429EC32E030931F0420931E0429
:1039500045E351E050932B0440932A0444E351E0A3
:1039600050932D0440932C0440E351E050932F04D6
:1039700040932E0441E351E05093310440933004CE
:1039800042E351E0509333044093320446E351E064
:103990005093350440933404109237041092380445
:1039A0001092390410923A041092BE041092BD0491
:1039B0008093BF049093C004A093C104B093C20449
:1039C0003093BC042093BB0445ED50E05093C804F1
:1039D0004093C70444ED50E05093CA044093C90497
:1039E00040ED50E05093CC044093CB0441ED50E0C7
:1039F0005093CE044093CD0442ED50E05093D00458
:103A00004093CF0446ED50E05093D2044093D1044C
:103A10001092D4041092D5041092D6041092D704B8
:103A200010925B0510925A0580935C0590935D059A
:103A3000A0935E05B0935F05309359052093580518
:103A400085EC90E0909365058093640584EC90E0AC
:103A5000909367058093660580EC90E090936905EC
:103A60008093680581EC90E090936B0580936A05E4
:103A700082EC90E090936D0580936C0586EC90E06D
:103A800090936F0580936E051092710510927205E8
:103A9000109273051092740586E380935A0887E3A9
:103AA00080935B0888E380935C0889E380935D08DA
:103AB0008BE180935E088DE180935F088AE18093BB
:103AC00060088CE18093610884E08093620887E05D
:103AD000809363081092640884EB8093650886E104
:103AE0008093660888E18093670887E1809368087F
:103AF00089E180936908E0910307EC3020F08FEFB3
:103B000080936A0810C081E08E0F80930307E093D2
:103B10006A0825E0E29FF0011124E953F94F88EB90
:103B20009BE092838183E0910307EC3020F08FEFDC
:103B300080936B0810C081E08E0F80930307E093A1
:103B40006B0885E0E89FF0011124E953F94F88EBF9
:103B50009BE0928381838CE08093390884E2809398
:103B60003A0886E080933B0885E080933C088FE12B
:103B700080933D088EE180933E0883E280933F0866
:103B800082E28093400885E48093410884E4809336
:103B9000420880E48093450810924A0810924B082E
:103BA00010924C0810924D0810924E0810924F0837
:103BB0001092500810925108EBE7F7E08FEF9FEF5B
:103BC000DC011282138214821582168217821086FB
:103BD000118683879487A587B6878787908BA18B6B
:103BE000B28B128611821082739628E0E933F207B5
:103BF00041F78DE090E00E946521FC011382128262
:103C00008BED92E091838083118687E2848384E147
:103C1000828784E083871486F0937807E0937707A0
:103C20001092790710927A0785E28093F605109238
:103C3000F8056AE173E080E797E00E94B40388EC3E
:103C400090E0909305078093040790930707809373
:103C5000060782E890E0909309078093080782E5C1
:103C6000E1E6F2E0AAE0B7E001900D928A95E1F773
:103C700010925C078091690790916A07A0916B0789
:103C8000B0916C0780935D0790935E07A0935F07E8
:103C9000B09360078093610790936207A0936307D6
:103CA000B093640788EB9EE1A5E0BEE380936507CF
:103CB00090936607A0936707B09368078DEC9CEC20
:103CC000ACECBDE38093690790936A07A0936B0700
:103CD000B0936C0710926D0710926F0710926E07E9
:103CE00008950E94B31E08F481E00895E89409C085
:103CF00097FB3EF490958095709561957F4F8F4F1F
:103D00009F4F9923A9F0F92F96E9BB279395F69534
:103D1000879577956795B795F111F8CFFAF4BB0FB2
:103D200011F460FF1BC06F5F7F4F8F4F9F4F16C016
:103D3000882311F096E911C0772321F09EE8872FA0
:103D4000762F05C0662371F096E8862F70E060E05C
:103D50002AF09A95660F771F881FDAF7880F9695D5
:103D6000879597F90895990F0008550FAA0BE0E879
:103D7000FEEF16161706E807F907C0F0121613062D
:103D8000E407F50798F0621B730B840B950B39F46D
:103D90000A2661F0232B242B252B21F408950A26D3
:103DA00009F4A140A6958FEF811D811D08950E9401
:103DB000EA1E0C945B1F0E944D1F38F00E94541F96
:103DC00020F0952311F00C94441F0C944A1F1124E9
:103DD0000C948F1F0E946C1F70F3959FC1F3950F79
:103DE00050E0551F629FF001729FBB27F00DB11D7F
:103DF000639FAA27F00DB11DAA1F649F6627B00D0F
:103E0000A11D661F829F2227B00DA11D621F739FF7
:103E1000B00DA11D621F839FA00D611D221F749F05
:103E20003327A00D611D231F849F600D211D822F4C
:103E3000762F6A2F11249F5750409AF0F1F0882373
:103E40004AF0EE0FFF1FBB1F661F771F881F9150A0
:103E50005040A9F79E3F510580F00C94441F0C94EC
:103E60008F1F5F3FE4F3983ED4F38695779567956F
:103E7000B795F795E7959F5FC1F7FE2B880F911DCA
:103E80009695879597F9089597F99F6780E870E070
:103E900060E008959FEF80EC089500240A941616C0
:103EA000170618060906089500240A941216130628
:103EB000140605060895092E0394000C11F48823B6
:103EC00052F0BB0F40F4BF2B11F460FF04C06F5FD2
:103ED0007F4F8F4F9F4F089557FD9058440F551FA8
:103EE00059F05F3F71F04795880F97FB991F61F07C
:103EF0009F3F79F087950895121613061406551FF3
:103F0000F2CF4695F1DF08C0161617061806991F5E
:103F1000F1CF86957105610508940895E894BB2753
:103F200066277727CB0197F90895052E97FB1EF496
:103F300000940E94AC1F57FD07D00E94BF1F07FCD2
:103F400003D04EF40C94AC1F5095409530952195BC
:103F50003F4F4F4F5F4F08959095809570956195B5
:103F60007F4F8F4F9F4F08950E94E11FA59F900D97
:103F7000B49F900DA49F800D911D11240895A1E27E
:103F80001A2EAA1BBB1BFD010DC0AA1FBB1FEE1FD3
:103F9000FF1FA217B307E407F50720F0A21BB30B1E
:103FA000E40BF50B661F771F881F991F1A9469F79A
:103FB00060957095809590959B01AC01BD01CF01F6
:103FC0000895A29FB001B39FC001A39F700D811DF2
:103FD0001124911DB29F700D811D1124911D089512
:103FE000DB018F939F930E94B41FBF91AF91A29F5B
:103FF000800D911DA39F900DB29F900D11240895E7
:10400000991B79E004C0991F961708F0961B881F2A
:104010007A95C9F780950895EE0FFF1F881F8BBF13
:104020000790F691E02D19940F93083090F0982F97
:10403000872F762F652F542F432F322F222708509A
:10404000F4CF220F331F441F551F661F771F881F91
:10405000991F0A95B2F70F91089597FB10F81694DF
:1040600000080F93083098F00850232F342F452F65
:10407000562F672F782F892F902DF4CF0594979581
:1040800087957795679557954795379527950A951D
:10409000AAF70F9108955058BB27AA270E946320C2
:1040A0000C945B1F0E944D1F38F00E94541F20F09B
:1040B00039F49F3F19F426F40C944A1F0EF4E0954E
:1040C000E7FB0C94441FE92F0E946C1F58F3BA17AA
:1040D000620773078407950720F079F4A6F50C941E
:1040E0008E1F0EF4E0950B2EBA2FA02D0B01B901F7
:1040F00090010C01CA01A0011124FF27591B99F05E
:10410000593F50F4503E68F11A16F040A22F232F69
:10411000342F4427585FF3CF469537952795A795B9
:10412000F0405395C9F77EF41F16BA0B620B730B60
:10413000840BBAF09150A1F0FF0FBB1F661F771FD1
:10414000881FC2F70EC0BA0F621F731F841F48F486
:10415000879577956795B795F7959E3F08F0B0CF0F
:104160009395880F08F09927EE0F979587950895F6
:104170000E94CC200C945B1F0E94541F58F00E9498
:104180004D1F40F029F45F3F29F00C94441F51115A
:104190000C948F1F0C944A1F0E946C1F68F3992384
:1041A000B1F3552391F3951B550BBB27AA27621733
:1041B0007307840738F09F5F5F4F220F331F441F40
:1041C000AA1FA9F335D00E2E3AF0E0E832D0915074
:1041D0005040E695001CCAF72BD0FE2F29D0660F61
:1041E000771F881FBB1F261737074807AB07B0E8A4
:1041F00009F0BB0B802DBF01FF2793585F4F3AF0AA
:104200009E3F510578F00C94441F0C948F1F5F3F24
:10421000E4F3983ED4F3869577956795B795F7952F
:104220009F5FC9F7880F911D9695879597F9089517
:10423000E1E0660F771F881FBB1F621773078407B3
:10424000BA0720F0621B730B840BBA0BEE1F88F7C2
:10425000E09508950E9431216894B1110C948F1F4C
:1042600008950E94741F88F09F5798F0B92F9927DE
:10427000B751B0F0E1F0660F771F881F991F1AF051
:10428000BA95C9F714C0B13091F00E948E1FB1E009
:1042900008950C948E1F672F782F8827B85F39F008
:1042A000B93FCCF3869577956795B395D9F73EF4EA
:1042B00090958095709561957F4F8F4F9F4F089592
:1042C0000E94B31E08F48FEF0895CF93DF938230DE
:1042D000910510F482E090E0E0917B08F0917C0879
:1042E00020E030E0C0E0D0E0309711F14081518112
:1042F00048175907C0F04817590761F48281938124
:10430000209719F09B838A832BC090937C0880931D
:104310007B0826C02115310519F04217530718F400
:104320009A01BE01DF01EF010280F381E02DDCCFB5
:104330002115310509F1281B390B2430310590F482
:1043400012968D919C9113976115710521F0FB01D7
:104350009383828304C090937C0880937B08FD0143
:10436000329644C0FD01E20FF31F819391932250D6
:1043700031092D933C933AC02091790830917A0805
:10438000232B41F4209155023091560230937A0844
:104390002093790820915302309154022115310560
:1043A00041F42DB73EB74091570250915802241B5B
:1043B000350BE0917908F0917A08E217F307A0F441
:1043C0002E1B3F0B2817390778F0AC014E5F5F4F6B
:1043D0002417350748F04E0F5F1F50937A0840931B
:1043E00079088193919302C0E0E0F0E0CF01DF9182
:1043F000CF9108950F931F93CF93DF93009709F404
:104400008CC0FC0132971382128200917B081091BC
:104410007C080115110581F420813181820F931FE1
:104420002091790830917A082817390779F5F093A7
:104430007A08E093790871C0D80140E050E0AE17E7
:10444000BF0750F412962D913C911397AD012115A1
:10445000310509F1D901F3CF9D01DA0133832283BC
:1044600060817181860F971F8217930769F4EC01B1
:1044700028813981260F371F2E5F3F4F31832083DC
:104480008A819B8193838283452B29F4F0937C0856
:10449000E0937B0842C01396FC93EE931297ED01D4
:1044A000499159919E01240F351FE217F30771F4CA
:1044B00080819181840F951F029611969C938E9313
:1044C0008281938113969C938E931297E0E0F0E0A3
:1044D000D80112968D919C911397009719F0F801CD
:1044E0008C01F6CF8D919C9198012E5F3F4F820FEA
:1044F000931F2091790830917A082817390769F4B9
:10450000309729F410927C0810927B0802C0138225
:10451000128210937A0800937908DF91CF911F914E
:104520000F9108956F927F928F929F92AF92BF9258
:10453000CF92DF92EF92FF920F931F93CF93DF936F
:10454000EC01009789F4CB01DF91CF911F910F917E
:10455000FF90EF90DF90CF90BF90AF909F908F90A3
:104560007F906F900C946521FC01E60FF71F9C0172
:1045700022503109E217F30708F4ACC0D9010D91BC
:104580001C91119706171707B0F00530110508F4B4
:104590009FC0C80104978617970708F499C0025076
:1045A0001109061B170B019311936D937C93CF0197
:1045B0000E94FA218DC05B01A01AB10A4C01800E45
:1045C000911EA0917B08B0917C0840E050E0E12C66
:1045D000F12C109709F44AC0A815B905D1F56D90D2
:1045E0007C901197630182E0C80ED11CCA14DB04D1
:1045F00080F1A3014A195B096A0182E0C80ED11C4F
:104600001296BC9012971396AC91B5E0CB16D104DC
:1046100040F0B282A38351834083D9016D937C9390
:104620000AC00E5F1F4FC301800F911FF9019183D4
:104630008083EB2DFA2FE114F10431F0D7011396AA
:10464000FC93EE93129744C0F0937C08E0937B08B0
:104650003FC08D919C9111974817590708F4AC0100
:104660007D0112960D90BC91A02DB3CF8091790859
:1046700090917A0888159905E1F446175707C8F410
:104680008091530290915402009741F48DB79EB7E8
:104690004091570250915802841B950BE817F90777
:1046A000C8F4F0937A08E0937908F9017183608384
:1046B0000FC0CB010E9465217C01009759F0A80131
:1046C000BE010E948023CE010E94FA21C70104C0CE
:1046D000CE0102C080E090E0DF91CF911F910F9159
:1046E000FF90EF90DF90CF90BF90AF909F908F9012
:1046F0007F906F90089581E090E0F8940C9490235F
:10470000FB01DC0102C001900D9241505040D8F7EE
:104710000895FB01DC0101900D920020E1F708955E
:1047200011E0C0E9D1E000E006C0802FFE010E9448
:104730000C202196011DC139D10780E00807A9F797
:04474000F894FFCF1B
:10474400FF000042757267657200000000000000FF
:104754000000000000000043686565736520427531
:104764007267657200000000000000416C6C20421A
:1047740075726765720000000000000000000053BD
:104784006574757000000000000000000000000067
:1047940000000000007D08200000004000140054C8
:1047A400000000427572676572000000000000009E
:1047B40000000000000000436865657365204275D1
:1047C4007267657200000000000000416C6C2042BA
:1047D400757267657200000000000000000000535D
:1047E4006574757000000000000000000000000007
:1047F40000000000000000470A170A1F03F1090F18
:104804000A000AF209000000008502C5010902CC71
:10481400023A0218022C02000000005109C5011FCF
:10482400031E030A0D00526F626F742073757220A9
:10483400626C616E6300526F626F742073757220D4
:104844006E6F69720043616C6962726174696F6E44
:104854002066696E690020000D0A00496E76616C5D
:10486400696420736572766F2069642100536572F0
:10487400766F20616E676C65206973206F75742094
:0A4884006F662072616E6765210007
:00000001FF
