:100000000C9491010C94C2010C94C2010C94C20195
:100010000C94C2010C94C2010C94C2010C94C20154
:100020000C94C2010C94AF140C94AF140C94AF1444
:100030000C94C2010C94670B0C94C2010C94C20185
:100040000C94C2010C94AF0F0C94C2010C94C20129
:100050000C94C2010C94C2010C94C2010C944B1775
:100060000C94C2010C94E60C0C94BC0C0C94C201D0
:100070000C94C2010C94C2010C94C2010C94C201F4
:100080000C94C2010C94C2010C94C2010C94C201E4
:100090000C94C2010C94C2010C94C2010C94B914CA
:1000A0000C94C2010C94C2010C94C2010C94C201C4
:1000B0000C94C2010C94C2010C94C2010C94100D5A
:1000C0000C94C2010C94C2010C94C2010C94920CC9
:1000D0000C94680C0C94C2010C943E0C0C94140CFF
:1000E0000C94C2019B0EA00EA50EAF0EB90E320FDE
:1000F000C30ECB0ED30EDD0EE70EF10E000F0A0F6E
:10010000320F140F1E0F280F06160916F815FC15CE
:10011000021640160D16111617161B161F16251659
:1001200029162D164016331637163B160C941A1145
:100130000C9429160C94501E0C94B90E0C9423099F
:100140000C942D160C94F8150C9414090C94CB0EE9
:100150000C94D30E0C9417160C9440160C9409169C
:100160000C948F120C94D0080C94DD0E0C94E423A4
:100170000C941B160C94A50E0C94D7090C94E70E46
:100180000C941E0F0C942A0A0C9402160C94F10E77
:100190000C9437160C94AF0E0C9448120C94391230
:1001A0000C94C30E0C9406160C940A0F0C94370989
:1001B0000C943A120C940D160C9433160C943B16B6
:1001C0000C9457120C94140F0C94320F0C941116BB
:1001D0000C945F120C94FC150C9445090C94290A9C
:1001E0000C9425160C9490090C94A00E0C949B0E64
:1001F0000C94280F0C941F160C94000F0000200084
:100200002300260029002C002F00320000010000EE
:100210000301060109010200002100240027002A31
:10022000002D003000330001010000040107010A25
:100230000100002200250028002B002E0031003490
:100240000002010000050108010B01050505050775
:100250000508080808020202020A0A080804040441
:10026000040101010101010101030303030303036D
:1002700003040707070C0C0C0C0C0C0C0C020202FC
:100280000206060606060606060B0B0B0B0B0B0BEF
:100290000B0102102020080810204010204080028E
:1002A00001020108040201010204081020408080BC
:1002B0004020100804020180040201804020100840
:1002C0000402010804020101020408102040800118
:1002D0000204081020408000000A0B02090C0D0ED9
:1002E00008070304010000000000000000000000F7
:1002F00000000000000000000000000000000000FE
:1003000000000012111000000000000000000000BA
:100310000000000000000000000000000000E423D6
:10032000501E11241FBECFEFD1E2DEBFCDBF00E0D3
:100330000CBF13E0A0E0B2E0E6EDF7E500E00BBF94
:1003400002C007900D92A03EB107D9F729E0A0EEB8
:10035000B3E001C01D92AE3AB207E1F711E0C0E987
:10036000D1E000E006C021970109802FFE010E9424
:10037000E927CF38D10780E00807A9F70E94541E6B
:100380000C94D92B0C9400002F923F924F925F92C5
:100390006F927F928F929F92AF92BF92CF92DF9295
:1003A000EF92FF920F931F93CF93DF9300D000D073
:1003B000CDB7DEB78BE996E09093AC048093AB04A5
:1003C0008091980690E09093AE048093AD04809164
:1003D000650790E09093B0048093AF0480919406F9
:1003E000853009F0BBC380919D0690919E06885888
:1003F00091098D35910588F480919806843041F4F7
:1004000080919F069091A0068097479708F4FFC1BE
:1004100080919806843408F0E1C1809198068A3171
:1004200008F454C080919B0690919C06843F9140B3
:1004300080F41092AA041092A9048FEF9FEFDC01C0
:100440008093A5049093A604A093A704B093A80456
:100450005BC080919D0690919E0685974B97B0F565
:10046000E1EAF6E082E090E040E050E0BA018C0181
:100470000F5F1F4F2091980630E0021713076CF4AE
:100480009F0122503109D9012D913C91275031090A
:100490002730310508F4F3C1C80101979595879578
:1004A0009093AA048093A9040C972CF41092AA04A8
:1004B0001092A9040BC04093A5045093A604609326
:1004C000A7047093A80484E090E0F9C28091980694
:1004D0008A3108F44DC080919B0690919C06803231
:1004E000934008F4A6CF80919D0690919E06C697F2
:1004F000869708F4E0C13CC04093A5045093A6043D
:100500006093A7047093A8048BE090E0D8C2208188
:100510003181255231092B31310508F0DCC1440FFE
:10052000551F661F771F4160029634968C010F5F3E
:100530001F4F2091980630E00217130764F49F01C3
:1005400022503109D9012D913C912C5031092B3089
:100550003105E8F2C8010197959587959093AA0413
:100560008093A9040C9744F61092AA041092A9044F
:1005700080919806823208F44AC080919D0690913D
:100580009E060697079708F042C0E1EAF6E022E0EF
:1005900030E040E050E0BA01C9010196A091980610
:1005A000B0E08A179B07CCF4DF0112970D911C91E4
:1005B00011970E5111090731110508F099C1440F27
:1005C000551F661F771F4160A081B1813496139734
:1005D000159720F42E5F3F4FDFCFC9010197959506
:1005E00087959093AA048093A90440972CF41092C5
:1005F000AA041092A9040BC04093A5045093A6042A
:100600006093A7047093A8048CE090E058C21C8209
:100610001B8281E090E09A838983809198068D30D7
:1006200008F46BC049E753E0BE016D5F7F4FCE0118
:1006300001960E949517892B09F05FC049E753E0A6
:10064000BE016D5F7F4FCE0101960E949517019705
:1006500009F053C049E753E0BE016D5F7F4FCE0103
:1006600001960E949517892B09F047C0C12CD12C07
:10067000760100E010E08091980690E029813A81AF
:10068000281739075CF549E753E0BE016D5F7F4FDE
:10069000CE0101960E9495175C0149E753E0BE0127
:1006A0006D5F7F4FCE0101960E949517B1E0AB16AA
:1006B000B10449F4892B09F5CC0CDD1CEE1CFF1CA0
:1006C0006894C0F808C0AB28C1F40197B1F4CC0C11
:1006D000DD1CEE1CFF1C0F5F1F4FCDCF1093AA0433
:1006E0000093A904C092A504D092A604E092A704A6
:1006F000F092A80481E090E0E2C11C821B8281E0BC
:1007000090E09A8389838091AD049091AE0418168D
:1007100019060CF058C0E091AB04F091AC0482E0F3
:1007200090E09A8389838281938189974E9708F01C
:100730004AC083E090E09A838983848195810B97F6
:100740000A9708F040C04CEB51E0BE016D5F7F4F4F
:10075000CE0101960E949517892BA9F54CEB51E02B
:10076000BE016D5F7F4FCE0101960E9495170197E4
:1007700051F5C12CD12C760100E010E029813A819D
:100780008091AD049091AE04281739070CF0F2C0A7
:100790004CEB51E0BE016D5F7F4FCE0101960E9490
:1007A00095174C010330110509F0AEC04CEB51E038
:1007B000BE016D5F7F4FCE0101960E94951788168E
:1007C000990609F4A1C0E091AB04F091AC048281D8
:1007D0009381C697869708F4DCC0CFC180919F06AD
:1007E0009091A006825491098E9708F016CE20E0D1
:1007F00030E080E090E0DC01F901EF55F94F4081F5
:100800005181495051094930510588F006CE8091F7
:10081000A1069091A2060997099708F0F9CD1092C8
:10082000AA041092A9048FEF9FEFDC019BC1F9018C
:10083000ED55F94F408151814751510942315105E0
:1008400088F4880F991FAA1FBB1F81602C5F3F4F40
:100850002038310589F620E230E03093AA04209355
:10086000A90480C14081518146505109473051054A
:1008700008F0D3CD880F991FAA1FBB1FE7CF208197
:100880003181235131092F30310540F4440F551F78
:10089000661F771F416002963496E9CD2081318131
:1008A0002A5031092930310508F010CE440F551F68
:1008B000661F771FF0CF80919F069091A006C69784
:1008C000869708F055CEE3EAF6E083E090E040E05A
:1008D00050E0BA012BCE208131812C5031092A30D1
:1008E000310508F045CE440F551F661F771F1CCEFB
:1008F0000D90BC91A02D1C971B9708F088CE440F3B
:10090000551F661F771F60CE4CEB51E0BE016D5F37
:100910007F4FCE0101960E9495175C0103301105AF
:1009200069F44CEB51E0BE016D5F7F4FCE01019643
:100930000E949517A816B90609F045CF81149104B5
:1009400059F4AA94AB2809F03ECFCC0CDD1CEE1C68
:10095000FF1C6894C0F80BC08A94892809F033CF33
:10096000AB2809F030CFCC0CDD1CEE1CFF1C0F5F58
:100970001F4F04CF1093AA040093A904C092A504AA
:10098000D092A604E092A704F092A80482E090E03E
:1009900096C0848195814B97459708F0EEC0DF01A2
:1009A00016967F0126ECE20EF11C20E030E040E0DC
:1009B00050E060E070E080E090E00D911C911197B4
:1009C000095011090830110508F0D7C012960D9191
:1009D0001C911397015111090D30110520F501E00B
:1009E0000E94F12721601496AE15BF0531F72093C0
:1009F000A5043093A6044093A7045093A80400E2F2
:100A00000E940C282093A3043093A40485E090E076
:100A10009093A2048093A10480E390E09093AA04B1
:100A20008093A90450C012960D911C911397045005
:100A300011090530110508F0A0C001E00E94F1275E
:100A4000D2CF980122503109D9012D913C912950E2
:100A500031092830310508F03EC1BC016F5F7F4F7E
:100A6000D8012D913C91275031092730310508F0EC
:100A70002FC3440F551F416002960C5F1F4F2091FA
:100A8000980630E02450310982179307D4F2019779
:100A9000959587959093AA048093A9048A970CF45E
:100AA0001AC1052E000C660B770B4093A5045093DA
:100AB000A6046093A7047093A80489E090E0909343
:100AC000A2048093A10482E0809394061092980679
:100AD0004091A5045091A6046091A7047091A804C8
:100AE000463CBFEC5B07B4E06B07B6E67B0771F1F1
:100AF0004A3FFFEC5F07F4E06F07F6E67F07E9F097
:100B0000463D2FEC520724E0620726E67207C1F04B
:100B1000463E8FEC580784E0680786E6780799F030
:100B200081E090E0463F5F4C6440764611F480E0FF
:100B300090E091958195910919C382E090E016C3E8
:100B400083E090E013C384E090E010C381E090E084
:100B50000DC382E0809394061092980640E050E026
:100B6000BA01DECF8093A5049093A604A093A704B6
:100B7000B093A80483E090E0A2CF809198068933D7
:100B800070F182819381895791098335910508F429
:100B900040C125C0D90112966D917C911397665181
:100BA00071096131710508F060C1D701C601880F74
:100BB000991FAA1FBB1F6C017D016894C0F84E5F8E
:100BC0005F4F2C5F3F4F4B33510509F431C1D901C1
:100BD0006D917C916A50710969307105D8F28091EC
:100BE0009806823231F4828193810A97099708F43A
:100BF0004CC1828193818957910983359105D0F445
:100C0000809198068132B0F084819581CA97899746
:100C100088F49F012A5F3F4FC12CD12C760143E01D
:100C200050E0D9016D917C916A507109693071056C
:100C300008F44AC1828193818C549109C59778F454
:100C400080919806843031F484819581809747970C
:100C500008F499C180919806843408F07BC1809192
:100C60009806863460F1828193810C970B9708F483
:100C7000D8C125C0D90112966D917C9113976E5100
:100C800071096731710508F004C2D701C601880FE8
:100C9000991FAA1FBB1F6C017D016894C0F84E5FAD
:100CA0005F4F2C5F3F4F4534510509F4D5C1D90141
:100CB0006D917C916C5071096B307105D8F2809107
:100CC0009806883540F082819381855891098B354B
:100CD000910508F4EEC1809198068032E1F482819A
:100CE000938106970697B8F48481958109970997AF
:100CF00090F49F012A5F3F4FBF01625C7F4FC12C80
:100D0000D12C7601D9014D915C9146505109463064
:100D1000510508F4EAC18091AD049091AE049E8320
:100D20008D8306970CF415CF8F010A5F1F4F73E078
:100D3000272E312CE5ECCE2EEDE9DE2EECE1EE2E69
:100D4000E1E8FE2ED8016D917C91F8013497A080E6
:100D5000B18080E090E00E9429262B013C01B50182
:100D600080E090E00E9429264B015C012DEC3CECD8
:100D70004CE45FE30E948A269B01AC01C301B201EF
:100D80000E94242687FD17C02DEC3CEC4CE45FE369
:100D9000C301B2010E948A269B01AC01C501B401C6
:100DA0000E942426E82F880FFF0BEE27FF0FEE1F6F
:100DB000FF27319602C0E0E0F0E0A701960163E969
:100DC00071E080E091E00E94B9276F01FF0FEE080B
:100DD000FF08C626D726E826F926BFEF2B1A3B0ABE
:100DE0000E5F1F4FED81FE812E163F0609F0AACF40
:100DF000C092A504D092A604E092A704F092A804A1
:100E000080E290E09093AA048093A9048FEF9FEF73
:100E100056CE84819581CA97899708F0E0CE9F01CC
:100E20002A5F3F4FC12CD12C760143E050E0CFCE5A
:100E30009F012A583F4FD9012D913C912A503109E9
:100E40002930310508F0CBCE2CE130E03093AA04F4
:100E50002093A904C092A504D092A604E092A7040E
:100E6000F092A8048AE090E02ACED90112966D9102
:100E70007C911397665071096730710508F0AFCE09
:100E8000CC0CDD1CEE1CFF1C9ACE20919806CF01E5
:100E9000820F911D820F911DDC0112978D919C9103
:100EA0000A97099708F0A5CE1092AA041092A904F7
:100EB0008FEF9FEFDC018093A5049093A604A0938D
:100EC000A704B093A8044CC1D90112966D917C91EE
:100ED0001397665171096131710588F112966D9110
:100EE0007C911397665071096730710508F0A2CEA6
:100EF000CC0CDD1CEE1CFF1C4E5F5F4F2C5F3F4F88
:100F00004332510509F08DCE9F012A5B3F4FD90135
:100F10002D913C912A5031092930310508F08ACEB3
:100F200020E130E03093AA042093A904C092A504E4
:100F3000D092A604E092A704F092A80411C1D701B0
:100F4000C601880F991FAA1FBB1F6C017D01689401
:100F5000C0F8D2CF8481958189549109C39708F054
:100F60007ECE9F012A5F3F4FBF016A577F4FC12C42
:100F7000D12C7601D9014D915C91495051094930EC
:100F80005105B8F06CCE868197810997099708F0D2
:100F900061CE1092AA041092A9048FEF9FEFDC019A
:100FA0008093A5049093A604A093A704B093A804EB
:100FB000DAC0D90112964D915C91139746515109AF
:100FC00041315105F0F4D701C601880F991FAA1FBE
:100FD000BB1F6C017D016894C0F82C5F3F4F261742
:100FE000370741F620E230E03093AA042093A904A9
:100FF000C092A504D092A604E092A704F092A8049F
:10100000B2C0D90112964D915C9113974650510987
:101010004730510508F023CECC0CDD1CEE1CFF1C24
:10102000DCCF848195810997099708F048CE8681A5
:1010300097818C974F9708F042CE8085918589974C
:101040004D9708F03CCE9F01265F3F4FC12CD12C1D
:10105000760145E050E02BCE9F0126573F4FD90146
:101060002D913C912C5031092B30310508F027CEC1
:1010700020E230E03093AA042093A904C092A50492
:10108000D092A604E092A704F092A80488E090E031
:1010900016CDD90112966D917C9113976950710903
:1010A0006930710508F00BCECC0CDD1CEE1CFF1C6A
:1010B000F6CD84819581825491098E9708F00BCEEC
:1010C0008F01045C1F4F8DE190E040E050E0D7CCF1
:1010D000D8012D913C91285131092231310510F070
:1010E000CB01D5CC440F551FC7CCD90112964D91D9
:1010F0005C911397495151094331510508F5D701C6
:10110000C601880F991FAA1FBB1F6C017D0168943F
:10111000C0F82C5F3F4F2617370709F0F3CD2EE0BC
:1011200030E03093AA042093A904C092A504D09281
:10113000A604E092A704F092A8048FE090E0BFCC50
:10114000D90112964D915C9113974950510949303C
:10115000510508F0E0CDCC0CDD1CEE1CFF1CD9CFF6
:1011600086E090E0ACCC87E090E0A9CC26960FB664
:10117000F894DEBF0FBECDBFDF91CF911F910F91CD
:10118000FF90EF90DF90CF90BF90AF909F908F90A7
:101190007F906F905F904F903F902F9008950895AB
:1011A000CF92DF92EF92FF920F931F93CF93DF9333
:1011B0006C017A018B01C0E0D0E0CE15DF0589F02B
:1011C000D8016D918D01D601ED91FC910190F081D6
:1011D000E02DC6011995892B11F47E0102C02196DC
:1011E000ECCFC701DF91CF911F910F91FF90EF904E
:1011F000DF90CF900895FC01A089B1898C91A689D8
:10120000B78982FD0FC09C91818D8F5F8F73228D76
:10121000821749F0218DDF01A20FB11D5D969C93CD
:10122000818F08958C910895FC01538D448D252F55
:1012300030E0842F90E0821B930B541710F0CF9670
:10124000089501970895FC01918D828D981761F0A2
:10125000828DDF01A80FB11D5D968C91928D9F5FED
:101260009F73928F90E008958FEF9FEF0895FC0198
:10127000918D828D981731F0828DE80FF11D858D4B
:1012800090E008958FEF9FEF0895FC01918D228DDE
:10129000892F90E0805C9F4F821B91098F73992763
:1012A00008958DEB94E00E94450921E0892B09F413
:1012B00020E0822F08958AE595E00E94450921E00B
:1012C000892B09F420E0822F089587EF95E00E9492
:1012D000450921E0892B09F420E0822F0895FC01C3
:1012E000848DDF01A80FB11DA35ABF4F2C91848DAF
:1012F00090E001968F739927848FA689B7892C93E4
:10130000A089B1898C9180648C93938D848D98137E
:1013100006C00288F389E02D80818F7D8083089547
:10132000EF92FF920F931F93CF93DF93EC0181E035
:10133000888F9B8D8C8D981305C0E889F9898081F1
:1013400085FD24C0F62E0B8D10E00F5F1F4F0F732D
:101350001127E02E8C8DE8120CC00FB607FCFACFD7
:10136000E889F989808185FFF5CFCE010E946F0958
:10137000F1CF8B8DFE01E80FF11DE35AFF4FF08294
:101380000B8FEA89FB898081806207C0EE89FF8923
:101390006083E889F98980818064808381E090E0BE
:1013A000DF91CF911F910F91FF90EF900895CF9310
:1013B000DF93EC01888D8823C9F0EA89FB8980815D
:1013C00085FD05C0A889B9898C9186FD0FC00FB62F
:1013D00007FCF5CF808185FFF2CFA889B9898C9170
:1013E00085FFEDCFCE010E946F09E7CFDF91CF914E
:1013F0000895E0E0F0E0199480E090E0892B21F07E
:101400000E946509811119C080E090E0892B41F0AC
:1014100080E090E0892B21F00E940000811110C033
:101420000E945B0981110FC080E090E0892B81F060
:101430000E94510981110AC008950E940000E4CF62
:101440000E940000EDCF0E94F909EECF0C9400003D
:101450000895089580E090E00895CF93DF93EC0124
:1014600088819981009711F00E94432A198218827D
:101470001D821C821B821A82DF91CF9108950F93E7
:101480001F93CF93DF938C01EB01FC01808191814D
:101490000097B1F0688179816115710579F0428119
:1014A00053812C813D814217530740F00E94D22B7B
:1014B0008C819D81F8019583848313C00E94432A07
:1014C00088819981F801918380838A819B819383AC
:1014D00082838C819D8195838483198218821B82EB
:1014E0001A821D821C82DF91CF911F910F91089566
:1014F0000F931F93CF93DF93EC018881998100971D
:1015000029F02A813B812617370788F48B016F5F0A
:101510007F4F0E94DB2A009761F0998388831B83A9
:101520000A832C813D81232B11F4FC01108281E080
:1015300001C080E0DF91CF911F910F910895EF924C
:10154000FF920F931F93CF93DF93EC017B018A01EE
:10155000BA010E94780A811104C0CE010E942D0AAE
:1015600007C01D830C83B701888199810E94D22B0B
:10157000CE01DF91CF911F910F91FF90EF900895D1
:10158000FC01808191810C94432AEF92FF920F938A
:101590001F93CF93DF93CDB7DEB762970FB6F89462
:1015A000DEBF0FBECDBF8C01CB01F80111821082CE
:1015B000138212821582148250E09E012F5F3F4FEA
:1015C0007901B9010E94E425F70101900020E9F7B3
:1015D0003197AF014E195F09B701C8010E949F0AF8
:1015E00062960FB6F894DEBF0FBECDBFDF91CF91EC
:1015F0001F910F91FF90EF900895FC0111821082CE
:1016000013821282158214826115710551F0FB015B
:1016100001900020E9F73197AF01461B570B0C945E
:101620009F0A0895BF92CF92DF92EF92FF920F939D
:101630001F93CF93DF937C016B01EA01890124178B
:10164000350720F48D2FE901042F182F6AEA73E083
:10165000C7010E94FD0AD60114968D919C911597A1
:10166000C817D90748F58017910708F48C01D601EF
:10167000ED91FC911197E00FF11FB08010824D9118
:101680005C91BA016C0F7D1F6115710561F0FB0162
:1016900001900020E9F73197AF01461B570BC701B6
:1016A0000E949F0A03C0C7010E942D0AD601ED9136
:1016B000FC91E00FF11FB082C701DF91CF911F9124
:1016C0000F91FF90EF90DF90CF90BF9008951F9201
:1016D0000F920FB60F9211240BB60F922F933F93D8
:1016E0004F935F936F937F938F939F93AF93BF932A
:1016F000EF93FF938091FD039091FE03A091FF0370
:10170000B0910004892B8A2B8B2B59F18091FC031B
:10171000E091FA03F091FB03908189278083809107
:10172000FD039091FE03A091FF03B09100041816F1
:1017300019061A061B060CF056C08091FD03909105
:10174000FE03A091FF03B09100040197A109B10924
:101750008093FD039093FE03A093FF03B0930004D6
:1017600042C080910002E6E1F2E0E4919FEF9093A5
:101770000002E230C9F050F4EE2399F0E13081F537
:1017800090916F009D7F90936F002AC0E43019F113
:10179000E0F0E53029F5909173009D7F9093730000
:1017A0001FC010926E001CC0909170009D7F90939E
:1017B000700091E09093B0009091B100987F946098
:1017C0009093B1001092B3000BC0909171009D7F77
:1017D0009093710005C0909172009D7F909372006C
:1017E00060E00E944116FF91EF91BF91AF919F91F0
:1017F0008F917F916F915F914F913F912F910F90BA
:101800000BBE0F900FBE0F901F901895DC01ED914D
:10181000FC91DB0114964D915C9115976D917C9133
:101820000280F381E02D19941F920F920FB60F9250
:1018300011240BB60F922F933F934F935F936F93A7
:101840007F938F939F93AF93BF93EF93FF938DEB12
:1018500094E00E946F09FF91EF91BF91AF919F912A
:101860008F917F916F915F914F913F912F910F9049
:101870000BBE0F900FBE0F901F9018951F920F92E6
:101880000FB60F9211240BB60F922F933F934F93E5
:101890005F936F937F938F939F93AF93BF93EF93D8
:1018A000FF938DEB94E00E94FB08FF91EF91BF91B5
:1018B000AF919F918F917F916F915F914F913F91E8
:1018C0002F910F900BBE0F900FBE0F901F90189589
:1018D0001F920F920FB60F9211240BB60F922F93F7
:1018E0003F934F935F936F937F938F939F93AF93A8
:1018F000BF93EF93FF938AE595E00E946F09FF91F4
:10190000EF91BF91AF919F918F917F916F915F9177
:101910004F913F912F910F900BBE0F900FBE0F90E4
:101920001F9018951F920F920FB60F9211240BB6AD
:101930000F922F933F934F935F936F937F938F9368
:101940009F93AF93BF93EF93FF938AE595E00E9437
:10195000FB08FF91EF91BF91AF919F918F917F9184
:101960006F915F914F913F912F910F900BBE0F9010
:101970000FBE0F901F9018951F920F920FB60F92E7
:1019800011240BB60F922F933F934F935F936F9356
:101990007F938F939F93AF93BF93EF93FF9387EFC3
:1019A00095E00E946F09FF91EF91BF91AF919F91D8
:1019B0008F917F916F915F914F913F912F910F90F8
:1019C0000BBE0F900FBE0F901F9018951F920F9295
:1019D0000FB60F9211240BB60F922F933F934F9394
:1019E0005F936F937F938F939F93AF93BF93EF9387
:1019F000FF9387EF95E00E94FB08FF91EF91BF9165
:101A0000AF919F918F917F916F915F914F913F9196
:101A10002F910F900BBE0F900FBE0F901F90189537
:101A20001F920F920FB60F9211240BB60F922F93A5
:101A30003F934F935F936F937F938F939F93AF9356
:101A4000BF93CF93DF93EF93FF932091950630E000
:101A5000F901E952FD4F8491F901EF56FD4FD49100
:101A6000F901E55BFD4FC491CC23A1F081110E94E7
:101A7000EB15EC2FF0E0EE0FFF1FE450FE4FA591A9
:101A8000B491EC91ED2331E020E009F430E0832FB4
:101A9000922F02C080E090E02091990630919A0642
:101AA0002F5F3F4F30939A06209399062091980616
:101AB000253618F026E020939406209194062430D1
:101AC000D9F128F4223069F02330D9F060C02530F4
:101AD00009F453C0263009F05AC021E0209365076D
:101AE00053C0009709F053C02091990630919A068F
:101AF0002436310508F443C0109265071092980609
:101B00001DC08130910509F042C0E091980621E0A6
:101B10002E0F20939806F0E02091990630919A06B6
:101B2000EE0FFF1FEC56F94F3087278310929A066D
:101B30001092990624E029C00097B9F4E091980624
:101B400021E02E0F20939806F0E020919906309125
:101B50009A06EE0FFF1FEC56F94F3087278310923D
:101B60009A061092990623E010C0209199063091B0
:101B70009A062536310558F007C0009741F41092B7
:101B80009A061092990603C025E0209394062091AE
:101B900097062223B9F0892B51F480919606882369
:101BA00021F08091960661E009C02F9A0BC08091C8
:101BB0009606882331F08091960660E00E944116D7
:101BC00001C02F98FF91EF91DF91CF91BF91AF911D
:101BD0009F918F917F916F915F914F913F912F9145
:101BE0000F900BBE0F900FBE0F901F901895CF92C5
:101BF000DF92EF92FF92CF93DF93EC01072E000C60
:101C0000880B990B0E942B266B017C0120E030E0B1
:101C100040E45FE30E948A2620E030E048E452E49A
:101C20000E94A9280E941B29C617D707D4F020E0DC
:101C300030E040EA5FE3C701B6010E948A2620E057
:101C400030E048E452E40E94A92820E030E040E877
:101C50005FE30E943D280E941B2921E06C177D074D
:101C60000CF420E0822F90E0DF91CF91FF90EF9075
:101C7000DF90CF9008958F929F92AF92BF92CF92B4
:101C8000DF92EF92FF920F931F93CF93DF93EC01BC
:101C90006A017B0120E030E04FE753E4C701B60161
:101CA0000E948A264B015C0120E030E0A9010E94DD
:101CB000A92918161CF4C501B40103C0C501B4015B
:101CC00090580E941B298B0120E030E0A901C70138
:101CD000B6010E94A929181614F460E001C061E061
:101CE00089810E9441160F3F110509F014F4112754
:101CF00002C00FEF10E0C88161E08C2F0E948F16A8
:101D00000115110509F4B1C00F3F110509F4AFC069
:101D1000EC2FF0E0E952FD4FE4914E2F50E0FA0134
:101D20003197E231F10508F09DC08827EE58FF4F4A
:101D30008F4F0C94E92784B5806884BD07BDA7C088
:101D400084B5806284BD08BDA2C080918000806897
:101D500080938000109389000093880098C0809140
:101D6000800080628093800010938B0000938A0033
:101D70008EC08091800088608093800010938D00D9
:101D800000938C0084C08091B00080688093B00084
:101D90000093B3007CC08091B00080628093B0005B
:101DA0000093B40074C0809190008068809390008C
:101DB00010939900009398006AC08091900080620F
:101DC0008093900010939B0000939A0060C08091D4
:101DD000900088608093900010939D0000939C0079
:101DE00056C08091A00080688093A0008091A000E0
:101DF0008F7B8093A0001093A9000093A80047C098
:101E00008091A00080628093A0001093AB000093AB
:101E1000AA003DC08091A00088608093A00010932C
:101E2000AD000093AC0033C08091200180688093A6
:101E30002001109329010093280129C080912001DD
:101E400080628093200110932B0100932A011FC010
:101E50008091200188608093200110932D010093D0
:101E60002C0115C00038110514F460E001C061E0D8
:101E70008C2FDF91CF911F910F91FF90EF90DF900A
:101E8000CF90BF90AF909F908F900C944116DF91B0
:101E9000CF911F910F91FF90EF90DF90CF90BF9067
:101EA000AF909F908F9008951F93CF93DF93EC0195
:101EB000162F88818C3008F04DC061E0812F0E9480
:101EC0008F16E88195E09E9FF0011124EA59F84FA2
:101ED0001F738081807C182B10831382E8819E9F62
:101EE000F0011124EA59F84F148288816CE00E94B5
:101EF000C9279CE0899FA001112420E030E095E0F3
:101F0000B901640F751F969FF001979FF00D112482
:101F1000EA59F84F608166FD13C02F5F3F4F2C30A8
:101F2000310571F781110CC01092800082E080931E
:101F30008100109285001092840086BB80936F0010
:101F4000E88185E0E89FF0011124EA59F84F80818B
:101F5000806480838881DF91CF911F9108951F92C3
:101F60000F920FB60F9211240BB60F922F933F933F
:101F70004F935F936F937F938F939F93AF93BF9391
:101F8000EF93FF938091F90387FF05C010928500BE
:101F90001092840016C02091F903022E000C330B1E
:101FA0008091A20790E0281739075CF43091F9037B
:101FB00025E03203F0011124EA59F84F808186FDB3
:101FC00015C08091F9038F5F8093F9032091F90385
:101FD000022E000C330B8091A20790E028173907DE
:101FE00094F48091F9038C302CF10DC03091F903F9
:101FF0003203F0011124EA59F84F808160E08F73B9
:102000000E944116DECF8091840090918500843437
:102010009C4918F480E49CE905C08091840090916B
:102020008500049690938900809388008FEF8093B9
:10203000F9032AC040918400509185003091F90342
:1020400025E03203F0011124EA59F84F8181928191
:10205000840F951F90938900809388003091F90335
:102060003203F0011124EA59F84F808186FF0CC039
:102070003091F9033203F0011124EA59F84F8081BD
:1020800061E08F730E944116FF91EF91BF91AF9174
:102090009F918F917F916F915F914F913F912F9180
:1020A0000F900BBE0F900FBE0F901F9018958EBD16
:1020B00000000DB407FEFDCF8EB50895CF93DF93DA
:1020C000EC0160E088810E94411688E90E94571067
:1020D00080E00E94571080E00E94571080E00E942C
:1020E000571080E00E94571061E088810E944116DD
:1020F0008BE891E00197F1F760E088810E9441163A
:1021000080EE0E94571061E08881DF91CF910C949E
:102110004116AF92BF92CF92DF92EF92FF920F9350
:102120001F93CF93DF93CDB7DEB760970FB6F894C8
:10213000DEBF0FBECDBF5C0160E0FC0180810E946C
:10214000411680E60E9457108E010F5F1F4F7E01DF
:10215000F1E1EF0EF11C680180E00E94571090E061
:10216000A0E0B0E0F60181939193A193B1936F0148
:10217000EE15FF0589F761E0F50180810E944116A7
:1021800080E090E0DC01F801419151916191719101
:102190008F01BA2FA92F982F8827840F951FA61F6C
:1021A000B71FEE15FF0579F79C01AD01662777276C
:1021B000CB01621B730B840B950B60960FB6F894E2
:1021C000DEBF0FBECDBFDF91CF911F910F91FF906A
:1021D000EF90DF90CF90BF90AF900895FC012481E5
:1021E00031E030937D0420939F0410927E0410927E
:1021F000A0048485682B81EB94E00E948F120C94DC
:1022000053180F931F93CF938C01C62F0E94EE108B
:102210006C2F6460C8010E94EE106C2F6B7FC801A8
:102220000E94EE1083EC90E00197F1F7CF911F919F
:102230000F9108950F931F93CF938C01C62F607F4A
:1022400061600E94011180E1C89FB00111246160AA
:10225000C8010E94011181E090E0CF911F910F9180
:1022600008950F931F93CF938C01C62F607F0E9418
:10227000011180E1C89FB0011124C801CF911F91C5
:102280000F910C940111CF93DF93CDB7DEB7289750
:102290000FB6F894DEBF0FBECDBF9C0188E0E7E02B
:1022A000F2E0DE01119601900D928A95E1F7F901B5
:1022B0008085841710F44FEF480FFE013196E40F2C
:1022C000F11DE40FF11D9081690F6068C901289626
:1022D0000FB6F894DEBF0FBECDBFDF91CF910C9447
:1022E0003111CF93DF93EC0161E00E9431118BE358
:1022F0009FE10197F1F78985882339F040E060E09C
:10230000CE01DF91CF910C944311DF91CF910895CD
:10231000CF93C82F60919D0970E085EA99E00E94F3
:10232000540FCC2311F065E501C06BE981E0CF913A
:102330000C94B21DCF93C82F60919C0970E084EA81
:1023400099E00E94540FCC2311F06BE701C060E0CC
:1023500080E0CF910C94B21D8091B1089091B208A9
:102360000C947111CF93DF9300D000D0CDB7DEB7BE
:102370001A8219821C821B821E821D82FC016081CE
:1023800071816115710531F044815581CE0101964D
:102390000E949F0ACE0101960E940219CE01019669
:1023A0000E94C00A26960FB6F894DEBF0FBECDBFBE
:1023B000DF91CF910895823040F08FE293E00E9448
:1023C000311860E070E0CB01089581110CC080E904
:1023D00099E00E94891090958095709561957F4F46
:1023E0008F4F9F4F089582E999E00C9489108230B5
:1023F00020F083E493E00C943118813009F4705894
:1024000090E0880F991F8457964F0C943B0E85EDF2
:102410008093BC008091BC0084FDFCCF10927C04B2
:10242000089540912504262F30E0240F311D2132DC
:102430003105DCF420917C042430C9F4FC0180E0F7
:1024400090E0861758F4309125042191DC01AD5FAE
:10245000BB4FA30FB11D2C930196F3CF80912504A0
:10246000680F6093250480E0089581E0089582E07C
:102470000895089581E090E03091020420910104D4
:10248000321710F480E090E09195819591090895BC
:102490008091020490910104891730F48F5F80933A
:1024A000020480E090E008958FEF9FEF08958091FF
:1024B000010490E020910204821B91090895CF92BB
:1024C000DF92EF92FF920F931F93CF93DF937C01E4
:1024D000262F972F8A0180917D04882391F0C62FA3
:1024E000D72F6E01C40ED51ECC15DD0571F0699194
:1024F000D701ED91FC910190F081E02DC701199574
:10250000F3CF642F822F0E941112C801DF91CF9167
:102510001F910F91FF90EF90DF90CF900895CF9390
:10252000DF931F92CDB7DEB7698320917D0422230C
:10253000D1F02091A004203240F021E030E0FC01F5
:102540003383228380E090E015C080917E04E82FE1
:10255000F0E0E158FB4F998190838F5F80937E0478
:102560008093A00405C061E0CE0101960E94111283
:1025700081E090E00F90DF91CF9108954F925F92AC
:102580006F927F929F92AF92BF92CF92DF92EF9223
:10259000FF920F931F93CF93DF93EC016C0197FF92
:1025A00003C02FEFC21AD20AD594C7940D2C000C89
:1025B000EE08FF088E010170112781E00827202F07
:1025C0002170922E98EB492E9EE1592E95E0692EAE
:1025D0009EE3792E8091A7088111B1C140919E0898
:1025E00050919F086091A0087091A1088CE899E033
:1025F0000E943B0E4091A2085091A3086091A4084C
:102600007091A50881E00E94F7110E94DB1A8230C8
:10261000910519F41092A6084EC09C012D7F24301C
:10262000310579F41092A6084092A2085092A308AE
:102630006092A4087092A5088DEC9CECACE4BEE31B
:1026400046C021303105B9F41092A6088DEC9CECFF
:10265000ACE4BEE38093A2089093A308A093A408DF
:10266000B093A50840929E0850929F086092A008DF
:102670007092A108AFCF079709F0ACCF8091A60860
:102680008111A8CF81E08093A608C701B6010E94FE
:102690002B260E945129A090A808B090A9082FEFDE
:1026A000A21AB20AB092A908A092A8080E941B29F7
:1026B000A616B706A9F08DEC9CECACE4BEE38093C3
:1026C000A2089093A308A093A408B093A5088093B0
:1026D0009E0890939F08A093A008B093A1087ACF7A
:1026E00001151105A9F010929E0810929F081092F2
:1026F000A0081092A1088DEC9CECACE4BEE38093A2
:10270000A2089093A308A093A408B093A50814C0AE
:102710008DEC9CECACE4BEE380939E0890939F0804
:10272000A093A008B093A1081092A2081092A30849
:102730001092A4081092A5084DEC5CEC6CE47EE3CA
:102740008CE899E00E943B0E4DEC5CEC6CE47EEB77
:102750008EE899E00E943B0E6AEF70E080E090E026
:102760000E94111740919E0850919F086091A00807
:102770007091A1088CE899E00E943B0E4091A2085C
:102780005091A3086091A4087091A50881E00E946F
:10279000F7116EE571E080E090E00E9411170E9451
:1027A000DB1A0797E1F70E949B1BC530D1059CF40B
:1027B00080E00E94881164EF71E080E090E00E9468
:1027C00011170E94061B0E949B1B892D0E94411C11
:1027D00087E090E015C0C530D105A9F480E00E94E3
:1027E000881164EF71E080E090E00E9411170E9470
:1027F000061B0E949B1B892D0E94411C86E090E0D5
:102800000E94BE12E7CEC630D10509F08FC081E02C
:102810000E94881164EF71E080E090E00E9411173F
:1028200080E00E949A114AE959E969E17EE38EE865
:1028300099E00E943B0E4AE959E969E17EEB8CE898
:1028400099E00E943B0E6CED75E080E090E00E9404
:10285000111740E050E060E070E88EE899E00E94D7
:102860003B0E40E050E0BA018CE899E00E943B0E3C
:1028700081E00E949A1168E873E180E090E00E9494
:1028800011170E949B1B64EF71E080E090E00E94B2
:10289000111780E00E949A1164EF71E080E090E0EF
:1028A0000E9411174AE959E969E17EE38EE899E04F
:1028B0000E943B0E4AE959E969E17EEB8CE899E018
:1028C0000E943B0E6CED75E080E090E00E941117D5
:1028D00040E050E060E070E88EE899E00E943B0E36
:1028E00040E050E0BA018CE899E00E943B0E81E0A4
:1028F0000E949A1168E873E180E090E00E9411174D
:102900000E949B1B80E00E94881164EF71E080E0D0
:1029100090E00E9411170E94061B0E949B1B0E94C0
:102920009B1B0E949B1B0E949B1B04C0C730D105B0
:1029300009F050CE0E94971D0E94DB1C4BCEDF9108
:10294000CF911F910F91FF90EF90DF90CF90BF90AC
:10295000AF909F907F906F905F904F9008951F92DF
:102960000F920FB60F9211240F900FBE0F901F9071
:1029700018951F920F920FB60F9211240BB60F925B
:102980002F933F934F935F936F937F938F939F9377
:10299000AF93BF93EF93FF938091B900887F803608
:1029A00009F49CC068F5883209F45BC090F480316A
:1029B00009F454C038F4882309F4F6C0883009F4C7
:1029C0004DC0F6C0883109F44CC0803209F45DC0B6
:1029D000EFC0803409F468C048F4803309F455C06E
:1029E000883309F0E5C080937A04D8C0803509F4B3
:1029F0004FC0883509F45DC0883409F0D9C0D6C00D
:102A0000883909F4C7C0A8F4883709F467C038F4D6
:102A1000883609F463C0803709F460C0C9C08838BB
:102A200009F4B8C0803909F45FC0803809F0C0C02B
:102A30005BC0803B09F486C038F4803A09F466C074
:102A4000883A09F47FC0B4C0803C09F4A7C0883C30
:102A500009F4A4C0883B09F48AC0AAC08091570435
:102A600010C09091790480917804981770F5E091E6
:102A7000790481E08E0F80937904F0E0E85AFB4FEF
:102A800080818093BB0085EC86C080937A048EC0E1
:102A9000E091790481E08E0F809379048091BB00EE
:102AA000F0E0E85AFB4F808390917904809178049C
:102AB0006EC0E091790481E08E0F8093790480915B
:102AC000BB00F0E0E85AFB4F808380917B048111CA
:102AD0006DC081E08093560484EA61C083E08093F6
:102AE0007C0410924904CFCF80914904803208F0D1
:102AF00051C0E091490481E08E0F80934904809198
:102B0000BB00F0E0E75DFB4F8083BDCF85EC809399
:102B1000BC0010927C0480914904803230F4E09132
:102B20004904F0E0E75DFB4F10826091490470E0DA
:102B3000E0912704F091280489E294E0199510921D
:102B4000490436C084E080937C04109226041092DD
:102B50002504E0912304F091240419958091250423
:102B6000811105C081E08093250410920304E09157
:102B7000260481E08E0F80932604F0E0ED5FFB4F8A
:102B800080818093BB009091260480912504981742
:102B900008F479CF85E88093BC000AC085EC809367
:102BA000BC0010927C0404C010927A040E940712A8
:102BB000FF91EF91BF91AF919F918F917F916F9115
:102BC0005F914F913F912F910F900BBE0F900FBED1
:102BD0000F901F90189590E0FC013197E231F105BC
:102BE00008F04EC08827EC57FF4F8F4F0C94E92711
:102BF000809180008F7703C0809180008F7D8093CB
:102C00008000089580918000877FF9CF84B58F7709
:102C100002C084B58F7D84BD08958091B0008F7708
:102C200003C08091B0008F7D8093B00008958091A3
:102C300090008F7707C0809190008F7D03C08091B6
:102C40009000877F8093900008958091A0008F77F7
:102C500007C08091A0008F7D03C08091A000877F76
:102C60008093A0000895809120018F7707C0809104
:102C700020018F7D03C080912001877F80932001F8
:102C800008951F93CF93DF93282F30E0F901E95285
:102C9000FD4F8491F901EF56FD4FD491F901E55BA9
:102CA000FD4FC491CC23C9F0162F81110E94EB1562
:102CB000EC2FF0E0EE0FFF1FEF5CFD4FA591B491FC
:102CC0008FB7F894111105C09C91ED2FE095E92381
:102CD00002C0EC91ED2BEC938FBFDF91CF911F9150
:102CE000089510927C0481E080937B041092560436
:102CF00061E084E10E94411661E085E10E94411695
:102D0000E9EBF0E080818E7F808380818D7F8083FE
:102D100088E48093B80085E48093BC000895CF9345
:102D2000DF9390E0FC01EF56FD4F2491FC01E55B41
:102D3000FD4F8491882361F190E0880F991FFC0179
:102D4000E95EFD4FC591D491FC01EF5CFD4FA5916B
:102D5000B491611109C09FB7F894888120958223AE
:102D60008883EC912E230BC0623061F49FB7F894F6
:102D70003881822F809583238883EC912E2B2C938E
:102D80009FBF06C08FB7F894E8812E2B28838FBF92
:102D9000DF91CF910895863308F0865390917B00A0
:102DA000282F2870977F922B90937B0087708064E8
:102DB00080937C0080917A00806480937A00809177
:102DC0007A0086FDFCCF809178002091790090E018
:102DD000922B08953FB7F894809152049091530438
:102DE000A0915404B091550426B5A89B05C02F3F6F
:102DF00019F00196A11DB11D3FBFBA2FA92F982F21
:102E00008827820F911DA11DB11DBC01CD0142E09B
:102E1000660F771F881F991F4A95D1F708950E9462
:102E2000C42B8F929F92AF92BF92CF92DF92EF927C
:102E3000FF926B017C010E94EA164B015C01C114F8
:102E4000D104E104F104F1F00E94EA16DC01CB01A7
:102E500088199909AA09BB09883E9340A105B105C3
:102E600070F321E0C21AD108E108F10888EE880E5B
:102E700083E0981EA11CB11CC114D104E104F1042B
:102E800019F7DDCFFF90EF90DF90CF90BF90AF901C
:102E90009F908F9008951F920F920FB60F9211245A
:102EA0002F933F938F939F93AF93BF9380914E0443
:102EB00090914F04A0915004B091510430914D0471
:102EC00023E0230F2D3720F40196A11DB11D05C06D
:102ED00026E8230F0296A11DB11D20934D04809377
:102EE0004E0490934F04A0935004B09351048091EA
:102EF000520490915304A0915404B091550401964A
:102F0000A11DB11D8093520490935304A0935404C7
:102F1000B0935504BF91AF919F918F913F912F91A5
:102F20000F900FBE0F901F9018958F929F92AF92A7
:102F3000BF92CF92DF92EF92FF920F931F93CF93A6
:102F4000DF93FC01C081D1812091AD043091AE04AA
:102F5000C217D3070CF04BC09E01220F331FE09124
:102F6000AB04F091AC04E20FF31F80809180C1703C
:102F7000DD27F1E0CF27209719F404E610E002C026
:102F80000CE91FEF7A015B016C01040F151FB801FA
:102F9000C4010E94F70D892B99F40E0D1F1DB80175
:102FA000C4010E94F70D892B71F4B8016E0D7F1DCD
:102FB000C4010E94F70D892BE9F023E030E005C041
:102FC00021E030E002C022E030E0F5018081918113
:102FD0000196821793073CF0F50111821082F601E9
:102FE00080819181019691838083CE0105C081E02B
:102FF00090E002C08FEF9FEFDF91CF911F910F9173
:10300000FF90EF90DF90CF90BF90AF909F908F9008
:103010000895E7EFF5E0A089B18982E08C93A4855B
:10302000B5851C92A685B7858FEC8C93108EA489EC
:10303000B58986E08C93A289B3898C9180618C9349
:10304000A289B3898C9188608C93A289B3898C9171
:1030500080688C930288F389E02D80818F7D808346
:103060000895CF93DF93009779F0FC010190002041
:10307000E9F73197AF01481B590BBC0187EF95E089
:103080000E94D008EC0102C0C0E0D0E042E050E075
:1030900068EA73E087EF95E00E94D0088C0F9D1FCF
:1030A000DF91CF9108952091A00490919F04213247
:1030B00008F04AC080917C048111FCCF32E030934B
:1030C0007C0431E030937B043FEF30937A0410921C
:1030D000790420937804AFE7B4E048E554E0FA01BE
:1030E0003E2F341B321718F43D913193F9CF1092D3
:1030F000570420915704990F922B90935704909165
:103100005604913061F410925604909157049093B4
:10311000BB009091BC0093FDF8CF95EC01C095EEFB
:103120009093BC0090917C049230E1F390917A04EA
:103130009F3F79F080917A04803241F080917A0447
:10314000803331F084E005C081E003C082E001C03B
:1031500083E010927E041092A00410927D040895E2
:10316000EF92FF921F93CF93DF931F92CDB7DEB7FD
:10317000162F93E7E92E99E0F92ED7011C969C9122
:103180001C9721E020937D0490939F0410927E046D
:103190001092A0041A960D90BC91A02DED91FC9177
:1031A00011970190F081E02D682FCD017983199559
:1031B000F70182859385DC01ED91FC910190F0810E
:1031C000E02D7981672F1995F70182859385DC01C0
:1031D000ED91FC910190F081E02D612F19950F90F8
:1031E000DF91CF911F91FF90EF900C945318E1EB7A
:1031F000F8E01382482F4370428360E08081918120
:103200000C944311BF92CF92DF92EF92FF920F93F3
:103210001F93CF93DF93CDB7DEB72C970FB6F894FB
:10322000DEBF0FBECDBF8C01FC01C4806AEA73E033
:10323000CE0107960E94FD0AD12C84E1E82EF12CE4
:1032400094E1B92E8091B40890E02C2D30E0B701C4
:10325000681B790B4D2D50E062177307ACF59A018E
:103260002C5E3F4F281B390BB801CE0101960E94FE
:10327000120BBE016F5F7F4FCE0107960E943F0A7F
:10328000CE0101960E94C00ABE01695F7F4F809106
:10329000B1089091B2080E94060C8091B4089B2D51
:1032A000981BD90E4091B3084F5F43704093B30809
:1032B0008451C80E60E08091B1089091B2080E94DC
:1032C00043111092B408BECFF80124813581B801B2
:1032D000CE0101960E94120BBE016F5F7F4FCE019F
:1032E00007960E943F0ACE0101960E94C00ABE01C5
:1032F000695F7F4F8091B1089091B2080E94060CDF
:103300002091B4088B859C85820F911D8093B40811
:103310006AEA73E0CE0101960E94FD0AF090B408BB
:10332000F3E1FF15C8F00D811E810F5F1F4FB8013B
:10333000CE0101960E94780A882361F029813A81A2
:103340008D819E816CEA73E0820F931F0E94D22BC5
:103350001E830D83F394E4CFBE016F5F7F4F809196
:10336000B1089091B2080E94060C4091B308609198
:10337000B4088091B1089091B2080E944311CE0127
:1033800001960E94C00ACE0107960E94C00A2C96A0
:103390000FB6F894DEBF0FBECDBFDF91CF911F9166
:1033A0000F91FF90EF90DF90CF90BF9008951F9303
:1033B000CF93DF9300D000D0CDB7DEB78091A307C5
:1033C000811172C00E94AC1180E00E94F7186BEA74
:1033D00073E0CE0101960E94FD0ACE0101960E9483
:1033E000B211CE0101960E94C00A8091A40790916B
:1033F000A507019714E1189FB001199F700D1124C2
:103400006A55784FCE0101960E94FD0ACE010196C1
:103410000E94B211CE0101960E94C00A81E00E9472
:10342000F7186EEA73E0CE0101960E94FD0ACE0104
:1034300001960E94B211CE0101960E94C00A8091AD
:10344000A4079091A507189FB001199F700D112432
:103450006A55784FCE0101960E94FD0ACE01019671
:103460000E94B211CE0101960E94C00A82E00E9421
:10347000F7186BEA73E0CE0101960E94FD0ACE01B7
:1034800001960E94B211CE0101960E94C00A80915D
:10349000A4079091A5070196189FB001199F700D80
:1034A00011246A55784F71C00E94AC1180E00E94CF
:1034B000F7186BEA73E0CE0101960E94FD0ACE0177
:1034C00001960E94B211CE0101960E94C00A80911D
:1034D0001E0890911F08019714E1189FB001199FD1
:1034E000700D1124605E774FCE0101960E94FD0A97
:1034F000CE0101960E94B211CE0101960E94C00A2F
:1035000081E00E94F7186EEA73E0CE0101960E94F6
:10351000FD0ACE0101960E94B211CE0101960E94D1
:10352000C00A80911E0890911F08189FB001199F32
:10353000700D1124605E774FCE0101960E94FD0A46
:10354000CE0101960E94B211CE0101960E94C00ADE
:1035500082E00E94F7186BEA73E0CE0101960E94A8
:10356000FD0ACE0101960E94B211CE0101960E9481
:10357000C00A80911E0890911F080196189FB00103
:10358000199F700D1124605E774FCE0101960E9445
:10359000FD0ACE0101960E94B211CE0101960E9451
:1035A000C00A26960FB6F894DEBF0FBECDBFDF91DE
:1035B000CF911F910895CF93DF9382E40E94CB16A1
:1035C00031E020E040919C0850919D084817590730
:1035D0000CF430E0C32FD22F81E40E94CB1620914F
:1035E0009A0830919B08281739070CF022968FE330
:1035F0000E94CB1620919808309199082817390716
:103600000CF02496CE01DF91CF9108954AE959E953
:1036100069E17EE38EE899E00E943B0E4AE959E9B0
:1036200069E17EEB8CE899E00E943B0E6EEE72E061
:1036300080E090E00E94111780E999E00E945E10FE
:1036400082E999E00E945E1080E00E94DB110E94F6
:103650002B262EE53BEB4CEB5CE30E948A2620E018
:1036600030E042EB52E40E94242687FD23C082E929
:1036700099E00E9489100E942B262EE53BEB4CEB33
:103680005CE30E948A2620E030E042EB52EC0E948C
:10369000A92918167CF040E050E060E070E88EE860
:1036A00099E00E943B0E40E050E0BA018CE899E0BE
:1036B0000C943B0E80E00E94DB110E942B262EE52D
:1036C0003BEB4CEB5CE30E948A2620E030E042EBCF
:1036D00052E40E94242687FF05C04AE959E969E1BE
:1036E0007EE303C040E050E0BA018CE899E00E941C
:1036F0003B0E82E999E00E9489100E942B262EE55C
:103700003BEB4CEB5CE30E948A2620E030E042EB8E
:1037100052EC0E94A92918162CF447E856E169E1F9
:103720007EE304C040E050E060E070E88EE899E09D
:103730000E943B0E89CF8F929F92AF92BF92CF9201
:10374000DF92EF92FF920E94DB1A079789F44DEC0B
:103750005CEC6CEC7DE38CE899E00E943B0E4DEC58
:103760005CEC6CEC7DEB8EE899E00E943B0EEBCFBD
:1037700068EC70E080E090E00E9411178DECC82E9C
:103780008CECD82E8CE4E82E8EE3F82E98EB892E64
:103790009EE1992E95E0A92E9EE3B92E40919E08B8
:1037A00050919F086091A0087091A1088CE899E061
:1037B0000E943B0E4091A2085091A3086091A4087A
:1037C0007091A50881E00E94F7110E94DB1A8230F7
:1037D000910559F41092A608C092A208D092A308AD
:1037E000E092A408F092A5080FC09C012D7F243020
:1037F000310599F41092A6088092A2089092A3082D
:10380000A092A408B092A508C0929E08D0929F08EA
:10381000E092A008F092A108C1CF2130310599F4BF
:103820001092A608C092A208D092A308E092A40821
:10383000F092A50880929E0890929F08A092A008FE
:10384000B092A108ABCF079709F0A8CF8091A60846
:103850008111A4CF40E050E0BA018CE899E00E94C9
:103860003B0E40E050E060E070E88EE899E0FF90A9
:10387000EF90DF90CF90BF90AF909F908F900C947F
:103880003B0ECF93DF93D82F4DEC5CEC6CE47EE3E2
:103890008CE899E00E943B0E4DEC5CEC6CE47EEB16
:1038A0008EE899E00E943B0E0E94DB1A892BE1F71B
:1038B0000E94DB1A0797E1F766E970E080E090E08C
:1038C0000E9411178D2F90E0880F991F8057964FF7
:1038D0000E945E10C1E0CD278C2F90E0880F991FC9
:1038E0008057964F0E945E108D2F0E94DB110E9420
:1038F0002B262EE53BEB4CEB5CE30E948A2620E076
:1039000030E048E252E40E94242687FF3DC08D2F1C
:103910000E94DB110E942B262EE53BEB4CEB5CE377
:103920000E948A2620E030E048E252E40E942426E9
:1039300087FF05C04AE959E969E17EE303C040E039
:1039400050E0BA018D2F0E94F7118C2F0E94DB11DD
:103950000E942B262EE53BEB4CEB5CE30E948A2673
:1039600020E030E048E252EC0E94A92918162CF41D
:1039700047E856E169E17EEB03C040E050E0BA0160
:103980008C2F0E94F711B0CF8C2F0E94DB110E9468
:103990002B262EE53BEB4CEB5CE30E948A2620E0D5
:1039A00030E048E252EC0E94A92918160CF4AFCF7F
:1039B000DF91CF9108958F929F92AF92BF92CF9255
:1039C000DF92EF92FF92CF930E94061B0E949B1BF7
:1039D00081E00E94411C0E949B1B8DECC82E8CEC48
:1039E000D82E8CE4E82E8EE3F82E98EB892E9EE1FB
:1039F000992E95E0A92E9EE3B92E40919E085091F4
:103A00009F086091A0087091A1088CE899E00E943D
:103A10003B0E4091A2085091A3086091A4087091B8
:103A2000A50881E00E94F7110E94DB1A82309105FF
:103A300059F41092A608C092A208D092A308E0926E
:103A4000A408F092A5080FC09C012D7F24303105F9
:103A500099F41092A6088092A2089092A308A092CE
:103A6000A408B092A508C0929E08D0929F08E09248
:103A7000A008F092A108C1CF2130310599F410922D
:103A8000A608C092A208D092A308E092A408F092DF
:103A9000A50880929E0890929F08A092A008B092DC
:103AA000A108ABCF079709F0A8CF8091A608811194
:103AB000A4CF8091A8089091A90801979093A90894
:103AC0008093A8080196C1F44AE959E969E17EE3C7
:103AD0008CE899E00E943B0E4AE959E969E17EEBE6
:103AE0008EE899E00E943B0E60ED77E080E090E088
:103AF0000E94111781E001C080E0C1E0C093A608D8
:103B0000882309F47ACF0E94061BC093A7088FEF81
:103B10009FEF9093A9088093A808CF91FF90EF9012
:103B2000DF90CF90BF90AF909F908F90089581E0ED
:103B30000E94881164EF71E080E090E00E9411170C
:103B400080E00E949A1160E273E080E090E00E94C1
:103B5000111781E00E949A1164EF71E080E090E01B
:103B60000C941117CF92DF92EF92FF92CF93DF93D5
:103B7000823018F081EB93E00AC090919E0969179A
:103B800020F090919F09961750F483EC93E0DF9119
:103B9000CF91FF90EF90DF90CF900C943118E82FE9
:103BA000F0E0EC56F64FC089CC3008F072C0262FFA
:103BB00030E0D0E085E08C9FF0018D9FF00D112466
:103BC000EA59F84F8381283C31059CF528E830E01C
:103BD0006901C81AD10887FDD394CC0CDD1CCC0C2C
:103BE000DD1C0D2C000CEE08FF08848128E532E076
:103BF000281B310987FD3395220F331F220F331FF6
:103C0000C901330FAA0BBB0B9C01AD012C193D0957
:103C10004E095F09A62FB0E00E947D2724EB30E01B
:103C200040E050E00E945E27C20ED31EE41EF51E47
:103C30001EC048E850E06A01C81AD10887FDD39435
:103C4000CC0CDD1CCC0CDD1C2C153D0584F0448116
:103C500088E592E0841B910947FD9395880F991F91
:103C6000880F991F69018C159D050CF46C018FB7A5
:103C7000F89495E09C9FF0019D9FF00D1124EA5966
:103C8000F84F96E0C91AD108CC0CDD1CD282C18253
:103C90008FBFDF91CF91FF90EF90DF90CF9008958D
:103CA0008AEA98E00C94C00ACF93DF9300D000D04A
:103CB000CDB7DEB7789484B5826084BD84B5816069
:103CC00084BD85B5826085BD85B5816085BD8091E7
:103CD0006E00816080936E0010928100809181005F
:103CE0008260809381008091810081608093810057
:103CF000809180008160809380008091B100846019
:103D00008093B1008091B00081608093B000809179
:103D100091008260809391008091910081608093F6
:103D20009100809190008160809390008091A1002B
:103D300082608093A1008091A10081608093A100A6
:103D40008091A00081608093A00080912101826019
:103D500080932101809121018160809321018091D4
:103D6000200181608093200180917A00846080939B
:103D70007A0080917A00826080937A0080917A0044
:103D8000816080937A0080917A00806880937A00C5
:103D90001092C1000E9409180E94091861E08091E8
:103DA00074090E948F1660E0809174090E94411688
:103DB00060E0809173090E948F1681EB94E09093EC
:103DC0007E0980937D0910920204109201041092E2
:103DD0007E041092A0040E94711680E090E1A0E0A1
:103DE000B0E08093800990938109A0938209B093F9
:103DF00083098AE090E0A0E0B0E08093840990938A
:103E00008509A0938609B093870980E090E0A0E03F
:103E1000B0E48093880990938909A0938A09B093AC
:103E20008B0960E070E185E00E94B0186FE979E3EA
:103E300080E00E94B01800E919E0812C912CA12C9F
:103E4000B12C80E8282E82E0382E96EC492E92E0A4
:103E5000592E2BEC622E27E0722E95012D58364FED
:103E60006901F9019481828194012D58364F7901BD
:103E7000F901818F928F61E00E948F1661E0F70156
:103E8000828D0E948F16F60190858681F8018083CD
:103E9000F701968F61E00E948F1660E0F701868D32
:103EA0000E948F1661E0F80180810E944116FFB6E2
:103EB000F89480914C04811125C0F1018491F201A4
:103EC0009491E82FF0E0EE0FFF1FE95EFD4FA59102
:103ED000B4918C91982321F461E085E30E9441160E
:103EE00061E085E30E948F168CB580618CBD8CB536
:103EF00080648CBD61E084E30E948F1661E083E3FF
:103F00000E948F1680914C048F5F80934C04FFBEFB
:103F1000C3010197F1F760E0F80180810E9441162A
:103F200088E80E94571083E00E94571061E0F80172
:103F300080810E944116C3010197F1F7C8010E94D8
:103F40005E10F2E08F0E911C0E5F1F4FAA94AB28FB
:103F500021F0AA24A394B12C80CF08E919E0E4E071
:103F6000FE2EF00E60E0F80181918F010E948F1605
:103F7000F012F8CF67EAE62E69E0F62E02EA19E0C1
:103F800072E0D72ED00EF8013697608170E0C8013C
:103F900002960E94540FF80191918F01339780810E
:103FA000F70131978083F701908360E00E948F16BC
:103FB00061E0F70180810E948F1660E0F701808147
:103FC0000E944116F2E0EF0EF11CD012DCCFF89403
:103FD0001092200189E08093210180E293E0909388
:103FE000290180932801109225011092240182E07A
:103FF0008093730078948093940610929806809131
:10400000950660E00E948F160091B1081091B208E9
:10401000109202041092010410927E041092A004E7
:104020000E947116F80115828385823010F098E0A5
:104030009583F801808762E370E080E090E00E9461
:104040001117F8016485C8010E94EE1068EE73E054
:1040500080E090E00E94111760E3C8010E94011106
:104060003BE4E32E36E4F32EC7010197F1F760E35A
:10407000C8010E940111C7010197F1F760E3C8016F
:104080000E94011183E592E00197F1F760E2C80117
:104090000E940111F80165816062C8010E9431111E
:1040A00084E0F80186836CE0C8010E943111C801E8
:1040B0000E94711182E0F801878366E0C8010E94C6
:1040C000311162E0C8010E9431118BE39FE1019739
:1040D000F1F78091B1089091B20828E0FC012487A3
:1040E00060E00E94EE1040E060E08091B1089091A5
:1040F000B2080E9443118091B1089091B208FC016E
:104100006681262F2160268369600E94311181E03B
:104110000E94881181E00E949A110E94D719CC2434
:10412000C394D12C55E0252E312C0E94C40182303D
:104130009105F1F48091A30781110DC08091A4072E
:104140009091A507019685309105F9F4D092A507C5
:10415000C092A4072EC380911E0890911F0801965B
:104160008530910519F5D0921F08C0921E0821C311
:104170008130910501F58091A307811112C08091D2
:10418000A4079091A507019729F09093A507809324
:10419000A4070FC324E030E03093A5072093A407C1
:1041A00008C380911E0890911F08019790931F08E3
:1041B00080931E08FEC28B7F892B09F0FCC2809180
:1041C000A4079091A50781309105C1F48091A307C0
:1041D000811152C00E94881164EF71E080E090E08C
:1041E0000E94111760919D0970E085EA99E00E9494
:1041F000540F65E581E00E94B21DDDC28230910559
:1042000069F48091A307811137C082E090E00E9499
:10421000BE121092A70885E090E015C0833091058A
:10422000E9F48091A307811127C082E090E00E9409
:10423000BE121092A70885E090E00E94BE12109274
:10424000A70883E090E00E94BE121092A70882E0C7
:1042500090E00E94BE121092A708ADC2049761F4CC
:104260008091A307811108C0D092A507C092A4072E
:1042700081E08093A3079DC280911E0890911F0842
:104280008130910509F0E4C18091A307882309F4E6
:1042900092C20E94AC1180E00E94F71865E573E0BD
:1042A000CE0101960E94FD0ACE0101960E94B21134
:1042B000CE0101960E94C00A0E94C401892BE1F739
:1042C0000E94AC1180E00E94F7188FE30E94CB1689
:1042D0003C0181E40E94CB164C0182E40E94CB1683
:1042E0005C0164E673E0CE0101960E94FD0ACE01F6
:1042F00001960E94B211CE0101960E94C00A4AE0C6
:10430000B301CE0101960E94C50ACE0101960E941A
:10431000B211CE0101960E94C00A81E00E94F718F6
:104320006AE673E0CE0101960E94FD0ACE01019675
:104330000E94B211CE0101960E94C00A4AE0B40167
:10434000CE0101960E94C50ACE0101960E94B211CB
:10435000CE0101960E94C00A82E00E94F71860E731
:1043600073E0CE0101960E94FD0ACE0101960E94E3
:10437000B211CE0101960E94C00A4AE0B501CE01F9
:1043800001960E94C50ACE0101960E94B211CE018B
:1043900001960E94C00A0E94C401892BE1F70E9485
:1043A000AC1180E00E94F71866E773E0CE01019639
:1043B0000E94FD0ACE0101960E94B211CE01019623
:1043C0000E94C00A0E94C401892BE1F70E94AC112F
:1043D00080E00E94F7188FE30E94CB167C0181E4F5
:1043E0000E94CB168C0182E40E94CB162C0164E65D
:1043F00073E0CE0101960E94FD0ACE0101960E9453
:10440000B211CE0101960E94C00A4AE0B701CE0166
:1044100001960E94C50ACE0101960E94B211CE01FA
:1044200001960E94C00A81E00E94F7186AE673E0D4
:10443000CE0101960E94FD0ACE0101960E94B211A2
:10444000CE0101960E94C00A4AE0B801CE01019651
:104450000E94C50ACE0101960E94B211CE010196BA
:104460000E94C00A82E00E94F71860E773E0CE0164
:1044700001960E94FD0ACE0101960E94B211CE0162
:1044800001960E94C00A4AE0B201CE0101960E9444
:10449000C50ACE0101960E94B211CE0101960E947A
:1044A000C00A0E94C401892BE1F70E94AC1180E090
:1044B0000E94F718E60CF71CF7FE03C03FEFE31A63
:1044C000F30AF594E794080D191D17FF02C00F5F5A
:1044D0001F4F15950795A40CB51CB7FE03C08FEFB1
:1044E000A81AB80AB594A79466E873E0CE010196BD
:1044F0000E94FD0ACE0101960E94B211CE010196E2
:104500000E94C00A4AE0B701CE0101960E94C50A86
:10451000CE0101960E94B211CE0101960E94C00AFE
:1045200081E00E94F7186CE873E0CE0101960E94CA
:10453000FD0ACE0101960E94B211CE0101960E94A1
:10454000C00A4AE0B801CE0101960E94C50ACE0118
:1045500001960E94B211CE0101960E94C00A82E02B
:104560000E94F71862E973E0CE0101960E94FD0AED
:10457000CE0101960E94B211CE0101960E94C00A9E
:104580004AE0B501CE0101960E94C50ACE0101960E
:104590000E94B211CE0101960E94C00A0E94C4017D
:1045A000892BE1F70E94AC1180E00E94F718C70147
:1045B000B1010E94D52781E090E00E945027C801F8
:1045C000B1010E94D52782E090E00E945027C501EA
:1045D000B1010E94D52783E090E00E94502781E03E
:1045E00090E00E944827E5E08E9FC001112490933F
:1045F00099088093980882E090E00E944827F5E0AF
:104600008F9FC001112490939B0880939A0883E0A8
:1046100090E00E94482725E0829FC00111249093DA
:104620009D0880939C0868E973E0CE0101960E9482
:10463000FD0ACE0101960E94B211CE0101960E94A0
:10464000C00A6CED75E080E090E00E941117B1C0E7
:104650008230910509F07EC08091A307882309F478
:10466000AAC00E94AC1180E00E94F71864E673E0D3
:10467000CE0101960E94FD0ACE0101960E94B21160
:10468000CE0101960E94C00A81E090E00E94482776
:1046900035E0839FB00111244AE0CE0101960E94CB
:1046A000C50ACE0101960E94B211CE0101960E9468
:1046B000C00A81E00E94F7186AE673E0CE01019615
:1046C0000E94FD0ACE0101960E94B211CE01019610
:1046D0000E94C00A82E090E00E94482795E0899FEE
:1046E000B00111244AE0CE0101960E94C50ACE0114
:1046F00001960E94B211CE0101960E94C00A82E08A
:104700000E94F71860E773E0CE0101960E94FD0A4F
:10471000CE0101960E94B211CE0101960E94C00AFC
:1047200083E090E00E944827E5E08E9FB0011124CD
:104730004AE0CE0101960E94C50ACE0101960E9470
:10474000B211CE0101960E94C00A0E94C401892BB9
:10475000E1F72FC08330910501F58091A3078823ED
:1047600051F10E94AC1180E00E94F7180E94DB1A00
:104770004AE0BC01CE0101960E94C50ACE01019615
:104780000E94B211CE0101960E94C00A64EF71E04E
:1047900080E090E00E941117E4CF049761F48091CB
:1047A000A307882341F0D0921F08C0921E081092E0
:1047B000A3070E94D71964E670E080E090E00E94B1
:1047C00011170E94FC09B1CC1092B4041092B304EA
:1047D00088EE93E0A0E0B0E08093B5049093B60437
:1047E000A093B704B093B80423E033E03093B2044D
:1047F0002093B1041092C0041092BF048093C104AE
:104800009093C204A093C304B093C40425E133E0A1
:104810003093BE042093BD0445E351E05093CA0495
:104820004093C90444E351E05093CC044093CB043B
:1048300040E351E05093CE044093CD0441E351E076
:104840005093D0044093CF0442E351E05093D204FC
:104850004093D10446E351E05093D4044093D304F1
:104860001092D6041092D7041092D8041092D90452
:1048700010925D0510925C0580935E0590935F0534
:10488000A0936005B093610530935B0520935A05B2
:1048900045ED50E0509367054093660544ED50E0C8
:1048A000509369054093680540ED50E050936B05C7
:1048B00040936A0541ED50E050936D0540936C05BF
:1048C00042ED50E050936F0540936E0546ED50E089
:1048D0005093710540937005109273051092740502
:1048E00010927505109276051092FA051092F9054E
:1048F0008093FB059093FC05A093FD05B093FE0506
:104900003093F8052093F70585EC90E0909304062A
:104910008093030684EC90E090930606809305064E
:1049200080EC90E0909308068093070681EC90E07D
:1049300090930A068093090682EC90E090930C060F
:1049400080930B0686EC90E090930E0680930D0604
:104950001092100610921106109212061092130671
:1049600086E38093940987E38093950988E3809395
:10497000960989E3809397098BE1809398098DE1EB
:10498000809399098AE180939A098CE180939B092D
:1049900084E080939C0987E080939D0910929E0992
:1049A00084EB80939F0986E18093A00988E180933E
:1049B000A10987E18093A20989E18093A309E0918D
:1049C000A207EC3020F08FEF8093A40910C081E0A3
:1049D0008E0F8093A207E093A40925E0E29FF001E7
:1049E0001124EA59F84F88EB9BE092838183E09190
:1049F000A207EC3020F08FEF8093A50910C081E072
:104A00008E0F8093A207E093A50985E0E89FF0014F
:104A10001124EA59F84F88EB9BE0928381838CE064
:104A20008093730984E28093740986E0809375090A
:104A300085E0809376098FE1809377098EE18093FA
:104A4000780983E28093790982E280937A0985E488
:104A500080937B0984E480937C0980E480937F09C0
:104A60001092840910928509109286091092870984
:104A7000109288091092890910928A0910928B0964
:104A8000E5EBF8E08FEF9FEFDC01128213821482D6
:104A90001582168217821086118683879487A587D0
:104AA000B6878787908BA18BB28B1286118210827A
:104AB000739629E0E337F20741F78DE090E00E941A
:104AC000AE29FC011382128287E293E091838083F6
:104AD000118687E2848384E1828784E08387148659
:104AE000F093B208E093B1081092B3081092B408A2
:104AF00085E280939506109297066AEA73E08AEA47
:104B000098E00E94FD0A1092A30781E090E0909344
:104B1000A5078093A40728E7EFE0F2E0A6EAB7E054
:104B200001900D922A95E1F790931F0880931E083B
:104B300088E7E7E8F2E0A0E2B8E001900D928A95FC
:104B4000E1F781E090E00E94482725E0829FC001C4
:104B50001124909399088093980882E090E00E9435
:104B6000482725E0829FC001112490939B088093E1
:104B70009A0883E090E00E94482725E0829FC001C8
:104B8000112490939D0880939C088DEC9CECACECD8
:104B9000BDE380939E0890939F08A093A008B093D4
:104BA000A1088093A2089093A308A093A408B093AF
:104BB000A5081092A6081092A7088FEF9FEF909378
:104BC000A9088093A80808954532510520F4423081
:104BD00010F00C94EF25FB011082CB010895BB2748
:104BE0004A3031F4992322F4BDE2909581959F4F8C
:104BF0000C94FB25BB27FB015527AA27880F991F7B
:104C0000AA1FA41710F0A41B83955051B9F7A05DFB
:104C1000AA3308F0A95DA193009779F7B111B19378
:104C20001192CB010C941426DC01FC01672F7191C9
:104C30007723E1F7329704C07C916D937083629182
:104C4000AE17BF07C8F308950E94662608F481E0F6
:104C50000895E89409C097FB3EF49095809570956F
:104C600061957F4F8F4F9F4F9923A9F0F92F96E9B8
:104C7000BB279395F695879577956795B795F1112D
:104C8000F8CFFAF4BB0F11F460FF1BC06F5F7F4FCA
:104C90008F4F9F4F16C0882311F096E911C07723DC
:104CA00021F09EE8872F762F05C0662371F096E8E5
:104CB000862F70E060E02AF09A95660F771F881FB4
:104CC000DAF7880F9695879597F90895990F000858
:104CD000550FAA0BE0E8FEEF16161706E807F907CE
:104CE000C0F012161306E407F50798F0621B730B69
:104CF000840B950B39F40A2661F0232B242B252BEA
:104D000021F408950A2609F4A140A6958FEF811D8C
:104D1000811D08950E949D260C940E270E94002755
:104D200038F00E94072720F0952311F00C94F72605
:104D30000C94FD2611240C9442270E941F2770F327
:104D4000959FC1F3950F50E0551F629FF001729F30
:104D5000BB27F00DB11D639FAA27F00DB11DAA1F3F
:104D6000649F6627B00DA11D661F829F2227B00D8C
:104D7000A11D621F739FB00DA11D621F839FA00D17
:104D8000611D221F749F3327A00D611D231F849F67
:104D9000600D211D822F762F6A2F11249F575040BE
:104DA0009AF0F1F088234AF0EE0FFF1FBB1F661F39
:104DB000771F881F91505040A9F79E3F510580F002
:104DC0000C94F7260C9442275F3FE4F3983ED4F30B
:104DD000869577956795B795F795E7959F5FC1F7A6
:104DE000FE2B880F911D9695879597F9089597F951
:104DF0009F6780E870E060E008959FEF80EC089581
:104E000000240A94161617061806090608950024A9
:104E10000A9412161306140605060895092E039423
:104E2000000C11F4882352F0BB0F40F4BF2B11F497
:104E300060FF04C06F5F7F4F8F4F9F4F089557FDF6
:104E40009058440F551F59F05F3F71F04795880FF8
:104E500097FB991F61F09F3F79F08795089512168F
:104E600013061406551FF2CF4695F1DF08C016163B
:104E700017061806991FF1CF8695710561050894EC
:104E80000895E894BB2766277727CB0197F9089503
:104E9000F999FECF92BD81BDF89A992780B5089502
:104EA000262FF999FECF1FBA92BD81BD20BD0FB646
:104EB000F894FA9AF99A0FBE01960895052E97FB79
:104EC0001EF400940E94752757FD07D00E94882782
:104ED00007FC03D04EF40C947527509540953095FF
:104EE00021953F4F4F4F5F4F089590958095709556
:104EF00061957F4F8F4F9F4F08950E94AA27A59FCE
:104F0000900DB49F900DA49F800D911D11240895C4
:104F1000A1E21A2EAA1BBB1BFD010DC0AA1FBB1FBD
:104F2000EE1FFF1FA217B307E407F50720F0A21B2F
:104F3000B30BE40BF50B661F771F881F991F1A949C
:104F400069F760957095809590959B01AC01BD01C6
:104F5000CF010895A29FB001B39FC001A39F700D20
:104F6000811D1124911DB29F700D811D1124911D71
:104F70000895DB018F939F930E947D27BF91AF918E
:104F8000A29F800D911DA39F900DB29F900D1124A3
:104F90000895991B79E004C0991F961708F0961B95
:104FA000881F7A95C9F78095089597FB072E16F408
:104FB000009407D077FD09D00E94282807FC05D06F
:104FC0003EF4909581959F4F0895709561957F4F20
:104FD0000895EE0FFF1F881F8BBF0790F691E02DFD
:104FE00019940F93083090F0982F872F762F652F04
:104FF000542F432F322F22270850F4CF220F331F74
:10500000441F551F661F771F881F991F0A95B2F707
:105010000F91089597FB10F8169400080F9308302D
:1050200098F00850232F342F452F562F672F782FB5
:10503000892F902DF4CF059497958795779567954F
:1050400057954795379527950A95AAF70F91089593
:10505000AA1BBB1B51E107C0AA1FBB1FA617B7079E
:1050600010F0A61BB70B881F991F5A95A9F78095BA
:105070009095BC01CD0108955058BB27AA270E94E6
:1050800054280C940E270E94002738F00E9407270E
:1050900020F039F49F3F19F426F40C94FD260EF409
:1050A000E095E7FB0C94F726E92F0E941F2758F3A1
:1050B000BA17620773078407950720F079F4A6F5FD
:1050C0000C9441270EF4E0950B2EBA2FA02D0B0166
:1050D000B90190010C01CA01A0011124FF27591B3D
:1050E00099F0593F50F4503E68F11A16F040A22F43
:1050F000232F342F4427585FF3CF469537952795B4
:10510000A795F0405395C9F77EF41F16BA0B620BB2
:10511000730B840BBAF09150A1F0FF0FBB1F661FF9
:10512000771F881FC2F70EC0BA0F621F731F841F3C
:1051300048F4879577956795B795F7959E3F08F062
:10514000B0CF9395880F08F09927EE0F9795879524
:1051500008950E94BD280C940E270E94072758F03E
:105160000E94002740F029F45F3F29F00C94F726B5
:1051700051110C9442270C94FD260E941F2768F3BE
:105180009923B1F3552391F3951B550BBB27AA2700
:1051900062177307840738F09F5F5F4F220F331F3A
:1051A000441FAA1FA9F335D00E2E3AF0E0E832D002
:1051B00091505040E695001CCAF72BD0FE2F29D005
:1051C000660F771F881FBB1F261737074807AB07D7
:1051D000B0E809F0BB0B802DBF01FF2793585F4F4C
:1051E0003AF09E3F510578F00C94F7260C94422734
:1051F0005F3FE4F3983ED4F3869577956795B7952E
:10520000F7959F5FC9F7880F911D9695879597F938
:105210000895E1E0660F771F881FBB1F62177307B1
:105220008407BA0720F0621B730B840BBA0BEE1FC6
:1052300088F7E09508950E9422296894B1110C9492
:10524000422708950E94272788F09F5798F0B92F8A
:105250009927B751B0F0E1F0660F771F881F991FAB
:105260001AF0BA95C9F714C0B13091F00E944127E5
:10527000B1E008950C944127672F782F8827B85FF5
:1052800039F0B93FCCF3869577956795B395D9F703
:105290003EF490958095709561957F4F8F4F9F4F0D
:1052A00008950E94912990F09F3748F4911116F0CB
:1052B0000C94422760E070E080E89FEB089526F4AC
:1052C0001B16611D711D811D0C9468290C94832986
:1052D000882371F4772321F09850872B762F07C00D
:1052E000662311F499270DC09051862B70E060E081
:1052F0002AF09A95660F771F881FDAF7880F969520
:10530000879597F908959F3F31F0915020F4879544
:1053100077956795B795880F911D9695879597F91D
:1053200008950E942727A0F0BEE7B91788F4BB278D
:105330009F3860F41616B11D672F782F8827985F65
:10534000F7CF869577956795B11D93959639C8F3F4
:1053500008950E94662608F48FEF0895CF93DF9397
:105360008230910510F482E090E0E091AC09F09178
:10537000AD0920E030E0C0E0D0E0309711F140818D
:10538000518148175907C0F04817590761F48281C5
:105390009381209719F09B838A832BC09093AD094A
:1053A0008093AC0926C02115310519F04217530727
:1053B00018F49A01BE01DF01EF010280F381E02DB4
:1053C000DCCF2115310509F1281B390B24303105BB
:1053D00090F412968D919C9113976115710521F0AF
:1053E000FB019383828304C09093AD098093AC0941
:1053F000FD01329644C0FD01E20FF31F81939193AA
:10540000225031092D933C933AC02091AA09309142
:10541000AB09232B41F42091030230910402309315
:10542000AB092093AA0920910102309102022115B3
:10543000310541F42DB73EB7409105025091060267
:10544000241B350BE091AA09F091AB09E217F30791
:10545000A0F42E1B3F0B2817390778F0AC014E5FE4
:105460005F4F2417350748F04E0F5F1F5093AB096D
:105470004093AA098193919302C0E0E0F0E0CF014C
:10548000DF91CF9108950F931F93CF93DF930097F0
:1054900009F48CC0FC013297138212820091AC098E
:1054A0001091AD090115110581F420813181820F20
:1054B000931F2091AA093091AB092817390779F574
:1054C000F093AB09E093AA0971C0D80140E050E025
:1054D000AE17BF0750F412962D913C911397AD0172
:1054E0002115310509F1D901F3CF9D01DA0133838B
:1054F000228360817181860F971F8217930769F459
:10550000EC0128813981260F371F2E5F3F4F3183F1
:1055100020838A819B8193838283452B29F4F09396
:10552000AD09E093AC0942C01396FC93EE93129739
:10553000ED01499159919E01240F351FE217F307A0
:1055400071F480819181840F951F029611969C932E
:105550008E938281938113969C938E931297E0E0B1
:10556000F0E0D80112968D919C911397009719F055
:10557000F8018C01F6CF8D919C9198012E5F3F4FE1
:10558000820F931F2091AA093091AB092817390780
:1055900069F4309729F41092AD091092AC0902C059
:1055A000138212821093AB090093AA09DF91CF9165
:1055B0001F910F9108956F927F928F929F92AF9259
:1055C000BF92CF92DF92EF92FF920F931F93CF93F0
:1055D000DF93EC01009789F4CB01DF91CF911F910C
:1055E0000F91FF90EF90DF90CF90BF90AF909F9082
:1055F0008F907F906F900C94AE29FC01E60FF71FFF
:105600009C0122503109E217F30708F4ACC0D9011C
:105610000D911C91119706171707B0F00530110571
:1056200008F49FC0C80104978617970708F499C02B
:1056300002501109061B170B019311936D937C9374
:10564000CF010E94432A8DC05B01A01AB10A4C0110
:10565000800E911EA091AC09B091AD0940E050E0E0
:10566000E12CF12C109709F44AC0A815B905D1F521
:105670006D907C901197630182E0C80ED11CCA1412
:10568000DB0480F1A3014A195B096A0182E0C80EBC
:10569000D11C1296BC9012971396AC91B5E0CB1624
:1056A000D10440F0B282A38351834083D9016D932A
:1056B0007C930AC00E5F1F4FC301800F911FF90139
:1056C00091838083EB2DFA2FE114F10431F0D7019F
:1056D0001396FC93EE93129744C0F093AD09E093B8
:1056E000AC093FC08D919C9111974817590708F458
:1056F000AC017D0112960D90BC91A02DB3CF80918D
:10570000AA099091AB0988159905E1F44617570746
:10571000C8F48091010290910202009741F48DB784
:105720009EB74091050250910602841B950BE81725
:10573000F907C8F4F093AB09E093AA09F901718362
:1057400060830FC0CB010E94AE297C01009759F005
:10575000A801BE010E94C92BCE010E94432AC701A5
:1057600004C0CE0102C080E090E0DF91CF911F9194
:105770000F91FF90EF90DF90CF90BF90AF909F90F0
:105780008F907F906F90089581E090E0F8940C9452
:10579000D92BFB01DC0102C001900D924150504019
:1057A000D8F70895FB01DC0101900D920020E1F78C
:1057B000089511E0C0E9D1E000E006C0802FFE01AD
:1057C0000E94E9272196011DC139D10780E0080711
:0657D000A9F7F894FFCFD9
:1057D600FF0000AE09200000004000140054000045
:1057E60000000000000000000000000000000000B3
:1057F600000000427572676572000000000000003C
:10580600000000000000004261636F6E2042757266
:10581600676572000000000000000043686565735C
:105826006520427572676572000000000000005333
:1058360065747570000000000000000000000000A4
:105846000000000000000000000000000000000052
:105856000000000000000000000000000000000042
:10586600000000000000000000000043616C696257
:10587600726174696F6E0000000000000000004154
:10588600666669636865722076616C657572204D1F
:105896002E00004465627567696E670000000000AF
:1058A6000000000000000051756974657200000078
:1058B60000000000000000000000000000000000E2
:1058C60000000000000000000000000000000000D2
:1058D6000000008F125F122A0A3912571248123A34
:1058E60012000000009009D0081409D709450923C1
:1058F600093709000000001A11D0082A0A290A49A6
:105906006E76616C696420656E636F64657220698A
:10591600642100496E76616C6964206D6F746F72E4
:10592600206964210043616C69622E206475206ED3
:105936006F697200436170313A00436170323A0018
:10594600436170333A0043616C69622E20647520AE
:10595600626C616E6300546872313A005468723248
:105966003A00546872333A0043616C69622E2065CE
:1059760066666563747565000D0A002020003E3E6C
:1059860000496E76616C696420736572766F206972
:10599600642100536572766F20616E676C652069BD
:1059A60073206F7574206F662072616E67652100C3
:00000001FF
