:100000000C9491010C94C2010C94C2010C94C20195
:100010000C94C2010C94C2010C94C2010C94C20154
:100020000C94C2010C9441090C9441090C944109AF
:100030000C94C2010C94C5030C94C2010C94C2012F
:100040000C94C2010C94BB070C94C2010C94C20125
:100050000C94C2010C94C2010C94C2010C947B0359
:100060000C94C2010C9436050C940C050C94C2013E
:100070000C94C2010C94C2010C94C2010C94C201F4
:100080000C94C2010C94C2010C94C2010C94C201E4
:100090000C94C2010C94C2010C94C2010C944B0943
:1000A0000C94C2010C94C2010C94C2010C94C201C4
:1000B0000C94C2010C94C2010C94C2010C94600512
:1000C0000C94C2010C94C2010C94C2010C94E20481
:1000D0000C94B8040C94C2010C948E040C94640427
:1000E0000C94C201A706AC06B106BB06C5063E07C6
:1000F000CF06D706DF06E906F306FD060C0716074E
:100100003E0720072A073407980A9B0A8A0A8E0AA4
:10011000940AD20A9F0AA30AA90AAD0AB10AB70A29
:10012000BB0ABF0AD20AC50AC90ACD0A0C94CF0677
:100130000C94A90A0C94B1060C94A7060C94240301
:100140000C94C4010C94DA080C94940A0C94980A48
:100150000C94BF120C94B70A0C94CB020C940802B6
:100160000C9412090C94DF060C9417020C94C5062B
:100170000C949B0A0C9439020C94B9120C948408C8
:100180000C948E0A0C94CD0A0C9416070C942B0236
:100190000C94BB060C9425030C94C90A0C948A0A8F
:1001A0000C94D7060C94FD060C94CB080C94D20A40
:1001B0000C94A30A0C942A070C9434070C94840220
:1001C0000C9420070C94AD0A0C94B10A0C94BB0A51
:1001D0000C94BF0A0C940C070C94F3060C94E208E0
:1001E0000C94AC060C94E9060C943E070C94C50ADA
:1001F0000C94BC080C949F0A0C94BD0800002000CD
:100200002300260029002C002F00320000010000EE
:100210000301060109010200002100240027002A31
:10022000002D003000330001010000040107010A25
:100230000100002200250028002B002E0031003490
:100240000002010000050108010B01050505050775
:100250000508080808020202020A0A080804040441
:10026000040101010101010101030303030303036D
:1002700003040707070C0C0C0C0C0C0C0C020202FC
:100280000206060606060606060B0B0B0B0B0B0BEF
:100290000B0102102020080810204010204080028E
:1002A00001020108040201010204081020408080BC
:1002B0004020100804020180040201804020100840
:1002C0000402010804020101020408102040800118
:1002D0000204081020408000000A0B02090C0D0ED9
:1002E00008070304010000000000000000000000F7
:1002F00000000000000000000000000000000000FE
:1003000000000012111000000000000000000000BA
:100310000000000000000000000000000000BF120C
:10032000B91211241FBECFEFD1E2DEBFCDBF00E076
:100330000CBF13E0A0E0B2E0EAE9F2E300E00BBF9B
:1003400002C007900D92A430B107D9F728E0A4E0CD
:10035000B3E001C01D92A732B207E1F711E0C0E996
:10036000D1E000E006C021970109802FFE010E9424
:100370007516CF38D10780E00807A9F70E94E00F73
:100380000C943B190C940000CF92DF92EF92FF92F5
:100390000F931F93CF93DF936C017A018B01C0E021
:1003A000D0E0CE15DF0589F0D8016D918D01D60121
:1003B000ED91FC910190F081E02DC6011995892BFA
:1003C00011F47E0102C02196ECCFC701DF91CF91DD
:1003D0001F910F91FF90EF90DF90CF900895FC0157
:1003E000A089B1898C91A689B78982FD0FC09C91A3
:1003F000818D8F5F8F73228D821749F0218DDF01F0
:10040000A20FB11D5D969C93818F08958C910895E4
:10041000FC01538D448D252F30E0842F90E0821B0A
:10042000930B541710F0CF96089501970895FC018F
:10043000918D828D981761F0828DDF01A80FB11D1B
:100440005D968C91928D9F5F9F73928F90E008953F
:100450008FEF9FEF0895FC01918D828D981731F0F9
:10046000828DE80FF11D858D90E008958FEF9FEF4D
:100470000895FC01918D228D892F90E0805C9F4F23
:10048000821B91098F739927089581ED93E00E9453
:10049000390221E0892B09F420E0822F08958EE6AD
:1004A00094E00E94390221E0892B09F420E0822F98
:1004B00008958BE095E00E94390221E0892B09F430
:1004C00020E0822F0895FC01848DDF01A80FB11D6B
:1004D000A35ABF4F2C91848D90E001968F7399277A
:1004E000848FA689B7892C93A089B1898C91806467
:1004F0008C93938D848D981306C00288F389E02D28
:1005000080818F7D80830895EF92FF920F931F93D8
:10051000CF93DF93EC0181E0888F9B8D8C8D9813B6
:1005200005C0E889F989808185FD24C0F62E0B8DF0
:1005300010E00F5F1F4F0F731127E02E8C8DE81214
:100540000CC00FB607FCFACFE889F989808185FFD6
:10055000F5CFCE010E946302F1CF8B8DFE01E80F33
:10056000F11DE35AFF4FF0820B8FEA89FB898081EE
:10057000806207C0EE89FF896083E889F9898081FC
:100580008064808381E090E0DF91CF911F910F9193
:10059000FF90EF900895CF93DF93EC01888D88232F
:1005A000C9F0EA89FB89808185FD05C0A889B989E0
:1005B0008C9186FD0FC00FB607FCF5CF808185FFBB
:1005C000F2CFA889B9898C9185FFEDCFCE010E9429
:1005D0006302E7CFDF91CF910895E0E0F0E0199456
:1005E00080E090E0892B21F00E945902811119C00E
:1005F00080E090E0892B41F080E090E0892B21F0B1
:100600000E940000811110C00E944F0281110FC092
:1006100080E090E0892B81F00E94450281110AC0A0
:1006200008950E940000E4CF0E940000EDCF0E94D8
:10063000ED02EECF0C94000008958EBD00000DB4C5
:1006400007FEFDCF8EB50895089580E090E00895EF
:100650000E942619FC01248131E03093A1032093EC
:10066000C3031092A2031092C4038485682B85EC07
:1006700093E00E9412090C94A30D0F931F93CF9344
:100680008C01C62F0E942A036C2F6460C8010E944F
:100690002A036C2F6B7FC8010E942A0383EC90E031
:1006A0000197F1F7CF911F910F9108953FB7F894FB
:1006B00080912B0390912C03A0912D03B0912E03D8
:1006C00026B5A89B05C02F3F19F00196A11DB11DAD
:1006D0003FBFBA2FA92F982F8827820F911DA11DE8
:1006E000B11DBC01CD0142E0660F771F881F991F25
:1006F0004A95D1F708951F920F920FB60F921124C9
:100700002F933F938F939F93AF93BF938091270332
:1007100090912803A0912903B0912A0330912603D8
:1007200023E0230F2D3720F40196A11DB11D05C034
:1007300026E8230F0296A11DB11D20932603809366
:10074000270390932803A0932903B0932A03809151
:100750002B0390912C03A0912D03B0912E030196B1
:10076000A11DB11D80932B0390932C03A0932D0307
:10077000B0932E03BF91AF919F918F913F912F9195
:100780000F900FBE0F901F9018951F920F920FB6EB
:100790000F9211240BB60F922F933F934F935F93B9
:1007A0006F937F938F939F93AF93BF93EF93FF9339
:1007B0008091210390912203A0912303B0912403FF
:1007C000892B8A2B8B2B59F180912003E0911E03FA
:1007D000F0911F039081892780838091210390915C
:1007E0002203A0912303B0912403181619061A06B8
:1007F0001B060CF056C08091210390912203A0911A
:100800002303B09124030197A109B1098093210327
:1008100090932203A0932303B093240342C08091BA
:100820000002E6E1F2E0E4919FEF90930002E230F3
:10083000C9F050F4EE2399F0E13081F590916F000A
:100840009D7F90936F002AC0E43019F1E0F0E5300D
:1008500029F5909173009D7F909373001FC01092B3
:100860006E001CC0909170009D7F9093700091E08D
:100870009093B0009091B100987F94609093B100F4
:100880001092B3000BC0909171009D7F9093710006
:1008900005C0909172009D7F9093720060E00E946D
:1008A000D30AFF91EF91BF91AF919F918F917F916B
:1008B0006F915F914F913F912F910F900BBE0F90D1
:1008C0000FBE0F901F9018951F920F920FB60F92A8
:1008D00011240BB60F922F933F934F935F936F9317
:1008E0007F938F939F93AF93BF93EF93FF9381ED8C
:1008F00093E00E946302FF91EF91BF91AF919F91AE
:100900008F917F916F915F914F913F912F910F90B8
:100910000BBE0F900FBE0F901F9018951F920F9255
:100920000FB60F9211240BB60F922F933F934F9354
:100930005F936F937F938F939F93AF93BF93EF9347
:10094000FF9381ED93E00E94EF01FF91EF91BF9142
:10095000AF919F918F917F916F915F914F913F9157
:100960002F910F900BBE0F900FBE0F901F901895F8
:100970001F920F920FB60F9211240BB60F922F9366
:100980003F934F935F936F937F938F939F93AF9317
:10099000BF93EF93FF938EE694E00E946302FF9172
:1009A000EF91BF91AF919F918F917F916F915F91E7
:1009B0004F913F912F910F900BBE0F900FBE0F9054
:1009C0001F9018951F920F920FB60F9211240BB61D
:1009D0000F922F933F934F935F936F937F938F93D8
:1009E0009F93AF93BF93EF93FF938EE694E00E94A3
:1009F000EF01FF91EF91BF91AF919F918F917F9107
:100A00006F915F914F913F912F910F900BBE0F907F
:100A10000FBE0F901F9018951F920F920FB60F9256
:100A200011240BB60F922F933F934F935F936F93C5
:100A30007F938F939F93AF93BF93EF93FF938BE03D
:100A400095E00E946302FF91EF91BF91AF919F915A
:100A50008F917F916F915F914F913F912F910F9067
:100A60000BBE0F900FBE0F901F9018951F920F9204
:100A70000FB60F9211240BB60F922F933F934F9303
:100A80005F936F937F938F939F93AF93BF93EF93F6
:100A9000FF938BE095E00E94EF01FF91EF91BF91F2
:100AA000AF919F918F917F916F915F914F913F9106
:100AB0002F910F900BBE0F900FBE0F901F901895A7
:100AC0001F920F920FB60F9211240BB60F922F9315
:100AD0003F934F935F936F937F938F939F93AF93C6
:100AE000BF93CF93DF93EF93FF932091A90530E05D
:100AF000F901E952FD4F8491F901EF56FD4FD49170
:100B0000F901E55BFD4FC491CC23A1F081110E9456
:100B10007D0AEC2FF0E0EE0FFF1FE450FE4FA59191
:100B2000B491EC91ED2331E020E009F430E0832F23
:100B3000922F02C080E090E02091AD053091AE058B
:100B40002F5F3F4F3093AE052093AD052091AC054C
:100B5000253618F026E02093A8052091A80524301A
:100B6000D9F128F4223069F02330D9F060C0253063
:100B700009F453C0263009F05AC021E020937906C9
:100B800053C0009709F053C02091AD053091AE05D8
:100B90002436310508F443C0109279061092AC0552
:100BA0001DC08130910509F042C0E091AC0521E003
:100BB0002E0F2093AC05F0E02091AD053091AE05ED
:100BC000EE0FFF1FE855FA4F308727831092AE05CE
:100BD0001092AD0524E029C00097B9F4E091AC056E
:100BE00021E02E0F2093AC05F0E02091AD0530916F
:100BF000AE05EE0FFF1FE855FA4F3087278310929E
:100C0000AE051092AD0523E010C02091AD053091E6
:100C1000AE052536310558F007C0009741F4109213
:100C2000AE051092AD0503C025E02093A8052091E4
:100C3000AB052223B9F0892B51F48091AA058823B2
:100C400021F08091AA0561E009C02F9A0BC0809124
:100C5000AA05882331F08091AA0560E00E94D30A9A
:100C600001C02F98FF91EF91DF91CF91BF91AF918C
:100C70009F918F917F916F915F914F913F912F91B4
:100C80000F900BBE0F900FBE0F901F9018958F9274
:100C90009F92AF92BF92CF92DF92EF92FF920F930B
:100CA0001F93CF93DF93EC016A017B0120E030E0DA
:100CB0004FE753E4C701B6010E9450154B015C0198
:100CC00020E030E0A9010E940B1718161CF4C501A2
:100CD000B40103C0C501B40190580E947D168B0178
:100CE00020E030E0A901C701B6010E940B171816D9
:100CF00014F460E001C061E089810E94D30A0F3FD3
:100D0000110509F014F4112702C00FEF10E0C8819B
:100D100061E08C2F0E94210B0115110509F4B1C06F
:100D20000F3F110509F4AFC0EC2FF0E0E952FD4F81
:100D3000E4914E2F50E0FA013197E231F10508F0CD
:100D40009DC08827EE58FF4F8F4F0C94751684B5C1
:100D5000806884BD07BDA7C084B5806284BD08BD1E
:100D6000A2C08091800080688093800010938900E9
:100D70000093880098C080918000806280938000FA
:100D800010938B0000938A008EC080918000886051
:100D90008093800010938D0000938C0084C080911C
:100DA000B00080688093B0000093B3007CC0809155
:100DB000B00080628093B0000093B40074C0809152
:100DC00090008068809390001093990000939800A1
:100DD0006AC08091900080628093900010939B0085
:100DE00000939A0060C0809190008860809390008A
:100DF00010939D0000939C0056C08091A0008068D5
:100E00008093A0008091A0008F7B8093A00010931E
:100E1000A9000093A80047C08091A0008062809341
:100E2000A0001093AB000093AA003DC08091A000E9
:100E300088608093A0001093AD000093AC0033C095
:100E400080912001806880932001109329010093F4
:100E5000280129C080912001806280932001109395
:100E60002B0100932A011FC080912001886080938C
:100E7000200110932D0100932C0115C0003811059D
:100E800014F460E001C061E08C2FDF91CF911F91DD
:100E90000F91FF90EF90DF90CF90BF90AF909F9019
:100EA0008F900C94D30ADF91CF911F910F91FF90F7
:100EB000EF90DF90CF90BF90AF909F908F9008956C
:100EC0001F93CF93DF93EC01162F88818C3008F0AD
:100ED0004DC061E0812F0E94210BE88195E09E9F2B
:100EE000F0011124E658F94F1F738081807C182B84
:100EF00010831382E8819E9FF0011124E658F94F78
:100F0000148288816CE00E9469169CE0899FA00190
:100F1000112420E030E095E0B901640F751F969F21
:100F2000F001979FF00D1124E658F94F608166FD9E
:100F300013C02F5F3F4F2C30310571F781110CC06A
:100F40001092800082E080938100109285001092C0
:100F5000840086BB80936F00E88185E0E89FF00104
:100F60001124E658F94F8081806480838881DF9165
:100F7000CF911F9108951F920F920FB60F921124D7
:100F80000BB60F922F933F934F935F936F937F9383
:100F90008F939F93AF93BF93EF93FF9380911D0324
:100FA00087FF05C0109285001092840016C0209122
:100FB0001D03022E000C330B8091B60690E028171B
:100FC00039075CF430911D0325E03203F001112450
:100FD000E658F94F808186FD15C080911D038F5F13
:100FE00080931D0320911D03022E000C330B809172
:100FF000B60690E02817390794F480911D038C30D1
:101000002CF10DC030911D033203F0011124E6587C
:10101000F94F808160E08F730E94D30ADECF809108
:1010200084009091850084349C4918F480E49CE904
:1010300005C080918400909185000496909389006A
:10104000809388008FEF80931D032AC04091840015
:101050005091850030911D0325E03203F0011124E9
:10106000E658F94F81819281840F951F90938900F2
:101070008093880030911D033203F0011124E6585B
:10108000F94F808186FF0CC030911D033203F001BF
:101090001124E658F94F808161E08F730E94D30AD2
:1010A000FF91EF91BF91AF919F918F917F916F9140
:1010B0005F914F913F912F910F900BBE0F900FBEFC
:1010C0000F901F901895FF920F931F93CF93DF936C
:1010D0001F92CDB7DEB78C01F62E962F907F692F29
:1010E000642BC80149830E943D0380E1F89EB00152
:1010F00011244981642BC8010F90DF91CF911F917A
:101100000F91FF900C943D0341E00E94630881E041
:1011100090E0089585ED8093BC008091BC0084FD33
:10112000FCCF1092A003089540915303262F30E086
:10113000240F311D21323105DCF42091A00324302D
:10114000C9F4FC0180E090E0861758F43091530315
:101150002191DC01AF5CBC4FA30FB11D2C93019614
:10116000F3CF80915303680F6093530380E0089599
:1011700081E0089582E00895089581E090E0309143
:10118000300320912F03321710F480E090E0919506
:101190008195910908958091300390912F038917CB
:1011A00030F48F5F8093300380E090E008958FEFFC
:1011B0009FEF089580912F0390E020913003821BD0
:1011C00091090895CF92DF92EF92FF920F931F93B0
:1011D000CF93DF937C01262F972F8A018091A10363
:1011E000882391F0C62FD72F6E01C40ED51ECC15C3
:1011F000DD0571F06991D701ED91FC910190F081CD
:10120000E02DC7011995F3CF642F822F0E94940817
:10121000C801DF91CF911F910F91FF90EF90DF9068
:10122000CF900895CF93DF931F92CDB7DEB7698338
:101230002091A1032223D1F02091C403203240F059
:1012400021E030E0FC013383228380E090E015C090
:101250008091A203E82FF0E0ED55FC4F9981908337
:101260008F5F8093A2038093C40305C061E0CE0129
:1012700001960E94940881E090E00F90DF91CF9159
:1012800008951F920F920FB60F9211240F900FBE68
:101290000F901F9018951F920F920FB60F92112466
:1012A0000BB60F922F933F934F935F936F937F9360
:1012B0008F939F93AF93BF93EF93FF938091B90068
:1012C000887F803609F49CC068F5883209F45BC0D9
:1012D00090F4803109F454C038F4882309F4F6C03E
:1012E000883009F44DC0F6C0883109F44CC0803212
:1012F00009F45DC0EFC0803409F468C048F480335D
:1013000009F455C0883309F0E5C080939E03D8C026
:10131000803509F44FC0883509F45DC0883409F080
:10132000D9C0D6C0883909F4C7C0A8F4883709F4F1
:1013300067C038F4883609F463C0803709F460C0A8
:10134000C9C0883809F4B8C0803909F45FC0803852
:1013500009F0C0C05BC0803B09F486C038F4803A15
:1013600009F466C0883A09F47FC0B4C0803C09F42F
:10137000A7C0883C09F4A4C0883B09F48AC0AAC06D
:1013800080917B0310C090919D0380919C039817DE
:1013900070F5E0919D0381E08E0F80939D03F0E056
:1013A000E458FC4F80818093BB0085EC86C080931D
:1013B0009E038EC0E0919D0381E08E0F80939D037C
:1013C0008091BB00F0E0E458FC4F808390919D0336
:1013D00080919C036EC0E0919D0381E08E0F80930D
:1013E0009D038091BB00F0E0E458FC4F8083809126
:1013F0009F0381116DC081E080937A0384EA61C00C
:1014000083E08093A00310927703CFCF809177037E
:10141000803208F051C0E091770381E08E0F809315
:1014200077038091BB00F0E0E95AFC4F8083BDCF89
:1014300085EC8093BC001092A003809177038032EA
:1014400030F4E0917703F0E0E95AFC4F10826091AC
:10145000770370E0E0915503F091560387E593E040
:1014600019951092770336C084E08093A003109200
:10147000540310925303E0915103F09152031995D4
:1014800080915303811105C081E080935303109232
:101490003103E091540381E08E0F80935403F0E018
:1014A000EF5CFC4F80818093BB009091540380914E
:1014B0005303981708F479CF85E88093BC000AC0DD
:1014C00085EC8093BC001092A00304C010929E0390
:1014D0000E948A08FF91EF91BF91AF919F918F91E8
:1014E0007F916F915F914F913F912F910F900BBE24
:1014F0000F900FBE0F901F90189590E0FC01319750
:10150000E231F10508F04EC08827EC57FF4F8F4FAE
:101510000C947516809180008F7703C080918000B5
:101520008F7D80938000089580918000877FF9CF20
:1015300084B58F7702C084B58F7D84BD0895809176
:10154000B0008F7703C08091B0008F7D8093B00092
:101550000895809190008F7707C0809190008F7DD3
:1015600003C080919000877F8093900008958091C0
:10157000A0008F7707C08091A0008F7D03C080916D
:10158000A000877F8093A0000895809120018F772D
:1015900007C0809120018F7D03C080912001877F4B
:1015A0008093200108951F93CF93DF93282F30E07D
:1015B000F901E952FD4F8491F901EF56FD4FD491A5
:1015C000F901E55BFD4FC491CC23C9F0162F8111C1
:1015D0000E947D0AEC2FF0E0EE0FFF1FEF5CFD4F45
:1015E000A591B4918FB7F894111105C09C91ED2F7E
:1015F000E095E92302C0EC91ED2BEC938FBFDF91D6
:10160000CF911F9108951092A00381E080939F03D2
:1016100010927A0361E084E10E94D30A61E085E1DF
:101620000E94D30AE9EBF0E080818E7F8083808185
:101630008D7F808388E48093B80085E48093BC002C
:101640000895CF93DF9390E0FC01EF56FD4F249176
:10165000FC01E55BFD4F8491882361F190E0880FE8
:10166000991FFC01E95EFD4FC591D491FC01EF5C2F
:10167000FD4FA591B491611109C09FB7F89488817D
:10168000209582238883EC912E230BC0623061F475
:101690009FB7F8943881822F809583238883EC91BB
:1016A0002E2B2C939FBF06C08FB7F894E8812E2B6A
:1016B00028838FBFDF91CF910895863308F086533A
:1016C00090917B00282F2870977F922B90937B001E
:1016D0008770806480937C0080917A00806480931E
:1016E0007A0080917A0086FDFCCF8091780020916D
:1016F000790090E0922B08958F929F92AF92BF92C3
:10170000CF92DF92EF92FF926B017C010E94560311
:101710004B015C01C114D104E104F104F1F00E9419
:101720005603DC01CB0188199909AA09BB09883E37
:101730009340A105B10570F321E0C21AD108E10878
:10174000F10888EE880E83E0981EA11CB11CC1141C
:10175000D104E104F10419F7DDCFFF90EF90DF90A1
:10176000CF90BF90AF909F908F9008954F925F92CF
:101770006F927F928F929F92AF92BF92CF92DF92A1
:10178000EF92FF920F931F93CF93DF937C012C0175
:1017900097FF03C08FEF481A580A5594479499242D
:1017A0009394052C000C66087708670181E0C82235
:1017B000DD2481E0C8268C2D8170882EAA24AA946D
:1017C000BA2C80910F07811165C14091100750918B
:1017D0001107609112077091130785E098E00E944D
:1017E00047064091140750911507609116077091B4
:1017F0001707705887E098E00E9447060E94E90E9C
:101800008230910519F4109220072BC18430910584
:1018100019F51092200780911C0790911D07A09147
:101820001E07B0911F078093140790931507A0938C
:101830001607B09317078091180790911907A09188
:101840001A07B0911B078093100790931107A0937C
:101850001207B0931307B5CF81309105D9F41092D8
:1018600020078091180790911907A0911A07B0914D
:101870001B078093140790931507A0931607B09346
:10188000170780911C0790911D07A0911E07B0912A
:101890001F07D9CF079709F094CF809120078111B6
:1018A00090CF90922007C301B2010E94F1140E94D0
:1018B000B316C0912107D09122072196D093220719
:1018C000C09321070E947D16C617D70709F0C9C02B
:1018D000C114D104B1F060911C0770911D07809173
:1018E0001E0790911F070E947D16EB0189E892E088
:1018F0000E94140F83EC92E00E94140F00E010E0AD
:101900000DC060911C0770911D0780911E0790917A
:101910001F070E947D168B01C0E0D0E040911C079C
:1019200050911D0760911E0770911F0785E098E098
:101930000E94470640911C0750911D0760911E07A9
:1019400070911F07705887E098E00E9447066EE587
:1019500071E080E090E00E947C0BB801110F880BD1
:10196000990B0E94F114AB01BC0185E098E00E9444
:101970004706BE01DD0F880B990B0E94F114AB01E5
:10198000BC01705887E098E00E9447066EE571E060
:1019900080E090E00E947C0B0E94E90E0797E1F73F
:1019A0000E947E0F6091160870E082E0E816F10454
:1019B000D4F48EE198E00E9460076AEA81E00E9418
:1019C0004B0E64EF71E080E090E00E947C0B0E947F
:1019D0009D0F0E947E0F882D0E94160F83E090E0DD
:1019E0000E94B60BEECE8EE198E00E94600765E59E
:1019F00081E00E944B0E64EF71E080E090E00E9475
:101A00007C0B6091150870E08DE198E00E94600702
:101A100060E080E00E944B0E64EF71E080E090E0B7
:101A20000E947C0B6091150870E08DE198E00E94A7
:101A300060076BE780E00E944B0E64EF71E080E08E
:101A400090E00E947C0B0E949D0F0E947E0F80E020
:101A50000E94160F90920F07B0922207A0922107C2
:101A6000B0CE89E892E00E94140F8CEB92E00E94C5
:101A7000140F8091180790911907A0911A07B0913F
:101A80001B078093140790931507A0931607B09334
:101A90001707D9CEDF91CF911F910F91FF90EF9053
:101AA000DF90CF90BF90AF909F908F907F906F907E
:101AB0005F904F900895009769F0FC01019000201D
:101AC000E9F73197AF01481B590BBC018BE095E05A
:101AD0000C94C40180E090E00895EBE0F5E0A0896B
:101AE000B18982E08C93A485B5851C92A685B785C3
:101AF0008FEC8C93108EA489B58986E08C93A28993
:101B0000B3898C9180618C93A289B3898C91886010
:101B10008C93A289B3898C9180688C930288F38915
:101B2000E02D80818F7D80830895CF93DF930E9485
:101B30005B0DEC0181ED92E00E945B0D8C0F9D1F0F
:101B4000DF91CF9108952091C4039091C303213276
:101B500008F04AC08091A0038111FCCF32E030939D
:101B6000A00331E030939F033FEF30939E03109228
:101B70009D0320939C03A3EAB3E04CE753E0FA01F2
:101B80003E2F341B321718F43D913193F9CF109248
:101B90007B0320917B03990F922B90937B03909171
:101BA0007A03913061F410927A0390917B039093C1
:101BB000BB009091BC0093FDF8CF95EC01C095EE71
:101BC0009093BC009091A0039230E1F390919E031A
:101BD0009F3F79F080919E03803241F080919E0377
:101BE000803331F084E005C081E003C082E001C0B1
:101BF00083E01092A2031092C4031092A1030895EF
:101C0000EF92FF921F93CF93DF931F92CDB7DEB772
:101C1000162F9CEEE92E97E0F92ED7011C969C9189
:101C20001C9721E02093A1039093C3031092A20379
:101C30001092C4031A960D90BC91A02DED91FC91C9
:101C400011970190F081E02D682FCD0179831995CE
:101C5000F70182859385DC01ED91FC910190F08183
:101C6000E02D7981672F1995F70182859385DC0135
:101C7000ED91FC910190F081E02D612F19950F906D
:101C8000DF91CF911F91FF90EF900C94A30D40E056
:101C900060E80C946308CF92DF92EF92FF92CF93AB
:101CA000DF93823018F084ED92E00AC0909117081B
:101CB000691720F090911808961750F486EE92E07C
:101CC000DF91CF91FF90EF90DF90CF900C94950D26
:101CD000E82FF0E0E35FF74FC089CC3008F072C026
:101CE000262F30E0D0E085E08C9FF0018D9FF00D35
:101CF0001124E658F94F8381283C31059CF528E8EA
:101D000030E06901C81AD10887FDD394CC0CDD1CE2
:101D1000CC0CDD1C0D2C000CEE08FF08848128E59E
:101D200032E0281B310987FD3395220F331F220F24
:101D3000331FC901330FAA0BBB0B9C01AD012C193A
:101D40003D094E095F09A62FB0E00E942D1624EB35
:101D500030E040E050E00E940E16C20ED31EE41E9A
:101D6000F51E1EC048E850E06A01C81AD10887FD78
:101D7000D394CC0CDD1CCC0CDD1C2C153D0584F063
:101D8000448188E592E0841B910947FD9395880F73
:101D9000991F880F991F69018C159D050CF46C0122
:101DA0008FB7F89495E09C9FF0019D9FF00D112452
:101DB000E658F94F96E0C91AD108CC0CDD1CD28246
:101DC000C1828FBFDF91CF91FF90EF90DF90CF90D6
:101DD0000895CF93DF9382E40E945D0B31E020E011
:101DE0004091BB065091BC06481759070CF430E0EF
:101DF000C32FD22F81E40E945D0B2091B906309150
:101E0000BA06281739070CF022968FE30E945D0B63
:101E10002091B7063091B806281739070CF02496A0
:101E2000CE01DF91CF9108950C945B0D0F931F931A
:101E3000CF93DF93882371F060911C0770911D0789
:101E400080911E0790911F070E947D16EB0100E014
:101E500010E00DC060911C0770911D0780911E0756
:101E600090911F070E947D168B01C0E0D0E0409149
:101E70001C0750911D0760911E0770911F0785E098
:101E800098E00E94470640911C0750911D07609101
:101E90001E0770911F07705887E098E00E94470660
:101EA0006EE571E080E090E00E947C0BB801110FBC
:101EB000880B990B0E94F114AB01BC0185E098E0FE
:101EC0000E944706BE01DD0F880B990B0E94F1149A
:101ED000AB01BC01705887E098E00E9447066EE5B0
:101EE00071E080E090E00E947C0B0E94E90E029776
:101EF000E1F7DF91CF911F910F9108950E94E90EB4
:101F00000797D1F440911C0750911D0760911E075F
:101F100070911F0785E098E00E94470640911C07DA
:101F200050911D0760911E0770911F07705887E040
:101F300098E00E944706E2CF089540911C07509117
:101F40001D0760911E0770911F07705885E098E08B
:101F50000E94470640911C0750911D0760911E0783
:101F600070911F0787E098E00E94470664EF71E0D8
:101F700080E090E00E947C0B40911C0750911D076F
:101F800060911E0770911F07705887E098E00E94CB
:101F900047060E94E90E892BE1F70E94E90E02979D
:101FA000E1F740E050E0BA0185E098E00E94470682
:101FB00040E050E060E070E887E098E00C9447066D
:101FC000789484B5826084BD84B5816084BD85B514
:101FD000826085BD85B5816085BD80916E00816020
:101FE00080936E00109281008091810082608093C6
:101FF00081008091810081608093810080918000C8
:102000008160809380008091B10084608093B100F2
:102010008091B00081608093B000809191008260D7
:1020200080939100809191008160809391008091D4
:1020300090008160809390008091A10082608093E5
:10204000A1008091A10081608093A1008091A000F7
:1020500081608093A00080912101826080932101A2
:102060008091210181608093210180912001816014
:102070008093200180917A00846080937A0080911F
:102080007A00826080937A0080917A0081608093E8
:102090007A0080917A00806880937A001092C10063
:1020A0000E946D0D0E946D0D61E08091ED070E9410
:1020B000210B60E08091ED070E94D30A60E08091DF
:1020C000EC070E94210B85EC93E09093F707809337
:1020D000F6071092300310922F031092A203109271
:1020E000C4030E94030B80E090E1A0E0B0E0809385
:1020F000F9079093FA07A093FB07B093FC078AE0D7
:1021000090E0A0E0B0E08093FD079093FE07A093DD
:10211000FF07B093000880E090E0A0E0B0E4809377
:10212000010890930208A0930308B093040860E0AC
:1021300070E185E00E94000E6FE979E380E00E9483
:10214000000EC9E0D8E0C12CD12CE12CF12C70E8B4
:10215000472E72E0572EE6EC6E2EE2E07E2EFBEC70
:10216000AF2EF7E0BF2EABE88A2E99249394C701D7
:102170008451984F1C01FC01948182818601045195
:10218000184FF801818F928F61E00E94210B61E06E
:10219000F801828D0E94210BF10190858681888350
:1021A000F801968F61E00E94210B60E0F801868DB6
:1021B0000E94210B61E088810E94D30A1FB7F89426
:1021C00080912503811125C0F2018491F30194913E
:1021D000E82FF0E0EE0FFF1FE95EFD4FA591B491EF
:1021E0008C91982321F461E085E30E94D30A61E099
:1021F00085E30E94210B8CB580618CBD8CB5806419
:102200008CBD61E084E30E94210B61E083E30E94C6
:10221000210B809125038F5F809325031FBFC5018C
:102220000197F1F760E088810E94D30A88E80E9454
:102230001D0383E00E941D0361E088810E94D30A90
:10224000C5010197F1F760E088810E94D30A88E90F
:102250000E941D0380E00E941D0380E00E941D0378
:1022600080E00E941D0380E00E941D0361E08881E0
:102270000E94D30AC4010197F1F760E088810E94AF
:10228000D30A80EE0E941D0361E088810E94D30A78
:10229000F2E0CF0ED11C2296EA94EF2821F0EE2432
:1022A000E394F12C64CFC1E1D8E01C2F1C5F60E007
:1022B00089910E94210B1C13FACF00E218E0CBE1B8
:1022C000D8E0FC2EF394F394FE013697608170E021
:1022D000CE0102960E9460079991FE01339780819A
:1022E000F80131978083F801908360E00E94210B10
:1022F00061E0F80180810E94210B60E0F80180819B
:102300000E94D30A0E5F1F4FFC12DECFF89410928A
:10231000200189E08093210180E293E090932901DC
:1023200080932801109225011092240182E080936D
:10233000730078948093A8051092AC058091A9054C
:1023400060E00E94210BC0912A07D0912B071092C8
:10235000300310922F031092A2031092C4030E9424
:10236000030B1D828B85823010F098E09D83888757
:1023700062E370E080E090E00E947C0B6C85CE010F
:102380000E942A0368EE73E080E090E00E947C0BDC
:1023900060E3CE010E943D030BE416E4C8010197FF
:1023A000F1F760E3CE010E943D03C8010197F1F708
:1023B00060E3CE010E943D0383E592E00197F1F7CF
:1023C00060E2CE010E943D036D81606240E0CE017B
:1023D0000E94630884E08E8340E06CE0CE010E949E
:1023E000630840E061E0CE010E9463088BE39FE157
:1023F0000197F1F78985882319F0CE010E94470ED5
:1024000082E08F8340E066E0CE010E94630840E0F6
:1024100062E0CE010E9463088BE39FE10197F1F730
:1024200080912A0790912B0728E0FC01248760E027
:102430000E942A0380912A0790912B070E94470E41
:1024400080912A0790912B07FC016681262F21603D
:102450002683696040E00E9463086091160870E07E
:102460008EE198E00E94600765E581E00E944B0ED6
:102470006091150870E08DE198E00E9460076BE7BD
:1024800080E00E944B0E89E892E00E94140F8CE8D5
:1024900092E00E94140F60E177E280E090E00E94F9
:1024A0007C0B8FE30E945D0B5C0181E40E945D0B5D
:1024B0006C0182E40E945D0B8C0189E892E00E942D
:1024C000140F8CE992E00E94140F60E177E280E043
:1024D00090E00E947C0B8FE30E945D0B7C0181E405
:1024E0000E945D0BEC0182E40E945D0BB5016E0D54
:1024F0007F1D77FF02C06F5F7F4F75956795709363
:10250000B8066093B706A6014C0F5D1F57FF02C0C7
:102510004F5F5F4F559547955093BA064093B90664
:10252000800F911F97FD0196959587959093BC0616
:102530008093BB0689E892E00E94140F8BEA92E038
:102540000E94140F68E873E180E090E00E947C0B29
:1025500010920F0781E090E00E94B60B10920F07D7
:1025600069E170E080E090E00E947C0B0E94F00244
:10257000EFCF80912307909124070C94A517109218
:10258000C8031092C70388EE93E0A0E0B0E0809308
:10259000C9039093CA03A093CB03B093CC032DE55A
:1025A00032E03093C6032093C5031092D4031092F7
:1025B000D3038093D5039093D603A093D703B0930E
:1025C000D8032FE632E03093D2032093D10345E3C2
:1025D00051E05093DE034093DD0344E351E0509318
:1025E000E0034093DF0340E351E05093E203409364
:1025F000E10341E351E05093E4034093E30342E3FA
:1026000051E05093E6034093E50346E351E05093D5
:10261000E8034093E7031092EA031092EB03109251
:10262000EC031092ED0310927104109270048093E9
:10263000720490937304A0937404B0937504309360
:102640006F0420936E0445ED50E050937B0440935B
:102650007A0444ED50E050937D0440937C0440EDB7
:1026600050E050937F0440937E0441ED50E050933E
:1026700081044093800442ED50E0509383044093E2
:10268000820446ED50E050938504409384041092F8
:102690008704109288041092890410928A04109280
:1026A0000E0510920D0580930F0590931005A093D1
:1026B0001105B093120530930C0520930B0585ECA2
:1026C00090E0909318058093170584EC90E0909328
:1026D0001A058093190580EC90E090931C05809377
:1026E0001B0581EC90E090931E0580931D0582EC04
:1026F00090E09093200580931F0586EC90E09093E6
:102700002205809321051092240510922505109230
:1027100026051092270586E380930D0887E38093B2
:102720000E0888E380930F0889E3809310088BE1FB
:10273000809311088DE1809312088AE18093130839
:102740008CE18093140884E08093150887E08093DF
:1027500016081092170884EB8093180886E180937E
:10276000190888E180931A0887E180931B0889E1A2
:1027700080931C08E091B606EC3020F08FEF809338
:102780001D0810C081E08E0F8093B606E0931D08EF
:1027900025E0E29FF0011124E658F94F88EB9BE019
:1027A00092838183E091B606EC3020F08FEF809326
:1027B0001E0810C081E08E0F8093B606E0931E08BD
:1027C00085E0E89FF0011124E658F94F88EB9BE083
:1027D000928381838CE08093EC0784E28093ED0701
:1027E00086E08093EE0785E08093EF078FE180938A
:1027F000F0078EE18093F10783E28093F20782E293
:102800008093F30785E48093F40784E48093F507CD
:1028100080E48093F8071092FD071092FE07109253
:10282000FF071092000810920108109202081092FF
:10283000030810920408EEE2F7E08FEF9FEFDC014F
:1028400012821382148215821682178210861186D4
:1028500083879487A587B6878787908BA18BB28B58
:10286000128611821082739627E0EC3EF20741F740
:102870008DE090E00E941017FC011382128281E823
:1028800092E091838083118687E2848384E182874A
:1028900084E083871486F0932B07E0932A07109235
:1028A0002C0710922D0785E28093A9051092AB05A5
:1028B00010922407109223071092260710922507E2
:1028C000109228071092270761E070E080E090E006
:1028D0000E943D18009791F090932407809323075E
:1028E000109226071092250720912707309128077C
:1028F000232B09F06BC0FC01108268C08091230774
:1029000090912407009711F00E94A51710922407B8
:10291000109223071092280710922707109226077B
:102920001092250788EC90E09093B8068093B70644
:102930009093BA068093B90682E890E09093BC0623
:102940008093BB0682E5E7E0F2E0ADEBB6E00190F4
:102950000D928A95E1F710920F0780911C079091D4
:102960001D07A0911E07B0911F0780931007909339
:102970001107A0931207B093130780931407909345
:102980001507A0931607B093170788EB9EE1A5E8FB
:10299000BEE38093180790931907A0931A07B0938A
:1029A0001B078AE999E9A9E1BEE380931C0790938C
:1029B0001D07A0931E07B0931F07109220078FEFEB
:1029C0009FEF909322078093210708951092280784
:1029D0001092270763ED72E00E943419A3CFE894A8
:1029E00009C097FB3EF490958095709561957F4F57
:1029F0008F4F9F4F9923A9F0F92F96E9BB27939505
:102A0000F695879577956795B795F111F8CFFAF414
:102A1000BB0F11F460FF1BC06F5F7F4F8F4F9F4F45
:102A200016C0882311F096E911C0772321F09EE8A3
:102A3000872F762F05C0662371F096E8862F70E009
:102A400060E02AF09A95660F771F881FDAF7880FE3
:102A50009695879597F90895990F0008550FAA0B39
:102A6000E0E8FEEF16161706E807F907C0F01216A1
:102A70001306E407F50798F0621B730B840B950BA4
:102A800039F40A2661F0232B242B252B21F40895F9
:102A90000A2609F4A140A6958FEF811D811D089596
:102AA0000E9463150C94D4150E94C61538F00E943C
:102AB000CD1520F0952311F00C94BD150C94C31581
:102AC00011240C9408160E94E51570F3959FC1F32C
:102AD000950F50E0551F629FF001729FBB27F00DCC
:102AE000B11D639FAA27F00DB11DAA1F649F662721
:102AF000B00DA11D661F829F2227B00DA11D621F70
:102B0000739FB00DA11D621F839FA00D611D221F29
:102B1000749F3327A00D611D231F849F600D211D0D
:102B2000822F762F6A2F11249F5750409AF0F1F090
:102B300088234AF0EE0FFF1FBB1F661F771F881FF9
:102B400091505040A9F79E3F510580F00C94BD155F
:102B50000C9408165F3FE4F3983ED4F3869577957E
:102B60006795B795F795E7959F5FC1F7FE2B880F9F
:102B7000911D9695879597F9089597F99F6780E835
:102B800070E060E008959FEF80EC089500240A94BF
:102B90001616170618060906089500240A94121638
:102BA0001306140605060895092E0394000C11F46B
:102BB000882352F0BB0F40F4BF2B11F460FF04C018
:102BC0006F5F7F4F8F4F9F4F089557FD9058440F71
:102BD000551F59F05F3F71F04795880F97FB991F7C
:102BE00061F09F3F79F08795089512161306140639
:102BF000551FF2CF4695F1DF08C0161617061806C6
:102C0000991FF1CF86957105610508940895E894A0
:102C1000BB2766277727CB0197F90895052E97FBE9
:102C20001EF400940E94251657FD07D00E94381606
:102C300007FC03D04EF40C94251650954095309522
:102C400021953F4F4F4F5F4F089590958095709518
:102C500061957F4F8F4F9F4F08950E945A16A59FF1
:102C6000900DB49F900DA49F800D911D1124089587
:102C7000A1E21A2EAA1BBB1BFD010DC0AA1FBB1F80
:102C8000EE1FFF1FA217B307E407F50720F0A21BF2
:102C9000B30BE40BF50B661F771F881F991F1A945F
:102CA00069F760957095809590959B01AC01BD0189
:102CB000CF010895A29FB001B39FC001A39F700DE3
:102CC000811D1124911DB29F700D811D1124911D34
:102CD0000895991B79E004C0991F961708F0961B78
:102CE000881F7A95C9F780950895EE0FFF1F881FFA
:102CF0008BBF0790F691E02D19940E94841668947A
:102D0000B1110C94081608950E94ED1588F09F5794
:102D100098F0B92F9927B751B0F0E1F0660F771FFF
:102D2000881F991F1AF0BA95C9F714C0B13091F0F5
:102D30000E940716B1E008950C940716672F782FAC
:102D40008827B85F39F0B93FCCF3869577956795BA
:102D5000B395D9F73EF490958095709561957F4F26
:102D60008F4F9F4F08950E94F31690F09F3748F4BD
:102D7000911116F00C94081660E070E080E89FEB6B
:102D8000089526F41B16611D711D811D0C94CA1631
:102D90000C94E516882371F4772321F09850872B43
:102DA000762F07C0662311F499270DC09051862B0A
:102DB00070E060E02AF09A95660F771F881FDAF7B7
:102DC000880F9695879597F908959F3F31F0915018
:102DD00020F4879577956795B795880F911D9695FF
:102DE000879597F908950E94ED15A0F0BEE7B917F1
:102DF00088F4BB279F3860F41616B11D672F782F13
:102E00008827985FF7CF869577956795B11D93953D
:102E10009639C8F308950E942C1508F48FEF089591
:102E2000CF93DF938230910510F482E090E0E0913F
:102E30002508F091260820E030E0C0E0D0E030978F
:102E400011F14081518148175907C0F048175907BF
:102E500061F482819381209719F09B838A832BC030
:102E6000909326088093250826C02115310519F076
:102E70004217530718F49A01BE01DF01EF010280E7
:102E8000F381E02DDCCF2115310509F1281B390B29
:102E90002430310590F412968D919C911397611511
:102EA000710521F0FB019383828304C0909326086F
:102EB00080932508FD01329644C0FD01E20FF31F07
:102EC00081939193225031092D933C933AC02091E4
:102ED000230830912408232B41F4209103023091E0
:102EE000040230932408209323082091010230919A
:102EF00002022115310541F42DB73EB7409105027C
:102F000050910602241B350BE0912308F091240810
:102F1000E217F307A0F42E1B3F0B2817390778F0B0
:102F2000AC014E5F5F4F2417350748F04E0F5F1F0F
:102F300050932408409323088193919302C0E0E0CA
:102F4000F0E0CF01DF91CF9108950F931F93CF93BE
:102F5000DF93009709F48CC0FC0132971382128230
:102F600000912508109126080115110581F4208192
:102F70003181820F931F2091230830912408281754
:102F8000390779F5F0932408E093230871C0D8013C
:102F900040E050E0AE17BF0750F412962D913C91DF
:102FA0001397AD012115310509F1D901F3CF9D0129
:102FB000DA013383228360817181860F971F821724
:102FC000930769F4EC0128813981260F371F2E5FA2
:102FD0003F4F318320838A819B8193838283452B5A
:102FE00029F4F0932608E093250842C01396FC9339
:102FF000EE931297ED01499159919E01240F351FCF
:10300000E217F30771F480819181840F951F029676
:1030100011969C938E938281938113969C938E93A9
:103020001297E0E0F0E0D80112968D919C911397F1
:10303000009719F0F8018C01F6CF8D919C919801C1
:103040002E5F3F4F820F931F209123083091240859
:103050002817390769F4309729F41092260810923E
:10306000250802C0138212821093240800932308BB
:10307000DF91CF911F910F9108956F927F928F9260
:103080009F92AF92BF92CF92DF92EF92FF920F93F7
:103090001F93CF93DF93EC01009789F4CB01DF916D
:1030A000CF911F910F91FF90EF90DF90CF90BF9045
:1030B000AF909F908F907F906F900C941017FC01B1
:1030C000E60FF71F9C0122503109E217F30708F4BD
:1030D000ACC0D9010D911C91119706171707B0F0DC
:1030E0000530110508F49FC0C8010497861797079B
:1030F00008F499C002501109061B170B0193119394
:103100006D937C93CF010E94A5178DC05B01A01A1F
:10311000B10A4C01800E911EA0912508B09126089D
:1031200040E050E0E12CF12C109709F44AC0A815BA
:10313000B905D1F56D907C901197630182E0C80EBE
:10314000D11CCA14DB0480F1A3014A195B096A018E
:1031500082E0C80ED11C1296BC9012971396AC91C7
:10316000B5E0CB16D10440F0B282A38351834083F3
:10317000D9016D937C930AC00E5F1F4FC301800F6E
:10318000911FF90191838083EB2DFA2FE114F10453
:1031900031F0D7011396FC93EE93129744C0F0934D
:1031A0002608E09325083FC08D919C911197481700
:1031B000590708F4AC017D0112960D90BC91A02D29
:1031C000B3CF809123089091240888159905E1F4E4
:1031D00046175707C8F480910102909102020097A8
:1031E00041F48DB79EB74091050250910602841BB1
:1031F000950BE817F907C8F4F0932408E093230827
:10320000F901718360830FC0CB010E9410177C010C
:10321000009759F0A801BE010E942B19CE010E940F
:10322000A517C70104C0CE0102C080E090E0DF9185
:10323000CF911F910F91FF90EF90DF90CF90BF90B3
:10324000AF909F908F907F906F90089581E090E075
:10325000F8940C943B19FB01DC0102C001900D9223
:1032600041505040D8F70895FB01DC0101900D92C8
:103270000020E1F7089511E0C0E9D1E000E006C0C8
:10328000802FFE010E9475162196011DC139D107BC
:0A32900080E00807A9F7F894FFCFCB
:10329A00FF0000270820000000427572676572006F
:1032AA000000000000000000000000000043686504
:1032BA006573652042757267657200000000000040
:1032CA0000416C6C20427572676572000000000054
:1032DA0000000000005365747570000000000000D3
:1032EA00000000000000000000000000001209E2D7
:1032FA00082503BC08DA08CB08BD080000000084D2
:10330A0002C4010802CB02390217022B0200000094
:10331A00008408C401250324030A0D00526F626F5A
:10332A00742073757220626C616E6300526F626FF3
:10333A007420737572206E6F69720043616C6962E2
:10334A00726174696F6E2066696E69004176616E9A
:10335A00636500546F75726E652046696E69203127
:10336A00000D0A00496E76616C6964207365727695
:10337A006F2069642100536572766F20616E676CF5
:10338A0065206973206F7574206F662072616E679D
:04339A0065210000A9
:00000001FF
