:100000000C9495010C94C6010C94C6010C94C60185
:100010000C94C6010C94C6010C94C6010C94C60144
:100020000C94C6010C948B110C948B110C948B11B5
:100030000C94C6010C94B10A0C94C6010C94C60130
:100040000C94C6010C94370F0C94C6010C94C60195
:100050000C94C6010C94C6010C94C6010C94801833
:100060000C94C6010C94200C0C94F60B0C94C60155
:100070000C94C6010C94C6010C94C6010C94C601E4
:100080000C94C6010C94C6010C94C6010C94C601D4
:100090000C94C6010C94C6010C94C6010C949511E5
:1000A0000C94C6010C94C6010C94C6010C94C601B4
:1000B0000C94C6010C94C6010C94C6010C944A0C15
:1000C0000C94C6010C94C6010C94C6010C94CC0B84
:1000D0000C94A20B0C94C6010C94780B0C944E0B50
:1000E0000C94C601AD0DB20DB70DC10DCB0D440E74
:1000F000D50DDD0DE50DEF0DF90D030E120E1C0EE5
:10010000440E260E300E3A0E0A110D11FC1000118D
:1001100006114411111115111B111F112311291161
:100120002D113111441137113B113F110C941B114A
:100130000C9467100C9415110C94991D0C94441197
:100140000C943B110C94C10D0C94D50D0C947A09B0
:100150000C943F110C94440E0C94190A0C946610E4
:100160000C94EF0D0C941F110C94AD0D0C940A110E
:100170000C9429110C941C0E0C940C090C94D308AB
:100180000C9465100C94DD0D0C948B100C940011E4
:100190000C942E090C94C0100C942D110C94311158
:1001A0000C94F90D0C9420090C9468100C942311F4
:1001B0000C94030E0C9493100C94D2080C943711E9
:1001C0000C94E50D0C94FD080C94C7090C94300EAA
:1001D0000C94951D0C94B70D0C94120E0C94FC10FD
:1001E0000C940D110C94B20D0C943A0E0C94260E36
:1001F0000C9477100C941E0A0C9406110C94CB0DE1
:100200000C9411110200002100240027002A002D67
:10021000003000330001010000040107010A010061
:10022000002200250028002B002E0031003400029F
:10023000010000050108010B010000200023002639
:100240000029002C002F00320000010000030106ED
:10025000010901050505050705080808080202024D
:10026000020A0A0808040404040101010101010151
:10027000010303030303030303040707070C0C0C28
:100280000C0C0C0C0C020202020606060606060600
:10029000060B0B0B0B0B0B0B0B010210202008089D
:1002A00010204010204080020102010804020101D8
:1002B00002040810204080804020100804020180C1
:1002C0000402018040201008040201080402010118
:1002D0000204081020408001020408102040800021
:1002E000000A0B02090C0D0E0807030401000000B0
:1002F00000000000000000000000000000000000FE
:1003000000000000000000000000001211100000BA
:1003100000000000000000000000000000000000DD
:10032000000000000000991D951D11241FBECFEF95
:10033000D1E2DEBFCDBF00E00CBF13E0A0E0B2E031
:10034000EAEFF9E400E00BBF02C007900D92A03C79
:10035000B107D9F729E0A0ECB3E001C01D92AB3A98
:10036000B207E1F711E0C4E9D1E000E006C021974F
:100370000109802FFE010E947721C339D10780E057
:100380000807A9F70E94CA180C94EB240C940000EB
:100390002F923F924F925F926F927F928F929F9295
:1003A000AF92BF92CF92DF92EF92FF920F931F9383
:1003B000CF93DF9300D000D0CDB7DEB78FE796E0C4
:1003C000909399098093980980917C0690E090938E
:1003D0009B0980939A098091490790E090939D0929
:1003E00080939C0980917806853009F0ADC6809194
:1003F000810690918206885891098D35910588F47F
:1004000080917C06843041F480918306909184062B
:100410008097479708F4D7C080917C06843408F011
:10042000B9C080917C068A3108F420C180917F0692
:1004300090918006843F914080F410929709109229
:1004400096098FEF9FEFDC018093920990939309B7
:10045000A0939409B093950946C08091810690912C
:10046000820685974B9708F001C1E5E8F6E082E047
:1004700090E040E050E0BA018C010F5F1F4F2091E7
:100480007C0630E0021713076CF49F0122503109FB
:10049000D9012D913C91275031092730310508F4BD
:1004A000CAC0C80101979595879590939709809345
:1004B00096090C972CF41092970910929609D6C0C1
:1004C000409392095093930960939409709395090E
:1004D00084E090E015C04093920950939309609393
:1004E0009409709395098BE090E00AC040939209BB
:1004F0005093930960939409709395098CE090E070
:1005000090938F0980938E0982E0809378061092F1
:100510007C064091920950919309609194097091E1
:100520009509463CFFEC5F07F4E06F07F6E67F07AE
:1005300029F14A3F2FEC520724E0620726E67207B2
:1005400001F1463D8FEC580784E0680786E678079E
:10055000D9F0463E9FEC590794E0690796E6790783
:10056000B1F081E090E0463F5F4C6440764611F484
:1005700080E090E0919581959109FBC581E090E044
:10058000F8C582E090E0F5C583E090E0F2C584E034
:1005900090E0EFC580918306909184068254910982
:1005A0008E9708F03ECF20E030E080E090E0DC0164
:1005B000F901EB57F94F40815181495051094930B8
:1005C000510588F02ECF8091850690918606099777
:1005D000099708F021CF10929709109296098FEF92
:1005E0009FEFDC01B5C5F901E957F94F4081518111
:1005F000475151094231510588F4880F991FAA1FAC
:10060000BB1F81602C5F3F4F2038310589F620E207
:1006100030E030939709209396099AC54081518123
:10062000465051094730510508F0FBCE880F991FFD
:10063000AA1FBB1FE7CF20813181235131092F3001
:10064000310540F4440F551F661F771F4160029625
:10065000349612CF208131812A5031092930310559
:1006600028F4440F551F661F771FF1CF80917C0639
:100670008A3108F45EC080917F06909180068032B6
:10068000934008F4DACE8091810690918206C69755
:10069000869708F04EC08091830690918406C69795
:1006A000869708F046C0E7E8F6E083E090E040E097
:1006B00050E0BA018C010F5F1F4F20917C0630E0A3
:1006C0000217130764F49F0122503109D9012D91BB
:1006D0003C912C5031092B30310580F0C801019735
:1006E0009595879590939709809396090C970CF0B0
:1006F000F2CE10929709109296091BC02081318189
:10070000255231092B31310540F4440F551F661F26
:10071000771F416002963496CDCF208131812C50D5
:1007200031092A30310528F4440F551F661F771F01
:10073000F1CF80917C06823208F44DC08091810611
:10074000909182060697079708F045C0E5E8F6E025
:1007500082E090E040E050E0BA018C010F5F1F4F53
:1007600020917C0630E002171307C4F4DF011297D2
:100770002D913C9111972E51310927313105E8F423
:10078000440F551F661F771F4160208131813496C9
:100790002350310925303105E0F0C80101979595C6
:1007A0008795909397098093960940970CF09ECE79
:1007B00010929709109296090EC02D913C912C50E1
:1007C00031092B30310538F4440F551F661F771F50
:1007D000DCCF0296C2CF1C821B8281E090E09A831C
:1007E000898380917C068D3078F41C821B8281E0A5
:1007F00090E09A83898380919A0990919B091816B9
:1008000019060CF46CC0C3C049E753E0BE016D5F2C
:100810007F4FCE0101960E948716892B31F749E759
:1008200053E0BE016D5F7F4FCE0101960E94871697
:100830000197D9F649E753E0BE016D5F7F4FCE01C6
:1008400001960E948716892B81F6C12CD12C760146
:1008500000E010E080917C0690E029813A81281721
:10086000390774F549E753E0BE016D5F7F4FCE0154
:1008700001960E9487165C0149E753E0BE016D5F57
:100880007F4FCE0101960E948716B1E0AB16B104EE
:1008900051F4892B09F0A9CFCC0CDD1CEE1CFF1CF8
:1008A0006894C0F80AC0AB2809F09FCF019709F0FF
:1008B0009CCFCC0CDD1CEE1CFF1C0F5F1F4FCACF62
:1008C0001093970900939609C0929209D0929309C8
:1008D000E0929409F092950981E090E011CEE091C8
:1008E0009809F091990982E090E09A838983828146
:1008F000938189974E9708F04AC083E090E09A83ED
:100900008983848195810B970A9708F040C04CEB4E
:1009100051E0BE016D5F7F4FCE0101960E948716A8
:10092000892BA9F54CEB51E0BE016D5F7F4FCE01E5
:1009300001960E948716019751F5C12CD12C7601A2
:1009400000E010E020919A0930919B0989819A81F9
:10095000821793070CF026C14CEB51E0BE016D5F8E
:100960007F4FCE0101960E9487165C01033011056E
:1009700009F0E2C04CEB51E0BE016D5F7F4FCE014C
:1009800001960E948716A816B90609F4D5C0E09111
:100990009809F091990982819381C6978697E0F42E
:1009A000848195814B974597B8F4DF0116967F01B6
:1009B00026ECE20EF11C20E030E040E050E060E088
:1009C00070E080E090E00D911C91119709501109A1
:1009D0000830110508F4F5C080917C06893370F168
:1009E00082819381895791098335910508F425C146
:1009F00025C0D90112966D917C91139766517109AA
:100A00006131710508F045C1D701C601880F991FF2
:100A1000AA1FBB1F6C017D016894C0F84E5F5F4F39
:100A20002C5F3F4F4B33510509F416C1D9016D912D
:100A30007C916A50710969307105D8F280917C0609
:100A4000823231F4828193810A97099708F431C187
:100A5000828193818957910983359105D0F48091E2
:100A60007C068132B0F084819581CA97899788F499
:100A70009F012A5F3F4FC12CD12C760143E050E00B
:100A8000D9016D917C916A5071096930710508F442
:100A90002FC1828193818C549109C59778F48091FC
:100AA0007C06843031F4848195818097479708F4DF
:100AB0007FC180917C06843408F061C180917C06FE
:100AC000863460F1828193810C970B9708F4BEC144
:100AD00025C0D90112966D917C9113976E517109C1
:100AE0006731710508F0EAC1D701C601880F991F67
:100AF000AA1FBB1F6C017D016894C0F84E5F5F4F59
:100B00002C5F3F4F4534510509F4BBC1D9016D91AC
:100B10007C916C5071096B307105D8F280917C0624
:100B2000883508F433C282819381855891098B35C9
:100B3000910508F4D3C12AC24CEB51E0BE016D5FB0
:100B40007F4FCE0101960E9487164C01033011059C
:100B500069F44CEB51E0BE016D5F7F4FCE01019611
:100B60000E9487168816990609F011CFA114B104C6
:100B700059F48A94892809F00ACFCC0CDD1CEE1CAC
:100B8000FF1C6894C0F80BC0AA94AB2809F0FFCEF4
:100B9000892809F0FCCECC0CDD1CEE1CFF1C0F5F7D
:100BA0001F4FD0CE1093970900939609C0929209D7
:100BB000D0929309E0929409F092950982E090E036
:100BC0009FCC12960D911C911397015111090D3074
:100BD000110528F501E00E947F2121601496AE15D1
:100BE000BF0509F0F0CE209392093093930940930A
:100BF00094095093950900E20E949A21209390094C
:100C00003093910985E090E090938F0980938E094D
:100C100080E390E0909397098093960975CC1296A3
:100C20000D911C911397045011090530110508F01E
:100C3000D3CE01E00E947F21D1CF84819581CA97D4
:100C4000899708F0FBCE9F012A5F3F4FC12CD12C22
:100C5000760143E050E0EACE9F012A583F4FD90188
:100C60002D913C912A5031092930310508F0E6CE0A
:100C70002CE130E03093970920939609C0929209B5
:100C8000D0929309E0929409F09295098AE090E05D
:100C900037CCD90112966D917C91139766507109EA
:100CA0006730710508F0CACECC0CDD1CEE1CFF1CB1
:100CB000B5CE20917C06CF01820F911D820F911D30
:100CC000DC0112978D919C910A97099708F0C0CE8C
:100CD00010929709109296098FEF9FEFDC01809395
:100CE000920990939309A0939409B09395093BC2FC
:100CF000D90112966D917C911397665171096131FA
:100D0000710568F5D701C601880F991FAA1FBB1F7F
:100D10006C017D016894C0F84E5F5F4F2C5F3F4FC0
:100D20004332510509F0ACCE9F012A5B3F4FD901F8
:100D30002D913C912A5031092930310508F0A9CE76
:100D400020E130E03093970920939609C0929209F0
:100D5000D0929309E0929409F092950904C2D901C6
:100D600012966D917C9113976650710967307105E9
:100D700008F08FCECC0CDD1CEE1CFF1CCDCF848187
:100D8000958189549109C39708F098CE9F012A5FF5
:100D90003F4FBF016A577F4FC12CD12C7601D9013B
:100DA0004D915C914950510949305105B8F086CEBA
:100DB000868197810997099708F07BCE1092970951
:100DC000109296098FEF9FEFDC0180939209909328
:100DD0009309A0939409B0939509C8C1D9011296BB
:100DE0004D915C9113974651510941315105F0F4F1
:100DF000D701C601880F991FAA1FBB1F6C017D0177
:100E00006894C0F82C5F3F4F2617370741F620E261
:100E100030E03093970920939609C0929209D092BE
:100E20009309E0929409F0929509A0C1D901129614
:100E30004D915C911397465051094730510508F088
:100E40003DCECC0CDD1CEE1CFF1CDCCF84819581DB
:100E50000997099708F062CE868197818C974F9702
:100E600008F05CCE8085918589974D9708F056CE25
:100E70009F01265F3F4FC12CD12C760145E050E009
:100E800045CE9F0126573F4FD9012D913C912C50C3
:100E900031092B30310508F041CE20E230E03093AB
:100EA000970920939609C0929209D0929309E092F3
:100EB0009409F092950988E090E022CBD90112962E
:100EC0006D917C911397695071096930710508F033
:100ED00025CECC0CDD1CEE1CFF1C10CE8481958130
:100EE000825491098E9708F051C08F01045C1F4F06
:100EF0008DE190E040E050E020917C0630E024500D
:100F0000310982179307ACF4980122503109D901B5
:100F10002D913C91295031092830310510F136C00E
:100F2000D8012D913C91285131092231310558F1D8
:100F3000CB01019795958795909397098093960992
:100F40008A9724F1052E000C660B770B40939209CB
:100F500050939309609394097093950989E090E008
:100F6000CFCABC016F5F7F4FD8012D913C912750B4
:100F7000310927303105A0F6440F551F4160029614
:100F80000C5F1F4FB9CF440F551FF9CF80917C06DE
:100F90008032E1F48281938106970697B8F48481C8
:100FA00095810997099790F49F012A5F3F4FBF01F0
:100FB000625C7F4FC12CD12C7601D9014D915C919F
:100FC000465051094630510508F47EC080919A0977
:100FD00090919B099E838D8306970CF4B0C08F017E
:100FE0000E5F1F4F75ECC72E7DE9D72E7CE1E72EF3
:100FF00071E8F72EE3E02E2E312CD80114966D9176
:101000007C911597AD90BC9080E090E00E94C31F4A
:101010002B013C01B50180E090E00E94C31F4B0111
:101020005C012DEC3CEC4CE45FE30E9424209B012E
:10103000AC01C301B2010E94BE1F87FD17C02DEC99
:101040003CEC4CE45FE3C301B2010E9424209B010D
:10105000AC01C501B4010E94BE1FE82F880FFF0B31
:10106000EE27FF0FEE1FFF27319602C0E0E0F0E011
:10107000A701960163E971E080E091E00E945B21A5
:101080006F01FF0FEE08FF08C626D726E826F926CF
:10109000BFEF2B1A3B0A0E5F1F4FED81FE81E21559
:1010A000F30509F0AACFC0929209D0929309E09279
:1010B0009409F092950980E290E0909397098093CB
:1010C00096098FEF9FEF1CCAD90112964D915C9142
:1010D0001397495151094331510508F5D701C6010C
:1010E000880F991FAA1FBB1F6C017D016894C0F86F
:1010F0002C5F3F4F2617370709F05FCF2EE030E017
:101100003093970920939609C0929209D09293093F
:10111000E0929409F09295098FE090E0F1C9D9012D
:1011200012964D915C9113974950510949305105E0
:1011300008F04CCFCC0CDD1CEE1CFF1CD9CF82E09C
:101140008093780610927C0640E050E0BA0109CA0C
:101150008093920990939309A0939409B093950971
:1011600083E090E0CDC986E090E0CAC987E090E0D6
:10117000C7C926960FB6F894DEBF0FBECDBFDF916C
:10118000CF911F910F91FF90EF90DF90CF90BF9084
:10119000AF909F908F907F906F905F904F903F9017
:1011A0002F9008950895CF92DF92EF92FF920F93C0
:1011B0001F93CF93DF936C017A018B01C0E0D0E0E5
:1011C000CE15DF0581F0D8016D918D01D601ED912D
:1011D000FC910190F081E02DC6011995892B11F049
:1011E0002196EECF7E01C701DF91CF911F910F9124
:1011F000FF90EF90DF90CF900895FC01538D448DC8
:10120000252F30E0842F90E0821B930B541710F0B1
:10121000CF96089501970895FC01918D828D9817BE
:1012200061F0828DDF01A80FB11D5D968C91928DCA
:101230009F5F9F73928F90E008958FEF9FEF0895C7
:10124000FC01918D828D981731F0828DE80FF11D90
:10125000858D90E008958FEF9FEF0895FC01918DAB
:10126000228D892F90E0805C9F4F821B91098F73A4
:101270009927089581EA94E00E942E0921E0892BA4
:1012800009F420E0822F08958EE395E00E942E0954
:1012900021E0892B09F420E0822F08958BED95E061
:1012A0000E942E0921E0892B09F420E0822F089565
:1012B000FC01848DDF01A80FB11DA35ABF4F2C91F3
:1012C000848D90E001968F739927848FA689B789C2
:1012D0002C93A089B1898C91837080648C93938DB9
:1012E000848D981306C00288F389E02D80818F7D5C
:1012F00080830895EF92FF920F931F93CF93DF9314
:10130000EC0181E0888F9B8D8C8D981305C0E88956
:10131000F989808185FD26C0F62E0B8D10E00F5FC8
:101320001F4F0F731127E02E8C8DE8120CC00FB6E3
:1013300007FCFACFE889F989808185FFF5CFCE01D6
:101340000E945809F1CF8B8DFE01E80FF11DE35A81
:10135000FF4FF0829FB7F8940B8FEA89FB89808159
:1013600080620AC09FB7F894EE89FF896083E8899C
:10137000F98980818370806480839FBF81E090E0E1
:10138000DF91CF911F910F91FF90EF900895CF9330
:10139000DF93EC01888D8823C9F0EA89FB8980817D
:1013A00085FD05C0A889B9898C9186FD0FC00FB64F
:1013B00007FCF5CF808185FFF2CFA889B9898C9190
:1013C00085FFEDCFCE010E945809E7CFDF91CF9185
:1013D0000895E0E0F0E0199480E090E0892B21F09E
:1013E0000E944E09811119C080E090E0892B41F0E4
:1013F00080E090E0892B21F00E940000811110C054
:101400000E94440981110FC080E090E0892B81F097
:101410000E943A0981110AC008950E940000E4CF99
:101420000E940000EDCF0E94E909EECF0C9400006D
:10143000089580E090E008950E94D62441E00E9443
:101440001E1681E090E008950F931F93CF93DF93D2
:10145000EC0188819981009729F02A813B81261728
:10146000370788F48B016F5F7F4F0E94F12300974D
:1014700061F0998388831B830A832C813D81232B10
:1014800011F4FC01108281E001C080E0DF91CF9176
:101490001F910F910895EF92FF920F931F93CF9397
:1014A000DF93EC017B018A01BA010E94240A2881A2
:1014B000398181110DC02115310519F0C9010E9432
:1014C0006823198218821D821C821B821A8206C020
:1014D0001D830C83B701C9010E94E424CE01DF9172
:1014E000CF911F910F91FF90EF900895CF93DF93CD
:1014F000EC016115710559F0FB0101900020E9F73D
:101500003197AF01461B570B0E944B0A0CC08881D4
:101510009981009711F00E946823198218821D8218
:101520001C821B821A82CE01DF91CF910895FC01AB
:10153000808191810C946823FC01118210821382B6
:101540001282158214826115710551F0FB01019020
:101550000020E9F73197AF01461B570B0C944B0A5B
:1015600008951F920F920FB60F9211240BB60F928F
:101570002F933F934F935F936F937F938F939F939B
:10158000AF93BF93EF93FF938091DC039091DD03C2
:10159000A091DE03B091DF03892B8A2B8B2B49F1BD
:1015A0009091DB0380910000892780930000809157
:1015B000DC039091DD03A091DE03B091DF031816E8
:1015C00019061A061B060CF056C08091DC03909198
:1015D000DD03A091DE03B091DF030197A109B109FA
:1015E0008093DC039093DD03A093DE03B093DF03CD
:1015F00042C080910002E4E0F2E0E4919FEF90931A
:101600000002E230C9F050F4EE2399F0E13081F5A8
:1016100090916F009D7F90936F002AC0E43019F184
:10162000E0F0E53029F5909173009D7F9093730071
:101630001FC010926E001CC0909170009D7F90930F
:10164000700091E09093B0009091B100987F946009
:101650009093B1001092B3000BC0909171009D7FE8
:101660009093710005C0909172009D7F90937200DD
:1016700060E00E94F012FF91EF91BF91AF919F91B6
:101680008F917F916F915F914F913F912F910F902B
:101690000BBE0F900FBE0F901F9018951F920F92C8
:1016A0000FB60F9211240BB60F922F933F934F93C7
:1016B0005F936F937F938F939F93AF93BF93EF93BA
:1016C000FF9381EA94E00E945809FF91EF91BF9146
:1016D000AF919F918F917F916F915F914F913F91CA
:1016E0002F910F900BBE0F900FBE0F901F9018956B
:1016F0001F920F920FB60F9211240BB60F922F93D9
:101700003F934F935F936F937F938F939F93AF9389
:10171000BF93EF93FF9381EA94E00E947211FF91CF
:10172000EF91BF91AF919F918F917F916F915F9159
:101730004F913F912F910F900BBE0F900FBE0F90C6
:101740001F9018951F920F920FB60F9211240BB68F
:101750000F922F933F934F935F936F937F938F934A
:101760009F93AF93BF93EF93FF938EE395E00E9417
:101770005809FF91EF91BF91AF919F918F917F9108
:101780006F915F914F913F912F910F900BBE0F90F2
:101790000FBE0F901F9018951F920F920FB60F92C9
:1017A00011240BB60F922F933F934F935F936F9338
:1017B0007F938F939F93AF93BF93EF93FF938EE3AA
:1017C00095E00E947211FF91EF91BF91AF919F91AF
:1017D0008F917F916F915F914F913F912F910F90DA
:1017E0000BBE0F900FBE0F901F9018951F920F9277
:1017F0000FB60F9211240BB60F922F933F934F9376
:101800005F936F937F938F939F93AF93BF93EF9368
:10181000FF938BED95E00E945809FF91EF91BF91E6
:10182000AF919F918F917F916F915F914F913F9178
:101830002F910F900BBE0F900FBE0F901F90189519
:101840001F920F920FB60F9211240BB60F922F9387
:101850003F934F935F936F937F938F939F93AF9338
:10186000BF93EF93FF938BED95E00E947211FF9170
:10187000EF91BF91AF919F918F917F916F915F9108
:101880004F913F912F910F900BBE0F900FBE0F9075
:101890001F9018951F920F920FB60F9211240BB63E
:1018A0000F922F933F934F935F936F937F938F93F9
:1018B0009F93AF93BF93EF93FF93809179060E941C
:1018C000C71220917D0630917E062F5F3F4F3093E7
:1018D0007E0620937D0690917C06953618F096E062
:1018E00090937806909178069430C9F128F492305C
:1018F00069F09330D1F05EC0953009F451C0963054
:1019000009F058C091E09093490751C0811152C02D
:1019100020917D0630917E062436310508F442C0C0
:101920001092490710927C061CC0813009F042C019
:10193000E0917C0691E09E0F90937C06F0E0209170
:101940007D0630917E06EE0FFF1FE858F94F308775
:10195000278310927E0610927D0694E029C08111A3
:1019600017C0E0917C0691E09E0F90937C06F0E01A
:1019700020917D0630917E06EE0FFF1FE858F94F4B
:101980003087278310927E0610927D0693E010C068
:1019900020917D0630917E062536310558F007C02E
:1019A000811108C010927E0610927D0603C095E05A
:1019B0009093780690917B069923B9F081110AC023
:1019C00080917A06882321F080917A0661E009C02F
:1019D0002F9A0BC080917A06882331F080917A0685
:1019E00060E00E94F01201C02F98FF91EF91BF912B
:1019F000AF919F918F917F916F915F914F913F91A7
:101A00002F910F900BBE0F900FBE0F901F90189547
:101A1000CF92DF92EF92FF92CF93DF93EC01072EEC
:101A2000000C880B990B0E94C51F6B017C0120E004
:101A300030E040E45FE30E94242020E030E048E40E
:101A400052E40E9423220E949522C617D707D4F0A1
:101A500020E030E040EA5FE3C701B6010E942420A5
:101A600020E030E048E452E40E94232220E030E00D
:101A700040E85FE30E94B7210E94952221E06C17A5
:101A80007D070CF420E0822F90E0DF91CF91FF9052
:101A9000EF90DF90CF9008958F929F92AF92BF9278
:101AA000CF92DF92EF92FF920F931F93CF93DF932A
:101AB0008C016A017B0120E030E04FE753E4C7016D
:101AC000B6010E9424204B015C0120E030E0A90116
:101AD0000E94CB2218161CF4C501B40103C0C50135
:101AE000B40190580E949522EB0120E030E0A9015A
:101AF000C701B6010E94CB22181614F460E001C0A1
:101B000061E0F80181810E94F012CF3FD10509F018
:101B100014F4DD2702C0CFEFD0E0F801108161E0BE
:101B2000812F0E945113209709F4B1C0CF3FD105F6
:101B300009F4AFC0E12FF0E0E152FD4FE4918E2FA8
:101B400090E0FC013197E231F10508F09DC0882753
:101B5000EE58FF4F8F4F0C94772184B5806884BD79
:101B6000C7BDA7C084B5806284BDC8BDA2C0809136
:101B70008000806880938000D0938900C0938800A3
:101B800098C080918000806280938000D0938B0009
:101B9000C0938A008EC0809180008860809380000E
:101BA000D0938D00C0938C0084C08091B000806879
:101BB0008093B000C093B3007CC08091B00080627D
:101BC0008093B000C093B40074C08091900080688E
:101BD00080939000D0939900C09398006AC0809140
:101BE0009000806280939000D0939B00C0939A00F5
:101BF00060C080919000886080939000D0939D0099
:101C0000C0939C0056C08091A00080688093A00083
:101C10008091A0008F7B8093A000D093A900C093F7
:101C2000A80047C08091A00080628093A000D0935C
:101C3000AB00C093AA003DC08091A0008860809353
:101C4000A000D093AD00C093AC0033C080912001C0
:101C5000806880932001D0932901C093280129C076
:101C600080912001806280932001D0932B01C0934A
:101C70002A011FC080912001886080932001D093A9
:101C80002D01C0932C0115C0C038D10514F460E0BB
:101C900001C061E0812FDF91CF911F910F91FF90E3
:101CA000EF90DF90CF90BF90AF909F908F900C946B
:101CB000F012DF91CF911F910F91FF90EF90DF9085
:101CC000CF90BF90AF909F908F900895CF92DF926A
:101CD000EF92FF92CF93DF93FC01C081CC3008F0EC
:101CE00064C0D0E085E08C9FF0018D9FF00D112441
:101CF000E65BF84F838128E830E06901C81AD10813
:101D000087FDD394CC0CDD1CCC0CDD1C683C71052C
:101D10003CF50D2C000CEE08FF08848128E532E02C
:101D2000281B310987FD3395220F331F220F331FE4
:101D3000C901330FAA0BBB0B9C01AD012C193D0946
:101D40004E095F09DB010E94222124EB30E040E0D4
:101D500050E00E94F820C20ED31EE41EF51E13C0F0
:101D60006C157D0584F0248188E592E0821B910941
:101D700027FD9395880F991F880F991F6B01861770
:101D800097070CF46C018FB7F89495E09C9FF001D5
:101D90009D9FF00D1124E65BF84F96E0C91AD1081B
:101DA000CC0CDD1CD282C1828FBFDF91CF91FF901E
:101DB000EF90DF90CF9008951F93CF93DF93EC01C6
:101DC000162F88818C3008F04DC061E0812F0E9471
:101DD0005113E88195E09E9FF0011124E65BF84FD6
:101DE0001F738081807C182B10831382E8819E9F53
:101DF000F0011124E65BF84F148288816CE00E94A8
:101E00006B219CE0899FA001112420E030E095E047
:101E1000BA01620F731F969FF001979FF00D112476
:101E2000E65BF84F608166FD13C02F5F3F4F2C309B
:101E3000310571F781110CC01092800082E080930F
:101E40008100109285001092840086BB80936F0001
:101E5000E88185E0E89FF0011124E65BF84F80817E
:101E6000806480838881DF91CF911F9108951F92B4
:101E70000F920FB60F9211240BB60F922F933F9330
:101E80004F935F936F937F938F939F93AF93BF9382
:101E9000EF93FF938091DA0387FF05C010928500CE
:101EA0001092840016C02091DA03022E000C330B2E
:101EB0008091860790E0281739075CF43091DA03A7
:101EC00025E03203F0011124E65BF84F808186FDA6
:101ED00015C08091DA038F5F8093DA032091DA03D3
:101EE000022E000C330B8091860790E028173907EB
:101EF00094F48091DA038C302CF10DC03091DA0328
:101F00003203F0011124E65BF84F808160E08F73AB
:101F10000E94F012DECF809184009091850084347D
:101F20009C4918F480E49CE905C08091840090915C
:101F30008500049690938900809388008FEF8093AA
:101F4000DA032AC040918400509185003091DA0371
:101F500025E03203F0011124E65BF84F8181928184
:101F6000840F951F90938900809388003091DA0345
:101F70003203F0011124E65BF84F808186FF0CC02C
:101F80003091DA033203F0011124E65BF84F8081CF
:101F900061E08F730E94F012FF91EF91BF91AF91BA
:101FA0009F918F917F916F915F914F913F912F9171
:101FB0000F900BBE0F900FBE0F901F9018958EBD07
:101FC00000000DB407FEFDCF8EB50895CF93DF93CB
:101FD000CDB7DEB728970FB6F894DEBF0FBECDBFE2
:101FE0009C0188E0E7E0F2E0DE01119601900D929D
:101FF0008A95E1F7F9018085841710F44FEF480FB7
:10200000FE013196E40FF11DE40FF11D9081690F7F
:10201000606840E0C90128960FB6F894DEBF0FBE95
:10202000CDBFDF91CF910C941E16CF93DF93EC01BF
:1020300040E061E00E941E168BE39FE10197F1F7FB
:102040008985882339F040E060E0CE01DF91CF91AF
:102050000C94E60FDF91CF910895809194089091B0
:1020600095080C94151085ED8093BC008091BC0000
:1020700084FDFCCF10927104089540912404262F12
:1020800030E0240F311D21323105DCF42091710440
:102090002430C9F4FC0180E090E0861758F43091B8
:1020A00024042191DC01AE5FBB4FA30FB11D2C9323
:1020B0000196F3CF80912404680F6093240480E09C
:1020C000089581E0089582E008950895089508959F
:1020D000E091010480910004E81730F4F0E0E05250
:1020E000FC4F808190E008958FEF9FEF08959091CD
:1020F000010480910004981750F4E92FF0E0E052B9
:10210000FC4F208130E09F5F9093010402C02FEFCD
:102110003FEFC90108958091000490E020910104EF
:10212000821B91090895CF92DF92EF92FF920F9355
:102130001F93CF93DF937C01CB018A01209172041E
:10214000222389F0EB016B01C40ED51ECC15DD05F1
:1021500069F06991D701ED91FC910190F081E02D3A
:10216000C7011995F3CF642F0E943D10C801DF917C
:10217000CF911F910F91FF90EF90DF90CF90089536
:10218000CF93DF931F92CDB7DEB76983209172049E
:102190002223D1F020919404203240F021E030E05D
:1021A000FC013383228380E090E015C080917304AA
:1021B000E82FF0E0EC58FB4F998190838F5F80937C
:1021C00073048093940405C061E0CE0101960E94DF
:1021D0003D1081E090E00F90DF91CF91089590E065
:1021E000FC013197E231F10508F04EC08827EC5729
:1021F000FF4F8F4F0C947721809180008F7703C021
:10220000809180008F7D8093800008958091800070
:10221000877FF9CF84B58F7702C084B58F7D84BD69
:1022200008958091B0008F7703C08091B0008F7DBA
:102230008093B0000895809190008F7707C08091BF
:1022400090008F7D03C080919000877F80939000E5
:1022500008958091A0008F7707C08091A0008F7DA6
:1022600003C08091A000877F8093A0000895809193
:1022700020018F7707C0809120018F7D03C080915E
:102280002001877F8093200108950F931F93CF93A0
:10229000DF93CDB7DEB729970FB6F894DEBF0FBE38
:1022A000CDBF8C01862FF801118210821382128219
:1022B000158214824AE0BE016F5F7F4F90E00E945A
:1022C000941FBE016F5F7F4FC8010E94760A299656
:1022D0000FB6F894DEBF0FBECDBFDF91CF911F9137
:1022E0000F910895FC01A089B1898C91A689B789C5
:1022F00082FD0FC09C91818D8F5F8F73228D82171D
:1023000049F0218DDF01A20FB11D5D969C93818F55
:1023100008958C9108951F920F920FB60F92112479
:102320000F900FBE0F901F9018951F920F920FB62F
:102330000F9211240BB60F922F933F934F935F93FD
:102340006F937F938F939F93AF93BF93EF93FF937D
:102350008091B900887F803609F49CC068F5883286
:1023600009F45BC090F4803109F454C038F4882338
:1023700009F4F6C0883009F44DC0F6C0883109F47C
:102380004CC0803209F45DC0EFC0803409F468C0ED
:1023900048F4803309F455C0883309F0E5C08093D0
:1023A0006F04D8C0803509F44FC0883509F45DC08A
:1023B000883409F0D9C0D6C0883909F4C7C0A8F458
:1023C000883709F467C038F4883609F463C0803769
:1023D00009F460C0C9C0883809F4B8C0803909F46C
:1023E0005FC0803809F0C0C05BC0803B09F486C084
:1023F00038F4803A09F466C0883A09F47FC0B4C062
:10240000803C09F4A7C0883C09F4A4C0883B09F4C7
:102410008AC0AAC080914C0410C090916E04809133
:102420006D04981770F5E0916E0481E08E0F809333
:102430006E04F0E0E35BFB4F80818093BB0085EC92
:1024400086C080936F048EC0E0916E0481E08E0F91
:1024500080936E048091BB00F0E0E35BFB4F8083D0
:1024600090916E0480916D046EC0E0916E0481E0E5
:102470008E0F80936E048091BB00F0E0E35BFB4F16
:1024800080838091700481116DC081E080934B0442
:1024900084EA61C083E08093710410924804CFCF36
:1024A00080914804803208F051C0E091480481E0F6
:1024B0008E0F809348048091BB00F0E0E85DFB4FF5
:1024C0008083BDCF85EC8093BC0010927104809115
:1024D0004804803230F4E0914804F0E0E85DFB4FBE
:1024E00010826091480470E0E0912604F091270486
:1024F00088E294E019951092480436C084E08093F5
:1025000071041092250410922404E0912204F091A9
:102510002304199580912404811105C081E08093E2
:10252000240410920204E091250481E08E0F809330
:102530002504F0E0EE5FFB4F80818093BB0090911B
:10254000250480912404981708F479CF85E88093B6
:10255000BC000AC085EC8093BC001092710404C0DA
:1025600010926F040E943310FF91EF91BF91AF91D1
:102570009F918F917F916F915F914F913F912F919B
:102580000F900BBE0F900FBE0F901F901895CF931A
:10259000DF93282F30E0F901E152FD4F8491F901DA
:1025A000E756FD4FD491F901ED5AFD4FC491CC236C
:1025B00091F081110E94EF10EC2FF0E0EE0FFF1F61
:1025C000E75CFD4FA591B491EC91ED2381E090E0A3
:1025D00021F480E002C080E090E0DF91CF91089587
:1025E0001F93CF93DF93282F30E0F901E152FD4F85
:1025F0008491F901E756FD4FD491F901ED5AFD4F51
:10260000C491CC23C1F0162F81110E94EF10EC2F42
:10261000F0E0EE0FFF1FE15EFD4FA591B4919FB773
:10262000F894111104C08C91D095D82302C0EC917C
:10263000DE2BDC939FBFDF91CF911F910895109205
:1026400001041092000410927304109294041092EA
:10265000710481E08093700410924B0461E084E186
:102660000E94F01261E085E10E94F012E9EBF0E0D7
:1026700080818E7F808380818D7F808388E48093BA
:10268000B80085E48093BC0085E690E19093230434
:102690008093220486E690E1909327048093260499
:1026A0000895CF93DF9390E0FC01E756FD4F24910E
:1026B000FC01ED5AFD4F8491882361F190E0880F71
:1026C000991FFC01EB5FFD4FC591D491FC01E15EC8
:1026D000FD4FA591B491611109C09FB7F89488810D
:1026E000209582238883EC912E230BC0623061F405
:1026F0009FB7F8948881322F309583238883EC919B
:102700002E2B2C939FBF06C08FB7F894E8812E2BF9
:1027100028838FBFDF91CF910895863308F08653C9
:1027200090917B00282F2870977F922B90937B00AD
:102730008770806480937C0080917A0080648093AD
:102740007A0080917A0086FDFCCF809178002091FC
:10275000790090E0922B0895CF93DF9382E40E945A
:102760008D1331E020E04091800850918108481796
:1027700059070CF430E0C32FD22F81E40E948D134F
:1027800020917E0830917F08281739070CF0229697
:102790008FE30E948D1320917C0830917D082817CB
:1027A00039070CF02496CE01DF91CF9108958F92D6
:1027B0009F92AF92BF92CF92DF92EF92FF926B0106
:1027C0007C010E945B184B015C01C114D104E1043F
:1027D000F104F1F00E945B18DC01CB018819990922
:1027E000AA09BB09883E9340A105B10570F321E019
:1027F000C21AD108E108F10888EE880E83E0981E1D
:10280000A11CB11CC114D104E104F10419F7DDCFFE
:10281000FF90EF90DF90CF90BF90AF909F908F9000
:1028200008951F93CF93DF9300D000D0CDB7DEB7CC
:1028300080918707811172C00E942D1080E00E9454
:10284000351666EB73E0CE0101960E949C0ACE011C
:1028500001960E943218CE0101960E94970A80913B
:10286000880790918907019714E1189FB001199F7B
:10287000700D11246657784FCE0101960E949C0A74
:10288000CE0101960E943218CE0101960E94970A4D
:1028900081E00E94351669EB73E0CE0101960E943B
:1028A0009C0ACE0101960E943218CE0101960E9428
:1028B000970A8091880790918907189FB001199F06
:1028C000700D11246657784FCE0101960E949C0A24
:1028D000CE0101960E943218CE0101960E94970AFD
:1028E00082E00E94351666EB73E0CE0101960E94ED
:1028F0009C0ACE0101960E943218CE0101960E94D8
:10290000970A80918807909189070196189FB001D6
:10291000199F700D11246657784F71C00E942D10B9
:1029200080E00E94351666EB73E0CE0101960E94AE
:102930009C0ACE0101960E943218CE0101960E9497
:10294000970A8091020890910308019714E1189F5B
:10295000B001199F700D11246C5F774FCE01019665
:102960000E949C0ACE0101960E943218CE01019667
:102970000E94970A81E00E94351669EB73E0CE0150
:1029800001960E949C0ACE0101960E943218CE0147
:1029900001960E94970A8091020890910308189F5F
:1029A000B001199F700D11246C5F774FCE01019615
:1029B0000E949C0ACE0101960E943218CE01019617
:1029C0000E94970A82E00E94351666EB73E0CE0102
:1029D00001960E949C0ACE0101960E943218CE01F7
:1029E00001960E94970A809102089091030801962F
:1029F000189FB001199F700D11246C5F774FCE01A5
:102A000001960E949C0ACE0101960E943218CE01C6
:102A100001960E94970A26960FB6F894DEBF0FBE65
:102A2000CDBFDF91CF911F91089530919404313241
:102A300008F04BC0809171048111FCCF9091CF08B8
:102A400022E02093710421E0209370042FEF209363
:102A50006F0410926E0430936D04E4E7F4E0ADE48B
:102A6000B4E020E0321721F041914D932F5FFACF6F
:102A700010924C0420914C04990F922B90934C048B
:102A800090914B04913061F410924B0490914C045E
:102A90009093BB009091BC0093FDF8CF95EC01C0E2
:102AA00095EE9093BC00909171049230E1F3909177
:102AB0006F049F3F79F080916F04803241F08091E4
:102AC0006F04803331F084E005C081E003C082E010
:102AD00001C083E010927304109294041092720467
:102AE0000895EBEDF5E0A089B18982E08C93A4858F
:102AF000B5851C92A685B7858FEC8C93108EA48922
:102B0000B58986E08C93A289B3898C9180618C937E
:102B1000A289B3898C9188608C93A289B3898C91A6
:102B200080688C930288F389E02D80818F7D80837B
:102B30000895CF93DF93009779F0FC010190002076
:102B4000E9F73197AF01481B590BBC018BED95E0BC
:102B50000E94D308EC0102C0C0E0D0E042E050E0A7
:102B60006CEB73E08BED95E00E94D3088C0F9D1FFA
:102B7000DF91CF9108950F931F93CF93DF93162F7B
:102B8000072FC8E9D8E09C8521E020937204909338
:102B9000CF081092730410929404AA85BB85ED911E
:102BA000FC9111970190F081E02D682FCD011995CE
:102BB0008A859B85DC01ED91FC910190F081E02DEF
:102BC000602F19958A859B85DC01ED91FC91019020
:102BD000F081E02D612F1995DF91CF911F910F9119
:102BE0000C941515FC01248131E03093720420937C
:102BF000CF0810927304109294048485682B85E9A1
:102C000094E00E94C0100C9415150F931F93CF935E
:102C10008C01C62F0E94F2156C2F6460C8010E94BF
:102C2000F2156C2F6B7FC8010E94F21583EC90E0C7
:102C30000197F1F7CF911F910F9108950F931F9373
:102C4000CF93DF938C01C62FD42F607F642B0E941B
:102C5000051680E1C89FB00111246D2BC801DF91DA
:102C6000CF911F910F910C940516E4E9F8E01382BF
:102C7000482F4370428360E0808191810C94E60F7D
:102C8000DB0114964D915C9115976D917C91DC015F
:102C9000ED91FC910280F381E02D19940F931F9325
:102CA000CF93DF938C01EB01FC0180819181009730
:102CB000B1F0688179816115710579F042815381A4
:102CC0002C813D814217530740F00E94E4248C81FF
:102CD0009D81F8019583848313C00E9468238881B5
:102CE0009981F801918380838A819B819383828378
:102CF0008C819D8195838483198218821B821A821C
:102D00001D821C82DF91CF911F910F9108958F92A8
:102D10009F92AF92BF92CF92DF92EF92FF920F936A
:102D20001F93CF93DF93FC0120813181E0919A09B9
:102D3000F0919B092E173F070CF04FC0F901EE0FE1
:102D4000FF1FA0919809B0919909EA0FFB1FA0807D
:102D5000B180217033276901F1E0CF26232B19F4CC
:102D60002CE93FEF02C024E630E07A018B01EC0150
:102D70004901840E951EB401C5010E94080D892BDE
:102D800099F48E0C9F1CB401C5010E94080D892B7B
:102D900071F4B701680D791DC5010E94080D892BDA
:102DA000F9F023E030E005C021E030E002C022E08D
:102DB00030E0F801808191810196821793071CF41D
:102DC0009183808308C0F8011182108288819981E3
:102DD000019699838883C60105C081E090E002C016
:102DE0008FEF9FEFDF91CF911F910F91FF90EF90A9
:102DF000DF90CF90BF90AF909F908F9008955F929B
:102E00006F927F928F929F92AF92BF92CF92DF92FA
:102E1000EF92FF920F931F93CF93DF93CDB7DEB75F
:102E20002C970FB6F894DEBF0FBECDBF8C01DC012E
:102E300014967C906EEB73E0CE0107960E949C0A7C
:102E4000612C84E1A82EB12C94E1592E2091970891
:102E500030E0472D50E0B501621B730B862D90E0EA
:102E60006C01641775070CF05DC0B4E1CB0ED11C8A
:102E7000C21AD30A4C01C814D90410F446016C01DB
:102E80006EEB73E0CE0101960E949C0AF801E4808B
:102E9000F5808E149F04D8F4CE14DF0408F4760174
:102EA000D801ED91FC911197EE0DFF1DD08010829D
:102EB0006D917C91680D791DCE0101960E94760A74
:102EC000F80180819181FC01EE0DFF1DD082BE01D1
:102ED0006F5F7F4FCE0107960E944E16CE0101967E
:102EE0000E94970ABE01695F7F4F8091940890917C
:102EF00095080E94401680919708952D981B690EA1
:102F0000409196084F5F4370409396088451780E25
:102F100060E080919408909195080E94E60F1092CD
:102F2000970894CFD8011496AD90BC901597AC1427
:102F3000BD0410F465015C016EEB73E0CE010196F7
:102F40000E949C0AF801E480F580CE14DF04D8F4D6
:102F5000AE14BF0408F47501D801ED91FC911197EE
:102F6000EE0DFF1DB08010826D917C916C0D7D1D6A
:102F7000CE0101960E94760AF80180819181FC01C0
:102F8000EE0DFF1DB082BE016F5F7F4FCE01079631
:102F90000E944E16CE0101960E94970ABE01695FFB
:102FA0007F4F80919408909195080E9440169091CF
:102FB00097088B85890F809397086EEB73E0CE019D
:102FC00001960E949C0AF0909708F3E1FF15C8F063
:102FD0000D811E810F5F1F4FB801CE0101960E9427
:102FE000240A882361F029813A818D819E8167EBD3
:102FF00073E0820F931F0E94E4241E830D83F394D9
:10300000E4CFBE016F5F7F4F809194089091950847
:103010000E9440164091960860919708809194080C
:10302000909195080E94E60FCE0101960E94970AA2
:10303000CE0107960E94970A2C960FB6F894DEBF31
:103040000FBECDBFDF91CF911F910F91FF90EF90F9
:10305000DF90CF90BF90AF909F908F907F906F90B8
:103060005F900895CF93DF9300D000D0CDB7DEB747
:103070001A8219821C821B821E821D82FC016081C1
:1030800071816115710531F044815581CE01019640
:103090000E944B0ACE0101960E94FF16CE010196B6
:1030A0000E94970A26960FB6F894DEBF0FBECDBFDA
:1030B000DF91CF9108953FB7F8948091A309909143
:1030C000A409A091A509B091A60926B5A89B05C0A1
:1030D0002F3F19F00196A11DB11D3FBFBA2FA92F97
:1030E000982F8827820F911DA11DB11DBC01CD0114
:1030F00042E0660F771F881F991F4A95D1F7089500
:103100001F920F920FB60F9211242F933F938F931C
:103110009F93AF93BF9380919F099091A009A09135
:10312000A109B091A20930919E0923E0230F2D3708
:1031300020F40196A11DB11D05C026E8230F0296BB
:10314000A11DB11D20939E0980939F099093A00912
:10315000A093A109B093A2098091A3099091A40919
:10316000A091A509B091A6090196A11DB11D80935A
:10317000A3099093A409A093A509B093A609BF91B0
:10318000AF919F918F913F912F910F900FBE0F9014
:103190001F901895CF93DF93CDB7DEB728970FB662
:1031A000F894DEBF0FBECDBF789484B5826084BD35
:1031B00084B5816084BD85B5826085BD85B581603B
:1031C00085BD80916E00816080936E0010928100B9
:1031D0008091810082608093810080918100816074
:1031E0008093810080918000816080938000809135
:1031F000B10084608093B1008091B00081608093C1
:10320000B000809191008260809391008091910044
:103210008160809391008091900081608093900004
:103220008091A10082608093A1008091A1008160C3
:103230008093A1008091A00081608093A000809184
:10324000210182608093210180912101816080931E
:1032500021018091200181608093200180917A007A
:10326000846080937A0080917A00826080937A00F3
:1032700080917A00816080937A0080917A008068E2
:1032800080937A001092C1000E9471150E947115FE
:1032900061E0809199080E94511360E08091990843
:1032A0000E94F01260E0809198080E94511385E915
:1032B00094E09093A3088093A2080E941F1380E0DB
:1032C00090E1A0E0B0E08093A5089093A608A093B9
:1032D000A708B093A8088AE090E0A0E0B0E080934F
:1032E000A9089093AA08A093AB08B093AC0880E01B
:1032F00090E0A0E0B0E48093AD089093AE08A09376
:10330000AF08B093B00860E070E185E00E94BB15A3
:103310006FE979E380E00E94BB1508E918E07801C5
:10332000512CB8E86B2EB2E07B2E8EEC882E82E01A
:10333000982E9BECC92E97E0D92E2BE8A22EBB2409
:10334000B394F70194818281F801818F928F61E0BB
:103350000E94511361E0F801828D0E945113F70120
:1033600090858681F801858F968F61E00E945113C8
:1033700060E0F801868D0E94511361E0F801858DAF
:103380000E94F0124FB6F8948091C003811126C0BC
:10339000F3018491F4012491E82FF0E0EE0FFF1F78
:1033A000EB5FFD4FA591B4919C91822F892321F46D
:1033B00061E085E30E94F01261E085E30E94511311
:1033C0008CB580618CBD8CB580648CBD61E084E37C
:1033D0000E94511361E083E30E9451138091C00366
:1033E0008F5F8093C0034FBEC6010197F1F760E085
:1033F000F801858D0E94F01288E80E94DF0F83E0BB
:103400000E94DF0F61E0F801858D0E94F012C60175
:103410000197F1F760E0F801858D0E94F01288E9CC
:103420000E94DF0F80E00E94DF0F80E00E94DF0F2C
:1034300080E00E94DF0F80E00E94DF0F61E0F80172
:10344000858D0E94F012C5010197F1F760E0F80147
:10345000858D0E94F01280EE0E94DF0F61E0F8017E
:10346000858D0E94F0125394FFEFEF1AFF0A0E5F52
:103470001F4F82E0581265CF0DEB18E071ECE72E7C
:1034800078E0F72E60E0F80181918F010E945113DE
:10349000F8E0013C1F07B1F709EB18E063ECA62E3A
:1034A00068E0B62E67018FEFC81AD80AF70160816D
:1034B00070E0C70108960E94DC0EF60195818381B9
:1034C000F801828B938B60E00E94511361E0F80158
:1034D00083890E94511360E0F80183890E94F012F1
:1034E0000E5F1F4F7601AC14BD04E1F6F894109204
:1034F000200189E08093210180E293E090932901EB
:1035000080932801109225011092240182E080937B
:10351000730078948093780610927C0680917906E7
:1035200060E00E945113009194081091950885E97C
:1035300094E00E941F13F80115828385823010F0F9
:1035400098E09583F801808762E370E080E090E086
:103550000E94D713F8016485C8010E94F21568EE35
:1035600073E080E090E00E94D71360E3C8010E94FE
:1035700005165BE4E52E56E4F52EC7010197F1F739
:1035800060E3C8010E940516C7010197F1F760E3E7
:10359000C8010E94051683E592E00197F1F760E209
:1035A000C8010E940516F8016581606240E0C8010B
:1035B0000E941E1684E0F801868340E06CE0C8019A
:1035C0000E941E16C8010E94151082E0F801878330
:1035D00040E066E0C8010E941E1640E062E0C801BB
:1035E0000E941E168BE39FE10197F1F780919408EA
:1035F0009091950828E0FC01248760E00E94F21574
:1036000040E060E080919408909195080E94E60F58
:103610008091940890919508FC016681262F216085
:103620002683696040E00E941E166091C20870E027
:103630008AEC98E00E94DC0E8091C308863520F465
:103640008091C408853528F487E393E00E9499159A
:1036500006C065E570E08AEC98E00E94660E609115
:10366000C10870E089EC98E00E94DC0E8091C308EC
:103670008C3720F48091C4088B3728F487E393E0DB
:103680000E94991506C06BE770E089EC98E00E94F3
:10369000660E8091BD080E94C712892B81F010929E
:1036A0008608109287081092880810928908109254
:1036B000820810928308109284081092850838EBD3
:1036C000432E3EE1532E35E0632E3EE3732ECC2491
:1036D000C394D12C40918208509183086091840852
:1036E0007091850881EB98E00E944C0D409186080E
:1036F000509187086091880870918908705883EB11
:1037000098E00E944C0D0E94AC138230910519F490
:1037100010928A0873C084309105B9F410928A0817
:103720008DEC9CECACECBDE380938608909387080D
:10373000A0938808B0938908409282085092830829
:10374000609284087092850878C081309105B9F440
:1037500010928A08409286085092870860928808E2
:10376000709289088DEC9CECACECBDE380938208F0
:1037700090938308A0938408B09385085EC0079750
:1037800009F05BC080918A08811157C0F1E0F09385
:103790008A0880918B0890918C08019690938C08F0
:1037A00080938B0881309105B1F54DEC5CEC6CECAD
:1037B0007DE381EB98E00E944C0D4DEC5CEC6CECF1
:1037C0007DEB83EB98E00E944C0D6EE571E080E0AC
:1037D00090E00E94D71340E050E0BA0181EB98E0FE
:1037E0000E944C0D4DEC5CEC6CEC7DEB83EB98E0B7
:1037F0000E944C0D0E94AC130797E1F78DEC9CECF6
:10380000ACECBDE38093860890938708A09388086A
:10381000B0938908ABCF029781F440E050E0BA0141
:1038200081EB98E00E944C0D40E050E060E070E8D1
:1038300083EB98E00E944C0DFFCF0E94C8018230BC
:103840009105F1F48091870781110DC0809188075F
:103850009091890701968530910509F5D0928907E5
:10386000C092880757C18091020890910308019681
:1038700085309105F1F4D0920308C09202084AC144
:1038800081309105D9F48091870781110DC0809115
:10389000880790918907019711F484E090E0909354
:1038A00089078093880736C18091020890910308A8
:1038B000019790930308809302082CC1892B09F08B
:1038C0002BC180918807909189079C012150310973
:1038D0002330310528F48091870781110FC01CC166
:1038E000049761F480918707811108C0D0928907FD
:1038F000C092880791E0909387070CC180910208DD
:10390000909103088130910509F0ACC08091870740
:10391000882309F401C10E942D1080E00E94351611
:1039200064E573E0CE0101960E949C0ACE010196E7
:103930000E943218CE0101960E94970A0E94C80187
:10394000892BE1F78FE30E948D134C0181E40E94E3
:103950008D135C0182E40E948D131C010E942D10C6
:1039600080E00E94351661E873E0CE0101960E9466
:103970009C0ACE0101960E943218CE0101960E9447
:10398000970A0E94C801892BE1F78FE30E948D13EB
:103990007C0181E40E948D138C0182E40E948D13CE
:1039A00098878F83E80CF91CF7FE03C0EFEFEE1A3F
:1039B000FE0AB7017595679581E090E00E94EA20C4
:1039C0000A0D1B1D17FF02C00F5F1F4FB801759531
:1039D000679582E090E00E94EA208F819885280E0A
:1039E000391E37FE03C09FEF291A390AB1017595B8
:1039F000679583E090E00E94EA2081E090E00E94D9
:103A0000E22090E090937D0880937C0882E090E033
:103A10000E94E22090E090937F0880937E0883E0EC
:103A200090E00E94E22090E09093810880938008CB
:103A30000E942D1080E00E9435166FEA73E0CE01DF
:103A400001960E949C0ACE0101960E943218CE0176
:103A500001960E94970A6CED75E080E090E00E946C
:103A6000D71358C08230910509F048C0809187076C
:103A7000882309F451C00E942D1080E00E94351661
:103A800081E090E00E94E220682FCE0101960E9422
:103A90004511CE0101960E943218CE0101960E9476
:103AA000970A81E00E94351682E090E00E94E220B1
:103AB000682FCE0101960E944511CE0101960E9409
:103AC0003218CE0101960E94970A82E00E943516B4
:103AD00083E090E00E94E220682FCE0101960E94D0
:103AE0004511CE0101960E943218CE0101960E9426
:103AF000970A0E94C801892BE1F70CC0049761F472
:103B000080918707882341F0D0920308C092020871
:103B1000109287070E94111469E170E080E090E044
:103B20000E94D7130E94EC09D5CD8DE898E00C9443
:103B3000970A109298041092970488EE93E0A0E000
:103B4000B0E08093990490939A04A0939B04B0935F
:103B50009C042BE033E0309396042093950410925C
:103B6000A4041092A3048093A5049093A604A093A8
:103B7000A704B093A8042DE133E03093A20420936E
:103B8000A10445E351E05093AE044093AD0444E3F7
:103B900051E05093B0044093AF0440E351E05093A0
:103BA000B2044093B10441E351E05093B404409314
:103BB000B30442E351E05093B6044093B50446E3A6
:103BC00051E05093B8044093B7041092BA04109295
:103BD000BB041092BC041092BD04109241051092D7
:103BE00040058093420590934305A0934405B0930C
:103BF000450530933F0520933E0545ED50E0509339
:103C00004B0540934A0544ED50E050934D054093D9
:103C10004C0540ED50E050934F0540934E0541ED6B
:103C200050E0509351054093500542ED50E05093C1
:103C300053054093520546ED50E05093550540938F
:103C4000540510925705109258051092590510927C
:103C50005A051092DE051092DD058093DF059093E2
:103C6000E005A093E105B093E2053093DC052093D5
:103C7000DB0585EC90E09093E8058093E70584EC04
:103C800090E09093EA058093E90580EC90E09093B2
:103C9000EC058093EB0581EC90E09093EE0580932A
:103CA000ED0582EC90E09093F0058093EF0586ECB3
:103CB00090E09093F2058093F1051092F405109234
:103CC000F5051092F6051092F70580910F0290917C
:103CD0001002A0911102B09112028093B908909342
:103CE000BA08A093BB08B093BC08809113029091CE
:103CF0001402A0911502B09116028093BD08909312
:103D0000BE08A093BF08B093C00884E08093C108A8
:103D100087E08093C2081092C30884EB8093C408A4
:103D200086E18093C50888E18093C60887E1809387
:103D3000C70889E18093C808E0918607EC3020F03D
:103D40008FEF8093C90810C081E08E0F80938607A3
:103D5000E093C90825E0E29FF0011124E65BF84FEB
:103D600088EB9BE092838183E0918607EC3020F022
:103D70008FEF8093CA0810C081E08E0F8093860772
:103D8000E093CA0885E0E89FF0011124E65BF84F54
:103D900088EB9BE0928381838CE08093980884E297
:103DA0008093990886E080939A0885E080939B0829
:103DB0008FE180939C088EE180939D0883E280933D
:103DC0009E0882E280939F0885E48093A00884E4A3
:103DD0008093A10880E48093A4081092A90810920F
:103DE000AA081092AB081092AC081092AD0810927D
:103DF000AE081092AF081092B008E0EDF8E08FEF37
:103E00009FEFDC01128213821482158216821782C0
:103E10001086118683879487A587B6878787908BBE
:103E2000A18BB28B128611821082739629E0EE3834
:103E3000F20741F78DE090E00E94D022FC0113824E
:103E400012828FE293E091838083118687E28483DC
:103E500084E1828784E083871486F0939508E09359
:103E60009408109296081092970885E2809379063C
:103E700010927B066EEB73E08DE898E00E949C0A3E
:103E80001092870781E090E09093890780938807DC
:103E900028E7E7E1F2E0AAE8B7E001900D922A9561
:103EA000E1F7909303088093020888E7EFE8F2E0D7
:103EB000A4E0B8E001900D928A95E1F781E090E0EE
:103EC0000E94E22090E090937D0880937C0882E03D
:103ED00090E00E94E22090E090937F0880937E081B
:103EE00083E090E00E94E22090E09093810880932C
:103EF00080088DEC9CECACECBDE380938208909341
:103F00008308A0938408B0938508809386089093D3
:103F10008708A0938808B093890810928A081092A5
:103F20008C0810928B080895BB27FB015527AA2700
:103F3000880F991FAA1FA41710F0A41B8395505136
:103F4000B9F7A05DAA3308F0A95DA193009779F7AE
:103F5000B111B1931192CB010C94AE1FDC01FC01A5
:103F6000672F71917723E1F7329704C07C916D93AD
:103F700070836291AE17BF07C8F308950E940020B6
:103F800008F481E00895E89409C097FB3EF4909509
:103F90008095709561957F4F8F4F9F4F9923A9F022
:103FA000F92F96E9BB279395F695879577956795B1
:103FB000B795F111F8CFFAF4BB0F11F460FF1BC0F5
:103FC0006F5F7F4F8F4F9F4F16C0882311F096E988
:103FD00011C0772321F09EE8872F762F05C0662336
:103FE00071F096E8862F70E060E02AF09A95660FEF
:103FF000771F881FDAF7880F9695879597F90895A8
:10400000990F0008550FAA0BE0E8FEEF16161706E9
:10401000E807F907C0F012161306E407F50798F051
:10402000621B730B840B950B39F40A2661F0232B6A
:10403000242B252B21F408950A2609F4A140A695E6
:104040008FEF811D811D08950E9437200C94A820B8
:104050000E949A2038F00E94A12020F0952311F0B0
:104060000C9491200C94972011240C94DC200E9435
:10407000B92070F3959FC1F3950F50E0551F629FD3
:10408000F001729FBB27F00DB11D639FAA27F00DB1
:10409000B11DAA1F649F6627B00DA11D661F829FD8
:1040A0002227B00DA11D621F739FB00DA11D621FBD
:1040B000839FA00D611D221F749F3327A00D611DDA
:1040C000231F849F600D211D822F762F6A2F1124BC
:1040D0009F5750409AF0F1F088234AF0EE0FFF1FEF
:1040E000BB1F661F771F881F91505040A9F79E3F46
:1040F000510580F00C9491200C94DC205F3FE4F398
:10410000983ED4F3869577956795B795F795E7959B
:104110009F5FC1F7FE2B880F911D9695879597F9A4
:10412000089597F99F6780E870E060E008959FEF39
:1041300080EC089500240A9416161706180609063E
:10414000089500240A94121613061406050608950D
:10415000092E0394000C11F4882352F0BB0F40F495
:10416000BF2B11F460FF04C06F5F7F4F8F4F9F4FD5
:10417000089557FD9058440F551F59F05F3F71F057
:104180004795880F97FB991F61F09F3F79F08795BE
:104190000895121613061406551FF2CF4695F1DF47
:1041A00008C0161617061806991FF1CF86957105D7
:1041B000610508940895E894BB2766277727CB010B
:1041C00097F90895F999FECF92BD81BDF89A992784
:1041D00080B50895262FF999FECF1FBA92BD81BDF3
:1041E00020BD0FB6F894FA9AF99A0FBE0196089579
:1041F000052E97FB1EF400940E940F2157FD07D057
:104200000E942A2107FC03D04EF40C940F215095F4
:104210004095309521953F4F4F4F5F4F08959095B2
:104220008095709561957F4F8F4F9F4F08950E94A5
:104230004C21A59F900DB49F900DA49F800D911DC2
:1042400011240895B7FF0C9417210E941721821B97
:10425000930B0895A1E21A2EAA1BBB1BFD010DC0F2
:10426000AA1FBB1FEE1FFF1FA217B307E407F50726
:1042700020F0A21BB30BE40BF50B661F771F881F02
:10428000991F1A9469F760957095809590959B0198
:10429000AC01BD01CF010895A29FB001B39FC00141
:1042A000A39F700D811D1124911DB29F700D811D62
:1042B0001124911D0895DB018F939F930E94172174
:1042C000BF91AF91A29F800D911DA39F900DB29FB2
:1042D000900D11240895991B79E004C0991F961739
:1042E00008F0961B881F7A95C9F780950895EE0F00
:1042F000FF1F881F8BBF0790F691E02D19940F9335
:10430000083090F0982F872F762F652F542F432F4A
:10431000322F22270850F4CF220F331F441F551F7E
:10432000661F771F881F991F0A95B2F70F9108958E
:1043300097FB10F8169400080F93083098F0085077
:10434000232F342F452F562F672F782F892F902D0D
:10435000F4CF0594979587957795679557954795E9
:10436000379527950A95AAF70F9108955058BB27BE
:10437000AA270E94CE210C94A8200E949A2038F0EF
:104380000E94A12020F039F49F3F19F426F40C94E8
:1043900097200EF4E095E7FB0C949120E92F0E9402
:1043A000B92058F3BA17620773078407950720F0FE
:1043B00079F4A6F50C94DB200EF4E0950B2EBA2FC1
:1043C000A02D0B01B90190010C01CA01A00111241B
:1043D000FF27591B99F0593F50F4503E68F11A16C7
:1043E000F040A22F232F342F4427585FF3CF469558
:1043F00037952795A795F0405395C9F77EF41F167A
:10440000BA0B620B730B840BBAF09150A1F0FF0F43
:10441000BB1F661F771F881FC2F70EC0BA0F621F2F
:10442000731F841F48F4879577956795B795F7951F
:104430009E3F08F0B0CF9395880F08F09927EE0FB4
:104440009795879508950E9437220C94A8200E9482
:10445000A12058F00E949A2040F029F45F3F29F0F3
:104460000C94912051110C94DC200C9497200E9404
:10447000B92068F39923B1F3552391F3951B550B9C
:10448000BB27AA2762177307840738F09F5F5F4F27
:10449000220F331F441FAA1FA9F335D00E2E3AF066
:1044A000E0E832D091505040E695001CCAF72BD07E
:1044B000FE2F29D0660F771F881FBB1F26173707CF
:1044C0004807AB07B0E809F0BB0B802DBF01FF2701
:1044D00093585F4F3AF09E3F510578F00C9491202D
:1044E0000C94DC205F3FE4F3983ED4F386957795F7
:1044F0006795B795F7959F5FC9F7880F911D9695BA
:10450000879597F90895E1E0660F771F881FBB1F15
:10451000621773078407BA0720F0621B730B840BC2
:10452000BA0BEE1F88F7E09508950E949C226894CC
:10453000B1110C94DC2008950E94C12088F09F578F
:1045400098F0B92F9927B751B0F0E1F0660F771FB7
:10455000881F991F1AF0BA95C9F714C0B13091F0AD
:104560000E94DB20B1E008950C94DB20672F782FA8
:104570008827B85F39F0B93FCCF386957795679572
:10458000B395D9F73EF490958095709561957F4FDE
:104590008F4F9F4F08950E94002008F48FEF0895D9
:1045A0000F931F93CF93DF938230910510F482E035
:1045B00090E0E091A909F091AA0920E030E0A0E0A4
:1045C000B0E0309719F14081518102811381481781
:1045D0005907C8F08417950769F4109731F01296BF
:1045E0000C93129713961C9327C00093A90910935C
:1045F000AA0922C02115310519F04217530718F4F2
:104600009A01BD01EF01DF01F801DBCF2115310572
:10461000F9F0281B390B2430310580F48A819B8105
:104620006115710521F0FB019383828304C090938F
:10463000AA098093A909FE01329644C0FE01E20F47
:10464000F31F8193919322503109398328833AC013
:104650002091A7093091A809232B41F4209103024E
:10466000309104023093A8092093A70920910102F8
:10467000309102022115310541F42DB73EB740912A
:10468000050250910602241B350BE091A709F09119
:10469000A809E217F307A0F42E1B3F0B28173907D0
:1046A00078F0AC014E5F5F4F2417350748F04E0F8E
:1046B0005F1F5093A8094093A7098193919302C06B
:1046C000E0E0F0E0CF01DF91CF911F910F910895CD
:1046D000CF93DF93009709F481C0FC0132971382D6
:1046E0001282A091A909B091AA09109781F42081A2
:1046F0003181820F931F2091A7093091A8092817B3
:10470000390751F5F093A809E093A70967C0ED01B7
:1047100020E030E0CE17DF0740F44A815B819E0144
:1047200041155105F1F0EA01F5CFD383C2834081F1
:104730005181840F951FC817D90759F48881998131
:10474000840F951F0296918380838A819B81938336
:1047500082832115310529F4F093AA09E093A90970
:104760003DC0E901FB83EA8349915991C40FD51FEC
:10477000EC17FD0761F480819181840F951F0296EB
:10478000E90199838883828193819B838A83E0E016
:10479000F0E012968D919C911397009719F0FD010E
:1047A000DC01F7CF8D919C9111979D012E5F3F4FBA
:1047B000820F931F2091A7093091A8092817390764
:1047C00069F4309729F41092AA091092A90902C03D
:1047D00013821282B093A809A093A709DF91CF9109
:1047E00008956F927F928F929F92AF92BF92CF92D5
:1047F000DF92EF92FF920F931F93CF93DF93009777
:1048000089F4CB01DF91CF911F910F91FF90EF9031
:10481000DF90CF90BF90AF909F908F907F906F90E0
:104820000C94D022FC01E60FF71F9C0122503109A5
:10483000E217F30708F4A9C0EC01D9010D911C910E
:10484000119706171707B0F00530110508F49BC043
:10485000C80104978617970708F495C002501109FC
:10486000061B170B019311936D937C93CF010E944C
:10487000682389C05B01A01AB10A4C01800E911E09
:10488000A091A909B091AA09612C712CE12CF12CFD
:10489000109709F446C08D919C911197A815B90500
:1048A000B1F56C0142E0C40ED11CCA14DB0478F1EE
:1048B0004C018A189B08640142E0C40ED11C129678
:1048C000BC9012971396AC91B5E0CB16D10440F092
:1048D000B282A38391828082D9016D937C9309C0B7
:1048E0000E5F1F4F800F911FF90191838083EB2D85
:1048F000FA2FE114F10431F0D7011396FC93EE93F3
:10490000129741C0F093AA09E093A9093CC0681628
:10491000790608F43C017D0112960D90BC91A02D02
:10492000B7CF8091A7099091A80988169906E1F45C
:1049300066167706C8F480910102909102020097F2
:1049400041F48DB79EB74091050250910602841B39
:10495000950BE817F907C8F4F093A809E093A709A5
:10496000F901718360830FC0CB010E94D0227C01CA
:10497000009759F0A801BE010E94DB24CE010E94DD
:104980006823C70104C0CE0102C080E090E0DF913F
:10499000CF911F910F91FF90EF90DF90CF90BF903C
:1049A000AF909F908F907F906F90089581E090E0FE
:1049B000F8940C94EB24FB01DC0102C001900D92F1
:1049C00041505040D8F70895FB01DC0101900D9251
:1049D0000020E1F7089511E0C4E9D1E000E006C04D
:1049E000802FFE010E9477212196011DC539D10734
:0A49F00080E00807A9F7F894FFCF54
:1049FA00FF0000AB0980000000400014005400369C
:104A0A003738391B1D1A1C00000000000000000086
:104A1A000000000000000000000000427572676597
:104A2A0072000000000000000000000000000042C8
:104A3A0061636F6E20427572676572000000000044
:104A4A000000004368656573652042757267657288
:104A5A00000000000000005365747570000000003B
:104A6A00000000000000000000000000000000003C
:104A7A00000000000000000000000000000000002C
:104A8A00000000000000000000000000000000001C
:104A9A0000000043616C6962726174696F6E0000A4
:104AAA0000000000000000416666696368657220C4
:104ABA0076616C657572204D2E00004372656469DB
:104ACA007400000000000000000000000000005117
:104ADA0075697465720000000000000000000000A3
:104AEA0000000000000000000000000000000000BC
:104AFA000000000000000000000000C01093101920
:104B0A000A67108B1077106810000000007A09D32A
:104B1A0008FD08C7092E090C092009000000001E1B
:104B2A000AD308190AD208536572766F20616E6734
:104B3A006C65206973206F7574206F662072616ED0
:104B4A0067652100526F626F7420737572206E6FF1
:104B5A0069722C206170707569657220656E746562
:104B6A007220706F757220636F6E74696E756572EC
:104B7A0000526F626F742073757220626C616E638B
:104B8A002C206170707569657220656E746572207B
:104B9A00706F757220636F6E74696E756572004608
:104BAA00494E492121002020003E3E000D0A000006
:00000001FF
