:100000000C9491010C94C2010C94C2010C94C20195
:100010000C94C2010C94C2010C94C2010C94C20154
:100020000C94C2010C94E1140C94E1140C94E114AE
:100030000C94C2010C94120B0C94C2010C94C201DA
:100040000C94C2010C945A0F0C94C2010C94C2017E
:100050000C94C2010C94C2010C94C2010C94A11D19
:100060000C94C2010C94910C0C94670C0C94C2017A
:100070000C94C2010C94C2010C94C2010C94C201F4
:100080000C94C2010C94C2010C94C2010C94C201E4
:100090000C94C2010C94C2010C94C2010C94EB1498
:1000A0000C94C2010C94C2010C94C2010C94C201C4
:1000B0000C94C2010C94C2010C94C2010C94BB0CB0
:1000C0000C94C2010C94C2010C94C2010C943D0C1E
:1000D0000C94130C0C94C2010C94E90B0C94BF0B00
:1000E0000C94C201460E4B0E500E5A0E640EDD0EDD
:1000F0006E0E760E7E0E880E920E9C0EAB0EB50E18
:10010000DD0EBF0EC90ED30ED11CD41CC31CC71CE0
:10011000CD1C0B1DD81CDC1CE21CE61CEA1CF01CD0
:10012000F41CF81C0B1DFE1C021D061D0C94891EE0
:100130000C94C90E0C94500E0C94920E0C946E0EEE
:100140000C9423090C94D41C0C94DC1C0C946012A9
:100150000C9414090C943B120C94BF0E0C9458127E
:100160000C94B50E0C9490120C945A0E0C94F01C36
:100170000C944B0E0C94D30E0C94F41C0C94D008DD
:100180000C94DD0E0C94CD1C0C94C31C0C94D11C4F
:100190000C94D7090C943A120C94E61C0C94EA1CAB
:1001A0000C942A0A0C947E0E0C94FE1C0C940C24C5
:1001B0000C94880E0C9437090C94C71C0C940B1DDE
:1001C0000C9449120C94F81C0C94AB0E0C94D81C93
:1001D0000C94640E0C94061D0C9445090C94290A89
:1001E0000C94E21C0C94760E0C94460E0C94C510E4
:1001F0000C9490090C949C0E0C94021D000020009D
:100200002300260029002C002F00320000010000EE
:100210000301060109010200002200250028002B2D
:10022000002E003100340002010000050108010B1E
:100230000105050505070508080808020202020A6B
:100240000A08080404040401010101010101010379
:1002500003030303030303040707070C0C0C0C0C34
:100260000C0C0C0202020206060606060606060B27
:100270000B0B0B0B0B0B0B0102102020080810209E
:100280004010204080020102010804020101020422
:1002900008102040808040201008040201800402E1
:1002A0000180402010080402010804020101020438
:1002B0000810204080010204081020408000000A3D
:1002C0000B02090C0D0E08070304010000000000DA
:1002D000000000000000000000000000000000001E
:1002E00000000000000000000012111000000000DB
:1002F00000000000000000000000000000000000FE
:1003000000000000002100240027002A002D0030FA
:1003100000330001010000040107010A01000C2460
:10032000891E11241FBECFEFD1E2DEBFCDBF00E09A
:100330000CBF13E0A0E0B2E0E6E2F8E500E00BBF9E
:1003400002C007900D92A03EB107D9F729E0A0EEB8
:10035000B3E001C01D92AE3AB207E1F711E0C0E987
:10036000D1E000E006C021970109802FFE010E9424
:100370001128CF38D10780E00807A9F70E948D1E09
:100380000C94012C0C9400002F923F924F925F929C
:100390006F927F928F929F92AF92BF92CF92DF9295
:1003A000EF92FF920F931F93CF93DF9300D000D073
:1003B000CDB7DEB782E996E09093A3048093A204C0
:1003C00080918F0690E09093A5048093A40480917F
:1003D0005C0790E09093A7048093A60480918B061D
:1003E000853009F0BBC3809194069091950688589A
:1003F00091098D35910588F480918F06843041F400
:1004000080919606909197068097479708F4FFC1D0
:1004100080918F06843408F0E1C180918F068A3183
:1004200008F454C08091920690919306843F9140C5
:1004300080F41092A1041092A0048FEF9FEFDC01D2
:1004400080939C0490939D04A0939E04B0939F047A
:100450005BC0809194069091950685974B97B0F577
:10046000E8E9F6E082E090E040E050E0BA018C017B
:100470000F5F1F4F20918F0630E0021713076CF4B7
:100480009F0122503109D9012D913C91275031090A
:100490002730310508F4F3C1C80101979595879578
:1004A0009093A1048093A0040C972CF41092A104C3
:1004B0001092A0040BC040939C0450939D04609341
:1004C0009E0470939F0484E090E0F9C280918F06AF
:1004D0008A3108F44DC08091920690919306803243
:1004E000934008F4A6CF8091940690919506C69704
:1004F000869708F4E0C13CC040939C0450939D044F
:1005000060939E0470939F048BE090E0D8C220819A
:100510003181255231092B31310508F0DCC1440FFE
:10052000551F661F771F4160029634968C010F5F3E
:100530001F4F20918F0630E00217130764F49F01CC
:1005400022503109D9012D913C912C5031092B3089
:100550003105E8F2C8010197959587959093A1041C
:100560008093A0040C9744F61092A1041092A0046A
:1005700080918F06823208F44AC08091940690914F
:1005800095060697079708F042C0E8E9F6E022E0F2
:1005900030E040E050E0BA01C9010196A0918F0619
:1005A000B0E08A179B07CCF4DF0112970D911C91E4
:1005B00011970E5111090731110508F099C1440F27
:1005C000551F661F771F4160A081B1813496139734
:1005D000159720F42E5F3F4FDFCFC9010197959506
:1005E00087959093A1048093A00440972CF41092D7
:1005F000A1041092A0040BC040939C0450939D044E
:1006000060939E0470939F048CE090E058C21C821B
:100610001B8281E090E09A83898380918F068D30E0
:1006200008F46BC049E753E0BE016D5F7F4FCE0118
:1006300001960E944F1A892B09F05FC049E753E0E9
:10064000BE016D5F7F4FCE0101960E944F1A019748
:1006500009F053C049E753E0BE016D5F7F4FCE0103
:1006600001960E944F1A892B09F047C0C12CD12C4A
:10067000760100E010E080918F0690E029813A81B8
:10068000281739075CF549E753E0BE016D5F7F4FDE
:10069000CE0101960E944F1A5C0149E753E0BE016A
:1006A0006D5F7F4FCE0101960E944F1AB1E0AB16ED
:1006B000B10449F4892B09F5CC0CDD1CEE1CFF1CA0
:1006C0006894C0F808C0AB28C1F40197B1F4CC0C11
:1006D000DD1CEE1CFF1C0F5F1F4FCDCF1093A1043C
:1006E0000093A004C0929C04D0929D04E0929E04CA
:1006F000F0929F0481E090E0E2C11C821B8281E0C5
:1007000090E09A8389838091A4049091A50418169F
:1007100019060CF058C0E091A204F091A30482E005
:1007200090E09A8389838281938189974E9708F01C
:100730004AC083E090E09A838983848195810B97F6
:100740000A9708F040C04CEB51E0BE016D5F7F4F4F
:10075000CE0101960E944F1A892BA9F54CEB51E06E
:10076000BE016D5F7F4FCE0101960E944F1A019727
:1007700051F5C12CD12C760100E010E029813A819D
:100780008091A4049091A504281739070CF0F2C0B9
:100790004CEB51E0BE016D5F7F4FCE0101960E9490
:1007A0004F1A4C010330110509F0AEC04CEB51E07B
:1007B000BE016D5F7F4FCE0101960E944F1A8816D1
:1007C000990609F4A1C0E091A204F091A3048281EA
:1007D0009381C697869708F4DCC0CFC180919606B6
:1007E00090919706825491098E9708F016CE20E0DA
:1007F00030E080E090E0DC01F901E856F94F4081FB
:100800005181495051094930510588F006CE8091F7
:100810009806909199060997099708F0F9CD1092DA
:10082000A1041092A0048FEF9FEFDC019BC1F9019E
:10083000E656F94F408151814751510942315105E6
:1008400088F4880F991FAA1FBB1F81602C5F3F4F40
:100850002038310589F620E230E03093A10420935E
:10086000A00480C140815181465051094730510553
:1008700008F0D3CD880F991FAA1FBB1FE7CF208197
:100880003181235131092F30310540F4440F551F78
:10089000661F771F416002963496E9CD2081318131
:1008A0002A5031092930310508F010CE440F551F68
:1008B000661F771FF0CF8091960690919706C69796
:1008C000869708F055CEEAE9F6E083E090E040E054
:1008D00050E0BA012BCE208131812C5031092A30D1
:1008E000310508F045CE440F551F661F771F1CCEFB
:1008F0000D90BC91A02D1C971B9708F088CE440F3B
:10090000551F661F771F60CE4CEB51E0BE016D5F37
:100910007F4FCE0101960E944F1A5C0103301105F2
:1009200069F44CEB51E0BE016D5F7F4FCE01019643
:100930000E944F1AA816B90609F045CF81149104F8
:1009400059F4AA94AB2809F03ECFCC0CDD1CEE1C68
:10095000FF1C6894C0F80BC08A94892809F033CF33
:10096000AB2809F030CFCC0CDD1CEE1CFF1C0F5F58
:100970001F4F04CF1093A1040093A004C0929C04C5
:10098000D0929D04E0929E04F0929F0482E090E059
:1009900096C0848195814B97459708F0EEC0DF01A2
:1009A00016967F0126ECE20EF11C20E030E040E0DC
:1009B00050E060E070E080E090E00D911C911197B4
:1009C000095011090830110508F0D7C012960D9191
:1009D0001C911397015111090D30110520F501E00B
:1009E0000E94192821601496AE15BF0531F7209397
:1009F0009C0430939D0440939E0450939F0400E216
:100A00000E94342820939A0430939B0485E090E060
:100A1000909399048093980480E390E09093A104CC
:100A20008093A00450C012960D911C91139704500E
:100A300011090530110508F0A0C001E00E94192835
:100A4000D2CF980122503109D9012D913C912950E2
:100A500031092830310508F03EC1BC016F5F7F4F7E
:100A6000D8012D913C91275031092730310508F0EC
:100A70002FC3440F551F416002960C5F1F4F2091FA
:100A80008F0630E02450310982179307D4F2019782
:100A9000959587959093A1048093A0048A970CF470
:100AA0001AC1052E000C660B770B40939C045093E3
:100AB0009D0460939E0470939F0489E090E090935E
:100AC00099048093980482E080938B0610928F069D
:100AD00040919C0450919D0460919E0470919F04EC
:100AE000463CBFEC5B07B4E06B07B6E67B0771F1F1
:100AF0004A3FFFEC5F07F4E06F07F6E67F07E9F097
:100B0000463D2FEC520724E0620726E67207C1F04B
:100B1000463E8FEC580784E0680786E6780799F030
:100B200081E090E0463F5F4C6440764611F480E0FF
:100B300090E091958195910919C382E090E016C3E8
:100B400083E090E013C384E090E010C381E090E084
:100B50000DC382E080938B0610928F0640E050E038
:100B6000BA01DECF80939C0490939D04A0939E04D1
:100B7000B0939F0483E090E0A2CF80918F068933E9
:100B800070F182819381895791098335910508F429
:100B900040C125C0D90112966D917C911397665181
:100BA00071096131710508F060C1D701C601880F74
:100BB000991FAA1FBB1F6C017D016894C0F84E5F8E
:100BC0005F4F2C5F3F4F4B33510509F431C1D901C1
:100BD0006D917C916A50710969307105D8F28091EC
:100BE0008F06823231F4828193810A97099708F443
:100BF0004CC1828193818957910983359105D0F445
:100C000080918F068132B0F084819581CA9789974F
:100C100088F49F012A5F3F4FC12CD12C760143E01D
:100C200050E0D9016D917C916A507109693071056C
:100C300008F44AC1828193818C549109C59778F454
:100C400080918F06843031F4848195818097479715
:100C500008F499C180918F06843408F07BC180919B
:100C60008F06863460F1828193810C970B9708F48C
:100C7000D8C125C0D90112966D917C9113976E5100
:100C800071096731710508F004C2D701C601880FE8
:100C9000991FAA1FBB1F6C017D016894C0F84E5FAD
:100CA0005F4F2C5F3F4F4534510509F4D5C1D90141
:100CB0006D917C916C5071096B307105D8F2809107
:100CC0008F06883540F082819381855891098B3554
:100CD000910508F4EEC180918F068032E1F48281A3
:100CE000938106970697B8F48481958109970997AF
:100CF00090F49F012A5F3F4FBF01625C7F4FC12C80
:100D0000D12C7601D9014D915C9146505109463064
:100D1000510508F4EAC18091A4049091A5049E8332
:100D20008D8306970CF415CF8F010A5F1F4F73E078
:100D3000272E312CE5ECCE2EEDE9DE2EECE1EE2E69
:100D4000E1E8FE2ED8016D917C91F8013497A080E6
:100D5000B18080E090E00E9451262B013C01B5015A
:100D600080E090E00E9451264B015C012DEC3CECB0
:100D70004CE45FE30E94B2269B01AC01C301B201C7
:100D80000E944C2687FD17C02DEC3CEC4CE45FE341
:100D9000C301B2010E94B2269B01AC01C501B4019E
:100DA0000E944C26E82F880FFF0BEE27FF0FEE1F47
:100DB000FF27319602C0E0E0F0E0A701960163E969
:100DC00071E080E091E00E94E1276F01FF0FEE08E3
:100DD000FF08C626D726E826F926BFEF2B1A3B0ABE
:100DE0000E5F1F4FED81FE812E163F0609F0AACF40
:100DF000C0929C04D0929D04E0929E04F0929F04C5
:100E000080E290E09093A1048093A0048FEF9FEF85
:100E100056CE84819581CA97899708F0E0CE9F01CC
:100E20002A5F3F4FC12CD12C760143E050E0CFCE5A
:100E30009F012A583F4FD9012D913C912A503109E9
:100E40002930310508F0CBCE2CE130E03093A104FD
:100E50002093A004C0929C04D0929D04E0929E0432
:100E6000F0929F048AE090E02ACED90112966D910B
:100E70007C911397665071096730710508F0AFCE09
:100E8000CC0CDD1CEE1CFF1C9ACE20918F06CF01EE
:100E9000820F911D820F911DDC0112978D919C9103
:100EA0000A97099708F0A5CE1092A1041092A00409
:100EB0008FEF9FEFDC0180939C0490939D04A0939F
:100EC0009E04B0939F044CC1D90112966D917C9100
:100ED0001397665171096131710588F112966D9110
:100EE0007C911397665071096730710508F0A2CEA6
:100EF000CC0CDD1CEE1CFF1C4E5F5F4F2C5F3F4F88
:100F00004332510509F08DCE9F012A5B3F4FD90135
:100F10002D913C912A5031092930310508F08ACEB3
:100F200020E130E03093A1042093A004C0929C04FF
:100F3000D0929D04E0929E04F0929F0411C1D701CB
:100F4000C601880F991FAA1FBB1F6C017D01689401
:100F5000C0F8D2CF8481958189549109C39708F054
:100F60007ECE9F012A5F3F4FBF016A577F4FC12C42
:100F7000D12C7601D9014D915C91495051094930EC
:100F80005105B8F06CCE868197810997099708F0D2
:100F900061CE1092A1041092A0048FEF9FEFDC01AC
:100FA00080939C0490939D04A0939E04B0939F040F
:100FB000DAC0D90112964D915C91139746515109AF
:100FC00041315105F0F4D701C601880F991FAA1FBE
:100FD000BB1F6C017D016894C0F82C5F3F4F261742
:100FE000370741F620E230E03093A1042093A004BB
:100FF000C0929C04D0929D04E0929E04F0929F04C3
:10100000B2C0D90112964D915C9113974650510987
:101010004730510508F023CECC0CDD1CEE1CFF1C24
:10102000DCCF848195810997099708F048CE8681A5
:1010300097818C974F9708F042CE8085918589974C
:101040004D9708F03CCE9F01265F3F4FC12CD12C1D
:10105000760145E050E02BCE9F0126573F4FD90146
:101060002D913C912C5031092B30310508F027CEC1
:1010700020E230E03093A1042093A004C0929C04AD
:10108000D0929D04E0929E04F0929F0488E090E04C
:1010900016CDD90112966D917C9113976950710903
:1010A0006930710508F00BCECC0CDD1CEE1CFF1C6A
:1010B000F6CD84819581825491098E9708F00BCEEC
:1010C0008F01045C1F4F8DE190E040E050E0D7CCF1
:1010D000D8012D913C91285131092231310510F070
:1010E000CB01D5CC440F551FC7CCD90112964D91D9
:1010F0005C911397495151094331510508F5D701C6
:10110000C601880F991FAA1FBB1F6C017D0168943F
:10111000C0F82C5F3F4F2617370709F0F3CD2EE0BC
:1011200030E03093A1042093A004C0929C04D0929C
:101130009D04E0929E04F0929F048FE090E0BFCC6B
:10114000D90112964D915C9113974950510949303C
:10115000510508F0E0CDCC0CDD1CEE1CFF1CD9CFF6
:1011600086E090E0ACCC87E090E0A9CC26960FB664
:10117000F894DEBF0FBECDBFDF91CF911F910F91CD
:10118000FF90EF90DF90CF90BF90AF909F908F90A7
:101190007F906F905F904F903F902F9008950895AB
:1011A000CF92DF92EF92FF920F931F93CF93DF9333
:1011B0006C017A018B01C0E0D0E0CE15DF0589F02B
:1011C000D8016D918D01D601ED91FC910190F081D6
:1011D000E02DC6011995892B11F47E0102C02196DC
:1011E000ECCFC701DF91CF911F910F91FF90EF904E
:1011F000DF90CF900895FC01A089B1898C91A689D8
:10120000B78982FD0FC09C91818D8F5F8F73228D76
:10121000821749F0218DDF01A20FB11D5D969C93CD
:10122000818F08958C910895FC01538D448D252F55
:1012300030E0842F90E0821B930B541710F0CF9670
:10124000089501970895FC01918D828D981761F0A2
:10125000828DDF01A80FB11D5D968C91928D9F5FED
:101260009F73928F90E008958FEF9FEF0895FC0198
:10127000918D828D981731F0828DE80FF11D858D4B
:1012800090E008958FEF9FEF0895FC01918D228DDE
:10129000892F90E0805C9F4F821B91098F73992763
:1012A000089584EB94E00E94450921E0892B09F41C
:1012B00020E0822F089581E595E00E94450921E014
:1012C000892B09F420E0822F08958EEE95E00E948C
:1012D000450921E0892B09F420E0822F0895FC01C3
:1012E000848DDF01A80FB11DA35ABF4F2C91848DAF
:1012F00090E001968F739927848FA689B7892C93E4
:10130000A089B1898C9180648C93938D848D98137E
:1013100006C00288F389E02D80818F7D8083089547
:10132000EF92FF920F931F93CF93DF93EC0181E035
:10133000888F9B8D8C8D981305C0E889F9898081F1
:1013400085FD24C0F62E0B8D10E00F5F1F4F0F732D
:101350001127E02E8C8DE8120CC00FB607FCFACFD7
:10136000E889F989808185FFF5CFCE010E946F0958
:10137000F1CF8B8DFE01E80FF11DE35AFF4FF08294
:101380000B8FEA89FB898081806207C0EE89FF8923
:101390006083E889F98980818064808381E090E0BE
:1013A000DF91CF911F910F91FF90EF900895CF9310
:1013B000DF93EC01888D8823C9F0EA89FB8980815D
:1013C00085FD05C0A889B9898C9186FD0FC00FB62F
:1013D00007FCF5CF808185FFF2CFA889B9898C9170
:1013E00085FFEDCFCE010E946F09E7CFDF91CF914E
:1013F0000895E0E0F0E0199480E090E0892B21F07E
:101400000E946509811119C080E090E0892B41F0AC
:1014100080E090E0892B21F00E940000811110C033
:101420000E945B0981110FC080E090E0892B81F060
:101430000E94510981110AC008950E940000E4CF62
:101440000E940000EDCF0E94F909EECF0C9400003D
:101450000895089580E090E008950F931F93CF932F
:10146000DF938C01EB01FC01808191810097B1F049
:10147000688179816115710579F0428153812C81F0
:101480003D814217530740F00E94FA2B8C819D81C9
:10149000F8019583848313C00E946B2A8881998107
:1014A000F801918380838A819B81938382838C81DD
:1014B0009D8195838483198218821B821A821D82E2
:1014C0001C82DF91CF911F910F9108950F931F936D
:1014D000CF93DF93EC0188819981009729F02A81CD
:1014E0003B812617370788F48B016F5F7F4F0E947F
:1014F000032B009761F0998388831B830A832C81D7
:101500003D81232B11F4FC01108281E001C080E0B9
:10151000DF91CF911F910F910895CF93DF93EC014D
:1015200088819981009711F00E946B2A1982188294
:101530001D821C821B821A82DF91CF910895EF9247
:10154000FF920F931F93CF93DF93EC017B018A01EE
:10155000BA010E94660A811104C0CE010E948D0A60
:1015600007C01D830C83B701888199810E94FA2BE3
:10157000CE01DF91CF911F910F91FF90EF900895D1
:10158000FC01808191810C946B2AEF92FF920F9362
:101590001F93CF93DF93CDB7DEB762970FB6F89462
:1015A000DEBF0FBECDBF8C01CB01F80111821082CE
:1015B000138212821582148250E09E012F5F3F4FEA
:1015C0007901B9010E940C26F70101900020E9F78A
:1015D0003197AF014E195F09B701C8010E949F0AF8
:1015E00062960FB6F894DEBF0FBECDBFDF91CF91EC
:1015F0001F910F91FF90EF900895FC0111821082CE
:1016000013821282158214826115710551F0FB015B
:1016100001900020E9F73197AF01461B570B0C945E
:101620009F0A08951F920F920FB60F9211240BB6C6
:101630000F922F933F934F935F936F937F938F936B
:101640009F93AF93BF93EF93FF938091FD0390918E
:10165000FE03A091FF03B0910004892B8A2B8B2BF2
:1016600059F18091FC03E091FA03F091FB03908122
:10167000892780838091FD039091FE03A091FF0351
:10168000B0910004181619061A061B060CF056C075
:101690008091FD039091FE03A091FF03B09100049F
:1016A0000197A109B1098093FD039093FE03A093D4
:1016B000FF03B093000442C080910002E6E1F2E033
:1016C000E4919FEF90930002E230C9F050F4EE23D2
:1016D00099F0E13081F590916F009D7F90936F00BC
:1016E0002AC0E43019F1E0F0E53029F5909173005B
:1016F0009D7F909373001FC010926E001CC090914C
:1017000070009D7F9093700091E09093B000909155
:10171000B100987F94609093B1001092B3000BC019
:10172000909171009D7F9093710005C0909172001F
:101730009D7F9093720060E00E941D16FF91EF91D3
:10174000BF91AF919F918F917F916F915F914F91D9
:101750003F912F910F900BBE0F900FBE0F901F90D7
:101760001895DC01ED91FC91DB0114964D915C9193
:1017700015976D917C910280F381E02D19941F9251
:101780000F920FB60F9211240BB60F922F933F9327
:101790004F935F936F937F938F939F93AF93BF9379
:1017A000EF93FF9384EB94E00E946F09FF91EF9118
:1017B000BF91AF919F918F917F916F915F914F9169
:1017C0003F912F910F900BBE0F900FBE0F901F9067
:1017D00018951F920F920FB60F9211240BB60F920D
:1017E0002F933F934F935F936F937F938F939F9329
:1017F000AF93BF93EF93FF9384EB94E00E94FB08B9
:10180000FF91EF91BF91AF919F918F917F916F91D8
:101810005F914F913F912F910F900BBE0F900FBE94
:101820000F901F9018951F920F920FB60F921124D0
:101830000BB60F922F933F934F935F936F937F93CA
:101840008F939F93AF93BF93EF93FF9381E595E0C1
:101850000E946F09FF91EF91BF91AF919F918F917E
:101860007F916F915F914F913F912F910F900BBEA0
:101870000F900FBE0F901F9018951F920F920FB6EA
:101880000F9211240BB60F922F933F934F935F93B8
:101890006F937F938F939F93AF93BF93EF93FF9338
:1018A00081E595E00E94FB08FF91EF91BF91AF9118
:1018B0009F918F917F916F915F914F913F912F9168
:1018C0000F900BBE0F900FBE0F901F9018951F9298
:1018D0000F920FB60F9211240BB60F922F933F93D6
:1018E0004F935F936F937F938F939F93AF93BF9328
:1018F000EF93FF938EEE95E00E946F09FF91EF91B9
:10190000BF91AF919F918F917F916F915F914F9117
:101910003F912F910F900BBE0F900FBE0F901F9015
:1019200018951F920F920FB60F9211240BB60F92BB
:101930002F933F934F935F936F937F938F939F93D7
:10194000AF93BF93EF93FF938EEE95E00E94FB0859
:10195000FF91EF91BF91AF919F918F917F916F9187
:101960005F914F913F912F910F900BBE0F900FBE43
:101970000F901F9018951F920F920FB60F9211247F
:101980000BB60F922F933F934F935F936F937F9379
:101990008F939F93AF93BF93CF93DF93EF93FF9377
:1019A00020918C0630E0F901E354FD4F8491F90158
:1019B000E958FD4FD491F901EF5CFD4FC491CC2360
:1019C000A1F081110E94B61CEC2FF0E0EE0FFF1F7A
:1019D000E450FE4FA591B491EC91ED2331E020E06D
:1019E00009F430E0832F922F02C080E090E0209134
:1019F0009006309191062F5F3F4F309391062093D0
:101A0000900620918F06253618F026E020938B064D
:101A100020918B062430D9F128F4223069F023304C
:101A2000D9F060C0253009F453C0263009F05AC0FF
:101A300021E020935C0753C0009709F053C0209128
:101A40009006309191062436310508F443C0109277
:101A50005C0710928F061DC08130910509F042C0CD
:101A6000E0918F0621E02E0F20938F06F0E0209169
:101A7000900630919106EE0FFF1FE557F94F308722
:101A80002783109291061092900624E029C00097B7
:101A9000B9F4E0918F0621E02E0F20938F06F0E03D
:101AA0002091900630919106EE0FFF1FE557F94FF8
:101AB00030872783109291061092900623E010C081
:101AC00020919006309191062536310558F007C0D7
:101AD000009741F4109291061092900603C025E001
:101AE00020938B0620918E062223B9F0892B51F486
:101AF00080918D06882321F080918D0661E009C0D8
:101B00002F9A0BC080918D06882331F080918D062D
:101B100060E00E941D1601C02F98FF91EF91DF91A8
:101B2000CF91BF91AF919F918F917F916F915F9175
:101B30004F913F912F910F900BBE0F900FBE0F90C2
:101B40001F901895CF92DF92EF92FF92CF93DF9381
:101B5000EC01072E000C880B990B0E9453266B0199
:101B60007C0120E030E040E45FE30E94B22620E008
:101B700030E048E452E40E94D1280E944329C6176D
:101B8000D707D4F020E030E040EA5FE3C701B601B8
:101B90000E94B22620E030E048E452E40E94D128BE
:101BA00020E030E040E85FE30E9465280E9443297E
:101BB00021E06C177D070CF420E0822F90E0DF918C
:101BC000CF91FF90EF90DF90CF9008958F929F92EA
:101BD000AF92BF92CF92DF92EF92FF920F931F933B
:101BE000CF93DF93EC016A017B0120E030E04FE707
:101BF00053E4C701B6010E94B2264B015C0120E00C
:101C000030E0A9010E94D12918161CF4C501B401C5
:101C100003C0C501B40190580E9443298B0120E004
:101C200030E0A901C701B6010E94D129181614F4A9
:101C300060E001C061E089810E941D160F3F11051F
:101C400009F014F4112702C00FEF10E0C88161E021
:101C50008C2F0E940C1D0115110509F4B1C00F3F16
:101C6000110509F4AFC0EC2FF0E0E354FD4FE4910F
:101C70004E2F50E0FA013197E231F10508F09DC096
:101C80008827EE58FF4F8F4F0C94112884B5806839
:101C900084BD07BDA7C084B5806284BD08BDA2C055
:101CA0008091800080688093800010938900009369
:101CB000880098C08091800080628093800010939B
:101CC0008B0000938A008EC0809180008860809392
:101CD000800010938D0000938C0084C08091B00030
:101CE00080688093B0000093B3007CC08091B00006
:101CF00080628093B0000093B40074C08091900023
:101D000080688093900010939900009398006AC0B7
:101D10008091900080628093900010939B000093CC
:101D20009A0060C08091900088608093900010932A
:101D30009D0000939C0056C08091A0008068809315
:101D4000A0008091A0008F7B8093A0001093A90039
:101D50000093A80047C08091A00080628093A000FB
:101D60001093AB000093AA003DC08091A000886052
:101D70008093A0001093AD000093AC0033C080911D
:101D8000200180688093200110932901009328018D
:101D900029C08091200180628093200110932B0143
:101DA00000932A011FC08091200188608093200148
:101DB00010932D0100932C0115C00038110514F467
:101DC00060E001C061E08C2FDF91CF911F910F91F6
:101DD000FF90EF90DF90CF90BF90AF909F908F904B
:101DE0000C941D16DF91CF911F910F91FF90EF90F2
:101DF000DF90CF90BF90AF909F908F9008951F93EA
:101E0000CF93DF93EC01162F88818C3008F04DC002
:101E100061E0812F0E940C1DE88195E09E9FF001FA
:101E20001124E35AF84F1F738081807C182B108394
:101E30001382E8819E9FF0011124E35AF84F148227
:101E400088816CE00E94F1279CE0899FA001112409
:101E500020E030E095E0B901640F751F969FF00116
:101E6000979FF00D1124E35AF84F608166FD13C06F
:101E70002F5F3F4F2C30310571F781110CC010924C
:101E8000800082E08093810010928500109284008F
:101E900086BB80936F00E88185E0E89FF001112404
:101EA000E35AF84F8081806480838881DF91CF91ED
:101EB0001F9108951F920F920FB60F9211240BB627
:101EC0000F922F933F934F935F936F937F938F93D3
:101ED0009F93AF93BF93EF93FF938091F90387FF95
:101EE00005C0109285001092840016C02091F9035D
:101EF000022E000C330B8091990790E028173907C8
:101F00005CF43091F90325E03203F0011124E35A27
:101F1000F84F808186FD15C08091F9038F5F809313
:101F2000F9032091F903022E000C330B80919907DD
:101F300090E02817390794F48091F9038C302CF144
:101F40000DC03091F9033203F0011124E35AF84F28
:101F5000808160E08F730E941D16DECF8091840027
:101F60009091850084349C4918F480E49CE905C074
:101F700080918400909185000496909389008093CD
:101F800088008FEF8093F9032AC04091840050911C
:101F900085003091F90325E03203F0011124E35A62
:101FA000F84F81819281840F951F909389008093CF
:101FB00088003091F9033203F0011124E35AF84FFD
:101FC000808186FF0CC03091F9033203F0011124A7
:101FD000E35AF84F808161E08F730E941D16FF91D4
:101FE000EF91BF91AF919F918F917F916F915F9191
:101FF0004F913F912F910F900BBE0F900FBE0F90FE
:102000001F9018958EBD00000DB407FEFDCF8EB554
:102010000895CF93DF93EC0160E088810E941D1644
:1020200088E90E94021080E00E94021080E00E9475
:10203000021080E00E94021080E00E94021061E025
:1020400088810E941D168BE891E00197F1F760E00E
:1020500088810E941D1680EE0E94021061E0888136
:10206000DF91CF910C941D16AF92BF92CF92DF9269
:10207000EF92FF920F931F93CF93DF93CDB7DEB70D
:1020800060970FB6F894DEBF0FBECDBF5C0160E075
:10209000FC0180810E941D1680E60E9402108E01C4
:1020A0000F5F1F4F7E01F1E1EF0EF11C680180E030
:1020B0000E94021090E0A0E0B0E0F60181939193BD
:1020C000A193B1936F01EE15FF0589F761E0F5016A
:1020D00080810E941D1680E090E0DC01F8014191B2
:1020E0005191619171918F01BA2FA92F982F882753
:1020F000840F951FA61FB71FEE15FF0579F79C01EA
:10210000AD0166277727CB01621B730B840B950B00
:1021100060960FB6F894DEBF0FBECDBFDF91CF91B2
:102120001F910F91FF90EF90DF90CF90BF90AF90F5
:102130000895FC01248131E03093740420939604C7
:1021400010927504109297048485682B88EA94E0B5
:102150000E9490120C940D1B0F931F93CF938C0130
:10216000C62F0E9499106C2F6460C8010E949910BC
:102170006C2F6B7FC8010E94991083EC90E001974F
:10218000F1F7CF911F910F9108950F931F93CF9364
:102190008C01C62F607F61600E94AC1080E1C89FF7
:1021A000B00111246160C8010E94AC1081E090E090
:1021B000CF911F910F9108950F931F93CF938C018F
:1021C000C62F607F0E94AC1080E1C89FB00111242F
:1021D000C801CF911F910F910C94AC10CF93DF9356
:1021E000CDB7DEB728970FB6F894DEBF0FBECDBFD0
:1021F0009C0188E0E7E0F2E0DE01119601900D928B
:102200008A95E1F7F9018085841710F44FEF480FA4
:10221000FE013196E40FF11DE40FF11D9081690F6D
:102220006068C90128960FB6F894DEBF0FBECDBF17
:10223000DF91CF910C94DC10CF93DF93EC0161E040
:102240000E94DC108BE39FE10197F1F789858823D9
:1022500039F040E060E0CE01DF91CF910C94EE10B8
:10226000DF91CF91089565E581E00C94EB1DCF934C
:10227000C82F6091930970E08BE999E00E94FF0EEE
:10228000CC2311F067E701C060E080E0CF910C94AF
:10229000EB1D8091A8089091A9080C941C11CF9374
:1022A000DF9300D000D0CDB7DEB71A8219821C822E
:1022B0001B821E821D82FC01608171816115710586
:1022C00031F044815581CE0101960E949F0ACE01D2
:1022D00001960E94BC1BCE0101960E94C00A269660
:1022E0000FB6F894DEBF0FBECDBFDF91CF9108953A
:1022F000823020F08FE293E00C94EB1A90E0880F8C
:10230000991F8957964F0C940910823040F08FE244
:1023100093E00E94EB1A60E070E0CB010895811118
:102320000CC087E899E00E943410909580957095D4
:1023300061957F4F8F4F9F4F089589E899E00C94E6
:102340003410823020F083E493E00C94EB1A813057
:1023500009F4705890E0880F991F8D57964F0C9490
:10236000E60D0E94EC2BBF92CF92DF92EF92FF928C
:102370000F931F93CF93DF937C016B01EA018901D7
:102380002417350720F48D2FE901042F182F60EB57
:1023900073E0C7010E94FD0AD60114968D919C91AD
:1023A0001597C817D90748F58017910708F48C01CD
:1023B000D601ED91FC911197E00FF11FB0801082D2
:1023C0004D915C91BA016C0F7D1F6115710561F033
:1023D000FB0101900020E9F73197AF01461B570B35
:1023E000C7010E949F0A03C0C7010E948D0AD6013F
:1023F000ED91FC91E00FF11FB082C701DF91CF9109
:102400001F910F91FF90EF90DF90CF90BF900895B4
:1024100085ED8093BC008091BC0084FDFCCF1092C0
:102420007304089540912604262F30E0240F311DB7
:1024300021323105DCF4209173042430C9F4FC010D
:1024400080E090E0861758F4309126042191DC0159
:10245000AC5FBB4FA30FB11D2C930196F3CF8091BE
:102460002604680F6093260480E0089581E00895B3
:1024700082E00895089581E090E030910304209176
:102480000204321710F480E090E091958195910953
:1024900008958091030490910204891730F48F5FAE
:1024A0008093030480E090E008958FEF9FEF0895FC
:1024B0008091020490E020910304821B9109089509
:1024C000CF92DF92EF92FF920F931F93CF93DF9300
:1024D0007C01262F972F8A0180917404882391F024
:1024E000C62FD72F6E01C40ED51ECC15DD0571F099
:1024F0006991D701ED91FC910190F081E02DC70128
:102500001995F3CF642F822F0E941212C801DF9118
:10251000CF911F910F91FF90EF90DF90CF90089592
:10252000CF93DF931F92CDB7DEB7698320917404F8
:102530002223D1F020919704203240F021E030E0B6
:10254000FC013383228380E090E015C08091750404
:10255000E82FF0E0EA58FB4F998190838F5F8093DA
:1025600075048093970405C061E0CE0101960E9436
:10257000121281E090E00F90DF91CF9108952F9299
:102580003F924F925F926F927F928F929F92AF9203
:10259000BF92CF92DF92EF92FF920F931F93CF9350
:1025A000DF9300D0CDB7DEB79B838A834C0197FFC2
:1025B00003C08FEF881A980A95948794092C000C11
:1025C000AA08BB089DECC92E9CECD92E9CE4E92EF0
:1025D0009EE3F92E2A803B8091E029223324E1E01A
:1025E0002E26F22DF170F98328EB422E2EE1522E89
:1025F00025E0622E2EE3722E80919E088111CBC1C0
:1026000040919508509196086091970870919808AC
:1026100083E899E00E94E60D4091990850919A084C
:1026200060919B0870919C0881E00E94A1110E941A
:102630006F178230910519F410929D089BC19C017F
:102640002D7F2430310559F410929D08409299084D
:1026500050929A0860929B0870929C0893C1213016
:10266000310599F410929D08C0929908D0929A0869
:10267000E0929B08F0929C08409295085092960830
:102680006092970870929808B7CF079709F0B4CF77
:1026900080919D088111B0CF81E080939D08C50194
:1026A000B4010E9453260E94792900919F0810913D
:1026B000A0080F5F1F4F1093A00800939F080E946F
:1026C00043290617170709F055C12114310489F071
:1026D00010929508109296081092970810929808F8
:1026E000C0929908D0929A08E0929B08F0929C08B8
:1026F00010C0C0929508D0929608E0929708F09288
:1027000098081092990810929A0810929B081092BB
:102710009C084DEC5CEC6CE47EE383E899E00E945D
:10272000E60D4DEC5CEC6CE47EEB85E899E00E94F4
:10273000E60D6AEF70E080E090E00E94671D409136
:10274000950850919608609197087091980883E8D1
:1027500099E00E94E60D4091990850919A08609185
:102760009B0870919C0881E00E94A1116EE571E0C8
:1027700080E090E00E94671D0E946F170797E1F7C5
:102780000E9429188A819B8185309105F4F4039772
:1027900069F00E943E1A81E00E949A170E9429184F
:1027A00089810E94CF1887E090E00CC00E943E1AF9
:1027B00081E00E949A170E94291889810E94CF18EF
:1027C00086E090E00E94BF1217CFEA81FB81369726
:1027D00009F0C6C06091940970E08CE999E00E940C
:1027E000FF0E0E94331164EF71E080E090E00E94E0
:1027F000671D80E00E9437114AE959E969E17EE3EB
:1028000085E899E00E94E60D4AE959E969E17EEB25
:1028100083E899E00E94E60D6CED75E080E090E0C1
:102820000E94671D40E050E060E070E885E899E0B4
:102830000E94E60D40E050E0BA0183E899E00E9472
:10284000E60D81E00E94371168E873E180E090E0D6
:102850000E94671D0E94291864EF71E080E090E0FB
:102860000E94671D80E00E94371164EF71E080E0F4
:1028700090E00E94671D4AE959E969E17EE385E835
:1028800099E00E94E60D4AE959E969E17EEB83E8A7
:1028900099E00E94E60D6CED75E080E090E00E940A
:1028A000671D40E050E060E070E885E899E00E9434
:1028B000E60D40E050E0BA0183E899E00E94E60DA1
:1028C00081E00E94371168E873E180E090E00E94A7
:1028D000671D0E9429180E943E1A80E00E949A17E4
:1028E0004AE959E969E17EE383E899E00E94E60D4F
:1028F0004AE959E969E17EEB85E899E00E94E60D35
:102900000E946F17079739F464E670E080E090E06A
:102910000E94671DF5CF0E946F170797E1F70E948D
:102920006F17079739F464E670E080E090E00E944A
:10293000671DF5CF0E946F170797E1F70E946F1789
:10294000079739F464E670E080E090E00E94671D2C
:10295000F5CF0E946F170797E1F70E94291805C06D
:102960008A819B81079709F047CE0E941D1A0E9419
:102970005F1942CEC0929908D0929A08E0929B08C3
:10298000F0929C08C0929508D0929608E092970821
:10299000F092980831CE0F900F900F90DF91CF9169
:1029A0001F910F91FF90EF90DF90CF90BF90AF906D
:1029B0009F908F907F906F905F904F903F902F905F
:1029C00008951F920F920FB60F9211240F900FBE11
:1029D0000F901F9018951F920F920FB60F9211240F
:1029E0000BB60F922F933F934F935F936F937F9309
:1029F0008F939F93AF93BF93EF93FF938091B90011
:102A0000887F803609F49CC068F5883209F45BC081
:102A100090F4803109F454C038F4882309F4F6C0E6
:102A2000883009F44DC0F6C0883109F44CC08032BA
:102A300009F45DC0EFC0803409F468C048F4803305
:102A400009F455C0883309F0E5C080937104D8C0FB
:102A5000803509F44FC0883509F45DC0883409F029
:102A6000D9C0D6C0883909F4C7C0A8F4883709F49A
:102A700067C038F4883609F463C0803709F460C051
:102A8000C9C0883809F4B8C0803909F45FC08038FB
:102A900009F0C0C05BC0803B09F486C038F4803ABE
:102AA00009F466C0883A09F47FC0B4C0803C09F4D8
:102AB000A7C0883C09F4A4C0883B09F48AC0AAC016
:102AC00080914E0410C09091700480916F0498170B
:102AD00070F5E091700481E08E0F80937004F0E057
:102AE000E15BFB4F80818093BB0085EC86C08093C7
:102AF00071048EC0E091700481E08E0F80937004A9
:102B00008091BB00F0E0E15BFB4F8083909170040B
:102B100080916F046EC0E091700481E08E0F80930D
:102B200070048091BB00F0E0E15BFB4F80838091FB
:102B3000720481116DC081E080934D0484EA61C00C
:102B400083E08093730410924A04CFCF80914A04AB
:102B5000803208F051C0E0914A0481E08E0F8093EA
:102B60004A048091BB00F0E0E65DFB4F8083BDCF5F
:102B700085EC8093BC001092730480914A048032EB
:102B800030F4E0914A04F0E0E65DFB4F1082609182
:102B90004A0470E0E0912804F09129048AE294E06C
:102BA000199510924A0436C084E080937304109201
:102BB000270410922604E0912404F091250419952D
:102BC00080912604811105C081E080932604109233
:102BD0000404E091270481E08E0F80932704F0E045
:102BE000EC5FFB4F80818093BB0090912704809124
:102BF0002604981708F479CF85E88093BC000AC0B2
:102C000085EC8093BC001092730404C01092710490
:102C10000E940812FF91EF91BF91AF919F918F9108
:102C20007F916F915F914F913F912F910F900BBECC
:102C30000F900FBE0F901F9018951F93CF93DF93A7
:102C4000282F30E0F901E354FD4F8491F901E95850
:102C5000FD4FD491F901EF5CFD4FC491CC23C9F035
:102C6000162F81110E94B61CEC2FF0E0EE0FFF1F13
:102C7000E95EFD4FA591B4918FB7F894111105C08D
:102C80009C91ED2FE095E92302C0EC91ED2BEC93A4
:102C90008FBFDF91CF911F9108951092730481E04F
:102CA0008093720410924D0461E084E10E941D162D
:102CB00061E085E10E941D16E9EBF0E080818E7FE6
:102CC000808380818D7F808388E48093B80085E451
:102CD0008093BC0008951F93CF93DF9300D000D062
:102CE000CDB7DEB780919A07811172C00E94491159
:102CF00080E00E94B11B68EA73E0CE0101960E9459
:102D0000FD0ACE0101960E944F11CE0101960E944C
:102D1000C00A80919B0790919C07019714E1189F2E
:102D2000B001199F700D11246356784FCE010196A2
:102D30000E94FD0ACE0101960E944F11CE0101961C
:102D40000E94C00A81E00E94B11B6BEA73E0CE01D1
:102D500001960E94FD0ACE0101960E944F11CE01FC
:102D600001960E94C00A80919B0790919C07189F32
:102D7000B001199F700D11246356784FCE01019652
:102D80000E94FD0ACE0101960E944F11CE010196CC
:102D90000E94C00A82E00E94B11B68EA73E0CE0183
:102DA00001960E94FD0ACE0101960E944F11CE01AC
:102DB00001960E94C00A80919B0790919C07019602
:102DC000189FB001199F700D11246356784F71C080
:102DD0000E94491180E00E94B11B68EA73E0CE01B5
:102DE00001960E94FD0ACE0101960E944F11CE016C
:102DF00001960E94C00A80911508909116080197CB
:102E000014E1189FB001199F700D1124695E774F6E
:102E1000CE0101960E94FD0ACE0101960E944F113B
:102E2000CE0101960E94C00A81E00E94B11B6BEAAC
:102E300073E0CE0101960E94FD0ACE0101960E9428
:102E40004F11CE0101960E94C00A80911508909101
:102E50001608189FB001199F700D1124695E774FF5
:102E6000CE0101960E94FD0ACE0101960E944F11EB
:102E7000CE0101960E94C00A82E00E94B11B68EA5E
:102E800073E0CE0101960E94FD0ACE0101960E94D8
:102E90004F11CE0101960E94C00A809115089091B1
:102EA00016080196189FB001199F700D1124695ED4
:102EB000774FCE0101960E94FD0ACE0101960E9435
:102EC0004F11CE0101960E94C00A26960FB6F894C3
:102ED000DEBF0FBECDBFDF91CF911F910895CF937D
:102EE000DF9382E40E94481D31E020E04091930886
:102EF00050919408481759070CF430E0C32FD22F93
:102F000081E40E94481D2091910830919208281771
:102F100039070CF022968FE30E94481D20918F08FC
:102F200030919008281739070CF02496CE01DF91D4
:102F3000CF910895CF93DF93D82F4AE959E969E1FA
:102F40007EEB0E94A111C1E0CD274AE959E969E170
:102F50007EEB8C2F0E94A1116EEE72E080E090E07B
:102F60000E94671D8C2F0E9478118D2F0E9478116E
:102F70008C2F0E9485110E9453262EE53BEB4CEBD3
:102F80005CE30E94B22620E030E042EB52E40E9473
:102F90004C2687FD21C08D2F0E9485110E9453264B
:102FA0002EE53BEB4CEB5CE30E94B22620E030E0E8
:102FB00042EB52EC0E94D129181674F040E050E028
:102FC000BA018D2F0E94A11140E050E0BA018C2F70
:102FD000DF91CF910C94A1118C2F0E9485110E943A
:102FE00053262EE53BEB4CEB5CE30E94B22620E03F
:102FF00030E042EB52E40E944C2687FF05C04AE9CC
:1030000059E969E17EE303C040E050E0BA018C2F4A
:103010000E94A1118D2F0E9485110E9453262EE53A
:103020003BEB4CEB5CE30E94B22620E030E042EB4D
:1030300052EC0E94D12918162CF447E856E169E1B8
:103040007EEB03C040E050E0BA018D2F0E94A11139
:103050008FCF8F929F92AF92BF92CF92DF92EF92DB
:10306000FF920E946F17079789F44DEC5CEC6CECB3
:103070007DE383E899E00E94E60D4DEC5CEC6CEC9E
:103080007DEB85E899E00E94E60DEBCF68EC70E0FF
:1030900080E090E00E94671D8DECC82E8CECD82E4D
:1030A0008CE4E82E8EE3F82E98EB892E9EE1992E83
:1030B00095E0A92E9EE3B92E40919508509196086F
:1030C000609197087091980883E899E00E94E60D56
:1030D0004091990850919A0860919B0870919C08C2
:1030E00081E00E94A1110E946F178230910559F46E
:1030F00010929D08C0929908D0929A08E0929B087D
:10310000F0929C080FC09C012D7F2430310599F46A
:1031100010929D088092990890929A08A0929B081C
:10312000B0929C08C0929508D0929608E0929708B9
:10313000F0929808C1CF2130310599F410929D0882
:10314000C0929908D0929A08E0929B08F0929C084D
:103150008092950890929608A0929708B09298084D
:10316000ABCF079709F0A8CF80919D088111A4CF1C
:1031700040E050E0BA0183E899E00E94E60D40E0AB
:1031800050E060E070E885E899E0FF90EF90DF9014
:10319000CF90BF90AF909F908F900C94E60DCF93FF
:1031A000DF93D82F4DEC5CEC6CE47EE383E899E090
:1031B0000E94E60D4DEC5CEC6CE47EEB85E899E05A
:1031C0000E94E60D0E946F17892BE1F70E946F178E
:1031D0000797E1F766E970E080E090E00E94671DE4
:1031E0008D2F0E947811C1E0CD278C2F0E9478117D
:1031F0008D2F0E9485110E9453262EE53BEB4CEB50
:103200005CE30E94B22620E030E048E252E40E94F3
:103210004C2687FF3DC08D2F0E9485110E945326AA
:103220002EE53BEB4CEB5CE30E94B22620E030E065
:1032300048E252E40E944C2687FF05C04AE959E95A
:1032400069E17EE303C040E050E0BA018D2F0E94A7
:10325000A1118C2F0E9485110E9453262EE53BEB75
:103260004CEB5CE30E94B22620E030E048E252ECF6
:103270000E94D12918162CF447E856E169E17EEB4B
:1032800003C040E050E0BA018C2F0E94A111B0CFE2
:103290008C2F0E9485110E9453262EE53BEB4CEBB0
:1032A0005CE30E94B22620E030E048E252EC0E944B
:1032B000D12918160CF4AFCFDF91CF9108958F92DA
:1032C0009F92AF92BF92CF92DF92EF92FF92CF93F5
:1032D00081E00E949A170E94291881E00E94CF186D
:1032E0000E9429188DECC82E8CECD82E8CE4E82E88
:1032F0008EE3F82E98EB892E9EE1992E95E0A92E6B
:103300009EE3B92E409195085091960860919708D8
:103310007091980883E899E00E94E60D4091990821
:1033200050919A0860919B0870919C0881E00E94DE
:10333000A1110E946F178230910559F410929D08D7
:10334000C0929908D0929A08E0929B08F0929C084B
:103350000FC09C012D7F2430310599F410929D08F7
:103360008092990890929A08A0929B08B0929C082B
:10337000C0929508D0929608E0929708F09298082B
:10338000C1CF2130310599F410929D08C09299085F
:10339000D0929A08E0929B08F0929C08809295083F
:1033A00090929608A0929708B0929808ABCF079792
:1033B00009F0A8CF80919D088111A4CF80919F082A
:1033C0009091A00801979093A00880939F08019680
:1033D000C1F44AE959E969E17EE383E899E00E9492
:1033E000E60D4AE959E969E17EEB85E899E00E943A
:1033F000E60D60ED77E080E090E00E94671D81E0DF
:1034000001C080E0C1E0C0939D08882309F47ACF11
:1034100081E00E949A17C0939E088FEF9FEF9093D0
:10342000A00880939F08CF91FF90EF90DF90CF90FE
:10343000BF90AF909F908F9008956091940970E035
:103440008CE999E00E94FF0E0E94331164EF71E055
:1034500080E090E00E94671D80E00E94371160E2EA
:1034600073E080E090E00E94671D81E00E943711C8
:1034700064EF71E080E090E00C94671D6091940926
:1034800070E08CE999E00E94FF0E6DE981E00E94F6
:10349000EB1D64EF71E080E090E00C94671D8F926B
:1034A0009F92AF92BF92CF92DF92EF92FF920F93D3
:1034B0001F93CF93DF93FC01C081D1812091A4049D
:1034C0003091A504C217D3070CF04BC09E01220F08
:1034D000331FE091A204F091A304E20FF31F808058
:1034E0009180C170DD27F1E0CF27209719F404E621
:1034F00010E002C00CE91FEF7A015B016C01040FC0
:10350000151FB801C4010E94A20D892B99F40E0D5C
:103510001F1DB801C4010E94A20D892B71F4B801CE
:103520006E0D7F1DC4010E94A20D892BE9F023E0DE
:1035300030E005C021E030E002C022E030E0F501DB
:10354000808191810196821793073CF0F5011182E9
:103550001082F60180819181019691838083CE0152
:1035600005C081E090E002C08FEF9FEFDF91CF9127
:103570001F910F91FF90EF90DF90CF90BF90AF9091
:103580009F908F900895EEEEF5E0A089B18982E0DA
:103590008C93A485B5851C92A685B7858FEC8C93FA
:1035A000108EA489B58986E08C93A289B3898C9109
:1035B00080618C93A289B3898C9188608C93A28955
:1035C000B3898C9180688C930288F389E02D808187
:1035D0008F7D80830895CF93DF93009779F0FC016E
:1035E00001900020E9F73197AF01481B590BBC014E
:1035F0008EEE95E00E94D008EC0102C0C0E0D0E061
:1036000042E050E06EEA73E08EEE95E00E94D00852
:103610008C0F9D1FDF91CF91089520919704909179
:103620009604213208F04AC0809173048111FCCFC6
:1036300032E03093730431E0309372043FEF309303
:1036400071041092700420936F04A6E7B4E04FE475
:1036500054E0FA013E2F341B321718F43D91319398
:10366000F9CF10924E0420914E04990F922B909313
:103670004E0490914D04913061F410924D0490915C
:103680004E049093BB009091BC0093FDF8CF95EC55
:1036900001C095EE9093BC00909173049230E1F3D9
:1036A000909171049F3F79F080917104803241F0D4
:1036B00080917104803331F084E005C081E003C063
:1036C00082E001C083E0109275041092970410927A
:1036D00074040895EF92FF921F93CF93DF931F928C
:1036E000CDB7DEB7162F9AE6E92E99E0F92ED7016D
:1036F0001C969C911C9721E020937404909396044F
:1037000010927504109297041A960D90BC91A02DFA
:10371000ED91FC9111970190F081E02D682FCD0182
:1037200079831995F70182859385DC01ED91FC91F0
:103730000190F081E02D7981672F1995F70182853D
:103740009385DC01ED91FC910190F081E02D612FDA
:1037500019950F90DF91CF911F91FF90EF900C94EE
:103760000D1BE8EAF8E01382482F4370428360E0C3
:10377000808191810C94EE10BF92CF92DF92EF92F4
:10378000FF920F931F93CF93DF93CDB7DEB72C97A4
:103790000FB6F894DEBF0FBECDBF8C01FC01C48014
:1037A00060EB73E0CE0107960E94FD0AD12C84E104
:1037B000E82EF12C94E1B92E8091AB0890E02C2DED
:1037C00030E0B701681B790B4D2D50E0621773078D
:1037D000ACF59A012C5E3F4F281B390BB801CE0186
:1037E00001960E94B311BE016F5F7F4FCE01079615
:1037F0000E942D0ACE0101960E94C00ABE01695F97
:103800007F4F8091A8089091A9080E94B10B8091E8
:10381000AB089B2D981BD90E4091AA084F5F4370AF
:103820004093AA088451C80E60E08091A808909146
:10383000A9080E94EE101092AB08BECFF8012481B7
:103840003581B801CE0101960E94B311BE016F5FB0
:103850007F4FCE0107960E942D0ACE0101960E944D
:10386000C00ABE01695F7F4F8091A8089091A908A6
:103870000E94B10B2091AB088B859C85820F911D16
:103880008093AB0860EB73E0CE0101960E94FD0AC5
:10389000F090AB08F3E1FF15C8F00D811E810F5FBA
:1038A0001F4FB801CE0101960E94660A882361F07D
:1038B00029813A818D819E8169EA73E0820F931F8D
:1038C0000E94FA2B1E830D83F394E4CFBE016F5F39
:1038D0007F4F8091A8089091A9080E94B10B409158
:1038E000AA086091AB088091A8089091A9080E944D
:1038F000EE10CE0101960E94C00ACE0107960E94EA
:10390000C00A2C960FB6F894DEBF0FBECDBFDF9174
:10391000CF911F910F91FF90EF90DF90CF90BF90CC
:1039200008953FB7F8948091A6099091A709A091B6
:10393000A809B091A90926B5A89B05C02F3F19F089
:103940000196A11DB11D3FBFBA2FA92F982F88271F
:10395000820F911DA11DB11DBC01CD0142E0660F7A
:10396000771F881F991F4A95D1F7089590E0FC01B1
:103970003197E231F10508F04EC08827EC57FF4F30
:103980008F4F0C941128809180008F7703C0809115
:1039900080008F7D80938000089580918000877FD4
:1039A000F9CF84B58F7702C084B58F7D84BD08952B
:1039B0008091B0008F7703C08091B0008F7D80939D
:1039C000B0000895809190008F7707C0809190009B
:1039D0008F7D03C080919000877F80939000089531
:1039E0008091A0008F7707C08091A0008F7D03C0D9
:1039F0008091A000877F8093A0000895809120018E
:103A00008F7707C0809120018F7D03C080912001B6
:103A1000877F809320010895CF93DF9390E0FC018E
:103A2000E958FD4F2491FC01EF5CFD4F8491882300
:103A300061F190E0880F991FFC01ED5FFC4FC5918B
:103A4000D491FC01E95EFD4FA591B491611109C0CB
:103A50009FB7F8948881209582238883EC912E2348
:103A60000BC0623061F49FB7F8943881822F809543
:103A700083238883EC912E2B2C939FBF06C08FB796
:103A8000F894E8812E2B28838FBFDF91CF91089582
:103A9000863308F0865390917B00282F2870977FFB
:103AA000922B90937B008770806480937C00809140
:103AB0007A00806480937A0080917A0086FDFCCF42
:103AC000809178002091790090E0922B08958F9258
:103AD0009F92AF92BF92CF92DF92EF92FF926B01D3
:103AE0007C010E94911C4B015C01C114D104E104D2
:103AF000F104F1F00E94911CDC01CB0188199909B5
:103B0000AA09BB09883E9340A105B10570F321E0E5
:103B1000C21AD108E108F10888EE880E83E0981EE9
:103B2000A11CB11CC114D104E104F10419F7DDCFCB
:103B3000FF90EF90DF90CF90BF90AF909F908F90CD
:103B400008951F920F920FB60F9211242F933F9357
:103B50008F939F93AF93BF938091A2099091A309F4
:103B6000A091A409B091A5093091A10923E0230FE8
:103B70002D3720F40196A11DB11D05C026E8230FA5
:103B80000296A11DB11D2093A1098093A2099093D3
:103B9000A309A093A409B093A5098091A6099091C7
:103BA000A709A091A809B091A9090196A11DB11D6D
:103BB0008093A6099093A709A093A809B093A90997
:103BC000BF91AF919F918F913F912F910F900FBE19
:103BD0000F901F901895CF92DF92EF92FF92CF93A4
:103BE000DF93823018F081EB93E00AC09091950941
:103BF000691720F090919609961750F483EC93E0A2
:103C0000DF91CF91FF90EF90DF90CF900C94EB1A63
:103C1000E82FF0E0E557F64FC089CC3008F072C0CD
:103C2000262F30E0D0E085E08C9FF0018D9FF00DD5
:103C30001124E35AF84F8381283C31059CF528E88C
:103C400030E06901C81AD10887FDD394CC0CDD1C83
:103C5000CC0CDD1C0D2C000CEE08FF08848128E53F
:103C600032E0281B310987FD3395220F331F220FC5
:103C7000331FC901330FAA0BBB0B9C01AD012C19DB
:103C80003D094E095F09A62FB0E00E94A52724EB4D
:103C900030E040E050E00E948627C20ED31EE41EB2
:103CA000F51E1EC048E850E06A01C81AD10887FD19
:103CB000D394CC0CDD1CCC0CDD1C2C153D0584F004
:103CC000448188E592E0841B910947FD9395880F14
:103CD000991F880F991F69018C159D050CF46C01C3
:103CE0008FB7F89495E09C9FF0019D9FF00D1124F3
:103CF000E35AF84F96E0C91AD108CC0CDD1CD282E9
:103D0000C1828FBFDF91CF91FF90EF90DF90CF9076
:103D1000089581EA98E00C94C00ACF93DF9300D015
:103D200000D0CDB7DEB7789484B5826084BD84B509
:103D3000816084BD85B5826085BD85B5816085BDA6
:103D400080916E00816080936E001092810080915E
:103D500081008260809381008091810081608093E6
:103D60008100809180008160809380008091B1000B
:103D700084608093B1008091B00081608093B00036
:103D80008091910082608093910080919100816088
:103D90008093910080919000816080939000809149
:103DA000A10082608093A1008091A1008160809336
:103DB000A1008091A00081608093A00080912101EA
:103DC0008260809321018091210181608093210193
:103DD0008091200181608093200180917A0084602D
:103DE00080937A0080917A00826080937A0080913B
:103DF0007A00816080937A0080917A008068809355
:103E00007A001092C1000E94C31A0E94C31A61E096
:103E100080916B090E940C1D60E080916B090E94EB
:103E20001D1660E080916A090E940C1D88EA94E0EA
:103E30009093750980937409109203041092020400
:103E400010927504109297040E944D1680E090E144
:103E5000A0E0B0E08093770990937809A093790966
:103E6000B0937A098AE090E0A0E0B0E080937B090B
:103E700090937C09A0937D09B0937E0980E090E047
:103E8000A0E0B0E480937F0990938009A09381091A
:103E9000B093820960E070E185E00E946A1B6FE9DF
:103EA00079E380E00E946A1B07E819E0812C912CDD
:103EB000A12CB12C86E6282E82E0382E9CEA492ED1
:103EC00092E0592E2BEC622E27E0722E9501265996
:103ED000364F6901F9019481828194012659364F48
:103EE0007901F901818F928F61E00E940C1D61E0E0
:103EF000F701828D0E940C1DF60190858681F801E4
:103F00008083F701968F61E00E940C1D60E0F7014D
:103F1000868D0E940C1D61E0F80180810E941D16B3
:103F2000FFB6F89480910104811125C0F1018491BC
:103F3000F2019491E82FF0E0EE0FFF1FED5FFC4FD0
:103F4000A591B4918C91982321F461E085E30E94BE
:103F50001D1661E085E30E940C1D8CB580618CBD4F
:103F60008CB580648CBD61E084E30E940C1D61E02F
:103F700083E30E940C1D809101048F5F80930104F4
:103F8000FFBEC3010197F1F760E0F80180810E9454
:103F90001D1688E80E94021083E00E94021061E072
:103FA000F80180810E941D16C3010197F1F7C80135
:103FB0000E940910F2E08F0E911C0E5F1F4FAA9411
:103FC000AB2821F0AA24A394B12C80CF0FE819E0EC
:103FD000E4E0FE2EF00E60E0F80181918F010E9476
:103FE0000C1DF012F8CF6EE9E62E69E0F62E09E915
:103FF00019E072E0D72ED00EF8013697608170E09C
:10400000C80102960E94FF0EF80191918F0133972B
:104010008081F70131978083F701908360E00E94EF
:104020000C1D61E0F70180810E940C1D60E0F7012A
:1040300080810E941D16F2E0EF0EF11CD012DCCF41
:10404000F8941092200189E08093210180E293E0AE
:104050009093290180932801109225011092240148
:1040600082E080937300789480938B0610928F0681
:1040700080918C0660E00E940C1D0091A8081091B0
:10408000A908109203041092020410927504109271
:1040900097040E944D16F80115828385823010F036
:1040A00098E09583F801808762E370E080E090E01B
:1040B0000E94671DF8016485C8010E94991068EE8E
:1040C00073E080E090E00E94671D60E3C8010E94F9
:1040D000AC103BE4E32E36E4F32EC7010197F1F771
:1040E00060E3C8010E94AC10C7010197F1F760E3DB
:1040F000C8010E94AC1083E592E00197F1F760E2FD
:10410000C8010E94AC10F80165816062C8010E947C
:10411000DC1084E0F80186836CE0C8010E94DC10AA
:10412000C8010E941C1182E0F801878366E0C80183
:104130000E94DC1062E0C8010E94DC108BE39FE16A
:104140000197F1F78091A8089091A90828E0FC0157
:10415000248760E00E94991040E060E08091A80808
:104160009091A9080E94EE108091A8089091A9084A
:10417000FC016681262F2160268369600E94DC1085
:104180006091940970E08CE999E00E94FF0E0E9412
:10419000331181E00E9437110E946B16CC24C39426
:1041A000D12C55E0252E312C0E94C401823091057E
:1041B000F1F480919A0781110DC080919B07909135
:1041C0009C07019685309105F9F4D0929C07C09226
:1041D0009B0717C3809115089091160801968530AA
:1041E000910519F5D0921608C09215080AC38130BE
:1041F000910501F580919A07811112C080919B076A
:1042000090919C07019729F090939C0780939B07BE
:10421000F8C224E030E030939C0720939B07F1C262
:104220008091150890911608019790931608809335
:104230001508E7C28B7F892B09F0E5C280919B07A7
:1042400090919C078130910539F480919A078111F2
:104250003BC082E090E019C08230910539F4809132
:104260009A07811131C00E942918CDC2833091056F
:10427000E9F480919A07811127C082E090E00E94C2
:10428000BF1210929E0883E090E00E94BF1210922D
:104290009E0883E090E00E94BF1210929E0882E088
:1042A00090E00E94BF1210929E08ADC2049761F484
:1042B00080919A07811108C0D0929C07C0929B07F9
:1042C00081E080939A079DC280911508909116080D
:1042D0008130910509F0E4C180919A07882309F49F
:1042E00092C20E94491180E00E94B11B65E573E013
:1042F000CE0101960E94FD0ACE0101960E944F1147
:10430000CE0101960E94C00A0E94C401892BE1F7E8
:104310000E94491180E00E94B11B8FE30E94481D5A
:104320003C0181E40E94481D4C0182E40E94481D2A
:104330005C0164E673E0CE0101960E94FD0ACE01A5
:1043400001960E944F11CE0101960E94C00A4AE0D8
:10435000B301CE0101960E94C50ACE0101960E94CA
:104360004F11CE0101960E94C00A81E00E94B11B4C
:104370006AE673E0CE0101960E94FD0ACE01019625
:104380000E944F11CE0101960E94C00A4AE0B4017A
:10439000CE0101960E94C50ACE0101960E944F11DE
:1043A000CE0101960E94C00A82E00E94B11B60E724
:1043B00073E0CE0101960E94FD0ACE0101960E9493
:1043C0004F11CE0101960E94C00A4AE0B501CE010C
:1043D00001960E94C50ACE0101960E944F11CE019E
:1043E00001960E94C00A0E94C401892BE1F70E9435
:1043F000491180E00E94B11B66E773E0CE0101968F
:104400000E94FD0ACE0101960E944F11CE01019635
:104410000E94C00A0E94C401892BE1F70E94491141
:1044200080E00E94B11B8FE30E94481D7C0181E463
:104430000E94481D8C0182E40E94481D2C0164E604
:1044400073E0CE0101960E94FD0ACE0101960E9402
:104450004F11CE0101960E94C00A4AE0B701CE0179
:1044600001960E94C50ACE0101960E944F11CE010D
:1044700001960E94C00A81E00E94B11B6AE673E0C7
:10448000CE0101960E94FD0ACE0101960E944F11B5
:10449000CE0101960E94C00A4AE0B801CE01019601
:1044A0000E94C50ACE0101960E944F11CE010196CD
:1044B0000E94C00A82E00E94B11B60E773E0CE0157
:1044C00001960E94FD0ACE0101960E944F11CE0175
:1044D00001960E94C00A4AE0B201CE0101960E94F4
:1044E000C50ACE0101960E944F11CE0101960E948D
:1044F000C00A0E94C401892BE1F70E94491180E0A3
:104500000E94B11BE60CF71CF7FE03C03FEFE31A55
:10451000F30AF594E794080D191D17FF02C00F5F09
:104520001F4F15950795A40CB51CB7FE03C08FEF60
:10453000A81AB80AB594A79466E873E0CE0101966C
:104540000E94FD0ACE0101960E944F11CE010196F4
:104550000E94C00A4AE0B701CE0101960E94C50A36
:10456000CE0101960E944F11CE0101960E94C00A11
:1045700081E00E94B11B6CE873E0CE0101960E94BD
:10458000FD0ACE0101960E944F11CE0101960E94B4
:10459000C00A4AE0B801CE0101960E94C50ACE01C8
:1045A00001960E944F11CE0101960E94C00A82E03E
:1045B0000E94B11B62E973E0CE0101960E94FD0AE0
:1045C000CE0101960E944F11CE0101960E94C00AB1
:1045D0004AE0B501CE0101960E94C50ACE010196BE
:1045E0000E944F11CE0101960E94C00A0E94C40190
:1045F000892BE1F70E94491180E00E94B11BC7019D
:10460000B1010E94FD2781E090E00E947827C80157
:10461000B1010E94FD2782E090E00E947827C50149
:10462000B1010E94FD2783E090E00E94782781E09D
:1046300090E00E947027E5E08E9FC00111249093C6
:10464000900880938F0882E090E00E947027F5E048
:104650008F9FC0011124909392088093910883E06A
:1046600090E00E94702725E0829FC0011124909362
:1046700094088093930868E973E0CE0101960E9444
:10468000FD0ACE0101960E944F11CE0101960E94B3
:10469000C00A6CED75E080E090E00E94671DB1C03B
:1046A0008230910509F07EC080919A07882309F431
:1046B000AAC00E94491180E00E94B11B64E673E029
:1046C000CE0101960E94FD0ACE0101960E944F1173
:1046D000CE0101960E94C00A81E090E00E947027FE
:1046E00035E0839FB00111244AE0CE0101960E947B
:1046F000C50ACE0101960E944F11CE0101960E947B
:10470000C00A81E00E94B11B6AE673E0CE01019607
:104710000E94FD0ACE0101960E944F11CE01019622
:104720000E94C00A82E090E00E94702795E0899F75
:10473000B00111244AE0CE0101960E94C50ACE01C3
:1047400001960E944F11CE0101960E94C00A82E09C
:104750000E94B11B60E773E0CE0101960E94FD0A42
:10476000CE0101960E944F11CE0101960E94C00A0F
:1047700083E090E00E947027E5E08E9FB001112455
:104780004AE0CE0101960E94C50ACE0101960E9420
:104790004F11CE0101960E94C00A0E94C401892BCC
:1047A000E1F72FC08330910501F580919A078823A6
:1047B00051F10E94491180E00E94B11B0E946F17C5
:1047C0004AE0BC01CE0101960E94C50ACE010196C5
:1047D0000E944F11CE0101960E94C00A64EF71E061
:1047E00080E090E00E94671DE4CF049761F480911F
:1047F0009A07882341F0D0921608C09215081092AB
:104800009A070E946B1664E670E080E090E00E94D8
:10481000671D0E94FC09C8CC1092AB041092AA0438
:1048200088EE93E0A0E0B0E08093AC049093AD04F8
:10483000A093AE04B093AF0423E033E03093A90417
:104840002093A8041092B7041092B6048093B80481
:104850009093B904A093BA04B093BB0425E133E06C
:104860003093B5042093B40445E351E05093C10460
:104870004093C00444E351E05093C3044093C20406
:1048800040E351E05093C5044093C40441E351E038
:104890005093C7044093C60442E351E05093C904C7
:1048A0004093C80446E351E05093CB044093CA04BC
:1048B0001092CD041092CE041092CF041092D00426
:1048C0001092540510925305809355059093560508
:1048D000A0935705B0935805309352052093510586
:1048E00045ED50E050935E0540935D0544ED50E08A
:1048F0005093600540935F0540ED50E05093620592
:104900004093610541ED50E0509364054093630589
:1049100042ED50E0509366054093650546ED50E04A
:10492000509368054093670510926A0510926B05D5
:1049300010926C0510926D051092F1051092F00521
:104940008093F2059093F305A093F405B093F505D9
:104950003093EF052093EE0585EC90E09093FB05F6
:104960008093FA0584EC90E09093FD058093FC051C
:1049700080EC90E09093FF058093FE0581EC90E041
:10498000909301068093000682EC90E090930306DA
:104990008093020686EC90E09093050680930406CF
:1049A00010920706109208061092090610920A0645
:1049B00086E380938B0987E380938C0988E3809357
:1049C0008D0989E380938E098BE180938F098DE1B6
:1049D000809390098AE1809391098CE180939209F8
:1049E00084E08093930987E080939409109295095D
:1049F00084EB8093960986E18093970988E1809300
:104A0000980987E18093990989E180939A09E09157
:104A10009907EC3020F08FEF80939B0910C081E064
:104A20008E0F80939907E0939B0925E0E29FF001A8
:104A30001124E35AF84F88EB9BE092838183E09145
:104A40009907EC3020F08FEF80939C0910C081E033
:104A50008E0F80939907E0939C0985E0E89FF00111
:104A60001124E35AF84F88EB9BE0928381838CE01A
:104A700080936A0984E280936B0986E080936C09D5
:104A800085E080936D098FE180936E098EE18093BC
:104A90006F0983E28093700982E28093710985E453
:104AA0008093720984E48093730980E4809376098B
:104AB00010927B0910927C0910927D0910927E0958
:104AC00010927F0910928009109281091092820938
:104AD000ECEAF8E08FEF9FEFDC0112821382148280
:104AE0001582168217821086118683879487A58780
:104AF000B6878787908BA18BB28B1286118210822A
:104B0000739629E0EA36F20741F78DE090E00E94C3
:104B1000D629FC011382128287E293E0918380837D
:104B2000118687E2848384E1828784E08387148608
:104B3000F093A908E093A8081092AA081092AB0875
:104B400085E280938C0610928E0660EB73E081EA1A
:104B500098E00E94FD0A10929A0781E090E09093FD
:104B60009C0780939B0728E7EFE0F2E0ADE9B7E010
:104B700001900D922A95E1F79093160880931508FD
:104B800088E7E7E8F2E0A7E1B8E001900D928A95A6
:104B9000E1F781E090E00E94702725E0829FC0014C
:104BA00011249093900880938F0882E090E00E94F7
:104BB000702725E0829FC001112490939208809372
:104BC000910883E090E00E94702725E0829FC00159
:104BD000112490939408809393088DEC9CECACEC9A
:104BE000BDE38093950890939608A0939708B0939F
:104BF00098088093990890939A08A0939B08B09383
:104C00009C0810929D0810929E088FEF9FEF909342
:104C1000A00880939F0808954532510520F4423042
:104C200010F00C941726FB011082CB010895BB27CE
:104C30004A3031F4992322F4BDE2909581959F4F3B
:104C40000C942326BB27FB015527AA27880F991F01
:104C5000AA1FA41710F0A41B83955051B9F7A05DAB
:104C6000AA3308F0A95DA193009779F7B111B19328
:104C70001192CB010C943C26DC01FC01672F719151
:104C80007723E1F7329704C07C916D937083629132
:104C9000AE17BF07C8F308950E948E2608F481E07E
:104CA0000895E89409C097FB3EF49095809570951F
:104CB00061957F4F8F4F9F4F9923A9F0F92F96E968
:104CC000BB279395F695879577956795B795F111DD
:104CD000F8CFFAF4BB0F11F460FF1BC06F5F7F4F7A
:104CE0008F4F9F4F16C0882311F096E911C077238C
:104CF00021F09EE8872F762F05C0662371F096E895
:104D0000862F70E060E02AF09A95660F771F881F63
:104D1000DAF7880F9695879597F90895990F000807
:104D2000550FAA0BE0E8FEEF16161706E807F9077D
:104D3000C0F012161306E407F50798F0621B730B18
:104D4000840B950B39F40A2661F0232B242B252B99
:104D500021F408950A2609F4A140A6958FEF811D3C
:104D6000811D08950E94C5260C9436270E9428278D
:104D700038F00E942F2720F0952311F00C941F2764
:104D80000C94252711240C946A270E94472770F35E
:104D9000959FC1F3950F50E0551F629FF001729FE0
:104DA000BB27F00DB11D639FAA27F00DB11DAA1FEF
:104DB000649F6627B00DA11D661F829F2227B00D3C
:104DC000A11D621F739FB00DA11D621F839FA00DC7
:104DD000611D221F749F3327A00D611D231F849F17
:104DE000600D211D822F762F6A2F11249F5750406E
:104DF0009AF0F1F088234AF0EE0FFF1FBB1F661FE9
:104E0000771F881F91505040A9F79E3F510580F0B1
:104E10000C941F270C946A275F3FE4F3983ED4F369
:104E2000869577956795B795F795E7959F5FC1F755
:104E3000FE2B880F911D9695879597F9089597F900
:104E40009F6780E870E060E008959FEF80EC089530
:104E500000240A9416161706180609060895002459
:104E60000A9412161306140605060895092E0394D3
:104E7000000C11F4882352F0BB0F40F4BF2B11F447
:104E800060FF04C06F5F7F4F8F4F9F4F089557FDA6
:104E90009058440F551F59F05F3F71F04795880FA8
:104EA00097FB991F61F09F3F79F08795089512163F
:104EB00013061406551FF2CF4695F1DF08C01616EB
:104EC00017061806991FF1CF86957105610508949C
:104ED0000895E894BB2766277727CB0197F90895B3
:104EE000F999FECF92BD81BDF89A992780B50895B2
:104EF000262FF999FECF1FBA92BD81BD20BD0FB6F6
:104F0000F894FA9AF99A0FBE01960895052E97FB28
:104F10001EF400940E949D2757FD07D00E94B027E1
:104F200007FC03D04EF40C949D2750954095309586
:104F300021953F4F4F4F5F4F089590958095709505
:104F400061957F4F8F4F9F4F08950E94D227A59F55
:104F5000900DB49F900DA49F800D911D1124089574
:104F6000A1E21A2EAA1BBB1BFD010DC0AA1FBB1F6D
:104F7000EE1FFF1FA217B307E407F50720F0A21BDF
:104F8000B30BE40BF50B661F771F881F991F1A944C
:104F900069F760957095809590959B01AC01BD0176
:104FA000CF010895A29FB001B39FC001A39F700DD0
:104FB000811D1124911DB29F700D811D1124911D21
:104FC0000895DB018F939F930E94A527BF91AF9116
:104FD000A29F800D911DA39F900DB29F900D112453
:104FE0000895991B79E004C0991F961708F0961B45
:104FF000881F7A95C9F78095089597FB072E16F4B8
:10500000009407D077FD09D00E94502807FC05D0F6
:105010003EF4909581959F4F0895709561957F4FCF
:105020000895EE0FFF1F881F8BBF0790F691E02DAC
:1050300019940F93083090F0982F872F762F652FB3
:10504000542F432F322F22270850F4CF220F331F23
:10505000441F551F661F771F881F991F0A95B2F7B7
:105060000F91089597FB10F8169400080F930830DD
:1050700098F00850232F342F452F562F672F782F65
:10508000892F902DF4CF05949795879577956795FF
:1050900057954795379527950A95AAF70F91089543
:1050A000AA1BBB1B51E107C0AA1FBB1FA617B7074E
:1050B00010F0A61BB70B881F991F5A95A9F780956A
:1050C0009095BC01CD0108955058BB27AA270E9496
:1050D0007C280C9436270E94282738F00E942F271E
:1050E00020F039F49F3F19F426F40C9425270EF490
:1050F000E095E7FB0C941F27E92F0E94472758F300
:10510000BA17620773078407950720F079F4A6F5AC
:105110000C9469270EF4E0950B2EBA2FA02D0B01ED
:10512000B90190010C01CA01A0011124FF27591BEC
:1051300099F0593F50F4503E68F11A16F040A22FF2
:10514000232F342F4427585FF3CF46953795279563
:10515000A795F0405395C9F77EF41F16BA0B620B62
:10516000730B840BBAF09150A1F0FF0FBB1F661FA9
:10517000771F881FC2F70EC0BA0F621F731F841FEC
:1051800048F4879577956795B795F7959E3F08F012
:10519000B0CF9395880F08F09927EE0F97958795D4
:1051A00008950E94E5280C9436270E942F2758F076
:1051B0000E94282740F029F45F3F29F00C941F2714
:1051C00051110C946A270C9425270E94472768F3F5
:1051D0009923B1F3552391F3951B550BBB27AA27B0
:1051E00062177307840738F09F5F5F4F220F331FEA
:1051F000441FAA1FA9F335D00E2E3AF0E0E832D0B2
:1052000091505040E695001CCAF72BD0FE2F29D0B4
:10521000660F771F881FBB1F261737074807AB0786
:10522000B0E809F0BB0B802DBF01FF2793585F4FFB
:105230003AF09E3F510578F00C941F270C946A2792
:105240005F3FE4F3983ED4F3869577956795B795DD
:10525000F7959F5FC9F7880F911D9695879597F9E8
:105260000895E1E0660F771F881FBB1F6217730761
:105270008407BA0720F0621B730B840BBA0BEE1F76
:1052800088F7E09508950E944A296894B1110C941A
:105290006A2708950E944F2788F09F5798F0B92FEA
:1052A0009927B751B0F0E1F0660F771F881F991F5B
:1052B0001AF0BA95C9F714C0B13091F00E9469276D
:1052C000B1E008950C946927672F782F8827B85F7D
:1052D00039F0B93FCCF3869577956795B395D9F7B3
:1052E0003EF490958095709561957F4F8F4F9F4FBD
:1052F00008950E94B92990F09F3748F4911116F053
:105300000C946A2760E070E080E89FEB089526F433
:105310001B16611D711D811D0C9490290C94AB29E5
:10532000882371F4772321F09850872B762F07C0BC
:10533000662311F499270DC09051862B70E060E030
:105340002AF09A95660F771F881FDAF7880F9695CF
:10535000879597F908959F3F31F0915020F48795F4
:1053600077956795B795880F911D9695879597F9CD
:1053700008950E944F27A0F0BEE7B91788F4BB2715
:105380009F3860F41616B11D672F782F8827985F15
:10539000F7CF869577956795B11D93959639C8F3A4
:1053A00008950E948E2608F48FEF0895CF93DF931F
:1053B0008230910510F482E090E0E091AC09F09128
:1053C000AD0920E030E0C0E0D0E0309711F140813D
:1053D000518148175907C0F04817590761F4828175
:1053E0009381209719F09B838A832BC09093AD09FA
:1053F0008093AC0926C02115310519F042175307D7
:1054000018F49A01BE01DF01EF010280F381E02D63
:10541000DCCF2115310509F1281B390B243031056A
:1054200090F412968D919C9113976115710521F05E
:10543000FB019383828304C09093AD098093AC09F0
:10544000FD01329644C0FD01E20FF31F8193919359
:10545000225031092D933C933AC02091AA093091F2
:10546000AB09232B41F420910302309104023093C5
:10547000AB092093AA092091010230910202211563
:10548000310541F42DB73EB7409105025091060217
:10549000241B350BE091AA09F091AB09E217F30741
:1054A000A0F42E1B3F0B2817390778F0AC014E5F94
:1054B0005F4F2417350748F04E0F5F1F5093AB091D
:1054C0004093AA098193919302C0E0E0F0E0CF01FC
:1054D000DF91CF9108950F931F93CF93DF930097A0
:1054E00009F48CC0FC013297138212820091AC093E
:1054F0001091AD090115110581F420813181820FD0
:10550000931F2091AA093091AB092817390779F523
:10551000F093AB09E093AA0971C0D80140E050E0D4
:10552000AE17BF0750F412962D913C911397AD0121
:105530002115310509F1D901F3CF9D01DA0133833A
:10554000228360817181860F971F8217930769F408
:10555000EC0128813981260F371F2E5F3F4F3183A1
:1055600020838A819B8193838283452B29F4F09346
:10557000AD09E093AC0942C01396FC93EE931297E9
:10558000ED01499159919E01240F351FE217F30750
:1055900071F480819181840F951F029611969C93DE
:1055A0008E938281938113969C938E931297E0E061
:1055B000F0E0D80112968D919C911397009719F005
:1055C000F8018C01F6CF8D919C9198012E5F3F4F91
:1055D000820F931F2091AA093091AB092817390730
:1055E00069F4309729F41092AD091092AC0902C009
:1055F000138212821093AB090093AA09DF91CF9115
:105600001F910F9108956F927F928F929F92AF9208
:10561000BF92CF92DF92EF92FF920F931F93CF939F
:10562000DF93EC01009789F4CB01DF91CF911F91BB
:105630000F91FF90EF90DF90CF90BF90AF909F9031
:105640008F907F906F900C94D629FC01E60FF71F86
:105650009C0122503109E217F30708F4ACC0D901CC
:105660000D911C91119706171707B0F00530110521
:1056700008F49FC0C80104978617970708F499C0DB
:1056800002501109061B170B019311936D937C9324
:10569000CF010E946B2A8DC05B01A01AB10A4C0198
:1056A000800E911EA091AC09B091AD0940E050E090
:1056B000E12CF12C109709F44AC0A815B905D1F5D1
:1056C0006D907C901197630182E0C80ED11CCA14C2
:1056D000DB0480F1A3014A195B096A0182E0C80E6C
:1056E000D11C1296BC9012971396AC91B5E0CB16D4
:1056F000D10440F0B282A38351834083D9016D93DA
:105700007C930AC00E5F1F4FC301800F911FF901E8
:1057100091838083EB2DFA2FE114F10431F0D7014E
:105720001396FC93EE93129744C0F093AD09E09367
:10573000AC093FC08D919C9111974817590708F407
:10574000AC017D0112960D90BC91A02DB3CF80913C
:10575000AA099091AB0988159905E1F446175707F6
:10576000C8F48091010290910202009741F48DB734
:105770009EB74091050250910602841B950BE817D5
:10578000F907C8F4F093AB09E093AA09F901718312
:1057900060830FC0CB010E94D6297C01009759F08D
:1057A000A801BE010E94F12BCE010E946B2AC70105
:1057B00004C0CE0102C080E090E0DF91CF911F9144
:1057C0000F91FF90EF90DF90CF90BF90AF909F90A0
:1057D0008F907F906F90089581E090E0F8940C9402
:1057E000012CFB01DC0102C001900D9241505040A0
:1057F000D8F70895FB01DC0101900D920020E1F73C
:10580000089511E0C0E9D1E000E006C0802FFE015C
:105810000E9411282196011DC139D10780E0080797
:06582000A9F7F894FFCF88
:10582600FF0000AE092000000040001400540000F4
:105836000000000000000000000000000000000062
:105846000000005041544520444520435241424502
:1058560000000000000000434F4D424F2043524FCE
:10586600555354494C4C414E540000435241424515
:105876002044454C555845000000000000000053E8
:105886006574757000000000000000000000000054
:105896000000000000000000000000000000000002
:1058A60000000000000000000000000000000000F2
:1058B600000000000000000000000043616C696207
:1058C600726174696F6E0000000000000000004104
:1058D600666669636865722076616C657572204DCF
:1058E6002E00004465627567696E6700000000005F
:1058F60000000000000000517569747465720000B4
:105906000000000000000000000000000000000091
:105916000000000000000000000000000000000081
:10592600000000901260122A0A3A12581249123BDD
:1059360012000000009009D0081409D70945092370
:1059460009370900000000C510D0082A0A290A49AB
:105956006E76616C696420656E636F64657220693A
:10596600642100496E76616C6964206D6F746F7294
:10597600206964210043616C69622E206475206E83
:105986006F697200436170313A00436170323A00C8
:10599600436170333A0043616C69622E206475205E
:1059A600626C616E6300546872313A0054687232F8
:1059B6003A00546872333A0043616C69622E20657E
:1059C60066666563747565002020003E3E000D0A1C
:1059D60000496E76616C696420736572766F206922
:1059E600642100536572766F20616E676C6520696D
:1059F60073206F7574206F662072616E6765210073
:00000001FF
