:100000000C9495010C94C6010C94C6010C94C60185
:100010000C94C6010C94C6010C94C6010C94C60144
:100020000C94C6010C94DB0D0C94DB0D0C94DB0DD1
:100030000C94C6010C945D070C94C6010C94C60187
:100040000C94C6010C94040C0C94C6010C94C601CB
:100050000C94C6010C94C6010C94C6010C94631058
:100060000C94C6010C94CC080C94A2080C94C60104
:100070000C94C6010C94C6010C94C6010C94C601E4
:100080000C94C6010C94C6010C94C6010C94C601D4
:100090000C94C6010C94C6010C94C6010C94E50D99
:1000A0000C94C6010C94C6010C94C6010C94C601B4
:1000B0000C94C6010C94C6010C94C6010C94F6086D
:1000C0000C94C6010C94C6010C94C6010C947808DB
:1000D0000C944E080C94C6010C9424080C94FA0756
:1000E0000C94C6017A0A7F0A840A8E0A980A110BB8
:1000F000A20AAA0AB20ABC0AC60AD00ADF0AE90A98
:10010000110BF30AFD0A070B320F350F240F280FCE
:100110002E0F6C0F390F3D0F430F470F4B0F510F31
:10012000550F590F6C0F5F0F630F670F0C94320F51
:100130000C94B20A0C94C60A0C94350F0C94390F27
:100140000C948E0A0C94870D0C94881B0C942E0F23
:100150000C94590F0C94430F0C943E0D0C94D9053C
:100160000C94510F0C94E6060C94A0050C947F0A95
:100170000C94520D0C944B0F0C942D0D0C94FB050C
:100180000C942C0D0C94BC0A0C94FD0A0C94470F93
:100190000C94550F0C94110B0C945F0F0C942F1DA5
:1001A0000C94CA050C94840A0C94280F0C94EB064A
:1001B0000C945A0D0C94670F0C94ED050C94630F7E
:1001C0000C942E0D0C94DF0A0C94070B0C942F0D3D
:1001D0000C9494060C9447060C94D00A0C94AA0A2A
:1001E0000C94F30A0C94240F0C949F050C946C0F40
:1001F0000C94E90A0C947A0A0C94980A0C94A20ABA
:100200000C943D0F000020002300260029002C0044
:100210002F00320000010000030106010901020065
:10022000002100240027002A002D003000330001A7
:10023000010000040107010A010000220025002836
:10024000002B002E003100340002010000050108DF
:10025000010B01050505050705080808080202024B
:10026000020A0A0808040404040101010101010151
:10027000010303030303030303040707070C0C0C28
:100280000C0C0C0C0C020202020606060606060600
:10029000060B0B0B0B0B0B0B0B010210202008089D
:1002A00010204010204080020102010804020101D8
:1002B00002040810204080804020100804020180C1
:1002C0000402018040201008040201080402010118
:1002D0000204081020408001020408102040800021
:1002E000000A0B02090C0D0E0807030401000000B0
:1002F00000000000000000000000000000000000FE
:1003000000000000000000000000001211100000BA
:1003100000000000000000000000000000000000DD
:10032000000000000000881B2F1D11241FBECFEF0E
:10033000D1E2DEBFCDBF00E00CBF13E0A0E0B2E031
:10034000E8EBF4E400E00BBF02C007900D92AA3284
:10035000B107D9F728E0AAE2B3E001C01D92AF309F
:10036000B207E1F711E0C4E9D1E000E006C021974F
:100370000109802FFE010E94D61EC339D10780E0FB
:100380000807A9F70E94AD100C944A220C940000B3
:1003900030918403313208F04BC0809161038111A8
:1003A000FCCF9091B90622E02093610321E02093D5
:1003B00060032FEF20935F0310925E0330935D0381
:1003C000E4E6F3E0ADE3B3E020E0321721F0419141
:1003D0004D932F5FFACF10923C0320913C03990F6D
:1003E000922B90933C0390913B03913061F41092D7
:1003F0003B0390913C039093BB009091BC0093FD14
:10040000F8CF95EC01C095EE9093BC0090916103FC
:100410009230E1F390915F039F3F79F080915F0309
:10042000803241F080915F03803331F084E005C079
:1004300081E003C082E001C083E010926303109268
:100440008403109262030895DB0114964D915C9130
:1004500015976D917C91DC01ED91FC910280F38107
:10046000E02D1994009769F0FC0101900020E9F754
:100470003197AF01481B590BBC018BEC94E00C94F5
:10048000A00580E090E008950F931F93CF93DF9332
:100490008C01EB01FC01808191810097B1F06881B2
:1004A00079816115710579F0428153812C813D81FB
:1004B0004217530740F00E9443228C819D81F8012E
:1004C0009583848313C00E94C72088819981F80195
:1004D000918380838A819B81938382838C819D8198
:1004E00095838483198218821B821A821D821C8242
:1004F000DF91CF911F910F910895CF93DF93EC017E
:100500006115710559F0FB0101900020E9F7319761
:10051000AF01461B570B0E9418070CC088819981B8
:10052000009711F00E94C720198218821D821C8238
:100530001B821A82CE01DF91CF910895EBECF4E09B
:10054000A089B18982E08C93A485B5851C92A6858B
:10055000B7858FEC8C93108EA489B58986E08C9337
:10056000A289B3898C9180618C93A289B3898C9183
:1005700088608C93A289B3898C9180688C9302885F
:10058000F389E02D80818F7D80830895CF93DF9361
:100590000E943202EC0185E293E00E9432028C0F4D
:1005A0009D1FDF91CF9108950F931F93CF93DF93FA
:1005B000162F072FC2E8D6E09C8521E02093620326
:1005C0009093B9061092630310928403AA85BB85A9
:1005D000ED91FC9111970190F081E02D682FCD01F4
:1005E00019958A859B85DC01ED91FC910190F08144
:1005F000E02D602F19958A859B85DC01ED91FC919A
:100600000190F081E02D612F1995DF91CF911F911D
:100610000F910C94C801FC01248131E030936203F6
:100620002093B90610926303109284038485682B8B
:1006300085E893E00E94870D0C94C8010F931F93E7
:10064000CF938C01C62F0E940B036C2F6460C801EE
:100650000E940B036C2F6B7FC8010E940B0383EC7D
:1006600090E00197F1F7CF911F910F9108950F93AB
:100670001F93CF93DF938C01C62FD42F607F642B01
:100680000E941E0380E1C89FB00111246D2BC80198
:10069000DF91CF911F910F910C941E038F929F9227
:1006A000AF92BF92CF92DF92EF92FF920F931F9380
:1006B000CF93DF93FC0120813181E0913703F091EA
:1006C00038032E173F070CF04FC0F901EE0FFF1F44
:1006D000A0913503B0913603EA0FFB1FA080B180D3
:1006E000217033276901F1E0CF26232B19F42CE97F
:1006F0003FEF02C024E630E07A018B01EC014901B2
:10070000840E951EB401C5010E94D509892B99F468
:100710008E0C9F1CB401C5010E94D509892B71F470
:10072000B701680D791DC5010E94D509892BF9F023
:1007300023E030E005C021E030E002C022E030E0FC
:10074000F801808191810196821793071CF49183AF
:10075000808308C0F80111821082888199810196F6
:1007600099838883C60105C081E090E002C08FEFC5
:100770009FEFDF91CF911F910F91FF90EF90DF904E
:10078000CF90BF90AF909F908F9008950C943202BD
:10079000CF93DF9382E40E940A1031E020E0409181
:1007A000040250910502481759070CF430E0C32F9A
:1007B000D22F81E40E940A1020910202309103029C
:1007C000281739070CF022968FE30E940A10209117
:1007D000000230910102281739070CF02496CE014F
:1007E000DF91CF910895FC01A089B1898C91A689F0
:1007F000B78982FD0FC09C91818D8F5F8F73228D91
:10080000821749F0218DDF01A20FB11D5D969C93E7
:10081000818F08958C9108955F926F927F928F924D
:100820009F92AF92BF92CF92DF92EF92FF920F937F
:100830001F93CF93DF93CDB7DEB72C970FB6F89405
:10084000DEBF0FBECDBF8C01DC0114967C9067E249
:1008500073E0CE0107960E944807612C84E1A82E20
:10086000B12C94E1592E2091810630E0472D50E0C3
:10087000B501621B730B862D90E06C016417750740
:100880000CF05DC0B4E1CB0ED11CC21AD30A4C01EE
:10089000C814D90410F446016C0167E273E0CE017C
:1008A00001960E944807F801E480F5808E149F04A9
:1008B000D8F4CE14DF0408F47601D801ED91FC9150
:1008C0001197EE0DFF1DD08010826D917C91680D07
:1008D000791DCE0101960E947D02F80180819181EF
:1008E000FC01EE0DFF1DD082BE016F5F7F4FCE0178
:1008F00007960E944402CE0101960E944307BE0162
:10090000695F7F4F80917E0690917F060E9424024E
:1009100080918106952D981B690E409180064F5F4E
:100920004370409380068451780E60E080917E068B
:1009300090917F060E94B30C1092810694CFD8014B
:100940001496AD90BC901597AC14BD0410F46501DD
:100950005C0167E273E0CE0101960E944807F8014E
:10096000E480F580CE14DF04D8F4AE14BF0408F49C
:100970007501D801ED91FC911197EE0DFF1DB0802E
:1009800010826D917C916C0D7D1DCE0101960E94AF
:100990007D02F80180819181FC01EE0DFF1DB08286
:1009A000BE016F5F7F4FCE0107960E944402CE01C9
:1009B00001960E944307BE01695F7F4F80917E06CA
:1009C00090917F060E942402909181068B85890F69
:1009D0008093810667E273E0CE0101960E9448078A
:1009E000F0908106F3E1FF15C8F00D811E810F5FC5
:1009F0001F4FB801CE0101960E94F106882361F0D5
:100A000029813A818D819E8168E273E0820F931F74
:100A10000E9443221E830D83F394E4CFBE016F5FD7
:100A20007F4F80917E0690917F060E942402409124
:100A300080066091810680917E0690917F060E94DB
:100A4000B30CCE0101960E944307CE0107960E9487
:100A500043072C960FB6F894DEBF0FBECDBFDF91D3
:100A6000CF911F910F91FF90EF90DF90CF90BF90AB
:100A7000AF909F908F907F906F905F900895CF93ED
:100A8000DF93CDB7DEB72C970FB6F894DEBF0FBE5D
:100A9000CDBF80917E0690917F060E94E20C10925D
:100AA00081061092800640E060E080917E06909181
:100AB0007F060E94B30C809111029091120224E1F2
:100AC000289FB001299F700D11246D5E7D4FCE01CE
:100AD00007960E9448071A8219821C821B821E8276
:100AE0001D826F8178856115710531F04B855C85BC
:100AF000CE0101960E941807CE0101960E940C04B7
:100B0000CE0101960E944307CE0107960E9443073B
:100B1000209111023091120244E1429FC001439F93
:100B2000900D11248D5E9D4F0E94C6032C960FB62A
:100B3000F894DEBF0FBECDBFDF91CF910895089529
:100B4000CF92DF92EF92FF920F931F93CF93DF9399
:100B50006C017A018B01C0E0D0E0CE15DF0581F099
:100B6000D8016D918D01D601ED91FC910190F0813C
:100B7000E02DC6011995892B11F02196EECF7E014B
:100B8000C701DF91CF911F910F91FF90EF90DF9000
:100B9000CF900895FC01538D448D252F30E0842F94
:100BA00090E0821B930B541710F0CF960895019795
:100BB0000895FC01918D828D981761F0828DDF017F
:100BC000A80FB11D5D968C91928D9F5F9F73928F40
:100BD00090E008958FEF9FEF0895FC01918D828D35
:100BE000981731F0828DE80FF11D858D90E0089502
:100BF0008FEF9FEF0895FC01918D228D892F90E05A
:100C0000805C9F4F821B91098F739927089581E91A
:100C100093E00E94FB0521E0892B09F420E0822F5C
:100C200008958EE294E00E94FB0521E0892B09F4EF
:100C300020E0822F08958BEC94E00E94FB0521E0D8
:100C4000892B09F420E0822F0895FC01848DDF01B7
:100C5000A80FB11DA35ABF4F2C91848D90E001962F
:100C60008F739927848FA689B7892C93A089B1891E
:100C70008C91837080648C93938D848D981306C0BF
:100C80000288F389E02D80818F7D80830895EF9223
:100C9000FF920F931F93CF93DF93EC0181E0888F36
:100CA0009B8D8C8D981305C0E889F989808185FD1D
:100CB00026C0F62E0B8D10E00F5F1F4F0F7311270C
:100CC000E02E8C8DE8120CC00FB607FCFACFE88935
:100CD000F989808185FFF5CFCE010E942506F1CFED
:100CE0008B8DFE01E80FF11DE35AFF4FF0829FB795
:100CF000F8940B8FEA89FB89808180620AC09FB7D4
:100D0000F894EE89FF896083E889F989808183708E
:100D1000806480839FBF81E090E0DF91CF911F913D
:100D20000F91FF90EF900895CF93DF93EC01888DA2
:100D30008823C9F0EA89FB89808185FD05C0A889DF
:100D4000B9898C9186FD0FC00FB607FCF5CF808165
:100D500085FFF2CFA889B9898C9185FFEDCFCE01AF
:100D60000E942506E7CFDF91CF910895E0E0F0E003
:100D7000199480E090E0892B21F00E941B068111DC
:100D800019C080E090E0892B41F080E090E0892B51
:100D900021F00E940000811110C00E9411068111F3
:100DA0000FC080E090E0892B81F00E94070681113E
:100DB0000AC008950E940000E4CF0E940000EDCF19
:100DC0000E94B606EECF0C940000089580E090E0FB
:100DD00008950E94352241E00E94370381E090E0AF
:100DE00008950F931F93CF93DF93EC01888199812E
:100DF000009729F02A813B812617370788F48B0159
:100E00006F5F7F4F0E945021009761F09983888324
:100E10001B830A832C813D81232B11F4FC0110825A
:100E200081E001C080E0DF91CF911F910F91089583
:100E3000EF92FF920F931F93CF93DF93EC017B010F
:100E40008A01BA010E94F1062881398181110DC001
:100E50002115310519F0C9010E94C7201982188295
:100E60001D821C821B821A8206C01D830C83B7015F
:100E7000C9010E944322CE01DF91CF911F910F91B2
:100E8000FF90EF900895FC01808191810C94C72020
:100E9000FC01118210821382128215821482611564
:100EA000710551F0FB0101900020E9F73197AF0186
:100EB000461B570B0C94180708951F920F920FB6FC
:100EC0000F9211240BB60F922F933F934F935F9382
:100ED0006F937F938F939F93AF93BF93EF93FF9302
:100EE0008091930790919407A0919507B0919607F0
:100EF000892B8A2B8B2B49F19091920780910000CE
:100F00008927809300008091930790919407A09186
:100F10009507B0919607181619061A061B060CF0CD
:100F200056C08091930790919407A0919507B09136
:100F300096070197A109B1098093930790939407AD
:100F4000A0939507B093960742C080916302EEE1AB
:100F5000F2E0E4919FEF90936302E230C9F050F425
:100F6000EE2399F0E13081F590916F009D7F909391
:100F70006F002AC0E43019F1E0F0E53029F59091D6
:100F800073009D7F909373001FC010926E001CC071
:100F9000909170009D7F9093700091E09093B000CD
:100FA0009091B100987F94609093B1001092B3003B
:100FB0000BC0909171009D7F9093710005C090913E
:100FC00072009D7F9093720060E00E946D0FFF9110
:100FD000EF91BF91AF919F918F917F916F915F91B1
:100FE0004F913F912F910F900BBE0F900FBE0F901E
:100FF0001F9018951F920F920FB60F9211240BB6E7
:101000000F922F933F934F935F936F937F938F93A1
:101010009F93AF93BF93EF93FF9381E993E00E9477
:101020002506FF91EF91BF91AF919F918F917F9195
:101030006F915F914F913F912F910F900BBE0F9049
:101040000FBE0F901F9018951F920F920FB60F9220
:1010500011240BB60F922F933F934F935F936F938F
:101060007F938F939F93AF93BF93EF93FF9381E908
:1010700093E00E94F303FF91EF91BF91AF919F9195
:101080008F917F916F915F914F913F912F910F9031
:101090000BBE0F900FBE0F901F9018951F920F92CE
:1010A0000FB60F9211240BB60F922F933F934F93CD
:1010B0005F936F937F938F939F93AF93BF93EF93C0
:1010C000FF938EE294E00E942506FF91EF91BF917D
:1010D000AF919F918F917F916F915F914F913F91D0
:1010E0002F910F900BBE0F900FBE0F901F90189571
:1010F0001F920F920FB60F9211240BB60F922F93DF
:101100003F934F935F936F937F938F939F93AF938F
:10111000BF93EF93FF938EE294E00E94F303FF915D
:10112000EF91BF91AF919F918F917F916F915F915F
:101130004F913F912F910F900BBE0F900FBE0F90CC
:101140001F9018951F920F920FB60F9211240BB695
:101150000F922F933F934F935F936F937F938F9350
:101160009F93AF93BF93EF93FF938BEC94E00E9418
:101170002506FF91EF91BF91AF919F918F917F9144
:101180006F915F914F913F912F910F900BBE0F90F8
:101190000FBE0F901F9018951F920F920FB60F92CF
:1011A00011240BB60F922F933F934F935F936F933E
:1011B0007F938F939F93AF93BF93EF93FF938BECAA
:1011C00094E00E94F303FF91EF91BF91AF919F9143
:1011D0008F917F916F915F914F913F912F910F90E0
:1011E0000BBE0F900FBE0F901F9018951F920F927D
:1011F0000FB60F9211240BB60F922F933F934F937C
:101200005F936F937F938F939F93AF93BF93CF938E
:10121000DF93EF93FF932091690530E0F901E152EC
:10122000FD4F8491F901E756FD4FD491F901ED5A34
:10123000FD4FC491CC2379F081110E94170FEC2F40
:10124000F0E0EE0FFF1FEC5FFD4FA591B491EC9124
:10125000ED2381E009F480E020916D0530916E0569
:101260002F5F3F4F30936E0520936D0590916C0575
:10127000953618F096E09093680590916805943043
:10128000C9F128F4923069F09330D1F05EC0953006
:1012900009F451C0963009F058C091E09093390696
:1012A00051C0811152C020916D0530916E052436D8
:1012B000310508F442C01092390610926C051CC02A
:1012C000813009F042C0E0916C0591E09E0F90934F
:1012D0006C05F0E020916D0530916E05EE0FFF1F5B
:1012E000E859FA4F3087278310926E0510926D05EA
:1012F00094E029C0811117C0E0916C0591E09E0F28
:1013000090936C05F0E020916D0530916E05EE0F25
:10131000FF1FE859FA4F3087278310926E0510920D
:101320006D0593E010C020916D0530916E05253656
:10133000310558F007C0811108C010926E05109257
:101340006D0503C095E09093680590916B05992316
:10135000B9F081110AC080916A05882321F080913B
:101360006A0561E009C02F9A0BC080916A05882345
:1013700031F080916A0560E00E946D0F01C02F98E6
:10138000FF91EF91DF91CF91BF91AF919F918F919D
:101390007F916F915F914F913F912F910F900BBE75
:1013A0000F900FBE0F901F901895CF92DF92EF9283
:1013B000FF92CF93DF93EC01072E000C880B990B63
:1013C0000E943A1D6B017C0120E030E040E45FE3C5
:1013D0000E94991D20E030E048E452E40E94821F00
:1013E0000E94F41FC617D707D4F020E030E040EA8F
:1013F0005FE3C701B6010E94991D20E030E048E498
:1014000052E40E94821F20E030E040E85FE30E9447
:10141000161F0E94F41F21E06C177D070CF420E0DA
:10142000822F90E0DF91CF91FF90EF90DF90CF90EF
:1014300008958F929F92AF92BF92CF92DF92EF92D8
:10144000FF920F931F93CF93DF938C016A017B016F
:1014500020E030E04FE753E4C701B6010E94991D38
:101460004B015C0120E030E0A9010E942A201816FF
:101470001CF4C501B40103C0C501B40190580E9419
:10148000F41FEB0120E030E0A901C701B6010E9482
:101490002A20181614F460E001C061E0F80181818F
:1014A0000E946D0FCF3FD10509F014F4DD2702C073
:1014B000CFEFD0E0F801108161E0812F0E94CE0FC4
:1014C000209709F4B1C0CF3FD10509F4AFC0E12F97
:1014D000F0E0E152FD4FE4918E2F90E0FC01319756
:1014E000E231F10508F09DC08827EE58FF4F8F4F7D
:1014F0000C94D61E84B5806884BDC7BDA7C084B5D2
:10150000806284BDC8BDA2C0809180008068809345
:101510008000D0938900C093880098C0809180009B
:10152000806280938000D0938B00C0938A008EC02D
:1015300080918000886080938000D0938D00C0935C
:101540008C0084C08091B00080688093B000C0930C
:10155000B3007CC08091B00080628093B000C093E3
:10156000B40074C080919000806880939000D09304
:101570009900C09398006AC0809190008062809327
:101580009000D0939B00C0939A0060C0809190001F
:10159000886080939000D0939D00C0939C0056C0BB
:1015A0008091A00080688093A0008091A0008F7B34
:1015B0008093A000D093A900C093A80047C0809159
:1015C000A00080628093A000D093AB00C093AA00DB
:1015D0003DC08091A00088608093A000D093AD00B2
:1015E000C093AC0033C080912001806880932001BB
:1015F000D0932901C093280129C0809120018062E5
:1016000080932001D0932B01C0932A011FC08091A9
:101610002001886080932001D0932D01C0932C017C
:1016200015C0C038D10514F460E001C061E0812F1D
:10163000DF91CF911F910F91FF90EF90DF90CF90AE
:10164000BF90AF909F908F900C946D0FDF91CF91D2
:101650001F910F91FF90EF90DF90CF90BF90AF90D0
:101660009F908F900895CF92DF92EF92FF92CF9349
:10167000DF93FC01C081CC3008F064C0D0E085E08D
:101680008C9FF0018D9FF00D1124E65CF94F838152
:1016900028E830E06901C81AD10887FDD394CC0C42
:1016A000DD1CCC0CDD1C683C71053CF50D2C000CE0
:1016B000EE08FF08848128E532E0281B310987FD08
:1016C0003395220F331F220F331FC901330FAA0B8B
:1016D000BB0B9C01AD012C193D094E095F09DB01D3
:1016E0000E94811E24EB30E040E050E00E94571E33
:1016F000C20ED31EE41EF51E13C06C157D0584F0CA
:10170000248188E592E0821B910927FD9395880F3B
:10171000991F880F991F6B01861797070CF46C01AE
:101720008FB7F89495E09C9FF0019D9FF00D1124D8
:10173000E65CF94F96E0C91AD108CC0CDD1CD282C8
:10174000C1828FBFDF91CF91FF90EF90DF90CF905C
:1017500008951F93CF93DF93EC01162F88818C306F
:1017600008F04DC061E0812F0E94CE0FE88195E026
:101770009E9FF0011124E65CF94F1F738081807CED
:10178000182B10831382E8819E9FF0011124E65CE0
:10179000F94F148288816CE00E94CA1E9CE0899FE8
:1017A000A001112420E030E095E0BA01620F731F20
:1017B000969FF001979FF00D1124E65CF94F608130
:1017C00066FD13C02F5F3F4F2C30310571F781113B
:1017D0000CC01092800082E08093810010928500FE
:1017E0001092840086BB80936F00E88185E0E89FBB
:1017F000F0011124E65CF94F808180648083888148
:10180000DF91CF911F9108951F920F920FB60F9203
:1018100011240BB60F922F933F934F935F936F93C7
:101820007F938F939F93AF93BF93EF93FF93809199
:10183000910787FF05C0109285001092840016C0A2
:1018400020919107022E000C330B8091760690E0D8
:10185000281739075CF43091910725E03203F00135
:101860001124E65CF94F808186FD15C080919107B7
:101870008F5F8093910720919107022E000C330B0C
:101880008091760690E02817390794F480919107AB
:101890008C302CF10DC0309191073203F0011124EE
:1018A000E65CF94F808160E08F730E946D0FDECFA0
:1018B000809184009091850084349C4918F480E4E0
:1018C0009CE905C0809184009091850004969093D6
:1018D0008900809388008FEF809391072AC0409100
:1018E0008400509185003091910725E03203F0018A
:1018F0001124E65CF94F81819281840F951F9093AA
:10190000890080938800309191073203F0011124FF
:10191000E65CF94F808186FF0CC03091910732035D
:10192000F0011124E65CF94F808161E08F730E9421
:101930006D0FFF91EF91BF91AF919F918F917F912B
:101940006F915F914F913F912F910F900BBE0F9030
:101950000FBE0F901F9018958EBD00000DB407FEAE
:10196000FDCF8EB50895CF93DF93CDB7DEB728971F
:101970000FB6F894DEBF0FBECDBF9C0188E0E2EA4F
:10198000F2E0DE01119601900D928A95E1F7F901DE
:101990008085841710F44FEF480FFE013196E40F55
:1019A000F11DE40FF11D9081690F606840E0C901ED
:1019B00028960FB6F894DEBF0FBECDBFDF91CF9152
:1019C0000C943703CF93DF93EC0140E061E00E9479
:1019D00037038BE39FE10197F1F78985882339F07D
:1019E00040E060E0CE01DF91CF910C94B30CDF9129
:1019F000CF91089585ED8093BC008091BC0084FD5B
:101A0000FCCF1092610308954091E407262F30E047
:101A1000240F311D21323105DCF420916103243083
:101A2000C9F4FC0180E090E0861758F43091E40797
:101A30002191DC01AE53B84FA30FB11D2C93019639
:101A4000F3CF8091E407680F6093E40780E0089586
:101A500081E0089582E00895089508950895E09141
:101A6000C1078091C007E81730F4F0E0E056F84F66
:101A7000808190E008958FEF9FEF08959091C107C6
:101A80008091C007981750F4E92FF0E0E056F84F26
:101A9000208130E09F5F9093C10702C02FEF3FEF9E
:101AA000C90108958091C00790E02091C107821B71
:101AB00091090895CF92DF92EF92FF920F931F93B7
:101AC000CF93DF937C01CB018A0120916203222313
:101AD00089F0EB016B01C40ED51ECC15DD0569F054
:101AE0006991D701ED91FC910190F081E02DC70142
:101AF0001995F3CF642F0E94040DC801DF91CF9197
:101B00001F910F91FF90EF90DF90CF900895CF93AA
:101B1000DF931F92CDB7DEB7698320916203222342
:101B2000D1F020918403203240F021E030E0FC012C
:101B30003383228380E090E015C080916303E82F17
:101B4000F0E0EC59FC4F998190838F5F80936303A1
:101B50008093840305C061E0CE0101960E94040DCC
:101B600081E090E00F90DF91CF9108953FB7F89416
:101B700080919C0790919D07A0919E07B0919F072F
:101B800026B5A89B05C02F3F19F00196A11DB11DD8
:101B90003FBFBA2FA92F982F8827820F911DA11D13
:101BA000B11DBC01CD0142E0660F771F881F991F50
:101BB0004A95D1F708951F920F920FB60F921124F4
:101BC0000F900FBE0F901F9018951F920F920FB697
:101BD0000F9211240BB60F922F933F934F935F9365
:101BE0006F937F938F939F93AF93BF93EF93FF93E5
:101BF0008091B900887F803609F49CC068F58832EE
:101C000009F45BC090F4803109F454C038F488239F
:101C100009F4F6C0883009F44DC0F6C0883109F4E3
:101C20004CC0803209F45DC0EFC0803409F468C054
:101C300048F4803309F455C0883309F0E5C0809337
:101C40005F03D8C0803509F44FC0883509F45DC002
:101C5000883409F0D9C0D6C0883909F4C7C0A8F4BF
:101C6000883709F467C038F4883609F463C08037D0
:101C700009F460C0C9C0883809F4B8C0803909F4D3
:101C80005FC0803809F0C0C05BC0803B09F486C0EB
:101C900038F4803A09F466C0883A09F47FC0B4C0C9
:101CA000803C09F4A7C0883C09F4A4C0883B09F42F
:101CB0008AC0AAC080913C0310C090915E038091BD
:101CC0005D03981770F5E0915E0381E08E0F8093BD
:101CD0005E03F0E0E35CFC4F80818093BB0085EC09
:101CE00086C080935F038EC0E0915E0381E08E0F1B
:101CF00080935E038091BB00F0E0E35CFC4F808347
:101D000090915E0380915D036EC0E0915E0381E07F
:101D10008E0F80935E038091BB00F0E0E35CFC4F8C
:101D200080838091600381116DC081E080933B03CB
:101D300084EA61C083E08093610310920808CFCFEA
:101D400080910808803208F051C0E091080881E0D5
:101D50008E0F809308088091BB00F0E0E851F84FA7
:101D60008083BDCF85EC8093BC001092610380918D
:101D70000808803230F4E0910808F0E0E851F84FAC
:101D800010826091080870E0E091E607F091E707A3
:101D900088EE97E019951092080836C084E0809389
:101DA00061031092E5071092E407E091E207F091D9
:101DB000E30719958091E407811105C081E08093C4
:101DC000E4071092C207E091E50781E08E0F80934F
:101DD000E507F0E0EE53F84F80818093BB009091CF
:101DE000E5078091E407981708F479CF85E8809398
:101DF000BC000AC085EC8093BC001092610304C053
:101E000010925F030E94FA0CFF91EF91BF91AF9186
:101E10009F918F917F916F915F914F913F912F9102
:101E20000F900BBE0F900FBE0F901F90189590E073
:101E3000FC013197E231F10508F04EC08827EC57DC
:101E4000FF4F8F4F0C94D61E809180008F7703C078
:101E5000809180008F7D8093800008958091800024
:101E6000877FF9CF84B58F7702C084B58F7D84BD1D
:101E700008958091B0008F7703C08091B0008F7D6E
:101E80008093B0000895809190008F7707C0809173
:101E900090008F7D03C080919000877F8093900099
:101EA00008958091A0008F7707C08091A0008F7D5A
:101EB00003C08091A000877F8093A0000895809147
:101EC00020018F7707C0809120018F7D03C0809112
:101ED0002001877F8093200108951F93CF93DF9384
:101EE000282F30E0F901E152FD4F8491F901E756C6
:101EF000FD4FD491F901ED5AFD4FC491CC23C1F0AF
:101F0000162F81110E94170FEC2FF0E0EE0FFF1F2C
:101F1000E75CFD4FA591B4919FB7F894111104C0EF
:101F20008C91D095D82302C0EC91DE2BDC939FBF1F
:101F3000DF91CF911F9108951092C1071092C007B1
:101F400010926303109284031092610381E08093E6
:101F5000600310923B0361E084E10E946D0F61E039
:101F600085E10E946D0FE9EBF0E080818E7F808338
:101F700080818D7F808388E48093B80085E480939E
:101F8000BC008CE29DE09093E3078093E2078DE232
:101F90009DE09093E7078093E6070895CF93DF9342
:101FA00090E0FC01E756FD4F2491FC01ED5AFD4FF6
:101FB0008491882361F190E0880F991FFC01E15E14
:101FC000FD4FC591D491FC01E75CFD4FA591B49103
:101FD000611109C09FB7F894888120958223888376
:101FE000EC912E230BC0623061F49FB7F894888186
:101FF000322F309583238883EC912E2B2C939FBF17
:1020000006C08FB7F894E8812E2B28838FBFDF910D
:10201000CF910895863308F0865390917B00282F46
:102020002870977F922B90937B00877080648093B9
:102030007C0080917A00806480937A0080917A009D
:1020400086FDFCCF809178002091790090E0922B62
:1020500008958F929F92AF92BF92CF92DF92EF92AC
:10206000FF926B017C010E94B60D4B015C01C11413
:10207000D104E104F104F1F00E94B60DDC01CB01C2
:1020800088199909AA09BB09883E9340A105B105A1
:1020900070F321E0C21AD108E108F10888EE880E39
:1020A00083E0981EA11CB11CC114D104E104F10409
:1020B00019F7DDCFFF90EF90DF90CF90BF90AF90FA
:1020C0009F908F9008951F920F920FB60F92112438
:1020D0002F933F938F939F93AF93BF9380919807D4
:1020E00090919907A0919A07B0919B07309197071B
:1020F00023E0230F2D3720F40196A11DB11D05C04B
:1021000026E8230F0296A11DB11D20939707809307
:10211000980790939907A0939A07B0939B07809193
:102120009C0790919D07A0919E07B0919F070196F3
:10213000A11DB11D80939C0790939D07A0939E07BE
:10214000B0939F07BF91AF919F918F913F912F9136
:102150000F900FBE0F901F901895CF93DF93CDB7C0
:10216000DEB72C970FB6F894DEBF0FBECDBF7894C4
:1021700084B5826084BD84B5816084BD85B582608C
:1021800085BD85B5816085BD80916E00816080933D
:102190006E001092810080918100826080938100A6
:1021A00080918100816080938100809180008160B6
:1021B000809380008091B10084608093B100809111
:1021C000B00081608093B000809191008260809324
:1021D00091008091910081608093910080919000A6
:1021E0008160809390008091A10082608093A10023
:1021F0008091A10081608093A1008091A000816006
:102200008093A000809121018260809321018091C0
:102210002101816080932101809120018160809360
:10222000200180917A00846080937A0080917A0006
:10223000826080937A0080917A00816080937A0036
:1022400080917A00806880937A001092C1000E9489
:102250009E020E949E0261E0809183060E94CE0F42
:1022600060E0809183060E946D0F60E0809182069D
:102270000E94CE0F85E893E090938D0680938C06A4
:102280000E949C0F80E090E1A0E0B0E080938F0678
:1022900090939006A0939106B09392068AE090E006
:1022A000A0E0B0E08093930690939406A0939506E7
:1022B000B093960680E090E0A0E0B0E480939706AB
:1022C00090939806A0939906B0939A0660E070E107
:1022D00085E00E94D4026FE979E380E00E94D40295
:1022E00002E816E07801512CB8E86B2EB2E07B2EA4
:1022F0008EEC882E82E0982E9BECC92E97E0D92E8A
:102300002BE8A22EBB24B394D70114969C9114976A
:1023100012968C91F801818F928F61E00E94CE0F0E
:1023200061E0D8015A968C910E94CE0FF7019085FA
:102330008681D8015D968C935D975E969C9361E053
:102340000E94CE0F60E0F801868D0E94CE0F61E002
:10235000D8015D968C910E946D0F4FB6F8948091D4
:102360002A03811126C0F3018491F4012491E82FFE
:10237000F0E0EE0FFF1FE15EFD4FA591B4919C913F
:10238000822F892321F461E085E30E946D0F61E0D3
:1023900085E30E94CE0F8CB580618CBD8CB58064C6
:1023A0008CBD61E084E30E94CE0F61E083E30E9474
:1023B000CE0F80912A038F5F80932A034FBEC60100
:1023C0000197F1F760E0D8015D968C910E946D0F46
:1023D00088E80E94AC0C83E00E94AC0C61E0F8013C
:1023E000858D0E946D0FC6010197F1F760E0D8015D
:1023F0005D968C910E946D0F88E90E94AC0C80E084
:102400000E94AC0C80E00E94AC0C80E00E94AC0CFE
:1024100080E00E94AC0C61E0F801858D0E946D0F98
:10242000C5010197F1F760E0D8015D968C910E949B
:102430006D0F80EE0E94AC0C61E0F801858D0E946A
:102440006D0F5394FFEFEF1AFF0A0E5F1F4F22E04C
:1024500052125ACF07EA16E07BEAE72E76E0F72E13
:1024600060E0D8018D918D010E94CE0FB6E00B3A4D
:102470001B07B1F703EA16E06701EFEFCE1ADE0A99
:10248000D7016C9170E0C70108960E94A90BF60174
:1024900095818381D80152968C93529753969C9341
:1024A00060E00E94CE0F61E0F80183890E94CE0FA8
:1024B00060E0D80153968C910E946D0F0E5F1F4F04
:1024C0007601BDEACB16B6E0DB06B1F6F8941092C1
:1024D000200189E08093210180E293E0909329011B
:1024E00080932801109225011092240182E08093AC
:1024F000730078948093680510926C05809169054B
:1025000060E00E94CE0F00917E0610917F0685E864
:1025100093E00E949C0FF80115828385823010F0B1
:1025200098E09583D80118968C9362E370E080E080
:1025300090E00E942910F8016485C8010E940B03F5
:1025400068EE73E080E090E00E94291060E3C8012B
:102550000E941E036BE4E62E66E4F62EC701019787
:10256000F1F760E3C8010E941E03C7010197F1F76C
:1025700060E3C8010E941E0383E592E00197F1F732
:1025800060E2C8010E941E03D80115966C9160623A
:1025900040E0C8010E94370384E0F801868340E0F0
:1025A0006CE0C8010E943703C8010E94E20C82E07F
:1025B000D80117968C9340E066E0C8010E9437036B
:1025C00040E062E0C8010E9437038BE39FE101977E
:1025D000F1F780917E0690917F0628E0FC01248728
:1025E00060E00E940B0340E060E080917E069091E5
:1025F0007F060E94B30C80917E0690917F06DC01DD
:1026000016966C911697262F216016962C9369606A
:1026100040E00E9437030E943F056091AC0670E0E5
:1026200084EB96E00E94A90B8091AD06863520F4DC
:102630008091AE06853528F48AEA92E00E94C602AF
:1026400006C065E570E084EB96E00E94330B609174
:10265000AB0670E083EB96E00E94A90B8091AD067B
:102660008C3720F48091AE068B3760F48AEA92E0D2
:102670000E94C60240E2242E312C44244A94542C59
:1026800032010AC16BE770E083EB96E00E94330BE6
:10269000F1CF8430910509F080C110920E028DECCB
:1026A0009CECACECBDE380930A0290930B02A093E8
:1026B0000C02B0930D0288EB9EE1A5E0BEE380938F
:1026C000060290930702A0930802B0930902AFE6B6
:1026D000B5E0B0933603A093350380916C0590E08C
:1026E00090933803809337038091390690E090935C
:1026F0003A038093390380916805853009F053C20D
:102700008091710590917205885891098D359105D8
:1027100008F47CC280916C058A3108F0B3C18091C5
:102720006C058A3180F080916F0590917005803240
:10273000934008F4AEC18091710590917205C697DF
:10274000869708F4E9C280916C05823230F180915D
:1027500071059091720506970797F8F4E5E7F5E0A3
:1027600082E090E0C12CD12C76019C012F5F3F4F7D
:1027700040916C0550E0241735070CF41CC30197F9
:1027800095958795909334038093330340970CF08D
:10279000D6C110923403109233031C821B82A1E035
:1027A000B0E0BA83A98380916C058D3008F445C3ED
:1027B00049E753E0BE016D5F7F4FCE0101960E9455
:1027C0004E03892B09F039C349E753E0BE016D5F21
:1027D0007F4FCE0101960E944E03019709F02DC351
:1027E00049E753E0BE016D5F7F4FCE0101960E9425
:1027F0004E03892B09F021C3812C912C540100E058
:1028000010E080916C0590E029813A812817390702
:102810000CF4FAC2109334030093330380922F0315
:1028200090923003A0923103B092320321E030E065
:1028300030932C0320932B0382E080936805109241
:102840006C0540912F0350913003609131037091DA
:102850003203463C9FEC590794E0690796E67907F6
:1028600009F43AC74A3FAFEC5A07A4E06A07A6E664
:102870007A0709F489C1463DBFEC5B07B4E06B07FA
:10288000B6E67B0709F06AC169E170E080E090E09C
:102890000E9429100E94B90687EC92E00E94C603AC
:1028A0008AEC92E00E94C60368E873E180E090E061
:1028B0000E9429108FE30E940A104C0181E40E94BB
:1028C0000A105C0182E40E940A106C0187EC92E01D
:1028D0000E94C6038AED92E00E94C60368E873E195
:1028E00080E090E00E9429108FE30E940A107C0192
:1028F00081E40E940A108C0182E40E940A10E80C14
:10290000F91CF7FE03C0BFEFEB1AFB0AF594E7943E
:10291000F0920102E09200020A0D1B1D17FF02C097
:102920000F5F1F4F15950795109303020093020246
:10293000C80ED91ED7FE03C0EFEFCE1ADE0AD5941B
:10294000C794D0920502C092040268E97AE380E05D
:1029500090E00E9429104091060250910702609178
:102960000802709109028BE996E00E94190A4091D1
:102970000A0250910B0260910C0270910D02705886
:102980008DE996E00E94190A0E94C80382309105E1
:1029900009F07FCE10920E0255C08130910599F456
:1029A00010920E0288EB9EE1A5E0BEE380930A023E
:1029B00090930B02A0930C02B0930D028DEC9CEC53
:1029C000ACECBDE37CCE079709F081CE80910E027E
:1029D00081117DCE81E080930E0280910F02909153
:1029E000100201969093100280930F02813091059E
:1029F000B1F54DEC5CEC6CEC7DE38BE996E00E946C
:102A0000190A4DEC5CEC6CEC7DEB8DE996E00E94D4
:102A1000190A6EE571E080E090E00E94291040E024
:102A200050E0BA018BE996E00E94190A4DEC5CEC8B
:102A30006CEC7DEB8DE996E00E94190A0E94C803B8
:102A40000797E1F78DEC9CECACECBDE380930A02B8
:102A500090930B02A0930C02B0930D0230CE02971C
:102A600009F035CE40E050E0BA018BE996E00E94D3
:102A7000190A40E050E060E070E88DE996E00E94BD
:102A8000190AFFCF80916F0590917005843F9140A6
:102A900068F4109234031092330340922F03509243
:102AA0003003609231037092320346C08091710509
:102AB0009091720585974B9708F031CEE5E7F5E0E8
:102AC00082E090E040E050E0BA018C010F5F1F4FC0
:102AD00020916C0530E0021713076CF49F0122501F
:102AE0003109D9012D913C91275031092730310509
:102AF00008F4F6C0C8010197959587959093340323
:102B0000809333030C972CF4109234031092330308
:102B100006CE40932F03509330036093310370939C
:102B2000320384E090E015C040932F0350933003AC
:102B300060933103709332038BE090E00AC0C0923F
:102B40002F03D0923003E0923103F09232038CE0F5
:102B500090E090932C0380932B036ECE463EEFECD7
:102B60005E07E4E06E07E6E67E0709F48DCE81E0BD
:102B700090E0463F5F4C6440764611F480E090E080
:102B800091958195910911C0809111029091120245
:102B9000019708F0AEC583E090E0ABC582E080937A
:102BA000680510926C058FEF9FEF892B09F06CCEB2
:102BB0008091110290911202892B41F487EC92E0EE
:102BC0000E94C60389EE92E00E94C6038091110222
:102BD00090911202019741F487EC92E00E94C603A3
:102BE0008DEF92E00E94C603809111029091120233
:102BF000029719F00E943F0547CE87EC92E00E94B1
:102C0000C60381E193E00E94C603F4CF80916C0576
:102C1000843039F4809173059091740580974797BB
:102C2000F0F080916C05843408F474CD80917305C4
:102C300090917405825491098E9708F06BCD80E0D5
:102C400090E040E050E0BA01FC01EB58FA4F2081DF
:102C500031812950310929303105A8F05BCD8091AF
:102C600075059091760509970997D8F61092340367
:102C70001092330340922F0350923003609231033D
:102C8000709232033BC5FC01E958FA4F2081318133
:102C90002751310922313105B0F4440F551F661F09
:102CA000771F416004968038910571F630923403A5
:102CB0002092330340932F035093300360933103EA
:102CC000709332031BC52081318126503109273092
:102CD000310508F01FCD440F551F661F771FE2CF47
:102CE00020813181235131092F30310540F4440FC7
:102CF000551F661F771F416002963496E6CE2081ED
:102D000031812A5031092930310508F008CD440FAE
:102D1000551F661F771FF0CF809173059091740542
:102D2000C697869708F00FCDE7E7F5E083E090E0DF
:102D300040E050E0BA018C010F5F1F4F20916C05FD
:102D400030E00217130764F49F0122503109D901C2
:102D50002D913C912C5031092B30310580F0C80168
:102D600001979595879590933403809333030C973F
:102D70000CF0DACE1092340310923303E4CC2081AD
:102D80003181255231092B31310540F4440F551F53
:102D9000661F771F416002963496CDCF2081318126
:102DA0002C5031092A30310508F0CDCC440F551F85
:102DB000661F771FF0CFDF0112974D915C9111973D
:102DC0004E5151094731510580F4CC0CDD1CEE1CED
:102DD000FF1C6894C0F840815181349643505109DA
:102DE0004530510578F0C901CACC4D915C914C50E9
:102DF00051094B30510508F0D0CCCC0CDD1CEE1C39
:102E0000FF1CE9CF0296B1CC49E753E0BE016D5FEC
:102E10007F4FCE0101960E944E037C0149E753E0AB
:102E2000BE016D5F7F4FCE0101960E944E03F1E01F
:102E3000EF16F10481F0EF28B9F01C821B82E1E06B
:102E4000F0E0FA83E98380913703909138031816F4
:102E500019069CF06AC0892B81F7880C991CAA1C62
:102E6000BB1C689480F806C0019739F7880C991C40
:102E7000AA1CBB1C0F5F1F4FC4CCE0913503F0911F
:102E8000360382E090E09A838983828193818997D7
:102E90004E9708F04AC023E030E03A8329838481CA
:102EA00095810B970A9708F040C04CEB51E0BE01AA
:102EB0006D5F7F4FCE0101960E944E03892BA9F5CD
:102EC0004CEB51E0BE016D5F7F4FCE0101960E9439
:102ED0004E03019751F5812C912C540100E010E034
:102EE000209137033091380389819A8182179307A3
:102EF0000CF026C14CEB51E0BE016D5F7F4FCE015F
:102F000001960E944E037C010330110509F0E2C0D6
:102F10004CEB51E0BE016D5F7F4FCE0101960E94E8
:102F20004E03E816F90609F4D5C0E0913503F09197
:102F3000360382819381C6978697E0F484819581D8
:102F40004B974597B8F4DF0116967F0136ECE30EF8
:102F5000F11C20E030E040E050E060E070E080E014
:102F600090E00D911C91119709501109083011053D
:102F700008F4F5C080916C05893370F182819381EA
:102F8000895791098335910508F425C125C0D901D8
:102F900012966D917C91139766517109613171059B
:102FA00008F045C1D701C601880F991FAA1FBB1F92
:102FB0006C017D016894C0F84E5F5F4F2C5F3F4FFE
:102FC0004B33510509F416C1D9016D917C916A50BA
:102FD000710969307105D8F280916C05823231F443
:102FE000828193810A97099708F431C18281938184
:102FF0008957910983359105D0F480916C05813210
:10300000B0F084819581CA97899788F49F012A5FDF
:103010003F4FC12CD12C760143E050E0D9016D9196
:103020007C916A5071096930710508F42CC1828164
:1030300093818C549109C59778F480916C05843004
:1030400031F4848195818097479708F47CC1809101
:103050006C05843408F05EC180916C05863460F1A3
:10306000828193810C970B9708F4B7C125C0D901D1
:1030700012966D917C9113976E51710967317105AC
:1030800008F0E1C1D701C601880F991FAA1FBB1F15
:103090006C017D016894C0F84E5F5F4F2C5F3F4F1D
:1030A0004534510509F4B4C1D9016D917C916C503E
:1030B00071096B307105D8F280916C05883508F480
:1030C0002AC282819381855891098B35910508F434
:1030D000CAC121C24CEB51E0BE016D5F7F4FCE01F2
:1030E00001960E944E036C010330110569F44CEB0C
:1030F00051E0BE016D5F7F4FCE0101960E944E03ED
:10310000C816D90609F011CFE114F10459F4CA9494
:10311000CD2809F00ACF880C991CAA1CBB1C689406
:1031200080F80BC0EA94EF2809F0FFCECD2809F013
:10313000FCCE880C991CAA1CBB1C0F5F1F4FD0CE65
:10314000109334030093330380922F039092300343
:10315000A0923103B092320382E090E0FACC129652
:103160000D911C911397015111090D30110528F58E
:1031700001E00E94DE1E21601496AE15BF0509F025
:10318000F0CE20932F0330933003409331035093BC
:10319000320300E20E94F91E20932D0330932E0388
:1031A000A5E0B0E0B0932C03A0932B03E0E3F0E0A4
:1031B000F0933403E09333033FCB12960D911C91AF
:1031C0001397045011090530110508F0D3CE01E022
:1031D0000E94DE1ED1CF84819581CA97899708F01D
:1031E000FBCE9F012A5F3F4FC12CD12C760143E0DB
:1031F00050E0EACE9F012A583F4FD9012D913C91D2
:103200002A5031092930310508F0E6CE2CE130E0B2
:103210003093340320933303C0922F03D0923003B2
:10322000E0923103F09232038AE090E092CCD9012F
:1032300012966D917C9113976650710967307105F4
:1032400008F0CACECC0CDD1CEE1CFF1CB5CE2091C4
:103250006C05CF01820F911D820F911DDC01129729
:103260008D919C910A97099708F0C0CE1092340373
:103270001092330340922F03509230036092310337
:103280007092320342C2D90112966D917C911397CC
:10329000665171096131710568F5D701C601880F62
:1032A000991FAA1FBB1F6C017D016894C0F84E5F77
:1032B0005F4F2C5F3F4F4332510509F0AFCE9F0166
:1032C0002A5B3F4FD9012D913C912A503109293079
:1032D000310508F0ACCEE0E1F0E0F0933403E09388
:1032E0003303C0922F03D0923003E0923103F09267
:1032F00032030BC2D90112966D917C9113976650DF
:1033000071096730710508F092CECC0CDD1CEE1C03
:10331000FF1CCDCF8481958189549109C39708F012
:103320009BCE9F012A5F3F4FBF016A577F4FC12C41
:10333000D12C7601D9014D915C9149505109493008
:103340005105A0F089CE868197810997099708F0E9
:103350007ECE109234031092330340922F0350928A
:103360003003609231037092320325C0D901129666
:103370004D915C9113974651510941315105F0F43B
:10338000D701C601880F991FAA1FBB1F6C017D01C1
:103390006894C0F82C5F3F4F2617370759F63092D4
:1033A000340320923303C0922F03D0923003E09273
:1033B0003103F092320387E090E0CBCB12964D912F
:1033C0005C911397465051094730510508F044CE9F
:1033D000CC0CDD1CEE1CFF1CDDCF84819581099790
:1033E000099708F069CE868197818C974F9708F0EE
:1033F00063CE8085918589974D9708F05DCE9F01BA
:10340000265F3F4FC12CD12C760145E050E04CCED9
:103410009F0126573F4FD9012D913C912C503109E6
:103420002B30310508F048CE30923403209233031C
:10343000C0922F03D0923003E0923103F092320316
:1034400088E090E086CBD90112966D917C9113971C
:10345000695071096930710508F02ECECC0CDD1C65
:10346000EE1CFF1C19CE84819581825491098E97A0
:1034700008F051C08F01045C1F4F8DE190E020E007
:1034800030E040916C0550E0445051098417950795
:10349000ACF4A80142505109DA014D915C914950B8
:1034A00051094830510510F136C0D8014D915C9159
:1034B000485151094231510558F1CB010197959579
:1034C000879590933403809333038A9724F1C9013D
:1034D000330FAA0BBB0B80932F0390933003A09361
:1034E0003103B093320389E090E033CBBC016F5FCE
:1034F0007F4FD8014D915C9147505109473051059C
:10350000A0F6220F331F216002960C5F1F4FB9CF28
:10351000220F331FF9CF80916C058032E1F4828154
:10352000938106970697B8F4848195810997099746
:1035300090F49F012A5F3F4FBF01625C7F4FC12C17
:10354000D12C7601D9014D915C91465051094630FC
:10355000510508F486C0209137033091380338872D
:103560002F83263031050CF419CB8F010E5F1F4FCE
:1035700055ECC52E5DE9D52E5CE1E52E51E8F52E22
:1035800083E090E09E838D83D80114966D917C91A9
:103590001597AD90BC9080E090E00E94381D69873F
:1035A0007A878B879C87B50180E090E00E94381D68
:1035B0004B015C012DEC3CEC4CE45FE30E94991D57
:1035C0009B01AC0169857A858B859C850E94331DA2
:1035D00087FD19C02DEC3CEC4CE45FE369857A85EE
:1035E0008B859C850E94991D9B01AC01C501B4018E
:1035F0000E94331DE82F880FFF0BEE27FF0FEE1FF1
:10360000FF27319602C0E0E0F0E0A701960163E9F0
:1036100071E080E091E00E94BA1E6F01FF0FEE089A
:10362000FF08C626D726E826F926ED81FE813196C9
:10363000FE83ED830E5F1F4F2F8138852E173F07C6
:1036400009F0A2CFC0922F03D0923003E092310351
:10365000F092320330923403209233038FEF9FEFC6
:1036600078CAD90112964D915C911397495151092D
:103670004331510508F5D701C601880F991FAA1FCC
:10368000BB1F6C017D016894C0F82C5F3F4F26176B
:10369000370709F057CF2EE030E030933403209302
:1036A0003303C0922F03D0923003E0923103F092A3
:1036B00032038FE090E04DCAD90112964D915C9192
:1036C0001397495051094930510508F044CFCC0CAB
:1036D000DD1CEE1CFF1CD9CF8091110290911202CB
:1036E00001968430910529F4109212021092110271
:1036F00081CA90931202809311027CCAE3E0F0E049
:10370000F0932C03E0932B0397C886E090E021CA46
:10371000109288031092870388EE93E0A0E0B0E057
:103720008093890390938A03A0938B03B0938C03B7
:1037300026E732E0309386032093850310929403AA
:10374000109293038093950390939603A09397030D
:10375000B093980328E832E03093920320939103CA
:1037600045E351E050939E0340939D0344E351E0B1
:103770005093A00340939F0340E351E05093A20372
:103780004093A10341E351E05093A4034093A3036A
:1037900042E351E05093A6034093A50346E351E072
:1037A0005093A8034093A7031092AA031092AB036F
:1037B0001092AC031092AD031092310410923004B9
:1037C0008093320490933304A0933404B09335046F
:1037D00030932F0420932E0445ED50E050933B048A
:1037E00040933A0444ED50E050933D0440933C0430
:1037F00040ED50E050933F0440933E0441ED50E0D3
:10380000509341044093400442ED50E050934304F0
:103810004093420446ED50E05093450440934404E5
:1038200010924704109248041092490410924A04DE
:103830001092CE041092CD048093CF049093D004C4
:10384000A093D104B093D2043093CC042093CB0442
:1038500085EC90E09093D8048093D70484EC90E0BA
:103860009093DA048093D90480EC90E09093DC0488
:103870008093DB0481EC90E09093DE048093DD0480
:1038800082EC90E09093E0048093DF0486EC90E07B
:103890009093E2048093E1041092E4041092E50412
:1038A0001092E6041092E70480916A0290916B02F4
:1038B000A0916C02B0916D028093A3069093A40630
:1038C000A093A506B093A60680916E0290916F0218
:1038D000A0917002B09171028093A7069093A80600
:1038E000A093A906B093AA0684E08093AB0687E074
:1038F0008093AC061092AD0684EB8093AE0686E111
:103900008093AF0688E18093B00687E18093B1068B
:1039100089E18093B206E0917606EC3020F08FEFDB
:103920008093B30610C081E08E0F80937606E093FB
:10393000B30625E0E29FF0011124E65CF94F88EB25
:103940009BE092838183E0917606EC3020F08FEF4C
:103950008093B40610C081E08E0F80937606E093CA
:10396000B40685E0E89FF0011124E65CF94F88EB8E
:103970009BE0928381838CE08093820684E2809333
:10398000830686E08093840685E0809385068FE138
:10399000809386068EE18093870683E28093880673
:1039A00082E28093890685E480938A0684E480938A
:1039B0008B0680E480938E061092930610929406F4
:1039C00010929506109296061092970610929806FD
:1039D0001092990610929A06EAEBF6E08FEF9FEFAD
:1039E000DC011282138214821582168217821086DD
:1039F000118683879487A587B6878787908BA18B4D
:103A0000B28B128611821082739627E0E837F20794
:103A100041F78DE090E00E942F20FC01138212827A
:103A20008AE992E091838083118687E2848384E12E
:103A3000828784E083871486F0937F06E0937E0676
:103A4000109280061092810685E28093690510929B
:103A50006B0567E273E087E796E00C94480787E719
:103A600096E00C9443070E94751D08F481E00895C8
:103A7000E89409C097FB3EF4909580957095619508
:103A80007F4F8F4F9F4F9923A9F0F92F96E9BB27BE
:103A90009395F695879577956795B795F111F8CF3A
:103AA000FAF4BB0F11F460FF1BC06F5F7F4F8F4FA5
:103AB0009F4F16C0882311F096E911C0772321F09B
:103AC0009EE8872F762F05C0662371F096E8862F33
:103AD00070E060E02AF09A95660F771F881FDAF78A
:103AE000880F9695879597F90895990F0008550FB7
:103AF000AA0BE0E8FEEF16161706E807F907C0F074
:103B000012161306E407F50798F0621B730B840B7B
:103B1000950B39F40A2661F0232B242B252B21F455
:103B200008950A2609F4A140A6958FEF811D811DF5
:103B300008950E94AC1D0C941D1E0E940F1E38F0AB
:103B40000E94161E20F0952311F00C94061E0C9472
:103B50000C1E11240C94511E0E942E1E70F3959F72
:103B6000C1F3950F50E0551F629FF001729FBB2774
:103B7000F00DB11D639FAA27F00DB11DAA1F649F10
:103B80006627B00DA11D661F829F2227B00DA11DC3
:103B9000621F739FB00DA11D621F839FA00D611D49
:103BA000221F749F3327A00D611D231F849F600D6A
:103BB000211D822F762F6A2F11249F5750409AF093
:103BC000F1F088234AF0EE0FFF1FBB1F661F771F1F
:103BD000881F91505040A9F79E3F510580F00C94EA
:103BE000061E0C94511E5F3FE4F3983ED4F3869575
:103BF00077956795B795F795E7959F5FC1F7FE2B8A
:103C0000880F911D9695879597F9089597F99F6765
:103C100080E870E060E008959FEF80EC0895002454
:103C20000A941616170618060906089500240A9421
:103C300012161306140605060895092E0394000CA7
:103C400011F4882352F0BB0F40F4BF2B11F460FF36
:103C500004C06F5F7F4F8F4F9F4F089557FD90585F
:103C6000440F551F59F05F3F71F04795880F97FB40
:103C7000991F61F09F3F79F08795089512161306FA
:103C80001406551FF2CF4695F1DF08C01616170629
:103C90001806991FF1CF869571056105089408955E
:103CA000E894BB2766277727CB0197F90895052E5F
:103CB00097FB1EF400940E946E1E57FD07D00E94D1
:103CC000891E07FC03D04EF40C946E1E509540954F
:103CD000309521953F4F4F4F5F4F089590958095B8
:103CE000709561957F4F8F4F9F4F08950E94AB1E37
:103CF000A59F900DB49F900DA49F800D911D112440
:103D00000895B7FF0C94761E0E94761E821B930BBB
:103D10000895A1E21A2EAA1BBB1BFD010DC0AA1F0C
:103D2000BB1FEE1FFF1FA217B307E407F50720F024
:103D3000A21BB30BE40BF50B661F771F881F991F9F
:103D40001A9469F760957095809590959B01AC01E8
:103D5000BD01CF010895A29FB001B39FC001A39FF1
:103D6000700D811D1124911DB29F700D811D1124B4
:103D7000911D0895DB018F939F930E94761EBF9142
:103D8000AF91A29F800D911DA39F900DB29F900DAA
:103D900011240895991B79E004C0991F961708F023
:103DA000961B881F7A95C9F780950895EE0FFF1F1F
:103DB000881F8BBF0790F691E02D19940F93083060
:103DC00090F0982F872F762F652F542F432F322F67
:103DD00022270850F4CF220F331F441F551F661FA0
:103DE000771F881F991F0A95B2F70F91089597FBC7
:103DF00010F8169400080F93083098F00850232FFD
:103E0000342F452F562F672F782F892F902DF4CFE1
:103E10000594979587957795679557954795379525
:103E200027950A95AAF70F9108955058BB27AA27FE
:103E30000E942D1F0C941D1E0E940F1E38F00E9420
:103E4000161E20F039F49F3F19F426F40C940C1E32
:103E50000EF4E095E7FB0C94061EE92F0E942E1E3F
:103E600058F3BA17620773078407950720F079F4AF
:103E7000A6F50C94501E0EF4E0950B2EBA2FA02D33
:103E80000B01B90190010C01CA01A0011124FF2707
:103E9000591B99F0593F50F4503E68F11A16F04002
:103EA000A22F232F342F4427585FF3CF4695379501
:103EB0002795A795F0405395C9F77EF41F16BA0BC6
:103EC000620B730B840BBAF09150A1F0FF0FBB1F74
:103ED000661F771F881FC2F70EC0BA0F621F731FBD
:103EE000841F48F4879577956795B795F7959E3F1A
:103EF00008F0B0CF9395880F08F09927EE0F9795AB
:103F0000879508950E94961F0C941D1E0E94161EF0
:103F100058F00E940F1E40F029F45F3F29F00C94E6
:103F2000061E51110C94511E0C940C1E0E942E1E44
:103F300068F39923B1F3552391F3951B550BBB27D8
:103F4000AA2762177307840738F09F5F5F4F220F1D
:103F5000331F441FAA1FA9F335D00E2E3AF0E0E814
:103F600032D091505040E695001CCAF72BD0FE2F5E
:103F700029D0660F771F881FBB1F261737074807F2
:103F8000AB07B0E809F0BB0B802DBF01FF279358AA
:103F90005F4F3AF09E3F510578F00C94061E0C944A
:103FA000511E5F3FE4F3983ED4F38695779567956D
:103FB000B795F7959F5FC9F7880F911D96958795DF
:103FC00097F90895E1E0660F771F881FBB1F6217FE
:103FD00073078407BA0720F0621B730B840BBA0BBC
:103FE000EE1F88F7E09508950E94FB1F6894B111B9
:103FF0000C94511E08950E94361E88F09F5798F029
:10400000B92F9927B751B0F0E1F0660F771F881FDD
:10401000991F1AF0BA95C9F714C0B13091F00E94F7
:10402000501EB1E008950C94501E672F782F8827FA
:10403000B85F39F0B93FCCF3869577956795B3951E
:10404000D9F73EF490958095709561957F4F8F4F8D
:104050009F4F08950E94751D08F48FEF08950F93E8
:104060001F93CF93DF938230910510F482E090E0AC
:10407000E0910D08F0910E0820E030E0A0E0B0E003
:10408000309719F1408151810281138148175907F6
:10409000C8F08417950769F4109731F012960C93C5
:1040A000129713961C9327C000930D0810930E08C7
:1040B00022C02115310519F04217530718F49A014F
:1040C000BD01EF01DF01F801DBCF21153105F9F06A
:1040D000281B390B2430310580F48A819B816115BE
:1040E000710521F0FB019383828304C090930E0835
:1040F00080930D08FE01329644C0FE01E20FF31FCB
:104100008193919322503109398328833AC02091B9
:104110000B0830910C08232B41F42091660230915A
:10412000670230930C0820930B08209164023091B1
:1041300065022115310541F42DB73EB74091680263
:1041400050916902241B350BE0910B08F0910C088B
:10415000E217F307A0F42E1B3F0B2817390778F05E
:10416000AC014E5F5F4F2417350748F04E0F5F1FBD
:1041700050930C0840930B088193919302C0E0E0A8
:10418000F0E0CF01DF91CF911F910F910895CF9370
:10419000DF93009709F481C0FC01329713821282E9
:1041A000A0910D08B0910E08109781F42081318103
:1041B000820F931F20910B0830910C0828173907A4
:1041C00051F5F0930C08E0930B0867C0ED0120E077
:1041D00030E0CE17DF0740F44A815B819E01411534
:1041E0005105F1F0EA01F5CFD383C28340815181BB
:1041F000840F951FC817D90759F488819981840FB6
:10420000951F0296918380838A819B819383828309
:104210002115310529F4F0930E08E0930D083DC0F7
:10422000E901FB83EA8349915991C40FD51FEC172B
:10423000FD0761F480819181840F951F0296E90149
:1042400099838883828193819B838A83E0E0F0E075
:1042500012968D919C911397009719F0FD01DC0146
:10426000F7CF8D919C9111979D012E5F3F4F820F4B
:10427000931F20910B0830910C082817390769F417
:10428000309729F410920E0810920D0802C0138284
:104290001282B0930C08A0930B08DF91CF91089580
:1042A0006F927F928F929F92AF92BF92CF92DF9246
:1042B000EF92FF920F931F93CF93DF93009789F4B0
:1042C000CB01DF91CF911F910F91FF90EF90DF9085
:1042D000CF90BF90AF909F908F907F906F900C94F5
:1042E0002F20FC01E60FF71F9C0122503109E21735
:1042F000F30708F4A9C0EC01D9010D911C911197A5
:1043000006171707B0F00530110508F49BC0C80167
:1043100004978617970708F495C002501109061BE9
:10432000170B019311936D937C93CF010E94C720CB
:1043300089C05B01A01AB10A4C01800E911EA091A8
:104340000D08B0910E08612C712CE12CF12C109706
:1043500009F446C08D919C911197A815B905B1F546
:104360006C0142E0C40ED11CCA14DB0478F14C018C
:104370008A189B08640142E0C40ED11C1296BC90BE
:1043800012971396AC91B5E0CB16D10440F0B282EF
:10439000A38391828082D9016D937C9309C00E5FC3
:1043A0001F4F800F911FF90191838083EB2DFA2F0E
:1043B000E114F10431F0D7011396FC93EE931297B8
:1043C00041C0F0930E08E0930D083CC068167906D2
:1043D00008F43C017D0112960D90BC91A02DB7CF41
:1043E00080910B0890910C0888169906E1F46616E6
:1043F0007706C8F48091640290916502009741F4B9
:104400008DB79EB74091680250916902841B950B4D
:10441000E817F907C8F4F0930C08E0930B08F901CA
:10442000718360830FC0CB010E942F207C01009715
:1044300059F0A801BE010E943A22CE010E94C72075
:10444000C70104C0CE0102C080E090E0DF91CF91AF
:104450001F910F91FF90EF90DF90CF90BF90AF90A2
:104460009F908F907F906F90089581E090E0F894F6
:104470000C944A22FB01DC0102C001900D924150D4
:104480005040D8F70895FB01DC0101900D92002007
:10449000E1F7089511E0C4E9D1E000E006C0802F03
:1044A000FE010E94D61E2196011DC539D10780E06C
:0844B0000807A9F7F894FFCFFB
:1044B800C800C8008200CDCCCC3DCDCCCC3D00009E
:1044C800000000427572676572000000000000007D
:1044D800000000000000004261636F6E20427572A8
:1044E800676572000000000000000043686565739E
:1044F8006520427572676572000000000000005375
:1045080065747570000000000000000000000000E5
:10451800000000FF00000F088000363738391B1DE7
:104528001A1C00000000870D5A0DE6062E0D520DCC
:104538003E0D2F0D000000004706A005CA05940691
:10454800FB05D905ED0500000000EB06A005E60611
:104558009F050000400014005400536572766F20D8
:10456800616E676C65206973206F7574206F6620B3
:1045780072616E676521000A0D00526F626F7420C8
:1045880073757220626C616E6300526F626F742083
:10459800737572206E6F6972006372656174696FFA
:1045A8006E2064752062757267657231006372658A
:1045B8006174696F6E206475206275726765723206
:1045C800006372656174696F6E206475206275722C
:0A45D80067657233000D0A00200031
:00000001FF
