:100000000C9491010C94C2010C94C2010C94C20195
:100010000C94C2010C94C2010C94C2010C94C20154
:100020000C94C2010C94ED0D0C94ED0D0C94ED0D9F
:100030000C94C2010C94D1040C94C2010C94C20122
:100040000C94C2010C94C7080C94C2010C94C20118
:100050000C94C2010C94C2010C94C2010C9487044C
:100060000C94C2010C9442060C9418060C94C20124
:100070000C94C2010C94C2010C94C2010C94C201F4
:100080000C94C2010C94C2010C94C2010C94C201E4
:100090000C94C2010C94C2010C94C2010C94F70D93
:1000A0000C94C2010C94C2010C94C2010C94C201C4
:1000B0000C94C2010C94C2010C94C2010C946C0605
:1000C0000C94C2010C94C2010C94C2010C94EE0574
:1000D0000C94C4050C94C2010C949A050C94700500
:1000E0000C94C201F303F603E503E903EF032D04C7
:1000F000FA03FE03040408040C04120416041A0490
:100100002D04200424042804B307B807BD07C7073B
:10011000D1074A08DB07E307EB07F507FF070908E4
:10012000180822084A082C08360840080C94FA03DC
:100130000C94B3070C94FF070C942E0C0C9416042B
:100140000C9478020C9424040C94F3030C9422086D
:100150000C9409080C94EF030C94E5030C94F6033B
:100160000C94FE030C944A080C9420040C94D107C0
:100170000C942C080C94CB110C94E3070C943D0CBC
:100180000C94B8070C941F0C0C94C5110C94DB074D
:100190000C9485030C94750C0C9469020C9428043F
:1001A0000C94B3030C9412040C942D040C941808B2
:1001B0000C94BD070C940C040C9408040C94400897
:1001C0000C948C020C94C7070C949A020C94450C66
:1001D0000C94EB070C94F5070C9486030C94E50241
:1001E0000C942C030C941A040C9425020C94200CEF
:1001F0000C9436080C94E9030C94040400002000CD
:100200002300260029002C002F00320000010000EE
:100210000301060109010200002100240027002A31
:10022000002D003000330001010000040107010A25
:100230000100002200250028002B002E0031003490
:100240000002010000050108010B01050505050775
:100250000508080808020202020A0A080804040441
:10026000040101010101010101030303030303036D
:1002700003040707070C0C0C0C0C0C0C0C020202FC
:100280000206060606060606060B0B0B0B0B0B0BEF
:100290000B0102102020080810204010204080028E
:1002A00001020108040201010204081020408080BC
:1002B0004020100804020180040201804020100840
:1002C0000402010804020101020408102040800118
:1002D0000204081020408000000A0B02090C0D0ED9
:1002E00008070304010000000000000000000000F7
:1002F00000000000000000000000000000000000FE
:1003000000000012111000000000000000000000BA
:100310000000000000000000000000000000CB1101
:10032000C51111241FBECFEFD1E2DEBFCDBF00E06B
:100330000CBF13E0A0E0B2E0EEEFFFE200E00BBF85
:1003400002C007900D92A831B107D9F728E0A8E1C3
:10035000B3E001C01D92AB33B207E1F711E0C0E991
:10036000D1E000E006C021970109802FFE010E9424
:100370007F15CF38D10780E00807A9F70E94590FF1
:100380000C94ED170C940000CF93DF9390E0FC01E8
:10039000EF56FD4F2491FC01E55BFD4F84918823CE
:1003A00061F190E0880F991FFC01E95EFD4FC59156
:1003B000D491FC01EF5CFD4FA591B491611109C08E
:1003C0009FB7F8948881209582238883EC912E230F
:1003D0000BC0623061F49FB7F8943881822F80950A
:1003E00083238883EC912E2B2C939FBF06C08FB75D
:1003F000F894E8812E2B28838FBFDF91CF91089549
:100400003FB7F89480913F0390914003A09141033E
:10041000B091420326B5A89B05C02F3F19F0019665
:10042000A11DB11D3FBFBA2FA92F982F8827820F7A
:10043000911DA11DB11DBC01CD0142E0660F771FCA
:10044000881F991F4A95D1F70895CF92DF92EF92B6
:10045000FF920F931F93CF93DF936C017A018B016F
:10046000C0E0D0E0CE15DF0589F0D8016D918D0197
:10047000D601ED91FC910190F081E02DC601199516
:10048000892B11F47E0102C02196ECCFC701DF91C8
:10049000CF911F910F91FF90EF90DF90CF90089533
:1004A000FC01A089B1898C91A689B78982FD0FC012
:1004B0009C91818D8F5F8F73228D821749F0218DE2
:1004C000DF01A20FB11D5D969C93818F08958C91E1
:1004D0000895FC01538D448D252F30E0842F90E04A
:1004E000821B930B541710F0CF960895019708952F
:1004F000FC01918D828D981761F0828DDF01A80F2C
:10050000B11D5D968C91928D9F5F9F73928F90E04D
:1005100008958FEF9FEF0895FC01918D828D9817BC
:1005200031F0828DE80FF11D858D90E008958FEFF9
:100530009FEF0895FC01918D228D892F90E0805CC2
:100540009F4F821B91098F73992708958AE993E041
:100550000E949A0221E0892B09F420E0822F08955D
:1005600087E394E00E949A0221E0892B09F420E0BD
:10057000822F089584ED94E00E949A0221E0892B55
:1005800009F420E0822F0895FC01848DDF01A80F7B
:10059000B11DA35ABF4F2C91848D90E001968F73AB
:1005A0009927848FA689B7892C93A089B1898C91CA
:1005B00080648C93938D848D981306C00288F38990
:1005C000E02D80818F7D80830895EF92FF920F93BD
:1005D0001F93CF93DF93EC0181E0888F9B8D8C8DEF
:1005E000981305C0E889F989808185FD24C0F62E1D
:1005F0000B8D10E00F5F1F4F0F731127E02E8C8DB6
:10060000E8120CC00FB607FCFACFE889F98980819F
:1006100085FFF5CFCE010E94C402F1CF8B8DFE0184
:10062000E80FF11DE35AFF4FF0820B8FEA89FB8937
:100630008081806207C0EE89FF896083E889F9893B
:1006400080818064808381E090E0DF91CF911F9171
:100650000F91FF90EF900895CF93DF93EC01888D79
:100660008823C9F0EA89FB89808185FD05C0A889B6
:10067000B9898C9186FD0FC00FB607FCF5CF80813C
:1006800085FFF2CFA889B9898C9185FFEDCFCE0186
:100690000E94C402E7CFDF91CF910895E0E0F0E03F
:1006A000199480E090E0892B21F00E94BA02811118
:1006B00019C080E090E0892B41F080E090E0892B28
:1006C00021F00E940000811110C00E94B00281112F
:1006D0000FC080E090E0892B81F00E94A60281117A
:1006E0000AC008950E940000E4CF0E940000EDCFF0
:1006F0000E944E03EECF0C94000008958EBD0000C2
:100700000DB407FEFDCF8EB50895089580E090E00A
:1007100008950E94D817FC01248131E030936A03C8
:1007200020938C0310926B0310928D038485682BA9
:100730008EE893E00E94750C0C94B7090F931F93F9
:10074000CF938C01C62F64600E948B036C2F6B7F4C
:10075000C8010E948B0383EC90E00197F1F7CF91E1
:100760001F910F9108950F931F93CF93DF938C01E7
:10077000C62FD62FD07FD1606D2F0E948B036D2F97
:10078000C8010E949E0380E1C89FB0011124C62FBA
:10079000C1606C2FC8010E948B036C2FC8010E949E
:1007A0009E0381E090E0DF91CF911F910F9108951A
:1007B00090E0FC013197E231F10508F04EC0882746
:1007C000EE58FF4F8F4F0C947F15809180008F77EC
:1007D00003C0809180008F7D809380000895809178
:1007E0008000877FF9CF84B58F7702C084B58F7D75
:1007F00084BD08958091B0008F7703C08091B000D0
:100800008F7D8093B0000895809190008F7707C00E
:10081000809190008F7D03C080919000877F8093AE
:10082000900008958091A0008F7707C08091A0006C
:100830008F7D03C08091A000877F8093A0000895E2
:10084000809120018F7707C0809120018F7D03C0A8
:1008500080912001877F809320010895863308F0DE
:10086000865390917B00282F2870977F922B90932E
:100870007B008770806480937C0080917A00806424
:1008800080937A0080917A0086FDFCCF8091780079
:100890002091790090E0922B08958F929F92AF92D1
:1008A000BF92CF92DF92EF92FF926B017C010E9488
:1008B00000024B015C01C114D104E104F104F1F028
:1008C0000E940002DC01CB0188199909AA09BB0921
:1008D000883E9340A105B10570F321E0C21AD1080A
:1008E000E108F10888EE880E83E0981EA11CB11C77
:1008F000C114D104E104F10419F7DDCFFF90EF90AA
:10090000DF90CF90BF90AF909F908F9008951F92EF
:100910000F920FB60F9211242F933F938F939F93B3
:10092000AF93BF9380913B0390913C03A0913D0313
:10093000B0913E0330913A0323E0230F2D3720F48A
:100940000196A11DB11D05C026E8230F0296A11D29
:10095000B11D20933A0380933B0390933C03A093F3
:100960003D03B0933E0380913F0390914003A091DB
:100970004103B09142030196A11DB11D80933F0335
:1009800090934003A0934103B0934203BF91AF9172
:100990009F918F913F912F910F900FBE0F901F90BD
:1009A00018951F920F920FB60F9211240BB60F924B
:1009B0002F933F934F935F936F937F938F939F9367
:1009C000AF93BF93EF93FF938091350390913603DC
:1009D000A0913703B0913803892B8A2B8B2B59F1C7
:1009E00080913403E0913203F091330390818927A1
:1009F00080838091350390913603A0913703B091A5
:100A00003803181619061A061B060CF056C08091FA
:100A1000350390913603A0913703B09138030197C5
:100A2000A109B1098093350390933603A09337034E
:100A3000B093380342C080910002E6E1F2E0E49115
:100A40009FEF90930002E230C9F050F4EE2399F04A
:100A5000E13081F590916F009D7F90936F002AC0E7
:100A6000E43019F1E0F0E53029F5909173009D7FB5
:100A7000909373001FC010926E001CC09091700084
:100A80009D7F9093700091E09093B0009091B100A1
:100A9000987F94609093B1001092B3000BC0909136
:100AA00071009D7F9093710005C0909172009D7FB1
:100AB0009093720060E00E94290FFF91EF91BF9127
:100AC000AF919F918F917F916F915F914F913F91E6
:100AD0002F910F900BBE0F900FBE0F901F90189587
:100AE0001F920F920FB60F9211240BB60F922F93F5
:100AF0003F934F935F936F937F938F939F93AF93A6
:100B0000BF93EF93FF938AE993E00E94C402FF91A1
:100B1000EF91BF91AF919F918F917F916F915F9175
:100B20004F913F912F910F900BBE0F900FBE0F90E2
:100B30001F9018951F920F920FB60F9211240BB6AB
:100B40000F922F933F934F935F936F937F938F9366
:100B50009F93AF93BF93EF93FF938AE993E00E9433
:100B60005002FF91EF91BF91AF919F918F917F9133
:100B70006F915F914F913F912F910F900BBE0F900E
:100B80000FBE0F901F9018951F920F920FB60F92E5
:100B900011240BB60F922F933F934F935F936F9354
:100BA0007F938F939F93AF93BF93EF93FF9387E3CD
:100BB00094E00E94C402FF91EF91BF91AF919F9189
:100BC0008F917F916F915F914F913F912F910F90F6
:100BD0000BBE0F900FBE0F901F9018951F920F9293
:100BE0000FB60F9211240BB60F922F933F934F9392
:100BF0005F936F937F938F939F93AF93BF93EF9385
:100C0000FF9387E394E00E945002FF91EF91BF9120
:100C1000AF919F918F917F916F915F914F913F9194
:100C20002F910F900BBE0F900FBE0F901F90189535
:100C30001F920F920FB60F9211240BB60F922F93A3
:100C40003F934F935F936F937F938F939F93AF9354
:100C5000BF93EF93FF9384ED94E00E94C402FF9151
:100C6000EF91BF91AF919F918F917F916F915F9124
:100C70004F913F912F910F900BBE0F900FBE0F9091
:100C80001F9018951F920F920FB60F9211240BB65A
:100C90000F922F933F934F935F936F937F938F9315
:100CA0009F93AF93BF93EF93FF9384ED94E00E94E3
:100CB0005002FF91EF91BF91AF919F918F917F91E2
:100CC0006F915F914F913F912F910F900BBE0F90BD
:100CD0000FBE0F901F9018951F920F920FB60F9294
:100CE00011240BB60F922F933F934F935F936F9303
:100CF0007F938F939F93AF93BF93CF93DF93EF93A4
:100D0000FF932091720530E0F901E952FD4F849183
:100D1000F901EF56FD4FD491F901E55BFD4FC49108
:100D2000CC23A1F081110E94D803EC2FF0E0EE0F4C
:100D3000FF1FE450FE4FA591B491EC91ED2331E0FB
:100D400020E009F430E0832F922F02C080E090E091
:100D500020917605309177052F5F3F4F30937705CF
:100D60002093760520917505253618F026E020930E
:100D70007105209171052430D9F128F4223069F0F1
:100D80002330D9F060C0253009F453C0263009F073
:100D90005AC021E02093420653C0009709F053C087
:100DA00020917605309177052436310508F443C04B
:100DB00010924206109275051DC08130910509F010
:100DC00042C0E091750521E02E0F20937505F0E0FB
:100DD0002091760530917705EE0FFF1FEF58FA4FFF
:100DE00030872783109277051092760524E029C07A
:100DF0000097B9F4E091750521E02E0F2093750559
:100E0000F0E02091760530917705EE0FFF1FEF5847
:100E1000FA4F30872783109277051092760523E0EA
:100E200010C020917605309177052536310558F0B0
:100E300007C0009741F4109277051092760503C021
:100E400025E020937105209174052223B9F0892BA8
:100E500051F480917305882321F08091730561E03E
:100E600009C02F9A0BC080917305882331F08091BF
:100E7000730560E00E94290F01C02F98FF91EF9148
:100E8000DF91CF91BF91AF919F918F917F916F91A2
:100E90005F914F913F912F910F900BBE0F900FBE1E
:100EA0000F901F9018958F929F92AF92BF92CF9202
:100EB000DF92EF92FF920F931F93CF93DF93EC019A
:100EC0006A017B0120E030E04FE753E4C701B6013F
:100ED0000E945A144B015C0120E030E0A9010E94FD
:100EE000BD1518161CF4C501B40103C0C501B40139
:100EF00090580E9487158B0120E030E0A901C701BE
:100F0000B6010E94BD15181614F460E001C061E03E
:100F100089810E94290F0F3F110509F014F4112750
:100F200002C00FEF10E0C88161E08C2F0E94C40165
:100F30000115110509F4B1C00F3F110509F4AFC047
:100F4000EC2FF0E0E952FD4FE4914E2F50E0FA0112
:100F50003197E231F10508F09DC08827EC57FF4F2B
:100F60008F4F0C947F1584B5806884BD07BDA7C0E2
:100F700084B5806284BD08BDA2C080918000806875
:100F800080938000109389000093880098C080911E
:100F9000800080628093800010938B0000938A0011
:100FA0008EC08091800088608093800010938D00B7
:100FB00000938C0084C08091B00080688093B00062
:100FC0000093B3007CC08091B00080628093B00039
:100FD0000093B40074C0809190008068809390006A
:100FE00010939900009398006AC0809190008062ED
:100FF0008093900010939B0000939A0060C08091B2
:10100000900088608093900010939D0000939C0056
:1010100056C08091A00080688093A0008091A000BD
:101020008F7B8093A0001093A9000093A80047C075
:101030008091A00080628093A0001093AB00009389
:10104000AA003DC08091A00088608093A00010930A
:10105000AD000093AC0033C0809120018068809384
:101060002001109329010093280129C080912001BB
:1010700080628093200110932B0100932A011FC0EE
:101080008091200188608093200110932D010093AE
:101090002C0115C00038110514F460E001C061E0B6
:1010A0008C2FDF91CF911F910F91FF90EF90DF90E8
:1010B000CF90BF90AF909F908F900C94290FDF91AD
:1010C000CF911F910F91FF90EF90DF90CF90BF9045
:1010D000AF909F908F9008951F93CF93DF93EC0173
:1010E000162F88818C3008F04DC061E0812F0E945E
:1010F000C401E88195E09E9FF0011124ED5BF94F5A
:101100001F738081807C182B10831382E8819E9F3F
:10111000F0011124ED5BF94F148288816CE00E948C
:1011200073159CE0899FA001112420E030E095E038
:10113000B901640F751F969FF001979FF00D112460
:10114000ED5BF94F608166FD13C02F5F3F4F2C3080
:10115000310571F781110CC01092800082E08093FC
:101160008100109285001092840086BB80936F00EE
:10117000E88185E0E89FF0011124ED5BF94F808163
:10118000806480838881DF91CF911F9108951F92A1
:101190000F920FB60F9211240BB60F922F933F931D
:1011A0004F935F936F937F938F939F93AF93BF936F
:1011B000EF93FF938091310387FF05C01092850064
:1011C0001092840016C020913103022E000C330BC4
:1011D00080917F0690E0281739075CF43091310345
:1011E00025E03203F0011124ED5BF94F808186FD8B
:1011F00015C0809131038F5F8093310320913103BB
:10120000022E000C330B80917F0690E028173907DF
:1012100094F4809131038C302CF10DC03091310366
:101220003203F0011124ED5BF94F808160E08F7390
:101230000E94290FDECF8091840090918500843434
:101240009C4918F480E49CE905C080918400909149
:101250008500049690938900809388008FEF809397
:1012600031032AC0409184005091850030913103B0
:1012700025E03203F0011124ED5BF94F8181928169
:10128000840F951F909389008093880030913103DB
:101290003203F0011124ED5BF94F808186FF0CC011
:1012A000309131033203F0011124ED5BF94F80815D
:1012B00061E08F730E94290FFF91EF91BF91AF9171
:1012C0009F918F917F916F915F914F913F912F915E
:1012D0000F900BBE0F900FBE0F901F9018950097A8
:1012E00069F0FC0101900020E9F73197AF01481B3C
:1012F000590BBC0184ED94E00C94250280E090E051
:101300000895E4EDF4E0A089B18982E08C93A4858E
:10131000B5851C92A685B7858FEC8C93108EA48919
:10132000B58986E08C93A289B3898C9180618C9376
:10133000A289B3898C9188608C93A289B3898C919E
:1013400080688C930288F389E02D80818F7D808373
:101350000895CF93DF930E946F09EC018CEB92E02C
:101360000E946F098C0F9D1FDF91CF9108952091EE
:101370008D0390918C03213208F04AC0809169035B
:101380008111FCCF32E03093690331E03093680380
:101390003FEF309367031092660320936503ACE63A
:1013A000B3E045E453E0FA013E2F341B321718F442
:1013B0003D913193F9CF1092440320914403990F4A
:1013C000922B9093440390914303913061F41092D7
:1013D0004303909144039093BB009091BC0093FD14
:1013E000F8CF95EC01C095EE9093BC009091690305
:1013F0009230E1F3909167039F3F79F0809167030A
:10140000803241F080916703803331F084E005C081
:1014100081E003C082E001C083E010926B03109270
:101420008D0310926A030895EF92FF921F93CF935A
:10143000DF931F92CDB7DEB7162F95EBE92E97E01D
:10144000F92ED7011C969C911C9721E020936A03EA
:1014500090938C0310926B0310928D031A960D904B
:10146000BC91A02DED91FC9111970190F081E02DA0
:10147000682FCD0179831995F70182859385DC0169
:10148000ED91FC910190F081E02D7981672F199504
:10149000F70182859385DC01ED91FC910190F0814B
:1014A000E02D612F19950F90DF91CF911F91FF9043
:1014B000EF900C94B709CF92DF92EF92FF92CF9307
:1014C000DF93823018F08FEB92E00AC09091E00732
:1014D000691720F09091E107961750F481ED92E0A2
:1014E000DF91CF91FF90EF90DF90CF900C94A909FE
:1014F000E82FF0E0EA52F84FC089CC3008F072C013
:10150000262F30E0D0E085E08C9FF0018D9FF00D1C
:101510001124ED5BF94F8381283C31059CF528E8C7
:1015200030E06901C81AD10887FDD394CC0CDD1CCA
:10153000CC0CDD1C0D2C000CEE08FF08848128E586
:1015400032E0281B310987FD3395220F331F220F0C
:10155000331FC901330FAA0BBB0B9C01AD012C1922
:101560003D094E095F09A62FB0E00E94371524EB14
:1015700030E040E050E00E941815C20ED31EE41E79
:10158000F51E1EC048E850E06A01C81AD10887FD60
:10159000D394CC0CDD1CCC0CDD1C2C153D0584F04B
:1015A000448188E592E0841B910947FD9395880F5B
:1015B000991F880F991F69018C159D050CF46C010A
:1015C0008FB7F89495E09C9FF0019D9FF00D11243A
:1015D000ED5BF94F96E0C91AD108CC0CDD1CD28224
:1015E000C1828FBFDF91CF91FF90EF90DF90CF90BE
:1015F0000895CF93DF9382E40E942E0431E020E02F
:101600004091840650918506481759070CF430E044
:10161000C32FD22F81E40E942E04209182063091A4
:101620008306281739070CF022968FE30E942E04B8
:101630002091800630918106281739070CF02496F6
:10164000CE01DF91CF9108950C946F09CF93DF9372
:10165000C82F89E892E00E94240B8EEE92E00E944F
:10166000240BCC2359F089E892E00E94240B85EFEB
:1016700092E00E94240BC0E0D0E00BC06091E50630
:101680007091E6068091E7069091E8060E94871522
:10169000EB014091E5065091E6066091E7067091F6
:1016A000E8068EEC97E00E9453074091E5065091C2
:1016B000E6066091E7067091E806705880ED97E0C5
:1016C0000E9453076EE571E080E090E00E944D04B7
:1016D000BE01DD0F880B990B0E94FB13AB01BC010F
:1016E0008EEC97E00E9453074DEC5CEC6CEC7DEBCC
:1016F00080ED97E00E94530789E892E00E94240B56
:1017000083E093E00E94240B0E94F90A0297E1F71C
:10171000DF91CF9108950E94F90A0797D1F4409183
:10172000D9065091DA066091DB067091DC068EECEA
:1017300097E00E9453074091DD065091DE066091CC
:10174000DF067091E006705880ED97E00E94530725
:10175000E2CF08954091E5065091E6066091E706D4
:101760007091E80670588EEC97E00E945307409104
:10177000E5065091E6066091E7067091E80680ED77
:1017800097E00E94530764EF71E080E090E00E94D0
:101790004D044091E5065091E6066091E706709190
:1017A000E806705880ED97E00E9453070E94F90AFE
:1017B000892BE1F70E94F90A0297E1F740E050E037
:1017C000BA018EEC97E00E94530740E050E060E0E1
:1017D00070E880ED97E00C94530785ED8093BC0092
:1017E0008091BC0084FDFCCF109269030895409164
:1017F0001008262F30E0240F311D21323105DCF492
:10180000209169032430C9F4FC0180E090E0861740
:1018100058F4309110082191DC01A251B84FA30F68
:10182000B11D2C930196F3CF80911008680F60933F
:10183000100880E0089581E0089582E008950895F9
:1018400081E090E03091ED072091EC07321710F421
:1018500080E090E091958195910908958091ED0740
:101860009091EC07891730F48F5F8093ED0780E04B
:1018700090E008958FEF9FEF08958091EC0790E03E
:101880002091ED07821B91090895CF92DF92EF928C
:10189000FF920F931F93CF93DF937C01262F972FF7
:1018A0008A0180916A03882391F0C62FD72F6E0199
:1018B000C40ED51ECC15DD0571F06991D701ED91EF
:1018C000FC910190F081E02DC7011995F3CF642FB1
:1018D000822F0E94F70BC801DF91CF911F910F91CA
:1018E000FF90EF90DF90CF900895CF93DF931F92FA
:1018F000CDB7DEB7698320916A032223D1F020910E
:101900008D03203240F021E030E0FC01338322835C
:1019100080E090E015C080916B03E82FF0E0E4597F
:10192000FC4F998190838F5F80936B0380938D032D
:1019300005C061E0CE0101960E94F70B81E090E0C6
:101940000F90DF91CF9108951F93CF93DF93EC0118
:1019500011E08091D80681113CC14091D906509187
:10196000DA066091DB067091DC068EEC97E00E944F
:1019700053074091DD065091DE066091DF067091BD
:10198000E006705880ED97E00E9453070E94F90A24
:1019900082309105D9F41092E90689E892E00E941C
:1019A000240B8FE093E00E94240B8091E10690913C
:1019B000E206A091E306B091E4068093DD069093E1
:1019C000DE06A093DF06B093E0063BC084309105AD
:1019D000D9F41092E9068091E5069091E606A0916F
:1019E000E706B091E8068093DD069093DE06A093AB
:1019F000DF06B093E0068091E1069091E206A091A7
:101A0000E306B091E4061DC08130910519F51092EE
:101A1000E9068091E1069091E206A091E306B0917B
:101A2000E4068093DD069093DE06A093DF06B09374
:101A3000E0068091E5069091E606A091E706B09158
:101A4000E8068093D9069093DA06A093DB06B0935C
:101A5000DC067FCF079709F07CCF8091E9068111E2
:101A600078CF89E892E00E94240B86E193E00E94FF
:101A7000240B1093E9062091EA063091EB062F5FC4
:101A80003F4F3093EB062093EA062C173D0709F0F1
:101A900060CF89E892E00E94240B8EEE92E00E94D3
:101AA000240B4091E5065091E6066091E70670919F
:101AB000E8068EEC97E00E9453074091E5065091AE
:101AC000E6066091E7067091E806705880ED97E0B1
:101AD0000E9453076EE571E080E090E00E944D04A3
:101AE00040E050E0BA018EEC97E00E9453074DECC5
:101AF0005CEC6CEC7DEB80ED97E00E94530789E88D
:101B000092E00E94240B83E093E00E94240B0E9449
:101B1000F90A0797E1F70E948B0B6091DF0770E0ED
:101B200087EE97E0C230D105C4F40E946C086AEADF
:101B300081E00E945B0A64EF71E080E090E00E9427
:101B40004D040E94AA0B0E948B0B81E00E94260B81
:101B500083E090E00E94A40CFCCE0E946C0865E536
:101B600081E00E945B0A64EF71E080E090E00E94F7
:101B70004D046091DE0770E086EE97E00E946C08ED
:101B800060E080E00E945B0A64EF71E080E090E03A
:101B90000E944D046091DE0770E086EE97E00E949F
:101BA0006C086BE780E00E945B0A64EF71E080E004
:101BB00090E00E944D040E94AA0B0E948B0B80E0D3
:101BC0000E94260B1093D8061092EB061092EA069C
:101BD000C0CEDF91CF911F9108951F920F920FB643
:101BE0000F9211240F900FBE0F901F9018951F9207
:101BF0000F920FB60F9211240BB60F922F933F93B3
:101C00004F935F936F937F938F939F93AF93BF9304
:101C1000EF93FF938091B900887F803609F49CC0D0
:101C200068F5883209F45BC090F4803109F454C03F
:101C300038F4882309F4F6C0883009F44DC0F6C0A2
:101C4000883109F44CC0803209F45DC0EFC08034A3
:101C500009F468C048F4803309F455C0883309F0AA
:101C6000E5C080936703D8C0803509F44FC088353C
:101C700009F45DC0883409F0D9C0D6C0883909F4A8
:101C8000C7C0A8F4883709F467C038F4883609F467
:101C900063C0803709F460C0C9C0883809F4B8C08F
:101CA000803909F45FC0803809F0C0C05BC0803B58
:101CB00009F486C038F4803A09F466C0883A09F419
:101CC0007FC0B4C0803C09F4A7C0883C09F4A4C01C
:101CD000883B09F48AC0AAC08091440310C0909147
:101CE000660380916503981770F5E091660381E0C3
:101CF0008E0F80936603F0E0EB5BFC4F8081809356
:101D0000BB0085EC86C0809367038EC0E0916603BC
:101D100081E08E0F809366038091BB00F0E0EB5B67
:101D2000FC4F808390916603809165036EC0E091C3
:101D3000660381E08E0F809366038091BB00F0E024
:101D4000EB5BFC4F80838091680381116DC081E063
:101D50008093430384EA61C083E080936903109217
:101D60003408CFCF80913408803208F051C0E09120
:101D7000340881E08E0F809334088091BB00F0E03E
:101D8000EC5EF74F8083BDCF85EC8093BC00109252
:101D9000690380913408803230F4E0913408F0E037
:101DA000EC5EF74F10826091340870E0E091120809
:101DB000F091130884E198E019951092340836C028
:101DC00084E0809369031092110810921008E0914A
:101DD0000E08F0910F08199580911008811105C027
:101DE00081E0809310081092EE07E091110881E0E5
:101DF0008E0F80931108F0E0E251F84F80818093BC
:101E0000BB009091110880911008981708F479CFC1
:101E100085E88093BC000AC085EC8093BC001092DA
:101E2000690304C0109267030E94ED0BFF91EF91CC
:101E3000BF91AF919F918F917F916F915F914F91E2
:101E40003F912F910F900BBE0F900FBE0F901F90E0
:101E500018951F93CF93DF93282F30E0F901E952B3
:101E6000FD4F8491F901EF56FD4FD491F901E55BE7
:101E7000FD4FC491CC23C9F0162F81110E94D803C5
:101E8000EC2FF0E0EE0FFF1FEF5CFD4FA591B4913A
:101E90008FB7F894111105C09C91ED2FE095E923BF
:101EA00002C0EC91ED2BEC938FBFDF91CF911F918E
:101EB0000895789484B5826084BD84B5816084BDC2
:101EC00085B5826085BD85B5816085BD80916E00D8
:101ED000816080936E001092810080918100826009
:101EE0008093810080918100816080938100809146
:101EF00080008160809380008091B1008460809335
:101F0000B1008091B00081608093B0008091910019
:101F10008260809391008091910081608093910014
:101F2000809190008160809390008091A1008260F8
:101F30008093A1008091A10081608093A100809195
:101F4000A00081608093A000809121018260809335
:101F500021018091210181608093210180912001E4
:101F600081608093200180917A00846080937A0060
:101F700080917A00826080937A0080917A008160FB
:101F800080937A0080917A00806880937A00109222
:101F9000C1000E9481090E94810961E08091B60719
:101FA0000E94C40160E08091B6070E94290F60E0A2
:101FB0008091B5070E94C4018EE893E09093C0071A
:101FC0008093BF071092ED071092EC0710926B03FD
:101FD00010928D031092690381E080936803109240
:101FE000430361E084E10E94290F61E085E10E94E2
:101FF000290F8091B9008E7F8093B9008091B9003C
:102000008D7F8093B90088E48093B80085E4809345
:10201000BC0080E090E1A0E0B0E08093C207909324
:10202000C307A093C407B093C5078AE090E0A0E07F
:10203000B0E08093C6079093C707A093C807B093FA
:10204000C90780E090E0A0E0B0E48093CA079093D5
:10205000CB07A093CC07B093CD0760E070E185E09B
:102060000E94140A6FE979E380E00E94140AC2ED2D
:10207000D7E0C12CD12CE12CF12C70E8472E72E076
:10208000572EE6EC6E2EE2E07E2EFBECAF2EF7E054
:10209000BF2EABE88A2E99249394C7018B54984F96
:1020A0001C01FC019481828186010B54184FF801B8
:1020B000818F928F61E00E94C40161E0F801828DFE
:1020C0000E94C401F101908586818883F801968F72
:1020D00061E00E94C40160E0F801868D0E94C401A5
:1020E00061E088810E94290F1FB7F894809139031D
:1020F000811125C0F2018491F3019491E82FF0E061
:10210000EE0FFF1FE95EFD4FA591B4918C919823CE
:1021100021F461E085E30E94290F61E085E30E94DC
:10212000C4018CB580618CBD8CB580648CBD61E0D0
:1021300084E30E94C40161E083E30E94C4018091B2
:1021400039038F5F809339031FBFC5010197F1F7F2
:1021500060E088810E94290F88E80E947E0383E066
:102160000E947E0361E088810E94290FC5010197CA
:10217000F1F760E088810E94290F88E90E947E03C0
:1021800080E00E947E0380E00E947E0380E00E9447
:102190007E0380E00E947E0361E088810E94290F17
:1021A000C4010197F1F760E088810E94290F80EE59
:1021B0000E947E0361E088810E94290FF2E0CF0E29
:1021C000D11C2296EA94EF2821F0EE24E394F12C1E
:1021D00064CFCAEDD7E01C2F1C5F60E089910E949C
:1021E000C4011C13FACF09EE17E0C4EED7E0FC2EB1
:1021F000F394F394FE013697608170E0CE0102966D
:102200000E946C089991FE0133978081F801319703
:102210008083F801908360E00E94C40161E0F801CE
:1022200080810E94C40160E0F80180810E94290F32
:102230000E5F1F4FFC12DECFF8941092200189E050
:102240008093210180E293E09093290180932801FB
:10225000109225011092240182E0809373007894FB
:1022600080937105109275058091720560E00E945F
:10227000C4016091DF0770E087EE97E00E946C0870
:1022800065E581E00E945B0A6091DE0770E086EE02
:1022900097E00E946C086BE780E00E945B0A89E887
:1022A00092E00E94240B8CE892E00E94240B60E1F3
:1022B00077E280E090E00E944D048FE30E942E04BC
:1022C0005C0181E40E942E046C0182E40E942E04D1
:1022D0008C0189E892E00E94240B8CE992E00E9434
:1022E000240B60E177E280E090E00E944D048FE3F0
:1022F0000E942E047C0181E40E942E04EC0182E401
:102300000E942E04B5016E0D7F1D77FF02C06F5F26
:102310007F4F759567957093810660938006A6013F
:102320004C0F5D1F57FF02C04F5F5F4F559547959C
:102330005093830640938206800F911F97FD01966C
:1023400095958795909385068093840689E892E019
:102350000E94240B8BEA92E00E94240B68E873E150
:1023600080E090E00E944D041092D80681E090E059
:102370000E94A40C1092D80669E170E080E090E021
:102380000E944D040E945103EFCF8091EC06909182
:10239000ED060C945716109291031092900388EE5C
:1023A00093E0A0E0B0E08093920390939303A09316
:1023B0009403B09395032DE532E030938F0320937F
:1023C0008E0310929D0310929C0380939E03909322
:1023D0009F03A093A003B093A1032FE632E03093B4
:1023E0009B0320939A0345E351E05093A703409346
:1023F000A60344E351E05093A9034093A80340E3AC
:1024000051E05093AB034093AA0341E351E0509352
:10241000AD034093AC0342E351E05093AF034093CC
:10242000AE0346E351E05093B1034093B0031092E2
:10243000B3031092B4031092B5031092B603109236
:102440003A041092390480933B0490933C04A09387
:102450003D04B0933E04309338042093370445ED97
:1024600050E0509344044093430444ED50E05093B3
:1024700046044093450440ED50E050934804409397
:10248000470441ED50E050934A044093490442ED23
:1024900050E050934C0440934B0446ED50E0509371
:1024A0004E0440934D041092500410925104109227
:1024B0005204109253041092D7041092D6048093C1
:1024C000D8049093D904A093DA04B093DB0430933A
:1024D000D5042093D40485EC90E09093E10480939C
:1024E000E00484EC90E09093E3048093E20480ECB9
:1024F00090E09093E5048093E40481EC90E0909365
:10250000E7048093E60482EC90E09093E9048093E2
:10251000E80486EC90E09093EB048093EA04109238
:10252000ED041092EE041092EF041092F00486E392
:102530008093D60787E38093D70788E38093D807F3
:1025400089E38093D9078BE18093DA078DE180934B
:10255000DB078AE18093DC078CE18093DD0784E070
:102560008093DE0787E08093DF071092E00784EB1B
:102570008093E10786E18093E20788E18093E30797
:1025800087E18093E40789E18093E507E0917F0686
:10259000EC3020F08FEF8093E60710C081E08E0FC3
:1025A00080937F06E093E60725E0E29FF001112487
:1025B000ED5BF94F88EB9BE092838183E0917F068E
:1025C000EC3020F08FEF8093E70710C081E08E0F92
:1025D00080937F06E093E70785E0E89FF0011124F0
:1025E000ED5BF94F88EB9BE0928381838CE08093D5
:1025F000B50784E28093B60786E08093B70785E04D
:102600008093B8078FE18093B9078EE18093BA0772
:1026100083E28093BB0782E28093BC0785E48093CA
:10262000BD0784E48093BE0780E48093C1071092C5
:10263000C6071092C7071092C8071092C9071092D8
:10264000CA071092CB071092CC071092CD07E7EF84
:10265000F6E08FEF9FEFDC01128213821482158265
:10266000168217821086118683879487A587B6877E
:102670008787908BA18BB28B128611821082739602
:1026800027E0E53BF20741F78DE090E00E94C2159C
:10269000FC011382128281E892E09183808311868B
:1026A00087E2848384E1828784E083871486F093C1
:1026B000F406E093F3061092F5061092F60685E212
:1026C00080937205109274051092ED061092EC063C
:1026D0001092EF061092EE061092F1061092F0069C
:1026E00061E070E080E090E00E94EF16009791F0CA
:1026F0009093ED068093EC061092EF061092EE0692
:102700002091F0063091F106232B09F069C0FC01FD
:10271000108266C08091EC069091ED06009711F052
:102720000E9457161092ED061092EC061092F106D8
:102730001092F0061092EF061092EE0688EC90E0F0
:1027400090938106809380069093830680938206FF
:1027500082E890E0909385068093840682E5E7E026
:10276000F2E0A6E8B6E001900D928A95E1F71092AA
:10277000D8068091E5069091E606A091E706B09113
:10278000E8068093D9069093DA06A093DB06B0930F
:10279000DC068093DD069093DE06A093DF06B093FF
:1027A000E00688EB9EE1A5E8BEE38093E106909306
:1027B000E206A093E306B093E4068AE999E9A9E169
:1027C000BEE38093E5069093E606A093E706B093F8
:1027D000E8061092E9061092EB061092EA060895B8
:1027E0001092F1061092F0066EEB72E00E94E6176E
:1027F000A5CFE89409C097FB3EF49095809570951D
:1028000061957F4F8F4F9F4F9923A9F0F92F96E93C
:10281000BB279395F695879577956795B795F111B1
:10282000F8CFFAF4BB0F11F460FF1BC06F5F7F4F4E
:102830008F4F9F4F16C0882311F096E911C0772360
:1028400021F09EE8872F762F05C0662371F096E869
:10285000862F70E060E02AF09A95660F771F881F38
:10286000DAF7880F9695879597F90895990F0008DC
:10287000550FAA0BE0E8FEEF16161706E807F90752
:10288000C0F012161306E407F50798F0621B730BED
:10289000840B950B39F40A2661F0232B242B252B6E
:1028A00021F408950A2609F4A140A6958FEF811D11
:1028B000811D08950E946D140C94DE140E94D014A2
:1028C00038F00E94D71420F0952311F00C94C7140F
:1028D0000C94CD1411240C9412150E94EF1470F373
:1028E000959FC1F3950F50E0551F629FF001729FB5
:1028F000BB27F00DB11D639FAA27F00DB11DAA1FC4
:10290000649F6627B00DA11D661F829F2227B00D10
:10291000A11D621F739FB00DA11D621F839FA00D9B
:10292000611D221F749F3327A00D611D231F849FEB
:10293000600D211D822F762F6A2F11249F57504042
:102940009AF0F1F088234AF0EE0FFF1FBB1F661FBD
:10295000771F881F91505040A9F79E3F510580F086
:102960000C94C7140C9412155F3FE4F3983ED4F313
:10297000869577956795B795F795E7959F5FC1F72A
:10298000FE2B880F911D9695879597F9089597F9D5
:102990009F6780E870E060E008959FEF80EC089505
:1029A00000240A941616170618060906089500242E
:1029B0000A9412161306140605060895092E0394A8
:1029C000000C11F4882352F0BB0F40F4BF2B11F41C
:1029D00060FF04C06F5F7F4F8F4F9F4F089557FD7B
:1029E0009058440F551F59F05F3F71F04795880F7D
:1029F00097FB991F61F09F3F79F087950895121614
:102A000013061406551FF2CF4695F1DF08C01616BF
:102A100017061806991FF1CF869571056105089470
:102A20000895E894BB2766277727CB0197F9089587
:102A3000052E97FB1EF400940E942F1557FD07D01A
:102A40000E94421507FC03D04EF40C942F155095AC
:102A50004095309521953F4F4F4F5F4F089590958A
:102A60008095709561957F4F8F4F9F4F08950E947D
:102A70006415A59F900DB49F900DA49F800D911D8E
:102A800011240895A1E21A2EAA1BBB1BFD010DC043
:102A9000AA1FBB1FEE1FFF1FA217B307E407F5070E
:102AA00020F0A21BB30BE40BF50B661F771F881FEA
:102AB000991F1A9469F760957095809590959B0180
:102AC000AC01BD01CF010895A29FB001B39FC00129
:102AD000A39F700D811D1124911DB29F700D811D4A
:102AE0001124911D0895991B79E004C0991F961730
:102AF00008F0961B881F7A95C9F780950895EE0F08
:102B0000FF1F881F8BBF0790F691E02D19940E943C
:102B10008E156894B1110C94121508950E94F71443
:102B200088F09F5798F0B92F9927B751B0F0E1F08E
:102B3000660F771F881F991F1AF0BA95C9F714C03E
:102B4000B13091F00E941115B1E008950C94111567
:102B5000672F782F8827B85F39F0B93FCCF3869577
:102B600077956795B395D9F73EF4909580957095D4
:102B700061957F4F8F4F9F4F08950E94361408F440
:102B80008FEF0895CF93DF938230910510F482E0A8
:102B900090E0E0913908F0913A0820E030E0C0E0A0
:102BA000D0E0309711F14081518148175907C0F0AA
:102BB0004817590761F482819381209719F09B830C
:102BC0008A832BC090933A088093390826C0211538
:102BD000310519F04217530718F49A01BE01DF01BD
:102BE000EF010280F381E02DDCCF2115310509F1E1
:102BF000281B390B2430310590F412968D919C914D
:102C000013976115710521F0FB019383828304C042
:102C100090933A0880933908FD01329644C0FD0133
:102C2000E20FF31F81939193225031092D933C932E
:102C30003AC02091370830913808232B41F4209175
:102C40000302309104023093380820933708209112
:102C50000102309102022115310541F42DB73EB732
:102C60004091050250910602241B350BE091370874
:102C7000F0913808E217F307A0F42E1B3F0B28173A
:102C8000390778F0AC014E5F5F4F2417350748F0E5
:102C90004E0F5F1F509338084093370881939193EC
:102CA00002C0E0E0F0E0CF01DF91CF9108950F93F3
:102CB0001F93CF93DF93009709F48CC0FC013297E8
:102CC000138212820091390810913A0801151105FA
:102CD00081F420813181820F931F20913708309138
:102CE00038082817390779F5F0933808E093370842
:102CF00071C0D80140E050E0AE17BF0750F4129603
:102D00002D913C911397AD012115310509F1D901A0
:102D1000F3CF9D01DA013383228360817181860FB5
:102D2000971F8217930769F4EC0128813981260FD8
:102D3000371F2E5F3F4F318320838A819B8193838E
:102D40008283452B29F4F0933A08E093390842C076
:102D50001396FC93EE931297ED01499159919E01C0
:102D6000240F351FE217F30771F480819181840FDE
:102D7000951F029611969C938E9382819381139650
:102D80009C938E931297E0E0F0E0D80112968D911B
:102D90009C911397009719F0F8018C01F6CF8D9153
:102DA0009C9198012E5F3F4F820F931F209137080F
:102DB000309138082817390769F4309729F41092B0
:102DC0003A081092390802C0138212821093380810
:102DD00000933708DF91CF911F910F9108956F9263
:102DE0007F928F929F92AF92BF92CF92DF92EF929B
:102DF000FF920F931F93CF93DF93EC01009789F419
:102E0000CB01DF91CF911F910F91FF90EF90DF9059
:102E1000CF90BF90AF909F908F907F906F900C94C9
:102E2000C215FC01E60FF71F9C0122503109E21781
:102E3000F30708F4ACC0D9010D911C911197061746
:102E40001707B0F00530110508F49FC0C8010497BA
:102E50008617970708F499C002501109061B170B33
:102E6000019311936D937C93CF010E9457168DC0EF
:102E70005B01A01AB10A4C01800E911EA091390885
:102E8000B0913A0840E050E0E12CF12C109709F4A1
:102E90004AC0A815B905D1F56D907C9011976301D2
:102EA00082E0C80ED11CCA14DB0480F1A3014A19C8
:102EB0005B096A0182E0C80ED11C1296BC90129781
:102EC0001396AC91B5E0CB16D10440F0B282A38347
:102ED00051834083D9016D937C930AC00E5F1F4FCD
:102EE000C301800F911FF90191838083EB2DFA2F8D
:102EF000E114F10431F0D7011396FC93EE9312978D
:102F000044C0F0933A08E09339083FC08D919C91FA
:102F100011974817590708F4AC017D0112960D90DE
:102F2000BC91A02DB3CF80913708909138088815B7
:102F30009905E1F446175707C8F480910102909172
:102F40000202009741F48DB79EB74091050250915F
:102F50000602841B950BE817F907C8F4F0933808AC
:102F6000E0933708F901718360830FC0CB010E94A1
:102F7000C2157C01009759F0A801BE010E94DD171F
:102F8000CE010E945716C70104C0CE0102C080E0E6
:102F900090E0DF91CF911F910F91FF90EF90DF9024
:102FA000CF90BF90AF909F908F907F906F9008953B
:102FB00081E090E0F8940C94ED17FB01DC0102C075
:102FC00001900D9241505040D8F70895FB01DC016B
:102FD00001900D920020E1F7089511E0C0E9D1E0E1
:102FE00000E006C0802FFE010E947F152196011D82
:0E2FF000C139D10780E00807A9F7F894FFCF98
:102FFE00FF00003B082000000042757267657200FA
:10300E0000000000000000000000000000436865A2
:10301E0065736520427572676572000000000000DE
:10302E0000416C6C204275726765720000000000F2
:10303E000000000000536574757000000000000071
:10304E0000000000000000000000000000750C45AC
:10305E000C86031F0C3D0C2E0C200C00000000E50E
:10306E0002250269022C039A0278028C02000000EB
:10307E0000B3032502860385030A0D00526F626FAB
:10308E00742073757220626C616E6300526F626F92
:10309E007420737572206E6F69720043616C696281
:1030AE00726174696F6E2066696E69000D0A00495F
:1030BE006E76616C696420736572766F2069642127
:1030CE0000536572766F20616E676C6520697320A0
:1030DE006F7574206F662072616E67652100746F64
:1030EE0075726E6500546F75726E652046696E69F5
:1030FE00203100546F75726E652046696E6900410D
:08310E0076616E636500370075
:00000001FF
