:100000000C9491010C94C2010C94C2010C94C20195
:100010000C94C2010C94C2010C94C2010C94C20154
:100020000C94C2010C94630C0C94630C0C94630C40
:100030000C94C2010C9456030C94C2010C94C2019E
:100040000C94C2010C944C070C94C2010C94C20194
:100050000C94C2010C94C2010C94C2010C94A00F28
:100060000C94C2010C94C7040C949D040C94C2011E
:100070000C94C2010C94C2010C94C2010C94C201F4
:100080000C94C2010C94C2010C94C2010C94C201E4
:100090000C94C2010C94C2010C94C2010C946D0C1E
:1000A0000C94C2010C94C2010C94C2010C94C201C4
:1000B0000C94C2010C94C2010C94C2010C94F10482
:1000C0000C94C2010C94C2010C94C2010C947304F0
:1000D0000C9449040C94C2010C941F040C94F50375
:1000E0000C94C20138063D0642064C065606CF0661
:1000F0006006680670067A0684068E069D06A706C8
:10010000CF06B106BB06C506A00EA30E920E960E34
:100110009C0EDA0EA70EAB0EB10EB50EB90EBF0EC9
:10012000C30EC70EDA0ECD0ED10ED50E0C94CF062F
:100130000C9456060C94B1060C943D060C94CD0E0E
:100140000C94A7060C9424030C94D50E0C94C401B3
:100150000C94E50D0C9468060C9460060C94C30E88
:100160000C9415080C948E060C94CB020C94920EF1
:100170000C9408020C9417020C94C5060C94B90E4A
:100180000C9439020C947A060C94F90D0C94C91253
:100190000C94C3120C949C0E0C94260E0C94B10E6D
:1001A0000C94DA0E0C94D10E0C94960E0C94380626
:1001B0000C942B020C94BB060C94A30E0C94560EBC
:1001C0000C944C060C94B50A0C9425030C94A00EC8
:1001D0000C9484020C94C70E0C94B60A0C94A70ECF
:1001E0000C94B50E0C94BF0E0C9470060C94420641
:1001F0000C949D060C94AB0E0C9484060000200019
:100200002300260029002C002F00320000010000EE
:100210000301060109010200002100240027002A31
:10022000002D003000330001010000040107010A25
:100230000100002200250028002B002E0031003490
:100240000002010000050108010B01050505050775
:100250000508080808020202020A0A080804040441
:10026000040101010101010101030303030303036D
:1002700003040707070C0C0C0C0C0C0C0C020202FC
:100280000206060606060606060B0B0B0B0B0B0BEF
:100290000B0102102020080810204010204080028E
:1002A00001020108040201010204081020408080BC
:1002B0004020100804020180040201804020100840
:1002C0000402010804020101020408102040800118
:1002D0000204081020408000000A0B02090C0D0ED9
:1002E00008070304010000000000000000000000F7
:1002F00000000000000000000000000000000000FE
:1003000000000012111000000000000000000000BA
:100310000000000000000000000000000000C91202
:10032000C31211241FBECFEFD1E2DEBFCDBF00E06C
:100330000CBF13E0A0E0B2E0EEEAF2E300E00BBF96
:1003400002C007900D92A631B107D9F728E0A6E1C7
:10035000B3E001C01D92A935B207E1F711E0C0E991
:10036000D1E000E006C021970109802FFE010E9424
:100370007F16CF38D10780E00807A9F70E94EA0F5F
:100380000C9445190C940000CF92DF92EF92FF92EB
:100390000F931F93CF93DF936C017A018B01C0E021
:1003A000D0E0CE15DF0589F0D8016D918D01D60121
:1003B000ED91FC910190F081E02DC6011995892BFA
:1003C00011F47E0102C02196ECCFC701DF91CF91DD
:1003D0001F910F91FF90EF90DF90CF900895FC0157
:1003E000A089B1898C91A689B78982FD0FC09C91A3
:1003F000818D8F5F8F73228D821749F0218DDF01F0
:10040000A20FB11D5D969C93818F08958C910895E4
:10041000FC01538D448D252F30E0842F90E0821B0A
:10042000930B541710F0CF96089501970895FC018F
:10043000918D828D981761F0828DDF01A80FB11D1B
:100440005D968C91928D9F5F9F73928F90E008953F
:100450008FEF9FEF0895FC01918D828D981731F0F9
:10046000828DE80FF11D858D90E008958FEF9FEF4D
:100470000895FC01918D228D892F90E0805C9F4F23
:10048000821B91098F73992708958FE893E00E944A
:10049000390221E0892B09F420E0822F08958CE2B3
:1004A00094E00E94390221E0892B09F420E0822F98
:1004B000089589EC94E00E94390221E0892B09F427
:1004C00020E0822F0895FC01848DDF01A80FB11D6B
:1004D000A35ABF4F2C91848D90E001968F7399277A
:1004E000848FA689B7892C93A089B1898C91806467
:1004F0008C93938D848D981306C00288F389E02D28
:1005000080818F7D80830895EF92FF920F931F93D8
:10051000CF93DF93EC0181E0888F9B8D8C8D9813B6
:1005200005C0E889F989808185FD24C0F62E0B8DF0
:1005300010E00F5F1F4F0F731127E02E8C8DE81214
:100540000CC00FB607FCFACFE889F989808185FFD6
:10055000F5CFCE010E946302F1CF8B8DFE01E80F33
:10056000F11DE35AFF4FF0820B8FEA89FB898081EE
:10057000806207C0EE89FF896083E889F9898081FC
:100580008064808381E090E0DF91CF911F910F9193
:10059000FF90EF900895CF93DF93EC01888D88232F
:1005A000C9F0EA89FB89808185FD05C0A889B989E0
:1005B0008C9186FD0FC00FB607FCF5CF808185FFBB
:1005C000F2CFA889B9898C9185FFEDCFCE010E9429
:1005D0006302E7CFDF91CF910895E0E0F0E0199456
:1005E00080E090E0892B21F00E945902811119C00E
:1005F00080E090E0892B41F080E090E0892B21F0B1
:100600000E940000811110C00E944F0281110FC092
:1006100080E090E0892B81F00E94450281110AC0A0
:1006200008950E940000E4CF0E940000EDCF0E94D8
:10063000ED02EECF0C94000008958EBD00000DB4C5
:1006400007FEFDCF8EB50895089580E090E00895EF
:100650000E943019FC01248131E030935F03209324
:10066000810310926003109282038485682B83E8D3
:1006700093E00E94560E0C9463080F931F93CF9340
:100680008C01C62F0E942A036C2F6460C8010E944F
:100690002A036C2F6B7FC8010E942A0383EC90E031
:1006A0000197F1F7CF911F910F9108951F920F922B
:1006B0000FB60F9211240BB60F922F933F934F93C7
:1006C0005F936F937F938F939F93AF93BF93EF93BA
:1006D000FF938091330390913403A0913503B0913F
:1006E0003603892B8A2B8B2B59F180913203E091B1
:1006F0003003F09131039081892780838091330307
:1007000090913403A0913503B09136031816190661
:100710001A061B060CF056C08091330390913403E7
:10072000A0913503B09136030197A109B1098093D7
:10073000330390933403A0933503B093360342C040
:1007400080910002E6E1F2E0E4919FEF90930002D5
:10075000E230C9F050F4EE2399F0E13081F5909148
:100760006F009D7F90936F002AC0E43019F1E0F094
:10077000E53029F5909173009D7F909373001FC021
:1007800010926E001CC0909170009D7F909370003D
:1007900091E09093B0009091B100987F9460909315
:1007A000B1001092B3000BC0909171009D7F9093A7
:1007B000710005C0909172009D7F9093720060E07F
:1007C0000E94DB0EFF91EF91BF91AF919F918F91AE
:1007D0007F916F915F914F913F912F910F900BBE41
:1007E0000F900FBE0F901F9018951F920F920FB68B
:1007F0000F9211240BB60F922F933F934F935F9359
:100800006F937F938F939F93AF93BF93EF93FF93D8
:100810008FE893E00E946302FF91EF91BF91AF9147
:100820009F918F917F916F915F914F913F912F9108
:100830000F900BBE0F900FBE0F901F9018951F9238
:100840000F920FB60F9211240BB60F922F933F9376
:100850004F935F936F937F938F939F93AF93BF93C8
:10086000EF93FF938FE893E00E94EF01FF91EF91E8
:10087000BF91AF919F918F917F916F915F914F91B8
:100880003F912F910F900BBE0F900FBE0F901F90B6
:1008900018951F920F920FB60F9211240BB60F925C
:1008A0002F933F934F935F936F937F938F939F9378
:1008B000AF93BF93EF93FF938CE294E00E946302A7
:1008C000FF91EF91BF91AF919F918F917F916F9128
:1008D0005F914F913F912F910F900BBE0F900FBEE4
:1008E0000F901F9018951F920F920FB60F92112420
:1008F0000BB60F922F933F934F935F936F937F931A
:100900008F939F93AF93BF93EF93FF938CE294E009
:100910000E94EF01FF91EF91BF91AF919F918F9155
:100920007F916F915F914F913F912F910F900BBEEF
:100930000F900FBE0F901F9018951F920F920FB639
:100940000F9211240BB60F922F933F934F935F9307
:100950006F937F938F939F93AF93BF93EF93FF9387
:1009600089EC94E00E946302FF91EF91BF91AF91F7
:100970009F918F917F916F915F914F913F912F91B7
:100980000F900BBE0F900FBE0F901F9018951F92E7
:100990000F920FB60F9211240BB60F922F933F9325
:1009A0004F935F936F937F938F939F93AF93BF9377
:1009B000EF93FF9389EC94E00E94EF01FF91EF9198
:1009C000BF91AF919F918F917F916F915F914F9167
:1009D0003F912F910F900BBE0F900FBE0F901F9065
:1009E00018951F920F920FB60F9211240BB60F920B
:1009F0002F933F934F935F936F937F938F939F9327
:100A0000AF93BF93CF93DF93EF93FF93209167054D
:100A100030E0F901E952FD4F8491F901EF56FD4FA5
:100A2000D491F901E55BFD4FC491CC23A1F0811174
:100A30000E94850EEC2FF0E0EE0FFF1FE450FE4FFA
:100A4000A591B491EC91ED2331E020E009F430E080
:100A5000832F922F02C080E090E020916B053091AF
:100A60006C052F5F3F4F30936C0520936B052091F1
:100A70006A05253618F026E0209366052091660564
:100A80002430D9F128F4223069F02330D9F060C045
:100A9000253009F453C0263009F05AC021E02093D4
:100AA000370653C0009709F053C020916B05309171
:100AB0006C052436310508F443C0109237061092B5
:100AC0006A051DC08130910509F042C0E0916A05B8
:100AD00021E02E0F20936A05F0E020916B05309104
:100AE0006C05EE0FFF1FEA59FA4F308727831092EB
:100AF0006C0510926B0524E029C00097B9F4E091D1
:100B00006A0521E02E0F20936A05F0E020916B0525
:100B100030916C05EE0FFF1FEA59FA4F308727839B
:100B200010926C0510926B0523E010C020916B05AC
:100B300030916C052536310558F007C0009741F417
:100B400010926C0510926B0503C025E0209366059A
:100B5000209169052223B9F0892B51F48091680511
:100B6000882321F08091680561E009C02F9A0BC0AD
:100B700080916805882331F08091680560E00E94CB
:100B8000DB0E01C02F98FF91EF91DF91CF91BF91C4
:100B9000AF919F918F917F916F915F914F913F9115
:100BA0002F910F900BBE0F900FBE0F901F901895B6
:100BB0008F929F92AF92BF92CF92DF92EF92FF926D
:100BC0000F931F93CF93DF93EC016A017B0120E029
:100BD00030E04FE753E4C701B6010E945A154B01BC
:100BE0005C0120E030E0A9010E94151718161CF4E2
:100BF000C501B40103C0C501B40190580E94871615
:100C00008B0120E030E0A901C701B6010E94151751
:100C1000181614F460E001C061E089810E94DB0EC7
:100C20000F3F110509F014F4112702C00FEF10E077
:100C3000C88161E08C2F0E940B0F0115110509F48A
:100C4000B1C00F3F110509F4AFC0EC2FF0E0E9523D
:100C5000FD4FE4914E2F50E0FA013197E231F1055A
:100C600008F09DC08827EE58FF4F8F4F0C947F16D9
:100C700084B5806884BD07BDA7C084B5806284BD8B
:100C800008BDA2C08091800080688093800010938E
:100C900089000093880098C08091800080628093D2
:100CA000800010938B0000938A008EC0809180009A
:100CB00088608093800010938D0000938C0084C026
:100CC0008091B00080688093B0000093B3007CC036
:100CD0008091B00080628093B0000093B40074C033
:100CE0008091900080688093900010939900009309
:100CF00098006AC080919000806280939000109369
:100D00009B0000939A0060C080919000886080935F
:100D1000900010939D0000939C0056C08091A0000D
:100D200080688093A0008091A0008F7B8093A000BA
:100D30001093A9000093A80047C08091A000806292
:100D40008093A0001093AB000093AA003DC0809157
:100D5000A00088608093A0001093AD000093AC00C9
:100D600033C0809120018068809320011093290175
:100D70000093280129C08091200180628093200186
:100D800010932B0100932A011FC0809120018860DD
:100D90008093200110932D0100932C0115C0003881
:100DA000110514F460E001C061E08C2FDF91CF9158
:100DB0001F910F91FF90EF90DF90CF90BF90AF9079
:100DC0009F908F900C94DB0EDF91CF911F910F912C
:100DD000FF90EF90DF90CF90BF90AF909F908F905B
:100DE00008951F93CF93DF93EC01162F88818C30E9
:100DF00008F04DC061E0812F0E940B0FE88195E063
:100E00009E9FF0011124E85CF94F1F738081807C64
:100E1000182B10831382E8819E9FF0011124E85C57
:100E2000F94F148288816CE00E9473169CE0899FC0
:100E3000A001112420E030E095E0B901640F751F96
:100E4000969FF001979FF00D1124E85CF94F6081A7
:100E500066FD13C02F5F3F4F2C30310571F78111B4
:100E60000CC01092800082E0809381001092850077
:100E70001092840086BB80936F00E88185E0E89F34
:100E8000F0011124E85CF94F8081806480838881BF
:100E9000DF91CF911F9108951F920F920FB60F927D
:100EA00011240BB60F922F933F934F935F936F9341
:100EB0007F938F939F93AF93BF93EF93FF93809113
:100EC0002F0387FF05C0109285001092840016C082
:100ED00020912F03022E000C330B8091740690E0BA
:100EE000281739075CF430912F0325E03203F00115
:100EF0001124E85CF94F808186FD15C080912F0395
:100F00008F5F80932F0320912F03022E000C330B51
:100F10008091740690E02817390794F480912F038C
:100F20008C302CF10DC030912F033203F0011124CD
:100F3000E85CF94F808160E08F730E94DB0EDECFAA
:100F4000809184009091850084349C4918F480E459
:100F50009CE905C08091840090918500049690934F
:100F60008900809388008FEF80932F032AC04091DF
:100F700084005091850030912F0325E03203F00169
:100F80001124E85CF94F81819281840F951F909321
:100F900089008093880030912F033203F0011124DF
:100FA000E85CF94F808186FF0CC030912F0332033B
:100FB000F0011124E85CF94F808161E08F730E9499
:100FC000DB0EFF91EF91BF91AF919F918F917F9138
:100FD0006F915F914F913F912F910F900BBE0F90AA
:100FE0000FBE0F901F901895FF920F931F93CF93F2
:100FF000DF931F92CDB7DEB78C01F62E962F907F30
:10100000692F642BC80149830E943D0380E1F89E4B
:10101000B00111244981642BC8010F90DF91CF9159
:101020001F910F91FF900C943D0341E00E94F40743
:1010300081E090E00895009769F0FC0101900020A4
:10104000E9F73197AF01481B590BBC0189EC94E0DB
:101050000C94C40180E090E00895E9ECF4E0A089EC
:10106000B18982E08C93A485B5851C92A685B7854D
:101070008FEC8C93108EA489B58986E08C93A2891D
:10108000B3898C9180618C93A289B3898C9188609B
:101090008C93A289B3898C9180688C930288F389A0
:1010A000E02D80818F7D80830895CF93DF930E9410
:1010B0001B08EC018CEB92E00E941B088C0F9D1F1B
:1010C000DF91CF9108952091820390918103213285
:1010D00008F04AC080915E038111FCCF32E030936A
:1010E0005E0331E030935D033FEF30935C03109279
:1010F0005B0320935A03A1E6B3E04AE353E0FA010D
:101100003E2F341B321718F43D913193F9CF1092D2
:10111000390320913903990F922B909339039091C1
:101120003803913061F41092380390913903909311
:10113000BB009091BC0093FDF8CF95EC01C095EEFB
:101140009093BC0090915E039230E1F390915C0328
:101150009F3F79F080915C03803241F080915C0385
:10116000803331F084E005C081E003C082E001C03B
:1011700083E0109260031092820310925F0308953F
:10118000EF92FF921F93CF93DF931F92CDB7DEB7FD
:10119000162F9AEAE92E97E0F92ED7011C969C911A
:1011A0001C9721E020935F039093810310926003CA
:1011B000109282031A960D90BC91A02DED91FC9196
:1011C00011970190F081E02D682FCD017983199559
:1011D000F70182859385DC01ED91FC910190F0810E
:1011E000E02D7981672F1995F70182859385DC01C0
:1011F000ED91FC910190F081E02D612F19950F90F8
:10120000DF91CF911F91FF90EF900C94630840E025
:1012100060E80C94F407CF92DF92EF92FF92CF93A5
:10122000DF93823018F08FEB92E00AC09091D507DF
:10123000691720F09091D607961750F481ED92E04F
:10124000DF91CF91FF90EF90DF90CF900C945508F5
:10125000E82FF0E0E553F84FC089CC3008F072C0B9
:10126000262F30E0D0E085E08C9FF0018D9FF00DBF
:101270001124E85CF94F8381283C31059CF528E86E
:1012800030E06901C81AD10887FDD394CC0CDD1C6D
:10129000CC0CDD1C0D2C000CEE08FF08848128E529
:1012A00032E0281B310987FD3395220F331F220FAF
:1012B000331FC901330FAA0BBB0B9C01AD012C19C5
:1012C0003D094E095F09A62FB0E00E94371624EBB6
:1012D00030E040E050E00E941816C20ED31EE41E1B
:1012E000F51E1EC048E850E06A01C81AD10887FD03
:1012F000D394CC0CDD1CCC0CDD1C2C153D0584F0EE
:10130000448188E592E0841B910947FD9395880FFD
:10131000991F880F991F69018C159D050CF46C01AC
:101320008FB7F89495E09C9FF0019D9FF00D1124DC
:10133000E85CF94F96E0C91AD108CC0CDD1CD282CA
:10134000C1828FBFDF91CF91FF90EF90DF90CF9060
:101350000895CF93DF9382E40E94470F31E020E0AD
:101360004091790650917A06481759070CF430E0FD
:10137000C32FD22F81E40E94470F2091770630912E
:101380007806281739070CF022968FE30E94470F42
:101390002091750630917606281739070CF02496AF
:1013A000CE01DF91CF9108950C941B080F931F93EA
:1013B000CF93DF93C82F89E892E00E94D4098EEE84
:1013C00092E00E94D4096091DA067091DB06809168
:1013D000DC069091DD06CC2371F00E948716EB01AC
:1013E00089E892E00E94D40985EF92E00E94D40936
:1013F00000E010E005C00E9487168B01C0E0D0E03D
:101400004091DA065091DB066091DC067091DD06B2
:1014100083EC97E00E94D8054091DA065091DB06F4
:101420006091DC067091DD06705885EC97E00E94B3
:10143000D8056EE571E080E090E00E94660FB8018B
:10144000110F880B990B0E94FB14AB01BC0183ECBC
:1014500097E00E94D805BE01DD0F880B990B0E9412
:10146000FB14AB01BC01705885EC97E00E94D805D5
:1014700089E892E00E94D40983E093E00E94D409B5
:101480000E94A9090297E1F7DF91CF911F910F9177
:1014900008950E94A9090797D1F44091CE06509172
:1014A000CF066091D0067091D10683EC97E00E9440
:1014B000D8054091D2065091D3066091D406709120
:1014C000D506705885EC97E00E94D805E2CF0895C4
:1014D0004091DA065091DB066091DC067091DD06E2
:1014E000705883EC97E00E94D8054091DA0650913D
:1014F000DB066091DC067091DD0685EC97E00E94CA
:10150000D80564EF71E080E090E00E94660F4091A2
:10151000DA065091DB066091DC067091DD067058AA
:1015200085EC97E00E94D8050E94A909892BE1F774
:101530000E94A9090297E1F740E050E0BA0183EC6C
:1015400097E00E94D80540E050E060E070E885EC4C
:1015500097E00C94D80585ED8093BC008091BC0089
:1015600084FDFCCF10925E030895089581E090E021
:101570003091020820910108321710F480E090E0C9
:1015800091958195910908957F928F929F92AF9244
:10159000BF92CF92DF92EF92FF920F931F93CF9360
:1015A000DF93EC016C0197FF03C02FEFC21AD20A40
:1015B000D594C794772473940D2C000CEE08FF0883
:1015C0008E01017011278091CD0681116EC140916D
:1015D000CE065091CF066091D0067091D10683EC73
:1015E00097E00E94D8054091D2065091D3066091B1
:1015F000D4067091D506705885EC97E00E94D80506
:101600000E94A9098230910519F41092DE0634C1B6
:101610008430910519F51092DE068091DA069091DA
:10162000DB06A091DC06B091DD068093D206909394
:10163000D306A093D406B093D5068091D606909198
:10164000D706A091D806B091D9068093CE06909384
:10165000CF06A093D006B093D106B5CF81309105C7
:10166000D9F41092DE068091D6069091D706A0910B
:10167000D806B091D9068093D2069093D306A09352
:10168000D406B093D5068091DA069091DB06A0913E
:10169000DC06B091DD06D9CF079709F094CF809191
:1016A000DE06811190CF7092DE06C701B6010E945E
:1016B000FB140E94BD16A090DF06B090E0062FEF4D
:1016C000A21AB20AB092E006A092DF060E94871624
:1016D000A616B70609F0D0C089E892E00E94D409A6
:1016E0008EEE92E00E94D40901151105B1F46091CB
:1016F000DA067091DB068091DC069091DD060E948F
:1017000087165B0189E892E00E94D40985EF92E098
:101710000E94D409812C912C0DC06091DA06709141
:10172000DB068091DC069091DD060E9487164B0156
:10173000A12CB12C4091DA065091DB066091DC06B9
:101740007091DD0683EC97E00E94D8054091DA069F
:101750005091DB066091DC067091DD06705885ECD7
:1017600097E00E94D8056EE571E080E090E00E946D
:10177000660FB401990C880B990B0E94FB14AB0106
:10178000BC0183EC97E00E94D805B501BB0C880B27
:10179000990B0E94FB14AB01BC01705885EC97E0DB
:1017A0000E94D80589E892E00E94D40983E093E082
:1017B0000E94D4090E94A9090797E1F70E94490AEB
:1017C0006091D40770E08CED97E0C230D105C4F48D
:1017D0000E94F1066AEA81E00E940B0964EF71E061
:1017E00080E090E00E94660F0E94680A0E94490A09
:1017F00081E00E94D60983E090E00E94C40AE3CE13
:101800000E94F10665E581E00E940B0964EF71E03A
:1018100080E090E00E94660F6091D30770E08BED4E
:1018200097E00E94F10660E080E00E940B0964EFFF
:1018300071E080E090E00E94660F6091D30770E055
:101840008BED97E00E94F1066BE780E00E940B09A8
:1018500064EF71E080E090E00E94660F0E94680AE9
:101860000E94490A80E00E94D6097092CD0610922B
:10187000E0061092DF06A7CE89E892E00E94D40924
:101880008FE093E00E94D4098091D6069091D7060C
:10189000A091D806B091D9068093D2069093D30632
:1018A000A093D406B093D506D0CEDF91CF911F91EF
:1018B0000F91FF90EF90DF90CF90BF90AF909F90EF
:1018C0008F907F9008951F920F920FB60F92112460
:1018D0000F900FBE0F901F9018951F920F920FB68A
:1018E0000F9211240BB60F922F933F934F935F9358
:1018F0006F937F938F939F93AF93BF93EF93FF93D8
:101900008091B900887F803609F49CC068F58832E0
:1019100009F45BC090F4803109F454C038F4882392
:1019200009F4F6C0883009F44DC0F6C0883109F4D6
:101930004CC0803209F45DC0EFC0803409F468C047
:1019400048F4803309F455C0883309F0E5C080932A
:101950005C03D8C0803509F44FC0883509F45DC0F8
:10196000883409F0D9C0D6C0883909F4C7C0A8F4B2
:10197000883709F467C038F4883609F463C08037C3
:1019800009F460C0C9C0883809F4B8C0803909F4C6
:101990005FC0803809F0C0C05BC0803B09F486C0DE
:1019A00038F4803A09F466C0883A09F47FC0B4C0BC
:1019B000803C09F4A7C0883C09F4A4C0883B09F422
:1019C0008AC0AAC08091390310C090915B038091B6
:1019D0005A03981770F5E0915B0381E08E0F8093B6
:1019E0005B03F0E0E65CFC4F80818093BB0085ECFC
:1019F00086C080935C038EC0E0915B0381E08E0F14
:101A000080935B038091BB00F0E0E65CFC4F808339
:101A100090915B0380915A036EC0E0915B0381E07B
:101A20008E0F80935B038091BB00F0E0E65CFC4F7F
:101A3000808380915D0381116DC081E080933803C4
:101A400084EA61C083E080935E0310924908CFCF9F
:101A500080914908803208F051C0E091490881E046
:101A60008E0F809349088091BB00F0E0E75DF74F4F
:101A70008083BDCF85EC8093BC0010925E03809183
:101A80004908803230F4E0914908F0E0E75DF74F13
:101A900010826091490870E0E0912708F0912808D1
:101AA00089E298E019951092490836C084E0809345
:101AB0005E031092260810922508E0912308F09109
:101AC0002408199580912508811105C081E0809333
:101AD000250810920308E091260881E08E0F80937C
:101AE0002608F0E0ED5FF74F80818093BB00909176
:101AF000260880912508981708F479CF85E8809307
:101B0000BC000AC085EC8093BC0010925E0304C048
:101B100010925C030E94AB0AFF91EF91BF91AF91CD
:101B20009F918F917F916F915F914F913F912F91F5
:101B30000F900BBE0F900FBE0F901F901895409105
:101B40002508262F30E0240F311D21323105DCF429
:101B500020915E032430C9F4FC0180E090E08617F8
:101B600058F4309125082191DC01AD5FB74FA30FE8
:101B7000B11D2C930196F3CF80912508680F6093D7
:101B8000250880E0089581E0089582E0089510928C
:101B90005E0381E080935D031092380361E084E18D
:101BA0000E94DB0E61E085E10E94DB0EE9EBF0E0D4
:101BB00080818E7F808380818D7F808388E4809385
:101BC000B80085E48093BC0008959091020880914C
:101BD0000108981750F4E92FF0E0EF51F84F2081F9
:101BE00030E09F5F9093020802C02FEF3FEFC901E2
:101BF00008958091010890E020910208821B9109CC
:101C000008953FB7F8948091510890915208A0919F
:101C10005308B091540826B5A89B05C02F3F19F072
:101C20000196A11DB11D3FBFBA2FA92F982F88275C
:101C3000820F911DA11DB11DBC01CD0142E0660FB7
:101C4000771F881F991F4A95D1F70895CF92DF9289
:101C5000EF92FF920F931F93CF93DF937C01262F78
:101C6000972F8A0180915F03882391F0C62FD72F89
:101C70006E01C40ED51ECC15DD0571F06991D7013A
:101C8000ED91FC910190F081E02DC7011995F3CF02
:101C9000642F822F0E949F0DC801DF91CF911F9169
:101CA0000F91FF90EF90DF90CF900895CF93DF9347
:101CB0001F92CDB7DEB7698320915F032223D1F055
:101CC00020918203203240F021E030E0FC01338398
:101CD000228380E090E015C080916003E82FF0E05F
:101CE000EF59FC4F998190838F5F809360038093BD
:101CF000820305C061E0CE0101960E949F0D81E044
:101D000090E00F90DF91CF91089590E0FC01319722
:101D1000E231F10508F04EC08827EC57FF4F8F4F96
:101D20000C947F16809180008F7703C08091800093
:101D30008F7D80938000089580918000877FF9CF08
:101D400084B58F7702C084B58F7D84BD089580915E
:101D5000B0008F7703C08091B0008F7D8093B0007A
:101D60000895809190008F7707C0809190008F7DBB
:101D700003C080919000877F8093900008958091A8
:101D8000A0008F7707C08091A0008F7D03C0809155
:101D9000A000877F8093A0000895809120018F7715
:101DA00007C0809120018F7D03C080912001877F33
:101DB0008093200108951F93CF93DF93282F30E065
:101DC000F901E952FD4F8491F901EF56FD4FD4918D
:101DD000F901E55BFD4FC491CC23C9F0162F8111A9
:101DE0000E94850EEC2FF0E0EE0FFF1FEF5CFD4F21
:101DF000A591B4918FB7F894111105C09C91ED2F66
:101E0000E095E92302C0EC91ED2BEC938FBFDF91BD
:101E1000CF911F910895CF93DF9390E0FC01EF568F
:101E2000FD4F2491FC01E55BFD4F8491882361F116
:101E300090E0880F991FFC01E95EFD4FC591D49198
:101E4000FC01EF5CFD4FA591B491611109C09FB7F2
:101E5000F8948881209582238883EC912E230BC0EF
:101E6000623061F49FB7F8943881822F8095832384
:101E70008883EC912E2B2C939FBF06C08FB7F894CC
:101E8000E8812E2B28838FBFDF91CF910895863371
:101E900008F0865390917B00282F2870977F922B13
:101EA00090937B008770806480937C0080917A009F
:101EB000806480937A0080917A0086FDFCCF8091C7
:101EC00078002091790090E0922B08958F929F9254
:101ED000AF92BF92CF92DF92EF92FF926B017C01A3
:101EE0000E94010E4B015C01C114D104E104F10414
:101EF000F1F00E94010EDC01CB0188199909AA09B1
:101F0000BB09883E9340A105B10570F321E0C21AD8
:101F1000D108E108F10888EE880E83E0981EA11C24
:101F2000B11CC114D104E104F10419F7DDCFFF9015
:101F3000EF90DF90CF90BF90AF909F908F900895DB
:101F40001F920F920FB60F9211242F933F938F93EE
:101F50009F93AF93BF9380914D0890914E08A091AD
:101F60004F08B091500830914C0823E0230F2D37D3
:101F700020F40196A11DB11D05C026E8230F02968D
:101F8000A11DB11D20934C0880934D0890934E08DD
:101F9000A0934F08B0935008809151089091520837
:101FA000A0915308B09154080196A11DB11D8093D2
:101FB000510890935208A0935308B0935408BF91CE
:101FC000AF919F918F913F912F910F900FBE0F90E6
:101FD0001F901895789484B5826084BD84B5816023
:101FE00084BD85B5826085BD85B5816085BD8091E4
:101FF0006E00816080936E0010928100809181005C
:102000008260809381008091810081608093810053
:10201000809180008160809380008091B100846015
:102020008093B1008091B00081608093B000809176
:1020300091008260809391008091910081608093F3
:102040009100809190008160809390008091A10028
:1020500082608093A1008091A10081608093A100A3
:102060008091A00081608093A00080912101826016
:1020700080932101809121018160809321018091D1
:10208000200181608093200180917A008460809398
:102090007A0080917A00826080937A0080917A0041
:1020A000816080937A0080917A00806880937A00C2
:1020B0001092C1000E942D080E942D0861E08091BD
:1020C000AB070E940B0F60E08091AB070E94DB0E14
:1020D00060E08091AA070E940B0F83E893E0909341
:1020E000B5078093B407109202081092010810926D
:1020F0006003109282030E94C70D80E090E1A0E08F
:10210000B0E08093B7079093B807A093B907B09356
:10211000BA078AE090E0A0E0B0E08093BB0790931C
:10212000BC07A093BD07B093BE0780E090E0A0E09D
:10213000B0E48093BF079093C007A093C107B0930A
:10214000C20760E070E185E00E94C0086FE979E3B2
:1021500080E00E94C008C7ECD7E0C12CD12CE12C54
:10216000F12C70E8472E72E0572EE6EC6E2EE2E07E
:102170007E2EFBECAF2EF7E0BF2EABE88A2E992423
:102180009394C7018655984F1C01FC01948182816C
:1021900086010655184FF801818F928F61E00E94E9
:1021A0000B0F61E0F801828D0E940B0FF101908509
:1021B00086818883F801968F61E00E940B0F60E0B2
:1021C000F801868D0E940B0F61E088810E94DB0E72
:1021D0001FB7F89480913703811125C0F2018491D3
:1021E000F3019491E82FF0E0EE0FFF1FE95EFD4F41
:1021F000A591B4918C91982321F461E085E30E942C
:10220000DB0E61E085E30E940B0F8CB580618CBD15
:102210008CB580648CBD61E084E30E940B0F61E0AB
:1022200083E30E940B0F809137038F5F8093370306
:102230001FBFC5010197F1F760E088810E94DB0EA6
:1022400088E80E941D0383E00E941D0361E08881ED
:102250000E94DB0EC5010197F1F760E088810E94C2
:10226000DB0E88E90E941D0380E00E941D0380E0D0
:102270000E941D0380E00E941D0380E00E941D0358
:1022800061E088810E94DB0EC4010197F1F760E0F4
:1022900088810E94DB0E80EE0E941D0361E0888130
:1022A0000E94DB0EF2E0CF0ED11C2296EA94EF28BA
:1022B00021F0EE24E394F12C64CFCFECD7E01C2F77
:1022C0001C5F60E089910E940B0F1C13FACF0EED8A
:1022D00017E0C9EDD7E0FC2EF394F394FE01369796
:1022E000608170E0CE0102960E94F1069991FE0194
:1022F00033978081F80131978083F801908360E003
:102300000E940B0F61E0F80180810E940B0F60E0DA
:10231000F80180810E94DB0E0E5F1F4FFC12DECFA2
:10232000F8941092200189E08093210180E293E0EB
:102330009093290180932801109225011092240185
:1023400082E08093730078948093660510926A050A
:102350008091670560E00E940B0FC091E806D09164
:10236000E906109202081092010810926003109280
:1023700082030E94C70D1D828B85823010F098E089
:102380009D83888762E370E080E090E00E94660FA2
:102390006C85CE010E942A0368EE73E080E090E035
:1023A0000E94660F60E3CE010E943D030BE416E439
:1023B000C8010197F1F760E3CE010E943D03C80117
:1023C0000197F1F760E3CE010E943D0383E592E0BF
:1023D0000197F1F760E2CE010E943D036D816062DA
:1023E00040E0CE010E94F40784E08E8340E06CE080
:1023F000CE010E94F40740E061E0CE010E94F407A4
:102400008BE39FE10197F1F78985882319F0CE01CD
:102410000E94070982E08F8340E066E0CE010E94BF
:10242000F40740E062E0CE010E94F4078BE39FE1F5
:102430000197F1F78091E8069091E90628E0FC0108
:10244000248760E00E942A038091E8069091E906C3
:102450000E9407098091E8069091E906FC016681D7
:10246000262F21602683696040E00E94F407609176
:10247000D40770E08CED97E00E94F10665E581E0FD
:102480000E940B096091D30770E08BED97E00E94EA
:10249000F1066BE780E00E940B0989E892E00E9458
:1024A000D4098CE892E00E94D40960E177E280E0F0
:1024B00090E00E94660F8FE30E94470F5C0181E469
:1024C0000E94470F6C0182E40E94470F8C0189E84B
:1024D00092E00E94D4098CE992E00E94D40960E164
:1024E00077E280E090E00E94660F8FE30E94470F42
:1024F0007C0181E40E94470FEC0182E40E94470FB7
:10250000B5016E0D7F1D77FF02C06F5F7F4F759520
:1025100067957093760660937506A6014C0F5D1F54
:1025200057FF02C04F5F5F4F559547955093780610
:1025300040937706800F911F97FD0196959587959B
:1025400090937A068093790689E892E00E94D409F4
:102550008BEA92E00E94D40968E873E180E090E0A1
:102560000E94660F1092CD0681E090E00E94C40A9E
:102570001092CD0669E170E080E090E00E94660F65
:102580000E94F002EFCF8091E1069091E2060C9458
:10259000AF17109286031092850388EE93E0A0E0B7
:1025A000B0E08093870390938803A0938903B0934E
:1025B0008A032DE532E03093840320938303109245
:1025C0009203109291038093930390939403A093AA
:1025D0009503B09396032FE632E030939003209357
:1025E0008F0345E351E050939C0340939B0344E3E6
:1025F00051E050939E0340939D0340E351E050937C
:10260000A00340939F0341E351E05093A203409302
:10261000A10342E351E05093A4034093A30346E394
:1026200051E05093A6034093A5031092A803109283
:10263000A9031092AA031092AB0310922F041092D8
:102640002E048093300490933104A0933204B0930D
:10265000330430932D0420932C0445ED50E0509327
:1026600039044093380444ED50E050933B044093C8
:102670003A0440ED50E050933D0440933C0441ED5A
:1026800050E050933F0440933E0442ED50E050939D
:1026900041044093400446ED50E05093430440937E
:1026A000420410924504109246041092470410927E
:1026B00048041092CC041092CB048093CD049093E4
:1026C000CE04A093CF04B093D0043093CA042093D7
:1026D000C90485EC90E09093D6048093D50484ECF3
:1026E00090E09093D8048093D70480EC90E090938E
:1026F000DA048093D90481EC90E09093DC04809319
:10270000DB0482EC90E09093DE048093DD0486ECA1
:1027100090E09093E0048093DF041092E204109222
:10272000E3041092E4041092E50486E38093CB075F
:1027300087E38093CC0788E38093CD0789E3809378
:10274000CE078BE18093CF078DE18093D0078AE19C
:102750008093D1078CE18093D20784E08093D307E4
:1027600087E08093D4071092D50784EB8093D60737
:1027700086E18093D70788E18093D80787E180932B
:10278000D90789E18093DA07E0917406EC3020F0F4
:102790008FEF8093DB0710C081E08E0F809374066B
:1027A000E093DB0725E0E29FF0011124E85CF94F9C
:1027B00088EB9BE092838183E0917406EC3020F0FB
:1027C0008FEF8093DC0710C081E08E0F809374063A
:1027D000E093DC0785E0E89FF0011124E85CF94F05
:1027E00088EB9BE0928381838CE08093AA0784E24C
:1027F0008093AB0786E08093AC0785E08093AD07BC
:102800008FE18093AE078EE18093AF0783E28093E0
:10281000B00782E28093B10785E48093B20784E435
:102820008093B30780E48093B6071092BB071092A1
:10283000BC071092BD071092BE071092BF071092FE
:10284000C0071092C1071092C207ECEEF6E08FEFBE
:102850009FEFDC0112821382148215821682178286
:102860001086118683879487A587B6878787908B84
:10287000A18BB28B128611821082739627E0EA3AFE
:10288000F20741F78DE090E00E941A17FC011382D5
:10289000128281E892E091838083118687E28483AB
:1028A00084E1828784E083871486F093E906E093CD
:1028B000E8061092EA061092EB0685E2809367051F
:1028C000109269051092E2061092E1061092E40659
:1028D0001092E3061092E6061092E50661E070E0C1
:1028E00080E090E00E944718009791F09093E206F4
:1028F0008093E1061092E4061092E3062091E5062B
:102900003091E606232B09F06BC0FC01108268C0F1
:102910008091E1069091E206009711F00E94AF17B6
:102920001092E2061092E1061092E6061092E50679
:102930001092E4061092E30688EC90E090937606FD
:1029400080937506909378068093770682E890E0EE
:1029500090937A068093790682E5E7E0F2E0ABE7B0
:10296000B6E001900D928A95E1F71092CD06809124
:10297000DA069091DB06A091DC06B091DD0680932B
:10298000CE069093CF06A093D006B093D106809345
:10299000D2069093D306A093D406B093D50688EBC5
:1029A0009EE1A5E8BEE38093D6069093D706A09358
:1029B000D806B093D9068AE999E9A9E1BEE38093E4
:1029C000DA069093DB06A093DC06B093DD06109246
:1029D000DE068FEF9FEF9093E0068093DF06089569
:1029E0001092E6061092E5066EEB72E00E943E1928
:1029F000A3CFE89409C097FB3EF49095809570951D
:102A000061957F4F8F4F9F4F9923A9F0F92F96E93A
:102A1000BB279395F695879577956795B795F111AF
:102A2000F8CFFAF4BB0F11F460FF1BC06F5F7F4F4C
:102A30008F4F9F4F16C0882311F096E911C077235E
:102A400021F09EE8872F762F05C0662371F096E867
:102A5000862F70E060E02AF09A95660F771F881F36
:102A6000DAF7880F9695879597F90895990F0008DA
:102A7000550FAA0BE0E8FEEF16161706E807F90750
:102A8000C0F012161306E407F50798F0621B730BEB
:102A9000840B950B39F40A2661F0232B242B252B6C
:102AA00021F408950A2609F4A140A6958FEF811D0F
:102AB000811D08950E946D150C94DE150E94D0159D
:102AC00038F00E94D71520F0952311F00C94C7150B
:102AD0000C94CD1511240C9412160E94EF1570F36E
:102AE000959FC1F3950F50E0551F629FF001729FB3
:102AF000BB27F00DB11D639FAA27F00DB11DAA1FC2
:102B0000649F6627B00DA11D661F829F2227B00D0E
:102B1000A11D621F739FB00DA11D621F839FA00D99
:102B2000611D221F749F3327A00D611D231F849FE9
:102B3000600D211D822F762F6A2F11249F57504040
:102B40009AF0F1F088234AF0EE0FFF1FBB1F661FBB
:102B5000771F881F91505040A9F79E3F510580F084
:102B60000C94C7150C9412165F3FE4F3983ED4F30F
:102B7000869577956795B795F795E7959F5FC1F728
:102B8000FE2B880F911D9695879597F9089597F9D3
:102B90009F6780E870E060E008959FEF80EC089503
:102BA00000240A941616170618060906089500242C
:102BB0000A9412161306140605060895092E0394A6
:102BC000000C11F4882352F0BB0F40F4BF2B11F41A
:102BD00060FF04C06F5F7F4F8F4F9F4F089557FD79
:102BE0009058440F551F59F05F3F71F04795880F7B
:102BF00097FB991F61F09F3F79F087950895121612
:102C000013061406551FF2CF4695F1DF08C01616BD
:102C100017061806991FF1CF86957105610508946E
:102C20000895E894BB2766277727CB0197F9089585
:102C3000052E97FB1EF400940E942F1657FD07D017
:102C40000E94421607FC03D04EF40C942F165095A8
:102C50004095309521953F4F4F4F5F4F0895909588
:102C60008095709561957F4F8F4F9F4F08950E947B
:102C70006416A59F900DB49F900DA49F800D911D8B
:102C800011240895A1E21A2EAA1BBB1BFD010DC041
:102C9000AA1FBB1FEE1FFF1FA217B307E407F5070C
:102CA00020F0A21BB30BE40BF50B661F771F881FE8
:102CB000991F1A9469F760957095809590959B017E
:102CC000AC01BD01CF010895A29FB001B39FC00127
:102CD000A39F700D811D1124911DB29F700D811D48
:102CE0001124911D0895991B79E004C0991F96172E
:102CF00008F0961B881F7A95C9F780950895EE0F06
:102D0000FF1F881F8BBF0790F691E02D19940E943A
:102D10008E166894B1110C94121608950E94F7153E
:102D200088F09F5798F0B92F9927B751B0F0E1F08C
:102D3000660F771F881F991F1AF0BA95C9F714C03C
:102D4000B13091F00E941116B1E008950C94111663
:102D5000672F782F8827B85F39F0B93FCCF3869575
:102D600077956795B395D9F73EF4909580957095D2
:102D700061957F4F8F4F9F4F08950E94FD1690F0F1
:102D80009F3748F4911116F00C94121660E070E031
:102D900080E89FEB089526F41B16611D711D811DAF
:102DA0000C94D4160C94EF16882371F4772321F039
:102DB0009850872B762F07C0662311F499270DC0F2
:102DC0009051862B70E060E02AF09A95660F771F8D
:102DD000881FDAF7880F9695879597F908959F3F92
:102DE00031F0915020F4879577956795B795880FC6
:102DF000911D9695879597F908950E94F715A0F073
:102E0000BEE7B91788F4BB279F3860F41616B11DCA
:102E1000672F782F8827985FF7CF869577956795E6
:102E2000B11D93959639C8F308950E94361508F49C
:102E30008FEF0895CF93DF938230910510F482E0F5
:102E400090E0E0915708F091580820E030E0C0E0B1
:102E5000D0E0309711F14081518148175907C0F0F7
:102E60004817590761F482819381209719F09B8359
:102E70008A832BC0909358088093570826C0211549
:102E8000310519F04217530718F49A01BE01DF010A
:102E9000EF010280F381E02DDCCF2115310509F12E
:102EA000281B390B2430310590F412968D919C919A
:102EB00013976115710521F0FB019383828304C090
:102EC0009093580880935708FD01329644C0FD0145
:102ED000E20FF31F81939193225031092D933C937C
:102EE0003AC02091550830915608232B41F4209187
:102EF0000302309104023093560820935508209124
:102F00000102309102022115310541F42DB73EB77F
:102F10004091050250910602241B350BE0915508A3
:102F2000F0915608E217F307A0F42E1B3F0B281769
:102F3000390778F0AC014E5F5F4F2417350748F032
:102F40004E0F5F1F509356084093550881939193FD
:102F500002C0E0E0F0E0CF01DF91CF9108950F9340
:102F60001F93CF93DF93009709F48CC0FC01329735
:102F7000138212820091570810915808011511050B
:102F800081F420813181820F931F20915508309167
:102F900056082817390779F5F0935608E093550835
:102FA00071C0D80140E050E0AE17BF0750F4129650
:102FB0002D913C911397AD012115310509F1D901EE
:102FC000F3CF9D01DA013383228360817181860F03
:102FD000971F8217930769F4EC0128813981260F26
:102FE000371F2E5F3F4F318320838A819B819383DC
:102FF0008283452B29F4F0935808E093570842C088
:103000001396FC93EE931297ED01499159919E010D
:10301000240F351FE217F30771F480819181840F2B
:10302000951F029611969C938E938281938113969D
:103030009C938E931297E0E0F0E0D80112968D9168
:103040009C911397009719F0F8018C01F6CF8D91A0
:103050009C9198012E5F3F4F820F931F209155083E
:10306000309156082817390769F4309729F41092DF
:1030700058081092570802C0138212821093560803
:1030800000935508DF91CF911F910F9108956F9292
:103090007F928F929F92AF92BF92CF92DF92EF92E8
:1030A000FF920F931F93CF93DF93EC01009789F466
:1030B000CB01DF91CF911F910F91FF90EF90DF90A7
:1030C000CF90BF90AF909F908F907F906F900C9417
:1030D0001A17FC01E60FF71F9C0122503109E21775
:1030E000F30708F4ACC0D9010D911C911197061794
:1030F0001707B0F00530110508F49FC0C801049708
:103100008617970708F499C002501109061B170B80
:10311000019311936D937C93CF010E94AF178DC0E3
:103120005B01A01AB10A4C01800E911EA0915708B4
:10313000B091580840E050E0E12CF12C109709F4D0
:103140004AC0A815B905D1F56D907C90119763011F
:1031500082E0C80ED11CCA14DB0480F1A3014A1915
:103160005B096A0182E0C80ED11C1296BC901297CE
:103170001396AC91B5E0CB16D10440F0B282A38394
:1031800051834083D9016D937C930AC00E5F1F4F1A
:10319000C301800F911FF90191838083EB2DFA2FDA
:1031A000E114F10431F0D7011396FC93EE931297DA
:1031B00044C0F0935808E09357083FC08D919C910C
:1031C00011974817590708F4AC017D0112960D902C
:1031D000BC91A02DB3CF80915508909156088815C9
:1031E0009905E1F446175707C8F4809101029091C0
:1031F0000202009741F48DB79EB7409105025091AD
:103200000602841B950BE817F907C8F4F0935608DB
:10321000E0935508F901718360830FC0CB010E94D0
:103220001A177C01009759F0A801BE010E943519B8
:10323000CE010E94AF17C70104C0CE0102C080E0DA
:1032400090E0DF91CF911F910F91FF90EF90DF9071
:10325000CF90BF90AF909F908F907F906F90089588
:1032600081E090E0F8940C944519FB01DC0102C068
:1032700001900D9241505040D8F70895FB01DC01B8
:1032800001900D920020E1F7089511E0C0E9D1E02E
:1032900000E006C0802FFE010E947F162196011DCE
:0E32A000C139D10780E00807A9F7F894FFCFE5
:1032AE00FF00005908200000004275726765720029
:1032BE0000000000000000000000000000436865F0
:1032CE00657365204275726765720000000000002C
:1032DE0000416C6C20427572676572000000000040
:1032EE0000000000005365747570000000000000BF
:1032FE0000000000000000000000000000560E2636
:10330E000E2503B50AF90DE50DB60A00000000847E
:10331E0002C4010802CB02390217022B0200000080
:10332E00001508C401250324030A0D00526F626FB5
:10333E00742073757220626C616E6300526F626FDF
:10334E007420737572206E6F69720043616C6962CE
:10335E00726174696F6E2066696E69000D0A0049AC
:10336E006E76616C696420736572766F2069642174
:10337E0000536572766F20616E676C6520697320ED
:10338E006F7574206F662072616E67652100746FB1
:10339E0075726E6500546F75726E652046696E6942
:1033AE00203100546F75726E652046696E6900415A
:0633BE0076616E636500FC
:00000001FF
