:100000000C9491010C94C2010C94C2010C94C20195
:100010000C94C2010C94C2010C94C2010C94C20154
:100020000C94C2010C9445140C9445140C94451482
:100030000C94C2010C94120B0C94C2010C94C201DA
:100040000C94C2010C945A0F0C94C2010C94C2017E
:100050000C94C2010C94C2010C94C2010C946D1D4D
:100060000C94C2010C94910C0C94670C0C94C2017A
:100070000C94C2010C94C2010C94C2010C94C201F4
:100080000C94C2010C94C2010C94C2010C94C201E4
:100090000C94C2010C94C2010C94C2010C944F1434
:1000A0000C94C2010C94C2010C94C2010C94C201C4
:1000B0000C94C2010C94C2010C94C2010C94BB0CB0
:1000C0000C94C2010C94C2010C94C2010C943D0C1E
:1000D0000C94130C0C94C2010C94E90B0C94BF0B00
:1000E0000C94C201460E4B0E500E5A0E640EDD0EDD
:1000F0006E0E760E7E0E880E920E9C0EAB0EB50E18
:10010000DD0EBF0EC90ED30E9C159F158E159215D0
:100110009815D615A315A715AD15B115B515BB15B1
:10012000BF15C315D615C915CD15D1150C94551E7F
:100130000C94C9150C94C90E0C94500E0C94921585
:100140000C94920E0C946E0E0C9423090C941409CA
:100150000C94BF0E0C94BF150C94B50E0C94AD15F9
:100160000C945A0E0C94C3150C944B0E0C94B515AC
:100170000C94D30E0C94CD150C949C150C942C124D
:100180000C94D0080C94DD0E0C94D7090C94D61561
:100190000C942A0A0C949F150C94E5110C947E0E75
:1001A0000C94D6110C94A3150C94B1150C94880ED4
:1001B0000C9437090C94D7110C9498150C94F411E5
:1001C0000C94D1150C94FC110C94AB0E0C948E1560
:1001D0000C94640E0C94A7150C9445090C94290AF0
:1001E0000C94760E0C94460E0C94C5100C94900949
:1001F0000C949C0E0C94BB150C94DC230000200086
:100200002300260029002C002F00320000010000EE
:100210000301060109010200002100240027002A31
:10022000002D003000330001010000040107010A25
:100230000100002200250028002B002E0031003490
:100240000002010000050108010B01050505050775
:100250000508080808020202020A0A080804040441
:10026000040101010101010101030303030303036D
:1002700003040707070C0C0C0C0C0C0C0C020202FC
:100280000206060606060606060B0B0B0B0B0B0BEF
:100290000B0102102020080810204010204080028E
:1002A00001020108040201010204081020408080BC
:1002B0004020100804020180040201804020100840
:1002C0000402010804020101020408102040800118
:1002D0000204081020408000000A0B02090C0D0ED9
:1002E00008070304010000000000000000000000F7
:1002F00000000000000000000000000000000000FE
:1003000000000012111000000000000000000000BA
:100310000000000000000000000000000000DC23DE
:10032000551E11241FBECFEFD1E2DEBFCDBF00E0CE
:100330000CBF13E0A0E0B2E0E6ECF7E500E00BBF95
:1003400002C007900D92A23FB107D9F729E0A2EFB2
:10035000B3E001C01D92A03CB207E1F711E0C0E993
:10036000D1E000E006C021970109802FFE010E9424
:10037000E127CF38D10780E00807A9F70E94591E6E
:100380000C94D12B0C9400002F923F924F925F92CD
:100390006F927F928F929F92AF92BF92CF92DF9295
:1003A000EF92FF920F931F93CF93DF9300D000D073
:1003B000CDB7DEB784EA96E09093B5048093B40499
:1003C0008091A10690E09093B7048093B604809149
:1003D0006E0790E09093B9048093B80480919D06D5
:1003E000853009F0BBC38091A6069091A706885876
:1003F00091098D35910588F48091A106843041F4EE
:100400008091A8069091A9068097479708F4FFC1AC
:100410008091A106843408F0E1C18091A1068A315F
:1004200008F454C08091A4069091A506843F9140A1
:1004300080F41092B3041092B2048FEF9FEFDC01AE
:100440008093AE049093AF04A093B004B093B10432
:100450005BC08091A6069091A70685974B97B0F553
:10046000EAEAF6E082E090E040E050E0BA018C0178
:100470000F5F1F4F2091A10630E0021713076CF4A5
:100480009F0122503109D9012D913C91275031090A
:100490002730310508F4F3C1C80101979595879578
:1004A0009093B3048093B2040C972CF41092B3048D
:1004B0001092B2040BC04093AE045093AF0460930B
:1004C000B0047093B10484E090E0F9C28091A10679
:1004D0008A3108F44DC08091A4069091A50680321F
:1004E000934008F4A6CF8091A6069091A706C697E0
:1004F000869708F4E0C13CC04093AE045093AF042B
:100500006093B0047093B1048BE090E0D8C2208176
:100510003181255231092B31310508F0DCC1440FFE
:10052000551F661F771F4160029634968C010F5F3E
:100530001F4F2091A10630E00217130764F49F01BA
:1005400022503109D9012D913C912C5031092B3089
:100550003105E8F2C8010197959587959093B3040A
:100560008093B2040C9744F61092B3041092B20434
:100570008091A106823208F44AC08091A60690912B
:10058000A7060697079708F042C0EAEAF6E022E0DD
:1005900030E040E050E0BA01C9010196A091A10607
:1005A000B0E08A179B07CCF4DF0112970D911C91E4
:1005B00011970E5111090731110508F099C1440F27
:1005C000551F661F771F4160A081B1813496139734
:1005D000159720F42E5F3F4FDFCFC9010197959506
:1005E00087959093B3048093B20440972CF41092B3
:1005F000B3041092B2040BC04093AE045093AF0406
:100600006093B0047093B1048CE090E058C21C82F7
:100610001B8281E090E09A8389838091A1068D30CE
:1006200008F46BC049E753E0BE016D5F7F4FCE0118
:1006300001960E94B816892B09F05FC049E753E084
:10064000BE016D5F7F4FCE0101960E94B8160197E3
:1006500009F053C049E753E0BE016D5F7F4FCE0103
:1006600001960E94B816892B09F047C0C12CD12CE5
:10067000760100E010E08091A10690E029813A81A6
:10068000281739075CF549E753E0BE016D5F7F4FDE
:10069000CE0101960E94B8165C0149E753E0BE0105
:1006A0006D5F7F4FCE0101960E94B816B1E0AB1688
:1006B000B10449F4892B09F5CC0CDD1CEE1CFF1CA0
:1006C0006894C0F808C0AB28C1F40197B1F4CC0C11
:1006D000DD1CEE1CFF1C0F5F1F4FCDCF1093B3042A
:1006E0000093B204C092AE04D092AF04E092B00482
:1006F000F092B10481E090E0E2C11C821B8281E0B3
:1007000090E09A8389838091B6049091B70418167B
:1007100019060CF058C0E091B404F091B50482E0E1
:1007200090E09A8389838281938189974E9708F01C
:100730004AC083E090E09A838983848195810B97F6
:100740000A9708F040C04CEB51E0BE016D5F7F4F4F
:10075000CE0101960E94B816892BA9F54CEB51E009
:10076000BE016D5F7F4FCE0101960E94B8160197C2
:1007700051F5C12CD12C760100E010E029813A819D
:100780008091B6049091B704281739070CF0F2C095
:100790004CEB51E0BE016D5F7F4FCE0101960E9490
:1007A000B8164C010330110509F0AEC04CEB51E016
:1007B000BE016D5F7F4FCE0101960E94B81688166C
:1007C000990609F4A1C0E091B404F091B5048281C6
:1007D0009381C697869708F4DCC0CFC18091A806A4
:1007E0009091A906825491098E9708F016CE20E0C8
:1007F00030E080E090E0DC01F901E655F94F4081FE
:100800005181495051094930510588F006CE8091F7
:10081000AA069091AB060997099708F0F9CD1092B6
:10082000B3041092B2048FEF9FEFDC019BC1F9017A
:10083000E455F94F408151814751510942315105E9
:1008400088F4880F991FAA1FBB1F81602C5F3F4F40
:100850002038310589F620E230E03093B30420934C
:10086000B20480C140815181465051094730510541
:1008700008F0D3CD880F991FAA1FBB1FE7CF208197
:100880003181235131092F30310540F4440F551F78
:10089000661F771F416002963496E9CD2081318131
:1008A0002A5031092930310508F010CE440F551F68
:1008B000661F771FF0CF8091A8069091A906C69772
:1008C000869708F055CEECEAF6E083E090E040E051
:1008D00050E0BA012BCE208131812C5031092A30D1
:1008E000310508F045CE440F551F661F771F1CCEFB
:1008F0000D90BC91A02D1C971B9708F088CE440F3B
:10090000551F661F771F60CE4CEB51E0BE016D5F37
:100910007F4FCE0101960E94B8165C01033011058D
:1009200069F44CEB51E0BE016D5F7F4FCE01019643
:100930000E94B816A816B90609F045CF8114910493
:1009400059F4AA94AB2809F03ECFCC0CDD1CEE1C68
:10095000FF1C6894C0F80BC08A94892809F033CF33
:10096000AB2809F030CFCC0CDD1CEE1CFF1C0F5F58
:100970001F4F04CF1093B3040093B204C092AE048F
:10098000D092AF04E092B004F092B10482E090E023
:1009900096C0848195814B97459708F0EEC0DF01A2
:1009A00016967F0126ECE20EF11C20E030E040E0DC
:1009B00050E060E070E080E090E00D911C911197B4
:1009C000095011090830110508F0D7C012960D9191
:1009D0001C911397015111090D30110520F501E00B
:1009E0000E94E92721601496AE15BF0531F72093C8
:1009F000AE043093AF044093B0045093B10400E2CE
:100A00000E9404282093AC043093AD0485E090E06C
:100A10009093AB048093AA0480E390E09093B30496
:100A20008093B20450C012960D911C9113970450FC
:100A300011090530110508F0A0C001E00E94E92766
:100A4000D2CF980122503109D9012D913C912950E2
:100A500031092830310508F03EC1BC016F5F7F4F7E
:100A6000D8012D913C91275031092730310508F0EC
:100A70002FC3440F551F416002960C5F1F4F2091FA
:100A8000A10630E02450310982179307D4F2019770
:100A9000959587959093B3048093B2048A970CF44C
:100AA0001AC1052E000C660B770B4093AE045093D1
:100AB000AF046093B0047093B10489E090E0909328
:100AC000AB048093AA0482E080939D061092A10655
:100AD0004091AE045091AF046091B0047091B104A4
:100AE000463CBFEC5B07B4E06B07B6E67B0771F1F1
:100AF0004A3FFFEC5F07F4E06F07F6E67F07E9F097
:100B0000463D2FEC520724E0620726E67207C1F04B
:100B1000463E8FEC580784E0680786E6780799F030
:100B200081E090E0463F5F4C6440764611F480E0FF
:100B300090E091958195910919C382E090E016C3E8
:100B400083E090E013C384E090E010C381E090E084
:100B50000DC382E080939D061092A10640E050E014
:100B6000BA01DECF8093AE049093AF04A093B0049B
:100B7000B093B10483E090E0A2CF8091A1068933C5
:100B800070F182819381895791098335910508F429
:100B900040C125C0D90112966D917C911397665181
:100BA00071096131710508F060C1D701C601880F74
:100BB000991FAA1FBB1F6C017D016894C0F84E5F8E
:100BC0005F4F2C5F3F4F4B33510509F431C1D901C1
:100BD0006D917C916A50710969307105D8F28091EC
:100BE000A106823231F4828193810A97099708F431
:100BF0004CC1828193818957910983359105D0F445
:100C00008091A1068132B0F084819581CA9789973D
:100C100088F49F012A5F3F4FC12CD12C760143E01D
:100C200050E0D9016D917C916A507109693071056C
:100C300008F44AC1828193818C549109C59778F454
:100C40008091A106843031F4848195818097479703
:100C500008F499C18091A106843408F07BC1809189
:100C6000A106863460F1828193810C970B9708F47A
:100C7000D8C125C0D90112966D917C9113976E5100
:100C800071096731710508F004C2D701C601880FE8
:100C9000991FAA1FBB1F6C017D016894C0F84E5FAD
:100CA0005F4F2C5F3F4F4534510509F4D5C1D90141
:100CB0006D917C916C5071096B307105D8F2809107
:100CC000A106883540F082819381855891098B3542
:100CD000910508F4EEC18091A1068032E1F4828191
:100CE000938106970697B8F48481958109970997AF
:100CF00090F49F012A5F3F4FBF01625C7F4FC12C80
:100D0000D12C7601D9014D915C9146505109463064
:100D1000510508F4EAC18091B6049091B7049E830E
:100D20008D8306970CF415CF8F010A5F1F4F73E078
:100D3000272E312CE5ECCE2EEDE9DE2EECE1EE2E69
:100D4000E1E8FE2ED8016D917C91F8013497A080E6
:100D5000B18080E090E00E9421262B013C01B5018A
:100D600080E090E00E9421264B015C012DEC3CECE0
:100D70004CE45FE30E9482269B01AC01C301B201F7
:100D80000E941C2687FD17C02DEC3CEC4CE45FE371
:100D9000C301B2010E9482269B01AC01C501B401CE
:100DA0000E941C26E82F880FFF0BEE27FF0FEE1F77
:100DB000FF27319602C0E0E0F0E0A701960163E969
:100DC00071E080E091E00E94B1276F01FF0FEE0813
:100DD000FF08C626D726E826F926BFEF2B1A3B0ABE
:100DE0000E5F1F4FED81FE812E163F0609F0AACF40
:100DF000C092AE04D092AF04E092B004F092B1047D
:100E000080E290E09093B3048093B2048FEF9FEF61
:100E100056CE84819581CA97899708F0E0CE9F01CC
:100E20002A5F3F4FC12CD12C760143E050E0CFCE5A
:100E30009F012A583F4FD9012D913C912A503109E9
:100E40002930310508F0CBCE2CE130E03093B304EB
:100E50002093B204C092AE04D092AF04E092B004EA
:100E6000F092B1048AE090E02ACED90112966D91F9
:100E70007C911397665071096730710508F0AFCE09
:100E8000CC0CDD1CEE1CFF1C9ACE2091A106CF01DC
:100E9000820F911D820F911DDC0112978D919C9103
:100EA0000A97099708F0A5CE1092B3041092B204E5
:100EB0008FEF9FEFDC018093AE049093AF04A0937B
:100EC000B004B093B1044CC1D90112966D917C91DC
:100ED0001397665171096131710588F112966D9110
:100EE0007C911397665071096730710508F0A2CEA6
:100EF000CC0CDD1CEE1CFF1C4E5F5F4F2C5F3F4F88
:100F00004332510509F08DCE9F012A5B3F4FD90135
:100F10002D913C912A5031092930310508F08ACEB3
:100F200020E130E03093B3042093B204C092AE04C9
:100F3000D092AF04E092B004F092B10411C1D70195
:100F4000C601880F991FAA1FBB1F6C017D01689401
:100F5000C0F8D2CF8481958189549109C39708F054
:100F60007ECE9F012A5F3F4FBF016A577F4FC12C42
:100F7000D12C7601D9014D915C91495051094930EC
:100F80005105B8F06CCE868197810997099708F0D2
:100F900061CE1092B3041092B2048FEF9FEFDC0188
:100FA0008093AE049093AF04A093B004B093B104C7
:100FB000DAC0D90112964D915C91139746515109AF
:100FC00041315105F0F4D701C601880F991FAA1FBE
:100FD000BB1F6C017D016894C0F82C5F3F4F261742
:100FE000370741F620E230E03093B3042093B20497
:100FF000C092AE04D092AF04E092B004F092B1047B
:10100000B2C0D90112964D915C9113974650510987
:101010004730510508F023CECC0CDD1CEE1CFF1C24
:10102000DCCF848195810997099708F048CE8681A5
:1010300097818C974F9708F042CE8085918589974C
:101040004D9708F03CCE9F01265F3F4FC12CD12C1D
:10105000760145E050E02BCE9F0126573F4FD90146
:101060002D913C912C5031092B30310508F027CEC1
:1010700020E230E03093B3042093B204C092AE0477
:10108000D092AF04E092B004F092B10488E090E016
:1010900016CDD90112966D917C9113976950710903
:1010A0006930710508F00BCECC0CDD1CEE1CFF1C6A
:1010B000F6CD84819581825491098E9708F00BCEEC
:1010C0008F01045C1F4F8DE190E040E050E0D7CCF1
:1010D000D8012D913C91285131092231310510F070
:1010E000CB01D5CC440F551FC7CCD90112964D91D9
:1010F0005C911397495151094331510508F5D701C6
:10110000C601880F991FAA1FBB1F6C017D0168943F
:10111000C0F82C5F3F4F2617370709F0F3CD2EE0BC
:1011200030E03093B3042093B204C092AE04D09266
:10113000AF04E092B004F092B1048FE090E0BFCC35
:10114000D90112964D915C9113974950510949303C
:10115000510508F0E0CDCC0CDD1CEE1CFF1CD9CFF6
:1011600086E090E0ACCC87E090E0A9CC26960FB664
:10117000F894DEBF0FBECDBFDF91CF911F910F91CD
:10118000FF90EF90DF90CF90BF90AF909F908F90A7
:101190007F906F905F904F903F902F9008950895AB
:1011A000CF92DF92EF92FF920F931F93CF93DF9333
:1011B0006C017A018B01C0E0D0E0CE15DF0589F02B
:1011C000D8016D918D01D601ED91FC910190F081D6
:1011D000E02DC6011995892B11F47E0102C02196DC
:1011E000ECCFC701DF91CF911F910F91FF90EF904E
:1011F000DF90CF900895FC01A089B1898C91A689D8
:10120000B78982FD0FC09C91818D8F5F8F73228D76
:10121000821749F0218DDF01A20FB11D5D969C93CD
:10122000818F08958C910895FC01538D448D252F55
:1012300030E0842F90E0821B930B541710F0CF9670
:10124000089501970895FC01918D828D981761F0A2
:10125000828DDF01A80FB11D5D968C91928D9F5FED
:101260009F73928F90E008958FEF9FEF0895FC0198
:10127000918D828D981731F0828DE80FF11D858D4B
:1012800090E008958FEF9FEF0895FC01918D228DDE
:10129000892F90E0805C9F4F821B91098F73992763
:1012A000089586EC94E00E94450921E0892B09F419
:1012B00020E0822F089583E695E00E94450921E011
:1012C000892B09F420E0822F089580E096E00E94A7
:1012D000450921E0892B09F420E0822F0895FC01C3
:1012E000848DDF01A80FB11DA35ABF4F2C91848DAF
:1012F00090E001968F739927848FA689B7892C93E4
:10130000A089B1898C9180648C93938D848D98137E
:1013100006C00288F389E02D80818F7D8083089547
:10132000EF92FF920F931F93CF93DF93EC0181E035
:10133000888F9B8D8C8D981305C0E889F9898081F1
:1013400085FD24C0F62E0B8D10E00F5F1F4F0F732D
:101350001127E02E8C8DE8120CC00FB607FCFACFD7
:10136000E889F989808185FFF5CFCE010E946F0958
:10137000F1CF8B8DFE01E80FF11DE35AFF4FF08294
:101380000B8FEA89FB898081806207C0EE89FF8923
:101390006083E889F98980818064808381E090E0BE
:1013A000DF91CF911F910F91FF90EF900895CF9310
:1013B000DF93EC01888D8823C9F0EA89FB8980815D
:1013C00085FD05C0A889B9898C9186FD0FC00FB62F
:1013D00007FCF5CF808185FFF2CFA889B9898C9170
:1013E00085FFEDCFCE010E946F09E7CFDF91CF914E
:1013F0000895E0E0F0E0199480E090E0892B21F07E
:101400000E946509811119C080E090E0892B41F0AC
:1014100080E090E0892B21F00E940000811110C033
:101420000E945B0981110FC080E090E0892B81F060
:101430000E94510981110AC008950E940000E4CF62
:101440000E940000EDCF0E94F909EECF0C9400003D
:101450000895089580E090E008950F931F93CF932F
:10146000DF938C01EB01FC01808191810097B1F049
:10147000688179816115710579F0428153812C81F0
:101480003D814217530740F00E94CA2B8C819D81F9
:10149000F8019583848313C00E943B2A8881998137
:1014A000F801918380838A819B81938382838C81DD
:1014B0009D8195838483198218821B821A821D82E2
:1014C0001C82DF91CF911F910F9108950F931F936D
:1014D000CF93DF93EC0188819981009729F02A81CD
:1014E0003B812617370788F48B016F5F7F4F0E947F
:1014F000D32A009761F0998388831B830A832C8108
:101500003D81232B11F4FC01108281E001C080E0B9
:10151000DF91CF911F910F910895CF93DF93EC014D
:1015200088819981009711F00E943B2A19821882C4
:101530001D821C821B821A82DF91CF910895EF9247
:10154000FF920F931F93CF93DF93EC017B018A01EE
:10155000BA010E94660A811104C0CE010E948D0A60
:1015600007C01D830C83B701888199810E94CA2B13
:10157000CE01DF91CF911F910F91FF90EF900895D1
:10158000FC01808191810C943B2AEF92FF920F9392
:101590001F93CF93DF93CDB7DEB762970FB6F89462
:1015A000DEBF0FBECDBF8C01CB01F80111821082CE
:1015B000138212821582148250E09E012F5F3F4FEA
:1015C0007901B9010E94DC25F70101900020E9F7BB
:1015D0003197AF014E195F09B701C8010E949F0AF8
:1015E00062960FB6F894DEBF0FBECDBFDF91CF91EC
:1015F0001F910F91FF90EF900895FC0111821082CE
:1016000013821282158214826115710551F0FB015B
:1016100001900020E9F73197AF01461B570B0C945E
:101620009F0A08951F920F920FB60F9211240BB6C6
:101630000F922F933F934F935F936F937F938F936B
:101640009F93AF93BF93EF93FF9380910F0490917B
:101650001004A0911104B0911204892B8A2B8B2BBA
:1016600059F180910E04E0910C04F0910D049081E9
:101670008927808380910F0490911004A091110418
:10168000B0911204181619061A061B060CF056C063
:1016900080910F0490911004A0911104B091120454
:1016A0000197A109B10980930F0490931004A093AE
:1016B0001104B093120442C080910002E6E1F2E00E
:1016C000E4919FEF90930002E230C9F050F4EE23D2
:1016D00099F0E13081F590916F009D7F90936F00BC
:1016E0002AC0E43019F1E0F0E53029F5909173005B
:1016F0009D7F909373001FC010926E001CC090914C
:1017000070009D7F9093700091E09093B000909155
:10171000B100987F94609093B1001092B3000BC019
:10172000909171009D7F9093710005C0909172001F
:101730009D7F9093720060E00E94D715FF91EF911A
:10174000BF91AF919F918F917F916F915F914F91D9
:101750003F912F910F900BBE0F900FBE0F901F90D7
:101760001895DC01ED91FC91DB0114964D915C9193
:1017700015976D917C910280F381E02D19941F9251
:101780000F920FB60F9211240BB60F922F933F9327
:101790004F935F936F937F938F939F93AF93BF9379
:1017A000EF93FF9386EC94E00E946F09FF91EF9115
:1017B000BF91AF919F918F917F916F915F914F9169
:1017C0003F912F910F900BBE0F900FBE0F901F9067
:1017D00018951F920F920FB60F9211240BB60F920D
:1017E0002F933F934F935F936F937F938F939F9329
:1017F000AF93BF93EF93FF9386EC94E00E94FB08B6
:10180000FF91EF91BF91AF919F918F917F916F91D8
:101810005F914F913F912F910F900BBE0F900FBE94
:101820000F901F9018951F920F920FB60F921124D0
:101830000BB60F922F933F934F935F936F937F93CA
:101840008F939F93AF93BF93EF93FF9383E695E0BE
:101850000E946F09FF91EF91BF91AF919F918F917E
:101860007F916F915F914F913F912F910F900BBEA0
:101870000F900FBE0F901F9018951F920F920FB6EA
:101880000F9211240BB60F922F933F934F935F93B8
:101890006F937F938F939F93AF93BF93EF93FF9338
:1018A00083E695E00E94FB08FF91EF91BF91AF9115
:1018B0009F918F917F916F915F914F913F912F9168
:1018C0000F900BBE0F900FBE0F901F9018951F9298
:1018D0000F920FB60F9211240BB60F922F933F93D6
:1018E0004F935F936F937F938F939F93AF93BF9328
:1018F000EF93FF9380E096E00E946F09FF91EF91D4
:10190000BF91AF919F918F917F916F915F914F9117
:101910003F912F910F900BBE0F900FBE0F901F9015
:1019200018951F920F920FB60F9211240BB60F92BB
:101930002F933F934F935F936F937F938F939F93D7
:10194000AF93BF93EF93FF9380E096E00E94FB0874
:10195000FF91EF91BF91AF919F918F917F916F9187
:101960005F914F913F912F910F900BBE0F900FBE43
:101970000F901F9018951F920F920FB60F9211247F
:101980000BB60F922F933F934F935F936F937F9379
:101990008F939F93AF93BF93CF93DF93EF93FF9377
:1019A00020919E0630E0F901E952FD4F8491F90142
:1019B000EF56FD4FD491F901E55BFD4FC491CC2367
:1019C000A1F081110E948115EC2FF0E0EE0FFF1FB6
:1019D000E450FE4FA591B491EC91ED2331E020E06D
:1019E00009F430E0832F922F02C080E090E0209134
:1019F000A2063091A3062F5F3F4F3093A30620939A
:101A0000A2062091A106253618F026E020939D0617
:101A100020919D062430D9F128F4223069F023303A
:101A2000D9F060C0253009F453C0263009F05AC0FF
:101A300021E020936E0753C0009709F053C0209116
:101A4000A2063091A3062436310508F443C0109253
:101A50006E071092A1061DC08130910509F042C0A9
:101A6000E091A10621E02E0F2093A106F0E0209145
:101A7000A2063091A306EE0FFF1FE356F94F308701
:101A800027831092A3061092A20624E029C0009793
:101A9000B9F4E091A10621E02E0F2093A106F0E019
:101AA0002091A2063091A306EE0FFF1FE356F94FD7
:101AB000308727831092A3061092A20623E010C05D
:101AC0002091A2063091A3062536310558F007C0B3
:101AD000009741F41092A3061092A20603C025E0DD
:101AE00020939D062091A0062223B9F0892B51F462
:101AF00080919F06882321F080919F0661E009C0B4
:101B00002F9A0BC080919F06882331F080919F0609
:101B100060E00E94D71501C02F98FF91EF91DF91EF
:101B2000CF91BF91AF919F918F917F916F915F9175
:101B30004F913F912F910F900BBE0F900FBE0F90C2
:101B40001F901895CF92DF92EF92FF92CF93DF9381
:101B5000EC01072E000C880B990B0E9423266B01C9
:101B60007C0120E030E040E45FE30E94822620E038
:101B700030E048E452E40E94A1280E941329C617CD
:101B8000D707D4F020E030E040EA5FE3C701B601B8
:101B90000E94822620E030E048E452E40E94A1281E
:101BA00020E030E040E85FE30E9435280E941329DE
:101BB00021E06C177D070CF420E0822F90E0DF918C
:101BC000CF91FF90EF90DF90CF9008958F929F92EA
:101BD000AF92BF92CF92DF92EF92FF920F931F933B
:101BE000CF93DF93EC016A017B0120E030E04FE707
:101BF00053E4C701B6010E9482264B015C0120E03C
:101C000030E0A9010E94A12918161CF4C501B401F5
:101C100003C0C501B40190580E9413298B0120E034
:101C200030E0A901C701B6010E94A129181614F4D9
:101C300060E001C061E089810E94D7150F3F110566
:101C400009F014F4112702C00FEF10E0C88161E021
:101C50008C2F0E9425160115110509F4B1C00F3F04
:101C6000110509F4AFC0EC2FF0E0E952FD4FE4910B
:101C70004E2F50E0FA013197E231F10508F09DC096
:101C80008827EE58FF4F8F4F0C94E12784B580686A
:101C900084BD07BDA7C084B5806284BD08BDA2C055
:101CA0008091800080688093800010938900009369
:101CB000880098C08091800080628093800010939B
:101CC0008B0000938A008EC0809180008860809392
:101CD000800010938D0000938C0084C08091B00030
:101CE00080688093B0000093B3007CC08091B00006
:101CF00080628093B0000093B40074C08091900023
:101D000080688093900010939900009398006AC0B7
:101D10008091900080628093900010939B000093CC
:101D20009A0060C08091900088608093900010932A
:101D30009D0000939C0056C08091A0008068809315
:101D4000A0008091A0008F7B8093A0001093A90039
:101D50000093A80047C08091A00080628093A000FB
:101D60001093AB000093AA003DC08091A000886052
:101D70008093A0001093AD000093AC0033C080911D
:101D8000200180688093200110932901009328018D
:101D900029C08091200180628093200110932B0143
:101DA00000932A011FC08091200188608093200148
:101DB00010932D0100932C0115C00038110514F467
:101DC00060E001C061E08C2FDF91CF911F910F91F6
:101DD000FF90EF90DF90CF90BF90AF909F908F904B
:101DE0000C94D715DF91CF911F910F91FF90EF9039
:101DF000DF90CF90BF90AF909F908F9008951F93EA
:101E0000CF93DF93EC01162F88818C3008F04DC002
:101E100061E0812F0E942516E88195E09E9FF001E8
:101E20001124E159F84F1F738081807C182B108397
:101E30001382E8819E9FF0011124E159F84F14822A
:101E400088816CE00E94C1279CE0899FA001112439
:101E500020E030E095E0B901640F751F969FF00116
:101E6000979FF00D1124E159F84F608166FD13C072
:101E70002F5F3F4F2C30310571F781110CC010924C
:101E8000800082E08093810010928500109284008F
:101E900086BB80936F00E88185E0E89FF001112404
:101EA000E159F84F8081806480838881DF91CF91F0
:101EB0001F9108951F920F920FB60F9211240BB627
:101EC0000F922F933F934F935F936F937F938F93D3
:101ED0009F93AF93BF93EF93FF9380910B0487FF82
:101EE00005C0109285001092840016C020910B044A
:101EF000022E000C330B8091AB0790E028173907B6
:101F00005CF430910B0425E03203F0011124E15917
:101F1000F84F808186FD15C080910B048F5F809300
:101F20000B0420910B04022E000C330B8091AB07A5
:101F300090E02817390794F480910B048C302CF131
:101F40000DC030910B043203F0011124E159F84F18
:101F5000808160E08F730E94D715DECF809184006E
:101F60009091850084349C4918F480E49CE905C074
:101F700080918400909185000496909389008093CD
:101F800088008FEF80930B042AC040918400509109
:101F9000850030910B0425E03203F0011124E15952
:101FA000F84F81819281840F951F909389008093CF
:101FB000880030910B043203F0011124E159F84FED
:101FC000808186FF0CC030910B043203F001112494
:101FD000E159F84F808161E08F730E94D715FF911E
:101FE000EF91BF91AF919F918F917F916F915F9191
:101FF0004F913F912F910F900BBE0F900FBE0F90FE
:102000001F9018958EBD00000DB407FEFDCF8EB554
:102010000895CF93DF93EC0160E088810E94D7158B
:1020200088E90E94021080E00E94021080E00E9475
:10203000021080E00E94021080E00E94021061E025
:1020400088810E94D7158BE891E00197F1F760E055
:1020500088810E94D71580EE0E94021061E088817D
:10206000DF91CF910C94D715AF92BF92CF92DF92B0
:10207000EF92FF920F931F93CF93DF93CDB7DEB70D
:1020800060970FB6F894DEBF0FBECDBF5C0160E075
:10209000FC0180810E94D71580E60E9402108E010B
:1020A0000F5F1F4F7E01F1E1EF0EF11C680180E030
:1020B0000E94021090E0A0E0B0E0F60181939193BD
:1020C000A193B1936F01EE15FF0589F761E0F5016A
:1020D00080810E94D71580E090E0DC01F8014191F9
:1020E0005191619171918F01BA2FA92F982F882753
:1020F000840F951FA61FB71FEE15FF0579F79C01EA
:10210000AD0166277727CB01621B730B840B950B00
:1021100060960FB6F894DEBF0FBECDBFDF91CF91B2
:102120001F910F91FF90EF90DF90CF90BF90AF90F5
:102130000895FC01248131E0309386042093A804A3
:10214000109287041092A9048485682B8AEB94E08E
:102150000E942C120C9474170F931F93CF938C0131
:10216000C62F0E9499106C2F6460C8010E949910BC
:102170006C2F6B7FC8010E94991083EC90E001974F
:10218000F1F7CF911F910F9108950F931F93CF9364
:102190008C01C62F607F61600E94AC1080E1C89FF7
:1021A000B00111246160C8010E94AC1081E090E090
:1021B000CF911F910F9108950F931F93CF938C018F
:1021C000C62F607F0E94AC1080E1C89FB00111242F
:1021D000C801CF911F910F910C94AC10CF93DF9356
:1021E000CDB7DEB728970FB6F894DEBF0FBECDBFD0
:1021F0009C0188E0E7E0F2E0DE01119601900D928B
:102200008A95E1F7F9018085841710F44FEF480FA4
:10221000FE013196E40FF11DE40FF11D9081690F6D
:102220006068C90128960FB6F894DEBF0FBECDBF17
:10223000DF91CF910C94DC10CF93DF93EC0161E040
:102240000E94DC108BE39FE10197F1F789858823D9
:1022500039F040E060E0CE01DF91CF910C94EE10B8
:10226000DF91CF91089565E581E00C94B71DCF9380
:10227000C82F6091A50970E08DEA99E00E94FF0ED9
:10228000CC2311F06BE701C060E080E0CF910C94AB
:10229000B71D8091BA089091BB080C941C11CF9384
:1022A000DF9300D000D0CDB7DEB71A8219821C822E
:1022B0001B821E821D82FC01608171816115710586
:1022C00031F044815581CE0101960E949F0ACE01D2
:1022D00001960E942318CE0101960E94C00A2696FC
:1022E0000FB6F894DEBF0FBECDBFDF91CF9108953A
:1022F000823040F08FE293E00E94661760E070E069
:10230000CB01089581110CC089E999E00E94341035
:1023100090958095709561957F4F8F4F9F4F089551
:102320008BE999E00C943410823020F083E493E040
:102330000C946617813009F4705890E0880F991F4B
:102340008B56964F0C94E60D85ED8093BC008091E2
:10235000BC0084FDFCCF10928504089540913704A1
:10236000262F30E0240F311D21323105DCF420917D
:1023700085042430C9F4FC0180E090E0861758F40D
:10238000309137042191DC01AB5EBB4FA30FB11D2F
:102390002C930196F3CF80913704680F6093370434
:1023A00080E0089581E0089582E00895089581E035
:1023B00090E03091140420911304321710F480E05F
:1023C00090E09195819591090895809114049091E0
:1023D0001304891730F48F5F8093140480E090E039
:1023E00008958FEF9FEF08958091130490E020915E
:1023F0001404821B91090895CF92DF92EF92FF920D
:102400000F931F93CF93DF937C01262F972F8A0181
:1024100080918604882391F0C62FD72F6E01C40EB9
:10242000D51ECC15DD0571F06991D701ED91FC91B8
:102430000190F081E02DC7011995F3CF642F822F11
:102440000E94AE11C801DF91CF911F910F91FF90B3
:10245000EF90DF90CF900895CF93DF931F92CDB789
:10246000DEB76983209186042223D1F02091A9044C
:10247000203240F021E030E0FC013383228380E011
:1024800090E015C080918704E82FF0E0E857FB4FFB
:10249000998190838F5F809387048093A90405C0FE
:1024A00061E0CE0101960E94AE1181E090E00F90B4
:1024B000DF91CF9108954F925F926F927F929F929A
:1024C000AF92BF92CF92DF92EF92FF920F931F9342
:1024D000CF93DF93EC016C0197FF03C02FEFC21A7B
:1024E000D20AD594C7940D2C000CEE08FF088E017B
:1024F0000170112781E00827202F2170922E98EB80
:10250000492E9EE1592E95E0692E9EE3792E809109
:10251000B0088111AAC14091A7085091A808609104
:10252000A9087091AA0885E999E00E94E60D4091FA
:10253000AB085091AC086091AD087091AE0881E095
:102540000E9494110E94FC198230910519F4109296
:10255000AF084EC09C012D7F2430310579F41092D4
:10256000AF084092AB085092AC086092AD087092F0
:10257000AE088DEC9CECACE4BEE346C021303105E6
:10258000B9F41092AF088DEC9CECACE4BEE3809300
:10259000AB089093AC08A093AD08B093AE084092FE
:1025A000A7085092A8086092A9087092AA08AFCF15
:1025B000079709F0ACCF8091AF088111A8CF81E0D7
:1025C0008093AF08C701B6010E9423260E944929C3
:1025D000A090B108B090B2082FEFA21AB20AB09240
:1025E000B208A092B1080E941329A616B706A9F056
:1025F0008DEC9CECACE4BEE38093AB089093AC080C
:10260000A093AD08B093AE088093A7089093A80854
:10261000A093A908B093AA087ACF01151105E9F093
:102620001092A7081092A8081092A9081092AA0860
:102630008DEC9CECACE4BEE38093AB089093AC08CB
:10264000A093AD08B093AE0885E593E00E945417BF
:1026500088E593E00E94541714C08DEC9CECACE428
:10266000BEE38093A7089093A808A093A908B0930D
:10267000AA081092AB081092AC081092AD08109204
:10268000AE084DEC5CEC6CE47EE385E999E00E94D9
:10269000E60D4DEC5CEC6CE47EEB87E999E00E9482
:1026A000E60D6AEF70E080E090E00E94331D4091FB
:1026B000A7085091A8086091A9087091AA0885E917
:1026C00099E00E94E60D4091AB085091AC086091F2
:1026D000AD087091AE0881E00E9494116EE571E042
:1026E00080E090E00E94331D0E94FC190797E1F7FB
:1026F0000E94BC1AC530D10564F40E94DE1C0E9401
:10270000271A0E94BC1A892D0E94621B87E090E064
:102710000EC0C530D10571F40E94DE1C0E94271A3C
:102720000E94BC1A892D0E94621B86E090E00E94E4
:102730005B12EDCEC630D10509F08EC06091A609BE
:1027400070E08EEA99E00E94FF0E0E94331164EF60
:1027500071E080E090E00E94331D80E00E9437111C
:102760004AE959E969E17EE387E999E00E94E60DCB
:102770004AE959E969E17EEB85E999E00E94E60DB5
:102780006CED75E080E090E00E94331D40E050E089
:1027900060E070E887E999E00E94E60D40E050E0D3
:1027A000BA0185E999E00E94E60D81E00E943711A7
:1027B00068E873E180E090E00E94331D0E94BC1A3B
:1027C00064EF71E080E090E00E94331D80E00E94A1
:1027D000371164EF71E080E090E00E94331D4AE918
:1027E00059E969E17EE387E999E00E94E60D4AE94B
:1027F00059E969E17EEB85E999E00E94E60D6CED0F
:1028000075E080E090E00E94331D40E050E060E021
:1028100070E887E999E00E94E60D40E050E0BA01D7
:1028200085E999E00E94E60D81E00E94371168E891
:1028300073E180E090E00E94331D0E94BC1A0E9468
:10284000DE1C0E94271A0E94BC1A0E94BC1A0E9419
:10285000BC1A0E94BC1A04C0C730D10509F057CE7B
:102860000E94BD1C0E94FC1B52CEDF91CF911F9194
:102870000F91FF90EF90DF90CF90BF90AF909F901F
:102880007F906F905F904F9008951F920F920FB6B8
:102890000F9211240F900FBE0F901F9018951F924A
:1028A0000F920FB60F9211240BB60F922F933F93F6
:1028B0004F935F936F937F938F939F93AF93BF9348
:1028C000EF93FF938091B900887F803609F49CC014
:1028D00068F5883209F45BC090F4803109F454C083
:1028E00038F4882309F4F6C0883009F44DC0F6C0E6
:1028F000883109F44CC0803209F45DC0EFC08034E7
:1029000009F468C048F4803309F455C0883309F0ED
:10291000E5C080938304D8C0803509F44FC0883562
:1029200009F45DC0883409F0D9C0D6C0883909F4EB
:10293000C7C0A8F4883709F467C038F4883609F4AA
:1029400063C0803709F460C0C9C0883809F4B8C0D2
:10295000803909F45FC0803809F0C0C05BC0803B9B
:1029600009F486C038F4803A09F466C0883A09F45C
:102970007FC0B4C0803C09F4A7C0883C09F4A4C05F
:10298000883B09F48AC0AAC08091600410C090916D
:10299000820480918104981770F5E091820481E0AF
:1029A0008E0F80938204F0E0EF59FB4F808180937B
:1029B000BB0085EC86C0809383048EC0E0918204C6
:1029C00081E08E0F809382048091BB00F0E0EF598C
:1029D000FB4F808390918204809181046EC0E091CE
:1029E000820481E08E0F809382048091BB00F0E02E
:1029F000EF59FB4F80838091840481116DC081E089
:102A000080935F0484EA61C083E080938504109220
:102A10005B04CFCF80915B04803208F051C0E0911D
:102A20005B0481E08E0F80935B048091BB00F0E03B
:102A3000E55CFB4F8083BDCF85EC8093BC0010929A
:102A4000850480915B04803230F4E0915B04F0E017
:102A5000E55CFB4F108260915B0470E0E09139040B
:102A6000F0913A048BE394E0199510925B0436C020
:102A700084E0809385041092380410923704E0912A
:102A80003504F0913604199580913704811105C001
:102A900081E08093370410921504E091380481E0BE
:102AA0008E0F80933804F0E0EB5EFB4F80818093C3
:102AB000BB009091380480913704981708F479CFBF
:102AC00085E88093BC000AC085EC8093BC0010921E
:102AD000850404C0109283040E94A411FF91EF9119
:102AE000BF91AF919F918F917F916F915F914F9126
:102AF0003F912F910F900BBE0F900FBE0F901F9024
:102B0000189590E0FC013197E231F10508F04EC0D4
:102B10008827EC57FF4F8F4F0C94E127809180005E
:102B20008F7703C0809180008F7D8093800008950F
:102B300080918000877FF9CF84B58F7702C084B5FC
:102B40008F7D84BD08958091B0008F7703C0809100
:102B5000B0008F7D8093B0000895809190008F77B2
:102B600007C0809190008F7D03C080919000877F87
:102B70008093900008958091A0008F7707C0809186
:102B8000A0008F7D03C08091A000877F8093A0006C
:102B90000895809120018F7707C0809120018F7D5B
:102BA00003C080912001877F8093200108951F93A7
:102BB000CF93DF93282F30E0F901E952FD4F849144
:102BC000F901EF56FD4FD491F901E55BFD4FC4913A
:102BD000CC23C9F0162F81110E948115EC2FF0E053
:102BE000EE0FFF1FEF5CFD4FA591B4918FB7F894E6
:102BF000111105C09C91ED2FE095E92302C0EC91E5
:102C0000ED2BEC938FBFDF91CF911F910895109220
:102C1000850481E08093840410925F0461E084E184
:102C20000E94D71561E085E10E94D715E9EBF0E03D
:102C300080818E7F808380818D7F808388E48093F4
:102C4000B80085E48093BC000895CF93DF9390E0B3
:102C5000FC01EF56FD4F2491FC01E55BFD4F849193
:102C6000882361F190E0880F991FFC01E95EFD4F18
:102C7000C591D491FC01EF5CFD4FA591B491611118
:102C800009C09FB7F8948881209582238883EC91AE
:102C90002E230BC0623061F49FB7F8943881822FE5
:102CA000809583238883EC912E2B2C939FBF06C0A5
:102CB0008FB7F894E8812E2B28838FBFDF91CF91B7
:102CC00008950E94BC2BBF92CF92DF92EF92FF92A9
:102CD0000F931F93CF93DF937C016B01EA0189016E
:102CE0002417350720F48D2FE901042F182F6BEBE3
:102CF00073E0C7010E94FD0AD60114968D919C9144
:102D00001597C817D90748F58017910708F48C0163
:102D1000D601ED91FC911197E00FF11FB080108268
:102D20004D915C91BA016C0F7D1F6115710561F0C9
:102D3000FB0101900020E9F73197AF01461B570BCB
:102D4000C7010E949F0A03C0C7010E948D0AD601D5
:102D5000ED91FC91E00FF11FB082C701DF91CF919F
:102D60001F910F91FF90EF90DF90CF90BF9008954B
:102D70008F929F92AF92BF92CF92DF92EF92FF928B
:102D80000F931F93CF93DF93FC01C081D1812091DA
:102D9000B6043091B704C217D3070CF04BC09E01A4
:102DA000220F331FE091B404F091B504E20FF31F3A
:102DB00080809180C170DD27F1E0CF27209719F442
:102DC00004E610E002C00CE91FEF7A015B016C0120
:102DD000040F151FB801C4010E94A20D892B99F49C
:102DE0000E0D1F1DB801C4010E94A20D892B71F4A4
:102DF000B8016E0D7F1DC4010E94A20D892BE9F060
:102E000023E030E005C021E030E002C022E030E005
:102E1000F501808191810196821793073CF0F501BD
:102E200011821082F60180819181019691838083C5
:102E3000CE0105C081E090E002C08FEF9FEFDF91EF
:102E4000CF911F910F91FF90EF90DF90CF90BF90A7
:102E5000AF909F908F900895E0E0F6E0A089B1894F
:102E600082E08C93A485B5851C92A685B7858FECEE
:102E70008C93108EA489B58986E08C93A289B3893E
:102E80008C9180618C93A289B3898C9188608C939A
:102E9000A289B3898C9180688C930288F389E02D94
:102EA00080818F7D80830895009769F0FC010190F7
:102EB0000020E9F73197AF01481B590BBC0180E0B6
:102EC00096E00C94D00880E090E00895CF93DF93D3
:102ED0000E945417EC0189EB93E00E9454178C0F69
:102EE0009D1FDF91CF9108952091A9049091A8048E
:102EF000213208F04AC0809185048111FCCF32E074
:102F00003093850431E0309384043FEF30938304A1
:102F10001092820420938104A8E8B4E041E654E0D2
:102F2000FA013E2F341B321718F43D913193F9CF3B
:102F30001092600420916004990F922B909360048A
:102F400090915F04913061F410925F04909160045D
:102F50009093BB009091BC0093FDF8CF95EC01C01D
:102F600095EE9093BC00909185049230E1F390919E
:102F700083049F3F79F080918304803241F08091F7
:102F80008304803331F084E005C081E003C082E037
:102F900001C083E0109287041092A9041092860465
:102FA0000895EF92FF921F93CF93DF931F92CDB7B7
:102FB000DEB7162F9CE7E92E99E0F92ED7011C9673
:102FC0009C911C9721E0209386049093A804109272
:102FD00087041092A9041A960D90BC91A02DED9132
:102FE000FC9111970190F081E02D682FCD0179833C
:102FF0001995F70182859385DC01ED91FC91019093
:10300000F081E02D7981672F1995F70182859385ED
:10301000DC01ED91FC910190F081E02D612F19957B
:103020000F90DF91CF911F91FF90EF900C94741748
:10303000EAEBF8E01382482F4370428360E080811E
:1030400091810C94EE10BF92CF92DF92EF92FF929B
:103050000F931F93CF93DF93CDB7DEB72C970FB6A7
:10306000F894DEBF0FBECDBF8C01FC01C4806BEBBA
:1030700073E0CE0107960E94FD0AD12C84E1E82E70
:10308000F12C94E1B92E8091BD0890E02C2D30E018
:10309000B701681B790B4D2D50E062177307ACF533
:1030A0009A012C5E3F4F281B390BB801CE010196C7
:1030B0000E946316BE016F5F7F4FCE0107960E948C
:1030C0002D0ACE0101960E94C00ABE01695F7F4FA2
:1030D0008091BA089091BB080E94B10B8091BD0805
:1030E0009B2D981BD90E4091BC084F5F43704093B5
:1030F000BC088451C80E60E08091BA089091BB086A
:103100000E94EE101092BD08BECFF80124813581D7
:10311000B801CE0101960E946316BE016F5F7F4F1A
:10312000CE0107960E942D0ACE0101960E94C00A88
:10313000BE01695F7F4F8091BA089091BB080E94E1
:10314000B10B2091BD088B859C85820F911D8093CA
:10315000BD086BEB73E0CE0101960E94FD0AF09072
:10316000BD08F3E1FF15C8F00D811E810F5F1F4FF1
:10317000B801CE0101960E94660A882361F0298178
:103180003A818D819E816DEB73E0820F931F0E94C7
:10319000CA2B1E830D83F394E4CFBE016F5F7F4F74
:1031A0008091BA089091BB080E94B10B4091BC0875
:1031B0006091BD088091BA089091BB080E94EE1002
:1031C000CE0101960E94C00ACE0107960E94C00A55
:1031D0002C960FB6F894DEBF0FBECDBFDF91CF9116
:1031E0001F910F91FF90EF90DF90CF90BF900895C7
:1031F0001F93CF93DF9300D000D0CDB7DEB780917F
:10320000AC07811172C00E94491180E00E94181819
:103210006CEB73E0CE0101960E94FD0ACE0101968F
:103220000E944F11CE0101960E94C00A8091AD0705
:103230009091AE07019714E1189FB001199F700D8E
:1032400011246155784FCE0101960E94FD0ACE01EE
:1032500001960E944F11CE0101960E94C00A81E0A2
:103260000E9418186FEB73E0CE0101960E94FD0AD0
:10327000CE0101960E944F11CE0101960E94C00A14
:103280008091AD079091AE07189FB001199F700D06
:1032900011246155784FCE0101960E94FD0ACE019E
:1032A00001960E944F11CE0101960E94C00A82E051
:1032B0000E9418186CEB73E0CE0101960E94FD0A83
:1032C000CE0101960E944F11CE0101960E94C00AC4
:1032D0008091AD079091AE070196189FB001199F9C
:1032E000700D11246155784F71C00E94491180E022
:1032F0000E9418186CEB73E0CE0101960E94FD0A43
:10330000CE0101960E944F11CE0101960E94C00A83
:103310008091270890912808019714E1189FB00127
:10332000199F700D1124675D774FCE0101960E94A1
:10333000FD0ACE0101960E944F11CE0101960E9416
:10334000C00A81E00E9418186FEB73E0CE0101966D
:103350000E94FD0ACE0101960E944F11CE010196F6
:103360000E94C00A8091270890912808189FB001F8
:10337000199F700D1124675D774FCE0101960E9451
:10338000FD0ACE0101960E944F11CE0101960E94C6
:10339000C00A82E00E9418186CEB73E0CE0101961F
:1033A0000E94FD0ACE0101960E944F11CE010196A6
:1033B0000E94C00A80912708909128080196189FC2
:1033C000B001199F700D1124675D774FCE010196F2
:1033D0000E94FD0ACE0101960E944F11CE01019676
:1033E0000E94C00A26960FB6F894DEBF0FBECDBF6E
:1033F000DF91CF911F910895CF93DF9382E40E94D4
:10340000141D31E020E04091A5085091A60848170E
:1034100059070CF430E0C32FD22F81E40E94141D11
:103420002091A3083091A408281739070CF02296A0
:103430008FE30E94141D2091A1083091A208281743
:1034400039070CF02496CE01DF91CF9108954AE917
:1034500059E969E17EEB85E999E00E94E60D4AE9C8
:1034600059E969E17EE387E999E00E94E60D6EEE95
:1034700072E080E090E00E94331D8BE999E00E94A9
:10348000091089E999E00E9409108BE999E00E94EE
:1034900034100E9423262EE53BEB4CEB5CE30E94AC
:1034A000822620E030E04EEA52E40E941C2687FD8E
:1034B00022C080E00E9478110E9423262EE53BEB7B
:1034C0004CEB5CE30E94822620E030E04EEA52ECB6
:1034D0000E94A12918167CF040E050E0BA0185E96D
:1034E00099E00E94E60D40E050E060E070E887E976
:1034F00099E00C94E60D8BE999E00E9434100E944B
:1035000023262EE53BEB4CEB5CE30E94822620E079
:1035100030E04EEA52E40E941C2687FF05C04AE9CB
:1035200059E969E17EEB04C040E050E060E070E8FA
:1035300087E999E00E94E60D80E00E9478110E94E0
:1035400023262EE53BEB4CEB5CE30E94822620E039
:1035500030E04EEA52EC0E94A12918162CF447E8FC
:1035600056E169E17EEB03C040E050E0BA0185E935
:1035700099E00E94E60D89CF8F929F92AF92BF9201
:10358000CF92DF92EF92FF920E94FC19079789F485
:103590004DEC5CEC6CEC7DE385E999E00E94E60D76
:1035A0004DEC5CEC6CEC7DEB87E999E00E94E60D5C
:1035B000EBCF68EC70E080E090E00E94331D8DEC72
:1035C000C82E8CECD82E8CE4E82E8EE3F82E98EBE7
:1035D000892E9EE1992E95E0A92E9EE3B92E409169
:1035E000A7085091A8086091A9087091AA0885E9D8
:1035F00099E00E94E60D4091AB085091AC086091B3
:10360000AD087091AE0881E00E9494110E94FC19EF
:103610008230910559F41092AF08C092AB08D09255
:10362000AC08E092AD08F092AE080FC09C012D7F6F
:103630002430310599F41092AF088092AB08909233
:10364000AC08A092AD08B092AE08C092A708D09284
:10365000A808E092A908F092AA08C1CF213031054C
:1036600099F41092AF08C092AB08D092AC08E092E7
:10367000AD08F092AE088092A7089092A808A09298
:10368000A908B092AA08ABCF079709F0A8CF8091FC
:10369000AF088111A4CF40E050E0BA0185E999E07C
:1036A0000E94E60D40E050E060E070E887E999E0B4
:1036B000FF90EF90DF90CF90BF90AF909F908F9052
:1036C0000C94E60DCF93DF93D82F4DEC5CEC6CE4BB
:1036D0007EE385E999E00E94E60D4DEC5CEC6CE43C
:1036E0007EEB87E999E00E94E60D0E94FC19892B88
:1036F000E1F70E94FC190797E1F766E970E080E0C6
:1037000090E00E94331D8D2F90E0880F991F8756FF
:10371000964F0E940910C1E0CD278C2F90E0880FB2
:10372000991F8756964F0E9409108D2F0E9478117D
:103730000E9423262EE53BEB4CEB5CE30E948226A5
:1037400020E030E048E252E40E941C2687FF3DC0A2
:103750008D2F0E9478110E9423262EE53BEB4CEB27
:103760005CE30E94822620E030E048E252E40E94BE
:103770001C2687FF05C04AE959E969E17EE303C0D9
:1037800040E050E0BA018D2F0E9494118C2F0E94CE
:1037900078110E9423262EE53BEB4CEB5CE30E9464
:1037A000822620E030E048E252EC0E94A12918165F
:1037B0002CF447E856E169E17EEB03C040E050E0BD
:1037C000BA018C2F0E949411B0CF8C2F0E947811D7
:1037D0000E9423262EE53BEB4CEB5CE30E94822605
:1037E00020E030E048E252EC0E94A12918160CF4C7
:1037F000AFCFDF91CF9108958F929F92AF92BF92FA
:10380000CF92DF92EF92FF920E94271A0E94BC1A79
:1038100081E00E94621B0E94BC1A8DECC82E8CECC9
:10382000D82E8CE4E82E8EE3F82E98EB892E9EE1BC
:10383000992E95E0A92E9EE3B92E4091A7085091AC
:10384000A8086091A9087091AA0885E999E00E94EA
:10385000E60D4091AB085091AC086091AD087091B5
:10386000AE0881E00E9494110E94FC1982309105FB
:1038700059F41092AF08C092AB08D092AC08E09215
:10388000AD08F092AE080FC09C012D7F24303105A9
:1038900099F41092AF088092AB089092AC08A09275
:1038A000AD08B092AE08C092A708D092A808E092E6
:1038B000A908F092AA08C1CF2130310599F41092DD
:1038C000AF08C092AB08D092AC08E092AD08F0927D
:1038D000AE088092A7089092A808A092A908B0927A
:1038E000AA08ABCF892B09F0A8CF8091AF0881112E
:1038F000A4CF64E670E080E090E00E94331D0E9457
:10390000FC19892B09F099CF64E670E080E090E023
:103910000E94331D0E94FC19892B09F08ECF64E6AA
:1039200070E080E090E00E94331D0E94FC19892B1A
:1039300009F083CF40E050E0BA0185E999E00E94A8
:10394000E60D40E050E060E070E887E999E00E9411
:10395000E60D0E94271A81E08093B0088FEF9FEF59
:103960009093B2088093B108FF90EF90DF90CF90D2
:10397000BF90AF909F908F9008956091A60970E0DE
:103980008EEA99E00E94FF0E0E94331164EF71E00D
:1039900080E090E00E94331D80E00E94371160E2D9
:1039A00073E080E090E00E94331D81E00E943711B7
:1039B00064EF71E080E090E00C94331D6091A60903
:1039C00070E08EEA99E00E94FF0E65EA81E00E94B5
:1039D000B71D64EF71E080E090E00C94331D3FB7B9
:1039E000F8948091B8099091B909A091BA09B09161
:1039F000BB0926B5A89B05C02F3F19F00196A11D54
:103A0000B11D3FBFBA2FA92F982F8827820F911D74
:103A1000A11DB11DBC01CD0142E0660F771F881FBB
:103A2000991F4A95D1F70895863308F086539091EF
:103A30007B00282F2870977F922B90937B008770B4
:103A4000806480937C0080917A00806480937A0007
:103A500080917A0086FDFCCF8091780020917900DA
:103A600090E0922B08958F929F92AF92BF92CF9247
:103A7000DF92EF92FF926B017C010E94EF1C4B01E1
:103A80005C01C114D104E104F104F1F00E94EF1CC7
:103A9000DC01CB0188199909AA09BB09883E93402A
:103AA000A105B10570F321E0C21AD108E108F108BF
:103AB00088EE880E83E0981EA11CB11CC114D104AD
:103AC000E104F10419F7DDCFFF90EF90DF90CF9084
:103AD000BF90AF909F908F9008951F920F920FB656
:103AE0000F9211242F933F938F939F93AF93BF9384
:103AF0008091B4099091B509A091B609B091B70928
:103B00003091B30923E0230F2D3720F40196A11D36
:103B1000B11D05C026E8230F0296A11DB11D2093FB
:103B2000B3098093B4099093B509A093B609B093F3
:103B3000B7098091B8099091B909A091BA09B091DB
:103B4000BB090196A11DB11D8093B8099093B909D5
:103B5000A093BA09B093BB09BF91AF919F918F9188
:103B60003F912F910F900FBE0F901F901895CF92FD
:103B7000DF92EF92FF92CF93DF93823018F082ECC6
:103B800093E00AC09091A709691720F09091A809C5
:103B9000961750F484ED93E0DF91CF91FF90EF9072
:103BA000DF90CF900C946617E82FF0E0E356F64FC5
:103BB000C089CC3008F072C0262F30E0D0E085E01C
:103BC0008C9FF0018D9FF00D1124E159F84F8381F6
:103BD000283C31059CF528E830E06901C81AD10875
:103BE00087FDD394CC0CDD1CCC0CDD1C0D2C000C03
:103BF000EE08FF08848128E532E0281B310987FDA3
:103C00003395220F331F220F331FC901330FAA0B25
:103C1000BB0B9C01AD012C193D094E095F09A62F74
:103C2000B0E00E94752724EB30E040E050E00E94B5
:103C30005627C20ED31EE41EF51E1EC048E850E0F3
:103C40006A01C81AD10887FDD394CC0CDD1CCC0CBA
:103C5000DD1C2C153D0584F0448188E592E0841B31
:103C6000910947FD9395880F991F880F991F690146
:103C70008C159D050CF46C018FB7F89495E09C9F12
:103C8000F0019D9FF00D1124E159F84F96E0C91AFB
:103C9000D108CC0CDD1CD282C1828FBFDF91CF91C5
:103CA000FF90EF90DF90CF90089583EB98E00C9415
:103CB000C00ACF93DF9300D000D0CDB7DEB77894A1
:103CC00084B5826084BD84B5816084BD85B5826021
:103CD00085BD85B5816085BD80916E0081608093D2
:103CE0006E0010928100809181008260809381003B
:103CF000809181008160809381008091800081604B
:103D0000809380008091B10084608093B1008091A5
:103D1000B00081608093B0008091910082608093B8
:103D2000910080919100816080939100809190003A
:103D30008160809390008091A10082608093A100B7
:103D40008091A10081608093A1008091A00081609A
:103D50008093A00080912101826080932101809155
:103D600021018160809321018091200181608093F5
:103D7000200180917A00846080937A0080917A009B
:103D8000826080937A0080917A00816080937A00CB
:103D900080917A00806880937A001092C1000E941E
:103DA0002C170E942C1761E080917D090E94251636
:103DB00060E080917D090E94D71560E080917C09C8
:103DC0000E9425168AEB94E09093870980938609D8
:103DD0001092140410921304109287041092A904F4
:103DE0000E94071680E090E1A0E0B0E0809389098E
:103DF00090938A09A0938B09B0938C098AE090E094
:103E0000A0E0B0E080938D0990938E09A0938F0974
:103E1000B093900980E090E0A0E0B0E48093910935
:103E200090939209A0939309B093940960E070E194
:103E300085E00E94D1176FE979E380E00E94D117F5
:103E400009E919E0812C912CA12CB12C80E8282EB5
:103E500082E0382E96EC492E92E0592E2BEC622E01
:103E600027E0722E95012458364F6901F90194819B
:103E7000828194012458364F7901F901818F928F04
:103E800061E00E94251661E0F701828D0E942516EF
:103E9000F60190858681F8018083F701968F61E0B5
:103EA0000E94251660E0F701868D0E94251661E0CC
:103EB000F80180810E94D715FFB6F89480915E04C6
:103EC000811125C0F1018491F2019491E82FF0E075
:103ED000EE0FFF1FE95EFD4FA591B4918C919823E1
:103EE00021F461E085E30E94D71561E085E30E943B
:103EF00025168CB580618CBD8CB580648CBD61E06D
:103F000084E30E94251661E083E30E9425168091D8
:103F10005E048F5F80935E04FFBEC3010197F1F7DB
:103F200060E0F80180810E94D71588E80E940210A5
:103F300083E00E94021061E0F80180810E94D715A1
:103F4000C3010197F1F7C8010E940910F2E08F0E3A
:103F5000911C0E5F1F4FAA94AB2821F0AA24A394B2
:103F6000B12C80CF01EA19E0E4E0FE2EF00E60E013
:103F7000F80181918F010E942516F012F8CF60EBB5
:103F8000E62E69E0F62E0BEA19E072E0D72ED00E8D
:103F9000F8013697608170E0C80102960E94FF0E1A
:103FA000F80191918F0133978081F70131978083D8
:103FB000F701908360E00E94251661E0F70180819F
:103FC0000E94251660E0F70180810E94D715F2E07B
:103FD000EF0EF11CD012DCCFF8941092200189E092
:103FE0008093210180E293E090932901809328013E
:103FF000109225011092240182E08093730078943E
:1040000080939D061092A10680919E0660E00E941A
:1040100025160091BA081091BB0810921404109252
:104020001304109287041092A9040E940716F80145
:1040300015828385823010F098E09583F80180879F
:1040400062E370E080E090E00E94331DF801648537
:10405000C8010E94991068EE73E080E090E00E9431
:10406000331D60E3C8010E94AC103BE4E32E36E44C
:10407000F32EC7010197F1F760E3C8010E94AC106D
:10408000C7010197F1F760E3C8010E94AC1083E516
:1040900092E00197F1F760E2C8010E94AC10F801CC
:1040A00065816062C8010E94DC1084E0F8018683AB
:1040B0006CE0C8010E94DC10C8010E941C1182E063
:1040C000F801878366E0C8010E94DC1062E0C80145
:1040D0000E94DC108BE39FE10197F1F78091BA0811
:1040E0009091BB0828E0FC01248760E00E949910B1
:1040F00040E060E08091BA089091BB080E94EE1009
:104100008091BA089091BB08FC016681262F21603E
:10411000268369600E94DC106091A60970E08EEA37
:1041200099E00E94FF0E0E94331181E00E94371136
:104130000E94F818CC24C394D12C55E0252E312CA4
:104140000E94C40182309105F1F48091AC07811185
:104150000DC08091AD079091AE0701968530910515
:10416000F9F4D092AE07C092AD071BC38091270827
:104170009091280801968530910519F5D09228086C
:10418000C09227080EC38130910501F58091AC07DC
:10419000811112C08091AD079091AE07019729F06F
:1041A0009093AE078093AD07FCC224E030E03093DB
:1041B000AE072093AD07F5C280912708909128089B
:1041C00001979093280880932708EBC28B7F892B57
:1041D00009F0E9C28091AD079091AE078130910559
:1041E00069F48091AC0781113FC082E090E00E94A9
:1041F0005B121092B00885E090E01DC082309105FE
:1042000029F48091AC0781112FC019C0833091052A
:10421000E9F48091AC07811127C082E090E00E9410
:104220005B121092B00885E090E00E945B12109241
:10423000B00883E090E00E945B121092B00882E028
:1042400090E00E945B121092B008ADC2049761F436
:104250008091AC07811108C0D092AE07C092AD0723
:1042600081E08093AC079DC2809127089091280837
:104270008130910509F0E4C18091AC07882309F4ED
:1042800092C20E94491180E00E94181866E673E00D
:10429000CE0101960E94FD0ACE0101960E944F11A7
:1042A000CE0101960E94C00A0E94C401892BE1F749
:1042B0000E94491180E00E9418188FE30E94141D8B
:1042C0003C0181E40E94141D4C0182E40E94141DF3
:1042D0005C0165E773E0CE0101960E94FD0ACE0104
:1042E00001960E944F11CE0101960E94C00A4AE039
:1042F000B301CE0101960E94C50ACE0101960E942B
:104300004F11CE0101960E94C00A81E00E94181848
:104310006BE773E0CE0101960E94FD0ACE01019683
:104320000E944F11CE0101960E94C00A4AE0B401DA
:10433000CE0101960E94C50ACE0101960E944F113E
:10434000CE0101960E94C00A82E00E94181861E81E
:1043500073E0CE0101960E94FD0ACE0101960E94F3
:104360004F11CE0101960E94C00A4AE0B501CE016C
:1043700001960E94C50ACE0101960E944F11CE01FE
:1043800001960E94C00A0E94C401892BE1F70E9495
:10439000491180E00E94181867E873E0CE01019689
:1043A0000E94FD0ACE0101960E944F11CE01019696
:1043B0000E94C00A0E94C401892BE1F70E944911A2
:1043C00080E00E9418188FE30E94141D7C0181E494
:1043D0000E94141D8C0182E40E94141D2C0165E7CB
:1043E00073E0CE0101960E94FD0ACE0101960E9463
:1043F0004F11CE0101960E94C00A4AE0B701CE01DA
:1044000001960E94C50ACE0101960E944F11CE016D
:1044100001960E94C00A81E00E9418186BE773E0C1
:10442000CE0101960E94FD0ACE0101960E944F1115
:10443000CE0101960E94C00A4AE0B801CE01019661
:104440000E94C50ACE0101960E944F11CE0101962D
:104450000E94C00A82E00E94181861E873E0CE0151
:1044600001960E94FD0ACE0101960E944F11CE01D5
:1044700001960E94C00A4AE0B201CE0101960E9454
:10448000C50ACE0101960E944F11CE0101960E94ED
:10449000C00A0E94C401892BE1F70E94491180E003
:1044A0000E941818E60CF71CF7FE03C03FEFE31A52
:1044B000F30AF594E794080D191D17FF02C00F5F6A
:1044C0001F4F15950795A40CB51CB7FE03C08FEFC1
:1044D000A81AB80AB594A79467E973E0CE010196CB
:1044E0000E94FD0ACE0101960E944F11CE01019655
:1044F0000E94C00A4AE0B701CE0101960E94C50A97
:10450000CE0101960E944F11CE0101960E94C00A71
:1045100081E00E9418186DE973E0CE0101960E94B7
:10452000FD0ACE0101960E944F11CE0101960E9414
:10453000C00A4AE0B801CE0101960E94C50ACE0128
:1045400001960E944F11CE0101960E94C00A82E09E
:104550000E94181863EA73E0CE0101960E94FD0ADA
:10456000CE0101960E944F11CE0101960E94C00A11
:104570004AE0B501CE0101960E94C50ACE0101961E
:104580000E944F11CE0101960E94C00A0E94C401F0
:10459000892BE1F70E94491180E00E941818C70199
:1045A000B1010E94CD2781E090E00E944827C80118
:1045B000B1010E94CD2782E090E00E944827C5010A
:1045C000B1010E94CD2783E090E00E94482781E05E
:1045D00090E00E944027E5E08E9FC0011124909357
:1045E000A2088093A10882E090E00E944027F5E0B5
:1045F0008F9FC00111249093A4088093A30883E0A7
:1046000090E00E94402725E0829FC00111249093F2
:10461000A6088093A50869EA73E0CE0101960E947E
:10462000FD0ACE0101960E944F11CE0101960E9413
:10463000C00A6CED75E080E090E00E94331DB1C0CF
:104640008230910509F07EC08091AC07882309F47F
:10465000AAC00E94491180E00E94181865E773E023
:10466000CE0101960E94FD0ACE0101960E944F11D3
:10467000CE0101960E94C00A81E090E00E9440278E
:1046800035E0839FB00111244AE0CE0101960E94DB
:10469000C50ACE0101960E944F11CE0101960E94DB
:1046A000C00A81E00E9418186BE773E0CE01019602
:1046B0000E94FD0ACE0101960E944F11CE01019683
:1046C0000E94C00A82E090E00E94402795E0899F06
:1046D000B00111244AE0CE0101960E94C50ACE0124
:1046E00001960E944F11CE0101960E94C00A82E0FD
:1046F0000E94181861E873E0CE0101960E94FD0A3D
:10470000CE0101960E944F11CE0101960E94C00A6F
:1047100083E090E00E944027E5E08E9FB0011124E5
:104720004AE0CE0101960E94C50ACE0101960E9480
:104730004F11CE0101960E94C00A0E94C401892B2C
:10474000E1F72FC08330910501F58091AC078823F4
:1047500051F10E94491180E00E9418180E94FC1932
:104760004AE0BC01CE0101960E94C50ACE01019625
:104770000E944F11CE0101960E94C00A64EF71E0C1
:1047800080E090E00E94331DE4CF049761F48091B3
:10479000AC07882341F0D0922808C09227081092D5
:1047A000AC070E94F81864E670E080E090E00E9498
:1047B000331D0E94FC09C4CC1092BD041092BC04AD
:1047C00088EE93E0A0E0B0E08093BE049093BF0435
:1047D000A093C004B093C10423E033E03093BB0442
:1047E0002093BA041092C9041092C8048093CA049A
:1047F0009093CB04A093CC04B093CD0425E133E097
:104800003093C7042093C60445E351E05093D3048A
:104810004093D20444E351E05093D5044093D40430
:1048200040E351E05093D7044093D60441E351E074
:104830005093D9044093D80442E351E05093DB04F1
:104840004093DA0446E351E05093DD044093DC04E6
:104850001092DF041092E0041092E1041092E2043E
:104860001092660510926505809367059093680520
:10487000A0936905B0936A0530936405209363059E
:1048800045ED50E05093700540936F0544ED50E0C6
:10489000509372054093710540ED50E050937405BC
:1048A0004093730541ED50E05093760540937505B4
:1048B00042ED50E0509378054093770546ED50E087
:1048C00050937A054093790510927C0510927D05EE
:1048D00010927E0510927F05109203061092020638
:1048E0008093040690930506A0930606B0930706EE
:1048F000309301062093000685EC90E090930D061E
:1049000080930C0684EC90E090930F0680930E0643
:1049100080EC90E0909311068093100681EC90E07B
:10492000909313068093120682EC90E09093150604
:104930008093140686EC90E09093170680931606F9
:104940001092190610921A0610921B0610921C065D
:1049500086E380939D0987E380939E0988E3809393
:104960009F0989E38093A0098BE18093A1098DE1E0
:104970008093A2098AE18093A3098CE18093A40922
:1049800084E08093A50987E08093A6091092A70987
:1049900084EB8093A80986E18093A90988E180933C
:1049A000AA0987E18093AB0989E18093AC09E09182
:1049B000AB07EC3020F08FEF8093AD0910C081E0A1
:1049C0008E0F8093AB07E093AD0925E0E29FF001E5
:1049D0001124E159F84F88EB9BE092838183E091A9
:1049E000AB07EC3020F08FEF8093AE0910C081E070
:1049F0008E0F8093AB07E093AE0985E0E89FF0014E
:104A00001124E159F84F88EB9BE0928381838CE07D
:104A100080937C0984E280937D0986E080937E09FF
:104A200085E080937F098FE1809380098EE18093F8
:104A3000810983E28093820982E28093830985E47D
:104A40008093840984E48093850980E480938809B5
:104A500010928D0910928E0910928F091092900970
:104A60001092910910929209109293091092940950
:104A7000EEEBF8E08FEF9FEFDC01128213821482DD
:104A80001582168217821086118683879487A587E0
:104A9000B6878787908BA18BB28B1286118210828A
:104AA000739629E0EC37F20741F78DE090E00E9421
:104AB000A629FC011382128287E293E0918380830E
:104AC000118687E2848384E1828784E08387148669
:104AD000F093BB08E093BA081092BC081092BD088E
:104AE00085E280939E061092A0066BEB73E083EB49
:104AF00098E00E94FD0A1092AC0781E090E090934C
:104B0000AE078093AD0728E7EFE0F2E0AFEAB7E049
:104B100001900D922A95E1F7909328088093270839
:104B200088E7E7E8F2E0A9E2B8E001900D928A9503
:104B3000E1F781E090E00E94402725E0829FC001DC
:104B400011249093A2088093A10882E090E00E9433
:104B5000402725E0829FC00111249093A4088093F0
:104B6000A30883E090E00E94402725E0829FC001D7
:104B700011249093A6088093A5088DEC9CECACECD6
:104B8000BDE38093A7089093A808A093A908B093C9
:104B9000AA088093AB089093AC08A093AD08B0939B
:104BA000AE081092AF081092B0088FEF9FEF90936D
:104BB000B2088093B10808954532510520F442307F
:104BC00010F00C94E725FB011082CB010895BB2760
:104BD0004A3031F4992322F4BDE2909581959F4F9C
:104BE0000C94F325BB27FB015527AA27880F991F93
:104BF000AA1FA41710F0A41B83955051B9F7A05D0C
:104C0000AA3308F0A95DA193009779F7B111B19388
:104C10001192CB010C940C26DC01FC01672F7191E1
:104C20007723E1F7329704C07C916D937083629192
:104C3000AE17BF07C8F308950E945E2608F481E00E
:104C40000895E89409C097FB3EF49095809570957F
:104C500061957F4F8F4F9F4F9923A9F0F92F96E9C8
:104C6000BB279395F695879577956795B795F1113D
:104C7000F8CFFAF4BB0F11F460FF1BC06F5F7F4FDA
:104C80008F4F9F4F16C0882311F096E911C07723EC
:104C900021F09EE8872F762F05C0662371F096E8F5
:104CA000862F70E060E02AF09A95660F771F881FC4
:104CB000DAF7880F9695879597F90895990F000868
:104CC000550FAA0BE0E8FEEF16161706E807F907DE
:104CD000C0F012161306E407F50798F0621B730B79
:104CE000840B950B39F40A2661F0232B242B252BFA
:104CF00021F408950A2609F4A140A6958FEF811D9D
:104D0000811D08950E9495260C9406270E94F8267E
:104D100038F00E94FF2620F0952311F00C94EF2626
:104D20000C94F52611240C943A270E94172770F34F
:104D3000959FC1F3950F50E0551F629FF001729F40
:104D4000BB27F00DB11D639FAA27F00DB11DAA1F4F
:104D5000649F6627B00DA11D661F829F2227B00D9C
:104D6000A11D621F739FB00DA11D621F839FA00D27
:104D7000611D221F749F3327A00D611D231F849F77
:104D8000600D211D822F762F6A2F11249F575040CE
:104D90009AF0F1F088234AF0EE0FFF1FBB1F661F49
:104DA000771F881F91505040A9F79E3F510580F012
:104DB0000C94EF260C943A275F3FE4F3983ED4F32B
:104DC000869577956795B795F795E7959F5FC1F7B6
:104DD000FE2B880F911D9695879597F9089597F961
:104DE0009F6780E870E060E008959FEF80EC089591
:104DF00000240A94161617061806090608950024BA
:104E00000A9412161306140605060895092E039433
:104E1000000C11F4882352F0BB0F40F4BF2B11F4A7
:104E200060FF04C06F5F7F4F8F4F9F4F089557FD06
:104E30009058440F551F59F05F3F71F04795880F08
:104E400097FB991F61F09F3F79F08795089512169F
:104E500013061406551FF2CF4695F1DF08C016164B
:104E600017061806991FF1CF8695710561050894FC
:104E70000895E894BB2766277727CB0197F9089513
:104E8000F999FECF92BD81BDF89A992780B5089512
:104E9000262FF999FECF1FBA92BD81BD20BD0FB656
:104EA000F894FA9AF99A0FBE01960895052E97FB89
:104EB0001EF400940E946D2757FD07D00E948027A2
:104EC00007FC03D04EF40C946D2750954095309517
:104ED00021953F4F4F4F5F4F089590958095709566
:104EE00061957F4F8F4F9F4F08950E94A227A59FE6
:104EF000900DB49F900DA49F800D911D11240895D5
:104F0000A1E21A2EAA1BBB1BFD010DC0AA1FBB1FCD
:104F1000EE1FFF1FA217B307E407F50720F0A21B3F
:104F2000B30BE40BF50B661F771F881F991F1A94AC
:104F300069F760957095809590959B01AC01BD01D6
:104F4000CF010895A29FB001B39FC001A39F700D30
:104F5000811D1124911DB29F700D811D1124911D81
:104F60000895DB018F939F930E947527BF91AF91A6
:104F7000A29F800D911DA39F900DB29F900D1124B3
:104F80000895991B79E004C0991F961708F0961BA5
:104F9000881F7A95C9F78095089597FB072E16F418
:104FA000009407D077FD09D00E94202807FC05D087
:104FB0003EF4909581959F4F0895709561957F4F30
:104FC0000895EE0FFF1F881F8BBF0790F691E02D0D
:104FD00019940F93083090F0982F872F762F652F14
:104FE000542F432F322F22270850F4CF220F331F84
:104FF000441F551F661F771F881F991F0A95B2F718
:105000000F91089597FB10F8169400080F9308303D
:1050100098F00850232F342F452F562F672F782FC5
:10502000892F902DF4CF059497958795779567955F
:1050300057954795379527950A95AAF70F910895A3
:10504000AA1BBB1B51E107C0AA1FBB1FA617B707AE
:1050500010F0A61BB70B881F991F5A95A9F78095CA
:105060009095BC01CD0108955058BB27AA270E94F6
:105070004C280C9406270E94F82638F00E94FF2640
:1050800020F039F49F3F19F426F40C94F5260EF421
:10509000E095E7FB0C94EF26E92F0E94172758F3C1
:1050A000BA17620773078407950720F079F4A6F50D
:1050B0000C9439270EF4E0950B2EBA2FA02D0B017E
:1050C000B90190010C01CA01A0011124FF27591B4D
:1050D00099F0593F50F4503E68F11A16F040A22F53
:1050E000232F342F4427585FF3CF469537952795C4
:1050F000A795F0405395C9F77EF41F16BA0B620BC3
:10510000730B840BBAF09150A1F0FF0FBB1F661F09
:10511000771F881FC2F70EC0BA0F621F731F841F4C
:1051200048F4879577956795B795F7959E3F08F072
:10513000B0CF9395880F08F09927EE0F9795879534
:1051400008950E94B5280C9406270E94FF2658F067
:105150000E94F82640F029F45F3F29F00C94EF26D6
:1051600051110C943A270C94F5260E94172768F3E6
:105170009923B1F3552391F3951B550BBB27AA2710
:1051800062177307840738F09F5F5F4F220F331F4A
:10519000441FAA1FA9F335D00E2E3AF0E0E832D012
:1051A00091505040E695001CCAF72BD0FE2F29D015
:1051B000660F771F881FBB1F261737074807AB07E7
:1051C000B0E809F0BB0B802DBF01FF2793585F4F5C
:1051D0003AF09E3F510578F00C94EF260C943A2754
:1051E0005F3FE4F3983ED4F3869577956795B7953E
:1051F000F7959F5FC9F7880F911D9695879597F949
:105200000895E1E0660F771F881FBB1F62177307C1
:105210008407BA0720F0621B730B840BBA0BEE1FD6
:1052200088F7E09508950E941A296894B1110C94AA
:105230003A2708950E941F2788F09F5798F0B92FAA
:105240009927B751B0F0E1F0660F771F881F991FBB
:105250001AF0BA95C9F714C0B13091F00E943927FD
:10526000B1E008950C943927672F782F8827B85F0D
:1052700039F0B93FCCF3869577956795B395D9F713
:105280003EF490958095709561957F4F8F4F9F4F1D
:1052900008950E94892990F09F3748F4911116F0E3
:1052A0000C943A2760E070E080E89FEB089526F4C4
:1052B0001B16611D711D811D0C9460290C947B29A6
:1052C000882371F4772321F09850872B762F07C01D
:1052D000662311F499270DC09051862B70E060E091
:1052E0002AF09A95660F771F881FDAF7880F969530
:1052F000879597F908959F3F31F0915020F4879555
:1053000077956795B795880F911D9695879597F92D
:1053100008950E941F27A0F0BEE7B91788F4BB27A5
:105320009F3860F41616B11D672F782F8827985F75
:10533000F7CF869577956795B11D93959639C8F304
:1053400008950E945E2608F48FEF0895CF93DF93AF
:105350008230910510F482E090E0E091BE09F09176
:10536000BF0920E030E0C0E0D0E0309711F140818B
:10537000518148175907C0F04817590761F48281D5
:105380009381209719F09B838A832BC09093BF0948
:105390008093BE0926C02115310519F04217530725
:1053A00018F49A01BE01DF01EF010280F381E02DC4
:1053B000DCCF2115310509F1281B390B24303105CB
:1053C00090F412968D919C9113976115710521F0BF
:1053D000FB019383828304C09093BF098093BE092D
:1053E000FD01329644C0FD01E20FF31F81939193BA
:1053F000225031092D933C933AC02091BC09309141
:10540000BD09232B41F42091030230910402309313
:10541000BD092093BC09209101023091020221159F
:10542000310541F42DB73EB7409105025091060277
:10543000241B350BE091BC09F091BD09E217F3077D
:10544000A0F42E1B3F0B2817390778F0AC014E5FF4
:105450005F4F2417350748F04E0F5F1F5093BD096B
:105460004093BC098193919302C0E0E0F0E0CF014A
:10547000DF91CF9108950F931F93CF93DF93009700
:1054800009F48CC0FC013297138212820091BE098C
:105490001091BF090115110581F420813181820F1E
:1054A000931F2091BC093091BD092817390779F560
:1054B000F093BD09E093BC0971C0D80140E050E011
:1054C000AE17BF0750F412962D913C911397AD0182
:1054D0002115310509F1D901F3CF9D01DA0133839B
:1054E000228360817181860F971F8217930769F469
:1054F000EC0128813981260F371F2E5F3F4F318302
:1055000020838A819B8193838283452B29F4F093A6
:10551000BF09E093BE0942C01396FC93EE93129725
:10552000ED01499159919E01240F351FE217F307B0
:1055300071F480819181840F951F029611969C933E
:105540008E938281938113969C938E931297E0E0C1
:10555000F0E0D80112968D919C911397009719F065
:10556000F8018C01F6CF8D919C9198012E5F3F4FF1
:10557000820F931F2091BC093091BD09281739076C
:1055800069F4309729F41092BF091092BE0902C045
:10559000138212821093BD090093BC09DF91CF9151
:1055A0001F910F9108956F927F928F929F92AF9269
:1055B000BF92CF92DF92EF92FF920F931F93CF9300
:1055C000DF93EC01009789F4CB01DF91CF911F911C
:1055D0000F91FF90EF90DF90CF90BF90AF909F9092
:1055E0008F907F906F900C94A629FC01E60FF71F17
:1055F0009C0122503109E217F30708F4ACC0D9012D
:105600000D911C91119706171707B0F00530110581
:1056100008F49FC0C80104978617970708F499C03B
:1056200002501109061B170B019311936D937C9384
:10563000CF010E943B2A8DC05B01A01AB10A4C0128
:10564000800E911EA091BE09B091BF0940E050E0CC
:10565000E12CF12C109709F44AC0A815B905D1F531
:105660006D907C901197630182E0C80ED11CCA1422
:10567000DB0480F1A3014A195B096A0182E0C80ECC
:10568000D11C1296BC9012971396AC91B5E0CB1634
:10569000D10440F0B282A38351834083D9016D933A
:1056A0007C930AC00E5F1F4FC301800F911FF90149
:1056B00091838083EB2DFA2FE114F10431F0D701AF
:1056C0001396FC93EE93129744C0F093BF09E093B6
:1056D000BE093FC08D919C9111974817590708F456
:1056E000AC017D0112960D90BC91A02DB3CF80919D
:1056F000BC099091BD0988159905E1F44617570733
:10570000C8F48091010290910202009741F48DB794
:105710009EB74091050250910602841B950BE81735
:10572000F907C8F4F093BD09E093BC09F90171834E
:1057300060830FC0CB010E94A6297C01009759F01D
:10574000A801BE010E94C12BCE010E943B2AC701C5
:1057500004C0CE0102C080E090E0DF91CF911F91A4
:105760000F91FF90EF90DF90CF90BF90AF909F9000
:105770008F907F906F90089581E090E0F8940C9462
:10578000D12BFB01DC0102C001900D924150504031
:10579000D8F70895FB01DC0101900D920020E1F79C
:1057A000089511E0C0E9D1E000E006C0802FFE01BD
:1057B0000E94E1272196011DC139D10780E0080729
:0657C000A9F7F894FFCFE9
:1057C600FF0000C009200000004000140054000043
:1057D60000000000000000000000000000000000C3
:1057E600000000427572676572000000000000004C
:1057F600000000000000004261636F6E2042757277
:10580600676572000000000000000043686565736C
:105816006520427572676572000000000000005343
:1058260065747570000000000000000000000000B4
:105836000000000000000000000000000000000062
:105846000000000000000000000000000000000052
:10585600000000000000000000000043616C696267
:10586600726174696F6E0000000000000000004164
:10587600666669636865722076616C657572204D2F
:105886002E00004465627567696E670000000000BF
:105896000000000000000051756974657200000088
:1058A60000000000000000000000000000000000F2
:1058B60000000000000000000000000000000000E2
:1058C6000000002C12FC112A0AD611F411E511D79A
:1058D60011000000009009D0081409D709450923D2
:1058E60009370900000000C510D0082A0A290A490C
:1058F6006E76616C696420656E636F64657220699B
:10590600642100496E76616C6964206D6F746F72F4
:1059160020696421000A0D00546F75726E65204679
:10592600696E6920310043616C69622E20647520BE
:105936006E6F697200436170313A00436170323AAA
:1059460000436170333A0043616C69622E206475CE
:1059560020626C616E6300546872313A005468725A
:10596600323A00546872333A0043616C69622E2001
:105976006566666563747565000D0A002020003E45
:105986003E00496E76616C696420736572766F209D
:1059960069642100536572766F20616E676C6520BD
:1059A6006973206F7574206F662072616E6765215A
:0259B6000000EF
:00000001FF
