:100000000C9491010C94C2010C94C2010C94C20195
:100010000C94C2010C94C2010C94C2010C94C20154
:100020000C94C2010C943B090C943B090C943B09C1
:100030000C94C2010C94E6030C94C2010C94C2010E
:100040000C94C2010C94DC070C94C2010C94C20104
:100050000C94C2010C94C2010C94C2010C949C0338
:100060000C94C2010C9457050C942D050C94C201FC
:100070000C94C2010C94C2010C94C2010C94C201F4
:100080000C94C2010C94C2010C94C2010C94C201E4
:100090000C94C2010C94C2010C94C2010C94450949
:1000A0000C94C2010C94C2010C94C2010C94C201C4
:1000B0000C94C2010C94C2010C94C2010C948105F1
:1000C0000C94C2010C94C2010C94C2010C9403055F
:1000D0000C94D9040C94C2010C94AF040C948504C4
:1000E0000C94C201C806CD06D206DC06E6065F0700
:1000F000F006F80600070A0714071E072D07370742
:100100005F0741074B075507920A950A840A880A38
:100110008E0ACC0A990A9D0AA30AA70AAB0AB10A59
:10012000B50AB90ACC0ABF0AC30AC70A0C94C508A3
:100130000C9425030C9463120C94C70A0C94DC08ED
:100140000C94840A0C942D070C94C30A0C94A30AF3
:100150000C94CB020C94A70A0C944B070C94AB0A9A
:100160000C94B7080C945D120C94B6080C94C4015E
:100170000C949D0A0C9408020C940C090C948402B3
:100180000C94BF0A0C94D4080C940A070C945203E4
:100190000C94F8060C948E0A0C94F0060C94C80685
:1001A0000C94880A0C9400070C94B90A0C94D2069B
:1001B0000C945F070C9439020C9417020C94950A66
:1001C0000C94CC0A0C9441070C94E6060C94DC06C3
:1001D0000C942B020C94B10A0C94CD060C941E07BF
:1001E0000C9414070C9424030C94920A0C94370773
:1001F0000C9455070C94990A0C94B50A0000200041
:100200002300260029002C002F00320000010000EE
:100210000301060109010200002100240027002A31
:10022000002D003000330001010000040107010A25
:100230000100002200250028002B002E0031003490
:100240000002010000050108010B01050505050775
:100250000508080808020202020A0A080804040441
:10026000040101010101010101030303030303036D
:1002700003040707070C0C0C0C0C0C0C0C020202FC
:100280000206060606060606060B0B0B0B0B0B0BEF
:100290000B0102102020080810204010204080028E
:1002A00001020108040201010204081020408080BC
:1002B0004020100804020180040201804020100840
:1002C0000402010804020101020408102040800118
:1002D0000204081020408000000A0B02090C0D0ED9
:1002E00008070304010000000000000000000000F7
:1002F00000000000000000000000000000000000FE
:1003000000000012111000000000000000000000BA
:100310000000000000000000000000000000631268
:100320005D1211241FBECFEFD1E2DEBFCDBF00E0D2
:100330000CBF13E0A0E0B2E0EEE2F1E300E00BBF9F
:1003400002C007900D92AA31B107D9F728E0AAE1BF
:10035000B3E001C01D92AD33B207E1F711E0C0E98F
:10036000D1E000E006C021970109802FFE010E9424
:100370001716CF38D10780E00807A9F70E94F10FC0
:100380000C9485180C940000CF92DF92EF92FF92AC
:100390000F931F93CF93DF936C017A018B01C0E021
:1003A000D0E0CE15DF0589F0D8016D918D01D60121
:1003B000ED91FC910190F081E02DC6011995892BFA
:1003C00011F47E0102C02196ECCFC701DF91CF91DD
:1003D0001F910F91FF90EF90DF90CF900895FC0157
:1003E000A089B1898C91A689B78982FD0FC09C91A3
:1003F000818D8F5F8F73228D821749F0218DDF01F0
:10040000A20FB11D5D969C93818F08958C910895E4
:10041000FC01538D448D252F30E0842F90E0821B0A
:10042000930B541710F0CF96089501970895FC018F
:10043000918D828D981761F0828DDF01A80FB11D1B
:100440005D968C91928D9F5F9F73928F90E008953F
:100450008FEF9FEF0895FC01918D828D981731F0F9
:10046000828DE80FF11D858D90E008958FEF9FEF4D
:100470000895FC01918D228D892F90E0805C9F4F23
:10048000821B91098F739927089587EE93E00E944C
:10049000390221E0892B09F420E0822F089584E8B5
:1004A00094E00E94390221E0892B09F420E0822F98
:1004B000089581E295E00E94390221E0892B09F438
:1004C00020E0822F0895FC01848DDF01A80FB11D6B
:1004D000A35ABF4F2C91848D90E001968F7399277A
:1004E000848FA689B7892C93A089B1898C91806467
:1004F0008C93938D848D981306C00288F389E02D28
:1005000080818F7D80830895EF92FF920F931F93D8
:10051000CF93DF93EC0181E0888F9B8D8C8D9813B6
:1005200005C0E889F989808185FD24C0F62E0B8DF0
:1005300010E00F5F1F4F0F731127E02E8C8DE81214
:100540000CC00FB607FCFACFE889F989808185FFD6
:10055000F5CFCE010E946302F1CF8B8DFE01E80F33
:10056000F11DE35AFF4FF0820B8FEA89FB898081EE
:10057000806207C0EE89FF896083E889F9898081FC
:100580008064808381E090E0DF91CF911F910F9193
:10059000FF90EF900895CF93DF93EC01888D88232F
:1005A000C9F0EA89FB89808185FD05C0A889B989E0
:1005B0008C9186FD0FC00FB607FCF5CF808185FFBB
:1005C000F2CFA889B9898C9185FFEDCFCE010E9429
:1005D0006302E7CFDF91CF910895E0E0F0E0199456
:1005E00080E090E0892B21F00E945902811119C00E
:1005F00080E090E0892B41F080E090E0892B21F0B1
:100600000E940000811110C00E944F0281110FC092
:1006100080E090E0892B81F00E94450281110AC0A0
:1006200008950E940000E4CF0E940000EDCF0E94D8
:10063000ED02EECF0C94000008958EBD00000DB4C5
:1006400007FEFDCF8EB50895089580E090E00895EF
:100650000E947018FC01248131E03093B70320938D
:10066000D9031092B8031092DA038485682B8BEDBE
:1006700093E00E940C090C94620D0F931F93CF938B
:100680008C01C62F64600E942A036C2F6B7FC80107
:100690000E942A0383EC90E00197F1F7CF911F911C
:1006A0000F9108950F931F93CF93DF938C01C62F63
:1006B000D62FD07FD1606D2F0E942A036D2FC801E5
:1006C0000E943D0380E1C89FB0011124C62FC16084
:1006D0006C2FC8010E942A036C2FC8010E943D03A1
:1006E00081E090E0DF91CF911F910F9108953FB786
:1006F000F8948091410390914203A0914303B091FB
:10070000440326B5A89B05C02F3F19F00196A11DF3
:10071000B11D3FBFBA2FA92F982F8827820F911D97
:10072000A11DB11DBC01CD0142E0660F771F881FDE
:10073000991F4A95D1F708951F920F920FB60F9205
:1007400011242F933F938F939F93AF93BF938091E7
:100750003D0390913E03A0913F03B091400330913F
:100760003C0323E0230F2D3720F40196A11DB11D7A
:1007700005C026E8230F0296A11DB11D20933C035E
:1007800080933D0390933E03A0933F03B0934003B7
:100790008091410390914203A0914303B09144039F
:1007A0000196A11DB11D8093410390934203A09334
:1007B0004303B0934403BF91AF919F918F913F91B9
:1007C0002F910F900FBE0F901F9018951F920F92B0
:1007D0000FB60F9211240BB60F922F933F934F93A6
:1007E0005F936F937F938F939F93AF93BF93EF9399
:1007F000FF938091370390913803A0913903B09112
:100800003A03892B8A2B8B2B59F180913603E09187
:100810003403F091350390818927808380913703D9
:1008200090913803A0913903B0913A031816190634
:100830001A061B060CF056C08091370390913803BE
:10084000A0913903B0913A030197A109B1098093AE
:10085000370390933803A0933903B0933A0342C00F
:1008600080910002E6E1F2E0E4919FEF90930002B4
:10087000E230C9F050F4EE2399F0E13081F5909127
:100880006F009D7F90936F002AC0E43019F1E0F073
:10089000E53029F5909173009D7F909373001FC000
:1008A00010926E001CC0909170009D7F909370001C
:1008B00091E09093B0009091B100987F94609093F4
:1008C000B1001092B3000BC0909171009D7F909386
:1008D000710005C0909172009D7F9093720060E05E
:1008E0000E94CD0AFF91EF91BF91AF919F918F919F
:1008F0007F916F915F914F913F912F910F900BBE20
:100900000F900FBE0F901F9018951F920F920FB669
:100910000F9211240BB60F922F933F934F935F9337
:100920006F937F938F939F93AF93BF93EF93FF93B7
:1009300087EE93E00E946302FF91EF91BF91AF9128
:100940009F918F917F916F915F914F913F912F91E7
:100950000F900BBE0F900FBE0F901F9018951F9217
:100960000F920FB60F9211240BB60F922F933F9355
:100970004F935F936F937F938F939F93AF93BF93A7
:10098000EF93FF9387EE93E00E94EF01FF91EF91C9
:10099000BF91AF919F918F917F916F915F914F9197
:1009A0003F912F910F900BBE0F900FBE0F901F9095
:1009B00018951F920F920FB60F9211240BB60F923B
:1009C0002F933F934F935F936F937F938F939F9357
:1009D000AF93BF93EF93FF9384E894E00E94630288
:1009E000FF91EF91BF91AF919F918F917F916F9107
:1009F0005F914F913F912F910F900BBE0F900FBEC3
:100A00000F901F9018951F920F920FB60F921124FE
:100A10000BB60F922F933F934F935F936F937F93F8
:100A20008F939F93AF93BF93EF93FF9384E894E0EA
:100A30000E94EF01FF91EF91BF91AF919F918F9134
:100A40007F916F915F914F913F912F910F900BBECE
:100A50000F900FBE0F901F9018951F920F920FB618
:100A60000F9211240BB60F922F933F934F935F93E6
:100A70006F937F938F939F93AF93BF93EF93FF9366
:100A800081E295E00E946302FF91EF91BF91AF91E7
:100A90009F918F917F916F915F914F913F912F9196
:100AA0000F900BBE0F900FBE0F901F9018951F92C6
:100AB0000F920FB60F9211240BB60F922F933F9304
:100AC0004F935F936F937F938F939F93AF93BF9356
:100AD000EF93FF9381E295E00E94EF01FF91EF9188
:100AE000BF91AF919F918F917F916F915F914F9146
:100AF0003F912F910F900BBE0F900FBE0F901F9044
:100B000018951F920F920FB60F9211240BB60F92E9
:100B10002F933F934F935F936F937F938F939F9305
:100B2000AF93BF93CF93DF93EF93FF932091BF05D4
:100B300030E0F901E952FD4F8491F901EF56FD4F84
:100B4000D491F901E55BFD4FC491CC23A1F0811153
:100B50000E94770AEC2FF0E0EE0FFF1FE450FE4FEB
:100B6000A591B491EC91ED2331E020E009F430E05F
:100B7000832F922F02C080E090E02091C305309136
:100B8000C4052F5F3F4F3093C4052093C3052091C8
:100B9000C205253618F026E02093BE052091BE053B
:100BA0002430D9F128F4223069F02330D9F060C024
:100BB000253009F453C0263009F05AC021E02093B3
:100BC0008F0653C0009709F053C02091C3053091A0
:100BD000C4052436310508F443C010928F061092E4
:100BE000C2051DC08130910509F042C0E091C205E7
:100BF00021E02E0F2093C205F0E02091C305309133
:100C0000C405EE0FFF1FE254FA4F3087278310927E
:100C1000C4051092C30524E029C00097B9F4E091FF
:100C2000C20521E02E0F2093C205F0E02091C305FC
:100C30003091C405EE0FFF1FE254FA4F308727832F
:100C40001092C4051092C30523E010C02091C30583
:100C50003091C4052536310558F007C0009741F49E
:100C60001092C4051092C30503C025E02093BE0571
:100C70002091C1052223B9F0892B51F48091C00540
:100C8000882321F08091C00561E009C02F9A0BC034
:100C90008091C005882331F08091C00560E00E94FA
:100CA000CD0A01C02F98FF91EF91DF91CF91BF91B5
:100CB000AF919F918F917F916F915F914F913F91F4
:100CC0002F910F900BBE0F900FBE0F901F90189595
:100CD0008F929F92AF92BF92CF92DF92EF92FF924C
:100CE0000F931F93CF93DF93EC016A017B0120E008
:100CF00030E04FE753E4C701B6010E94F2144B0104
:100D00005C0120E030E0A9010E94551618161CF481
:100D1000C501B40103C0C501B40190580E941F165B
:100D20008B0120E030E0A901C701B6010E945516F1
:100D3000181614F460E001C061E089810E94CD0AB8
:100D40000F3F110509F014F4112702C00FEF10E056
:100D5000C88161E08C2F0E94FD0A0115110509F47C
:100D6000B1C00F3F110509F4AFC0EC2FF0E0E9521C
:100D7000FD4FE4914E2F50E0FA013197E231F10539
:100D800008F09DC08827EE58FF4F8F4F0C94171620
:100D900084B5806884BD07BDA7C084B5806284BD6A
:100DA00008BDA2C08091800080688093800010936D
:100DB00089000093880098C08091800080628093B1
:100DC000800010938B0000938A008EC08091800079
:100DD00088608093800010938D0000938C0084C005
:100DE0008091B00080688093B0000093B3007CC015
:100DF0008091B00080628093B0000093B40074C012
:100E000080919000806880939000109399000093E7
:100E100098006AC080919000806280939000109347
:100E20009B0000939A0060C080919000886080933E
:100E3000900010939D0000939C0056C08091A000EC
:100E400080688093A0008091A0008F7B8093A00099
:100E50001093A9000093A80047C08091A000806271
:100E60008093A0001093AB000093AA003DC0809136
:100E7000A00088608093A0001093AD000093AC00A8
:100E800033C0809120018068809320011093290154
:100E90000093280129C08091200180628093200165
:100EA00010932B0100932A011FC0809120018860BC
:100EB0008093200110932D0100932C0115C0003860
:100EC000110514F460E001C061E08C2FDF91CF9137
:100ED0001F910F91FF90EF90DF90CF90BF90AF9058
:100EE0009F908F900C94CD0ADF91CF911F910F911D
:100EF000FF90EF90DF90CF90BF90AF909F908F903A
:100F000008951F93CF93DF93EC01162F88818C30C7
:100F100008F04DC061E0812F0E94FD0AE88195E054
:100F20009E9FF0011124E057F94F1F738081807C50
:100F3000182B10831382E8819E9FF0011124E05743
:100F4000F94F148288816CE00E940B169CE0899F07
:100F5000A001112420E030E095E0B901640F751F75
:100F6000969FF001979FF00D1124E057F94F608193
:100F700066FD13C02F5F3F4F2C30310571F7811193
:100F80000CC01092800082E0809381001092850056
:100F90001092840086BB80936F00E88185E0E89F13
:100FA000F0011124E057F94F8081806480838881AB
:100FB000DF91CF911F9108951F920F920FB60F925C
:100FC00011240BB60F922F933F934F935F936F9320
:100FD0007F938F939F93AF93BF93EF93FF938091F2
:100FE000330387FF05C0109285001092840016C05D
:100FF00020913303022E000C330B8091CC0690E03D
:10100000281739075CF43091330325E03203F001EF
:101010001124E057F94F808186FD15C0809133037C
:101020008F5F8093330320913303022E000C330B28
:101030008091CC0690E02817390794F4809133030F
:101040008C302CF10DC0309133033203F0011124A8
:10105000E057F94F808160E08F730E94CD0ADECFA8
:10106000809184009091850084349C4918F480E438
:101070009CE905C08091840090918500049690932E
:101080008900809388008FEF809333032AC04091BA
:101090008400509185003091330325E03203F00144
:1010A0001124E057F94F81819281840F951F90930D
:1010B000890080938800309133033203F0011124BA
:1010C000E057F94F808186FF0CC030913303320323
:1010D000F0011124E057F94F808161E08F730E9485
:1010E000CD0AFF91EF91BF91AF919F918F917F9129
:1010F0006F915F914F913F912F910F900BBE0F9089
:101100000FBE0F901F90189585ED8093BC008091C5
:10111000BC0084FDFCCF1092B60308954091690392
:10112000262F30E0240F311D21323105DCF42091CF
:10113000B6032430C9F4FC0180E090E0861758F42F
:10114000309169032191DC01A95BBC4FA30FB11D54
:101150002C930196F3CF80916903680F6093690324
:1011600080E0089581E0089582E00895089581E087
:1011700090E03091460320914503321710F480E04F
:1011800090E0919581959109089580914603909101
:101190004503891730F48F5F8093460380E090E029
:1011A00008958FEF9FEF08958091450390E020917F
:1011B0004603821B91090895CF92DF92EF92FF922E
:1011C0000F931F93CF93DF937C01262F972F8A01D4
:1011D0008091B703882391F0C62FD72F6E01C40EDC
:1011E000D51ECC15DD0571F06991D701ED91FC910B
:1011F0000190F081E02DC7011995F3CF642F822F64
:101200000E948E08C801DF91CF911F910F91FF902E
:10121000EF90DF90CF900895CF93DF931F92CDB7DB
:10122000DEB769832091B7032223D1F02091DA033E
:10123000203240F021E030E0FC013383228380E063
:1012400090E015C08091B803E82FF0E0E754FC4F20
:10125000998190838F5F8093B8038093DA0305C0F0
:1012600061E0CE0101960E948E0881E090E00F902F
:10127000DF91CF9108951F920F920FB60F92112414
:101280000F900FBE0F901F9018951F920F920FB6E0
:101290000F9211240BB60F922F933F934F935F93AE
:1012A0006F937F938F939F93AF93BF93EF93FF932E
:1012B0008091B900887F803609F49CC068F5883237
:1012C00009F45BC090F4803109F454C038F48823E9
:1012D00009F4F6C0883009F44DC0F6C0883109F42D
:1012E0004CC0803209F45DC0EFC0803409F468C09E
:1012F00048F4803309F455C0883309F0E5C0809381
:10130000B403D8C0803509F44FC0883509F45DC0F6
:10131000883409F0D9C0D6C0883909F4C7C0A8F408
:10132000883709F467C038F4883609F463C0803719
:1013300009F460C0C9C0883809F4B8C0803909F41C
:101340005FC0803809F0C0C05BC0803B09F486C034
:1013500038F4803A09F466C0883A09F47FC0B4C012
:10136000803C09F4A7C0883C09F4A4C0883B09F478
:101370008AC0AAC08091910310C09091B30380915C
:10138000B203981770F5E091B30381E08E0F80935C
:10139000B303F0E0EE56FC4F80818093BB0085ECF8
:1013A00086C08093B4038EC0E091B30381E08E0FBA
:1013B0008093B3038091BB00F0E0EE56FC4F808336
:1013C0009091B3038091B2036EC0E091B30381E0CA
:1013D0008E0F8093B3038091BB00F0E0EE56FC4F7C
:1013E00080838091B50381116DC081E0809390036B
:1013F00084EA61C083E08093B60310928D03CFCF5F
:1014000080918D03803208F051C0E0918D0381E01E
:101410008E0F80938D038091BB00F0E0E359FC4F69
:101420008083BDCF85EC8093BC001092B603809181
:101430008D03803230F4E0918D03F0E0E359FC4FEE
:10144000108260918D0370E0E0916B03F0916C036A
:101450008DE693E0199510928D0336C084E0809359
:10146000B60310926A0310926903E0916703F0914A
:101470006803199580916903811105C081E080930B
:10148000690310924703E0916A0381E08E0F809315
:101490006A03F0E0E95BFC4F80818093BB00909190
:1014A0006A0380916903981708F479CF85E88093DF
:1014B000BC000AC085EC8093BC001092B60304C047
:1014C0001092B4030E948408FF91EF91BF91AF91F5
:1014D0009F918F917F916F915F914F913F912F914C
:1014E0000F900BBE0F900FBE0F901F90189590E0BD
:1014F000FC013197E231F10508F04EC08827EC5726
:10150000FF4F8F4F0C941716809180008F7703C088
:10151000809180008F7D809380000895809180006D
:10152000877FF9CF84B58F7702C084B58F7D84BD66
:1015300008958091B0008F7703C08091B0008F7DB7
:101540008093B0000895809190008F7707C08091BC
:1015500090008F7D03C080919000877F80939000E2
:1015600008958091A0008F7707C08091A0008F7DA3
:1015700003C08091A000877F8093A0000895809190
:1015800020018F7707C0809120018F7D03C080915B
:101590002001877F8093200108951F93CF93DF93CD
:1015A000282F30E0F901E952FD4F8491F901EF56FF
:1015B000FD4FD491F901E55BFD4FC491CC23C9F0F7
:1015C000162F81110E94770AEC2FF0E0EE0FFF1F1B
:1015D000EF5CFD4FA591B4918FB7F894111105C040
:1015E0009C91ED2FE095E92302C0EC91ED2BEC935B
:1015F0008FBFDF91CF911F910895CF93DF9390E03C
:10160000FC01EF56FD4F2491FC01E55BFD4F8491F9
:10161000882361F190E0880F991FFC01E95EFD4F7E
:10162000C591D491FC01EF5CFD4FA591B49161117E
:1016300009C09FB7F8948881209582238883EC9114
:101640002E230BC0623061F49FB7F8943881822F4B
:10165000809583238883EC912E2B2C939FBF06C00B
:101660008FB7F894E8812E2B28838FBFDF91CF911D
:101670000895863308F0865390917B00282F2870B8
:10168000977F922B90937B008770806480937C007F
:1016900080917A00806480937A0080917A0086FD40
:1016A000FCCF809178002091790090E0922B0895F2
:1016B0008F929F92AF92BF92CF92DF92EF92FF9262
:1016C0006B017C010E9477034B015C01C114D104C2
:1016D000E104F104F1F00E947703DC01CB018819E9
:1016E0009909AA09BB09883E9340A105B10570F389
:1016F00021E0C21AD108E108F10888EE880E83E0E3
:10170000981EA11CB11CC114D104E104F10419F705
:10171000DDCFFF90EF90DF90CF90BF90AF909F9084
:101720008F9008957F928F929F92AF92BF92CF92A7
:10173000DF92EF92FF920F931F93CF93DF93CDB77A
:10174000DEB7A1970FB6F894DEBF0FBECDBF8C01F8
:101750008AE0882E912CA12CB12C7724739480914F
:101760002507811153C189E892E00E94CF0E87EBD3
:1017700092E00E94CF0E409126075091270760917A
:101780002807709129078BE198E00E946806409134
:101790002A0750912B0760912C0770912D077058E4
:1017A0008DE198E00E9468060E94A40E6C0182E020
:1017B000C816D10419F589E892E00E94CF0E8CEB8F
:1017C00092E00E94CF0E1092360789E892E00E94C4
:1017D000CF0E8EEB92E00E94CF0E80912E0790915B
:1017E0002F07A0913007B091310780932A0790937B
:1017F0002B07A0932C07B0932D071EC094E0C916A9
:10180000D10419F510923607809132079091330771
:10181000A0913407B091350780932A0790932B0746
:10182000A0932C07B0932D0780912E0790912F073E
:10183000A0913007B0913107809326079093270736
:10184000A0932807B09329078ACFE1E0CE16D104F0
:10185000D9F41092360780912E0790912F07A0910E
:101860003007B091310780932A0790932B07A093FC
:101870002C07B0932D078091320790913307A091E8
:101880003407B0913507D8CFF7E0CF16D104E1F493
:1018900080913607811118C089E892E00E94CF0E2E
:1018A00085EC92E00E94CF0E709236078091370748
:1018B00090913807019690933807809337078017E7
:1018C000910709F04CCF49C089E892E00E94CF0E01
:1018D0000D2C000CEE08FF08F7FE26C0E091210554
:1018E000F09122050190F081E02D6DE281E295E01A
:1018F000199522273327A9012C193D094E095F09A3
:1019000019A2CE0181967C01CA01B901A5019401F9
:101910000E94DA15605DF70162937F0121153105A0
:101920004105510589F715C0A701960119A2CE01FD
:1019300081967C01CA01B901A50194010E94DA15C2
:10194000605DF70162937F01211531054105510565
:1019500089F7C7010E94420D02CF81E00E94D10E9B
:101960000E943D0F10161106E4F50130110521F516
:101970000E945C0F0E94A30F0E943D0F81E00E9415
:10198000D10E4DEC5CEC6CEC7DE38BE198E00E94B9
:1019900068064DEC5CEC6CEC7DEB8DE198E00E9410
:1019A00068066CE271E080E090E00E94580B82E0F3
:1019B00090E00E94920BD3CE02301105B9F40E9440
:1019C0006D0F68E873E180E090E00E94580B0E9480
:1019D0005C0F0E946D0F68E873E180E090E00E9468
:1019E000580B0E945C0F0E94E60FB9CE0E946D0F4B
:1019F0000E94A30F0E943D0F80E00E94D10E7092C2
:101A000025071092380710923707A9CEA1960FB676
:101A1000F894DEBF0FBECDBFDF91CF911F910F9124
:101A2000FF90EF90DF90CF90BF90AF909F908F90FE
:101A30007F900895E1E2F5E0A089B18982E08C937E
:101A4000A485B5851C92A685B7858FEC8C93108EE6
:101A5000A489B58986E08C93A289B3898C91806131
:101A60008C93A289B3898C9188608C93A289B38965
:101A70008C9180688C930288F389E02D80818F7D22
:101A800080830895009769F0FC0101900020E9F738
:101A90003197AF01481B590BBC0181E295E00C94D2
:101AA000C40180E090E00895CF93DF930E94420D3F
:101AB000EC0187EC92E00E94420D8C0F9D1FDF919C
:101AC000CF9108952091DA039091D903213208F043
:101AD0004AC08091B6038111FCCF32E03093B60347
:101AE00031E03093B5033FEF3093B4031092B3036A
:101AF0002093B203A9EBB3E042E953E0FA013E2F91
:101B0000341B321718F43D913193F9CF10929103A1
:101B100020919103990F922B9093910390919003B0
:101B2000913061F410929003909191039093BB00D7
:101B30009091BC0093FDF8CF95EC01C095EE909389
:101B4000BC009091B6039230E1F39091B4039F3FB3
:101B500079F08091B403803241F08091B4038033F6
:101B600031F084E005C081E003C082E001C083E081
:101B70001092B8031092DA031092B7030895EF920F
:101B8000FF921F93CF93DF931F92CDB7DEB7162F2F
:101B900092E0E92E98E0F92ED7011C969C911C97B3
:101BA00021E02093B7039093D9031092B8031092C9
:101BB000DA031A960D90BC91A02DED91FC9111972E
:101BC0000190F081E02D682FCD0179831995F701FF
:101BD00082859385DC01ED91FC910190F081E02DEF
:101BE0007981672F1995F70182859385DC01ED9145
:101BF000FC910190F081E02D612F19950F90DF91FC
:101C0000CF911F91FF90EF900C94620DCF92DF92D5
:101C1000EF92FF92CF93DF93823018F08AEC92E03C
:101C20000AC090912D08691720F090912E08961700
:101C300050F48CED92E0DF91CF91FF90EF90DF9028
:101C4000CF900C94540DE82FF0E0ED5DF74FC08974
:101C5000CC3008F072C0262F30E0D0E085E08C9FB9
:101C6000F0018D9FF00D1124E057F94F8381283C3E
:101C700031059CF528E830E06901C81AD10887FDD4
:101C8000D394CC0CDD1CCC0CDD1C0D2C000CEE0810
:101C9000FF08848128E532E0281B310987FD339550
:101CA000220F331F220F331FC901330FAA0BBB0BA7
:101CB0009C01AD012C193D094E095F09A62FB0E02A
:101CC0000E94CF1524EB30E040E050E00E94B015B8
:101CD000C20ED31EE41EF51E1EC048E850E06A0185
:101CE000C81AD10887FDD394CC0CDD1CCC0CDD1CAC
:101CF0002C153D0584F0448188E592E0841B910910
:101D000047FD9395880F991F880F991F69018C15BE
:101D10009D050CF46C018FB7F89495E09C9FF00141
:101D20009D9FF00D1124E057F94F96E0C91AD10894
:101D3000CC0CDD1CD282C1828FBFDF91CF91FF908E
:101D4000EF90DF90CF900895CF93DF9382E40E94CD
:101D5000390B31E020E04091D1065091D20648176E
:101D600059070CF430E0C32FD22F81E40E94390BC5
:101D70002091CF063091D006281739070CF0229613
:101D80008FE30E94390B2091CD063091CE062817A3
:101D900039070CF02496CE01DF91CF9108950C9471
:101DA000420DCF93DF93C82F89E892E00E94CF0EB7
:101DB00089EF92E00E94CF0ECC2359F089E892E09F
:101DC0000E94CF0E80E093E00E94CF0EC0E0D0E0F2
:101DD0000BC0609132077091330780913407909166
:101DE00035070E941F16EB014091320750913307CF
:101DF00060913407709135078BE198E00E94680686
:101E00004091320750913307609134077091350744
:101E100070588DE198E00E9468066EE571E080E000
:101E200090E00E94580BBE01DD0F880B990B0E94B9
:101E30009314AB01BC018BE198E00E9468064DEC65
:101E40005CEC6CEC7DEB8DE198E00E94680689E823
:101E500092E00E94CF0E8EE093E00E94CF0E0E948F
:101E6000A40E0797E1F789E892E00E94CF0E8EE07A
:101E700093E0DF91CF910C94CF0E0E94A40E0797B0
:101E8000D1F440912607509127076091280770915F
:101E900029078BE198E00E94680640912A0750913B
:101EA0002B0760912C0770912D0770588DE198E0F9
:101EB0000E946806E2CF089560912C0870E084E3E8
:101EC00098E00E9481076AEA81E00E94060E64EFB2
:101ED00071E080E090E00C94580BCF93DF93C3E265
:101EE000D8E0698570E084E398E00E94810765E5A9
:101EF00081E00E94060E64EF71E080E090E00E94B5
:101F0000580B688570E083E398E00E94810760E0E9
:101F100080E00E94060E64EF71E080E090E00E9495
:101F2000580B688570E083E398E00E9481076BE7B7
:101F300080E00E94060E64EF71E080E090E0DF91A7
:101F4000CF910C94580B4091320750913307609118
:101F500034077091350770588BE198E00E9468064D
:101F600040913207509133076091340770913507E3
:101F70008DE198E00E94680664EF71E080E090E0F7
:101F80000E94580B409132075091330760913407FB
:101F90007091350770588DE198E00E9468060E94A4
:101FA000A40E892BE1F70E94A40E0297E1F740E00E
:101FB00050E0BA018BE198E00E94680640E050E0F2
:101FC00060E070E88DE198E00C9468060E94A30F31
:101FD0000E943D0F81E00E94D10E83E090E00C94BE
:101FE000920B789484B5826084BD84B5816084BD91
:101FF00085B5826085BD85B5816085BD80916E00A7
:10200000816080936E0010928100809181008260D7
:102010008093810080918100816080938100809114
:1020200080008160809380008091B1008460809303
:10203000B1008091B00081608093B00080919100E8
:1020400082608093910080919100816080939100E3
:10205000809190008160809390008091A1008260C7
:102060008093A1008091A10081608093A100809164
:10207000A00081608093A000809121018260809304
:1020800021018091210181608093210180912001B3
:1020900081608093200180917A00846080937A002F
:1020A00080917A00826080937A0080917A008160CA
:1020B00080937A0080917A00806880937A001092F1
:1020C000C1000E941A0D0E941A0D61E08091030860
:1020D0000E94FD0A60E0809103080E94CD0A60E042
:1020E000809102080E94FD0A8BED93E090930D0809
:1020F00080930C0810924603109245031092B80387
:102100001092DA031092B60381E08093B503109227
:10211000900361E084E10E94CD0A61E085E10E94C4
:10212000CD0A8091B9008E7F8093B9008091B9006B
:102130008D7F8093B90088E48093B80085E4809314
:10214000BC0080E090E1A0E0B0E080930F089093A5
:102150001008A0931108B09312088AE090E0A0E064
:10216000B0E08093130890931408A0931508B093DF
:10217000160880E090E0A0E0B0E480931708909308
:102180001808A0931908B0931A0860E070E185E080
:102190000E94BF0D6FE979E380E00E94BF0DCFE19F
:1021A000D8E0C12CD12CE12CF12C70E8472E72E044
:1021B000572EE6EC6E2EE2E07E2EFBECAF2EF7E023
:1021C000BF2EABE88A2E99249394C7018E5F974F58
:1021D0001C01FC019481828186010E5F174FF8017A
:1021E000818F928F61E00E94FD0A61E0F801828D8B
:1021F0000E94FD0AF101908586818883F801968FFF
:1022000061E00E94FD0A60E0F801868D0E94FD0AEF
:1022100061E088810E94CD0A1FB7F89480913B034A
:10222000811125C0F2018491F3019491E82FF0E02F
:10223000EE0FFF1FE95EFD4FA591B4918C9198239D
:1022400021F461E085E30E94CD0A61E085E30E940C
:10225000FD0A8CB580618CBD8CB580648CBD61E05D
:1022600084E30E94FD0A61E083E30E94FD0A8091FD
:102270003B038F5F80933B031FBFC5010197F1F7BD
:1022800060E088810E94CD0A88E80E941D0383E0F7
:102290000E941D0361E088810E94CD0AC50101975B
:1022A000F1F760E088810E94CD0A88E90E941D0351
:1022B00080E00E941D0380E00E941D0380E00E94D8
:1022C0001D0380E00E941D0361E088810E94CD0A09
:1022D000C4010197F1F760E088810E94CD0A80EE89
:1022E0000E941D0361E088810E94CD0AF2E0CF0EBA
:1022F000D11C2296EA94EF2821F0EE24E394F12CED
:1023000064CFC7E2D8E01C2F1C5F60E089910E9477
:10231000FD0A1C13FACF06E318E0C1E3D8E0FC2E57
:10232000F394F394FE013697608170E0CE0102963B
:102330000E9481079991FE0133978081F8013197BE
:102340008083F801908360E00E94FD0A61E0F8015B
:1023500080810E94FD0A60E0F80180810E94CD0A20
:102360000E5F1F4FFC12DECFF8941092200189E01F
:102370008093210180E293E09093290180932801CA
:10238000109225011092240182E0809373007894CA
:102390008093BE051092C2058091BF0560E00E9447
:1023A000FD0A60912C0870E084E398E00E948107A8
:1023B00065E581E00E94060E60912B0870E083E3E2
:1023C00098E00E9481076BE780E00E94060E89E892
:1023D00092E00E94CF0E8CE892E00E94CF0E60E166
:1023E00077E280E090E00E94580B8FE30E94390B67
:1023F0005C0181E40E94390B6C0182E40E94390B7C
:102400008C0189E892E00E94CF0E8CE992E00E9454
:10241000CF0E60E177E280E090E00E94580B8FE3FE
:102420000E94390B7C0181E40E94390BEC0182E4AB
:102430000E94390BB5016E0D7F1D77FF02C06F5FE3
:102440007F4F759567957093CE066093CD06A60174
:102450004C0F5D1F57FF02C04F5F5F4F559547956B
:102460005093D0064093CF06800F911F97FD0196A1
:10247000959587959093D2068093D10689E892E04E
:102480000E94CF0E8BEA92E00E94CF0E68E873E1C3
:1024900080E090E00E94580B1092250781E090E0C8
:1024A0000E94920B1092250769E170E080E090E0B5
:1024B0000E94580B0E94F002EFCF80913907909153
:1024C0003A070C94EF161092DE031092DD0388EEAB
:1024D00093E0A0E0B0E08093DF039093E003A0934B
:1024E000E103B093E2032DE532E03093DC03209367
:1024F000DB031092EA031092E9038093EB039093BD
:10250000EC03A093ED03B093EE032FE632E030939B
:10251000E8032093E70345E351E05093F40340932D
:10252000F30344E351E05093F6034093F50340E393
:1025300051E05093F8034093F70341E351E0509387
:10254000FA034093F90342E351E05093FC034093B4
:10255000FB0346E351E05093FE034093FD031092CA
:1025600000041092010410920204109203041092CD
:102570008704109286048093880490938904A09322
:102580008A04B0938B04309385042093840445ED32
:1025900050E0509391044093900444ED50E05093E8
:1025A00093044093920440ED50E05093950440937F
:1025B000940441ED50E0509397044093960442ED0B
:1025C00050E0509399044093980446ED50E05093A6
:1025D0009B0440939A0410929D0410929E041092C2
:1025E0009F041092A004109224051092230580935A
:1025F000250590932605A0932705B09328053093D1
:1026000022052093210585EC90E090932E05809380
:102610002D0584EC90E09093300580932F0580EC9D
:1026200090E0909332058093310581EC90E0909397
:1026300034058093330582EC90E0909336058093C7
:10264000350586EC90E0909338058093370510921D
:102650003A0510923B0510923C0510923D0586E329
:102660008093230887E38093240888E380932508D8
:1026700089E3809326088BE1809327088DE180937E
:1026800028088AE1809329088CE180932A0884E055
:1026900080932B0887E080932C0810922D0884EB00
:1026A00080932E0886E180932F0888E1809330087C
:1026B00087E18093310889E180933208E091CC066C
:1026C000EC3020F08FEF8093330810C081E08E0F44
:1026D0008093CC06E093330825E0E29FF0011124BB
:1026E000E057F94F88EB9BE092838183E091CC0621
:1026F000EC3020F08FEF8093340810C081E08E0F13
:102700008093CC06E093340885E0E89FF001112423
:10271000E057F94F88EB9BE0928381838CE08093B4
:10272000020884E28093030886E08093040885E031
:10273000809305088FE1809306088EE18093070857
:1027400083E28093080882E28093090885E48093FD
:102750000A0884E480930B0880E480930E081092AA
:10276000130810921408109215081092160810926F
:102770001708109218081092190810921A08E4E429
:10278000F7E08FEF9FEFDC01128213821482158233
:10279000168217821086118683879487A587B6874D
:1027A0008787908BA18BB28B1286118210827396D1
:1027B00028E0E230F20741F78DE090E00E945A16DF
:1027C000FC011382128281E892E09183808311865A
:1027D00087E2848384E1828784E083871486F09390
:1027E0004107E0934007109242071092430785E2A9
:1027F0008093BF051092C10510923A0710923907D5
:1028000010923C0710923B0710923E0710923D0732
:1028100061E070E080E090E00E948717009791F0FF
:1028200090933A078093390710923C0710923B0728
:1028300020913D0730913E07232B09F069C0FC0130
:10284000108266C08091390790913A07009711F085
:102850000E94EF1610923A071092390710923E0725
:1028600010923D0710923C0710923B0788EC90E0D5
:102870009093CE068093CD069093D0068093CF069A
:1028800082E890E09093D2068093D10682E5E7E05B
:10289000F2E0A3EDB6E001900D928A95E1F7109277
:1028A00025078091320790913307A0913407B091AA
:1028B00035078093260790932707A0932807B093A6
:1028C000290780932A0790932B07A0932C07B09396
:1028D0002D0788EB9EE1A5E0BEE380932E07909341
:1028E0002F07A0933007B09331078DEC9CECACEC34
:1028F000BDE38093320790933307A0933407B093DE
:10290000350710923607109238071092370708954E
:1029100010923E0710923D0769EC72E00E947E180B
:10292000A5CFE89409C097FB3EF4909580957095EB
:1029300061957F4F8F4F9F4F9923A9F0F92F96E90B
:10294000BB279395F695879577956795B795F11180
:10295000F8CFFAF4BB0F11F460FF1BC06F5F7F4F1D
:102960008F4F9F4F16C0882311F096E911C077232F
:1029700021F09EE8872F762F05C0662371F096E838
:10298000862F70E060E02AF09A95660F771F881F07
:10299000DAF7880F9695879597F90895990F0008AB
:1029A000550FAA0BE0E8FEEF16161706E807F90721
:1029B000C0F012161306E407F50798F0621B730BBC
:1029C000840B950B39F40A2661F0232B242B252B3D
:1029D00021F408950A2609F4A140A6958FEF811DE0
:1029E000811D08950E9405150C9476150E946815A6
:1029F00038F00E946F1520F0952311F00C945F15AC
:102A00000C94651511240C94AA150E94871570F377
:102A1000959FC1F3950F50E0551F629FF001729F83
:102A2000BB27F00DB11D639FAA27F00DB11DAA1F92
:102A3000649F6627B00DA11D661F829F2227B00DDF
:102A4000A11D621F739FB00DA11D621F839FA00D6A
:102A5000611D221F749F3327A00D611D231F849FBA
:102A6000600D211D822F762F6A2F11249F57504011
:102A70009AF0F1F088234AF0EE0FFF1FBB1F661F8C
:102A8000771F881F91505040A9F79E3F510580F055
:102A90000C945F150C94AA155F3FE4F3983ED4F3B1
:102AA000869577956795B795F795E7959F5FC1F7F9
:102AB000FE2B880F911D9695879597F9089597F9A4
:102AC0009F6780E870E060E008959FEF80EC0895D4
:102AD00000240A94161617061806090608950024FD
:102AE0000A9412161306140605060895092E039477
:102AF000000C11F4882352F0BB0F40F4BF2B11F4EB
:102B000060FF04C06F5F7F4F8F4F9F4F089557FD49
:102B10009058440F551F59F05F3F71F04795880F4B
:102B200097FB991F61F09F3F79F0879508951216E2
:102B300013061406551FF2CF4695F1DF08C016168E
:102B400017061806991FF1CF86957105610508943F
:102B50000895E894BB2766277727CB0197F9089556
:102B6000052E97FB1EF400940E94C71557FD07D051
:102B70000E94DA1507FC03D04EF40C94C71550954B
:102B80004095309521953F4F4F4F5F4F0895909559
:102B90008095709561957F4F8F4F9F4F08950E944C
:102BA000FC15A59F900DB49F900DA49F800D911DC5
:102BB00011240895A1E21A2EAA1BBB1BFD010DC012
:102BC000AA1FBB1FEE1FFF1FA217B307E407F507DD
:102BD00020F0A21BB30BE40BF50B661F771F881FB9
:102BE000991F1A9469F760957095809590959B014F
:102BF000AC01BD01CF010895A29FB001B39FC001F8
:102C0000A39F700D811D1124911DB29F700D811D18
:102C10001124911D0895991B79E004C0991F9617FE
:102C200008F0961B881F7A95C9F780950895EE0FD6
:102C3000FF1F881F8BBF0790F691E02D19940E940B
:102C400026166894B1110C94AA1508950E948F1548
:102C500088F09F5798F0B92F9927B751B0F0E1F05D
:102C6000660F771F881F991F1AF0BA95C9F714C00D
:102C7000B13091F00E94A915B1E008950C94A91506
:102C8000672F782F8827B85F39F0B93FCCF3869546
:102C900077956795B395D9F73EF4909580957095A3
:102CA00061957F4F8F4F9F4F08950E94CE1408F477
:102CB0008FEF0895CF93DF938230910510F482E077
:102CC00090E0E0913B08F0913C0820E030E0C0E06B
:102CD000D0E0309711F14081518148175907C0F079
:102CE0004817590761F482819381209719F09B83DB
:102CF0008A832BC090933C0880933B0826C0211503
:102D0000310519F04217530718F49A01BE01DF018B
:102D1000EF010280F381E02DDCCF2115310509F1AF
:102D2000281B390B2430310590F412968D919C911B
:102D300013976115710521F0FB019383828304C011
:102D400090933C0880933B08FD01329644C0FD01FE
:102D5000E20FF31F81939193225031092D933C93FD
:102D60003AC02091390830913A08232B41F4209140
:102D700003023091040230933A08209339082091DD
:102D80000102309102022115310541F42DB73EB701
:102D90004091050250910602241B350BE091390841
:102DA000F0913A08E217F307A0F42E1B3F0B281707
:102DB000390778F0AC014E5F5F4F2417350748F0B4
:102DC0004E0F5F1F50933A084093390881939193B7
:102DD00002C0E0E0F0E0CF01DF91CF9108950F93C2
:102DE0001F93CF93DF93009709F48CC0FC013297B7
:102DF0001382128200913B0810913C0801151105C5
:102E000081F420813181820F931F20913908309104
:102E10003A082817390779F5F0933A08E09339080A
:102E200071C0D80140E050E0AE17BF0750F41296D1
:102E30002D913C911397AD012115310509F1D9016F
:102E4000F3CF9D01DA013383228360817181860F84
:102E5000971F8217930769F4EC0128813981260FA7
:102E6000371F2E5F3F4F318320838A819B8193835D
:102E70008283452B29F4F0933C08E0933B0842C041
:102E80001396FC93EE931297ED01499159919E018F
:102E9000240F351FE217F30771F480819181840FAD
:102EA000951F029611969C938E938281938113961F
:102EB0009C938E931297E0E0F0E0D80112968D91EA
:102EC0009C911397009719F0F8018C01F6CF8D9122
:102ED0009C9198012E5F3F4F820F931F20913908DC
:102EE00030913A082817390769F4309729F410927D
:102EF0003C0810923B0802C01382128210933A08D9
:102F000000933908DF91CF911F910F9108956F922F
:102F10007F928F929F92AF92BF92CF92DF92EF9269
:102F2000FF920F931F93CF93DF93EC01009789F4E7
:102F3000CB01DF91CF911F910F91FF90EF90DF9028
:102F4000CF90BF90AF909F908F907F906F900C9498
:102F50005A16FC01E60FF71F9C0122503109E217B7
:102F6000F30708F4ACC0D9010D911C911197061715
:102F70001707B0F00530110508F49FC0C801049789
:102F80008617970708F499C002501109061B170B02
:102F9000019311936D937C93CF010E94EF168DC026
:102FA0005B01A01AB10A4C01800E911EA0913B0852
:102FB000B0913C0840E050E0E12CF12C109709F46E
:102FC0004AC0A815B905D1F56D907C9011976301A1
:102FD00082E0C80ED11CCA14DB0480F1A3014A1997
:102FE0005B096A0182E0C80ED11C1296BC90129750
:102FF0001396AC91B5E0CB16D10440F0B282A38316
:1030000051834083D9016D937C930AC00E5F1F4F9B
:10301000C301800F911FF90191838083EB2DFA2F5B
:10302000E114F10431F0D7011396FC93EE9312975B
:1030300044C0F0933C08E0933B083FC08D919C91C5
:1030400011974817590708F4AC017D0112960D90AD
:10305000BC91A02DB3CF8091390890913A08881582
:103060009905E1F446175707C8F480910102909141
:103070000202009741F48DB79EB74091050250912E
:103080000602841B950BE817F907C8F4F0933A0879
:10309000E0933908F901718360830FC0CB010E946E
:1030A0005A167C01009759F0A801BE010E947518BC
:1030B000CE010E94EF16C70104C0CE0102C080E01D
:1030C00090E0DF91CF911F910F91FF90EF90DF90F3
:1030D000CF90BF90AF909F908F907F906F9008950A
:1030E00081E090E0F8940C948518FB01DC0102C0AB
:1030F00001900D9241505040D8F70895FB01DC013A
:1031000001900D920020E1F7089511E0C0E9D1E0AF
:1031100000E006C0802FFE010E9417162196011DB7
:0E312000C139D10780E00807A9F7F894FFCF66
:10312E00FF00003D082000000042757267657200C6
:10313E000000000000000000000000000043686571
:10314E0065736520427572676572000000000000AD
:10315E0000416C6C204275726765720000000000C1
:10316E000000000000536574757000000000000040
:10317E00000000000000000000000000000C09DC50
:10318E00082503B608D408C508B708000000008457
:10319E0002C4010802CB02390217022B0200000002
:1031AE00005203C401250324030A0D00526F626FFF
:1031BE00742073757220626C616E6300526F626F61
:1031CE007420737572206E6F69720043616C696250
:1031DE00726174696F6E2066696E690032004176A5
:1031EE00616E63650037000D0A00496E76616C6989
:1031FE006420736572766F20696421005365727660
:10320E006F20616E676C65206973206F7574206F17
:10321E00662072616E67652100746F75726E65004F
:10322E00546F75726E652046696E69203100546F59
:0A323E0075726E652046696E690026
:00000001FF
