:100000000C945D010C948E010C948E010C948E0165
:100010000C948E010C948E010C948E010C948E0124
:100020000C948E010C949F030C949F030C949F03DB
:100030000C948E010C9488060C948E010C948E0105
:100040000C948E010C944E090C948E010C948E012C
:100050000C948E010C948E010C948E010C94790BEF
:100060000C948E010C94F9070C94CF070C948E011C
:100070000C948E010C948E010C948E010C948E01C4
:100080000C948E010C948E010C948E010C948E01B4
:100090000C948E010C948E010C948E010C94A90387
:1000A0000C948E010C948E010C948E010C948E0194
:1000B0000C948E010C948E010C948E010C942308E8
:1000C0000C948E010C948E010C948E010C94A50757
:1000D0000C947B070C948E010C9451070C94270709
:1000E0000C948E01C80ACB0ABA0ABE0AC40A020BD3
:1000F000CF0AD30AD90ADD0AE10AE70AEB0AEF0AB6
:10010000020BF50AF90AFD0A0C94E0010C94BA15E9
:100110000C944A0A0C94C40A0C9430060C9495175B
:100120000C94D1010C9483060C9429050C946D0554
:100130000C94F50A0C94CB0A0C94E9050C94BE0AB5
:100140000C94F90A0C94D90A0C94E70A0C94E10A6D
:100150000C94D30A0C94EB0A0C94BA0A0C9418026F
:100160000C94CF0A0C94DD0A0C94020B0C949E059F
:100170000C94FD0A0C94C80A0C947C050C94C301E1
:100180000C94E8010C9490050C9482060C94EF0AF0
:100190000C94C20100002200250028002B002E0034
:1001A0003100340002010000050108010B010505C2
:1001B0000505070508080808020202020A0A0808DD
:1001C000040404040101010101010101030303030B
:1001D00003030303040707070C0C0C0C0C0C0C0C9A
:1001E0000202020206060606060606060B0B0B0BAB
:1001F0000B0B0B0B010210202008081020401020D0
:1002000040800201020108040201010204081020DA
:1002100040808040201008040201800402018040D8
:100220002010080402010804020101020408102041
:100230004080010204081020408000000A0B0209DF
:100240000C0D0E0807030401000000000000000070
:10025000000000000000000000000000000000009E
:10026000000000000000121110000000000000005B
:10027000000000000000000000000000000000007E
:10028000000020002300260029002C002F0032004F
:100290000001000003010601090102000021002401
:1002A0000027002A002D0030003300010100000467
:1002B0000107010A0100BA15951711241FBECFEFDF
:1002C000D1E2DEBFCDBF00E00CBF12E0A0E0B2E0A3
:1002D000ECE0F9E300E00BBF02C007900D92A63CF2
:1002E000B107D9F727E0A6ECB2E001C01D92AF3804
:1002F000B207E1F711E0CCE5D1E000E006C02197BC
:100300000109802FFE010E94F518CB35D10780E04E
:100310000807A9F70E94C30B0C94741C0C940000EE
:1003200085ED8093BC008091BC0084FDFCCF1092D1
:10033000400708954091F306262F30E0240F311D29
:1003400021323105DCF4209140072430C9F4FC014E
:1003500080E090E0861758F43091F3062191DC019B
:10036000AF52B94FA30FB11D2C930196F3CF8091DB
:10037000F306680F6093F30680E0089581E0089526
:1003800082E00895089581E090E03091CA022091C2
:10039000C902321710F480E090E09195819591099F
:1003A00008958091CA029091C902891730F48F5F35
:1003B0008093CA0280E090E008958FEF9FEF089548
:1003C0008091C90290E02091CA02821B9109089590
:1003D000CF92DF92EF92FF920F931F93CF93DF9311
:1003E0007C01262F972F8A018091CB02882391F0E0
:1003F000C62FD72F6E01C40ED51ECC15DD0571F0AA
:100400006991D701ED91FC910190F081E02DC70138
:100410001995F3CF642F822F0E949A01C801DF91B2
:10042000CF911F910F91FF90EF90DF90CF900895A3
:10043000CF93DF931F92CDB7DEB769832091CB02B4
:100440002223D1F02091CE02203240F021E030E092
:10045000FC013383228380E090E015C08091CC02C0
:10046000E82FF0E0EF5BF84F998190838F5F8093E6
:10047000CC028093CE0205C061E0CE0101960E94BD
:100480009A0181E090E00F90DF91CF9108958F92D3
:100490009F92AF92BF92CF92DF92EF92FF920F9313
:1004A0001F93CF93DF93FC01C081D1812091DB02A8
:1004B0003091DC02C217D3070CF04BC09E01220F13
:1004C000331FE091D902F091DA02E20FF31F80802E
:1004D0009180C170DD27F1E0CF27209719F404E661
:1004E00010E002C00CE91FEF7A015B016C01040F00
:1004F000151FB801C4010E940A09892B99F40E0D39
:100500001F1DB801C4010E940A09892B71F4B801AA
:100510006E0D7F1DC4010E940A09892BE9F023E0BA
:1005200030E005C021E030E002C022E030E0F5011B
:10053000808191810196821793073CF0F501118229
:100540001082F60180819181019691838083CE0192
:1005500005C081E090E002C08FEF9FEFDF91CF9167
:100560001F910F91FF90EF90DF90CF90BF90AF90D1
:100570009F908F900895E5E2F4E0A089B18982E030
:100580008C93A485B5851C92A685B7858FEC8C933A
:10059000108EA489B58986E08C93A289B3898C9149
:1005A00080618C93A289B3898C9188608C93A28995
:1005B000B3898C9180688C930288F389E02D8081C7
:1005C0008F7D80830895009769F0FC0101900020E1
:1005D000E9F73197AF01481B590BBC0185E294E064
:1005E0000C94290580E090E008952091CE0290912E
:1005F000CD02213208F04AC0809140078111FCCF22
:1006000032E03093400731E030933F073FEF3093C3
:100610003E0710923D0720933C07A1E4B7E04CE170
:1006200057E0FA013E2F341B321718F43D913193F5
:10063000F9CF10921B0720911B07990F922B9093D3
:100640001B0790911A07913061F410921A0790914C
:100650001B079093BB009091BC0093FDF8CF95ECE5
:1006600001C095EE9093BC00909140079230E1F369
:1006700090913E079F3F79F080913E07803241F094
:1006800080913E07803331F084E005C081E003C0F3
:1006900082E001C083E01092CC021092CE02109250
:1006A000CB020895EF92FF921F93CF93DF931F9297
:1006B000CDB7DEB7162F9AE9E92E96E0F92ED701CD
:1006C0001C969C911C9721E02093CB029093CD0225
:1006D0001092CC021092CE021A960D90BC91A02DD1
:1006E000ED91FC9111970190F081E02D682FCD01E3
:1006F00079831995F70182859385DC01ED91FC9151
:100700000190F081E02D7981672F1995F70182859D
:100710009385DC01ED91FC910190F081E02D612F3A
:1007200019950F90DF91CF911F91FF90EF900C944E
:10073000F50240E060E80C94290A0C94E3021F9251
:100740000F920FB60F9211240F900FBE0F901F90B3
:1007500018951F920F920FB60F9211240BB60F929D
:100760002F933F934F935F936F937F938F939F93B9
:10077000AF93BF93EF93FF938091B900887F80364A
:1007800009F49CC068F5883209F45BC090F48031AC
:1007900009F454C038F4882309F4F6C0883009F409
:1007A0004DC0F6C0883109F44CC0803209F45DC0F8
:1007B000EFC0803409F468C048F4803309F455C0B0
:1007C000883309F0E5C080933E07D8C0803509F42E
:1007D0004FC0883509F45DC0883409F0D9C0D6C04F
:1007E000883909F4C7C0A8F4883709F467C038F419
:1007F000883609F463C0803709F460C0C9C08838FE
:1008000009F4B8C0803909F45FC0803809F0C0C06D
:100810005BC0803B09F486C038F4803A09F466C0B6
:10082000883A09F47FC0B4C0803C09F4A7C0883C72
:1008300009F4A4C0883B09F48AC0AAC080911B07B0
:1008400010C090913D0780913C07981770F5E0919A
:100850003D0781E08E0F80933D07F0E0E45EF84FA6
:1008600080818093BB0085EC86C080933E078EC05C
:10087000E0913D0781E08E0F80933D078091BB00A2
:10088000F0E0E45EF84F808390913D0780913C0753
:100890006EC0E0913D0781E08E0F80933D0780910F
:1008A000BB00F0E0E45EF84F808380913F07811148
:1008B0006DC081E080931A0784EA61C083E0809371
:1008C000400710921707CFCF80911707803208F0AA
:1008D00051C0E091170781E08E0F80931707809138
:1008E000BB00F0E0E950F94F8083BDCF85EC8093E9
:1008F000BC001092400780911707803230F4E091DD
:100900001707F0E0E950F94F10826091170770E087
:10091000E091F506F091F60687EF96E019951092B2
:10092000170736C084E0809340071092F4061092B7
:10093000F306E091F106F091F20619958091F30625
:10094000811105C081E08093F3061092D106E091F9
:10095000F40681E08E0F8093F406F0E0EF52F94F39
:1009600080818093BB009091F4068091F3069817E4
:1009700008F479CF85E88093BC000AC085EC8093A9
:10098000BC001092400704C010923E070E949001E4
:10099000FF91EF91BF91AF919F918F917F916F9157
:1009A0005F914F913F912F910F900BBE0F900FBE13
:1009B0000F901F9018951F93CF93DF93282F30E04F
:1009C000F901E65CFD4F8491F901EC50FE4FD491A2
:1009D000F901E255FE4FC491CC23C9F0162F8111C5
:1009E0000E94AD0AEC2FF0E0EE0FFF1FEC56FE4F19
:1009F000A591B4918FB7F894111105C09C91ED2F7A
:100A0000E095E92302C0EC91ED2BEC938FBFDF91D1
:100A1000CF911F9108951092400781E080933F0786
:100A200010921A0761E084E10E94DB0461E085E135
:100A30000E94DB04E9EBF0E080818E7F808380817F
:100A40008D7F808388E48093B80085E48093BC0028
:100A50000895CF92DF92EF92FF920F931F93CF935F
:100A6000DF936C017A018B01C0E0D0E0CE15DF0589
:100A700089F0D8016D918D01D601ED91FC91019025
:100A8000F081E02DC6011995892B11F47E0102C079
:100A90002196ECCFC701DF91CF911F910F91FF906D
:100AA000EF90DF90CF900895FC01A089B1898C91DF
:100AB000A689B78982FD0FC09C91818D8F5F8F734E
:100AC000228D821749F0218DDF01A20FB11D5D96A5
:100AD0009C93818F08958C910895FC01538D448DD2
:100AE000252F30E0842F90E0821B930B541710F0D9
:100AF000CF96089501970895FC01918D828D9817E6
:100B000061F0828DDF01A80FB11D5D968C91928DF1
:100B10009F5F9F73928F90E008958FEF9FEF0895EE
:100B2000FC01918D828D981731F0828DE80FF11DB7
:100B3000858D90E008958FEF9FEF0895FC01918DD2
:100B4000228D892F90E0805C9F4F821B91098F73CB
:100B5000992708958BEE92E00E949E0521E0892B53
:100B600009F420E0822F089588E893E00E949E0512
:100B700021E0892B09F420E0822F089585E294E09A
:100B80000E949E0521E0892B09F420E0822F089520
:100B9000FC01848DDF01A80FB11DA35ABF4F2C911A
:100BA000848D90E001968F739927848FA689B789E9
:100BB0002C93A089B1898C9180648C93938D848DC2
:100BC000981306C00288F389E02D80818F7D808391
:100BD0000895EF92FF920F931F93CF93DF93EC0151
:100BE00081E0888F9B8D8C8D981305C0E889F989E9
:100BF000808185FD24C0F62E0B8D10E00F5F1F4F06
:100C00000F731127E02E8C8DE8120CC00FB607FC75
:100C1000FACFE889F989808185FFF5CFCE010E945E
:100C2000C805F1CF8B8DFE01E80FF11DE35AFF4F90
:100C3000F0820B8FEA89FB898081806207C0EE8990
:100C4000FF896083E889F98980818064808381E0FD
:100C500090E0DF91CF911F910F91FF90EF90089559
:100C6000CF93DF93EC01888D8823C9F0EA89FB8953
:100C7000808185FD05C0A889B9898C9186FD0FC04A
:100C80000FB607FCF5CF808185FFF2CFA889B9891F
:100C90008C9185FFEDCFCE010E94C805E7CFDF9193
:100CA000CF910895E0E0F0E0199480E090E0892B86
:100CB00021F00E94BE05811119C080E090E0892BCF
:100CC00041F080E090E0892B21F00E94000081112A
:100CD00010C00E94B40581110FC080E090E0892B04
:100CE00081F00E94AA0581110AC008950E940000A7
:100CF000E4CF0E940000EDCF0E945206EECF0C948C
:100D000000000895089580E090E008950E945F1C1F
:100D10001F920F920FB60F9211240BB60F922F93C2
:100D20003F934F935F936F937F938F939F93AF9373
:100D3000BF93EF93FF9380917E0790917F07A091DF
:100D40008007B0918107892B8A2B8B2B59F18091D9
:100D50007D07E0917B07F0917C0790818927808354
:100D600080917E0790917F07A0918007B0918107C5
:100D7000181619061A061B060CF056C080917E073D
:100D800090917F07A0918007B09181070197A109F9
:100D9000B10980937E0790937F07A0938007B0935B
:100DA000810742C080915002EAE9F2E0E4919FEFAE
:100DB00090935002E230C9F050F4EE2399F0E13004
:100DC00081F590916F009D7F90936F002AC0E43071
:100DD00019F1E0F0E53029F5909173009D7F909333
:100DE00073001FC010926E001CC0909170009D7F18
:100DF0009093700091E09093B0009091B100987F33
:100E000094609093B1001092B3000BC09091710068
:100E10009D7F9093710005C0909172009D7F90938B
:100E2000720060E00E94DB04FF91EF91BF91AF91EF
:100E30009F918F917F916F915F914F913F912F91F2
:100E40000F900BBE0F900FBE0F901F9018951F9222
:100E50000F920FB60F9211240BB60F922F933F9360
:100E60004F935F936F937F938F939F93AF93BF93B2
:100E7000EF93FF938BEE92E00E94C805FF91EF91F4
:100E8000BF91AF919F918F917F916F915F914F91A2
:100E90003F912F910F900BBE0F900FBE0F901F90A0
:100EA00018951F920F920FB60F9211240BB60F9246
:100EB0002F933F934F935F936F937F938F939F9362
:100EC000AF93BF93EF93FF938BEE92E00E94540594
:100ED000FF91EF91BF91AF919F918F917F916F9112
:100EE0005F914F913F912F910F900BBE0F900FBECE
:100EF0000F901F9018951F920F920FB60F9211240A
:100F00000BB60F922F933F934F935F936F937F9303
:100F10008F939F93AF93BF93EF93FF9388E893E0F2
:100F20000E94C805FF91EF91BF91AF919F918F9162
:100F30007F916F915F914F913F912F910F900BBED9
:100F40000F900FBE0F901F9018951F920F920FB623
:100F50000F9211240BB60F922F933F934F935F93F1
:100F60006F937F938F939F93AF93BF93EF93FF9371
:100F700088E893E00E945405FF91EF91BF91AF91F3
:100F80009F918F917F916F915F914F913F912F91A1
:100F90000F900BBE0F900FBE0F901F9018951F92D1
:100FA0000F920FB60F9211240BB60F922F933F930F
:100FB0004F935F936F937F938F939F93AF93BF9361
:100FC000EF93FF9385E294E00E94C805FF91EF91B3
:100FD000BF91AF919F918F917F916F915F914F9151
:100FE0003F912F910F900BBE0F900FBE0F901F904F
:100FF00018951F920F920FB60F9211240BB60F92F5
:101000002F933F934F935F936F937F938F939F9310
:10101000AF93BF93EF93FF9385E294E00E94540552
:10102000FF91EF91BF91AF919F918F917F916F91C0
:101030005F914F913F912F910F900BBE0F900FBE7C
:101040000F901F9018951F920F920FB60F921124B8
:101050000BB60F922F933F934F935F936F937F93B2
:101060008F939F93AF93BF93CF93DF93EF93FF93B0
:101070002091C30430E0F901E65CFD4F8491F90151
:10108000EC50FE4FD491F901E255FE4FC491CC23B0
:10109000A1F081110E94AD0AEC2FF0E0EE0FFF1FCE
:1010A000E058FD4FA591B491EC91ED2331E020E0A3
:1010B00009F430E0832F922F02C080E090E020916D
:1010C000C7043091C8042F5F3F4F3093C80420936A
:1010D000C7042091C604253618F026E02093C204E8
:1010E0002091C2042430D9F128F4223069F0233051
:1010F000D9F060C0253009F453C0263009F05AC039
:1011000021E02093930553C0009709F053C020912C
:10111000C7043091C8042436310508F443C0109246
:1011200093051092C6041DC08130910509F042C09C
:10113000E091C60421E02E0F2093C604F0E0209138
:10114000C7043091C804EE0FFF1FEE53FB4F3087EA
:1011500027831092C8041092C70424E029C0009786
:10116000B9F4E091C60421E02E0F2093C604F0E00C
:101170002091C7043091C804EE0FFF1FEE53FB4FC0
:10118000308727831092C8041092C70423E010C050
:101190002091C7043091C8042536310558F007C0A6
:1011A000009741F41092C8041092C70403C025E0D0
:1011B0002093C2042091C5042223B9F0892B51F455
:1011C0008091C404882321F08091C40461E009C0A7
:1011D0002F9A0BC08091C404882331F08091C404FD
:1011E00060E00E94DB0401C02F98FF91EF91DF9136
:1011F000CF91BF91AF919F918F917F916F915F91AF
:101200004F913F912F910F900BBE0F900FBE0F90FB
:101210001F901895CF92DF92EF92FF92CF93DF93BA
:10122000EC01072E000C880B990B0E94A2176B0192
:101230007C0120E030E040E45FE30E94011820E000
:1012400030E048E452E40E94A1190E94131AC61724
:10125000D707D4F020E030E040EA5FE3C701B601F1
:101260000E94011820E030E048E452E40E94A119F5
:1012700020E030E040E85FE30E9435190E94131A35
:1012800021E06C177D070CF420E0822F90E0DF91C5
:10129000CF91FF90EF90DF90CF9008951F920F9223
:1012A0000FB60F9211240BB60F922F933F934F93CB
:1012B0005F936F937F938F939F93AF93BF93EF93BE
:1012C000FF9380917A0787FF05C0109285001092E6
:1012D000840016C020917A07022E000C330B8091F7
:1012E000D00590E0281739075CF430917A0725E0A3
:1012F0003203F0011124EC56FA4F808186FD15C0AF
:1013000080917A078F5F80937A0720917A07022E67
:10131000000C330B8091D00590E02817390794F426
:1013200080917A078C302CF10DC030917A0732030E
:10133000F0011124EC56FA4F808160E08F730E9417
:10134000DB04DECF809184009091850084349C4939
:1013500018F480E49CE905C0809184009091850098
:10136000049690938900809388008FEF80937A078A
:101370002AC0409184005091850030917A0725E081
:101380003203F0011124EC56FA4F81819281840FCF
:10139000951F909389008093880030917A073203DB
:1013A000F0011124EC56FA4F808186FF0CC0309179
:1013B0007A073203F0011124EC56FA4F808161E084
:1013C0008F730E94DB04FF91EF91BF91AF919F91CA
:1013D0008F917F916F915F914F913F912F910F90DE
:1013E0000BBE0F900FBE0F901F9018958EBD000082
:1013F0000DB407FEFDCF8EB50895FC01248131E0C8
:101400003093CB022093CD021092CC021092CE02E8
:101410008485682B8FED92E00E9418020C94F502EF
:101420000F931F93CF938C01C62F0E94FD096C2F41
:101430006460C8010E94FD096C2F6B7FC8010E9487
:10144000FD0983EC90E00197F1F7CF911F910F9187
:101450000895FF920F931F93CF93DF931F92CDB701
:10146000DEB78C01F62E962F907F692F642BC80172
:1014700049830E94100A80E1F89EB001112449813D
:10148000642BC8010F90DF91CF911F910F91FF90B6
:101490000C94100A41E00E94290A81E090E008952E
:1014A000CF93DF93EC0140E061E00E94290A8BE3D7
:1014B0009FE10197F1F78985882329F0CE01DF911B
:1014C000CF910C949903DF91CF910895CF93DF933F
:1014D000C8EDD5E0888199810E94500A1B821A824A
:1014E000888199810E94990387E892E00E949D0378
:1014F0002091C6023091C70244E1429FC001439F40
:10150000900D112480509E4FDF91CF910C949D033C
:101510003FB7F8948091870790918807A091890739
:10152000B0918A0726B5A89B05C02F3F19F00196F8
:10153000A11DB11D3FBFBA2FA92F982F8827820F59
:10154000911DA11DB11DBC01CD0142E0660F771FA9
:10155000881F991F4A95D1F7089590E0FC013197B3
:10156000E231F10508F04EC08827EE58FF4F8F4F4B
:101570000C94F518809180008F7703C080918000D3
:101580008F7D80938000089580918000877FF9CFC0
:1015900084B58F7702C084B58F7D84BD0895809116
:1015A000B0008F7703C08091B0008F7D8093B00032
:1015B0000895809190008F7707C0809190008F7D73
:1015C00003C080919000877F809390000895809160
:1015D000A0008F7707C08091A0008F7D03C080910D
:1015E000A000877F8093A0000895809120018F77CD
:1015F00007C0809120018F7D03C080912001877FEB
:10160000809320010895CF93DF9390E0FC01EC508C
:10161000FE4F2491FC01E255FE4F8491882361F135
:1016200090E0880F991FFC01E556FD4FC591D491BC
:10163000FC01EC56FE4FA591B491611109C09FB712
:10164000F8948881209582238883EC912E230BC007
:10165000623061F49FB7F8943881822F809583239C
:101660008883EC912E2B2C939FBF06C08FB7F894E4
:10167000E8812E2B28838FBFDF91CF9108958F9221
:101680009F92AF92BF92CF92DF92EF92FF926B0147
:101690007C010E94880A4B015C01C114D104E10461
:1016A000F104F1F00E94880ADC01CB018819990944
:1016B000AA09BB09883E9340A105B10570F321E05A
:1016C000C21AD108E108F10888EE880E83E0981E5E
:1016D000A11CB11CC114D104E104F10419F7DDCF40
:1016E000FF90EF90DF90CF90BF90AF909F908F9042
:1016F00008951F920F920FB60F9211242F933F93CC
:101700008F939F93AF93BF938091830790918407AA
:10171000A0918507B09186073091820723E0230FBF
:101720002D3720F40196A11DB11D05C026E8230F19
:101730000296A11DB11D2093820780938307909389
:101740008407A0938507B0938607809187079091BF
:101750008807A0918907B0918A070196A11DB11D44
:101760008093870790938807A0938907B0938A078F
:10177000BF91AF919F918F913F912F910F900FBE8D
:101780000F901F901895CF93DF93CDB7DEB72C97AE
:101790000FB6F894DEBF0FBECDBF789484B58260DB
:1017A00084BD84B5816084BD85B5826085BD85B505
:1017B000816085BD80916E00816080936E00109283
:1017C00081008091810082608093810080918100FE
:1017D000816080938100809180008160809380008F
:1017E0008091B10084608093B1008091B0008160ED
:1017F0008093B000809191008260809391008091ED
:10180000910081608093910080919000816080932D
:1018100090008091A10082608093A1008091A1003E
:1018200081608093A1008091A00081608093A000DE
:10183000809121018260809321018091210181604A
:10184000809321018091200181608093200180910B
:101850007A00846080937A0080917A00826080931D
:101860007A0080917A00816080937A0080917A007A
:10187000806880937A001092C1000E94BB020E948F
:10188000BB0261E080919B060E94030B60E08091A7
:101890009B060E94DB0460E080919A060E94030B85
:1018A0008FED92E09093A5068093A4061092CA0251
:1018B0001092C9021092CC021092CE020E940B0527
:1018C00080E090E1A0E0B0E08093A7069093A806A6
:1018D000A093A906B093AA068AE090E0A0E0B0E049
:1018E0008093AB069093AC06A093AD06B093AE0682
:1018F00080E090E0A0E0B0E48093AF069093B00663
:10190000A093B106B093B20660E070E185E00E945A
:1019100052036FE979E380E00E94520307EB16E07F
:10192000A12CB12CC12CD12C83EE282E81E0382E95
:101930009BEC892E97E0992E2BE8622E77247394E6
:1019400096012656394F2901D90114969C91149776
:1019500012968C91F501E656F94F7F01818F928F97
:1019600061E00E94030B61E0D7015A968C910E94BE
:10197000030BF20190858681D8018C93F701968F35
:1019800061E00E94030B60E0D7015E968C910E949B
:10199000030B61E0F80180810E94DB04FFB6F8943C
:1019A0008091C802811126C0F1019491E9E2F2E030
:1019B0008491E92FF0E0EE0FFF1FE556FD4FA59152
:1019C000B4919C91892321F461E085E30E94DB04BA
:1019D00061E085E30E94030B8CB580618CBD8CB502
:1019E00080648CBD61E084E30E94030B61E083E3CB
:1019F0000E94030B8091C8028F5F8093C802FFBED4
:101A0000C4010197F1F760E0D8018C910E94DB04DA
:101A100088E80E94F60983E00E94F60961E0F80177
:101A200080810E94DB04C4010197F1F760E0D801D6
:101A30008C910E94DB0488E90E94F60980E00E94F4
:101A4000F60980E00E94F60980E00E94F60980E035
:101A50000E94F60961E0F80180810E94DB04C30165
:101A60000197F1F760E0D8018C910E94DB0480EED1
:101A70000E94F60961E0F80180810E94DB04F2E037
:101A8000AF0EB11C0E5F1F4FCA94CD2821F0CC249D
:101A9000C394D12C55CF0FEB16E0E4E0FE2EF00EF0
:101AA00060E0D8018D918D010E94030BF012F8CFF8
:101AB0003EECE32E36E0F32E0BEC16E045E0A42ED0
:101AC0005CE0C52E62E0962E72E0B72EB00EF801F3
:101AD0003897D080F80180818C3008F046C061E0F2
:101AE0008D2D0E94030BD8018C91A89EF00111242A
:101AF000EC56FA4F9D2D9F732081207CD22ED92A3F
:101B0000D082138214826C2D0E94E918BCE08B9F56
:101B1000A001112420E030E0B901640F751FA69EDA
:101B2000F001A79EF00D1124EC56FA4F908196FD1E
:101B300012C02F5F3F4F2C30310571F781110BC060
:101B40001092800090928100109285001092840083
:101B500096BA90926F00D801EC91AE9EF0011124DC
:101B6000EC56FA4F808180648083F801329790812F
:101B700032978081F70131978083F701908360E08D
:101B80000E94030B61E0D7018C910E94030B60E07F
:101B9000F70180810E94DB040F5F1F4FF2E0EF0E20
:101BA000F11CB01294CFF8941092200189E0809338
:101BB000210180E293E09093290180932801109203
:101BC00025011092240182E0809373007894809321
:101BD000C2041092C6048091C30460E00E94030B0B
:101BE0000091D8051091D9051092CA021092C9022D
:101BF0001092CC021092CE020E940B05D8011596CD
:101C00001C9215971B968C911B97823018F098E0C8
:101C100015969C93F801808762E370E080E090E085
:101C20000E943F0BD8011C966C91C8010E94FD09CF
:101C300068EE73E080E090E00E943F0B60E3C80133
:101C40000E94100A8BE4E82E86E4F82EC701019763
:101C5000F1F760E3C8010E94100AC7010197F1F78C
:101C600060E3C8010E94100A83E592E00197F1F752
:101C700060E2C8010E94100AF8016581606240E0DC
:101C8000C8010E94290A84E0D80116968C9340E08E
:101C90006CE0C8010E94290AC8010E94500A82E033
:101CA000F801878340E066E0C8010E94290A40E00D
:101CB00062E0C8010E94290A8BE39FE10197F1F7D6
:101CC0008091D8059091D90528E0DC011C962C93D1
:101CD00060E00E94FD098091D8059091D9050E948D
:101CE00099038091D8059091D905FC016681262F32
:101CF00021602683696040E00E94290A0E94660AEA
:101D000093E0292E312C44244A94542C320129EC9E
:101D100034E03093DA022093D9028091C60490E037
:101D20009093DC028093DB028091930590E0909386
:101D3000DE028093DD028091C204853009F0B4C3D5
:101D40008091CB049091CC04885891098D359105F0
:101D500088F48091C604843041F48091CD04909140
:101D6000CE048097479708F40CC28091C60484344F
:101D700008F0EEC18091C6048A3108F44FC080910A
:101D8000C9049091CA04843F914068F41092D8022B
:101D90001092D7024092D3025092D4026092D502A0
:101DA0007092D60259C08091CB049091CC04859753
:101DB0004B97A0F5EFECF4E082E090E0C12CD12C41
:101DC0007601AC014F5F5F4F2091C60430E04217AF
:101DD00053075CF4DF0112972D913C912750310994
:101DE0002730310508F411C2CA01019795958795EE
:101DF0009093D8028093D7020C972CF41092D802BB
:101E00001092D7020BC0C092D302D092D402E092BB
:101E1000D502F092D60284E090E095C18091C6048C
:101E20008A3108F44CC08091C9049091CA04803270
:101E3000934008F4ABCF8091CB049091CC04C6972B
:101E4000869708F4FFC13BC0C092D302D092D4025F
:101E5000E092D502F092D6028BE090E074C120812E
:101E60003181255231092B31310508F0FBC1CC0CF1
:101E7000DD1CEE1CFF1C6894C0F802963496AC0181
:101E80004F5F5F4F2091C60430E04217530754F470
:101E9000DF0112972D913C912C5031092B303105E7
:101EA000F0F2CA010197959587959093D802809397
:101EB000D7020C974CF61092D8021092D70280915C
:101EC000C604823208F44DC08091CB049091CC04BA
:101ED0000697079708F045C0EFECF4E082E090E049
:101EE000C12CD12C76019C012F5F3F4F4091C6043D
:101EF00050E024173507E4F4DF0112974D915C910F
:101F000011974E5151094731510508F0B8C1CC0C19
:101F1000DD1CEE1CFF1C6894C0F840815181349692
:101F2000435051094530510510F40296DCCFC901E8
:101F30000197959587959093D8028093D702409703
:101F40002CF41092D8021092D7020BC0C092D30288
:101F5000D092D402E092D502F092D6028CE090E0CA
:101F6000F2C01C821B82E1E0F0E0FA83E9838091F9
:101F7000C6048D3008F46BC049E753E0BE016D5FC5
:101F80007F4FCE0101960E944702892B09F05FC066
:101F900049E753E0BE016D5F7F4FCE0101960E947D
:101FA0004702019709F053C049E753E0BE016D5F56
:101FB0007F4FCE0101960E944702892B09F047C04E
:101FC000812C912C540100E010E08091C60490E037
:101FD00029813A81281739075CF549E753E0BE01AA
:101FE0006D5F7F4FCE0101960E9447027C0149E759
:101FF00053E0BE016D5F7F4FCE0101960E94470204
:10200000F1E0EF16F10449F4892B09F5880C991CCD
:10201000AA1CBB1C689480F808C0EF28C1F4019783
:10202000B1F4880C991CAA1CBB1C0F5F1F4FCDCFAD
:102030001093D8020093D7028092D3029092D402D8
:10204000A092D502B092D60221E030E023C21C82D9
:102050001B8281E090E09A8389838091DB029091DA
:10206000DC02181619060CF055C0E091D902F09167
:10207000DA0282E090E09A83898382819381899752
:102080004E9708F047C03A822982848195810B9748
:102090000A9708F03FC04CEB51E0BE016D5F7F4FE7
:1020A000CE0101960E944702892BA1F54CEB51E02D
:1020B000BE016D5F7F4FCE0101960E9447020197DE
:1020C00049F5812C912C540100E010E029813A81DE
:1020D0008091DB029091DC022817390734F54CEB34
:1020E00051E0BE016D5F7F4FCE0101960E94470215
:1020F0006C010330110509F0CFC04CEB51E0BE017B
:102100006D5F7F4FCE0101960E944702C816D90627
:1021100009F4C2C0E091D902F091DA028281938180
:10212000C697869708F4EEC043C11093D802009377
:10213000D7028092D3029092D402A092D502B0929C
:10214000D60282E090E09093D0028093CF020AC240
:102150008091CD049091CE04825491098E9708F01D
:1021600009CE80E090E040E050E0BA01FC01E1538C
:10217000FB4F208131812950310929303105B0F0E0
:10218000F9CD8091CF049091D0040997099708F078
:10219000ECCD1092D8021092D7024092D302509206
:1021A000D4026092D5027092D60231C2FC01EF5285
:1021B000FB4F208131812751310922313105C0F493
:1021C000440F551F661F771F4160049680389105A4
:1021D00069F680E290E09093D8028093D702409312
:1021E000D3025093D4026093D5027093D6020FC2EB
:1021F00020813181265031092730310508F0BACDD0
:10220000440F551F661F771FE0CF20813181235176
:1022100031092F30310548F4CC0CDD1CEE1CFF1CBD
:102220006894C0F802963496CCCD208131812A5032
:1022300031092930310508F0F1CDCC0CDD1CEE1C44
:10224000FF1CF0CF8091CD049091CE04C697869765
:1022500008F035CEE1EDF4E083E090E0C12CD12C24
:1022600076010DCE208131812C5031092A30310583
:1022700008F025CECC0CDD1CEE1CFF1CFECD4D91D4
:102280005C914C5051094B30510508F06ACECC0C92
:10229000DD1CEE1CFF1C41CE4CEB51E0BE016D5F1E
:1022A0007F4FCE0101960E9447027C010330110549
:1022B00069F44CEB51E0BE016D5F7F4FCE0101969A
:1022C0000E944702E816F90609F024CFC114D10490
:1022D00059F4EA94EF2809F01DCF880C991CAA1C28
:1022E000BB1C689480F80BC0CA94CD2809F012CFAB
:1022F000EF2809F00FCF880C991CAA1CBB1C0F5F9C
:102300001F4FE4CE848195814B97459708F050C0CC
:10231000DF0116967F0126ECE20EF11C20E030E092
:1023200040E050E060E070E080E090E00D911C91B2
:1023300011970950110908301105D0F512960D9129
:102340001C911397015111090D30110520F501E081
:102350000E94FD1821601496AE15BF0539F7209331
:10236000D3023093D4024093D5025093D60200E2B8
:102370000E9418192093D1023093D20285E090E098
:102380009093D0028093CF0280E390E09093D802A4
:102390008093D702E7C012960D911C9113970450B9
:1023A00011090530110520F401E00E94FD18D3CF7A
:1023B0008091C604893340F08281938189579109C5
:1023C0008335910508F437C28091C604823209F43E
:1023D000A2C082819381895791098335910508F4C0
:1023E00089C2828193818C549109C59708F014C1E8
:1023F0008091C604843031F4848195818097479719
:1024000008F4DCC28091C604843408F405C18481D8
:10241000958189549109C39708F0FEC09F012A5FF6
:102420003F4FBF016A577F4FC12CD12C7601D90194
:102430004D915C91495051094930510508F0ECC06B
:10244000D90112964D915C91139746515109413132
:10245000510508F0C8C2D701C601880F991FAA1FED
:10246000BB1F6C017D016894C0F82C5F3F4F26179D
:102470003707E9F6E0E2F0E0F093D802E093D70204
:10248000C092D302D092D402E092D502F092D6024A
:1024900027E030E03093D0022093CF0263C082E087
:1024A0008093C2041092C60480E090E0DC01863F75
:1024B0009F4CA440B64609F07AC08091C602909124
:1024C000C702892B41F487E892E00E949D038AE8C5
:1024D00092E00E949D038091C6029091C7020197ED
:1024E00041F487E892E00E949D038EE992E00E9409
:1024F0009D038091C6029091C702029719F00E9435
:10250000660A55C087E892E00E949D0382EB92E044
:102510000E949D03F4CF828193810A97099708F066
:1025200058CF2091C604CF01820F911D820F911DBB
:10253000DC0112978D919C910A97099708F049CF79
:102540001092D8021092D7024092D3025092D40235
:102550006092D5027092D602E6E0F0E0F093D002ED
:10256000E093CF0282E08093C2041092C60480916F
:10257000D3029091D402A091D502B091D602863CAC
:10258000EFEC9E07E4E0AE07E6E6BE0771F18A3F96
:10259000EFEC9E07E4E0AE07E6E6BE07D9F0863D25
:1025A000FFEC9F07F4E0AF07F6E6BF0749F464E6E7
:1025B00070E080E090E00E943F0B0E945506A7CBA0
:1025C000863E2FEC920724E0A20726E6B20709F028
:1025D0006ECFEDCF8091C6029091C702019790F423
:1025E0003092C7022092C6028ACF8091C602909193
:1025F000C70201968430910529F41092C702109207
:10260000C6027DCF9093C7028093C60278CF3092E6
:10261000D0022092CF02A6CF8091C604863460F10A
:10262000828193810C970B9708F4EDC125C0D901E5
:1026300012966D917C9113976E51710967317105F6
:1026400008F019C2D701C601880F991FAA1FBB1F26
:102650006C017D016894C0F84E5F5F4F2C5F3F4F67
:102660004534510509F4EAC1D9016D917C916C5052
:1026700071096B307105D8F28091C604883578F104
:1026800082819381855891098B35910508F403C2A5
:1026900026C0BC016F5F7F4FD8014D915C914750C0
:1026A00051094730510508F005C2220F331F216040
:1026B00002960C5F1F4F4091C60450E044505109F0
:1026C000841795070CF0FFC1A80142505109DA01A7
:1026D0004D915C914950510948305105D0F280919B
:1026E000C6048032E1F48281938106970697B8F49C
:1026F000848195810997099790F49F012A5F3F4F44
:10270000BF01625C7F4FC12CD12C7601D9014D9164
:102710005C91465051094630510508F4F0C12091B2
:10272000DB023091DC0238872F83263031050CF430
:10273000B6CE8F010A5F1F4F83E090E09E838D83AA
:1027400095ECC92E9DE9D92E9CE1E92E91E8F92E50
:10275000D8016D917C91F8013497A080B18080E020
:1027600090E00E94A01769877A878B879C87B501C4
:1027700080E090E00E94A0174B015C012DEC3CEC46
:102780004CE45FE30E9401189B01AC0169857A85E6
:102790008B859C850E949B1787FD19C02DEC3CEC16
:1027A0004CE45FE369857A858B859C850E940118DE
:1027B0009B01AC01C501B4010E949B17E82F880F53
:1027C000FF0BEE27FF0FEE1FFF27319602C0E0E060
:1027D000F0E0A701960163E971E080E091E00E94DA
:1027E000D9186F01FF0FEE08FF08C626D726E82686
:1027F000F926ED81FE813196FE83ED830E5F1F4F3A
:102800002F813885E217F30709F0A2CFC092D302D7
:10281000D092D402E092D502F092D60280E290E00B
:102820009093D8028093D702AFEFBFEFB093D0025E
:10283000A093CF0297CE84819581CA97899708F09B
:10284000C3CD9F012A5F3F4FC12CD12C760143E0BD
:1028500050E0D9016D917C916A5071096930710520
:1028600008F0B2CDD90112966D917C911397665103
:1028700071096131710570F5D701C601880F991F83
:10288000AA1FBB1F6C017D016894C0F84E5F5F4FAB
:102890002C5F3F4F4B335105E1F69F012A583F4FC4
:1028A000D9012D913C912A5031092930310508F088
:1028B0008BCD2CE130E03093D8022093D702C09228
:1028C000D302D092D402E092D502F092D6028AE0EE
:1028D00090E039CCD90112966D917C911397665096
:1028E00071096730710508F06FCDCC0CDD1CEE1C52
:1028F000FF1CCCCF8091C604813208F472CD848154
:102900009581CA97899708F06CCD9F012A5F3F4F48
:10291000C12CD12C760143E050E0D9016D917C911E
:102920006A5071096930710508F05BCDD9011296C2
:102930006D917C911397665171096131710570F544
:10294000D701C601880F991FAA1FBB1F6C017D010B
:102950006894C0F84E5F5F4F2C5F3F4F4332510584
:10296000E1F69F012A5B3F4FD9012D913C912A50FE
:1029700031092930310508F034CDE0E1F0E0F09381
:10298000D802E093D702C092D302D092D402E09250
:10299000D502F092D60226E030E07CCDD901129625
:1029A0006D917C911397665071096730710508F03D
:1029B00018CDCC0CDD1CEE1CFF1CCCCF8681978182
:1029C0000997099708F01ECD1092D8021092D702ED
:1029D0004092D3025092D4026092D5027092D602F5
:1029E000E7E0F0E0BBCDD90112964D915C911397D1
:1029F000465051094730510508F00ECECC0CDD1C75
:102A0000EE1CFF1C32CD848195810997099708F04F
:102A100033CE868197818C974F9708F02DCE808595
:102A2000918589974D9708F027CE9F01265F3F4FEC
:102A3000C12CD12C760145E050E016CE9F012657DF
:102A40003F4FD9012D913C912C5031092B3031054C
:102A500008F012CEE0E2F0E0F093D802E093D70263
:102A6000C092D302D092D402E092D502F092D60264
:102A700088E090E068CBD90112966D917C91139714
:102A8000695071096930710508F0F6CDCC0CDD1C78
:102A9000EE1CFF1CE1CD84819581825491098E97B3
:102AA00008F01DCE8F01045C1F4F8DE190E020E007
:102AB00030E001CED8014D915C914851510942312D
:102AC0005105D0F0CB010197959587959093D80249
:102AD0008093D7028A970CF402CEC901330FAA0B58
:102AE000BB0B8093D3029093D402A093D502B093F2
:102AF000D60289E090E027CB220F331FD9CDD90130
:102B000012964D915C9113974951510943315105EA
:102B100008F5D701C601880F991FAA1FBB1F6C01BA
:102B20007D016894C0F82C5F3F4F2617370709F0E6
:102B3000EDCD2EE030E03093D8022093D702C09242
:102B4000D302D092D402E092D502F092D6028FE066
:102B500090E0F9CAD90112964D915C9113974950B2
:102B600051094930510508F0DACDCC0CDD1CEE1CC2
:102B7000FF1CD9CF1092E2021092E10288EE93E09E
:102B8000A0E0B0E08093E3029093E402A093E5021A
:102B9000B093E6022BE532E03093E0022093DF02AF
:102BA0001092EE021092ED028093EF029093F002E9
:102BB000A093F102B093F2022DE632E03093EC02E2
:102BC0002093EB0245E351E05093F8024093F70263
:102BD00044E351E05093FA024093F90240E351E09C
:102BE0005093FC024093FB0241E351E05093FE02FC
:102BF0004093FD0242E351E0509300034093FF02F3
:102C000046E351E050930203409301031092040302
:102C100010920503109206031092070310928B0383
:102C200010928A0380938C0390938D03A0938E035C
:102C3000B0938F03309389032093880345ED50E0D0
:102C4000509395034093940344ED50E050939703C1
:102C50004093960340ED50E05093990340939803BE
:102C600041ED50E050939B0340939A0342ED50E0B6
:102C700050939D0340939C0346ED50E050939F0377
:102C800040939E031092A1031092A2031092A303FB
:102C90001092A40310922804109227048093290410
:102CA00090932A04A0932B04B0932C043093260411
:102CB0002093250485EC90E09093320480933104B6
:102CC00084EC90E0909334048093330480EC90E0A3
:102CD000909336048093350481EC90E0909338040F
:102CE0008093370482EC90E090933A048093390407
:102CF00086EC90E090933C0480933B0410923E0459
:102D000010923F04109240041092410486E3809395
:102D1000BB0687E38093BC0688E38093BD0689E306
:102D20008093BE068BE18093BF068DE18093C00641
:102D30008AE18093C1068CE18093C20684E080938F
:102D4000C30687E08093C4061092C50684EB809387
:102D5000C60686E18093C70688E18093C80687E1AE
:102D60008093C90689E18093CA06E091D005EC30D2
:102D700020F08FEF8093CB0610C081E08E0F809300
:102D8000D005E093CB0625E0E29FF0011124EC563C
:102D9000FA4F88EB9BE092838183E091D005EC3081
:102DA00020F08FEF8093CC0610C081E08E0F8093CF
:102DB000D005E093CC0685E0E89FF0011124EC56A5
:102DC000FA4F88EB9BE0928381838CE080939A0694
:102DD00084E280939B0686E080939C0685E0809346
:102DE0009D068FE180939E068EE180939F0683E28D
:102DF0008093A00682E28093A10685E48093A206D8
:102E000084E48093A30680E48093A6061092AB0628
:102E10001092AC061092AD061092AE061092AF065C
:102E20001092B0061092B1061092B206ECEDF5E0E9
:102E30008FEF9FEFDC0112821382148215821682BB
:102E400017821086118683879487A587B687878720
:102E5000908BA18BB28B128611821082739626E022
:102E6000EA39F20741F78DE090E00E94491AFC012F
:102E7000138212828FE792E091838083118687E22A
:102E8000848384E1828784E083871486F093D90564
:102E9000E093D8051092DA051092DB0585E2809365
:102EA000C3041092C5041092D2051092D10510925D
:102EB000D4051092D3051092D6051092D50561E085
:102EC00070E080E090E00E94761B009789F090937C
:102ED000D2058093D1051092D4051092D30520918C
:102EE000D5053091D605232BC1F4FC01108215C005
:102EF0008091D1059091D205009711F00E94DE1AC1
:102F00001092D2051092D1051092D6051092D505D7
:102F10001092D4051092D30508951092D605109200
:102F2000D50569E872E00C946D1C8091D1059091F3
:102F3000D2050C94DE1A0E94DD1708F481E0089592
:102F4000E89409C097FB3EF4909580957095619543
:102F50007F4F8F4F9F4F9923A9F0F92F96E9BB27F9
:102F60009395F695879577956795B795F111F8CF75
:102F7000FAF4BB0F11F460FF1BC06F5F7F4F8F4FE0
:102F80009F4F16C0882311F096E911C0772321F0D6
:102F90009EE8872F762F05C0662371F096E8862F6E
:102FA00070E060E02AF09A95660F771F881FDAF7C5
:102FB000880F9695879597F90895990F0008550FF2
:102FC000AA0BE0E8FEEF16161706E807F907C0F0AF
:102FD00012161306E407F50798F0621B730B840BB7
:102FE000950B39F40A2661F0232B242B252B21F491
:102FF00008950A2609F4A140A6958FEF811D811D31
:1030000008950E9414180C9485180E94771838F0BF
:103010000E947E1820F0952311F00C946E180C94E9
:10302000741811240C94B9180E94961870F3959F87
:10303000C1F3950F50E0551F629FF001729FBB27AF
:10304000F00DB11D639FAA27F00DB11DAA1F649F4B
:103050006627B00DA11D661F829F2227B00DA11DFE
:10306000621F739FB00DA11D621F839FA00D611D84
:10307000221F749F3327A00D611D231F849F600DA5
:10308000211D822F762F6A2F11249F5750409AF0CE
:10309000F1F088234AF0EE0FFF1FBB1F661F771F5A
:1030A000881F91505040A9F79E3F510580F00C9425
:1030B0006E180C94B9185F3FE4F3983ED4F38695EC
:1030C00077956795B795F795E7959F5FC1F7FE2BC5
:1030D000880F911D9695879597F9089597F99F67A1
:1030E00080E870E060E008959FEF80EC0895002490
:1030F0000A941616170618060906089500240A945D
:1031000012161306140605060895092E0394000CE2
:1031100011F4882352F0BB0F40F4BF2B11F460FF71
:1031200004C06F5F7F4F8F4F9F4F089557FD90589A
:10313000440F551F59F05F3F71F04795880F97FB7B
:10314000991F61F09F3F79F0879508951216130635
:103150001406551FF2CF4695F1DF08C01616170664
:103160001806991FF1CF8695710561050894089599
:10317000E894BB2766277727CB0197F908950E942B
:10318000CA18A59F900DB49F900DA49F800D911D0E
:1031900011240895A29FB001B39FC001A39F700D99
:1031A000811D1124911DB29F700D811D1124911D4F
:1031B0000895DB018F939F930E94BF18BF91AF9139
:1031C000A29F800D911DA39F900DB29F900D112481
:1031D0000895991B79E004C0991F961708F0961B73
:1031E000881F7A95C9F780950895EE0FFF1F881FF5
:1031F0008BBF0790F691E02D19940F93083090F053
:10320000982F872F762F652F542F432F322F222769
:103210000850F4CF220F331F441F551F661F771F1E
:10322000881F991F0A95B2F70F91089597FB10F820
:10323000169400080F93083098F00850232F342F6D
:10324000452F562F672F782F892F902DF4CF059477
:1032500097958795779567955795479537952795CE
:103260000A95AAF70F9108955058BB27AA270E94E4
:103270004C190C9485180E94771838F00E947E181B
:1032800020F039F49F3F19F426F40C9474180EF4CE
:10329000E095E7FB0C946E18E92F0E94961858F3FE
:1032A000BA17620773078407950720F079F4A6F52B
:1032B0000C94B8180EF4E0950B2EBA2FA02D0B012C
:1032C000B90190010C01CA01A0011124FF27591B6B
:1032D00099F0593F50F4503E68F11A16F040A22F71
:1032E000232F342F4427585FF3CF469537952795E2
:1032F000A795F0405395C9F77EF41F16BA0B620BE1
:10330000730B840BBAF09150A1F0FF0FBB1F661F27
:10331000771F881FC2F70EC0BA0F621F731F841F6A
:1033200048F4879577956795B795F7959E3F08F090
:10333000B0CF9395880F08F09927EE0F9795879552
:1033400008950E94B5190C9485180E947E1858F0B3
:103350000E94771840F029F45F3F29F00C946E1812
:1033600051110C94B9180C9474180E94961868F3B3
:103370009923B1F3552391F3951B550BBB27AA272E
:1033800062177307840738F09F5F5F4F220F331F68
:10339000441FAA1FA9F335D00E2E3AF0E0E832D030
:1033A00091505040E695001CCAF72BD0FE2F29D033
:1033B000660F771F881FBB1F261737074807AB0705
:1033C000B0E809F0BB0B802DBF01FF2793585F4F7A
:1033D0003AF09E3F510578F00C946E180C94B91891
:1033E0005F3FE4F3983ED4F3869577956795B7955C
:1033F000F7959F5FC9F7880F911D9695879597F967
:103400000895E1E0660F771F881FBB1F62177307DF
:103410008407BA0720F0621B730B840BBA0BEE1FF4
:1034200088F7E09508950E941A1A6894B1110C94D7
:10343000B91808950E949E1888F09F5798F0B92FE8
:103440009927B751B0F0E1F0660F771F881F991FD9
:103450001AF0BA95C9F714C0B13091F00E94B818AB
:10346000B1E008950C94B818672F782F8827B85FBB
:1034700039F0B93FCCF3869577956795B395D9F731
:103480003EF490958095709561957F4F8F4F9F4F3B
:103490000895CF93DF938230910510F482E090E09D
:1034A000E0918D07F0918E0720E030E0C0E0D0E0A1
:1034B000309711F14081518148175907C0F04817E2
:1034C000590761F482819381209719F09B838A8345
:1034D0002BC090938E0780938D0726C02115310550
:1034E00019F04217530718F49A01BE01DF01EF01EA
:1034F0000280F381E02DDCCF2115310509F1281B75
:10350000390B2430310590F412968D919C911397CC
:103510006115710521F0FB019383828304C09093B0
:103520008E0780938D07FD01329644C0FD01E20FA6
:10353000F31F81939193225031092D933C933AC00C
:1035400020918B0730918C07232B41F4209153025B
:103550003091540230938C0720938B0720915102B5
:10356000309152022115310541F42DB73EB74091FB
:10357000550250915602241B350BE0918B07F091B8
:103580008C07E217F307A0F42E1B3F0B281739070F
:1035900078F0AC014E5F5F4F2417350748F04E0FAF
:1035A0005F1F50938C0740938B078193919302C0C8
:1035B000E0E0F0E0CF01DF91CF9108950F931F93EA
:1035C000CF93DF93009709F48CC0FC0132971382EC
:1035D000128200918D0710918E070115110581F45B
:1035E00020813181820F931F20918B0730918C07AE
:1035F0002817390779F5F0938C07E0938B0771C092
:10360000D80140E050E0AE17BF0750F412962D915C
:103610003C911397AD012115310509F1D901F3CF83
:103620009D01DA013383228360817181860F971FA8
:103630008217930769F4EC0128813981260F371F1F
:103640002E5F3F4F318320838A819B8193838283C6
:10365000452B29F4F0938E07E0938D0742C0139613
:10366000FC93EE931297ED01499159919E01240F1D
:10367000351FE217F30771F480819181840F951F44
:10368000029611969C938E938281938113969C93BC
:103690008E931297E0E0F0E0D80112968D919C9104
:1036A0001397009719F0F8018C01F6CF8D919C913A
:1036B00098012E5F3F4F820F931F20918B0730910F
:1036C0008C072817390769F4309729F410928E0770
:1036D00010928D0702C01382128210938C07009300
:1036E0008B07DF91CF911F910F9108956F927F9279
:1036F0008F929F92AF92BF92CF92DF92EF92FF9202
:103700000F931F93CF93DF93EC01009789F4CB01C4
:10371000DF91CF911F910F91FF90EF90DF90CF90AD
:10372000BF90AF909F908F907F906F900C94491AAC
:10373000FC01E60FF71F9C0122503109E217F30745
:1037400008F4ACC0D9010D911C9111970617170709
:10375000B0F00530110508F49FC0C8010497861722
:10376000970708F499C002501109061B170B019323
:1037700011936D937C93CF010E94DE1A8DC05B0183
:10378000A01AB10A4C01800E911EA0918D07B09134
:103790008E0740E050E0E12CF12C109709F44AC06C
:1037A000A815B905D1F56D907C901197630182E061
:1037B000C80ED11CCA14DB0480F1A3014A195B09AD
:1037C0006A0182E0C80ED11C1296BC901297139623
:1037D000AC91B5E0CB16D10440F0B282A383518303
:1037E0004083D9016D937C930AC00E5F1F4FC301C4
:1037F000800F911FF90191838083EB2DFA2FE11443
:10380000F10431F0D7011396FC93EE93129744C064
:10381000F0938E07E0938D073FC08D919C91119797
:103820004817590708F4AC017D0112960D90BC9120
:10383000A02DB3CF80918B0790918C0788159905A7
:10384000E1F446175707C8F4809151029091520253
:10385000009741F48DB79EB74091550250915602A2
:10386000841B950BE817F907C8F4F0938C07E093D5
:103870008B07F901718360830FC0CB010E94491A45
:103880007C01009759F0A801BE010E94641CCE0182
:103890000E94DE1AC70104C0CE0102C080E090E0A1
:1038A000DF91CF911F910F91FF90EF90DF90CF901C
:1038B000BF90AF909F908F907F906F90089581E020
:1038C00090E0F8940C94741CFB01DC0102C00190A0
:1038D0000D9241505040D8F70895FB01DC01019052
:1038E0000D920020E1F7089511E0CCE5D1E000E071
:1038F00006C0802FFE010E94F5182196011DCD35CE
:0C390000D10780E00807A9F7F894FFCF7A
:10390C004275726765720000000000000000000044
:10391C00000000004261636F6E2042757267657231
:10392C0000000000000000004368656573652042DC
:10393C0075726765720000000000000053657475B5
:10394C0070000000000000000000000000000000FB
:10395C00FF00008F072000000000001802E8018320
:10396C0006C201E001D101C30100000000E90529F4
:10397C00056D0530069E057C059005000000004A8B
:10398C000A2905830682060A0D0063726561746953
:10399C006F6E206475206275726765723100637298
:1039AC00656174696F6E20647520627572676572EB
:1039BC0032006372656174696F6E20647520627584
:0639CC0072676572330012
:00000001FF
