:100000000C9461010C9492010C9492010C94920155
:100010000C9492010C9492010C9492010C94920114
:100020000C9492010C9407100C9407100C94071078
:100030000C9492010C947D0A0C9492010C94920100
:100040000C9492010C940A0E0C9492010C9492015F
:100050000C9492010C9492010C9492010C94FE1653
:100060000C9492010C94EC0B0C94C20B0C94920126
:100070000C9492010C9492010C9492010C949201B4
:100080000C9492010C9492010C9492010C949201A4
:100090000C9492010C9492010C9492010C94111006
:1000A0000C9492010C9492010C9492010C94920184
:1000B0000C9492010C9492010C9492010C94160CE5
:1000C0000C9492010C9492010C9492010C94980B54
:1000D0000C946E0B0C9492010C94440B0C941A0B20
:1000E0000C9492015E116111501154115A11981122
:1000F000651169116F11731177117D1181118511CE
:1001000098118B118F1193110C949F080C94ED1C76
:100110000C94390F0C94930F0C94660F0C94FA08FE
:100120000C943B0F0C9446090C9493110C948F1172
:100130000C945E0F0C945E110C9498110C94D808DA
:100140000C949E080C94EA090C9454110C947311AD
:100150000C9477110C94EC080C94E5090C94611143
:100160000C943A0F0C9481110C947D110C94F11C99
:100170000C9493090C946F110C9485110C946911D3
:100180000C9450110C94380F0C9465110C94C90800
:100190000C948B110C944A0F0C945A1100002000FF
:1001A0002300260029002C002F003200000100004F
:1001B0000301060109010200002100240027002A92
:1001C000002D003000330001010000040107010A86
:1001D0000100002200250028002B002E00310034F1
:1001E0000002010000050108010B010505050507D6
:1001F0000508080808020202020A0A0808040404A2
:1002000004010101010101010103030303030303CD
:1002100003040707070C0C0C0C0C0C0C0C0202025C
:100220000206060606060606060B0B0B0B0B0B0B4F
:100230000B010210202008081020401020408002EE
:10024000010201080402010102040810204080801C
:1002500040201008040201800402018040201008A0
:100260000402010804020101020408102040800178
:100270000204081020408000000A0B02090C0D0E39
:100280000807030401000000000000000000000057
:10029000000000000000000000000000000000005E
:1002A000000000121110000000000000000000001B
:1002B0000000000000000000000000000000F11C31
:1002C000ED1C11241FBECFEFD1E2DEBFCDBF00E099
:1002D0000CBF13E0A0E0B2E0E8E1F9E400E00BBFFE
:1002E00002C007900D92A03BB107D9F729E0A0EB1F
:1002F000B3E001C01D92AB39B207E1F711E0C0E6EF
:10030000D1E000E006C021970109802FFE010E9484
:10031000F720CF35D10780E00807A9F70E944817DA
:100320000C947A240C9400002F923F924F925F928B
:100330006F927F928F929F92AF92BF92CF92DF92F5
:10034000EF92FF920F931F93CF93DF9300D000D0D3
:10035000CDB7DEB78FE696E0909389098093880940
:1003600080916C0690E090938B0980938A0980912C
:10037000390790E090938D0980938C0980916806ED
:10038000853009F0ADC6809171069091720688584B
:1003900091098D35910588F480916C06843041F483
:1003A00080917306909174068097479708F4D7C0A0
:1003B00080916C06843408F0B9C080916C068A3153
:1003C00008F420C180916F0690917006843F91409F
:1003D00080F410928709109286098FEF9FEFDC015D
:1003E0008093820990938309A0938409B09385092F
:1003F00046C0809171069091720685974B9708F0E0
:1004000001C1E5E7F6E082E090E040E050E0BA01AB
:100410008C010F5F1F4F20916C0630E0021713070D
:100420006CF49F0122503109D9012D913C91275044
:1004300031092730310508F4CAC0C80101979595E4
:10044000879590938709809386090C972CF41092D6
:10045000870910928609D6C0409382095093830978
:10046000609384097093850984E090E015C04093FF
:1004700082095093830960938409709385098BE006
:1004800090E00AC0409382095093830960938409E5
:10049000709385098CE090E090937F0980937E09AA
:1004A00082E08093680610926C0640918209509118
:1004B00083096091840970918509463CFFEC5F07D0
:1004C000F4E06F07F6E67F0729F14A3F2FEC520769
:1004D00024E0620726E6720701F1463D8FEC5807DB
:1004E00084E0680786E67807D9F0463E9FEC590716
:1004F00094E0690796E67907B1F081E090E0463F25
:100500005F4C6440764611F480E090E091958195CF
:100510009109FBC581E090E0F8C582E090E0F5C567
:1005200083E090E0F2C584E090E0EFC5809173062F
:1005300090917406825491098E9708F03ECF20E086
:1005400030E080E090E0DC01F901EB58F94F4081A8
:100550005181495051094930510588F02ECF809181
:100560007506909176060997099708F021CF1092A9
:100570008709109286098FEF9FEFDC01B5C5F9015D
:10058000E958F94F40815181475151094231510594
:1005900088F4880F991FAA1FBB1F81602C5F3F4FF3
:1005A0002038310589F620E230E030938709209326
:1005B00086099AC5408151814650510947305105FD
:1005C00008F0FBCE880F991FAA1FBB1FE7CF208121
:1005D0003181235131092F30310540F4440F551F2B
:1005E000661F771F41600296349612CF20813181B9
:1005F0002A5031092930310528F4440F551F661F50
:10060000771FF1CF80916C068A3108F45EC080912B
:100610006F06909170068032934008F4DACE809194
:10062000710690917206C697869708F04EC0809129
:10063000730690917406C697869708F046C0E7E760
:10064000F6E083E090E040E050E0BA018C010F5FFB
:100650001F4F20916C0630E00217130764F49F01CE
:1006600022503109D9012D913C912C5031092B3068
:10067000310580F0C801019795958795909387097A
:10068000809386090C970CF0F2CE10928709109295
:1006900086091BC020813181255231092B3131055A
:1006A00040F4440F551F661F771F41600296349631
:1006B000CDCF208131812C5031092A30310528F4E9
:1006C000440F551F661F771FF1CF80916C06823251
:1006D00008F44DC0809171069091720606970797B5
:1006E00008F045C0E5E7F6E082E090E040E050E049
:1006F000BA018C010F5F1F4F20916C0630E002178A
:100700001307C4F4DF0112972D913C9111972E51DC
:10071000310927313105E8F4440F551F661F771F53
:1007200041602081318134962350310925303105D3
:10073000E0F0C8010197959587959093870980937C
:10074000860940970CF09ECE109287091092860978
:100750000EC02D913C912C5031092B30310538F4CD
:10076000440F551F661F771FDCCF0296C2CF1C8235
:100770001B8281E090E09A83898380916C068D30A2
:1007800078F41C821B8281E090E09A8389838091B7
:100790008A0990918B09181619060CF46CC0C3C015
:1007A00049E753E0BE016D5F7F4FCE0101960E9485
:1007B0000515892B31F749E753E0BE016D5F7F4F87
:1007C000CE0101960E9405150197D9F649E753E03D
:1007D000BE016D5F7F4FCE0101960E940515892BEA
:1007E00081F6C12CD12C760100E010E080916C06DE
:1007F00090E029813A812817390774F549E753E0D9
:10080000BE016D5F7F4FCE0101960E9405155C0110
:1008100049E753E0BE016D5F7F4FCE0101960E9414
:100820000515B1E0AB16B10451F4892B09F0A9CF3D
:10083000CC0CDD1CEE1CFF1C6894C0F80AC0AB2871
:1008400009F09FCF019709F09CCFCC0CDD1CEE1C6A
:10085000FF1C0F5F1F4FCACF1093870900938609B3
:10086000C0928209D0928309E0928409F0928509AE
:1008700081E090E011CEE0918809F091890982E051
:1008800090E09A8389838281938189974E9708F0BB
:100890004AC083E090E09A838983848195810B9795
:1008A0000A9708F040C04CEB51E0BE016D5F7F4FEE
:1008B000CE0101960E940515892BA9F54CEB51E05C
:1008C000BE016D5F7F4FCE0101960E940515019715
:1008D00051F5C12CD12C760100E010E020918A095D
:1008E00030918B0989819A81821793070CF026C178
:1008F0004CEB51E0BE016D5F7F4FCE0101960E942F
:1009000005155C010330110509F0E2C04CEB51E024
:10091000BE016D5F7F4FCE0101960E940515A8169E
:10092000B90609F4D5C0E0918809F091890982815E
:100930009381C6978697E0F4848195814B9745977C
:10094000B8F4DF0116967F0126ECE20EF11C20E0E0
:1009500030E040E050E060E070E080E090E00D9139
:100960001C911197095011090830110508F4F5C0C0
:1009700080916C06893370F1828193818957910946
:100980008335910508F425C125C0D90112966D91D2
:100990007C911397665171096131710508F045C169
:1009A000D701C601880F991FAA1FBB1F6C017D01CB
:1009B0006894C0F84E5F5F4F2C5F3F4F4B3351053B
:1009C00009F416C1D9016D917C916A5071096930A1
:1009D0007105D8F280916C06823231F48281938164
:1009E0000A97099708F431C1828193818957910947
:1009F00083359105D0F480916C068132B0F084810A
:100A00009581CA97899788F49F012A5F3F4FC12C2F
:100A1000D12C760143E050E0D9016D917C916A5070
:100A200071096930710508F42FC1828193818C545A
:100A30009109C59778F480916C06843031F48481F3
:100A400095818097479708F47FC180916C06843424
:100A500008F061C180916C06863460F182819381D7
:100A60000C970B9708F4BEC125C0D90112966D9161
:100A70007C9113976E5171096731710508F0EAC1D5
:100A8000D701C601880F991FAA1FBB1F6C017D01EA
:100A90006894C0F84E5F5F4F2C5F3F4F453451055F
:100AA00009F4BBC1D9016D917C916C5071096B3017
:100AB0007105D8F280916C06883508F433C28281C2
:100AC0009381855891098B35910508F4D3C12AC2C9
:100AD0004CEB51E0BE016D5F7F4FCE0101960E944D
:100AE00005154C010330110569F44CEB51E0BE01D2
:100AF0006D5F7F4FCE0101960E94051588169906FD
:100B000009F011CFA114B10459F48A94892809F08D
:100B10000ACFCC0CDD1CEE1CFF1C6894C0F80BC087
:100B2000AA94AB2809F0FFCE892809F0FCCECC0CA2
:100B3000DD1CEE1CFF1C0F5F1F4FD0CE10938709EA
:100B400000938609C0928209D0928309E0928409B9
:100B5000F092850982E090E09FCC12960D911C9155
:100B60001397015111090D30110528F501E00E947C
:100B7000FF2021601496AE15BF0509F0F0CE20933A
:100B8000820930938309409384095093850900E2D8
:100B90000E941A21209380093093810985E090E01A
:100BA00090937F0980937E0980E390E0909387097A
:100BB0008093860975CC12960D911C911397045061
:100BC00011090530110508F0D3CE01E00E94FF2085
:100BD000D1CF84819581CA97899708F0FBCE9F0178
:100BE0002A5F3F4FC12CD12C760143E050E0EACE82
:100BF0009F012A583F4FD9012D913C912A5031092C
:100C00002930310508F0E6CE2CE130E03093870939
:100C100020938609C0928209D0928309E0928409C8
:100C2000F09285098AE090E037CCD90112966D9157
:100C30007C911397665071096730710508F0CACE30
:100C4000CC0CDD1CEE1CFF1CB5CE20916C06CF0138
:100C5000820F911D820F911DDC0112978D919C9145
:100C60000A97099708F0C0CE10928709109286095A
:100C70008FEF9FEFDC018093820990938309A0930B
:100C80008409B09385093BC2D90112966D917C917C
:100C90001397665171096131710568F5D701C60175
:100CA000880F991FAA1FBB1F6C017D016894C0F8B3
:100CB0004E5F5F4F2C5F3F4F4332510509F0ACCE82
:100CC0009F012A5B3F4FD9012D913C912A50310958
:100CD0002930310508F0A9CE20E130E030938709B2
:100CE00020938609C0928209D0928309E0928409F8
:100CF000F092850904C2D90112966D917C911397E7
:100D0000665071096730710508F08FCECC0CDD1C80
:100D1000EE1CFF1CCDCF8481958189549109C39726
:100D200008F098CE9F012A5F3F4FBF016A577F4F5F
:100D3000C12CD12C7601D9014D915C9149505109BA
:100D400049305105B8F086CE868197810997099779
:100D500008F07BCE10928709109286098FEF9FEFE3
:100D6000DC018093820990938309A0938409B09356
:100D70008509C8C1D90112964D915C9113974651CE
:100D8000510941315105F0F4D701C601880F991F6F
:100D9000AA1FBB1F6C017D016894C0F82C5F3F4FF8
:100DA0002617370741F620E230E030938709209379
:100DB0008609C0928209D0928309E0928409F09258
:100DC0008509A0C1D90112964D915C9113974650A7
:100DD00051094730510508F03DCECC0CDD1CEE1C0E
:100DE000FF1CDCCF848195810997099708F062CEBA
:100DF000868197818C974F9708F05CCE808591858E
:100E000089974D9708F056CE9F01265F3F4FC12C22
:100E1000D12C760145E050E045CE9F0126573F4F4B
:100E2000D9012D913C912C5031092B30310508F01E
:100E300041CE20E230E03093870920938609C092AA
:100E40008209D0928309E0928409F092850988E0B2
:100E500090E022CBD90112966D917C911397695045
:100E600071096930710508F025CECC0CDD1CEE1C33
:100E7000FF1C10CE84819581825491098E9708F0D1
:100E800051C08F01045C1F4F8DE190E040E050E0C5
:100E900020916C0630E02450310982179307ACF49E
:100EA000980122503109D9012D913C9129503109E5
:100EB0002830310510F136C0D8012D913C912851D0
:100EC00031092231310558F1CB010197959587956C
:100ED00090938709809386098A9724F1052E000C48
:100EE000660B770B409382095093830960938409C2
:100EF0007093850989E090E0CFCABC016F5F7F4F96
:100F0000D8012D913C912750310927303105A0F6A9
:100F1000440F551F416002960C5F1F4FB9CF440F1D
:100F2000551FF9CF80916C068032E1F48281938164
:100F300006970697B8F4848195810997099790F4EC
:100F40009F012A5F3F4FBF01625C7F4FC12CD12CB4
:100F50007601D9014D915C914650510946305105B9
:100F600008F47EC080918A0990918B099E838D83BD
:100F700006970CF4B0C08F010E5F1F4F75ECC72EA3
:100F80007DE9D72E7CE1E72E71E8F72EE3E02E2EE7
:100F9000312CD80114966D917C911597AD90BC9031
:100FA00080E090E00E942F1F2B013C01B50180E002
:100FB00090E00E942F1F4B015C012DEC3CEC4CE4B7
:100FC0005FE30E94901F9B01AC01C301B2010E942C
:100FD0002A1F87FD17C02DEC3CEC4CE45FE3C301F6
:100FE000B2010E94901F9B01AC01C501B4010E9497
:100FF0002A1FE82F880FFF0BEE27FF0FEE1FFF279A
:10100000319602C0E0E0F0E0A701960163E971E0EB
:1010100080E091E00E94C7206F01FF0FEE08FF08FB
:10102000C626D726E826F926BFEF2B1A3B0A0E5F05
:101030001F4FED81FE81E215F30509F0AACFC092A2
:101040008209D0928309E0928409F092850980E2B6
:1010500090E090938709809386098FEF9FEF1CCAD9
:10106000D90112964D915C91139749515109433121
:10107000510508F5D701C601880F991FAA1FBB1F8C
:101080006C017D016894C0F82C5F3F4F261737072D
:1010900009F05FCF2EE030E0309387092093860976
:1010A000C0928209D0928309E0928409F092850966
:1010B0008FE090E0F1C9D90112964D915C911397A0
:1010C000495051094930510508F04CCFCC0CDD1C7A
:1010D000EE1CFF1CD9CF82E08093680610926C064C
:1010E00040E050E0BA0109CA8093820990938309D5
:1010F000A0938409B093850983E090E0CDC986E090
:1011000090E0CAC987E090E0C7C926960FB6F89468
:10111000DEBF0FBECDBFDF91CF911F910F91FF902A
:10112000EF90DF90CF90BF90AF909F908F907F9087
:101130006F905F904F903F902F9008950895CF92B9
:10114000DF92EF92FF920F931F93CF93DF936C0187
:101150007A018B01C0E0D0E0CE15DF0581F0D80127
:101160006D918D01D601ED91FC910190F081E02D02
:10117000C6011995892B11F02196EECF7E01C7018A
:10118000DF91CF911F910F91FF90EF90DF90CF9063
:101190000895FC01538D448D252F30E0842F90E07D
:1011A000821B930B541710F0CF9608950197089562
:1011B000FC01918D828D981761F0828DDF01A80F5F
:1011C000B11D5D968C91928D9F5F9F73928F90E081
:1011D00008958FEF9FEF0895FC01918D828D9817F0
:1011E00031F0828DE80FF11D858D90E008958FEF2D
:1011F0009FEF0895FC01918D228D892F90E0805CF6
:101200009F4F821B91098F739927089581E994E07C
:101210000E94FA0821E0892B09F420E0822F08952A
:101220008EE295E00E94FA0821E0892B09F420E083
:10123000822F08958BEC95E00E94FA0821E0892B1B
:1012400009F420E0822F0895FC01848DDF01A80FAE
:10125000B11DA35ABF4F2C91848D90E001968F73DE
:101260009927848FA689B7892C93A089B1898C91FD
:10127000837080648C93938D848D981306C002884C
:10128000F389E02D80818F7D80830895EF92FF9216
:101290000F931F93CF93DF93EC0181E0888F9B8D99
:1012A0008C8D981305C0E889F989808185FD26C059
:1012B000F62E0B8D10E00F5F1F4F0F731127E02EDE
:1012C0008C8DE8120CC00FB607FCFACFE889F989BB
:1012D000808185FFF5CFCE010E942409F1CF8B8D4F
:1012E000FE01E80FF11DE35AFF4FF0829FB7F8941B
:1012F0000B8FEA89FB89808180620AC09FB7F894CE
:10130000EE89FF896083E889F98980818370806430
:1013100080839FBF81E090E0DF91CF911F910F917B
:10132000FF90EF900895CF93DF93EC01888D882391
:10133000C9F0EA89FB89808185FD05C0A889B98942
:101340008C9186FD0FC00FB607FCF5CF808185FF1D
:10135000F2CFA889B9898C9185FFEDCFCE010E948B
:101360002409E7CFDF91CF910895E0E0F0E01994F0
:1013700080E090E0892B21F00E941A09811119C0A8
:1013800080E090E0892B41F080E090E0892B21F013
:101390000E940000811110C00E94100981110FC02D
:1013A00080E090E0892B81F00E94060981110AC03B
:1013B00008950E940000E4CF0E940000EDCF0E943B
:1013C000B509EECF0C940000089580E090E00895F8
:1013D0000E94652441E00E949C1481E090E0089501
:1013E0000F931F93CF93DF93EC018881998100972E
:1013F00029F02A813B812617370788F48B016F5F1C
:101400007F4F0E948023009761F0998388831B831C
:101410000A832C813D81232B11F4FC01108281E091
:1014200001C080E0DF91CF911F910F910895EF925D
:10143000FF920F931F93CF93DF93EC017B018A01FF
:10144000BA010E94F0092881398181110DC021154E
:10145000310519F0C9010E94F722198218821D82F4
:101460001C821B821A8206C01D830C83B701C9012E
:101470000E947324CE01DF91CF911F910F91FF90B5
:10148000EF900895CF93DF93EC016115710559F04A
:10149000FB0101900020E9F73197AF01461B570B84
:1014A0000E94170A0CC088819981009711F00E9450
:1014B000F722198218821D821C821B821A82CE0199
:1014C000DF91CF910895FC01808191810C94F722E6
:1014D000FC0111821082138212821582148261151E
:1014E000710551F0FB0101900020E9F73197AF0140
:1014F000461B570B0C94170A08951F920F920FB6B4
:101500000F9211240BB60F922F933F934F935F933B
:101510006F937F938F939F93AF93BF93EF93FF93BB
:101520008091CC039091CD03A091CE03B091CF03D5
:10153000892B8A2B8B2B49F19091CB038091000052
:101540008927809300008091CC039091CD03A091D6
:10155000CE03B091CF03181619061A061B060CF01D
:1015600056C08091CC039091CD03A091CE03B09151
:10157000CF030197A109B1098093CC039093CD03C8
:10158000A093CE03B093CF0342C080910002E6EB5C
:10159000F1E0E4919FEF90930002E230C9F050F443
:1015A000EE2399F0E13081F590916F009D7F90934B
:1015B0006F002AC0E43019F1E0F0E53029F5909190
:1015C00073009D7F909373001FC010926E001CC02B
:1015D000909170009D7F9093700091E09093B00087
:1015E0009091B100987F94609093B1001092B300F5
:1015F0000BC0909171009D7F9093710005C09091F8
:1016000072009D7F9093720060E00E949911FF919B
:10161000EF91BF91AF919F918F917F916F915F916A
:101620004F913F912F910F900BBE0F900FBE0F90D7
:101630001F9018951F920F920FB60F9211240BB6A0
:101640000F922F933F934F935F936F937F938F935B
:101650009F93AF93BF93EF93FF9381E994E00E9430
:101660002409FF91EF91BF91AF919F918F917F914D
:101670006F915F914F913F912F910F900BBE0F9003
:101680000FBE0F901F9018951F920F920FB60F92DA
:1016900011240BB60F922F933F934F935F936F9349
:1016A0007F938F939F93AF93BF93EF93FF9381E9C2
:1016B00094E00E94EE0FFF91EF91BF91AF919F9147
:1016C0008F917F916F915F914F913F912F910F90EB
:1016D0000BBE0F900FBE0F901F9018951F920F9288
:1016E0000FB60F9211240BB60F922F933F934F9387
:1016F0005F936F937F938F939F93AF93BF93EF937A
:10170000FF938EE295E00E942409FF91EF91BF9133
:10171000AF919F918F917F916F915F914F913F9189
:101720002F910F900BBE0F900FBE0F901F9018952A
:101730001F920F920FB60F9211240BB60F922F9398
:101740003F934F935F936F937F938F939F93AF9349
:10175000BF93EF93FF938EE295E00E94EE0FFF910F
:10176000EF91BF91AF919F918F917F916F915F9119
:101770004F913F912F910F900BBE0F900FBE0F9086
:101780001F9018951F920F920FB60F9211240BB64F
:101790000F922F933F934F935F936F937F938F930A
:1017A0009F93AF93BF93EF93FF938BEC95E00E94D1
:1017B0002409FF91EF91BF91AF919F918F917F91FC
:1017C0006F915F914F913F912F910F900BBE0F90B2
:1017D0000FBE0F901F9018951F920F920FB60F9289
:1017E00011240BB60F922F933F934F935F936F93F8
:1017F0007F938F939F93AF93BF93EF93FF938BEC64
:1018000095E00E94EE0FFF91EF91BF91AF919F91F4
:101810008F917F916F915F914F913F912F910F9099
:101820000BBE0F900FBE0F901F9018951F920F9236
:101830000FB60F9211240BB60F922F933F934F9335
:101840005F936F937F938F939F93AF93BF93CF9348
:10185000DF93EF93FF932091690630E0F901E95897
:10186000FD4F8491F901EF5CFD4FD491F901E551F1
:10187000FE4FC491CC2379F081110E944311EC2FCB
:10188000F0E0EE0FFF1FE456FE4FA591B491EC91EE
:10189000ED2381E009F480E020916D0630916E0621
:1018A0002F5F3F4F30936E0620936D0690916C062C
:1018B000953618F096E090936806909168069430FB
:1018C000C9F128F4923069F09330D1F05EC09530C0
:1018D00009F451C0963009F058C091E0909339074F
:1018E00051C0811152C020916D0630916E06243690
:1018F000310508F442C01092390710926C061CC0E2
:10190000813009F042C0E0916C0691E09E0F909307
:101910006C06F0E020916D0630916E06EE0FFF1F11
:10192000E859F94F3087278310926E0610926D06A2
:1019300094E029C0811117C0E0916C0691E09E0FE0
:1019400090936C06F0E020916D0630916E06EE0FDC
:10195000FF1FE859F94F3087278310926E061092C7
:101960006D0693E010C020916D0630916E0625360D
:10197000310558F007C0811108C010926E06109210
:101980006D0603C095E09093680690916B069923CD
:10199000B9F081110AC080916A06882321F08091F4
:1019A0006A0661E009C02F9A0BC080916A068823FD
:1019B00031F080916A0660E00E94991101C02F9871
:1019C000FF91EF91DF91CF91BF91AF919F918F9157
:1019D0007F916F915F914F913F912F910F900BBE2F
:1019E0000F900FBE0F901F901895CF92DF92EF923D
:1019F000FF92CF93DF93EC01072E000C880B990B1D
:101A00000E94311F6B017C0120E030E040E45FE385
:101A10000E94901F20E030E048E452E40E94B72189
:101A20000E942922C617D707D4F020E030E040EA10
:101A30005FE3C701B6010E94901F20E030E048E458
:101A400052E40E94B72120E030E040E85FE30E94CA
:101A50004B210E94292221E06C177D070CF420E025
:101A6000822F90E0DF91CF91FF90EF90DF90CF90A9
:101A70000895CF92DF92EF92FF92CF93DF93FC0114
:101A8000C081CC3008F064C0D0E085E08C9FF001CC
:101A90008D9FF00D1124E65CF84F838128E830E03B
:101AA0006901C81AD10887FDD394CC0CDD1CCC0C7D
:101AB000DD1C683C71053CF50D2C000CEE08FF08A0
:101AC000848128E532E0281B310987FD3395220FF8
:101AD000331F220F331FC901330FAA0BBB0B9C010D
:101AE000AD012C193D094E095F09DB010E948E20D2
:101AF00024EB30E040E050E00E946420C20ED31E90
:101B0000E41EF51E13C06C157D0584F0248188E564
:101B100092E0821B910927FD9395880F991F880FEA
:101B2000991F6B01861797070CF46C018FB7F89417
:101B300095E09C9FF0019D9FF00D1124E65CF84F0D
:101B400096E0C91AD108CC0CDD1CD282C1828FBFAD
:101B5000DF91CF91FF90EF90DF90CF9008951F938A
:101B6000CF93DF93EC01162F88818C3008F04DC0A5
:101B700061E0812F0E94FA11E88195E09E9FF001BB
:101B80001124E65CF84F1F738081807C182B108332
:101B90001382E8819E9FF0011124E65CF84F1482C5
:101BA00088816CE00E94D7209CE0899FA0011124CD
:101BB00020E030E095E0BA01620F731F969FF001BC
:101BC000979FF00D1124E65CF84F608166FD13C00D
:101BD0002F5F3F4F2C30310571F781110CC01092EF
:101BE000800082E080938100109285001092840032
:101BF00086BB80936F00E88185E0E89FF0011124A7
:101C0000E65CF84F8081806480838881DF91CF918A
:101C10001F9108951F920F920FB60F9211240BB6C9
:101C20000F922F933F934F935F936F937F938F9375
:101C30009F93AF93BF93EF93FF938091CA0387FF66
:101C400005C0109285001092840016C02091CA032E
:101C5000022E000C330B8091760790E0281739078D
:101C60005CF43091CA0325E03203F0011124E65CF4
:101C7000F84F808186FD15C08091CA038F5F8093E5
:101C8000CA032091CA03022E000C330B8091760701
:101C900090E02817390794F48091CA038C302CF116
:101CA0000DC03091CA033203F0011124E65CF84FF5
:101CB000808160E08F730E949911DECF8091840053
:101CC0009091850084349C4918F480E49CE905C017
:101CD0008091840090918500049690938900809370
:101CE00088008FEF8093CA032AC0409184005091EE
:101CF00085003091CA0325E03203F0011124E65C2F
:101D0000F84F81819281840F951F90938900809371
:101D100088003091CA033203F0011124E65CF84FC9
:101D2000808186FF0CC03091CA033203F001112478
:101D3000E65CF84F808161E08F730E949911FF91FA
:101D4000EF91BF91AF919F918F917F916F915F9133
:101D50004F913F912F910F900BBE0F900FBE0F90A0
:101D60001F9018958EBD00000DB407FEFDCF8EB5F7
:101D70000895CF93DF93CDB7DEB728970FB6F894C9
:101D8000DEBF0FBECDBF9C0188E0E7E0F2E0DE01E0
:101D9000119601900D928A95E1F7F90180858417DB
:101DA00010F44FEF480FFE013196E40FF11DE40FE0
:101DB000F11D9081690F606840E0C90128960FB657
:101DC000F894DEBF0FBECDBFDF91CF910C949C1471
:101DD000CF93DF93EC0140E061E00E949C148BE321
:101DE0009FE10197F1F78985882339F040E060E0B1
:101DF000CE01DF91CF910C94B90EDF91CF91089570
:101E000080918408909185080C94E80E85ED80936C
:101E1000BC008091BC0084FDFCCF10926104089549
:101E200040911404262F30E0240F311D213231055A
:101E3000DCF4209161042430C9F4FC0180E090E0DE
:101E4000861758F4309114042191DC01AE50BC4F38
:101E5000A30FB11D2C930196F3CF80911404680F4A
:101E60006093140480E0089581E0089582E008956D
:101E7000089508950895E091F1038091F003E81723
:101E800030F4F0E0E053FC4F808190E008958FEF54
:101E90009FEF08959091F1038091F003981750F40B
:101EA000E92FF0E0E053FC4F208130E09F5F9093FA
:101EB000F10302C02FEF3FEFC90108958091F003B5
:101EC00090E02091F103821B91090895CF92DF9257
:101ED000EF92FF920F931F93CF93DF937C01CB017F
:101EE0008A0120916204222389F0EB016B01C40E68
:101EF000D51ECC15DD0569F06991D701ED91FC91F6
:101F00000190F081E02DC7011995F3CF642F0E9455
:101F1000100FC801DF91CF911F910F91FF90EF90AB
:101F2000DF90CF900895CF93DF931F92CDB7DEB7A8
:101F30006983209162042223D1F02091840420320D
:101F400040F021E030E0FC013383228380E090E028
:101F500015C080916304E82FF0E0EC59FB4F9981A4
:101F600090838F5F809363048093840405C061E055
:101F7000CE0101960E94100F81E090E00F90DF915A
:101F8000CF9108950F931F93CF93DF93CDB7DEB713
:101F900062970FB6F894DEBF0FBECDBF8C01CB01A8
:101FA000F8011182108213821282158214824AE093
:101FB000BE016F5F7F4F0E94F51EBE016F5F7F4FB6
:101FC000C8010E94420A62960FB6F894DEBF0FBEA7
:101FD000CDBFDF91CF911F910F910895FC01A08992
:101FE000B1898C91A689B78982FD0FC09C91818DA2
:101FF0008F5F8F73228D821749F0218DDF01A20F31
:10200000B11D5D969C93818F08958C9108951F92C8
:102010000F920FB60F9211240F900FBE0F901F90CA
:1020200018951F920F920FB60F9211240BB60F92B4
:102030002F933F934F935F936F937F938F939F93D0
:10204000AF93BF93EF93FF938091B900887F803661
:1020500009F49CC068F5883209F45BC090F48031C3
:1020600009F454C038F4882309F4F6C0883009F420
:102070004DC0F6C0883109F44CC0803209F45DC00F
:10208000EFC0803409F468C048F4803309F455C0C7
:10209000883309F0E5C080935F04D8C0803509F427
:1020A0004FC0883509F45DC0883409F0D9C0D6C066
:1020B000883909F4C7C0A8F4883709F467C038F430
:1020C000883609F463C0803709F460C0C9C0883815
:1020D00009F4B8C0803909F45FC0803809F0C0C085
:1020E0005BC0803B09F486C038F4803A09F466C0CE
:1020F000883A09F47FC0B4C0803C09F4A7C0883C8A
:1021000009F4A4C0883B09F48AC0AAC080913C04A9
:1021100010C090915E0480915D04981770F5E09175
:102120005E0481E08E0F80935E04F0E0E35CFB4F81
:1021300080818093BB0085EC86C080935F048EC055
:10214000E0915E0481E08E0F80935E048091BB007D
:10215000F0E0E35CFB4F808390915E0480915D042E
:102160006EC0E0915E0481E08E0F80935E048091EA
:10217000BB00F0E0E35CFB4F808380916004811141
:102180006DC081E080933B0484EA61C083E080936A
:10219000610410923804CFCF80913804803208F067
:1021A00051C0E091380481E08E0F80933804809113
:1021B000BB00F0E0E85EFB4F8083BDCF85EC8093F1
:1021C000BC001092610480913804803230F4E091B8
:1021D0003804F0E0E85EFB4F10826091380470E054
:1021E000E0911604F091170488E194E0199510929B
:1021F000380436C084E08093610410921504109274
:102200001404E0911204F0911304199580911404C0
:10221000811105C081E0809314041092F203E091D3
:10222000150481E08E0F80931504F0E0EE50FC4F12
:1022300080818093BB0090911504809114049817BD
:1022400008F479CF85E88093BC000AC085EC8093C0
:10225000BC001092610404C010925F040E94060F3B
:10226000FF91EF91BF91AF919F918F917F916F916E
:102270005F914F913F912F910F900BBE0F900FBE2A
:102280000F901F90189590E0FC013197E231F10515
:1022900008F04EC08827EE58FF4F8F4F0C94F72060
:1022A000809180008F7703C0809180008F7D809324
:1022B0008000089580918000877FF9CF84B58F7763
:1022C00002C084B58F7D84BD08958091B0008F7762
:1022D00003C08091B0008F7D8093B00008958091FD
:1022E00090008F7707C0809190008F7D03C0809110
:1022F0009000877F8093900008958091A0008F7751
:1023000007C08091A0008F7D03C08091A000877FCF
:102310008093A0000895809120018F7707C080915D
:1023200020018F7D03C080912001877F8093200151
:1023300008951F93CF93DF93282F30E0F901E958D8
:10234000FD4F8491F901EF5CFD4FD491F901E55106
:10235000FE4FC491CC23C1F0162F81110E9443116E
:10236000EC2FF0E0EE0FFF1FEF52FE4FA591B4915E
:102370009FB7F894111104C08C91D095D82302C056
:10238000EC91DE2BDC939FBFDF91CF911F910895DD
:102390001092F1031092F0031092630410928404DF
:1023A0001092610481E08093600410923B0461E02C
:1023B00084E10E94991161E085E10E949911E9EBA5
:1023C000F0E080818E7F808380818D7F808388E4B0
:1023D0008093B80085E48093BC0088E39FE09093ED
:1023E00013048093120489E39FE090931704809371
:1023F00016040895CF93DF9390E0FC01EF5CFD4F4E
:102400002491FC01E551FE4F8491882361F190E015
:10241000880F991FFC01E954FE4FC591D491FC012E
:10242000EF52FE4FA591B491611109C09FB7F89486
:102430008881209582238883EC912E230BC0623003
:1024400061F49FB7F8948881322F30958323888375
:10245000EC912E2B2C939FBF06C08FB7F894E88188
:102460002E2B28838FBFDF91CF910895863308F0FC
:10247000865390917B00282F2870977F922B909302
:102480007B008770806480937C0080917A008064F8
:1024900080937A0080917A0086FDFCCF809178004D
:1024A0002091790090E0922B08958F929F92AF92A5
:1024B000BF92CF92DF92EF92FF926B017C010E945C
:1024C000D9164B015C01C114D104E104F104F1F00F
:1024D0000E94D916DC01CB0188199909AA09BB0908
:1024E000883E9340A105B10570F321E0C21AD108DE
:1024F000E108F10888EE880E83E0981EA11CB11C4B
:10250000C114D104E104F10419F7DDCFFF90EF907D
:10251000DF90CF90BF90AF909F908F9008951F93C2
:10252000CF93DF9300D000D0CDB7DEB7809177078F
:10253000811172C00E94000F80E00E94B31467EA0C
:1025400073E0CE0101960E94680ACE0101960E94B6
:10255000B016CE0101960E94630A8091780790918F
:102560007907019714E1189FB001199F700D11248C
:102570006658784FCE0101960E94680ACE010196F6
:102580000E94B016CE0101960E94630A81E00E946B
:10259000B3146AEA73E0CE0101960E94680ACE0184
:1025A00001960E94B016CE0101960E94630A8091A6
:1025B000780790917907189FB001199F700D112429
:1025C0006658784FCE0101960E94680ACE010196A6
:1025D0000E94B016CE0101960E94630A82E00E941A
:1025E000B31467EA73E0CE0101960E94680ACE0137
:1025F00001960E94B016CE0101960E94630A809156
:102600007807909179070196189FB001199F700D76
:1026100011246658784F71C00E94000F80E00E941C
:10262000B31467EA73E0CE0101960E94680ACE01F6
:1026300001960E94B016CE0101960E94630A809115
:10264000F2079091F307019714E1189FB001199FC9
:10265000700D11246C50784FCE0101960E94680ACB
:10266000CE0101960E94B016CE0101960E94630A27
:1026700081E00E94B3146AEA73E0CE0101960E94E1
:10268000680ACE0101960E94B016CE0101960E9402
:10269000630A8091F2079091F307189FB001199F88
:1026A000700D11246C50784FCE0101960E94680A7B
:1026B000CE0101960E94B016CE0101960E94630AD7
:1026C00082E00E94B31467EA73E0CE0101960E9493
:1026D000680ACE0101960E94B016CE0101960E94B2
:1026E000630A8091F2079091F3070196189FB00159
:1026F000199F700D11246C50784FCE0101960E94E5
:10270000680ACE0101960E94B016CE0101960E9481
:10271000630A26960FB6F894DEBF0FBECDBFDF91D9
:10272000CF911F91089530918404313208F04BC04D
:10273000809161048111FCCF9091BF0822E0209329
:10274000610421E0209360042FEF20935F04109236
:102750005E0430935D04E4E6F4E0ADE3B4E020E031
:10276000321721F041914D932F5FFACF10923C0424
:1027700020913C04990F922B90933C0490913B0440
:10278000913061F410923B0490913C049093BB0013
:102790009091BC0093FDF8CF95EC01C095EE90931D
:1027A000BC00909161049230E1F390915F049F3FEF
:1027B00079F080915F04803241F080915F04803332
:1027C00031F084E005C081E003C082E001C083E015
:1027D0001092630410928404109262040895EBEC4A
:1027E000F5E0A089B18982E08C93A485B5851C921F
:1027F000A685B7858FEC8C93108EA489B58986E069
:102800008C93A289B3898C9180618C93A289B389BE
:102810008C9188608C93A289B3898C9180688C9309
:102820000288F389E02D80818F7D80830895CF9386
:10283000DF93009779F0FC0101900020E9F73197D0
:10284000AF01481B590BBC018BEC95E00E949F081F
:10285000EC0102C0C0E0D0E042E050E06DEA73E07D
:102860008BEC95E00E949F088C0F9D1FDF91CF910C
:1028700008950F931F93CF93DF93162F072FC8E868
:10288000D8E09C8521E0209362049093BF081092C9
:10289000630410928404AA85BB85ED91FC91119785
:1028A0000190F081E02D682FCD0119958A859B85D7
:1028B000DC01ED91FC910190F081E02D602F1995E4
:1028C0008A859B85DC01ED91FC910190F081E02DE2
:1028D000612F1995DF91CF911F910F910C94931354
:1028E000FC01248131E0309362042093BF081092F0
:1028F0006304109284048485682B85E894E00E9428
:10290000930F0C9493130F931F93CF938C01C62FA7
:102910000E9470146C2F6460C8010E9470146C2FA8
:102920006B7FC8010E94701483EC90E00197F1F76F
:10293000CF911F910F9108950F931F93CF93DF9322
:102940008C01C62FD42F607F642B0E94831480E1FA
:10295000C89FB00111246D2BC801DF91CF911F9149
:102960000F910C948314E4E8F8E01382482F43702D
:10297000428360E0808191810C94B90EDB01149652
:102980004D915C9115976D917C91DC01ED91FC91DD
:102990000280F381E02D19940F931F93CF93DF935F
:1029A0008C01EB01FC01808191810097B1F068817D
:1029B00079816115710579F0428153812C813D81C6
:1029C0004217530740F00E9473248C819D81F801C7
:1029D0009583848313C00E94F72288819981F8012E
:1029E000918380838A819B81938382838C819D8163
:1029F00095838483198218821B821A821D821C820D
:102A0000DF91CF911F910F9108958F929F92AF9276
:102A1000BF92CF92DF92EF92FF920F931F93CF93CB
:102A2000DF93FC0120813181E0918A09F0918B09CB
:102A30002E173F070CF04FC0F901EE0FFF1FA091BA
:102A40008809B0918909EA0FFB1FA080B18021702D
:102A500033276901F1E0CF26232B19F42CE93FEF4E
:102A600002C024E630E07A018B01EC014901840EBA
:102A7000951EB401C5010E94F50C892B99F48E0CAA
:102A80009F1CB401C5010E94F50C892B71F4B7019C
:102A9000680D791DC5010E94F50C892BF9F023E022
:102AA00030E005C021E030E002C022E030E0F80173
:102AB000808191810196821793071CF49183808312
:102AC00008C0F8011182108288819981019699834A
:102AD0008883C60105C081E090E002C08FEF9FEFC0
:102AE000DF91CF911F910F91FF90EF90DF90CF90EA
:102AF000BF90AF909F908F9008955F926F927F925A
:102B00008F929F92AF92BF92CF92DF92EF92FF92FD
:102B10000F931F93CF93DF93CDB7DEB72C970FB6EC
:102B2000F894DEBF0FBECDBF8C01DC0114967C9003
:102B30006FEA73E0CE0107960E94680A612C84E177
:102B4000A82EB12C94E1592E2091870830E0472D12
:102B500050E0B501621B730B862D90E06C01641789
:102B600075070CF05DC0B4E1CB0ED11CC21AD30ABC
:102B70004C01C814D90410F446016C016FEA73E0EB
:102B8000CE0101960E94680AF801E480F5808E1457
:102B90009F04D8F4CE14DF0408F47601D801ED9137
:102BA000FC911197EE0DFF1DD08010826D917C91EC
:102BB000680D791DCE0101960E94420AF8018081BC
:102BC0009181FC01EE0DFF1DD082BE016F5F7F4F32
:102BD000CE0107960E94CC14CE0101960E94630A92
:102BE000BE01695F7F4F80918408909185080E94A3
:102BF000BE1480918708952D981B690E4091860818
:102C00004F5F4370409386088451780E60E0809156
:102C10008408909185080E94B90E1092870894CF7D
:102C2000D8011496AD90BC901597AC14BD0410F467
:102C300065015C016FEA73E0CE0101960E94680AAB
:102C4000F801E480F580CE14DF04D8F4AE14BF049C
:102C500008F47501D801ED91FC911197EE0DFF1D5F
:102C6000B08010826D917C916C0D7D1DCE0101961E
:102C70000E94420AF80180819181FC01EE0DFF1D46
:102C8000B082BE016F5F7F4FCE0107960E94CC14C9
:102C9000CE0101960E94630ABE01695F7F4F809159
:102CA0008408909185080E94BE14909187088B85B6
:102CB000890F809387086FEA73E0CE0101960E9426
:102CC000680AF0908708F3E1FF15C8F00D811E81B6
:102CD0000F5F1F4FB801CE0101960E94F0098823B3
:102CE00061F029813A818D819E8168EA73E0820FCB
:102CF000931F0E9473241E830D83F394E4CFBE01BF
:102D00006F5F7F4F80918408909185080E94BE1468
:102D10004091860860918708809184089091850889
:102D20000E94B90ECE0101960E94630ACE01079659
:102D30000E94630A2C960FB6F894DEBF0FBECDBF7B
:102D4000DF91CF911F910F91FF90EF90DF90CF9087
:102D5000BF90AF909F908F907F906F905F900895FD
:102D6000CF93DF9300D000D0CDB7DEB71A8219829F
:102D70001C821B821E821D82FC0160817181611593
:102D8000710531F044815581CE0101960E94170AE8
:102D9000CE0101960E947D15CE0101960E94630A24
:102DA00026960FB6F894DEBF0FBECDBFDF91CF9150
:102DB00008953FB7F8948091930990919409A09158
:102DC0009509B091960926B5A89B05C02F3F19F02B
:102DD0000196A11DB11D3FBFBA2FA92F982F88279B
:102DE000820F911DA11DB11DBC01CD0142E0660FF6
:102DF000771F881F991F4A95D1F708951F920F9248
:102E00000FB60F9211242F933F938F939F93AF93FD
:102E1000BF9380918F0990919009A0919109B091F1
:102E2000920930918E0923E0230F2D3720F401966B
:102E3000A11DB11D05C026E8230F0296A11DB11DDD
:102E400020938E0980938F0990939009A093910904
:102E5000B09392098091930990919409A09195095A
:102E6000B09196090196A11DB11D8093930990938D
:102E70009409A0939509B0939609BF91AF919F9142
:102E80008F913F912F910F900FBE0F901F9018952B
:102E9000CF93DF9300D000D0CDB7DEB7789484B560
:102EA000826084BD84B5816084BD85B5826085BD46
:102EB00085B5816085BD80916E00816080936E00D4
:102EC00010928100809181008260809381008091C6
:102ED0008100816080938100809180008160809377
:102EE00080008091B10084608093B1008091B00037
:102EF00081608093B0008091910082608093910006
:102F00008091910081608093910080919000816018
:102F1000809390008091A10082608093A1008091B5
:102F2000A10081608093A1008091A00081608093C6
:102F3000A000809121018260809321018091210174
:102F40008160809321018091200181608093200124
:102F500080917A00846080937A0080917A00826008
:102F600080937A0080917A00816080937A008091CA
:102F70007A00806880937A001092C1000E94EF135B
:102F80000E94EF1361E0809189080E94FA1160E0CD
:102F9000809189080E94991160E0809188080E94C0
:102FA000FA1185E894E090939308809392080E9428
:102FB000C81180E090E1A0E0B0E080939508909384
:102FC0009608A0939708B09398088AE090E0A0E054
:102FD000B0E08093990890939A08A0939B08B093CF
:102FE0009C0880E090E0A0E0B0E480939D0890937E
:102FF0009E08A0939F08B093A00860E070E185E070
:103000000E9439146FE979E380E00E94391408E8DE
:1030100018E07801B2E05B2E80E2682E82E0782E24
:1030200096E6892E92E0992E2BECC22E27E0D22E26
:103030003BE8A32EBB24B394F70194818281F8016D
:10304000818F928F61E00E94FA1161E0F801828D18
:103050000E94FA11F70190858681F801858F968F7D
:1030600061E00E94FA1160E0F801868D0E94FA1179
:1030700061E0F801858D0E9499114FB6F894809116
:10308000B003811126C0F3018491F4012491E82F4B
:10309000F0E0EE0FFF1FE954FE4FA591B4919C9113
:1030A000822F892321F461E085E30E94991161E078
:1030B00085E30E94FA118CB580618CBD8CB580646B
:1030C0008CBD61E084E30E94FA1161E083E30E9419
:1030D000FA118091B0038F5F8093B0034FBEC60199
:1030E0000197F1F760E0F801858D0E94991188E859
:1030F0000E94B20E83E00E94B20E61E0F801858D5D
:103100000E949911C6010197F1F760E0F801858DE1
:103110000E94991188E90E94B20E80E00E94B20ECE
:1031200080E00E94B20E80E00E94B20E80E00E9419
:10313000B20E61E0F801858D0E949911C5010197D9
:10314000F1F760E0F801858D0E94991180EE0E94F0
:10315000B20E61E0F801858D0E9499115A94FFEF3B
:10316000EF1AFF0A0E5F1F4F511066CF0DEA18E0ED
:1031700071EBE72E78E0F72E60E0F80181918F0186
:103180000E94FA11F8E0013B1F07B1F709EA18E0C5
:1031900063EBA62E68E0B62E67012FEFC21AD20AA3
:1031A000F701608170E0C70108960E94AF0DF6013B
:1031B00095818381F801828B938B60E00E94FA11E4
:1031C00061E0F80183890E94FA1160E0F8018389C7
:1031D0000E9499110E5F1F4F7601AC14BD04E1F6F9
:1031E000F8941092200189E08093210180E293E01D
:1031F00090932901809328011092250110922401B7
:1032000082E08093730078948093680610926C0635
:103210008091690660E00E94FA1100918408109183
:10322000850885E894E00E94C811F801158283851D
:10323000823010F098E09583F801808762E370E0B7
:1032400080E090E00E945512F8016485C8010E9458
:10325000701468EE73E080E090E00E94551260E325
:10326000C8010E9483145BE4E52E56E4F52EC701E5
:103270000197F1F760E3C8010E948314C701019729
:10328000F1F760E3C8010E94831483E592E001979F
:10329000F1F760E2C8010E948314F8016581606261
:1032A00040E0C8010E949C1484E0F801868340E05D
:1032B0006CE0C8010E949C14C8010E94E80E82E0E4
:1032C000F801878340E066E0C8010E949C1440E05A
:1032D00062E0C8010E949C148BE39FE10197F1F723
:1032E000809184089091850828E0FC01248760E0A3
:1032F0000E94701440E060E08091840890918508FD
:103300000E94B90E8091840890918508FC01668125
:10331000262F21602683696040E00E949C14609102
:10332000B20870E08AEB98E00E94AF0D8091B3087C
:10333000863520F48091B408853528F487E393E03E
:103340000E94171406C065E570E08AEB98E00E94C1
:10335000390D6091B10870E089EB98E00E94AF0DE3
:103360008091B3088C3720F48091B4088B3728F40F
:1033700087E393E00E94171406C06BE770E089EBC7
:1033800098E00E94390D0E948F12CC24C394D12C56
:103390004AE0242E312C0E94940182309105F1F4F0
:1033A0008091770781110DC08091780790917907FE
:1033B00001968530910509F5D0927907C09278077A
:1033C00001C38091F2079091F30701968530910532
:1033D000F1F4D092F307C092F207F4C28130910564
:1033E000D9F48091770781110DC080917807909171
:1033F0007907019711F484E090E090937907809326
:103400007807E0C28091F2079091F30701979093BB
:10341000F3078093F207D6C28B7F892B09F0D4C2C1
:1034200080917807909179079C01215031092330D0
:10343000310528F48091770781110FC0C5C2049728
:1034400061F480917707811108C0D0927907C0920A
:10345000780781E080937707B5C28091F207909159
:10346000F3078130910509F0D9C18091770788234E
:1034700009F4AAC20E94000F80E00E94B31464E520
:1034800073E0CE0101960E94680ACE0101960E9467
:10349000B016CE0101960E94630A0E949401892B06
:1034A000E1F70E94000F80E00E94B3148FE30E94B6
:1034B00036124C0181E40E9436125C0182E40E94C3
:1034C00036123C0163E673E0CE0101960E94680A61
:1034D000CE0101960E94B016CE0101960E94630AA9
:1034E000B401CE0101960E94C20FCE0101960E9446
:1034F000B016CE0101960E94630A81E00E94B314C7
:1035000069E673E0CE0101960E94680ACE01019639
:103510000E94B016CE0101960E94630AB501CE0149
:1035200001960E94C20FCE0101960E94B016CE01F4
:1035300001960E94630A82E00E94B3146FE673E072
:10354000CE0101960E94680ACE0101960E94B01633
:10355000CE0101960E94630AB301CE0101960E943A
:10356000C20FCE0101960E94B016CE0101960E94B4
:10357000630A0E949401892BE1F70E94000F80E00A
:103580000E94B31465E773E0CE0101960E94680AB9
:10359000CE0101960E94B016CE0101960E94630AE8
:1035A0000E949401892BE1F70E94000F80E00E94A5
:1035B000B3148FE30E9436127C0181E40E9436121C
:1035C0008C0182E40E9436122C0163E673E0CE0186
:1035D00001960E94680ACE0101960E94B016CE01A3
:1035E00001960E94630AB701CE0101960E94C20FA4
:1035F000CE0101960E94B016CE0101960E94630A88
:1036000081E00E94B31469E673E0CE0101960E9446
:10361000680ACE0101960E94B016CE0101960E9462
:10362000630AB801CE0101960E94C20FCE01019635
:103630000E94B016CE0101960E94630A82E00E94A9
:10364000B3146FE673E0CE0101960E94680ACE01C2
:1036500001960E94B016CE0101960E94630AB20143
:10366000CE0101960E94C20FCE0101960E94B016B3
:10367000CE0101960E94630A0E949401892BE1F712
:103680000E94000F80E00E94B314E80CF91C0A0DA0
:103690001B1D640C751C65E873E0CE0101960E9449
:1036A000680ACE0101960E94B016CE0101960E94D2
:1036B000630AB701F7FE02C06F5F7F4F759567958C
:1036C000CE0101960E94C20FCE0101960E94B01653
:1036D000CE0101960E94630A81E00E94B3146BE858
:1036E00073E0CE0101960E94680ACE0101960E9405
:1036F000B016CE0101960E94630AB80117FF02C0FE
:103700006F5F7F4F75956795CE0101960E94C20F3E
:10371000CE0101960E94B016CE0101960E94630A66
:1037200082E00E94B31461E973E0CE0101960E9429
:10373000680ACE0101960E94B016CE0101960E9441
:10374000630AB30177FE02C06F5F7F4F759567957F
:10375000CE0101960E94C20FCE0101960E94B016C2
:10376000CE0101960E94630A0E949401892BE1F721
:103770000E94000F80E00E94B314C701B1010E94B3
:10378000E32081E090E00E945620C801B1010E9430
:10379000E32082E090E00E945620C301B1010E9424
:1037A000E32083E090E00E94562081E090E00E94B8
:1037B0004E20E5E08E9FC001112490936D08809308
:1037C0006C0882E090E00E944E20F5E08F9FC001DF
:1037D000112490936F0880936E0883E090E00E941C
:1037E0004E2025E0829FC0011124909371088093A0
:1037F000700867E973E0CE0101960E94680ACE0165
:1038000001960E94B016CE0101960E94630A6CEDEB
:1038100075E080E090E00E945512D4C0823091059E
:1038200009F07BC080917707882309F4CDC00E94FE
:10383000000F80E00E94B31463E673E0CE010196AE
:103840000E94680ACE0101960E94B016CE01019630
:103850000E94630A81E090E00E944E2095E0899FDB
:10386000B0011124CE0101960E94C20FCE01019633
:103870000E94B016CE0101960E94630A81E00E9468
:10388000B31469E673E0CE0101960E94680ACE0186
:1038900001960E94B016CE0101960E94630A82E052
:1038A00090E00E944E20E5E08E9FB0011124CE01F1
:1038B00001960E94C20FCE0101960E94B016CE0161
:1038C00001960E94630A82E00E94B3146FE673E0DF
:1038D000CE0101960E94680ACE0101960E94B016A0
:1038E000CE0101960E94630A83E090E00E944E2080
:1038F000F5E08F9FB0011124CE0101960E94C20F06
:10390000CE0101960E94B016CE0101960E94630A74
:103910000E949401892BE1F755C08330910509F08D
:1039200045C080917707882309F44EC00E94000F9C
:1039300080E00E94B31482E40E94361231E020E05D
:103940004091700850917108481759070CF430E005
:10395000032F122F81E40E94361220916E083091BD
:103960006F082817390714F00E5F1F4F8FE30E946E
:10397000361220916C0830916D082817390714F021
:103980000C5F1F4FB801CE0101960E94C20FCE01FD
:1039900001960E94B016CE0101960E94630A64EF60
:1039A00071E080E090E00E945512C0CF049761F46E
:1039B00080917707882341F0D092F307C092F207F5
:1039C000109277070E948F1264E670E080E090E02A
:1039D0000E9455120E94B809DECC8DE798E00C9445
:1039E000630A109288041092870488EE93E0A0E0A6
:1039F000B0E08093890490938A04A0938B04B093E1
:103A00008C042BE033E030938604209385041092DD
:103A10009404109293048093950490939604A09339
:103A20009704B09398042DE133E0309392042093EF
:103A3000910445E351E050939E0440939D0444E378
:103A400051E05093A00440939F0440E351E0509311
:103A5000A2044093A10441E351E05093A404409395
:103A6000A30442E351E05093A6044093A50446E327
:103A700051E05093A8044093A7041092AA04109216
:103A8000AB041092AC041092AD0410923105109268
:103A900030058093320590933305A0933405B0939D
:103AA000350530932F0520932E0545ED50E05093BA
:103AB0003B0540933A0544ED50E050933D0540935B
:103AC0003C0540ED50E050933F0540933E0541EDED
:103AD00050E0509341054093400542ED50E0509333
:103AE00043054093420546ED50E050934505409311
:103AF000440510924705109248051092490510920E
:103B00004A051092CE051092CD058093CF05909373
:103B1000D005A093D105B093D2053093CC05209366
:103B2000CB0585EC90E09093D8058093D70584EC85
:103B300090E09093DA058093D90580EC90E0909323
:103B4000DC058093DB0581EC90E09093DE058093AB
:103B5000DD0582EC90E09093E0058093DF0586EC34
:103B600090E09093E2058093E1051092E4051092B5
:103B7000E5051092E6051092E70580910F029091FD
:103B80001002A0911102B09112028093A9089093A3
:103B9000AA08A093AB08B093AC088091130290914F
:103BA0001402A0911502B09116028093AD08909373
:103BB000AE08A093AF08B093B00884E08093B1083A
:103BC00087E08093B2081092B30884EB8093B40826
:103BD00086E18093B50888E18093B60887E18093F9
:103BE000B70889E18093B808E0917607EC3020F0BF
:103BF0008FEF8093B90810C081E08E0F8093760715
:103C0000E093B90825E0E29FF0011124E65CF84F4B
:103C100088EB9BE092838183E0917607EC3020F083
:103C20008FEF8093BA0810C081E08E0F80937607E3
:103C3000E093BA0885E0E89FF0011124E65CF84FB4
:103C400088EB9BE0928381838CE08093880884E2F8
:103C50008093890886E080938A0885E080938B08AA
:103C60008FE180938C088EE180938D0883E28093AE
:103C70008E0882E280938F0885E48093900884E424
:103C80008093910880E48093940810929908109290
:103C90009A0810929B0810929C0810929D0810920E
:103CA0009E0810929F081092A008E0ECF8E08FEFB9
:103CB0009FEFDC0112821382148215821682178212
:103CC0001086118683879487A587B6878787908B10
:103CD000A18BB28B128611821082739629E0EE3787
:103CE000F20741F78DE090E00E945F22FC01138211
:103CF00012828FE293E091838083118687E284832E
:103D000084E1828784E083871486F0938508E093BA
:103D10008408109286081092870885E280936906CD
:103D200010926B066FEA73E08DE798E00E94680AD4
:103D30001092770781E090E090937907809378075D
:103D400028E7E7E1F2E0AAE7B7E001900D922A95B3
:103D5000E1F79093F3078093F20788E7EFE8F2E04A
:103D6000A4EFB7E001900D928A95E1F781E090E031
:103D70000E944E2025E0829FC001112490936D087F
:103D800080936C0882E090E00E944E2025E0829FA4
:103D9000C001112490936F0880936E0883E090E037
:103DA0000E944E2025E0829FC0011124909371084B
:103DB000809370088DEC9CECACECBDE380937208B2
:103DC00090937308A0937408B09375088093760855
:103DD00090937708A0937808B093790810927A08A6
:103DE00010927C0810927B080895BB274A3031F46A
:103DF000992322F4BDE2909581959F4F0C94011F69
:103E0000BB27FB015527AA27880F991FAA1FA417B4
:103E100010F0A41B83955051B9F7A05DAA3308F0A8
:103E2000A95DA193009779F7B111B1931192CB01DC
:103E30000C941A1FDC01FC01672F71917723E1F7C5
:103E4000329704C07C916D9370836291AE17BF0767
:103E5000C8F308950E946C1F08F481E00895E89467
:103E600009C097FB3EF490958095709561957F4FC2
:103E70008F4F9F4F9923A9F0F92F96E9BB27939570
:103E8000F695879577956795B795F111F8CFFAF480
:103E9000BB0F11F460FF1BC06F5F7F4F8F4F9F4FB1
:103EA00016C0882311F096E911C0772321F09EE80F
:103EB000872F762F05C0662371F096E8862F70E075
:103EC00060E02AF09A95660F771F881FDAF7880F4F
:103ED0009695879597F90895990F0008550FAA0BA5
:103EE000E0E8FEEF16161706E807F907C0F012160D
:103EF0001306E407F50798F0621B730B840B950B10
:103F000039F40A2661F0232B242B252B21F4089564
:103F10000A2609F4A140A6958FEF811D811D089501
:103F20000E94A31F0C9414200E94062038F00E94C7
:103F30000D2020F0952311F00C94FD1F0C9403200C
:103F400011240C9448200E94252070F3959FC1F302
:103F5000950F50E0551F629FF001729FBB27F00D37
:103F6000B11D639FAA27F00DB11DAA1F649F66278C
:103F7000B00DA11D661F829F2227B00DA11D621FDB
:103F8000739FB00DA11D621F839FA00D611D221F95
:103F9000749F3327A00D611D231F849F600D211D79
:103FA000822F762F6A2F11249F5750409AF0F1F0FC
:103FB00088234AF0EE0FFF1FBB1F661F771F881F65
:103FC00091505040A9F79E3F510580F00C94FD1F81
:103FD0000C9448205F3FE4F3983ED4F386957795A0
:103FE0006795B795F795E7959F5FC1F7FE2B880F0B
:103FF000911D9695879597F9089597F99F6780E8A1
:1040000070E060E008959FEF80EC089500240A942A
:104010001616170618060906089500240A941216A3
:104020001306140605060895092E0394000C11F4D6
:10403000882352F0BB0F40F4BF2B11F460FF04C083
:104040006F5F7F4F8F4F9F4F089557FD9058440FDC
:10405000551F59F05F3F71F04795880F97FB991FE7
:1040600061F09F3F79F087950895121613061406A4
:10407000551FF2CF4695F1DF08C016161706180631
:10408000991FF1CF86957105610508940895E8940C
:10409000BB2766277727CB0197F90895F999FECFBB
:1040A00092BD81BDF89A992780B50895262FF99978
:1040B000FECF1FBA92BD81BD20BD0FB6F894FA9A0B
:1040C000F99A0FBE01960895052E97FB1EF40094F1
:1040D0000E947B2057FD07D00E94962007FC03D04A
:1040E0004EF40C947B2050954095309521953F4F90
:1040F0004F4F5F4F089590958095709561957F4FD4
:104100008F4F9F4F08950E94B820A59F900DB49F98
:10411000900DA49F800D911D11240895B7FF0C945C
:1041200083200E948320821B930B0895A1E21A2E04
:10413000AA1BBB1BFD010DC0AA1FBB1FEE1FFF1F4B
:10414000A217B307E407F50720F0A21BB30BE40B9B
:10415000F50B661F771F881F991F1A9469F76095E2
:104160007095809590959B01AC01BD01CF0108959C
:10417000A29FB001B39FC001A39F700D811D1124A8
:10418000911DB29F700D811D1124911D0895DB01B9
:104190008F939F930E948320BF91AF91A29F800D28
:1041A000911DA39F900DB29F900D11240895991B0E
:1041B00079E004C0991F961708F0961B881F7A951E
:1041C000C9F78095089597FB072E16F4009407D041
:1041D00077FD09D00E94362107FC05D03EF490956A
:1041E00081959F4F0895709561957F4F0895EE0FCB
:1041F000FF1F881F8BBF0790F691E02D19940F9336
:10420000083090F0982F872F762F652F542F432F4B
:10421000322F22270850F4CF220F331F441F551F7F
:10422000661F771F881F991F0A95B2F70F9108958F
:1042300097FB10F8169400080F93083098F0085078
:10424000232F342F452F562F672F782F892F902D0E
:10425000F4CF0594979587957795679557954795EA
:10426000379527950A95AAF70F910895AA1BBB1BAE
:1042700051E107C0AA1FBB1FA617B70710F0A61B66
:10428000B70B881F991F5A95A9F780959095BC0187
:10429000CD0108955058BB27AA270E9462210C9493
:1042A00014200E94062038F00E940D2020F039F4DE
:1042B0009F3F19F426F40C9403200EF4E095E7FBDD
:1042C0000C94FD1FE92F0E94252058F3BA176207AE
:1042D00073078407950720F079F4A6F50C9447201E
:1042E0000EF4E0950B2EBA2FA02D0B01B901900111
:1042F0000C01CA01A0011124FF27591B99F0593F55
:1043000050F4503E68F11A16F040A22F232F342F9C
:104310004427585FF3CF469537952795A795F040EA
:104320005395C9F77EF41F16BA0B620B730B840BFF
:10433000BAF09150A1F0FF0FBB1F661F771F881FB7
:10434000C2F70EC0BA0F621F731F841F48F487950F
:1043500077956795B795F7959E3F08F0B0CF939501
:10436000880F08F09927EE0F9795879508950E947A
:10437000CB210C9414200E940D2058F00E9406209E
:1043800040F029F45F3F29F00C94FD1F51110C946B
:1043900048200C9403200E94252068F39923B1F350
:1043A000552391F3951B550BBB27AA27621773075B
:1043B000840738F09F5F5F4F220F331F441FAA1FEF
:1043C000A9F335D00E2E3AF0E0E832D091505040AB
:1043D000E695001CCAF72BD0FE2F29D0660F771F59
:1043E000881FBB1F261737074807AB07B0E809F03F
:1043F000BB0B802DBF01FF2793585F4F3AF09E3FC4
:10440000510578F00C94FD1F0C9448205F3FE4F3B5
:10441000983ED4F3869577956795B795F7959F5F06
:10442000C9F7880F911D9695879597F90895E1E052
:10443000660F771F881FBB1F621773078407BA07B1
:1044400020F0621B730B840BBA0BEE1F88F7E0950C
:1044500008950E9430226894B1110C944820089568
:104460000E942D2088F09F5798F0B92F9927B751B7
:10447000B0F0E1F0660F771F881F991F1AF0BA9508
:10448000C9F714C0B13091F00E944720B1E00895FF
:104490000C944720672F782F8827B85F39F0B93FF1
:1044A000CCF3869577956795B395D9F73EF49095BB
:1044B0008095709561957F4F8F4F9F4F08950F9313
:1044C0001F93CF93DF938230910510F482E090E048
:1044D000E0919909F0919A0920E030E0A0E0B0E085
:1044E000309719F140815181028113814817590792
:1044F000C8F08417950769F4109731F012960C9361
:10450000129713961C9327C00093990910939A0948
:1045100022C02115310519F04217530718F49A01EA
:10452000BD01EF01DF01F801DBCF21153105F9F005
:10453000281B390B2430310580F48A819B81611559
:10454000710521F0FB019383828304C090939A0943
:1045500080939909FE01329644C0FE01E20FF31FD9
:104560008193919322503109398328833AC0209155
:10457000970930919809232B41F42091030230913F
:1045800004023093980920939709209101023091F9
:1045900002022115310541F42DB73EB740910502C5
:1045A00050910602241B350BE0919709F091980970
:1045B000E217F307A0F42E1B3F0B2817390778F0FA
:1045C000AC014E5F5F4F2417350748F04E0F5F1F59
:1045D00050939809409397098193919302C0E0E02A
:1045E000F0E0CF01DF91CF911F910F910895CF930C
:1045F000DF93009709F481C0FC0132971382128285
:10460000A0919909B0919A09109781F42081318184
:10461000820F931F20919709309198092817390725
:1046200051F5F0939809E093970967C0ED0120E0F8
:1046300030E0CE17DF0740F44A815B819E014115CF
:104640005105F1F0EA01F5CFD383C2834081518156
:10465000840F951FC817D90759F488819981840F51
:10466000951F0296918380838A819B8193838283A5
:104670002115310529F4F0939A09E09399093DC079
:10468000E901FB83EA8349915991C40FD51FEC17C7
:10469000FD0761F480819181840F951F0296E901E5
:1046A00099838883828193819B838A83E0E0F0E011
:1046B00012968D919C911397009719F0FD01DC01E2
:1046C000F7CF8D919C9111979D012E5F3F4F820FE7
:1046D000931F20919709309198092817390769F499
:1046E000309729F410929A091092990902C0138206
:1046F0001282B0939809A0939709DF91CF91089502
:104700006F927F928F929F92AF92BF92CF92DF92E1
:10471000EF92FF920F931F93CF93DF93009789F44B
:10472000CB01DF91CF911F910F91FF90EF90DF9020
:10473000CF90BF90AF909F908F907F906F900C9490
:104740005F22FC01E60FF71F9C0122503109E2179E
:10475000F30708F4A9C0EC01D9010D911C91119740
:1047600006171707B0F00530110508F49BC0C80103
:1047700004978617970708F495C002501109061B85
:10478000170B019311936D937C93CF010E94F72235
:1047900089C05B01A01AB10A4C01800E911EA09144
:1047A0009909B0919A09612C712CE12CF12C109788
:1047B00009F446C08D919C911197A815B905B1F5E2
:1047C0006C0142E0C40ED11CCA14DB0478F14C0128
:1047D0008A189B08640142E0C40ED11C1296BC905A
:1047E00012971396AC91B5E0CB16D10440F0B2828B
:1047F000A38391828082D9016D937C9309C00E5F5F
:104800001F4F800F911FF90191838083EB2DFA2FA9
:10481000E114F10431F0D7011396FC93EE93129753
:1048200041C0F0939A09E09399093CC06816790653
:1048300008F43C017D0112960D90BC91A02DB7CFDC
:10484000809197099091980988169906E1F4661667
:104850007706C8F48091010290910202009741F41A
:104860008DB79EB74091050250910602841B950BAF
:10487000E817F907C8F4F0939809E0939709F9014C
:10488000718360830FC0CB010E945F227C0100977F
:1048900059F0A801BE010E946A24CE010E94F722AD
:1048A000C70104C0CE0102C080E090E0DF91CF914B
:1048B0001F910F91FF90EF90DF90CF90BF90AF903E
:1048C0009F908F907F906F90089581E090E0F89492
:1048D0000C947A24FB01DC0102C001900D9241503E
:1048E0005040D8F70895FB01DC0101900D920020A3
:1048F000E1F7089511E0C0E6D1E000E006C0802FA6
:10490000FE010E94F7202196011DC136D10780E0EB
:084910000807A9F7F894FFCF96
:10491800FF00009B0980000000400014005400368E
:104928003738391B1D1A1C00000000000000000069
:10493800000000000000000000000042757267657A
:1049480072000000000000000000000000000042AB
:1049580061636F6E20427572676572000000000027
:10496800000000436865657365204275726765726B
:10497800000000000000005365747570000000001E
:10498800000000000000000000000000000000001F
:10499800000000000000000000000000000000000F
:1049A80000000000000000000000000000000000FF
:1049B80000000043616C6962726174696F6E000087
:1049C80000000000000000416666696368657220A7
:1049D80076616C657572204D2E00004465627567BE
:1049E800696E670000000000000000000000005130
:1049F8007569746572000000000000000000000086
:104A0800000000000000000000000000000000009E
:104A18000000000000000000000000930F660FE592
:104A2800093A0F5E0F4A0F3B0F0000000046099F2E
:104A380008C9089309FA08D808EC0800000000EA39
:104A4800099F08E5099E08536572766F20616E67B5
:104A58006C65206973206F7574206F662072616EB3
:104A68006765210043616C69622E206475206E6F52
:104A7800697200436170313A00436170323A004311
:104A88006170333A0043616C69622E20647520625C
:104A98006C616E6300546872313A00546872323A3D
:104AA80000546872333A0043616C69622E2065666F
:104AB800666563747565002020003E3E000D0A009F
:00000001FF
