:100000000C9495010C94C6010C94C6010C94C60185
:100010000C94C6010C94C6010C94C6010C94C60144
:100020000C94C6010C948A110C948A110C948A11B8
:100030000C94C6010C94B10A0C94C6010C94C60130
:100040000C94C6010C94370F0C94C6010C94C60195
:100050000C94C6010C94C6010C94C6010C947F1834
:100060000C94C6010C94200C0C94F60B0C94C60155
:100070000C94C6010C94C6010C94C6010C94C601E4
:100080000C94C6010C94C6010C94C6010C94C601D4
:100090000C94C6010C94C6010C94C6010C949411E6
:1000A0000C94C6010C94C6010C94C6010C94C601B4
:1000B0000C94C6010C94C6010C94C6010C944A0C15
:1000C0000C94C6010C94C6010C94C6010C94CC0B84
:1000D0000C94A20B0C94C6010C94780B0C944E0B50
:1000E0000C94C601AD0DB20DB70DC10DCB0D440E74
:1000F000D50DDD0DE50DEF0DF90D030E120E1C0EE5
:10010000440E260E300E3A0E0A110D11FC1000118D
:1001100006114411111115111B111F112311291161
:100120002D113111441137113B113F110C943A0E2E
:100130000C941B110C941F110C94DB1E0C94EF0DEE
:100140000C947A090C940A110C94AD0D0C94030EC6
:100150000C942E090C9400110C941E0A0C94DD0DC5
:100160000C9465100C94B70D0C9493100C94CB0D5B
:100170000C94C0100C943F110C94FC100C941111B1
:100180000C941C0E0C943B110C94440E0C942D11E9
:100190000C94E50D0C940D110C94F90D0C94371181
:1001A0000C9429110C9431110C9423110C94D50D3D
:1001B0000C9444110C94B20D0C9477100C942009FB
:1001C0000C94300E0C9467100C9415110C94AA1E0C
:1001D0000C948B100C94D3080C94190A0C94FD0801
:1001E0000C9468100C94C10D0C94D2080C94120E4F
:1001F0000C94C7090C940C090C9466100C94260EF0
:100200000C9406110200002100240027002A002D72
:10021000003000330001010000040107010A010061
:10022000002200250028002B002E0031003400029F
:10023000010000050108010B010000200023002639
:100240000029002C002F00320000010000030106ED
:10025000010901050505050705080808080202024D
:10026000020A0A0808040404040101010101010151
:10027000010303030303030303040707070C0C0C28
:100280000C0C0C0C0C020202020606060606060600
:10029000060B0B0B0B0B0B0B0B010210202008089D
:1002A00010204010204080020102010804020101D8
:1002B00002040810204080804020100804020180C1
:1002C0000402018040201008040201080402010118
:1002D0000204081020408001020408102040800021
:1002E000000A0B02090C0D0E0807030401000000B0
:1002F00000000000000000000000000000000000FE
:1003000000000000000000000000001211100000BA
:1003100000000000000000000000000000000000DD
:10032000000000000000DB1EAA1E11241FBECFEF3C
:10033000D1E2DEBFCDBF00E00CBF13E0A0E0B2E031
:10034000E4E9FCE400E00BBF02C007900D92AE3977
:10035000B107D9F729E0AEE9B3E001C01D92A93891
:10036000B207E1F711E0C4E9D1E000E006C021974F
:100370000109802FFE010E94C422C339D10780E009
:100380000807A9F70E94C9180C9438260C9400009D
:100390002F923F924F925F926F927F928F929F9295
:1003A000AF92BF92CF92DF92EF92FF920F931F9383
:1003B000CF93DF9300D000D0CDB7DEB78DE596E0C8
:1003C000909377098093760980915A0690E09093F4
:1003D0007909809378098091270790E090937B09B1
:1003E00080937A0980915606853009F0ADC68091D8
:1003F0005F0690916006885891098D35910588F4C3
:1004000080915A06843041F4809161069091620691
:100410008097479708F4D7C080915A06843408F033
:10042000B9C080915A068A3108F420C180915D06D6
:1004300090915E06843F914080F41092750910926D
:1004400074098FEF9FEFDC0180937009909371091D
:10045000A0937209B093730946C080915F06909192
:10046000600685974B9708F001C1E3E6F6E082E06D
:1004700090E040E050E0BA018C010F5F1F4F2091E7
:100480005A0630E0021713076CF49F01225031091D
:10049000D9012D913C91275031092730310508F4BD
:1004A000CAC0C80101979595879590937509809367
:1004B00074090C972CF41092750910927409D6C027
:1004C0004093700950937109609372097093730996
:1004D00084E090E015C040937009509371096093D7
:1004E0007209709373098BE090E00AC04093700921
:1004F0005093710960937209709373098CE090E0D6
:1005000090936D0980936C0982E080935606109257
:100510005A06409170095091710960917209709169
:100520007309463CFFEC5F07F4E06F07F6E67F07D0
:1005300029F14A3F2FEC520724E0620726E67207B2
:1005400001F1463D8FEC580784E0680786E678079E
:10055000D9F0463E9FEC590794E0690796E6790783
:10056000B1F081E090E0463F5F4C6440764611F484
:1005700080E090E0919581959109FBC581E090E044
:10058000F8C582E090E0F5C583E090E0F2C584E034
:1005900090E0EFC5809161069091620682549109C6
:1005A0008E9708F03ECF20E030E080E090E0DC0164
:1005B000F901ED59F94F40815181495051094930B4
:1005C000510588F02ECF80916306909164060997BB
:1005D000099708F021CF10927509109274098FEFD6
:1005E0009FEFDC01B5C5F901EB59F94F408151810D
:1005F000475151094231510588F4880F991FAA1FAC
:10060000BB1F81602C5F3F4F2038310589F620E207
:1006100030E030937509209374099AC54081518167
:10062000465051094730510508F0FBCE880F991FFD
:10063000AA1FBB1FE7CF20813181235131092F3001
:10064000310540F4440F551F661F771F4160029625
:10065000349612CF208131812A5031092930310559
:1006600028F4440F551F661F771FF1CF80915A065B
:100670008A3108F45EC080915D0690915E068032FA
:10068000934008F4DACE80915F0690916006C69799
:10069000869708F04EC08091610690916206C697D9
:1006A000869708F046C0E5E6F6E083E090E040E09B
:1006B00050E0BA018C010F5F1F4F20915A0630E0C5
:1006C0000217130764F49F0122503109D9012D91BB
:1006D0003C912C5031092B30310580F0C801019735
:1006E0009595879590937509809374090C970CF0F4
:1006F000F2CE10927509109274091BC020813181CD
:10070000255231092B31310540F4440F551F661F26
:10071000771F416002963496CDCF208131812C50D5
:1007200031092A30310528F4440F551F661F771F01
:10073000F1CF80915A06823208F44DC080915F0655
:10074000909160060697079708F045C0E3E6F6E04B
:1007500082E090E040E050E0BA018C010F5F1F4F53
:1007600020915A0630E002171307C4F4DF011297F4
:100770002D913C9111972E51310927313105E8F423
:10078000440F551F661F771F4160208131813496C9
:100790002350310925303105E0F0C80101979595C6
:1007A0008795909375098093740940970CF09ECEBD
:1007B00010927509109274090EC02D913C912C5025
:1007C00031092B30310538F4440F551F661F771F50
:1007D000DCCF0296C2CF1C821B8281E090E09A831C
:1007E000898380915A068D3078F41C821B8281E0C7
:1007F00090E09A83898380917809909179091816FD
:1008000019060CF46CC0C3C049E753E0BE016D5F2C
:100810007F4FCE0101960E948616892B31F749E75A
:1008200053E0BE016D5F7F4FCE0101960E94861698
:100830000197D9F649E753E0BE016D5F7F4FCE01C6
:1008400001960E948616892B81F6C12CD12C760147
:1008500000E010E080915A0690E029813A81281743
:10086000390774F549E753E0BE016D5F7F4FCE0154
:1008700001960E9486165C0149E753E0BE016D5F58
:100880007F4FCE0101960E948616B1E0AB16B104EF
:1008900051F4892B09F0A9CFCC0CDD1CEE1CFF1CF8
:1008A0006894C0F80AC0AB2809F09FCF019709F0FF
:1008B0009CCFCC0CDD1CEE1CFF1C0F5F1F4FCACF62
:1008C0001093750900937409C0927009D092710950
:1008D000E0927209F092730981E090E011CEE0910C
:1008E0007609F091770982E090E09A83898382818A
:1008F000938189974E9708F04AC083E090E09A83ED
:100900008983848195810B970A9708F040C04CEB4E
:1009100051E0BE016D5F7F4FCE0101960E948616A9
:10092000892BA9F54CEB51E0BE016D5F7F4FCE01E5
:1009300001960E948616019751F5C12CD12C7601A3
:1009400000E010E0209178093091790989819A813D
:10095000821793070CF026C14CEB51E0BE016D5F8E
:100960007F4FCE0101960E9486165C01033011056F
:1009700009F0E2C04CEB51E0BE016D5F7F4FCE014C
:1009800001960E948616A816B90609F4D5C0E09112
:100990007609F091770982819381C6978697E0F472
:1009A000848195814B974597B8F4DF0116967F01B6
:1009B00026ECE20EF11C20E030E040E050E060E088
:1009C00070E080E090E00D911C91119709501109A1
:1009D0000830110508F4F5C080915A06893370F18A
:1009E00082819381895791098335910508F425C146
:1009F00025C0D90112966D917C91139766517109AA
:100A00006131710508F045C1D701C601880F991FF2
:100A1000AA1FBB1F6C017D016894C0F84E5F5F4F39
:100A20002C5F3F4F4B33510509F416C1D9016D912D
:100A30007C916A50710969307105D8F280915A062B
:100A4000823231F4828193810A97099708F431C187
:100A5000828193818957910983359105D0F48091E2
:100A60005A068132B0F084819581CA97899788F4BB
:100A70009F012A5F3F4FC12CD12C760143E050E00B
:100A8000D9016D917C916A5071096930710508F442
:100A90002FC1828193818C549109C59778F48091FC
:100AA0005A06843031F4848195818097479708F401
:100AB0007FC180915A06843408F061C180915A0642
:100AC000863460F1828193810C970B9708F4BEC144
:100AD00025C0D90112966D917C9113976E517109C1
:100AE0006731710508F0EAC1D701C601880F991F67
:100AF000AA1FBB1F6C017D016894C0F84E5F5F4F59
:100B00002C5F3F4F4534510509F4BBC1D9016D91AC
:100B10007C916C5071096B307105D8F280915A0646
:100B2000883508F433C282819381855891098B35C9
:100B3000910508F4D3C12AC24CEB51E0BE016D5FB0
:100B40007F4FCE0101960E9486164C01033011059D
:100B500069F44CEB51E0BE016D5F7F4FCE01019611
:100B60000E9486168816990609F011CFA114B104C7
:100B700059F48A94892809F00ACFCC0CDD1CEE1CAC
:100B8000FF1C6894C0F80BC0AA94AB2809F0FFCEF4
:100B9000892809F0FCCECC0CDD1CEE1CFF1C0F5F7D
:100BA0001F4FD0CE1093750900937409C09270093D
:100BB000D0927109E0927209F092730982E090E09C
:100BC0009FCC12960D911C911397015111090D3074
:100BD000110528F501E00E94CC2221601496AE1583
:100BE000BF0509F0F0CE209370093093710940934E
:100BF00072095093730900E20E94E72220936E0964
:100C000030936F0985E090E090936D0980936C09B3
:100C100080E390E0909375098093740975CC1296E7
:100C20000D911C911397045011090530110508F01E
:100C3000D3CE01E00E94CC22D1CF84819581CA9786
:100C4000899708F0FBCE9F012A5F3F4FC12CD12C22
:100C5000760143E050E0EACE9F012A583F4FD90188
:100C60002D913C912A5031092930310508F0E6CE0A
:100C70002CE130E03093750920937409C09270091B
:100C8000D0927109E0927209F09273098AE090E0C3
:100C900037CCD90112966D917C91139766507109EA
:100CA0006730710508F0CACECC0CDD1CEE1CFF1CB1
:100CB000B5CE20915A06CF01820F911D820F911D52
:100CC000DC0112978D919C910A97099708F0C0CE8C
:100CD00010927509109274098FEF9FEFDC018093D9
:100CE000700990937109A0937209B09373093BC284
:100CF000D90112966D917C911397665171096131FA
:100D0000710568F5D701C601880F991FAA1FBB1F7F
:100D10006C017D016894C0F84E5F5F4F2C5F3F4FC0
:100D20004332510509F0ACCE9F012A5B3F4FD901F8
:100D30002D913C912A5031092930310508F0A9CE76
:100D400020E130E03093750920937409C092700956
:100D5000D0927109E0927209F092730904C2D9012C
:100D600012966D917C9113976650710967307105E9
:100D700008F08FCECC0CDD1CEE1CFF1CCDCF848187
:100D8000958189549109C39708F098CE9F012A5FF5
:100D90003F4FBF016A577F4FC12CD12C7601D9013B
:100DA0004D915C914950510949305105B8F086CEBA
:100DB000868197810997099708F07BCE1092750973
:100DC000109274098FEF9FEFDC018093700990936C
:100DD0007109A0937209B0937309C8C1D901129621
:100DE0004D915C9113974651510941315105F0F4F1
:100DF000D701C601880F991FAA1FBB1F6C017D0177
:100E00006894C0F82C5F3F4F2617370741F620E261
:100E100030E03093750920937409C0927009D09224
:100E20007109E0927209F0927309A0C1D90112967A
:100E30004D915C911397465051094730510508F088
:100E40003DCECC0CDD1CEE1CFF1CDCCF84819581DB
:100E50000997099708F062CE868197818C974F9702
:100E600008F05CCE8085918589974D9708F056CE25
:100E70009F01265F3F4FC12CD12C760145E050E009
:100E800045CE9F0126573F4FD9012D913C912C50C3
:100E900031092B30310508F041CE20E230E03093AB
:100EA000750920937409C0927009D0927109E0927B
:100EB0007209F092730988E090E022CBD901129672
:100EC0006D917C911397695071096930710508F033
:100ED00025CECC0CDD1CEE1CFF1C10CE8481958130
:100EE000825491098E9708F051C08F01045C1F4F06
:100EF0008DE190E040E050E020915A0630E024502F
:100F0000310982179307ACF4980122503109D901B5
:100F10002D913C91295031092830310510F136C00E
:100F2000D8012D913C91285131092231310558F1D8
:100F3000CB010197959587959093750980937409D6
:100F40008A9724F1052E000C660B770B40937009ED
:100F500050937109609372097093730989E090E06E
:100F6000CFCABC016F5F7F4FD8012D913C912750B4
:100F7000310927303105A0F6440F551F4160029614
:100F80000C5F1F4FB9CF440F551FF9CF80915A0600
:100F90008032E1F48281938106970697B8F48481C8
:100FA00095810997099790F49F012A5F3F4FBF01F0
:100FB000625C7F4FC12CD12C7601D9014D915C919F
:100FC000465051094630510508F47EC08091780999
:100FD000909179099E838D8306970CF4B0C08F01A0
:100FE0000E5F1F4F75ECC72E7DE9D72E7CE1E72EF3
:100FF00071E8F72EE3E02E2E312CD80114966D9176
:101000007C911597AD90BC9080E090E00E941021FB
:101010002B013C01B50180E090E00E9410214B01C2
:101020005C012DEC3CEC4CE45FE30E9471219B01E0
:10103000AC01C301B2010E940B2187FD17C02DEC4A
:101040003CEC4CE45FE3C301B2010E9471219B01BF
:10105000AC01C501B4010E940B21E82F880FFF0BE2
:10106000EE27FF0FEE1FFF27319602C0E0E0F0E011
:10107000A701960163E971E080E091E00E94A82257
:101080006F01FF0FEE08FF08C626D726E826F926CF
:10109000BFEF2B1A3B0A0E5F1F4FED81FE81E21559
:1010A000F30509F0AACFC0927009D0927109E092BD
:1010B0007209F092730980E290E090937509809331
:1010C00074098FEF9FEF1CCAD90112964D915C9164
:1010D0001397495151094331510508F5D701C6010C
:1010E000880F991FAA1FBB1F6C017D016894C0F86F
:1010F0002C5F3F4F2617370709F05FCF2EE030E017
:101100003093750920937409C0927009D0927109C7
:10111000E0927209F09273098FE090E0F1C9D90171
:1011200012964D915C9113974950510949305105E0
:1011300008F04CCFCC0CDD1CEE1CFF1CD9CF82E09C
:101140008093560610925A0640E050E0BA0109CA50
:101150008093700990937109A0937209B0937309F9
:1011600083E090E0CDC986E090E0CAC987E090E0D6
:10117000C7C926960FB6F894DEBF0FBECDBFDF916C
:10118000CF911F910F91FF90EF90DF90CF90BF9084
:10119000AF909F908F907F906F905F904F903F9017
:1011A0002F9008950895CF92DF92EF92FF920F93C0
:1011B0001F93CF93DF936C017A018B01C0E0D0E0E5
:1011C000CE15DF0581F0D8016D918D01D601ED912D
:1011D000FC910190F081E02DC6011995892B11F049
:1011E0002196EECF7E01C701DF91CF911F910F9124
:1011F000FF90EF90DF90CF900895FC01538D448DC8
:10120000252F30E0842F90E0821B930B541710F0B1
:10121000CF96089501970895FC01918D828D9817BE
:1012200061F0828DDF01A80FB11D5D968C91928DCA
:101230009F5F9F73928F90E008958FEF9FEF0895C7
:10124000FC01918D828D981731F0828DE80FF11D90
:10125000858D90E008958FEF9FEF0895FC01918DAB
:10126000228D892F90E0805C9F4F821B91098F73A4
:10127000992708958FE794E00E942E0921E0892B99
:1012800009F420E0822F08958CE195E00E942E0958
:1012900021E0892B09F420E0822F089589EB95E065
:1012A0000E942E0921E0892B09F420E0822F089565
:1012B000FC01848DDF01A80FB11DA35ABF4F2C91F3
:1012C000848D90E001968F739927848FA689B789C2
:1012D0002C93A089B1898C91837080648C93938DB9
:1012E000848D981306C00288F389E02D80818F7D5C
:1012F00080830895EF92FF920F931F93CF93DF9314
:10130000EC0181E0888F9B8D8C8D981305C0E88956
:10131000F989808185FD26C0F62E0B8D10E00F5FC8
:101320001F4F0F731127E02E8C8DE8120CC00FB6E3
:1013300007FCFACFE889F989808185FFF5CFCE01D6
:101340000E945809F1CF8B8DFE01E80FF11DE35A81
:10135000FF4FF0829FB7F8940B8FEA89FB89808159
:1013600080620AC09FB7F894EE89FF896083E8899C
:10137000F98980818370806480839FBF81E090E0E1
:10138000DF91CF911F910F91FF90EF900895CF9330
:10139000DF93EC01888D8823C9F0EA89FB8980817D
:1013A00085FD05C0A889B9898C9186FD0FC00FB64F
:1013B00007FCF5CF808185FFF2CFA889B9898C9190
:1013C00085FFEDCFCE010E945809E7CFDF91CF9185
:1013D0000895E0E0F0E0199480E090E0892B21F09E
:1013E0000E944E09811119C080E090E0892B41F0E4
:1013F00080E090E0892B21F00E940000811110C054
:101400000E94440981110FC080E090E0892B81F097
:101410000E943A0981110AC008950E940000E4CF99
:101420000E940000EDCF0E94E909EECF0C9400006D
:10143000089580E090E008950E94232641E00E94F4
:101440001D1681E090E008950F931F93CF93DF93D3
:10145000EC0188819981009729F02A813B81261728
:10146000370788F48B016F5F7F4F0E943E250097FE
:1014700061F0998388831B830A832C813D81232B10
:1014800011F4FC01108281E001C080E0DF91CF9176
:101490001F910F910895EF92FF920F931F93CF9397
:1014A000DF93EC017B018A01BA010E94240A2881A2
:1014B000398181110DC02115310519F0C9010E9432
:1014C000B524198218821D821C821B821A8206C0D2
:1014D0001D830C83B701C9010E943126CE01DF9123
:1014E000CF911F910F91FF90EF900895CF93DF93CD
:1014F000EC016115710559F0FB0101900020E9F73D
:101500003197AF01461B570B0E944B0A0CC08881D4
:101510009981009711F00E94B524198218821D82CA
:101520001C821B821A82CE01DF91CF910895FC01AB
:10153000808191810C94B524FC0111821082138268
:101540001282158214826115710551F0FB01019020
:101550000020E9F73197AF01461B570B0C944B0A5B
:1015600008951F920F920FB60F9211240BB60F928F
:101570002F933F934F935F936F937F938F939F939B
:10158000AF93BF93EF93FF938091BA039091BB0306
:10159000A091BC03B091BD03892B8A2B8B2B49F101
:1015A0009091B90380910000892780930000809179
:1015B000BA039091BB03A091BC03B091BD03181670
:1015C00019061A061B060CF056C08091BA039091BA
:1015D000BB03A091BC03B091BD030197A109B10960
:1015E0008093BA039093BB03A093BC03B093BD0355
:1015F00042C080910002E4E0F2E0E4919FEF90931A
:101600000002E230C9F050F4EE2399F0E13081F5A8
:1016100090916F009D7F90936F002AC0E43019F184
:10162000E0F0E53029F5909173009D7F9093730071
:101630001FC010926E001CC0909170009D7F90930F
:10164000700091E09093B0009091B100987F946009
:101650009093B1001092B3000BC0909171009D7FE8
:101660009093710005C0909172009D7F90937200DD
:1016700060E00E94EF12FF91EF91BF91AF919F91B7
:101680008F917F916F915F914F913F912F910F902B
:101690000BBE0F900FBE0F901F9018951F920F92C8
:1016A0000FB60F9211240BB60F922F933F934F93C7
:1016B0005F936F937F938F939F93AF93BF93EF93BA
:1016C000FF938FE794E00E945809FF91EF91BF913B
:1016D000AF919F918F917F916F915F914F913F91CA
:1016E0002F910F900BBE0F900FBE0F901F9018956B
:1016F0001F920F920FB60F9211240BB60F922F93D9
:101700003F934F935F936F937F938F939F93AF9389
:10171000BF93EF93FF938FE794E00E947111FF91C5
:10172000EF91BF91AF919F918F917F916F915F9159
:101730004F913F912F910F900BBE0F900FBE0F90C6
:101740001F9018951F920F920FB60F9211240BB68F
:101750000F922F933F934F935F936F937F938F934A
:101760009F93AF93BF93EF93FF938CE195E00E941B
:101770005809FF91EF91BF91AF919F918F917F9108
:101780006F915F914F913F912F910F900BBE0F90F2
:101790000FBE0F901F9018951F920F920FB60F92C9
:1017A00011240BB60F922F933F934F935F936F9338
:1017B0007F938F939F93AF93BF93EF93FF938CE1AE
:1017C00095E00E947111FF91EF91BF91AF919F91B0
:1017D0008F917F916F915F914F913F912F910F90DA
:1017E0000BBE0F900FBE0F901F9018951F920F9277
:1017F0000FB60F9211240BB60F922F933F934F9376
:101800005F936F937F938F939F93AF93BF93EF9368
:10181000FF9389EB95E00E945809FF91EF91BF91EA
:10182000AF919F918F917F916F915F914F913F9178
:101830002F910F900BBE0F900FBE0F901F90189519
:101840001F920F920FB60F9211240BB60F922F9387
:101850003F934F935F936F937F938F939F93AF9338
:10186000BF93EF93FF9389EB95E00E947111FF9175
:10187000EF91BF91AF919F918F917F916F915F9108
:101880004F913F912F910F900BBE0F900FBE0F9075
:101890001F9018951F920F920FB60F9211240BB63E
:1018A0000F922F933F934F935F936F937F938F93F9
:1018B0009F93AF93BF93EF93FF93809157060E943E
:1018C000C61220915B0630915C062F5F3F4F30932C
:1018D0005C0620935B0690915A06953618F096E0C8
:1018E00090935606909156069430C9F128F49230A0
:1018F00069F09330D1F05EC0953009F451C0963054
:1019000009F058C091E09093270751C0811152C04F
:1019100020915B0630915C062436310508F442C004
:101920001092270710925A061CC0813009F042C05D
:10193000E0915A0691E09E0F90935A06F0E02091B4
:101940005B0630915C06EE0FFF1FEA5AF94F3087B5
:10195000278310925C0610925B0694E029C08111E7
:1019600017C0E0915A0691E09E0F90935A06F0E05E
:1019700020915B0630915C06EE0FFF1FEA5AF94F8B
:101980003087278310925C0610925B0693E010C0AC
:1019900020915B0630915C062536310558F007C072
:1019A000811108C010925C0610925B0603C095E09E
:1019B00090935606909159069923B9F081110AC067
:1019C00080915806882321F08091580661E009C073
:1019D0002F9A0BC080915806882331F080915806C9
:1019E00060E00E94EF1201C02F98FF91EF91BF912C
:1019F000AF919F918F917F916F915F914F913F91A7
:101A00002F910F900BBE0F900FBE0F901F90189547
:101A1000CF92DF92EF92FF92CF93DF93EC01072EEC
:101A2000000C880B990B0E9412216B017C0120E0B5
:101A300030E040E45FE30E94712120E030E048E4C0
:101A400052E40E9470230E94E223C617D707D4F005
:101A500020E030E040EA5FE3C701B6010E94712157
:101A600020E030E048E452E40E94702320E030E0BF
:101A700040E85FE30E9404230E94E22321E06C1708
:101A80007D070CF420E0822F90E0DF91CF91FF9052
:101A9000EF90DF90CF9008958F929F92AF92BF9278
:101AA000CF92DF92EF92FF920F931F93CF93DF932A
:101AB0008C016A017B0120E030E04FE753E4C7016D
:101AC000B6010E9471214B015C0120E030E0A901C8
:101AD0000E94182418161CF4C501B40103C0C501E6
:101AE000B40190580E94E223EB0120E030E0A9010C
:101AF000C701B6010E941824181614F460E001C052
:101B000061E0F80181810E94EF12CF3FD10509F019
:101B100014F4DD2702C0CFEFD0E0F801108161E0BE
:101B2000812F0E945013209709F4B1C0CF3FD105F7
:101B300009F4AFC0E12FF0E0E152FD4FE4918E2FA8
:101B400090E0FC013197E231F10508F09DC0882753
:101B5000EE58FF4F8F4F0C94C42284B5806884BD2B
:101B6000C7BDA7C084B5806284BDC8BDA2C0809136
:101B70008000806880938000D0938900C0938800A3
:101B800098C080918000806280938000D0938B0009
:101B9000C0938A008EC0809180008860809380000E
:101BA000D0938D00C0938C0084C08091B000806879
:101BB0008093B000C093B3007CC08091B00080627D
:101BC0008093B000C093B40074C08091900080688E
:101BD00080939000D0939900C09398006AC0809140
:101BE0009000806280939000D0939B00C0939A00F5
:101BF00060C080919000886080939000D0939D0099
:101C0000C0939C0056C08091A00080688093A00083
:101C10008091A0008F7B8093A000D093A900C093F7
:101C2000A80047C08091A00080628093A000D0935C
:101C3000AB00C093AA003DC08091A0008860809353
:101C4000A000D093AD00C093AC0033C080912001C0
:101C5000806880932001D0932901C093280129C076
:101C600080912001806280932001D0932B01C0934A
:101C70002A011FC080912001886080932001D093A9
:101C80002D01C0932C0115C0C038D10514F460E0BB
:101C900001C061E0812FDF91CF911F910F91FF90E3
:101CA000EF90DF90CF90BF90AF909F908F900C946B
:101CB000EF12DF91CF911F910F91FF90EF90DF9086
:101CC000CF90BF90AF909F908F900895CF92DF926A
:101CD000EF92FF92CF93DF93FC01C081CC3008F0EC
:101CE00064C0D0E085E08C9FF0018D9FF00D112441
:101CF000E85DF84F838128E830E06901C81AD1080F
:101D000087FDD394CC0CDD1CCC0CDD1C683C71052C
:101D10003CF50D2C000CEE08FF08848128E532E02C
:101D2000281B310987FD3395220F331F220F331FE4
:101D3000C901330FAA0BBB0B9C01AD012C193D0946
:101D40004E095F09DB010E946F2224EB30E040E086
:101D500050E00E944522C20ED31EE41EF51E13C0A1
:101D60006C157D0584F0248188E592E0821B910941
:101D700027FD9395880F991F880F991F6B01861770
:101D800097070CF46C018FB7F89495E09C9FF001D5
:101D90009D9FF00D1124E85DF84F96E0C91AD10817
:101DA000CC0CDD1CD282C1828FBFDF91CF91FF901E
:101DB000EF90DF90CF9008951F93CF93DF93EC01C6
:101DC000162F88818C3008F04DC061E0812F0E9471
:101DD0005013E88195E09E9FF0011124E85DF84FD3
:101DE0001F738081807C182B10831382E8819E9F53
:101DF000F0011124E85DF84F148288816CE00E94A4
:101E0000B8229CE0899FA001112420E030E095E0F9
:101E1000BA01620F731F969FF001979FF00D112476
:101E2000E85DF84F608166FD13C02F5F3F4F2C3097
:101E3000310571F781110CC01092800082E080930F
:101E40008100109285001092840086BB80936F0001
:101E5000E88185E0E89FF0011124E85DF84F80817A
:101E6000806480838881DF91CF911F9108951F92B4
:101E70000F920FB60F9211240BB60F922F933F9330
:101E80004F935F936F937F938F939F93AF93BF9382
:101E9000EF93FF938091B80387FF05C010928500F0
:101EA0001092840016C02091B803022E000C330B50
:101EB0008091640790E0281739075CF43091B803EB
:101EC00025E03203F0011124E85DF84F808186FDA2
:101ED00015C08091B8038F5F8093B8032091B80339
:101EE000022E000C330B8091640790E0281739070D
:101EF00094F48091B8038C302CF10DC03091B8036C
:101F00003203F0011124E85DF84F808160E08F73A7
:101F10000E94EF12DECF809184009091850084347E
:101F20009C4918F480E49CE905C08091840090915C
:101F30008500049690938900809388008FEF8093AA
:101F4000B8032AC040918400509185003091B803B5
:101F500025E03203F0011124E85DF84F8181928180
:101F6000840F951F90938900809388003091B80367
:101F70003203F0011124E85DF84F808186FF0CC028
:101F80003091B8033203F0011124E85DF84F8081ED
:101F900061E08F730E94EF12FF91EF91BF91AF91BB
:101FA0009F918F917F916F915F914F913F912F9171
:101FB0000F900BBE0F900FBE0F901F9018958EBD07
:101FC00000000DB407FEFDCF8EB50895CF93DF93CB
:101FD000CDB7DEB728970FB6F894DEBF0FBECDBFE2
:101FE0009C0188E0E7E0F2E0DE01119601900D929D
:101FF0008A95E1F7F9018085841710F44FEF480FB7
:10200000FE013196E40FF11DE40FF11D9081690F7F
:10201000606840E0C90128960FB6F894DEBF0FBE95
:10202000CDBFDF91CF910C941D16CF93DF93EC01C0
:1020300040E061E00E941D168BE39FE10197F1F7FC
:102040008985882339F040E060E0CE01DF91CF91AF
:102050000C94E60FDF91CF910895809172089091D2
:1020600073080C94151085ED8093BC008091BC0022
:1020700084FDFCCF10924F04089540910204262F56
:1020800030E0240F311D21323105DCF420914F0462
:102090002430C9F4FC0180E090E0861758F43091B8
:1020A00002042191DC01A052BC4FA30FB11D2C935F
:1020B0000196F3CF80910204680F6093020480E0E0
:1020C000089581E0089582E008950895089508959F
:1020D000E091DF038091DE03E81730F4F0E0E25492
:1020E000FC4F808190E008958FEF9FEF08959091CD
:1020F000DF038091DE03981750F4E92FF0E0E254FB
:10210000FC4F208130E09F5F9093DF0302C02FEFF0
:102110003FEFC90108958091DE0390E02091DF0335
:10212000821B91090895CF92DF92EF92FF920F9355
:102130001F93CF93DF937C01CB018A012091500440
:10214000222389F0EB016B01C40ED51ECC15DD05F1
:1021500069F06991D701ED91FC910190F081E02D3A
:10216000C7011995F3CF642F0E943D10C801DF917C
:10217000CF911F910F91FF90EF90DF90CF90089536
:10218000CF93DF931F92CDB7DEB7698320915004C0
:102190002223D1F020917204203240F021E030E07F
:1021A000FC013383228380E090E015C080915104CC
:1021B000E82FF0E0EE5AFB4F998190838F5F809378
:1021C00051048093720405C061E0CE0101960E9423
:1021D0003D1081E090E00F90DF91CF91089590E065
:1021E000FC013197E231F10508F04EC08827EC5729
:1021F000FF4F8F4F0C94C422809180008F7703C0D3
:10220000809180008F7D8093800008958091800070
:10221000877FF9CF84B58F7702C084B58F7D84BD69
:1022200008958091B0008F7703C08091B0008F7DBA
:102230008093B0000895809190008F7707C08091BF
:1022400090008F7D03C080919000877F80939000E5
:1022500008958091A0008F7707C08091A0008F7DA6
:1022600003C08091A000877F8093A0000895809193
:1022700020018F7707C0809120018F7D03C080915E
:102280002001877F8093200108950F931F93CF93A0
:10229000DF93CDB7DEB762970FB6F894DEBF0FBEFF
:1022A000CDBF8C01CB01F801118210821382128202
:1022B000158214824AE0BE016F5F7F4F0E94D620D4
:1022C000BE016F5F7F4FC8010E94760A62960FB60B
:1022D000F894DEBF0FBECDBFDF91CF911F910F915C
:1022E0000895FC01A089B1898C91A689B78982FDE6
:1022F0000FC09C91818D8F5F8F73228D821749F063
:10230000218DDF01A20FB11D5D969C93818F0895F1
:102310008C9108951F920F920FB60F9211240F9077
:102320000FBE0F901F9018951F920F920FB60F922D
:1023300011240BB60F922F933F934F935F936F939C
:102340007F938F939F93AF93BF93EF93FF9380916E
:10235000B900887F803609F49CC068F5883209F49A
:102360005BC090F4803109F454C038F4882309F438
:10237000F6C0883009F44DC0F6C0883109F44CC06D
:10238000803209F45DC0EFC0803409F468C048F4BD
:10239000803309F455C0883309F0E5C080934D04BB
:1023A000D8C0803509F44FC0883509F45DC0883441
:1023B00009F0D9C0D6C0883909F4C7C0A8F4883755
:1023C00009F467C038F4883609F463C0803709F42B
:1023D00060C0C9C0883809F4B8C0803909F45FC04A
:1023E000803809F0C0C05BC0803B09F486C038F477
:1023F000803A09F466C0883A09F47FC0B4C0803CD2
:1024000009F4A7C0883C09F4A4C0883B09F48AC039
:10241000AAC080912A0410C090914C0480914B0472
:10242000981770F5E0914C0481E08E0F80934C0476
:10243000F0E0E55DFB4F80818093BB0085EC86C0BA
:1024400080934D048EC0E0914C0481E08E0F809308
:102450004C048091BB00F0E0E55DFB4F80839091E0
:102460004C0480914B046EC0E0914C0481E08E0FCF
:1024700080934C048091BB00F0E0E55DFB4F8083CE
:1024800080914E0481116DC081E08093290484EA1B
:1024900061C083E080934F0410922604CFCF8091D7
:1024A0002604803208F051C0E091260481E08E0FAE
:1024B000809326048091BB00F0E0EA5FFB4F8083AD
:1024C000BDCF85EC8093BC0010924F048091260410
:1024D000803230F4E0912604F0E0EA5FFB4F108296
:1024E0006091260470E0E0910404F091050486E018
:1024F00094E019951092260436C084E080934F042E
:102500001092030410920204E0910004F09101047F
:10251000199580910204811105C081E08093020425
:102520001092E003E091030481E08E0F8093030496
:10253000F0E0E052FC4F80818093BB009091030457
:1025400080910204981708F479CF85E88093BC0045
:102550000AC085EC8093BC0010924F0404C0109216
:102560004D040E943310FF91EF91BF91AF919F9165
:102570008F917F916F915F914F913F912F910F902C
:102580000BBE0F900FBE0F901F901895CF93DF9347
:10259000282F30E0F901E152FD4F8491F901E7560F
:1025A000FD4FD491F901ED5AFD4FC491CC2391F028
:1025B00081110E94EF10EC2FF0E0EE0FFF1FE75C9F
:1025C000FD4FA591B491EC91ED2381E090E021F4D1
:1025D00080E002C080E090E0DF91CF9108951F93EA
:1025E000CF93DF93282F30E0F901E152FD4F849122
:1025F000F901E756FD4FD491F901ED5AFD4FC49111
:10260000CC23C1F0162F81110E94EF10EC2FF0E0C7
:10261000EE0FFF1FE15EFD4FA591B4919FB7F894B7
:10262000111104C08C91D095D82302C0EC91DE2BFF
:10263000DC939FBFDF91CF911F9108951092DF032C
:102640001092DE03109251041092720410924F0403
:1026500081E080934E041092290461E084E10E949D
:10266000EF1261E085E10E94EF12E9EBF0E080817A
:102670008E7F808380818D7F808388E48093B80003
:1026800085E48093BC0085E690E1909301048093FB
:10269000000486E690E19093050480930404089575
:1026A000CF93DF9390E0FC01E756FD4F2491FC01AE
:1026B000ED5AFD4F8491882361F190E0880F991FB6
:1026C000FC01EB5FFD4FC591D491FC01E15EFD4F34
:1026D000A591B491611109C09FB7F89488812095A4
:1026E00082238883EC912E230BC0623061F49FB764
:1026F000F8948881322F309583238883EC912E2B98
:102700002C939FBF06C08FB7F894E8812E2B2883A7
:102710008FBFDF91CF910895863308F08653909153
:102720007B00282F2870977F922B90937B008770D7
:10273000806480937C0080917A00806480937A002A
:1027400080917A0086FDFCCF8091780020917900FD
:1027500090E0922B0895CF93DF9382E40E948C1334
:1027600031E020E040915E0850915F08481759071A
:102770000CF430E0C32FD22F81E40E948C132091FF
:102780005C0830915D08281739070CF022968FE31A
:102790000E948C1320915A0830915B082817390742
:1027A0000CF02496CE01DF91CF9108958F929F92E5
:1027B000AF92BF92CF92DF92EF92FF926B017C01BA
:1027C0000E945A184B015C01C114D104E104F104C8
:1027D000F1F00E945A18DC01CB0188199909AA0965
:1027E000BB09883E9340A105B10570F321E0C21AF0
:1027F000D108E108F10888EE880E83E0981EA11C3C
:10280000B11CC114D104E104F10419F7DDCFFF902C
:10281000EF90DF90CF90BF90AF909F908F900895F2
:102820001F93CF93DF9300D000D0CDB7DEB7809158
:102830006507811172C00E942D1080E00E9434163D
:1028400065E973E0CE0101960E949C0ACE010196D3
:102850000E943118CE0101960E94970A8091660766
:1028600090916707019714E1189FB001199F700DAF
:1028700011246859784FCE0101960E949C0ACE011E
:1028800001960E943118CE0101960E94970A81E0BC
:102890000E94341668E973E0CE0101960E949C0AFA
:1028A000CE0101960E943118CE0101960E94970A2E
:1028B0008091660790916707189FB001199F700D6E
:1028C00011246859784FCE0101960E949C0ACE01CE
:1028D00001960E943118CE0101960E94970A82E06B
:1028E0000E94341665E973E0CE0101960E949C0AAD
:1028F000CE0101960E943118CE0101960E94970ADE
:1029000080916607909167070196189FB001199F03
:10291000700D11246859784F71C00E942D1080E00D
:102920000E94341665E973E0CE0101960E949C0A6C
:10293000CE0101960E943118CE0101960E94970A9D
:102940008091E0079091E107019714E1189FB00191
:10295000199F700D11246E51784FCE0101960E947F
:102960009C0ACE0101960E943118CE0101960E9468
:10297000970A81E00E94341668E973E0CE0101965F
:102980000E949C0ACE0101960E943118CE01019648
:102990000E94970A8091E0079091E107189FB0018B
:1029A000199F700D11246E51784FCE0101960E942F
:1029B0009C0ACE0101960E943118CE0101960E9418
:1029C000970A82E00E94341665E973E0CE01019611
:1029D0000E949C0ACE0101960E943118CE010196F8
:1029E0000E94970A8091E0079091E1070196189F55
:1029F000B001199F700D11246E51784FCE010196D0
:102A00000E949C0ACE0101960E943118CE010196C7
:102A10000E94970A26960FB6F894DEBF0FBECDBF70
:102A2000DF91CF911F91089530917204313208F0F7
:102A30004BC080914F048111FCCF9091AD0822E0F2
:102A400020934F0421E020934E042FEF20934D0458
:102A500010924C0430934B04E2E5F4E0ABE2B4E0B6
:102A600020E0321721F041914D932F5FFACF109261
:102A70002A0420912A04990F922B90932A04909172
:102A80002904913061F41092290490912A049093C2
:102A9000BB009091BC0093FDF8CF95EC01C095EE82
:102AA0009093BC0090914F049230E1F390914D04CB
:102AB0009F3F79F080914D04803241F080914D0428
:102AC000803331F084E005C081E003C082E001C0C2
:102AD00083E01092510410927204109250040895F1
:102AE000E9EBF5E0A089B18982E08C93A485B585F6
:102AF0001C92A685B7858FEC8C93108EA489B5891E
:102B000086E08C93A289B3898C9180618C93A28991
:102B1000B3898C9188608C93A289B3898C918068E9
:102B20008C930288F389E02D80818F7D80830895C6
:102B3000CF93DF93009779F0FC0101900020E9F733
:102B40003197AF01481B590BBC0189EB95E00E94FE
:102B5000D308EC0102C0C0E0D0E042E050E06BE9F5
:102B600073E089EB95E00E94D3088C0F9D1FDF91E5
:102B7000CF9108950F931F93CF93DF93162F072FB5
:102B8000C6E7D8E09C8521E0209350049093AD08DF
:102B90001092510410927204AA85BB85ED91FC91AC
:102BA00011970190F081E02D682FCD0119958A854C
:102BB0009B85DC01ED91FC910190F081E02D602F6F
:102BC00019958A859B85DC01ED91FC910190F0813E
:102BD000E02D612F1995DF91CF911F910F910C94EA
:102BE0001415FC01248131E0309350042093AD088A
:102BF00010925104109272048485682B83E794E04C
:102C00000E94C0100C9414150F931F93CF938C0146
:102C1000C62F0E94F1156C2F6460C8010E94F11547
:102C20006C2F6B7FC8010E94F11583EC90E0019737
:102C3000F1F7CF911F910F9108950F931F93CF93A9
:102C4000DF938C01C62FD42F607F642B0E94041663
:102C500080E1C89FB00111246D2BC801DF91CF9195
:102C60001F910F910C940416E2E7F8E01382482FAD
:102C70004370428360E0808191810C94E60FDB0118
:102C800014964D915C9115976D917C91DC01ED91BD
:102C9000FC910280F381E02D19940F931F93CF9341
:102CA000DF938C01EB01FC01808191810097B1F0F1
:102CB000688179816115710579F0428153812C8198
:102CC0003D814217530740F00E9431268C819D813F
:102CD000F8019583848313C00E94B524888199816B
:102CE000F801918380838A819B81938382838C8185
:102CF0009D8195838483198218821B821A821D828A
:102D00001C82DF91CF911F910F9108958F929F9216
:102D1000AF92BF92CF92DF92EF92FF920F931F93E9
:102D2000CF93DF93FC0120813181E0917809F0910C
:102D300079092E173F070CF04FC0F901EE0FFF1F66
:102D4000A0917609B0917709EA0FFB1FA080B180AE
:102D5000217033276901F1E0CF26232B19F42CE9E8
:102D60003FEF02C024E630E07A018B01EC0149011B
:102D7000840E951EB401C5010E94080D892B99F49B
:102D80008E0C9F1CB401C5010E94080D892B71F4A3
:102D9000B701680D791DC5010E94080D892BF9F056
:102DA00023E030E005C021E030E002C022E030E066
:102DB000F801808191810196821793071CF4918319
:102DC000808308C0F8011182108288819981019660
:102DD00099838883C60105C081E090E002C08FEF2F
:102DE0009FEFDF91CF911F910F91FF90EF90DF90B8
:102DF000CF90BF90AF909F908F9008955F926F9209
:102E00007F928F929F92AF92BF92CF92DF92EF927A
:102E1000FF920F931F93CF93DF93CDB7DEB72C971D
:102E20000FB6F894DEBF0FBECDBF8C01DC01149647
:102E30007C906DE973E0CE0107960E949C0A612C9C
:102E400084E1A82EB12C94E1592E2091750830E030
:102E5000472D50E0B501621B730B862D90E06C018D
:102E6000641775070CF05DC0B4E1CB0ED11CC21A1B
:102E7000D30A4C01C814D90410F446016C016DE961
:102E800073E0CE0101960E949C0AF801E480F5806F
:102E90008E149F04D8F4CE14DF0408F47601D80110
:102EA000ED91FC911197EE0DFF1DD08010826D9178
:102EB0007C91680D791DCE0101960E94760AF80179
:102EC00080819181FC01EE0DFF1DD082BE016F5FFC
:102ED0007F4FCE0107960E944D16CE0101960E94AB
:102EE000970ABE01695F7F4F8091720890917308C5
:102EF0000E943F1680917508952D981B690E409190
:102F000074084F5F4370409374088451780E60E0FA
:102F100080917208909173080E94E60F10927508D4
:102F200094CFD8011496AD90BC901597AC14BD0405
:102F300010F465015C016DE973E0CE0101960E9419
:102F40009C0AF801E480F580CE14DF04D8F4AE14B6
:102F5000BF0408F47501D801ED91FC911197EE0DB5
:102F6000FF1DB08010826D917C916C0D7D1DCE0196
:102F700001960E94760AF80180819181FC01EE0D94
:102F8000FF1DB082BE016F5F7F4FCE0107960E948A
:102F90004D16CE0101960E94970ABE01695F7F4FD0
:102FA00080917208909173080E943F169091750865
:102FB0008B85890F809375086DE973E0CE010196CA
:102FC0000E949C0AF0907508F3E1FF15C8F00D818E
:102FD0001E810F5F1F4FB801CE0101960E94240A87
:102FE000882361F029813A818D819E8166E973E0B1
:102FF000820F931F0E9431261E830D83F394E4CF2A
:10300000BE016F5F7F4F80917208909173080E949C
:103010003F164091740860917508809172089091F4
:1030200073080E94E60FCE0101960E94970ACE0116
:1030300007960E94970A2C960FB6F894DEBF0FBE33
:10304000CDBFDF91CF911F910F91FF90EF90DF9057
:10305000CF90BF90AF909F908F907F906F905F9038
:103060000895CF93DF9300D000D0CDB7DEB71A829A
:1030700019821C821B821E821D82FC01608171816B
:103080006115710531F044815581CE0101960E9490
:103090004B0ACE0101960E94FE16CE0101960E94B7
:1030A000970A26960FB6F894DEBF0FBECDBFDF910C
:1030B000CF9108953FB7F89480918109909182094A
:1030C000A0918309B091840926B5A89B05C02F3F24
:1030D00019F00196A11DB11D3FBFBA2FA92F982F3E
:1030E0008827820F911DA11DB11DBC01CD0142E0B9
:1030F000660F771F881F991F4A95D1F708951F9271
:103100000F920FB60F9211242F933F938F939F939B
:10311000AF93BF9380917D0990917E09A0917F0923
:10312000B091800930917C0923E0230F2D3720F4E2
:103130000196A11DB11D05C026E8230F0296A11D11
:10314000B11D20937C0980937D0990937E09A09303
:103150007F09B09380098091810990918209A091A3
:103160008309B09184090196A11DB11D8093810945
:1031700090938209A0938309B0938409BF91AF9182
:103180009F918F913F912F910F900FBE0F901F90A5
:103190001895CF93DF93CDB7DEB728970FB6F89485
:1031A000DEBF0FBECDBF789484B5826084BD84B588
:1031B000816084BD85B5826085BD85B5816085BD32
:1031C00080916E00816080936E00109281008091EA
:1031D0008100826080938100809181008160809372
:1031E0008100809180008160809380008091B10097
:1031F00084608093B1008091B00081608093B000C2
:103200008091910082608093910080919100816013
:1032100080939100809190008160809390008091D4
:10322000A10082608093A1008091A10081608093C1
:10323000A1008091A00081608093A0008091210175
:10324000826080932101809121018160809321011E
:103250008091200181608093200180917A008460B8
:1032600080937A0080917A00826080937A008091C6
:103270007A00816080937A0080917A0080688093E0
:103280007A001092C1000E9470150E94701561E0D2
:10329000809177080E94501360E0809177080E9427
:1032A000EF1260E0809176080E94501383E794E06B
:1032B00090938108809380080E941E1380E090E123
:1032C000A0E0B0E08093830890938408A0938508E1
:1032D000B09386088AE090E0A0E0B0E08093870891
:1032E00090938808A0938908B0938A0880E090E0C2
:1032F000A0E0B0E480938B0890938C08A0938D0895
:10330000B0938E0860E070E185E00E94BA156FE925
:1033100079E380E00E94BA1506E718E07801512CA5
:10332000B8E86B2EB2E07B2E8EEC882E82E0982ED1
:103330009BECC92E97E0D92E2BE8A22EBB24B39488
:10334000F70194818281F801818F928F61E00E9460
:10335000501361E0F801828D0E945013F7019085AF
:103360008681F801858F968F61E00E94501360E09E
:10337000F801868D0E94501361E0F801858D0E944E
:10338000EF124FB6F89480919E03811126C0F3018D
:103390008491F4012491E82FF0E0EE0FFF1FEB5F22
:1033A000FD4FA591B4919C91822F892321F461E076
:1033B00085E30E94EF1261E085E30E9450138CB513
:1033C00080618CBD8CB580648CBD61E084E30E941B
:1033D000501361E083E30E94501380919E038F5F3E
:1033E00080939E034FBEC6010197F1F760E0F8019C
:1033F000858D0E94EF1288E80E94DF0F83E00E9413
:10340000DF0F61E0F801858D0E94EF12C601019780
:10341000F1F760E0F801858D0E94EF1288E90E94C3
:10342000DF0F80E00E94DF0F80E00E94DF0F80E06E
:103430000E94DF0F80E00E94DF0F61E0F801858DC0
:103440000E94EF12C5010197F1F760E0F801858D48
:103450000E94EF1280EE0E94DF0F61E0F801858D7F
:103460000E94EF125394FFEFEF1AFF0A0E5F1F4FF7
:1034700082E0581265CF0BE918E07FE9E72E78E08B
:10348000F72E60E0F80181918F010E945013F8E05F
:103490000F391F07B1F707E918E061EAA62E68E0C7
:1034A000B62E67018FEFC81AD80AF701608170E065
:1034B000C70108960E94DC0EF60195818381F80110
:1034C000828B938B60E00E94501361E0F801838946
:1034D0000E94501360E0F80183890E94EF120E5F92
:1034E0001F4F7601AC14BD04E1F6F8941092200150
:1034F00089E08093210180E293E0909329018093F9
:103500002801109225011092240182E0809373001B
:1035100078948093560610925A068091570660E080
:103520000E945013009172081091730883E794E091
:103530000E941E13F80115828385823010F098E0F6
:103540009583F801808762E370E080E090E00E945C
:10355000D613F8016485C8010E94F11568EE73E086
:1035600080E090E00E94D61360E3C8010E94041638
:103570005BE4E52E56E4F52EC7010197F1F760E311
:10358000C8010E940416C7010197F1F760E3C80162
:103590000E94041683E592E00197F1F760E2C8010A
:1035A0000E940416F8016581606240E0C8010E9433
:1035B0001D1684E0F801868340E06CE0C8010E949B
:1035C0001D16C8010E94151082E0F801878340E0B3
:1035D00066E0C8010E941D1640E062E0C8010E943A
:1035E0001D168BE39FE10197F1F78091720890918E
:1035F000730828E0FC01248760E00E94F11540E098
:1036000060E080917208909173080E94E60F8091AB
:10361000720890917308FC016681262F2160268331
:10362000696040E00E941D166091A00870E088EA81
:1036300098E00E94DC0E8091A108863520F48091EC
:10364000A208853528F487E393E00E94981506C008
:1036500065E570E088EA98E00E94660E60919F0838
:1036600070E087EA98E00E94DC0E8091A1088C3718
:1036700020F48091A2088B3728F487E393E00E941E
:10368000981506C06BE770E087EA98E00E94660E26
:103690000E94101480919B080E94C612892B81F011
:1036A00010926408109265081092660810926708DC
:1036B00010926008109261081092620810926308DC
:1036C00038EB432E3EE1532E35E0632E3EE3732E5E
:1036D000CC24C394D12C4091600850916108609132
:1036E0006208709163088FE898E00E944C0D409149
:1036F0006408509165086091660870916708705879
:1037000081E998E00E944C0D0E94AB138230910534
:1037100019F41092680873C084309105B9F41092BE
:1037200068088DEC9CECACECBDE38093640890934E
:103730006508A0936608B0936708409260085092AD
:103740006108609262087092630878C081309105C8
:10375000B9F410926808409264085092650860922B
:103760006608709267088DEC9CECACECBDE380932E
:10377000600890936108A0936208B09363085EC0EC
:10378000079709F05BC080916808811157C0F1E08C
:10379000F09368088091690890916A080196909367
:1037A0006A088093690881309105B1F54DEC5CECB5
:1037B0006CEC7DE38FE898E00E944C0D4DEC5CECE6
:1037C0006CEC7DEB81E998E00E944C0D6EE571E0B8
:1037D00080E090E00E94D61340E050E0BA018FE80C
:1037E00098E00E944C0D4DEC5CEC6CEC7DEB81E9BB
:1037F00098E00E944C0D0E94AB130797E1F78DEC07
:103800009CECACECBDE38093640890936508A093B6
:103810006608B0936708ABCF029781F440E050E0B0
:10382000BA018FE898E00E944C0D40E050E060E063
:1038300070E881E998E00E944C0DFFCF0E94C8011A
:1038400082309105F1F48091650781110DC080915E
:1038500066079091670701968530910509F5D0922A
:103860006707C09266076BC28091E0079091E107FD
:10387000019685309105F1F4D092E107C092E007FE
:103880005EC281309105D9F48091650781110DC028
:103890008091660790916707019711F484E090E0AA
:1038A00090936707809366074AC28091E0079091E2
:1038B000E10701979093E1078093E00740C28B7F77
:1038C000892B09F03EC280916607909167079C01A1
:1038D000215031092330310528F480916507811189
:1038E0000FC02FC2049761F480916507811108C051
:1038F000D0926707C092660791E0909365071FC258
:103900008091E0079091E1078130910509F073C142
:1039100080916507882309F414C20E942D1080E06D
:103920000E94341664E573E0CE0101960E949C0A61
:10393000CE0101960E943118CE0101960E94970A8D
:103940000E94C801892BE1F70E942D1080E00E949F
:1039500034168FE30E948C134C0181E40E948C1377
:103960005C0182E40E948C131C0163E673E0CE01CB
:1039700001960E949C0ACE0101960E943118CE0148
:1039800001960E94970AB401CE0101960E9445114A
:10399000CE0101960E943118CE0101960E94970A2D
:1039A00081E00E94341669E673E0CE0101960E9420
:1039B0009C0ACE0101960E943118CE0101960E9408
:1039C000970AB501CE0101960E944511CE010196DC
:1039D0000E943118CE0101960E94970A82E00E944F
:1039E00034166FE673E0CE0101960E949C0ACE0168
:1039F00001960E943118CE0101960E94970AB101EA
:103A0000CE0101960E944511CE0101960E94311807
:103A1000CE0101960E94970A0E94C801892BE1F706
:103A20000E942D1080E00E94341665E773E0CE01FD
:103A300001960E949C0ACE0101960E943118CE0187
:103A400001960E94970A0E94C801892BE1F70E9403
:103A50002D1080E00E9434168FE30E948C137C01AD
:103A600081E40E948C138C0182E40E948C1398875D
:103A70008F8363E673E0CE0101960E949C0ACE011B
:103A800001960E943118CE0101960E94970AB70153
:103A9000CE0101960E944511CE0101960E94311877
:103AA000CE0101960E94970A81E00E94341669E6D1
:103AB00073E0CE0101960E949C0ACE0101960E94FD
:103AC0003118CE0101960E94970AB801CE010196E5
:103AD0000E944511CE0101960E943118CE01019637
:103AE0000E94970A82E00E9434166FE673E0CE01CE
:103AF00001960E949C0ACE0101960E943118CE01C7
:103B000001960E94970A6F817885CE0101960E94E6
:103B10004511CE0101960E943118CE0101960E94F6
:103B2000970A0E94C801892BE1F70E942D1080E0BE
:103B30000E94341668EE73E080E090E00E94D61395
:103B4000E80CF91CF7FE03C0EFEFEE1AFE0AB7010E
:103B50007595679581E090E00E9437220A0D1B1D44
:103B600017FF02C00F5F1F4FB8017595679582E080
:103B700090E00E9437228F819885280E391E37FEEB
:103B800003C09FEF291A390AB1017595679583E043
:103B900090E00E94372281E090E00E942F2290E086
:103BA00090935B0880935A0882E090E00E942F2255
:103BB00090E090935D0880935C0883E090E00E9421
:103BC0002F2290E090935F0880935E0865E873E091
:103BD000CE0101960E949C0ACE0101960E943118E6
:103BE000CE0101960E94970A6CED75E080E090E0AE
:103BF0000E94D613A4C08230910509F072C0809152
:103C00006507882309F49DC00E942D1080E00E9462
:103C1000341663E673E0CE0101960E949C0ACE0141
:103C200001960E943118CE0101960E94970A81E008
:103C300090E00E942F22682FCE0101960E94AE1EB6
:103C4000CE0101960E943118CE0101960E94970A7A
:103C500081E00E94341669E673E0CE0101960E946D
:103C60009C0ACE0101960E943118CE0101960E9455
:103C7000970A82E090E00E942F22682FCE010196E1
:103C80000E94AE1ECE0101960E943118CE0101960F
:103C90000E94970A82E00E9434166FE673E0CE011C
:103CA00001960E949C0ACE0101960E943118CE0115
:103CB00001960E94970A83E090E00E942F22682FCD
:103CC000CE0101960E94AE1ECE0101960E943118CF
:103CD000CE0101960E94970A0E94C801892BE1F744
:103CE0002EC083309105F9F480916507882349F14E
:103CF0000E942D1080E00E9434160E94AB13BC017C
:103D0000CE0101960E944511CE0101960E94311804
:103D1000CE0101960E94970A64EF71E080E090E086
:103D20000E94D613E5CF049761F48091650788233C
:103D300041F0D092E107C092E007109265070E941F
:103D4000101469E170E080E090E00E94D6130E94B8
:103D5000EC09C1CC8BE698E00C94970A0F931F9363
:103D6000CF93DF93CDB7DEB729970FB6F894DEBFB8
:103D70000FBECDBF8C01862FF801118210821382F5
:103D80001282158214824AE0BE016F5F7F4F90E07D
:103D90000E94E120BE016F5F7F4FC8010E94760A3A
:103DA00029960FB6F894DEBF0FBECDBFDF91CF913D
:103DB0001F910F910895109276041092750488EE69
:103DC00093E0A0E0B0E08093770490937804A09310
:103DD0007904B0937A042BE033E030937404209399
:103DE0007304109282041092810480938304909350
:103DF0008404A0938504B09386042DE133E03093CE
:103E0000800420937F0445E351E050938C04409359
:103E10008B0444E351E050938E0440938D0440E3BF
:103E200051E05093900440938F0441E351E050934C
:103E300092044093910442E351E0509394044093E0
:103E4000930446E351E050939604409395041092F6
:103E500098041092990410929A0410929B04109264
:103E60001F0510921E058093200590932105A093B5
:103E70002205B093230530931D0520931C0545EDC5
:103E800050E0509329054093280544ED50E05093AD
:103E90002B0540932A0540ED50E050932D054093AB
:103EA0002C0541ED50E050932F0540932E0542ED37
:103EB00050E0509331054093300546ED50E050936B
:103EC0003305409332051092350510923605109255
:103ED0003705109238051092BC051092BB058093EF
:103EE000BD059093BE05A093BF05B093C005309368
:103EF000BA052093B90585EC90E09093C6058093B0
:103F0000C50584EC90E09093C8058093C70580ECCC
:103F100090E09093CA058093C90581EC90E090935E
:103F2000CC058093CB0582EC90E09093CE058093F6
:103F3000CD0586EC90E09093D0058093CF0510924C
:103F4000D2051092D3051092D4051092D505809118
:103F50000F0290911002A0911102B0911202809371
:103F6000970890939808A0939908B0939A08809125
:103F7000130290911402A0911502B0911602809341
:103F80009B0890939C08A0939D08B0939E0884E0A2
:103F900080939F0887E08093A0081092A10884EB8B
:103FA0008093A20886E18093A30888E18093A40807
:103FB00087E18093A50889E18093A608E0916407D2
:103FC000EC3020F08FEF8093A70810C081E08E0FB7
:103FD00080936407E093A70825E0E29FF001112495
:103FE000E85DF84F88EB9BE092838183E091640762
:103FF000EC3020F08FEF8093A80810C081E08E0F86
:1040000080936407E093A80885E0E89FF0011124FD
:10401000E85DF84F88EB9BE0928381838CE080938E
:10402000760884E28093770886E08093780885E0BC
:10403000809379088FE180937A088EE180937B08E2
:1040400083E280937C0882E280937D0885E48093FC
:104050007E0884E480937F0880E480938208109235
:104060008708109288081092890810928A08109286
:104070008B0810928C0810928D0810928E08EEEA30
:10408000F8E08FEF9FEFDC01128213821482158219
:10409000168217821086118683879487A587B68734
:1040A0008787908BA18BB28B1286118210827396B8
:1040B00029E0EC36F20741F78DE090E00E941D24E4
:1040C000FC01138212828FE293E091838083118638
:1040D00087E2848384E1828784E083871486F09377
:1040E0007308E0937208109274081092750885E2C4
:1040F00080935706109259066DE973E08BE698E0BD
:104100000E949C0A1092650781E090E090936707F7
:104110008093660728E7E7E1F2E0A8E6B7E00190C0
:104120000D922A95E1F79093E1078093E00788E7E5
:10413000EFE8F2E0A2EEB7E001900D928A95E1F788
:1041400081E090E00E942F2290E090935B088093A2
:104150005A0882E090E00E942F2290E090935D0840
:1041600080935C0883E090E00E942F2290E090937F
:104170005F0880935E088DEC9CECACECBDE3809313
:10418000600890936108A0936208B09363088093DD
:10419000640890936508A0936608B093670810922E
:1041A000680810926A08109269080895BB274A307F
:1041B00031F4992322F4BDE2909581959F4F0C94A0
:1041C000E220BB27FB015527AA27880F991FAA1FAA
:1041D000A41710F0A41B83955051B9F7A05DAA3322
:1041E00008F0A95DA193009779F7B111B1931192ED
:1041F000CB010C94FB20DC01FC01672F719177232C
:10420000E1F7329704C07C916D9370836291AE1791
:10421000BF07C8F308950E944D2108F481E0089576
:10422000E89409C097FB3EF4909580957095619550
:104230007F4F8F4F9F4F9923A9F0F92F96E9BB2706
:104240009395F695879577956795B795F111F8CF82
:10425000FAF4BB0F11F460FF1BC06F5F7F4F8F4FED
:104260009F4F16C0882311F096E911C0772321F0E3
:104270009EE8872F762F05C0662371F096E8862F7B
:1042800070E060E02AF09A95660F771F881FDAF7D2
:10429000880F9695879597F90895990F0008550FFF
:1042A000AA0BE0E8FEEF16161706E807F907C0F0BC
:1042B00012161306E407F50798F0621B730B840BC4
:1042C000950B39F40A2661F0232B242B252B21F49E
:1042D00008950A2609F4A140A6958FEF811D811D3E
:1042E00008950E9484210C94F5210E94E72138F062
:1042F0000E94EE2120F0952311F00C94DE210C9405
:10430000E42111240C9429220E94062270F3959F27
:10431000C1F3950F50E0551F629FF001729FBB27BC
:10432000F00DB11D639FAA27F00DB11DAA1F649F58
:104330006627B00DA11D661F829F2227B00DA11D0B
:10434000621F739FB00DA11D621F839FA00D611D91
:10435000221F749F3327A00D611D231F849F600DB2
:10436000211D822F762F6A2F11249F5750409AF0DB
:10437000F1F088234AF0EE0FFF1FBB1F661F771F67
:10438000881F91505040A9F79E3F510580F00C9432
:10439000DE210C9429225F3FE4F3983ED4F3869506
:1043A00077956795B795F795E7959F5FC1F7FE2BD2
:1043B000880F911D9695879597F9089597F99F67AE
:1043C00080E870E060E008959FEF80EC089500249D
:1043D0000A941616170618060906089500240A946A
:1043E00012161306140605060895092E0394000CF0
:1043F00011F4882352F0BB0F40F4BF2B11F460FF7F
:1044000004C06F5F7F4F8F4F9F4F089557FD9058A7
:10441000440F551F59F05F3F71F04795880F97FB88
:10442000991F61F09F3F79F0879508951216130642
:104430001406551FF2CF4695F1DF08C01616170671
:104440001806991FF1CF86957105610508940895A6
:10445000E894BB2766277727CB0197F90895F99948
:10446000FECF92BD81BDF89A992780B50895262F79
:10447000F999FECF1FBA92BD81BD20BD0FB6F89449
:10448000FA9AF99A0FBE01960895052E97FB1EF42D
:1044900000940E945C2257FD07D00E94772207FCFF
:1044A00003D04EF40C945C225095409530952195A4
:1044B0003F4F4F4F5F4F0895909580957095619550
:1044C0007F4F8F4F9F4F08950E949922A59F900D77
:1044D000B49F900DA49F800D911D11240895B7FFE6
:1044E0000C9464220E946422821B930B0895A1E223
:1044F0001A2EAA1BBB1BFD010DC0AA1FBB1FEE1F5E
:10450000FF1FA217B307E407F50720F0A21BB30BA8
:10451000E40BF50B661F771F881F991F1A9469F724
:1045200060957095809590959B01AC01BD01CF0180
:104530000895A29FB001B39FC001A39F700D811D7C
:104540001124911DB29F700D811D1124911D08959C
:10455000DB018F939F930E946422BF91AF91A29F32
:10456000800D911DA39F900DB29F900D1124089571
:10457000991B79E004C0991F961708F0961B881FB5
:104580007A95C9F780950895EE0FFF1F881F8BBF9E
:104590000790F691E02D19940F93083090F0982F22
:1045A000872F762F652F542F432F322F2227085025
:1045B000F4CF220F331F441F551F661F771F881F1C
:1045C000991F0A95B2F70F91089597FB10F816946A
:1045D00000080F93083098F00850232F342F452FF0
:1045E000562F672F782F892F902DF4CF059497950C
:1045F00087957795679557954795379527950A95A8
:10460000AAF70F9108955058BB27AA270E941B2391
:104610000C94F5210E94E72138F00E94EE2120F051
:1046200039F49F3F19F426F40C94E4210EF4E0953C
:10463000E7FB0C94DE21E92F0E94062258F3BA17FB
:10464000620773078407950720F079F4A6F50C94A8
:1046500028220EF4E0950B2EBA2FA02D0B01B901E4
:1046600090010C01CA01A0011124FF27591B99F0E8
:10467000593F50F4503E68F11A16F040A22F232FF4
:10468000342F4427585FF3CF469537952795A79544
:10469000F0405395C9F77EF41F16BA0B620B730BEB
:1046A000840BBAF09150A1F0FF0FBB1F661F771F5C
:1046B000881FC2F70EC0BA0F621F731F841F48F411
:1046C000879577956795B795F7959E3F08F0B0CF9A
:1046D0009395880F08F09927EE0F97958795089581
:1046E0000E9484230C94F5210E94EE2158F00E9430
:1046F000E72140F029F45F3F29F00C94DE215111AD
:104700000C9429220C94E4210E94062268F3992338
:10471000B1F3552391F3951B550BBB27AA276217BD
:104720007307840738F09F5F5F4F220F331F441FCA
:10473000AA1FA9F335D00E2E3AF0E0E832D09150FE
:104740005040E695001CCAF72BD0FE2F29D0660FEB
:10475000771F881FBB1F261737074807AB07B0E82E
:1047600009F0BB0B802DBF01FF2793585F4F3AF034
:104770009E3F510578F00C94DE210C9429225F3F76
:10478000E4F3983ED4F3869577956795B795F795BA
:104790009F5FC9F7880F911D9695879597F90895A2
:1047A000E1E0660F771F881FBB1F6217730784073E
:1047B000BA0720F0621B730B840BBA0BEE1F88F74D
:1047C000E09508950E94E9236894B1110C94292280
:1047D00008950E940E2288F09F5798F0B92F9927CC
:1047E000B751B0F0E1F0660F771F881F991F1AF0DC
:1047F000BA95C9F714C0B13091F00E942822B1E0F7
:1048000008950C942822672F782F8827B85F39F0F5
:10481000B93FCCF3869577956795B395D9F73EF474
:1048200090958095709561957F4F8F4F9F4F08951C
:104830000E944D2108F48FEF08950F931F93CF939B
:10484000DF938230910510F482E090E0E0918709D7
:10485000F091880920E030E0A0E0B0E0309719F155
:10486000408151810281138148175907C8F084178C
:10487000950769F4109731F012960C9312971396DE
:104880001C9327C0009387091093880922C0211523
:10489000310519F04217530718F49A01BD01EF01D1
:1048A000DF01F801DBCF21153105F9F0281B390BA9
:1048B0002430310580F48A819B816115710521F0D6
:1048C000FB019383828304C09093880980938709B6
:1048D000FE01329644C0FE01E20FF31F81939193D3
:1048E00022503109398328833AC0209185093091BB
:1048F0008609232B41F42091030230910402309366
:104900008609209385092091010230910202211528
:10491000310541F42DB73EB7409105025091060292
:10492000241B350BE0918509F0918609E217F30706
:10493000A0F42E1B3F0B2817390778F0AC014E5F0F
:104940005F4F2417350748F04E0F5F1F50938609BD
:10495000409385098193919302C0E0E0F0E0CF019C
:10496000DF91CF911F910F910895CF93DF9300971F
:1049700009F481C0FC01329713821282A091870949
:10498000B0918809109781F420813181820F931FA3
:1049900020918509309186092817390751F5F09340
:1049A0008609E093850967C0ED0120E030E0CE176D
:1049B000DF0740F44A815B819E0141155105F1F00A
:1049C000EA01F5CFD383C28340815181840F951FC3
:1049D000C817D90759F488819981840F951F0296C9
:1049E000918380838A819B81938382832115310502
:1049F00029F4F0938809E09387093DC0E901FB831E
:104A0000EA8349915991C40FD51FEC17FD0761F452
:104A100080819181840F951F0296E9019983888393
:104A2000828193819B838A83E0E0F0E012968D91EE
:104A30009C911397009719F0FD01DC01F7CF8D9140
:104A40009C9111979D012E5F3F4F820F931F2091E4
:104A50008509309186092817390769F4309729F4B8
:104A6000109288091092870902C013821282B093B3
:104A70008609A0938509DF91CF9108956F927F9267
:104A80008F929F92AF92BF92CF92DF92EF92FF925E
:104A90000F931F93CF93DF93009789F4CB01DF919E
:104AA000CF911F910F91FF90EF90DF90CF90BF902B
:104AB000AF909F908F907F906F900C941D24FC017D
:104AC000E60FF71F9C0122503109E217F30708F4A3
:104AD000A9C0EC01D9010D911C9111970617170778
:104AE000B0F00530110508F49BC0C8010497861783
:104AF000970708F495C002501109061B170B019384
:104B000011936D937C93CF010E94B52489C05B0102
:104B1000A01AB10A4C01800E911EA0918709B09194
:104B20008809612C712CE12CF12C109709F446C0F6
:104B30008D919C911197A815B905B1F56C0142E0D2
:104B4000C40ED11CCA14DB0478F14C018A189B08EE
:104B5000640142E0C40ED11C1296BC9012971396C9
:104B6000AC91B5E0CB16D10440F0B282A383918220
:104B70008082D9016D937C9309C00E5F1F4F800F17
:104B8000911FF90191838083EB2DFA2FE114F10439
:104B900031F0D7011396FC93EE93129741C0F09336
:104BA0008809E09387093CC06816790608F43C013F
:104BB0007D0112960D90BC91A02DB7CF80918509F3
:104BC0009091860988169906E1F466167706C8F46E
:104BD0008091010290910202009741F48DB79EB737
:104BE0004091050250910602841B950BE817F907C6
:104BF000C8F4F0938609E0938509F9017183608315
:104C00000FC0CB010E941D247C01009759F0A80120
:104C1000BE010E942826CE010E94B524C70104C00F
:104C2000CE0102C080E090E0DF91CF911F910F9103
:104C3000FF90EF90DF90CF90BF90AF909F908F90BC
:104C40007F906F90089581E090E0F8940C9438265E
:104C5000FB01DC0102C001900D9241505040D8F799
:104C60000895FB01DC0101900D920020E1F7089509
:104C700011E0C4E9D1E000E006C0802FFE010E94EF
:104C8000C4222196011DC539D10780E00807A9F784
:044C9000F894FFCFC6
:104C9400FF00008909800000004000140054003621
:104CA4003738391B1D1A1C000000000000000000EA
:104CB40000000000000000000000004275726765FB
:104CC400720000000000000000000000000000422C
:104CD40061636F6E204275726765720000000000A8
:104CE40000000043686565736520427572676572EC
:104CF400000000000000005365747570000000009F
:104D0400000000000000000000000000000000009F
:104D1400000000000000000000000000000000008F
:104D2400000000000000000000000000000000007F
:104D340000000043616C6962726174696F6E000007
:104D44000000000000000041666669636865722027
:104D540076616C657572204D2E000044656275673E
:104D6400696E6700000000000000000000000051B0
:104D74007569746572000000000000000000000006
:104D8400000000000000000000000000000000001F
:104D94000000000000000000000000C01093101983
:104DA4000A67108B1077106810000000007A09D38E
:104DB40008FD08C7092E090C092009000000001E7F
:104DC4000AD308190AD208536572766F20616E6798
:104DD4006C65206973206F7574206F662072616E34
:104DE4006765210043616C69622E206475206E6FD3
:104DF400697200436170313A00436170323A004392
:104E04006170333A0043616C69622E2064752062DC
:104E14006C616E630043616C69622E206566666531
:0E4E240063747565002020003E3E000D0A00FC
:00000001FF
