:100000000C9491010C94C2010C94C2010C94C20195
:100010000C94C2010C94C2010C94C2010C94C20154
:100020000C94C2010C94630A0C94630A0C94630A46
:100030000C94C2010C948F050C94C2010C94C20163
:100040000C94C2010C94E8070C94C2010C94C201F8
:100050000C94C2010C94C2010C94C2010C9445058D
:100060000C94C2010C9400070C94D6060C94C201A7
:100070000C94C2010C94C2010C94C2010C94C201F4
:100080000C94C2010C94C2010C94C2010C94C201E4
:100090000C94C2010C94C2010C94C2010C946D0A20
:1000A0000C94C2010C94C2010C94C2010C94C201C4
:1000B0000C94C2010C94C2010C94C2010C942A0746
:1000C0000C94C2010C94C2010C94C2010C94AC06B5
:1000D0000C9482060C94C2010C9458060C942E06C3
:1000E0000C94C20188038D0392039C03A6031F0492
:1000F000B003B803C003CA03D403DE03ED03F70360
:100100001F0401040B041504620965095409580908
:100110005E099C0969096D09730977097B098109E1
:10012000850989099C098F09930997090C94D108BD
:100130000C9417020C9454090C94C2080C940802F5
:100140000C9415040C9418090C94C3080C946909B8
:100150000C949C030C94C4010C9424030C94B003E1
:100160000C940B040C94C0030C945E090C9488034B
:100170000C94CB020C94CA030C942B020C94A6038F
:100180000C9497090C9462090C9425030C94730940
:100190000C94710F0C9401040C9439020C94930983
:1001A0000C9484020C948D030C9489090C94FB0428
:1001B0000C941F040C947B090C9485090C94E8089A
:1001C0000C9481090C9465090C94770F0C9492039C
:1001D0000C94DE030C94D4030C9458090C94ED0396
:1001E0000C9477090C94B8030C949C090C946D0939
:1001F0000C948F090C94E0080C94F7030200002182
:1002000000240027002A002D0030003300010100E7
:1002100000040107010A0100002200250028002B2C
:10022000002E003100340002010000050108010B1E
:1002300001000020002300260029002C002F00329E
:10024000000001000003010601090105050505077D
:100250000508080808020202020A0A080804040441
:10026000040101010101010101030303030303036D
:1002700003040707070C0C0C0C0C0C0C0C020202FC
:100280000206060606060606060B0B0B0B0B0B0BEF
:100290000B0102102020080810204010204080028E
:1002A00001020108040201010204081020408080BC
:1002B0004020100804020180040201804020100840
:1002C0000402010804020101020408102040800118
:1002D0000204081020408000000A0B02090C0D0ED9
:1002E00008070304010000000000000000000000F7
:1002F00000000000000000000000000000000000FE
:1003000000000012111000000000000000000000BA
:100310000000000000000000000000000000770F57
:10032000710F11241FBECFEFD1E2DEBFCDBF00E0C1
:100330000CBF12E0A0E0B2E0E0E6FBE200E00BBFA1
:1003400002C007900D92AA33B107D9F726E0AAE3BD
:10035000B2E001C01D92A13FB207E1F711E0C0E990
:10036000D1E000E006C021970109802FFE010E9424
:10037000C312CF38D10780E00807A9F70E946E0C9E
:100380000C949E150C940000CF92DF92EF92FF9296
:100390000F931F93CF93DF936C017A018B01C0E021
:1003A000D0E0CE15DF0589F0D8016D918D01D60121
:1003B000ED91FC910190F081E02DC6011995892BFA
:1003C00011F47E0102C02196ECCFC701DF91CF91DD
:1003D0001F910F91FF90EF90DF90CF900895FC0157
:1003E000A089B1898C91A689B78982FD0FC09C91A3
:1003F000818D8F5F8F73228D821749F0218DDF01F0
:10040000A20FB11D5D969C93818F08958C910895E4
:10041000FC01538D448D252F30E0842F90E0821B0A
:10042000930B541710F0CF96089501970895FC018F
:10043000918D828D981761F0828DDF01A80FB11D1B
:100440005D968C91928D9F5F9F73928F90E008953F
:100450008FEF9FEF0895FC01918D828D981731F0F9
:10046000828DE80FF11D858D90E008958FEF9FEF4D
:100470000895FC01918D228D892F90E0805C9F4F23
:10048000821B91098F73992708958AE792E00E9451
:10049000390221E0892B09F420E0822F089587E1B9
:1004A00093E00E94390221E0892B09F420E0822F99
:1004B000089584EB93E00E94390221E0892B09F42E
:1004C00020E0822F0895FC01848DDF01A80FB11D6B
:1004D000A35ABF4F2C91848D90E001968F7399277A
:1004E000848FA689B7892C93A089B1898C91806467
:1004F0008C93938D848D981306C00288F389E02D28
:1005000080818F7D80830895EF92FF920F931F93D8
:10051000CF93DF93EC0181E0888F9B8D8C8D9813B6
:1005200005C0E889F989808185FD24C0F62E0B8DF0
:1005300010E00F5F1F4F0F731127E02E8C8DE81214
:100540000CC00FB607FCFACFE889F989808185FFD6
:10055000F5CFCE010E946302F1CF8B8DFE01E80F33
:10056000F11DE35AFF4FF0820B8FEA89FB898081EE
:10057000806207C0EE89FF896083E889F9898081FC
:100580008064808381E090E0DF91CF911F910F9193
:10059000FF90EF900895CF93DF93EC01888D88232F
:1005A000C9F0EA89FB89808185FD05C0A889B989E0
:1005B0008C9186FD0FC00FB607FCF5CF808185FFBB
:1005C000F2CFA889B9898C9185FFEDCFCE010E9429
:1005D0006302E7CFDF91CF910895E0E0F0E0199456
:1005E00080E090E0892B21F00E945902811119C00E
:1005F00080E090E0892B41F080E090E0892B21F0B1
:100600000E940000811110C00E944F0281110FC092
:1006100080E090E0892B81F00E94450281110AC0A0
:1006200008950E940000E4CF0E940000EDCF0E94D8
:10063000ED02EECF0C94000008958EBD00000DB4C5
:1006400007FEFDCF8EB50895089580E090E00895EF
:100650008F929F92AF92BF92CF92DF92EF92FF92D2
:100660000F931F93CF93DF93EC016A017B0120E08E
:1006700030E04FE753E4C701B6010E94B8114B01C7
:100680005C0120E030E0A9010E946E1318161CF4F2
:10069000C501B40103C0C501B40190580E943813CC
:1006A0008B0120E030E0A901C701B6010E946E1362
:1006B000181614F460E001C061E089810E94C80B43
:1006C0000F3F110509F014F4112702C00FEF10E0DD
:1006D000C88161E08C2F0E94F80B0115110509F407
:1006E000B1C00F3F110509F4AFC0EC2FF0E0E952A3
:1006F000FD4FE4914E2F50E0FA013197E231F105C0
:1007000008F09DC08827EE58FF4F8F4F0C94C312FE
:1007100084B5806884BD07BDA7C084B5806284BDF0
:1007200008BDA2C0809180008068809380001093F3
:1007300089000093880098C0809180008062809337
:10074000800010938B0000938A008EC080918000FF
:1007500088608093800010938D0000938C0084C08B
:100760008091B00080688093B0000093B3007CC09B
:100770008091B00080628093B0000093B40074C098
:10078000809190008068809390001093990000936E
:1007900098006AC0809190008062809390001093CE
:1007A0009B0000939A0060C08091900088608093C5
:1007B000900010939D0000939C0056C08091A00073
:1007C00080688093A0008091A0008F7B8093A00020
:1007D0001093A9000093A80047C08091A0008062F8
:1007E0008093A0001093AB000093AA003DC08091BD
:1007F000A00088608093A0001093AD000093AC002F
:1008000033C08091200180688093200110932901DA
:100810000093280129C080912001806280932001EB
:1008200010932B0100932A011FC080912001886042
:100830008093200110932D0100932C0115C00038E6
:10084000110514F460E001C061E08C2FDF91CF91BD
:100850001F910F91FF90EF90DF90CF90BF90AF90DE
:100860009F908F900C94C80BDF91CF911F910F91A7
:10087000FF90EF90DF90CF90BF90AF909F908F90C0
:100880000895CF93DF93EC0160E088810E94C80B4C
:1008900088E90E941D0380E00E941D0380E00E9401
:1008A0001D0380E00E941D0380E00E941D0361E0A3
:1008B00088810E94C80B8BE891E00197F1F760E016
:1008C00088810E94C80B80EE0E941D0361E0888130
:1008D000DF91CF910C94C80BAF92BF92CF92DF9271
:1008E000EF92FF920F931F93CF93DF93CDB7DEB7B5
:1008F00060970FB6F894DEBF0FBECDBF5C0160E01D
:10090000FC0180810E94C80B80E60E941D038E01BD
:100910000F5F1F4F7E01F1E1EF0EF11C680180E0D7
:100920000E941D0390E0A0E0B0E0F6018193919356
:10093000A193B1936F01EE15FF0589F761E0F50111
:1009400080810E94C80B80E090E0DC01F8014191B9
:100950005191619171918F01BA2FA92F982F8827FA
:10096000840F951FA61FB71FEE15FF0579F79C0191
:10097000AD0166277727CB01621B730B840B950BA8
:1009800060960FB6F894DEBF0FBECDBFDF91CF915A
:100990001F910F91FF90EF90DF90CF90BF90AF909D
:1009A00008950E948915FC01248131E030936A0288
:1009B00020936C0210926B0210926D028485682B5A
:1009C0008EE692E00E9418090C94BF090F931F93C2
:1009D000CF938C01C62F64600E94D3046C2F6B7F71
:1009E000C8010E94D30483EC90E00197F1F7CF9106
:1009F0001F910F9108950F931F93CF93DF938C0155
:100A0000C62FD62FD07FD1606D2F0E94D3046D2FBB
:100A1000C8010E94E60480E1C89FB0011124C62FDE
:100A2000C1606C2FC8010E94D3046C2FC8010E94C2
:100A3000E60481E090E0DF91CF911F910F9108953E
:100A40003FB7F8948091610290916202A091630295
:100A5000B091640226B5A89B05C02F3F19F00196FE
:100A6000A11DB11D3FBFBA2FA92F982F8827820F34
:100A7000911DA11DB11DBC01CD0142E0660F771F84
:100A8000881F991F4A95D1F708951F920F920FB6AC
:100A90000F9211242F933F938F939F93AF93BF9304
:100AA00080915D0290915E02A0915F02B091600220
:100AB00030915C0223E0230F2D3720F40196A11D15
:100AC000B11D05C026E8230F0296A11DB11D20937C
:100AD0005C0280935D0290935E02A0935F02B093EC
:100AE00060028091610290916202A0916302B091D4
:100AF00064020196A11DB11D809361029093620270
:100B0000A0936302B0936402BF91AF919F918F91C4
:100B10003F912F910F900FBE0F901F9018951F922D
:100B20000F920FB60F9211240BB60F922F933F9393
:100B30004F935F936F937F938F939F93AF93BF93E5
:100B4000EF93FF938091570290915802A091590220
:100B5000B0915A02892B8A2B8B2B59F18091560226
:100B6000E0915402F0915502908189278083809111
:100B7000570290915802A0915902B0915A0218164A
:100B800019061A061B060CF056C080915702909168
:100B90005802A0915902B0915A020197A109B109D6
:100BA0008093570290935802A0935902B0935A022F
:100BB00042C080910002ECEFF1E0E4919FEF90934E
:100BC0000002E230C9F050F4EE2399F0E13081F5F3
:100BD00090916F009D7F90936F002AC0E43019F1CF
:100BE000E0F0E53029F5909173009D7F90937300BC
:100BF0001FC010926E001CC0909170009D7F90935A
:100C0000700091E09093B0009091B100987F946053
:100C10009093B1001092B3000BC0909171009D7F32
:100C20009093710005C0909172009D7F9093720027
:100C300060E00E94C80BFF91EF91BF91AF919F912F
:100C40008F917F916F915F914F913F912F910F9075
:100C50000BBE0F900FBE0F901F9018951F920F9212
:100C60000FB60F9211240BB60F922F933F934F9311
:100C70005F936F937F938F939F93AF93BF93EF9304
:100C8000FF938AE792E00E946302FF91EF91BF9188
:100C9000AF919F918F917F916F915F914F913F9114
:100CA0002F910F900BBE0F900FBE0F901F901895B5
:100CB0001F920F920FB60F9211240BB60F922F9323
:100CC0003F934F935F936F937F938F939F93AF93D4
:100CD000BF93EF93FF938AE792E00E94EF01FF91A9
:100CE000EF91BF91AF919F918F917F916F915F91A4
:100CF0004F913F912F910F900BBE0F900FBE0F9011
:100D00001F9018951F920F920FB60F9211240BB6D9
:100D10000F922F933F934F935F936F937F938F9394
:100D20009F93AF93BF93EF93FF9387E193E00E946C
:100D30006302FF91EF91BF91AF919F918F917F914E
:100D40006F915F914F913F912F910F900BBE0F903C
:100D50000FBE0F901F9018951F920F920FB60F9213
:100D600011240BB60F922F933F934F935F936F9382
:100D70007F938F939F93AF93BF93EF93FF9387E1FD
:100D800093E00E94EF01FF91EF91BF91AF919F918E
:100D90008F917F916F915F914F913F912F910F9024
:100DA0000BBE0F900FBE0F901F9018951F920F92C1
:100DB0000FB60F9211240BB60F922F933F934F93C0
:100DC0005F936F937F938F939F93AF93BF93EF93B3
:100DD000FF9384EB93E00E946302FF91EF91BF9138
:100DE000AF919F918F917F916F915F914F913F91C3
:100DF0002F910F900BBE0F900FBE0F901F90189564
:100E00001F920F920FB60F9211240BB60F922F93D1
:100E10003F934F935F936F937F938F939F93AF9382
:100E2000BF93EF93FF9384EB93E00E94EF01FF9158
:100E3000EF91BF91AF919F918F917F916F915F9152
:100E40004F913F912F910F900BBE0F900FBE0F90BF
:100E50001F9018951F920F920FB60F9211240BB688
:100E60000F922F933F934F935F936F937F938F9343
:100E70009F93AF93BF93EF93FF93809152040E948F
:100E80009F0B20915604309157042F5F3F4F3093B2
:100E900057042093560490915504953618F096E027
:100EA00090935104909151049430C9F128F49230F8
:100EB00069F09330D1F05EC0953009F451C096309E
:100EC00009F058C091E09093220551C0811152C0A1
:100ED00020915604309157042436310508F442C05D
:100EE00010922205109255041CC0813009F042C0B6
:100EF000E091550491E09E0F90935504F0E020910D
:100F0000560430915704EE0FFF1FEF5AFB4F308706
:100F10002783109257041092560494E029C081113F
:100F200017C0E091550491E09E0F90935504F0E0B6
:100F30002091560430915704EE0FFF1FEF5AFB4FDC
:100F400030872783109257041092560493E010C004
:100F500020915604309157042536310558F007C0CA
:100F6000811108C0109257041092560403C095E0F6
:100F700090935104909154049923B9F081110AC0BF
:100F800080915304882321F08091530461E009C0CB
:100F90002F9A0BC080915304882331F08091530421
:100FA00060E00E94C80B01C02F98FF91EF91BF91A4
:100FB000AF919F918F917F916F915F914F913F91F1
:100FC0002F910F900BBE0F900FBE0F901F90189592
:100FD0001F920F920FB60F9211240BB60F922F9300
:100FE0003F934F935F936F937F938F939F93AF93B1
:100FF000BF93EF93FF938091530287FF05C0109238
:1010000085001092840016C020915302022E000C1D
:10101000330B80915F0590E0281739075CF430911D
:10102000530225E03203F0011124ED5DFA4F808177
:1010300086FD15C0809153028F5F809353022091EB
:101040005302022E000C330B80915F0590E02817AD
:10105000390794F4809153028C302CF10DC03091FB
:1010600053023203F0011124ED5DFA4F808160E0FC
:101070008F730E94C80BDECF809184009091850011
:1010800084349C4918F480E49CE905C08091840074
:1010900090918500049690938900809388008FEF4B
:1010A000809353022AC04091840050918500309172
:1010B000530225E03203F0011124ED5DFA4F8181E6
:1010C0009281840F951F90938900809388003091BE
:1010D00053023203F0011124ED5DFA4F808186FF47
:1010E0000CC0309153023203F0011124ED5DFA4F30
:1010F000808161E08F730E94C80BFF91EF91BF91D7
:10110000AF919F918F917F916F915F914F913F919F
:101110002F910F900BBE0F900FBE0F901F90189540
:1011200085ED8093BC008091BC0084FDFCCF1092C3
:101130006902089540918206262F30E0240F311D68
:1011400021323105DCF4209169022430C9F4FC011C
:1011500080E090E0861758F4309182062191DC01FE
:10116000A05AB94FA30FB11D2C930196F3CF8091D4
:101170008206680F6093820680E0089581E00895FA
:1011800082E00895089581E090E030916602209118
:101190006502321710F480E090E0919581959109F5
:1011A00008958091660290916502891730F48F5FEF
:1011B0008093660280E090E008958FEF9FEF08959E
:1011C0008091650290E020916602821B910908954A
:1011D000CF92DF92EF92FF920F931F93CF93DF9303
:1011E0007C01262F972F8A0180916A02882391F033
:1011F000C62FD72F6E01C40ED51ECC15DD0571F09C
:101200006991D701ED91FC910190F081E02DC7012A
:101210001995F3CF642F822F0E949A08C801DF919D
:10122000CF911F910F91FF90EF90DF90CF90089595
:10123000CF93DF931F92CDB7DEB7698320916A0207
:101240002223D1F020916D02203240F021E030E0E5
:10125000FC013383228380E090E015C080916B0213
:10126000E82FF0E0E353F94F998190838F5F8093EB
:101270006B0280936D0205C061E0CE0101960E9471
:101280009A0881E090E00F90DF91CF91089590E06F
:10129000FC013197E231F10508F04EC08827EC5788
:1012A000FF4F8F4F0C94C312809180008F7703C043
:1012B000809180008F7D80938000089580918000D0
:1012C000877FF9CF84B58F7702C084B58F7D84BDC9
:1012D00008958091B0008F7703C08091B0008F7D1A
:1012E0008093B0000895809190008F7707C080911F
:1012F00090008F7D03C080919000877F8093900045
:1013000008958091A0008F7707C08091A0008F7D05
:1013100003C08091A000877F8093A00008958091F2
:1013200020018F7707C0809120018F7D03C08091BD
:101330002001877F809320010895CF93DF9300974A
:1013400079F0FC0101900020E9F73197AF01481BCB
:10135000590BBC0184EB93E00E94C401EC0102C074
:10136000C0E0D0E042E050E067E372E084EB93E05D
:101370000E94C4018C0F9D1FDF91CF910895209191
:101380006D0290916C02213208F04AC0809169028E
:101390008111FCCF32E03093690231E03093680272
:1013A0003FEF3093CC061092CB062093CA06ADECEB
:1013B000B6E04AEA56E0FA013E2F341B321718F421
:1013C0003D913193F9CF1092A9062091A906990F6A
:1013D000922B9093A90690916702913061F410923C
:1013E00067029091A9069093BB009091BC0093FD79
:1013F000F8CF95EC01C095EE9093BC0090916902F6
:101400009230E1F39091CC069F3F79F08091CC0629
:10141000803241F08091CC06803331F084E005C009
:1014200081E003C082E001C083E010926B02109261
:101430006D0210926A020895EF92FF921F93CF936C
:10144000DF931F92CDB7DEB7162F99E2E92E96E013
:10145000F92ED7011C969C911C9721E020936A02DB
:1014600090936C0210926B0210926D021A960D907E
:10147000BC91A02DED91FC9111970190F081E02D90
:10148000682FCD0179831995F70182859385DC0159
:10149000ED91FC910190F081E02D7981672F1995F4
:1014A000F70182859385DC01ED91FC910190F0813B
:1014B000E02D612F19950F90DF91CF911F91FF9033
:1014C000EF900C94BF091F920F920FB60F92112448
:1014D0000F900FBE0F901F9018951F920F920FB68E
:1014E0000F9211240BB60F922F933F934F935F935C
:1014F0006F937F938F939F93AF93BF93EF93FF93DC
:101500008091B900887F803609F49CC068F58832E4
:1015100009F45BC090F4803109F454C038F4882396
:1015200009F4F6C0883009F44DC0F6C0883109F4DA
:101530004CC0803209F45DC0EFC0803409F468C04B
:1015400048F4803309F455C0883309F0E5C080932E
:10155000CC06D8C0803509F44FC0883509F45DC089
:10156000883409F0D9C0D6C0883909F4C7C0A8F4B6
:10157000883709F467C038F4883609F463C08037C7
:1015800009F460C0C9C0883809F4B8C0803909F4CA
:101590005FC0803809F0C0C05BC0803B09F486C0E2
:1015A00038F4803A09F466C0883A09F47FC0B4C0C0
:1015B000803C09F4A7C0883C09F4A4C0883B09F426
:1015C0008AC0AAC08091A90610C09091CB068091D4
:1015D000CA06981770F5E091CB0681E08E0F8093D4
:1015E000CB06F0E0E655F94F80818093BB0085EC97
:1015F00086C08093CC068EC0E091CB0681E08E0F32
:101600008093CB068091BB00F0E0E655F94F8083D4
:101610009091CB068091CA066EC0E091CB0681E026
:101620008E0F8093CB068091BB00F0E0E655F94F1A
:1016300080838091680281116DC081E08093670290
:1016400084EA61C083E0809369021092A606CFCF3E
:101650008091A606803208F051C0E091A60681E094
:101660008E0F8093A6068091BB00F0E0EA57F94FF9
:101670008083BDCF85EC8093BC001092690280917D
:10168000A606803230F4E091A606F0E0EA57F94F62
:1016900010826091A60670E0E0918406F0918506C4
:1016A00086E896E019951092A60636C084E08093ED
:1016B00069021092830610928206E0918006F091F2
:1016C0008106199580918206811105C081E0809381
:1016D000820610926006E091830681E08E0F80936F
:1016E0008306F0E0E05AF94F80818093BB0090912F
:1016F000830680918206981708F479CF85E8809355
:10170000BC000AC085EC8093BC001092690204C042
:101710001092CC060E949008FF91EF91BF91AF917B
:101720009F918F917F916F915F914F913F912F91F9
:101730000F900BBE0F900FBE0F901F901895CF9378
:10174000DF93282F30E0F901E952FD4F8491F90130
:10175000EF56FD4FD491F901E55BFD4FC491CC23C9
:1017600091F081110E944709EC2FF0E0EE0FFF1F6E
:10177000EF5CFD4FA591B491EC91ED2381E090E0F9
:1017800021F480E002C080E090E0DF91CF910895E5
:101790001F93CF93DF93282F30E0F901E952FD4FDB
:1017A0008491F901EF56FD4FD491F901E55BFD4FAE
:1017B000C491CC23C9F0162F81110E944709EC2F48
:1017C000F0E0EE0FFF1FE95EFD4FA591B4918FB7DA
:1017D000F894111105C09C91ED2FE095E92302C00A
:1017E000EC91ED2BEC938FBFDF91CF911F9108957A
:1017F000CF93DF9390E0FC01EF56FD4F2491FC0165
:10180000E55BFD4F8491882361F190E0880F991F7B
:10181000FC01E350FE4FC591D491FC01E95EFD4F00
:10182000A591B491611109C09FB7F8948881209562
:1018300082238883EC912E230BC0623061F49FB722
:10184000F8943881822F809583238883EC912E2B06
:101850002C939FBF06C08FB7F894E8812E2B288366
:101860008FBFDF91CF9108958F929F92AF92BF92D9
:10187000CF92DF92EF92FF926B017C010E942005D4
:101880004B015C01C114D104E104F104F1F00E94A8
:101890002005DC01CB0188199909AA09BB09883EFA
:1018A0009340A105B10570F321E0C21AD108E10807
:1018B000F10888EE880E83E0981EA11CB11CC114AB
:1018C000D104E104F10419F7DDCFFF90EF90DF9030
:1018D000CF90BF90AF909F908F900895789484B5EB
:1018E000826084BD84B5816084BD85B5826085BD1C
:1018F00085B5816085BD80916E00816080936E00AA
:10190000109281008091810082608093810080919B
:10191000810081608093810080918000816080934C
:1019200080008091B10084608093B1008091B0000C
:1019300081608093B00080919100826080939100DB
:1019400080919100816080939100809190008160EE
:10195000809390008091A10082608093A10080918B
:10196000A10081608093A1008091A000816080939C
:10197000A00080912101826080932101809121014A
:1019800081608093210180912001816080932001FA
:1019900080917A00846080937A0080917A008260DE
:1019A00080937A0080917A00816080937A008091A0
:1019B0007A00806880937A001092C10061E08DE027
:1019C0000E94F80BE091C403F091C50382E080838C
:1019D000E091C003F091C1031082E091C203F09145
:1019E000C3038FEC80831092CC03E091C803F09185
:1019F000C90386E08083E091C603F091C70380812C
:101A000080618083E091C603F091C7038081886084
:101A10008083E091C603F091C70380818068808352
:101A2000E091C603F091C70380818F7D808361E0E0
:101A300080912A060E94F80B60E080912A060E949D
:101A4000C80B60E0809129060E94F80B8EE692E0B8
:101A500090933406809333061092660210926502CA
:101A600010926B0210926D021092690281E08093D5
:101A700068021092670261E084E10E94C80B61E095
:101A800085E10E94C80B8091B9008E7F8093B900D8
:101A90008091B9008D7F8093B90088E48093B8006D
:101AA00085E48093BC0080E090E1A0E0B0E080930A
:101AB000360690933706A0933806B09339068AE02D
:101AC00090E0A0E0B0E080933A0690933B06A093AC
:101AD0003C06B0933D0682E090E0A0E0B0E0809349
:101AE0003E0690933F06A0934006B093410660E007
:101AF00070E185E00E941C0A6FE979E380E00E94B2
:101B00001C0AC6E4D6E0C12CD12CE12CF12C60E8F3
:101B1000462E62E0562E76EC872E72E0972EEBEC86
:101B2000AE2EE7E0BE2E9701275D394F3901F9014E
:101B3000948182818601075D194FF801818F928F10
:101B400061E00E94F80B61E0F801828D0E94F80BC1
:101B5000F301908586818883F801968F61E00E9469
:101B6000F80B60E0F801868D0E94F80B61E0888137
:101B70000E94C80B1FB7F89480915B02811125C0A9
:101B8000F2018491F4019491E82FF0E0EE0FFF1F31
:101B9000E350FE4FA591B4918C91982321F461E01C
:101BA00085E30E94C80B61E085E30E94F80B8CB5C9
:101BB00080618CBD8CB580648CBD61E084E30E9443
:101BC000F80B61E083E30E94F80B80915B028F5F6A
:101BD00080935B021FBFC5010197F1F760E0888128
:101BE0000E94C80B88E80E941D0383E00E941D0329
:101BF00061E088810E94C80BC5010197F1F7CE0111
:101C00000E944104F2E0CF0ED11C2296EA94EF2804
:101C100021F0EE24E394F12C86CFCEE4D6E01C2F05
:101C20001C5F60E089910E94F80B1C13FACF0DE550
:101C300016E0CAE5D6E095E0C92E2CE0E22E32E0AF
:101C4000B32EDC2ED394D394FE013897F080888194
:101C50008C3008F044C061E08F2D0E94F80B888121
:101C6000C89EF0011124ED5DFA4F9F2D9F732081D6
:101C7000207CF22EF92AF082138214826E2D0E94AB
:101C8000B7129CE0899FA001112420E030E0B90147
:101C9000640F751FC69EF001C79EF00D1124ED5D07
:101CA000FA4F908196FD12C02F5F3F4F2C303105C7
:101CB00071F781110BC010928000B09281001092D8
:101CC000850010928400B6BAB0926F00E881CE9E73
:101CD000F0011124ED5DFA4F808180648083FE0164
:101CE00034978081F80131978083F801808360E028
:101CF0000E94F80B61E0F80180810E94F80B60E01F
:101D0000F80180810E94C80B21960E5F1F4FDC12E4
:101D10009BCF82E3482E512C612C712C809151066F
:101D20000E949F0B892BD1F386E496E00E946C04FD
:101D300086E496E00E94410488E496E00E946C04E8
:101D400088E496E00E94410440E050E060E07FE3D8
:101D500082E496E00E94280340E050E060E07FEBE0
:101D600084E496E00E942803C12CD12C76012EE356
:101D700033EC4EEA58E3C701B6010E94CC126B0166
:101D80007C0120E030E040E05FE30E94521187FDDB
:101D9000EECF812C912C540186E496E00E946C04D5
:101DA00090958095709561957F4F8F4F9F4F0E94C2
:101DB00059112CE436EB47EF5BE30E94B81120E0A9
:101DC00030E04AE753E40E94521187FF14C088E4D0
:101DD00096E00E946C040E9459112CE436EB47EF08
:101DE0005BE30E94B81120E030E04AE753E40E9430
:101DF000521187FD18C040E050E0BA0182E496E03D
:101E00000E94280340E050E060E070E884E496E03F
:101E10000E9428036AE070E080E090E00E94340CA9
:101E20000E94F0027BCF86E496E00E946C046B0176
:101E30007C0188E496E00E946C04F094E094D094D5
:101E4000C094C11CD11CE11CF11CA7019601261BEA
:101E5000370B480B590BCA01B901A30192010E942B
:101E60007612CA01B9010E9459116B017C019B01D4
:101E7000AC01C501B4010E94CC124B015C0123EC02
:101E800035EF48E25EE3C701B6010E94B81120E0D9
:101E900030E040E85FE30E94CC126B017C012FE64A
:101EA00032E143E85AE3C501B4010E94B8119B0135
:101EB000AC01C701B6010E94CC1220E030E040E046
:101EC0005FE30E94B811AB01BC01705884E496E056
:101ED0000E94280362E370E080E090E00E94340CEE
:101EE0005BCF80916005909161050C94081410926D
:101EF00071021092700288EE93E0A0E0B0E080934F
:101F0000720290937302A0937402B09375022BE057
:101F100032E030936F0220936E0210927D02109295
:101F20007C0280937E0290937F02A0938002B09304
:101F300081022DE132E030937B0220937A0245E367
:101F400051E0509387024093860244E351E050935E
:101F500089024093880240E351E050938B02409302
:101F60008A0241E351E050938D0240938C0242E398
:101F700051E050938F0240938E0246E351E050931C
:101F80009102409390021092930210929402109248
:101F900095021092960210921A03109219038093E0
:101FA0001B0390931C03A0931D03B0931E03309357
:101FB00018032093170345ED50E0509324034093FA
:101FC000230344ED50E0509326034093250340ED56
:101FD00050E0509328034093270341ED50E0509385
:101FE0002A034093290342ED50E050932C03409381
:101FF0002B0346ED50E050932E0340932D03109297
:102000003003109231031092320310923303109276
:10201000B7031092B6038093B8039093B903A093CB
:10202000BA03B093BB033093B5032093B40385EC9C
:1020300090E09093C1038093C00384EC90E0909370
:10204000C3038093C20380EC90E09093C503809318
:10205000C40381EC90E09093C7038093C60382ECA5
:1020600090E09093C9038093C80386EC90E090932E
:10207000CB038093CA031092CD031092CE0310922B
:10208000CF031092D00386E380934A0687E38093C0
:102090004B0688E380934C0689E380934D068BE1E1
:1020A00080934E068DE180934F068AE1809350061F
:1020B0008CE18093510684E08093520687E0809300
:1020C00053061092540684EB8093550686E1809364
:1020D000560688E18093570687E18093580689E188
:1020E00080935906E0915F05EC3020F08FEF8093EC
:1020F0005A0610C081E08E0F80935F05E0935A0668
:1021000025E0E29FF0011124ED5DFA4F88EB9BE0A2
:1021100092838183E0915F05EC3020F08FEF809314
:102120005B0610C081E08E0F80935F05E0935B0635
:1021300085E0E89FF0011124ED5DFA4F88EB9BE00C
:10214000928381838CE08093290684E280932A061F
:1021500086E080932B0685E080932C068FE18093A8
:102160002D068EE180932E0683E280932F0682E275
:102170008093300685E48093310684E480933206B0
:1021800080E48093350610923A0610923B06109236
:102190003C0610923D0610923E0610923F061092A9
:1021A000400610924106EBE6F5E08FEF9FEFDC0171
:1021B000128213821482158216821782108611866B
:1021C00083879487A587B6878787908BA18BB28BEF
:1021D000128611821082739626E0E932F20741F7E7
:1021E0008DE090E00E947313FC01138212828FE253
:1021F00092E091838083118687E2848384E18287E1
:1022000084E083871486F0936805E0936705109255
:10221000690510926A0583E2809352041092540477
:10222000109261051092600510926305109262058C
:10223000109265051092640561E070E080E090E026
:102240000E94A014009789F0909361058093600527
:102250001092630510926205209164053091650526
:10226000232BC1F4FC01108215C080916005909170
:102270006105009711F00E940814109261051092F8
:102280006005109265051092640510926305109226
:1022900062050895109265051092640569E372E085
:1022A0000C9497150E94941108F481E00895E89425
:1022B00009C097FB3EF490958095709561957F4F8E
:1022C0008F4F9F4F9923A9F0F92F96E9BB2793953C
:1022D000F695879577956795B795F111F8CFFAF44C
:1022E000BB0F11F460FF1BC06F5F7F4F8F4F9F4F7D
:1022F00016C0882311F096E911C0772321F09EE8DB
:10230000872F762F05C0662371F096E8862F70E040
:1023100060E02AF09A95660F771F881FDAF7880F1A
:102320009695879597F90895990F0008550FAA0B70
:10233000E0E8FEEF16161706E807F907C0F01216D8
:102340001306E407F50798F0621B730B840B950BDB
:1023500039F40A2661F0232B242B252B21F4089530
:102360000A2609F4A140A6958FEF811D811D0895CD
:102370000E94CB110C943C120E942E1238F00E9445
:10238000351220F0952311F00C9425120C942B1289
:1023900011240C9470120E944D1270F3959FC1F39A
:1023A000950F50E0551F629FF001729FBB27F00D03
:1023B000B11D639FAA27F00DB11DAA1F649F662758
:1023C000B00DA11D661F829F2227B00DA11D621FA7
:1023D000739FB00DA11D621F839FA00D611D221F61
:1023E000749F3327A00D611D231F849F600D211D45
:1023F000822F762F6A2F11249F5750409AF0F1F0C8
:1024000088234AF0EE0FFF1FBB1F661F771F881F30
:1024100091505040A9F79E3F510580F00C94251231
:102420000C9470125F3FE4F3983ED4F38695779551
:102430006795B795F795E7959F5FC1F7FE2B880FD6
:10244000911D9695879597F9089597F99F6780E86C
:1024500070E060E008959FEF80EC089500240A94F6
:102460001616170618060906089500240A9412166F
:102470001306140605060895092E0394000C11F4A2
:10248000882352F0BB0F40F4BF2B11F460FF04C04F
:102490006F5F7F4F8F4F9F4F089557FD9058440FA8
:1024A000551F59F05F3F71F04795880F97FB991FB3
:1024B00061F09F3F79F08795089512161306140670
:1024C000551FF2CF4695F1DF08C0161617061806FD
:1024D000991FF1CF86957105610508940895E894D8
:1024E000BB2766277727CB0197F90895052E97FB21
:1024F0001EF400940E948D1257FD07D00E94951281
:1025000007FC03D04EF40C948D12509540953095F5
:1025100021953F4F4F4F5F4F08959095809570954F
:1025200061957F4F8F4F9F4F0895A1E21A2EAA1BEE
:10253000BB1BFD010DC0AA1FBB1FEE1FFF1FA21773
:10254000B307E407F50720F0A21BB30BE40BF50B70
:10255000661F771F881F991F1A9469F760957095F9
:10256000809590959B01AC01BD01CF010895991B09
:1025700079E004C0991F961708F0961B881F7A957A
:10258000C9F780950895EE0FFF1F881F8BBF079036
:10259000F691E02D19945058BB27AA270E94E31208
:1025A0000C943C120E942E1238F00E94351220F03A
:1025B00039F49F3F19F426F40C942B120EF4E09595
:1025C000E7FB0C942512E92F0E944D1258F3BA171D
:1025D000620773078407950720F079F4A6F50C9439
:1025E0006F120EF4E0950B2EBA2FA02D0B01B9013E
:1025F00090010C01CA01A0011124FF27591B99F079
:10260000593F50F4503E68F11A16F040A22F232F84
:10261000342F4427585FF3CF469537952795A795D4
:10262000F0405395C9F77EF41F16BA0B620B730B7B
:10263000840BBAF09150A1F0FF0FBB1F661F771FEC
:10264000881FC2F70EC0BA0F621F731F841F48F4A1
:10265000879577956795B795F7959E3F08F0B0CF2A
:102660009395880F08F09927EE0F97958795089511
:102670000E943F136894B1110C94701208950E9447
:10268000551288F09F5798F0B92F9927B751B0F09D
:10269000E1F0660F771F881F991F1AF0BA95C9F7E6
:1026A00014C0B13091F00E946F12B1E008950C9403
:1026B0006F12672F782F8827B85F39F0B93FCCF3B6
:1026C000869577956795B395D9F73EF49095809563
:1026D000709561957F4F8F4F9F4F08950E94941181
:1026E00008F48FEF0895CF93DF938230910510F4B3
:1026F00082E090E0E091EF06F091F00620E030E01B
:10270000C0E0D0E0309711F140815181481759075E
:10271000C0F04817590761F482819381209719F01E
:102720009B838A832BC09093F0068093EF0626C08C
:102730002115310519F04217530718F49A01BE010B
:10274000DF01EF010280F381E02DDCCF211531059F
:1027500009F1281B390B2430310590F412968D9124
:102760009C9113976115710521F0FB01938382837E
:1027700004C09093F0068093EF06FD01329644C0AA
:10278000FD01E20FF31F81939193225031092D93A4
:102790003C933AC02091ED063091EE06232B41F494
:1027A00020910302309104023093EE062093ED064F
:1027B00020910102309102022115310541F42DB71B
:1027C0003EB74091050250910602241B350BE09163
:1027D000ED06F091EE06E217F307A0F42E1B3F0B77
:1027E0002817390778F0AC014E5F5F4F2417350783
:1027F00048F04E0F5F1F5093EE064093ED06819315
:10280000919302C0E0E0F0E0CF01DF91CF91089515
:102810000F931F93CF93DF93009709F48CC0FC01B3
:102820003297138212820091EF061091F006011583
:10283000110581F420813181820F931F2091ED06D3
:102840003091EE062817390779F5F093EE06E093FC
:10285000ED0671C0D80140E050E0AE17BF0750F45C
:1028600012962D913C911397AD012115310509F177
:10287000D901F3CF9D01DA01338322836081718115
:10288000860F971F8217930769F4EC01288139811D
:10289000260F371F2E5F3F4F318320838A819B8114
:1028A00093838283452B29F4F093F006E093EF069F
:1028B00042C01396FC93EE931297ED014991599102
:1028C0009E01240F351FE217F30771F48081918177
:1028D000840F951F029611969C938E93828193810B
:1028E00013969C938E931297E0E0F0E0D801129635
:1028F0008D919C911397009719F0F8018C01F6CFF8
:102900008D919C9198012E5F3F4F820F931F2091D4
:10291000ED063091EE062817390769F4309729F44F
:102920001092F0061092EF0602C0138212821093EA
:10293000EE060093ED06DF91CF911F910F91089560
:102940006F927F928F929F92AF92BF92CF92DF92BF
:10295000EF92FF920F931F93CF93DF93EC010097B9
:1029600089F4CB01DF91CF911F910F91FF90EF90F0
:10297000DF90CF90BF90AF909F908F907F906F909F
:102980000C947313FC01E60FF71F9C0122503109D0
:10299000E217F30708F4ACC0D9010D911C9111970F
:1029A00006171707B0F00530110508F49FC0C801DD
:1029B00004978617970708F499C002501109061B5F
:1029C000170B019311936D937C93CF010E94081410
:1029D0008DC05B01A01AB10A4C01800E911EA0911E
:1029E000EF06B091F00640E050E0E12CF12C10979A
:1029F00009F44AC0A815B905D1F56D907C901197DE
:102A0000630182E0C80ED11CCA14DB0480F1A3016B
:102A10004A195B096A0182E0C80ED11C1296BC906B
:102A200012971396AC91B5E0CB16D10440F0B28268
:102A3000A38351834083D9016D937C930AC00E5FB9
:102A40001F4FC301800F911FF90191838083EB2DEC
:102A5000FA2FE114F10431F0D7011396FC93EE93B1
:102A6000129744C0F093F006E093EF063FC08D91BB
:102A70009C9111974817590708F4AC017D011296F3
:102A80000D90BC91A02DB3CF8091ED069091EE06F4
:102A900088159905E1F446175707C8F4809101029B
:102AA00090910202009741F48DB79EB740910502C4
:102AB00050910602841B950BE817F907C8F4F093B0
:102AC000EE06E093ED06F901718360830FC0CB0140
:102AD0000E9473137C01009759F0A801BE010E9467
:102AE0008E15CE010E940814C70104C0CE0102C099
:102AF00080E090E0DF91CF911F910F91FF90EF90D8
:102B0000DF90CF90BF90AF909F908F907F906F900D
:102B1000089581E090E0F8940C949E15FB01DC018F
:102B200002C001900D9241505040D8F70895FB012A
:102B3000DC0101900D920020E1F7089511E0C0E959
:102B4000D1E000E006C0802FFE010E94C312219652
:102B5000011DC139D10780E00807A9F7F894FFCF1C
:102B6000FF0000F1062000000000001809E8082519
:102B700003C208E008D108C308000000008402C4B2
:102B8000010802CB02390217022B0200000000FBF1
:0A2B900004C401250324030D0A000C
:00000001FF
