:100000000C9484010C94B5010C94B5010C94B501C9
:100010000C94B5010C94B5010C94B5010C94B50188
:100020000C94B5010C9414060C9414060C9414064C
:100030000C94B5010C94FE0A0C94B5010C94B50116
:100040000C94B5010C94D30E0C94B5010C94B5012D
:100050000C94B5010C94B5010C94B5010C944308B3
:100060000C94B5010C946F0C0C94450C0C94B501D8
:100070000C94B5010C94B5010C94B5010C94B50128
:100080000C94A50E0C94B5010C94B5010C94B5011B
:100090000C94B5010C94B5010C94B5010C941E069A
:1000A0000C94B5010C94B5010C94770E0C94B50129
:1000B0000C94B5010C94B5010C94B5010C94490E47
:1000C0000C94B5010C94B5010C94B5010C941B0C67
:1000D0000C94F10B0C94B5010C94C70B0C949D0B74
:1000E0000C94B5017F078207710775077907B90777
:1000F00086078A079007940798079E07A207A60716
:10010000B907AC07B007B407F90CFE0C030D0D0DD1
:10011000170D900D210D290D310D3B0D450D4F0D86
:100120005E0D680D900D720D7C0D860D0C948D0882
:100130000C94BE050C94170D0C94900D0C94710743
:100140000C9479070C94720D0C9477050C94980715
:100150000C947C0D0C9475070C940E120C940209EF
:100160000C94B9070C94FE0C0C94D1080C944D0916
:100170000C948A070C94B4070C944F0D0C94F4085B
:100180000C9468050C948E050C94A6070C946905D4
:100190000C94E7090C9494090C94D90A0C94A207C6
:1001A0000C9486050C949E070C94680D0C94030D1A
:1001B0000C9414120C9494070C943B0D0C947F0730
:1001C0000C94450D0C940D0D0C94F90C0C94E6094F
:1001D0000C94290D0C945E0D0C94E0080C94860789
:1001E0000C9490070C94AC070C94210D0C94B00760
:1001F0000C94310D0C94860D0C94820700002100A4
:10020000240027002A002D003000330001010000E7
:10021000040107010A0100002200250028002B002C
:100220002E003100340002010000050108010B011D
:1002300005050505070508080808020202020A0A62
:100240000808040404040101010101010101030380
:10025000030303030303040707070C0C0C0C0C0C2B
:100260000C0C0202020206060606060606060B0B28
:100270000B0B0B0B0B0B0102102020080810204069
:10028000102040800201020108040201010204085A
:1002900010204080804020100804020180040201E8
:1002A0008040201008040201080402010102040831
:1002B00010204080010204081020408000000A0B3A
:1002C00002090C0D0E0807030401000000000000E5
:1002D000000000000000000000000000000000001E
:1002E00000000000000000001211100000000000DB
:1002F00000000000000000000000000000000000FE
:100300000000020014120E1211241FBECFEFD1E222
:10031000DEBFCDBF00E00CBF12E0A0E0B2E0E0E83D
:10032000F1E300E00BBF02C007900D92A833B107C4
:10033000D9F726E0A8E3B2E001C01D92A831B207C8
:10034000E1F711E0C3E8D1E000E006C02197010920
:10035000802FFE010E946115C238D10780E0080796
:10036000A9F70E94CD0F0C94AE180C9400004F9288
:100370005F926F927F928F929F92AF92BF92CF9235
:10038000DF92EF92FF926B017C0186EF95E00E9475
:10039000B90D88EF95E00E94B90D20E030E0A90189
:1003A000C701B6010E947E1618160CF0BBC086EF7E
:1003B00095E00E94E40D90958095709561957F4F32
:1003C0008F4F9F4F0E94F71324E531ED4AE95DE31B
:1003D0000E94561420E030E046E153E40E94F013FE
:1003E00087FF58C086EF95E00E94E40D90958095B8
:1003F000709561957F4F8F4F9F4F0E94F71324E5B3
:1004000031ED4AE95DE30E94561420E030E046E118
:1004100053E40E94D6159B01AC01C701B6010E94AE
:10042000561428EB3EE145E05EE30E946A15AB01FD
:10043000BC01705884EF95E00E94990C86EF95E01E
:100440000E94E40D90958095709561957F4F8F4F38
:100450009F4F0E94F71324E531ED4AE95DE30E94C6
:10046000561420E030E046E153E40E94D6159B018B
:10047000AC01C701B6010E94561428EB3EE145E0ED
:100480005EE30E946A15AB01BC0182EF95E00E9419
:10049000990C8DCFB701A60182EF95E00E94990CCF
:1004A000B701A601705884EF95E00E94990C86EF81
:1004B00095E00E94B90D88EF95E00E94B90D812C5E
:1004C000912C540186EF95E00E94E40D9095809563
:1004D000709561957F4F8F4F9F4F0E94F71324E5D2
:1004E00031ED4AE95DE30E94561420E030E046E930
:1004F00054E40E94F01387FFD3C088EF95E00E9478
:10050000E40D0E94F71324E531ED4AE95DE30E9412
:10051000561420E030E046E954E40E94F01387FDD1
:100520005FC1BEC086EF95E00E94E40D9095809576
:10053000709561957F4F8F4F9F4F0E94F71324E571
:1005400031ED4AE95DE30E94561420E030E046E1D7
:1005500053EC0E947E1618160CF058C086EF95E0FA
:100560000E94E40D90958095709561957F4F8F4F17
:100570009F4F0E94F71324E531ED4AE95DE30E94A5
:10058000561420E030E046E153E40E94D6159B016A
:10059000AC01C701B6010E94561428EB3EE145E0CC
:1005A0005EE30E946915AB01BC01705884EF95E0D1
:1005B0000E94990C86EF95E00E94E40D909580953D
:1005C000709561957F4F8F4F9F4F0E94F71324E5E1
:1005D00031ED4AE95DE30E94561420E030E046E147
:1005E00053E40E94D6159B01AC01C701B6010E94DD
:1005F000561428EB3EE145E05EE30E946915AB012D
:10060000BC0182EF95E00E94990C8CCFB701A60146
:1006100082EF95E00E94990CB701A601705884EF13
:1006200095E00E94990C86EF95E00E94B90D88EF45
:1006300095E00E94B90D812C912C540186EF95E034
:100640000E94E40D90958095709561957F4F8F4F36
:100650009F4F0E94F71324E531ED4AE95DE30E94C4
:10066000561420E030E046E954EC0E947E1618163D
:100670000CF016C188EF95E00E94E40D0E94F7137C
:1006800024E531ED4AE95DE30E94561420E030E0B4
:1006900046E954EC0E947E1618160CF487C100C17E
:1006A00086EF95E00E94B90D88EF95E00E94B90DA4
:1006B00086EF95E00E94E40D909580957095619588
:1006C0007F4F8F4F9F4F0E94F71324E531ED4AE98A
:1006D0005DE30E94561420E030E046E153E40E94BE
:1006E000F01387FF62C028EB3EE145E05EE3C701FF
:1006F000B6010E946A154B015C0186EF95E00E94ED
:10070000E40D90958095709561957F4F8F4F9F4F29
:100710000E94F71324E531ED4AE95DE30E94561487
:1007200020E030E046E153E40E94D6159B01AC0185
:10073000C701B6010E9456149B01AC01C501B4016A
:100740000E946915AB01BC01705884EF95E00E94CE
:10075000990C86EF95E00E94E40D90958095709538
:1007600061957F4F8F4F9F4F0E94F71324E531ED26
:100770004AE95DE30E94561420E030E046E153E48C
:100780000E94D6159B01AC01C701B6010E94561408
:100790009B01AC01C501B4010E946915AB01BC010C
:1007A00082EF95E00E94990C83CF40E050E0BA01BF
:1007B00082EF95E00E94990C40E050E060E070E824
:1007C00084EF95E0FF90EF90DF90CF90BF90AF90D7
:1007D0009F908F907F906F905F904F900C94990CAA
:1007E00086EF95E00E94E40D2B013C0188EF95E037
:1007F0000E94E40D7094609450944094411C511CEC
:10080000611C711CA3019201261B370B480B590B6D
:10081000CA01B90122E330E040E050E00E94141523
:10082000CA01B9010E94F7132B013C019B01AC01E5
:10083000C501B4010E946A154B015C012DEC3CEC32
:100840004CE45EE3C301B2010E9456142B013C014B
:100850002AE037ED43EA5CE3C501B4010E94561477
:100860009B01AC01C301B2010E946A1520E030E097
:1008700040E85FE30E946A159B01AC01C701B60125
:100880000E945614AB01BC01705884EF95E00E94A1
:10089000990C62E370E080E090E00E94090812CEBB
:1008A00086EF95E00E94B90D88EF95E00E94B90DA2
:1008B00086EF95E00E94E40D909580957095619586
:1008C0007F4F8F4F9F4F0E94F71324E531ED4AE988
:1008D0005DE30E94561420E030E046E153EC0E94B4
:1008E0007E1618160CF061CF28EB3EE145E05EE382
:1008F000C701B6010E9469154B015C0186EF95E0C6
:100900000E94E40D90958095709561957F4F8F4F73
:100910009F4F0E94F71324E531ED4AE95DE30E9401
:10092000561420E030E046E153E40E94D6159B01C6
:10093000AC01C701B6010E9456149B01AC01C50170
:10094000B4010E946915AB01BC01705884EF95E0B9
:100950000E94990C86EF95E00E94E40D9095809599
:10096000709561957F4F8F4F9F4F0E94F71324E53D
:1009700031ED4AE95DE30E94561420E030E046E1A3
:1009800053E40E94D6159B01AC01C701B6010E9439
:1009900056149B01AC01C501B4010E946915AB015D
:1009A000BC0182EF95E00E94990C82CF86EF95E022
:1009B0000E94E40D2B013C0188EF95E00E94E40DBC
:1009C0007094609450944094411C511C611C711CA3
:1009D000A3019201261B370B480B590BCA01B90121
:1009E00022E330E040E050E00E941415CA01B90152
:1009F0000E94F7132B013C019B01AC01C501B4011E
:100A00000E946A154B015C012DEC3CEC4CE45EE36A
:100A1000C301B2010E9456142B013C012AE037EDBC
:100A200043EA5CE3C501B4010E9456149B01AC018A
:100A3000C301B2010E946A1520E030E040E85FE3A4
:100A40000E946A159B01AC01C701B6010E945614B1
:100A5000AB01BC01705884EF95E00E94990C62E3F1
:100A600070E080E090E00E940908E8CD85ED809379
:100A7000BC008091BC0084FDFCCF1092D702089589
:100A800040916602262F30E0240F311D21323105BE
:100A9000DCF42091D7022430C9F4FC0180E090E01E
:100AA000861758F4309166022191DC01AC5BBD4F92
:100AB000A30FB11D2C930196F3CF80916602680FAE
:100AC0006093660280E0089581E0089582E00895D1
:100AD000089581E090E03091430220914202321764
:100AE00010F480E090E091958195910908958091AE
:100AF000430290914202891730F48F5F8093430242
:100B000080E090E008958FEF9FEF0895809142027A
:100B100090E020914302821B91090895CF92DF92C9
:100B2000EF92FF920F931F93CF93DF937C01262FB9
:100B3000972F8A018091D802882391F0C62FD72F52
:100B40006E01C40ED51ECC15DD0571F06991D7017B
:100B5000ED91FC910190F081E02DC7011995F3CF43
:100B6000642F822F0E944005C801DF91CF911F9111
:100B70000F91FF90EF90DF90CF900895CF93DF9388
:100B80001F92CDB7DEB769832091D8022223D1F01E
:100B90002091FB02203240F021E030E0FC01338361
:100BA000228380E090E015C08091D902E82FF0E028
:100BB000E652FD4F998190838F5F8093D902809395
:100BC000FB0205C061E0CE0101960E94400581E074
:100BD00090E00F90DF91CF9108953FB7F894809106
:100BE0003E0290913F02A0914002B091410226B591
:100BF000A89B05C02F3F19F00196A11DB11D3FBF55
:100C0000BA2FA92F982F8827820F911DA11DB11DE2
:100C1000BC01CD0142E0660F771F881F991F4A95DE
:100C2000D1F708950E9499181F920F920FB60F9254
:100C300011240F900FBE0F901F9018951F920F92C6
:100C40000FB60F9211240BB60F922F933F934F9331
:100C50005F936F937F938F939F93AF93BF93EF9324
:100C6000FF938091B900887F803609F49CC068F5B5
:100C7000883209F45BC090F4803109F454C038F430
:100C8000882309F4F6C0883009F44DC0F6C08831D5
:100C900009F44CC0803209F45DC0EFC0803409F41F
:100CA00068C048F4803309F455C0883309F0E5C0C2
:100CB0008093D502D8C0803509F44FC0883509F437
:100CC0005DC0883409F0D9C0D6C0883909F4C7C0DE
:100CD000A8F4883709F467C038F4883609F463C08B
:100CE000803709F460C0C9C0883809F4B8C08039B9
:100CF00009F45FC0803809F0C0C05BC0803B09F4D4
:100D000086C038F4803A09F466C0883A09F47FC096
:100D1000B4C0803C09F4A7C0883C09F4A4C0883B57
:100D200009F48AC0AAC08091B20210C09091D40286
:100D30008091D302981770F5E091D40281E08E0F74
:100D40008093D402F0E0ED54FD4F80818093BB008E
:100D500085EC86C08093D5028EC0E091D40281E0FC
:100D60008E0F8093D4028091BB00F0E0ED54FD4FD4
:100D700080839091D4028091D3026EC0E091D4021E
:100D800081E08E0F8093D4028091BB00F0E0ED549F
:100D9000FD4F80838091D60281116DC081E08093E8
:100DA000B10284EA61C083E08093D70210928A0284
:100DB000CFCF80918A02803208F051C0E0918A0240
:100DC00081E08E0F80938A028091BB00F0E0E659AB
:100DD000FD4F8083BDCF85EC8093BC001092D7027D
:100DE00080918A02803230F4E0918A02F0E0E65984
:100DF000FD4F108260918A0270E0E0916802F091EC
:100E000069028AE692E0199510928A0236C084E05F
:100E10008093D7021092670210926602E0916402FA
:100E2000F0916502199580916602811105C081E0FB
:100E30008093660210924402E091670281E08E0F77
:100E400080936702F0E0EC5BFD4F80818093BB00F4
:100E50009091670280916602981708F479CF85E82F
:100E60008093BC000AC085EC8093BC001092D7022E
:100E700004C01092D5020E943605FF91EF91BF91F8
:100E8000AF919F918F917F916F915F914F913F9122
:100E90002F910F900BBE0F900FBE0F901F901895C3
:100EA000362F90E0FC01E454FD4F4491FC01EA58D8
:100EB000FD4F2491FC01E05DFD4F9491992309F4CD
:100EC0006BC0442309F455C050E0FA013197E23178
:100ED000F10508F04EC08827EE58FF4F8F4F0C9455
:100EE0006115809180008F7707C0809180008F7D91
:100EF00003C080918000877F809380003AC084B5D2
:100F00008F7702C084B58F7D84BD33C08091B000DF
:100F10008F7703C08091B0008F7D8093B00029C08F
:100F2000809190008F7707C0809190008F7D03C0E3
:100F300080919000877F809390001BC08091A000DB
:100F40008F7707C08091A0008F7D03C08091A000A3
:100F5000877F8093A0000DC0809120018F7707C00C
:100F6000809120018F7D03C080912001877F809335
:100F70002001E92FF0E0EE0FFF1FEA5EFD4FA59183
:100F8000B4918FB7F894EC91311103C020952E23C2
:100F900001C02E2B2C938FBF0895CF93DF9390E049
:100FA000FC01EA58FD4F2491FC01E05DFD4F849166
:100FB000882361F190E0880F991FFC01E450FE4FF7
:100FC000C591D491FC01EA5EFD4FA591B4916111E8
:100FD00009C09FB7F8948881209582238883EC917B
:100FE0002E230BC0623061F49FB7F8943881822FB2
:100FF000809583238883EC912E2B2C939FBF06C072
:101000008FB7F894E8812E2B28838FBFDF91CF9183
:1010100008958F929F92AF92BF92CF92DF92EF92FC
:10102000FF926B017C010E94ED054B015C01C11434
:10103000D104E104F104F1F00E94ED05DC01CB01E3
:1010400088199909AA09BB09883E9340A105B105F1
:1010500070F321E0C21AD108E108F10888EE880E89
:1010600083E0981EA11CB11CC114D104E104F10459
:1010700019F7DDCFFF90EF90DF90CF90BF90AF904A
:101080009F908F9008951F920F920FB60F92112488
:101090002F933F938F939F93AF93BF9380913A0287
:1010A00090913B02A0913C02B0913D0230913902F7
:1010B00023E0230F2D3720F40196A11DB11D05C09B
:1010C00026E8230F0296A11DB11D209339028093BB
:1010D0003A0290933B02A0933C02B0933D02809170
:1010E0003E0290913F02A0914002B09141020196D0
:1010F000A11DB11D80933E0290933F02A093400238
:10110000B0934102BF91AF919F918F913F912F91E9
:101110000F900FBE0F901F901895CF92DF92EF9215
:10112000FF920F931F93CF93DF936C017A018B0192
:10113000C0E0D0E0CE15DF0589F0D8016D918D01BA
:10114000D601ED91FC910190F081E02DC601199539
:10115000892B11F47E0102C02196ECCFC701DF91EB
:10116000CF911F910F91FF90EF90DF90CF90089556
:10117000FC01A089B1898C91A689B78982FD0FC035
:101180009C91818D8F5F8F73228D821749F0218D05
:10119000DF01A20FB11D5D969C93818F08958C9104
:1011A0000895FC01538D448D252F30E0842F90E06D
:1011B000821B930B541710F0CF9608950197089552
:1011C000FC01918D828D981761F0828DDF01A80F4F
:1011D000B11D5D968C91928D9F5F9F73928F90E071
:1011E00008958FEF9FEF0895FC01918D828D9817E0
:1011F00031F0828DE80FF11D858D90E008958FEF1D
:101200009FEF0895FC01918D228D892F90E0805CE5
:101210009F4F821B91098F739927089588E093E06F
:101220000E94020921E0892B09F420E0822F089511
:1012300085EA93E00E94020921E0892B09F420E06D
:10124000822F089582E494E00E94020921E0892B14
:1012500009F420E0822F0895FC01848DDF01A80F9E
:10126000B11DA35ABF4F2C91848D90E001968F73CE
:101270009927848FA689B7892C93A089B1898C91ED
:1012800080648C93938D848D981306C00288F389B3
:10129000E02D80818F7D80830895EF92FF920F93E0
:1012A0001F93CF93DF93EC0181E0888F9B8D8C8D12
:1012B000981305C0E889F989808185FD24C0F62E40
:1012C0000B8D10E00F5F1F4F0F731127E02E8C8DD9
:1012D000E8120CC00FB607FCFACFE889F9898081C3
:1012E00085FFF5CFCE010E942C09F1CF8B8DFE0139
:1012F000E80FF11DE35AFF4FF0820B8FEA89FB895B
:101300008081806207C0EE89FF896083E889F9895E
:1013100080818064808381E090E0DF91CF911F9194
:101320000F91FF90EF900895CF93DF93EC01888D9C
:101330008823C9F0EA89FB89808185FD05C0A889D9
:10134000B9898C9186FD0FC00FB607FCF5CF80815F
:1013500085FFF2CFA889B9898C9185FFEDCFCE01A9
:101360000E942C09E7CFDF91CF910895E0E0F0E0F3
:10137000199480E090E0892B21F00E9422098111CC
:1013800019C080E090E0892B41F080E090E0892B4B
:1013900021F00E940000811110C00E9418098111E3
:1013A0000FC080E090E0892B81F00E940E0981112E
:1013B0000AC008950E940000E4CF0E940000EDCF13
:1013C0000E94B609EECF0C9400000895089580E0C5
:1013D00090E00895CF92DF92EF92FF920F931F93C8
:1013E000CF93DF936C018B017A01EC01CA55DD4F7D
:1013F000888187FF04C0FB011182108224C08CE029
:101400008C9D90018D9D300D11248881A901480F7C
:10141000511D87FD5A9580916F0590E04817590737
:1014200094F48881A901480F511D87FD5A95CA017E
:10143000FA01EE0FFF1F8E0F9F1FFC01E152FB4FC1
:10144000808186FD19C088818F5F88838CE08C9DA8
:1014500090018D9D300D11248881A901480F511DE7
:1014600087FD5A9580916F0590E048175907BCF4A5
:1014700088818C3044F113C08881280F311D87FD8D
:101480003A95F901EE0FFF1F2E0F3F1FF901E152B0
:10149000FB4F808160E08F730E945007D4CFF8012A
:1014A00080819181049680349C4918F480E49CE901
:1014B00004C0F801808191810496F70191838083B3
:1014C0008FEF888345C0F801408151818881B9013F
:1014D000680F711D87FD7A95CB01FB01EE0FFF1F91
:1014E0008E0F9F1FFC01E152FB4F81819281840F7F
:1014F000951FF701918380838881A901480F511DB1
:1015000087FD5A95CA01FA01EE0FFF1F8E0F9F1F2C
:10151000FC01E152FB4F808186FF1AC08881280FB1
:10152000311D87FD3A95F901EE0FFF1F2E0F3F1F6A
:10153000F901E152FB4F808161E08F73DF91CF9120
:101540001F910F91FF90EF90DF90CF900C94500778
:10155000DF91CF911F910F91FF90EF90DF90CF908F
:101560000895FC01248131E03093D8022093FA02DF
:101570001092D9021092FB028485682B8CEF92E0C6
:101580000E94BE050C94290F0F931F93CF938C01DB
:10159000C62F64600E94B10A6C2F6B7FC8010E9445
:1015A000B10A83EC90E00197F1F7CF911F910F9171
:1015B00008950F931F93CF93DF938C01C62FD62FDF
:1015C000D07FD1606D2F0E94B10A6D2FC8010E949B
:1015D000C40A80E1C89FB0011124C62FC1606C2FDE
:1015E000C8010E94B10A6C2FC8010E94C40A81E0A0
:1015F00090E0DF91CF911F910F9108951F920F926C
:101600000FB60F9211240BB60F922F933F934F9367
:101610005F936F937F938F939F93AF93BF93EF935A
:10162000FF938091AD029091AE02A091AF02B09174
:10163000B002892B8A2B8B2B59F18091AC02E0915F
:10164000AA02F091AB029081892780838091AD023C
:101650009091AE02A091AF02B091B0021816190697
:101660001A061B060CF056C08091AD029091AE0296
:10167000A091AF02B091B0020197A109B109809386
:10168000AD029093AE02A093AF02B093B00242C0FD
:1016900080910002E2E0F3E0E4919FEF909300027A
:1016A000E230C9F050F4EE2399F0E13081F59091E9
:1016B0006F009D7F90936F002AC0E43019F1E0F035
:1016C000E53029F5909173009D7F909373001FC0C2
:1016D00010926E001CC0909170009D7F90937000DE
:1016E00091E09093B0009091B100987F94609093B6
:1016F000B1001092B3000BC0909171009D7F909348
:10170000710005C0909172009D7F9093720060E01F
:101710000E945007FF91EF91BF91AF919F918F91E0
:101720007F916F915F914F913F912F910F900BBEE1
:101730000F900FBE0F901F9018951F920F920FB62B
:101740000F9211240BB60F922F933F934F935F93F9
:101750006F937F938F939F93AF93BF93EF93FF9379
:1017600088E093E00E942C09FF91EF91BF91AF9127
:101770009F918F917F916F915F914F913F912F91A9
:101780000F900BBE0F900FBE0F901F9018951F92D9
:101790000F920FB60F9211240BB60F922F933F9317
:1017A0004F935F936F937F938F939F93AF93BF9369
:1017B000EF93FF9388E093E00E94B808FF91EF91C8
:1017C000BF91AF919F918F917F916F915F914F9159
:1017D0003F912F910F900BBE0F900FBE0F901F9057
:1017E00018951F920F920FB60F9211240BB60F92FD
:1017F0002F933F934F935F936F937F938F939F9319
:10180000AF93BF93EF93FF9385EA93E00E942C0977
:10181000FF91EF91BF91AF919F918F917F916F91C8
:101820005F914F913F912F910F900BBE0F900FBE84
:101830000F901F9018951F920F920FB60F921124C0
:101840000BB60F922F933F934F935F936F937F93BA
:101850008F939F93AF93BF93EF93FF9385EA93E0AA
:101860000E94B808FF91EF91BF91AF919F918F9126
:101870007F916F915F914F913F912F910F900BBE90
:101880000F900FBE0F901F9018951F920F920FB6DA
:101890000F9211240BB60F922F933F934F935F93A8
:1018A0006F937F938F939F93AF93BF93EF93FF9328
:1018B00082E494E00E942C09FF91EF91BF91AF91D7
:1018C0009F918F917F916F915F914F913F912F9158
:1018D0000F900BBE0F900FBE0F901F9018951F9288
:1018E0000F920FB60F9211240BB60F922F933F93C6
:1018F0004F935F936F937F938F939F93AF93BF9318
:10190000EF93FF9382E494E00E94B808FF91EF9177
:10191000BF91AF919F918F917F916F915F914F9107
:101920003F912F910F900BBE0F900FBE0F901F9005
:1019300018958F929F92AF92BF92CF92DF92EF92C3
:10194000FF920F931F93CF93DF93EC016A017B010A
:1019500020E030E04FE753E4C701B6010E9456147F
:101960004B015C0120E030E0A9010E947E161816B0
:101970001CF4C501B40103C0C501B40190580E9414
:1019800048168B0120E030E0A901C701B6010E9492
:101990007E16181614F460E001C061E089810E948F
:1019A00050070F3F110509F014F4112702C00FEF83
:1019B00010E0C88161E08C2F0E94CD070115110550
:1019C00009F4B1C00F3F110509F4AFC0EC2FF0E0EE
:1019D000E454FD4FE4914E2F50E0FA013197E2318B
:1019E000F10508F09DC08827EC57FF4F8F4F0C94EE
:1019F000611584B5806884BD07BDA7C084B58062C9
:101A000084BD08BDA2C08091800080688093800062
:101A1000109389000093880098C0809180008062B4
:101A20008093800010938B0000938A008EC0809179
:101A3000800088608093800010938D0000938C005C
:101A400084C08091B00080688093B0000093B300A0
:101A50007CC08091B00080628093B0000093B4009D
:101A600074C08091900080688093900010939900DA
:101A7000009398006AC080919000806280939000EB
:101A800010939B0000939A0060C080919000886042
:101A90008093900010939D0000939C0056C080910D
:101AA000A00080688093A0008091A0008F7B80932D
:101AB000A0001093A9000093A80047C08091A00047
:101AC00080628093A0001093AB000093AA003DC0F9
:101AD0008091A00088608093A0001093AD000093D7
:101AE000AC0033C080912001806880932001109366
:101AF00029010093280129C08091200180628093F0
:101B0000200110932B0100932A011FC08091200116
:101B100088608093200110932D0100932C0115C043
:101B20000038110514F460E001C061E08C2FDF91F2
:101B3000CF911F910F91FF90EF90DF90CF90BF90CA
:101B4000AF909F908F900C945007DF91CF911F9191
:101B50000F91FF90EF90DF90CF90BF90AF909F904C
:101B60008F9008958EBD00000DB407FEFDCF8EB599
:101B70000895CF93DF93EC0160E088810E945007C5
:101B800088E90E94B20D80E00E94B20D80E00E94C0
:101B9000B20D80E00E94B20D80E00E94B20D61E0C3
:101BA00088810E9450078BE891E00197F1F760E08F
:101BB00088810E94500780EE0E94B20D61E088810A
:101BC000DF91CF910C945007AF92BF92CF92DF92EA
:101BD000EF92FF920F931F93CF93DF93CDB7DEB7B2
:101BE00060970FB6F894DEBF0FBECDBF5C0160E01A
:101BF000FC0180810E94500780E60E94B20D8E0198
:101C00000F5F1F4F7E01F1E1EF0EF11C680180E0D4
:101C10000E94B20D90E0A0E0B0E0F60181939193B4
:101C2000A193B1936F01EE15FF0589F761E0F5010E
:101C300080810E94500780E090E0DC01F801419132
:101C40005191619171918F01BA2FA92F982F8827F7
:101C5000840F951FA61FB71FEE15FF0579F79C018E
:101C6000AD0166277727CB01621B730B840B950BA5
:101C700060960FB6F894DEBF0FBECDBFDF91CF9157
:101C80001F910F91FF90EF90DF90CF90BF90AF909A
:101C900008951F920F920FB60F9211240BB60F9258
:101CA0002F933F934F935F936F937F938F939F9364
:101CB000AF93BF93EF93FF9348E251E064E271E08A
:101CC00080E090E00E94EA09FF91EF91BF91AF910F
:101CD0009F918F917F916F915F914F913F912F9144
:101CE0000F900BBE0F900FBE0F901F9018951F9274
:101CF0000F920FB60F9211240BB60F922F933F93B2
:101D00004F935F936F937F938F939F93AF93BF9303
:101D1000EF93FF9348EA50E064EA70E083E090E0DC
:101D20000E94EA09FF91EF91BF91AF919F918F912E
:101D30007F916F915F914F913F912F910F900BBECB
:101D40000F900FBE0F901F9018951F920F920FB615
:101D50000F9211240BB60F922F933F934F935F93E3
:101D60006F937F938F939F93AF93BF93EF93FF9363
:101D700048E950E064E970E082E090E00E94EA09FE
:101D8000FF91EF91BF91AF919F918F917F916F9153
:101D90005F914F913F912F910F900BBE0F900FBE0F
:101DA0000F901F9018951F920F920FB60F9211244B
:101DB0000BB60F922F933F934F935F936F937F9345
:101DC0008F939F93AF93BF93EF93FF9348E850E0B7
:101DD00064E870E081E090E00E94EA09FF91EF91F1
:101DE000BF91AF919F918F917F916F915F914F9133
:101DF0003F912F910F900BBE0F900FBE0F901F9031
:101E00001895E2E4F4E0A089B18982E08C93A4857E
:101E1000B5851C92A685B7858FEC8C93108EA4890E
:101E2000B58986E08C93A289B3898C9180618C936B
:101E3000A289B3898C9188608C93A289B3898C9193
:101E400080688C930288F389E02D80818F7D808368
:101E500008952091FB029091FA02213208F04AC0C5
:101E60008091D7028111FCCF32E03093D70231E06C
:101E70003093D6023FEF3093D5021092D4022093D4
:101E8000D302AAEDB2E043EB52E0FA013E2F341B3D
:101E9000321718F43D913193F9CF1092B20220918C
:101EA000B202990F922B9093B2029091B1029130AD
:101EB00061F41092B1029091B2029093BB009091A4
:101EC000BC0093FDF8CF95EC01C095EE9093BC005B
:101ED0009091D7029230E1F39091D5029F3F79F033
:101EE0008091D502803241F08091D502803331F06B
:101EF00084E005C081E003C082E001C083E010926D
:101F0000D9021092FB021092D8020895EF92FF922C
:101F10001F93CF93DF931F92CDB7DEB7162F99EDA6
:101F2000E92E95E0F92ED7011C969C911C9721E093
:101F30002093D8029093FA021092D9021092FB02D9
:101F40001A960D90BC91A02DED91FC9111970190E6
:101F5000F081E02D682FCD0179831995F7018285F5
:101F60009385DC01ED91FC910190F081E02D798168
:101F7000672F1995F70182859385DC01ED91FC911E
:101F80000190F081E02D612F19950F90DF91CF9195
:101F90001F91FF90EF900C94290F789484B5826084
:101FA00084BD84B5816084BD85B5826085BD85B5FD
:101FB000816085BD80916E00816080936E0010927B
:101FC00081008091810082608093810080918100F6
:101FD0008160809381008091800081608093800087
:101FE0008091B10084608093B1008091B0008160E5
:101FF0008093B000809191008260809391008091E5
:102000009100816080939100809190008160809325
:1020100090008091A10082608093A1008091A10036
:1020200081608093A1008091A00081608093A000D6
:102030008091210182608093210180912101816042
:102040008093210180912001816080932001809103
:102050007A00846080937A0080917A008260809315
:102060007A0080917A00816080937A0080917A0072
:10207000806880937A001092C1000E94010F0E9434
:10208000010F61E08091DA050E94CD0760E0809148
:10209000DA050E94500760E08091D9050E94CD07C3
:1020A0008CEF92E09093E4058093E3051092430255
:1020B000109242021092D9021092FB021092D702A3
:1020C00081E08093D6021092B10261E084E10E9427
:1020D000500761E085E10E9450078091B9008E7F32
:1020E0008093B9008091B9008D7F8093B90088E416
:1020F0008093B80085E48093BC0080E090E1A0E08C
:10210000B0E08093E6059093E705A093E805B093CF
:10211000E9058AE090E0A0E0B0E08093EA059093C2
:10212000EB05A093EC05B093ED0580E090E0A0E016
:10213000B0E48093EE059093EF05A093F005B09383
:10214000F10560E070E185E00E94860F6FE979E3B8
:1021500080E00E94860FC6EFD5E0C12CD12CE12C87
:10216000F12C45E6642E42E0742E5BEA852E52E0A7
:10217000952E6BECA62E67E0B62EC70187529A4FBC
:102180002C01DC0114969C91149712968C91860177
:1021900007521A4FF801818F928F61E00E94CD079C
:1021A00061E0D8015A968C910E94CD07F20190858A
:1021B00086818883D8015E969C9361E00E94CD075A
:1021C00060E0F801868D0E94CD0761E088810E9461
:1021D00050071FB7F89480913802811125C0F30190
:1021E0008491F4019491E82FF0E0EE0FFF1FE4508A
:1021F000FE4FA591B4918C91982321F461E085E381
:102200000E94500761E085E30E94CD078CB5806194
:102210008CBD8CB580648CBD61E084E30E94CD07E9
:1022200061E083E30E94CD07809138028F5F809345
:1022300038021FBFC5010197F1F760E088810E9455
:10224000500788E80E94B20D83E00E94B20D61E061
:1022500088810E945007C5010197F1F7CE010E94C5
:10226000B90DF2E0CF0ED11C2296EA94EF2821F0AE
:10227000EE24E394F12C81CFCEEFD5E01C2F1C5F30
:1022800060E089910E94CD071C13FACFCAE0CC2EE2
:10229000C6E0DC2ED6E0ED2ED6E0FD2EC1E1D6E084
:1022A00000E010E08CE0A82E92E0B92EF701349700
:1022B0009080D6018C91803308F055C061E0892D63
:1022C0000E94CD07F6018081E82FF0E09F01220FE8
:1022D000331FE20FF31FE152FB4F992D9F732081B3
:1022E000207C922E992A9082F801E650FA4F118AAA
:1022F000128A6A2D0E945515FCE08F9FB0011124AF
:1023000040E050E09A01260F371FF901EE0FFF1F42
:102310002E0F3F1FF901E152FB4F908196FD16C031
:102320004F5F5F4F4C30510569F7813009F04CC069
:1023300010928000B092810010928500109284006B
:10234000B19A80916F00826080936F00D601EC910A
:10235000F0E0CF01880F991FE80FF91FE152FB4F02
:10236000808180648083F70181917F01FE01319734
:102370008083888360E00E94CD0761E088810E94AD
:10238000CD0760E088810E945007F3E0CF0ED11C9A
:102390000D5F1F4F22960630110509F087CF6AE9BD
:1023A00079E989E99EE30E94B7016AE979E989E957
:1023B0009EEB0E94B70168EE73E080E090E00E941F
:1023C00009080E94B909EBCF823061F410929000A5
:1023D00080939100109295001092940088BB809396
:1023E0007100B4CF833061F41092A000B092A100CC
:1023F0001092A5001092A400B9BAB0927200A6CFB4
:102400008111A4CF10922001B092210110922501D8
:1024100010922401BABAB092730098CF80917005DF
:10242000909171050C9418171092FF021092FE0201
:1024300088EE93E0A0E0B0E0809300039093010366
:10244000A0930203B09303032BE032E03093FD022C
:102450002093FC0210920B0310920A0380930C034A
:1024600090930D03A0930E03B0930F032DE132E080
:10247000309309032093080345E351E0509315037B
:102480004093140344E351E0509317034093160321
:1024900040E351E0509319034093180341E351E0A6
:1024A00050931B0340931A0342E351E050931D03E2
:1024B00040931C0346E351E050931F0340931E03D7
:1024C00010922103109222031092230310922403EE
:1024D0001092A8031092A7038093A9039093AA03D4
:1024E000A093AB03B093AC033093A6032093A50352
:1024F00045ED50E05093B2034093B10344ED50E0FA
:102500005093B4034093B30340ED50E05093B603AF
:102510004093B50341ED50E05093B8034093B703A7
:1025200042ED50E05093BA034093B90346ED50E0BA
:102530005093BC034093BB031092BE031092BF03A1
:102540001092C0031092C1031092450410924404EB
:102550008093460490934704A0934804B0934904A1
:10256000309343042093420485EC90E090934F0411
:1025700080934E0484EC90E0909351048093500437
:1025800080EC90E0909353048093520481EC90E0AF
:10259000909355048093540482EC90E090935704F8
:1025A0008093560486EC90E09093590480935804ED
:1025B00010925B0410925C0410925D0410925E0411
:1025C00086E38093FA0587E38093FB0588E3809395
:1025D000FC0589E38093FD058BE18093FE058DE189
:1025E0008093FF058AE1809300068CE180930106C9
:1025F00084E08093020687E080930306109204062D
:1026000084EB8093050686E18093060688E180933B
:10261000070687E18093080689E180930906809187
:102620006F05803320F08FEF80930A0613C091E08E
:10263000980F90936F0580930A0690E0FC01EE0FCF
:10264000FF1F8E0F9F1FFC01E152FB4F88EB9BE0A9
:102650009283818380916F05803320F08FEF809388
:102660000D0613C091E0980F90936F0580930D06AF
:1026700090E0FC01EE0FFF1F8E0F9F1FFC01E15247
:10268000FB4F88EB9BE0928381838CE08093D9059C
:1026900084E28093DA0586E08093DB0585E0809311
:1026A000DC058FE18093DD058EE18093DE0583E21A
:1026B0008093DF0582E28093E00585E48093E10565
:1026C00084E48093E20580E48093E5051092EA05B6
:1026D0001092EB051092EC051092ED051092EE05AC
:1026E0001092EF051092F0051092F105EAE7F5E07F
:1026F0008FEF9FEFDC011282138214821582168203
:1027000017821086118683879487A587B687878767
:10271000908BA18BB28B128611821082739625E06A
:10272000E93DF20741F78DE090E00E948316FC013D
:10273000138212828FE292E091838083118687E276
:10274000848384E1828784E083871486F09377050D
:10275000E093760510927805109279051092710534
:102760001092700510927305109272051092750503
:102770001092740561E070E080E090E00E94B01774
:10278000009789F0909371058093700510927305FE
:10279000109272052091740530917505232BC1F4B8
:1027A000FC01108215C08091700590917105009711
:1027B00011F00E9418171092710510927005109276
:1027C00075051092740510927305109272050895A4
:1027D000109275051092740567E372E00C94A718C7
:1027E0000E94321408F481E00895E89409C097FB30
:1027F0003EF490958095709561957F4F8F4F9F4FD8
:102800009923A9F0F92F96E9BB279395F69587951B
:1028100077956795B795F111F8CFFAF4BB0F11F4DE
:1028200060FF1BC06F5F7F4F8F4F9F4F16C0882385
:1028300011F096E911C0772321F09EE8872F762FBB
:1028400005C0662371F096E8862F70E060E02AF0FC
:102850009A95660F771F881FDAF7880F96958795E8
:1028600097F90895990F0008550FAA0BE0E8FEEFBD
:1028700016161706E807F907C0F012161306E40744
:10288000F50798F0621B730B840B950B39F40A263D
:1028900061F0232B242B252B21F408950A2609F41B
:1028A000A140A6958FEF811D811D08950E94691496
:1028B0000C94DA140E94CC1438F00E94D31420F047
:1028C000952311F00C94C3140C94C91411240C9486
:1028D0000E150E94EB1470F3959FC1F3950F50E015
:1028E000551F629FF001729FBB27F00DB11D639FC2
:1028F000AA27F00DB11DAA1F649F6627B00DA11D68
:10290000661F829F2227B00DA11D621F739FB00D0D
:10291000A11D621F839FA00D611D221F749F33277D
:10292000A00D611D231F849F600D211D822F762F16
:102930006A2F11249F5750409AF0F1F088234AF0F3
:10294000EE0FFF1FBB1F661F771F881F915050405F
:10295000A9F79E3F510580F00C94C3140C940E15FA
:102960005F3FE4F3983ED4F3869577956795B795E6
:10297000F795E7959F5FC1F7FE2B880F911D969500
:10298000879597F9089597F99F6780E870E060E070
:1029900008959FEF80EC089500240A9416161706F8
:1029A00018060906089500240A9412161306140640
:1029B00005060895092E0394000C11F4882352F0A3
:1029C000BB0F40F4BF2B11F460FF04C06F5F7F4F5B
:1029D0008F4F9F4F089557FD9058440F551F59F042
:1029E0005F3F71F04795880F97FB991F61F09F3FFC
:1029F00079F087950895121613061406551FF2CF25
:102A00004695F1DF08C0161617061806991FF1CF74
:102A100086957105610508940895E894BB2766279B
:102A20007727CB0197F90895052E97FB1EF40094A4
:102A30000E942B1557FD07D00E94331507FC03D0C9
:102A40004EF40C942B1550954095309521953F4FA1
:102A50004F4F5F4F089590958095709561957F4F8A
:102A60008F4F9F4F0895A1E21A2EAA1BBB1BFD0199
:102A70000DC0AA1FBB1FEE1FFF1FA217B307E4075D
:102A8000F50720F0A21BB30BE40BF50B661F771FB5
:102A9000881F991F1A9469F7609570958095909595
:102AA0009B01AC01BD01CF010895991B79E004C0E1
:102AB000991F961708F0961B881F7A95C9F780957D
:102AC0000895EE0FFF1F881F8BBF0790F691E02D32
:102AD00019945058BB27AA270E9481150C94DA1428
:102AE0000E94CC1438F00E94D31420F039F49F3F98
:102AF00019F426F40C94C9140EF4E095E7FB0C9439
:102B0000C314E92F0E94EB1458F3BA176207730736
:102B10008407950720F079F4A6F50C940D150EF4B2
:102B2000E0950B2EBA2FA02D0B01B90190010C01DD
:102B3000CA01A0011124FF27591B99F0593F50F4F5
:102B4000503E68F11A16F040A22F232F342F44274D
:102B5000585FF3CF469537952795A795F040539545
:102B6000C9F77EF41F16BA0B620B730B840BBAF015
:102B70009150A1F0FF0FBB1F661F771F881FC2F780
:102B80000EC0BA0F621F731F841F48F48795779594
:102B90006795B795F7959E3F08F0B0CF9395880F4E
:102BA00008F09927EE0F9795879508950E94EA15EA
:102BB0000C94DA140E94D31458F00E94CC1440F004
:102BC00029F45F3F29F00C94C31451110C940E1595
:102BD0000C94C9140E94EB1468F39923B1F35523A4
:102BE00091F3951B550BBB27AA2762177307840720
:102BF00038F09F5F5F4F220F331F441FAA1FA9F3B6
:102C000035D00E2E3AF0E0E832D091505040E695A3
:102C1000001CCAF72BD0FE2F29D0660F771F881F04
:102C2000BB1F261737074807AB07B0E809F0BB0BF7
:102C3000802DBF01FF2793585F4F3AF09E3F51050B
:102C400078F00C94C3140C940E155F3FE4F3983E97
:102C5000D4F3869577956795B795F7959F5FC9F7F4
:102C6000880F911D9695879597F90895E1E0660F75
:102C7000771F881FBB1F621773078407BA0720F0EE
:102C8000621B730B840BBA0BEE1F88F7E095089557
:102C90000E944F166894B1110C940E1508950E946D
:102CA000F31488F09F5798F0B92F9927B751B0F0D7
:102CB000E1F0660F771F881F991F1AF0BA95C9F7C0
:102CC00014C0B13091F00E940D15B1E008950C943C
:102CD0000D15672F782F8827B85F39F0B93FCCF3EF
:102CE000869577956795B395D9F73EF4909580953D
:102CF000709561957F4F8F4F9F4F08950E943214BA
:102D000008F48FEF0895CF93DF938230910510F48C
:102D100082E090E0E0911606F091170620E030E0A6
:102D2000C0E0D0E0309711F1408151814817590738
:102D3000C0F04817590761F482819381209719F0F8
:102D40009B838A832BC0909317068093160626C018
:102D50002115310519F04217530718F49A01BE01E5
:102D6000DF01EF010280F381E02DDCCF2115310579
:102D700009F1281B390B2430310590F412968D91FE
:102D80009C9113976115710521F0FB019383828358
:102D900004C09093170680931606FD01329644C036
:102DA000FD01E20FF31F81939193225031092D937E
:102DB0003C933AC02091140630911506232B41F420
:102DC00020910302309104023093150620931406DB
:102DD00020910102309102022115310541F42DB7F5
:102DE0003EB74091050250910602241B350BE0913D
:102DF0001406F0911506E217F307A0F42E1B3F0B03
:102E00002817390778F0AC014E5F5F4F241735075C
:102E100048F04E0F5F1F50931506409314068193A0
:102E2000919302C0E0E0F0E0CF01DF91CF910895EF
:102E30000F931F93CF93DF93009709F48CC0FC018D
:102E4000329713821282009116061091170601150F
:102E5000110581F420813181820F931F2091140686
:102E6000309115062817390779F5F0931506E09388
:102E7000140671C0D80140E050E0AE17BF0750F40F
:102E800012962D913C911397AD012115310509F151
:102E9000D901F3CF9D01DA013383228360817181EF
:102EA000860F971F8217930769F4EC0128813981F7
:102EB000260F371F2E5F3F4F318320838A819B81EE
:102EC00093838283452B29F4F0931706E09316062B
:102ED00042C01396FC93EE931297ED0149915991DC
:102EE0009E01240F351FE217F30771F48081918151
:102EF000840F951F029611969C938E9382819381E5
:102F000013969C938E931297E0E0F0E0D80112960E
:102F10008D919C911397009719F0F8018C01F6CFD1
:102F20008D919C9198012E5F3F4F820F931F2091AE
:102F30001406309115062817390769F4309729F4DB
:102F4000109217061092160602C013821282109376
:102F5000150600931406DF91CF911F910F910895EC
:102F60006F927F928F929F92AF92BF92CF92DF9299
:102F7000EF92FF920F931F93CF93DF93EC01009793
:102F800089F4CB01DF91CF911F910F91FF90EF90CA
:102F9000DF90CF90BF90AF909F908F907F906F9079
:102FA0000C948316FC01E60FF71F9C012250310997
:102FB000E217F30708F4ACC0D9010D911C911197E9
:102FC00006171707B0F00530110508F49FC0C801B7
:102FD00004978617970708F499C002501109061B39
:102FE000170B019311936D937C93CF010E941817D7
:102FF0008DC05B01A01AB10A4C01800E911EA091F8
:103000001606B091170640E050E0E12CF12C109725
:1030100009F44AC0A815B905D1F56D907C901197B7
:10302000630182E0C80ED11CCA14DB0480F1A30145
:103030004A195B096A0182E0C80ED11C1296BC9045
:1030400012971396AC91B5E0CB16D10440F0B28242
:10305000A38351834083D9016D937C930AC00E5F93
:103060001F4FC301800F911FF90191838083EB2DC6
:10307000FA2FE114F10431F0D7011396FC93EE938B
:10308000129744C0F0931706E09316063FC08D9147
:103090009C9111974817590708F4AC017D011296CD
:1030A0000D90BC91A02DB3CF809114069091150680
:1030B00088159905E1F446175707C8F48091010275
:1030C00090910202009741F48DB79EB7409105029E
:1030D00050910602841B950BE817F907C8F4F0938A
:1030E0001506E0931406F901718360830FC0CB01CC
:1030F0000E9483167C01009759F0A801BE010E942E
:103100009E18CE010E941817C70104C0CE0102C04C
:1031100080E090E0DF91CF911F910F91FF90EF90B1
:10312000DF90CF90BF90AF909F908F907F906F90E7
:10313000089581E090E0F8940C94AE18FB01DC0156
:1031400002C001900D9241505040D8F70895FB0104
:10315000DC0101900D920020E1F7089511E0C3E831
:10316000D1E000E006C0802FFE010E94611521968B
:10317000011DC438D10780E00807A9F7F894FFCFF4
:10318000FF00001806200000000000BE058E05E7C5
:10319000096805860577056905000000004D098D61
:1031A00008D10894090209E008F40800000000D9D9
:0831B0000A8D08E709E6090099
:00000001FF
